:100000000C9473000C949B000C949B000C949B002C
:100010000C949B000C949B000C949B000C946A1213
:100020000C949B000C949B000C949B000C949B00E4
:100030000C949B000C949B000C949B000C949B00D4
:100040000C9420120C949B000C94EC120C94C6128D
:100050000C949B000C949B000C949B000C949B00B4
:100060000C941E130C949B0007634236B79BD8A7D1
:100070001A39685618AEBAAB558C1D3CB7CC5763CD
:10008000BD6DEDFD753EF6177231BF000000803F7B
:100090000200000000240027002A000000000025C4
:1000A0000028002B000404040404040404020202D7
:1000B00002020203030303030301020408102040A9
:1000C0008001020408102001020408102000000032
:1000D0000800020100000304070000000000000007
:1000E00000003D14732711241FBECFEFD8E0DEBF00
:1000F000CDBF24E0AEEEB1E001C01D92AA36B2073A
:10010000E1F711E0A0E0B1E0E4EBF8E502C0059012
:100110000D92AE3EB107D9F710E0C2E7D0E004C0BF
:100120002197FE010E941D2BC137D107C9F70E94FC
:100130005E150C944D2C0C940000CF92DF92EF9240
:10014000FF92CF93DF93EC016A017B01E889F98983
:1001500082E08083C11481EED806E104F104A1F0AD
:1001600060E079E08DE390E0A70196010E94DC2A2F
:1001700021503109410951095695479537952795E1
:10018000211580E1380798F0E889F989108260E844
:1001900074E88EE190E0A70196010E94DC2A2150CC
:1001A0003109410951095695479537952795EC85B1
:1001B000FD853083EE85FF852083188EEC89FD89CF
:1001C00086E08083EA89FB89808180618083EA8977
:1001D000FB89808188608083EA89FB8980818068CF
:1001E0008083EA89FB8980818F7D8083DF91CF9135
:1001F000FF90EF90DF90CF900895EEE0F4E016A628
:1002000015A610AA17A612AA11AA14AA13AA16AA0A
:1002100015AA10AE17AA12AE11AE10924C0410928D
:100220004D0410924E0410924F0414A614AE15AE55
:1002300010925404109250041092510410925204DF
:100240001092530413AE0895EEE0F4E086A197A156
:10025000B0E0A0E023AD04C0880F991FAA1FBB1F08
:100260002A95D2F7E0E5F4E0408151816281738103
:10027000840F951FA61FB71F80839183A283B3832A
:10028000682F792F8A2F9B2F0895CF93DF9300D06B
:1002900000D0CDB7DEB769837A838B839C8380914E
:1002A0001C0490911D04DC01ED91FC910280F3810E
:1002B000E02D44E050E0BE016F5F7F4F09950F9045
:1002C0000F900F900F90DF91CF91089580911C04B3
:1002D00090911D04DC01ED91FC910190F081E02DE5
:1002E00060E0099560E070E0CB010C944501CF938C
:1002F000DF93CEE0D4E08E859F85DC01ED91FC910B
:100300000190F081E02D60E009958E859F85DC01EC
:10031000ED91FC910190F081E02D60E0DF91CF91B3
:10032000099490E0FC01E353FF4F2491FC01E75452
:10033000FF4F3491FC01EB55FF4FE491EE23C9F0E0
:10034000222339F0233001F1A8F4213019F12230B1
:1003500029F1F0E0EE0FFF1FE556FF4FA591B49194
:100360008FB7F894EC91611126C030953E233C93F1
:100370008FBF08952730A9F02830C9F0243049F7FD
:10038000809180008F7D03C0809180008F77809363
:100390008000DFCF84B58F7784BDDBCF84B58F7DC0
:1003A000FBCF8091B0008F778093B000D2CF809147
:1003B000B0008F7DF9CF3E2BDACFCF93DF9390E063
:1003C000FC01E754FF4F24918B559F4FFC01849112
:1003D0008823D1F090E0880F991FFC01EF56FF4F62
:1003E000A591B491FC01E556FF4FC591D4916111DF
:1003F0000EC09FB7F8948C91E22FE0958E238C93DA
:100400002881E223E8839FBFDF91CF9108958FB7C2
:10041000F894EC91E22BEC938FBFF6CF1F93CF9320
:10042000DF93182FEB0161E00E94DD01209739F482
:1004300060E0812FDF91CF911F910C949101CF3F0C
:10044000D10511F461E0F5CFE12FF0E0E353FF4F68
:10045000E491E33031F140F4E130B1F0E230E1F029
:10046000C038D1057CF7E4CFE73029F1E83059F105
:10047000E430B1F780918000806280938000D09357
:100480008B00C0938A0004C084B5806884BDC7BD5A
:10049000DF91CF911F91089584B5806284BDC8BD5E
:1004A000F7CF80918000806880938000D09389008E
:1004B000C0938800EDCF8091B00080688093B00039
:1004C000C093B300E5CF8091B00080628093B0000C
:1004D000C093B400DDCF3FB7F89480916F02909144
:1004E0007002A0917102B091720226B5A89B05C05E
:1004F0002F3F19F00196A11DB11D3FBFBA2FA92FA3
:10050000982F8827BC01CD01620F711D811D911D9F
:1005100042E0660F771F881F991F4A95D1F708950B
:100520002FB7F89460916B0270916C0280916D020C
:1005300090916E022FBF0895CF93DF93CDB7DEB7B2
:10054000C258D1090FB6F894DEBF0FBECDBF382F09
:1005500082E8E6E5F1E0DE01119601900D928A95C0
:10056000E1F7DE01AC57BF4FE2E88E918C3511F018
:10057000E150D9F7EF5F81E88E1B41E050E04C0F6E
:100580005D1F4E0F511DFA01232FA32FB92F9A2F54
:10059000921B981718F491919D93F9CFCE57DF4F86
:1005A0000FB6F894DEBF0FBECDBFDF91CF91089597
:1005B000CF93DF93CDB7DEB72C970FB6F894DEBF9D
:1005C0000FBECDBF2CE0E8EDF1E0DE011196019009
:1005D0000D922A95E1F7FE0131969C01255F3F4F70
:1005E0004191DC014D93CD01A217B307C9F78BE010
:1005F0002C960FB6F894DEBF0FBECDBFDF91CF9122
:100600000895CF93DF93CDB7DEB729970FB6F8944F
:10061000DEBF0FBECDBF29E0E4EEF1E0DE011196B2
:1006200001900D922A95E1F7FE0131969C01285F19
:100630003F4F4191DC014D93CD01A217B307C9F79C
:1006400088E029960FB6F894DEBF0FBECDBFDF91CC
:10065000CF9108959091000189130BC0E0E9F0E07B
:10066000E4919FEF90930001E13049F028F0E230EF
:1006700061F060E00C94910110926E00FACF9091BD
:100680006F009D7F90936F00F4CF909170009D7FDD
:100690009093700091E09093B0009091B100987F9A
:1006A00094609093B1001092B300E3CF4F925F92A9
:1006B0006F927F928F929F92AF92BF92CF92DF9272
:1006C000EF92FF920F931F93CF93DF9300D000D050
:1006D0001F92CDB7DEB78B0129013A01909100013D
:1006E0008917C9F09F3F09F47EC00F900F900F90BB
:1006F0000F900F90DF91CF911F910F91FF90EF908E
:10070000DF90CF90BF90AF909F908F907F906F9031
:100710005F904F900895E0E9F0E094919D8397FDFC
:10072000E4CF61E00E94DD018D81882321F09D816D
:10073000923009F04AC14801B12CA12C60E072E16D
:100740008AE790E0A50198010E94FE2A29833A8356
:100750004B835C8369017A0181E0C81AD108E10802
:10076000F1089FEFC916D104E104F10409F00CF47B
:1007700001C160E472E48FE090E0A50198010E945D
:10078000FE2A69017A0181E0C81AD108E108F1085E
:100790009D81923009F0A2C08FEFC816D104E10408
:1007A000F10409F00CF4E6C160E970ED83E090E03B
:1007B000A50198010E94FE2A69017A0191E0C91AF7
:1007C000D108E108F1088FEFC816D104E104F10463
:1007D00011F00CF07FC183E09091B100987F892BDC
:1007E0008093B100CFC080930001E0E9F0E09491E4
:1007F0009D839F3F09F479CF913041F150F09230C1
:1008000009F446C09D8197FD70CF61E00E94DD0133
:100810008ECF14BC15BC94B5926094BD95B5916013
:1008200095BD282F30E0F901EB55FF4FE491F0E042
:10083000EE0FFF1FE556FF4F45915491F901E75424
:10084000FF4FE491E0935A021D826BCF109280001B
:100850001092810090918100986090938100909116
:100860008100916090938100282F30E0F901EB55D1
:10087000FF4FE491F0E0EE0FFF1FE556FF4F45916B
:100880005491F901E754FF4FE491E093590249CFA5
:100890001092B0001092B1009091B00092609093CD
:1008A000B0009091B10091609093B100282F30E09A
:1008B000F901EB55FF4FE491F0E0EE0FFF1FE55615
:1008C000FF4F459154915093640240936302F901A4
:1008D000E754FF4FE491E093650223CF9FEFC916E1
:1008E000D104E104F10409F00CF46DC068E478EE81
:1008F00081E090E0A50198010E94FE2A69017A0139
:1009000081E0C81AD108E108F1089D81992309F412
:10091000FAC08FEFC816D104E104F10411F00CF015
:10092000FBC0EFC064E274EF80E090E0A5019401A9
:100930000E94FE2A69017A0181E0C81AD108E10803
:10094000F10885E09FEFC916D104E104F10409F034
:1009500008F442CF62E17AE780E090E0A5019401DB
:100960000E94FE2A69017A0181E0C81AD108E108D3
:10097000F108E5C081E09D8191112ECF95B5987F5A
:10098000892B85BD2FEF3FEFA9014114510461046C
:10099000710409F043C09D81913009F45EC092302A
:1009A00009F46DC09111A1CEC7BC20935F023093B2
:1009B0006002409361025093620280916E008260F7
:1009C00080936E0092CE82E0D6CFB12CA12C60E055
:1009D00072E18AE790E0A50198010E94FE2A690170
:1009E0007A0181E0C81AD108E108F108C114D104E4
:1009F00091E0E906F10404F591E08D81813011F672
:100A000080918100887F892B809381002FEF3FEFB9
:100A1000A9014114510461047104F9F0D801AA0F2D
:100A2000BB1FA30192010E94B62828EE33E040E0EC
:100A300050E00E94DC2AAFCF68E478EE81E090E0DD
:100A4000A50198010E94FE2A69017A0181E0C81A75
:100A5000D108E108F10893E0D0CFD0928900C0928C
:100A6000880020935B0230935C0240935D025093B8
:100A70005E0280916F00826080936F0036CEC092DC
:100A8000B30020936602309367024093680250934C
:100A900069028091700082608093700026CE84E0AD
:100AA0009FEFC916D104E104F10409F008F466CF00
:100AB000C980DA80EB80FC808AE0F594E794D794D3
:100AC000C7948A95D1F781E0C81AD108E108F108E6
:100AD00085E054CF68E478EE81E090E0A5019801CC
:100AE0000E94FE2A69017A0181E0C81AD108E10852
:100AF000F1089FEFC916D104E104F10411F00CF0E4
:100B000011CF84E069CE83E09FEFC916D104E104E0
:100B1000F10409F00CF432CF62E17AE780E090E072
:100B2000A50194010E94FE2A69017A0181E0C81A98
:100B3000D108E108F1089D81992309F4B0CF86E03E
:100B40009FEFC916D104E104F10409F008F444CE82
:100B5000C980DA80EB80FC809AE0F594E794D79422
:100B6000C7949A95D1F781E0C81AD108E108F10835
:100B700087E032CE82E030CEAF92BF92CF92DF924A
:100B8000EF92FF920F931F93CF93DF936C017B0142
:100B90008B01040F151FEB015E01AE18BF08C017D3
:100BA000D10759F06991D601ED91FC910190F08146
:100BB000E02DC6010995892B79F7C501DF91CF9109
:100BC0001F910F91FF90EF90DF90CF90BF90AF906B
:100BD0000895FC01538D448D252F30E0842F90E043
:100BE000821B930B541710F0CF9608950197089528
:100BF000FC01918D828D981761F0A28DAE0FBF2FF1
:100C0000B11D5D968C91928D9F5F9F73928F90E046
:100C100008958FEF9FEF0895FC01918D828D9817B5
:100C200031F0828DE80FF11D858D90E008958FEFF2
:100C30009FEF0895FC01918D228D892F90E0805CBB
:100C40009F4F821B91098F739927089581E793E045
:100C50000E941A0621E0892B09F420E0822F0895D2
:100C600080E090E0892B29F00E94260681110C94E7
:100C700000000895FC01A48DA80FB92FB11DA35A3F
:100C8000BF4F2C91848D90E001968F739927848FAC
:100C9000A689B7892C93A089B1898C9183708064CF
:100CA0008C93938D848D981306C00288F389E02D70
:100CB00080818F7D80830895EF92FF920F931F9321
:100CC000CF93DF93EC0181E0888F9B8D8C8D9813FF
:100CD0001AC0E889F989808185FF15C09FB7F8940B
:100CE000EE89FF896083E889F98980818370806457
:100CF00080839FBF81E090E0DF91CF911F910F91A2
:100D0000FF90EF900895F62E0B8D10E00F5F1F4FB0
:100D10000F731127E02E8C8D8E110CC00FB607FCBF
:100D2000FACFE889F989808185FFF5CFCE010E944D
:100D30003A06F1CFEB8DEC0FFD2FF11DE35AFF4F7B
:100D4000F0829FB7F8940B8FEA89FB8980818062DB
:100D5000CFCFCF93DF93EC01888D8823B9F0AA8998
:100D6000BB89E889F9898C9185FD03C0808186FD66
:100D70000DC00FB607FCF7CF8C9185FFF2CF8081B5
:100D800085FFEDCFCE010E943A06E9CFDF91CF91EA
:100D9000089520913402260F3327331F2132310565
:100DA000ECF420919902FC0190E080E0243069F09D
:100DB00082E00895A09134022191AC014E5E5D4F16
:100DC000A40FB52FB11D2C930196861798F380912F
:100DD0003402680F6093340280E0089581E0089542
:100DE0001092990281E0809398021092730261E060
:100DF00082E10E94910161E083E10E949101E9EBAF
:100E0000F0E080818E7F808380818D7F808388E485
:100E10008093B80085E48093BC000895CF93DF935E
:100E200091E0909311028823B9F0C091B800D0915D
:100E3000BA008091BC008A7B8093BC0060E082E1B4
:100E40000E94910160E083E10E9491010E94F006FE
:100E5000D093BA00C093B800DF91CF9108958F92DC
:100E60009F92AF92BF92CF92DF92EF92FF920F9339
:100E70001F93CF93DF93D091C202D13208F0D7C035
:100E8000182FC091C1020E946B026B017C018091FE
:100E9000990281116BC082E08093990210939802AD
:100EA0008FEF8093970210929602D0939502A1EA59
:100EB000B2E0E5E7F2E080E0D81391C0109274024E
:100EC00080917402CC0FC82BC0937402809173027E
:100ED000813009F088C0109273020E946B026B018E
:100EE0007C01809174028093BB0080919B02909161
:100EF0009C02A0919D02B0919E02892B8A2B8B2B84
:100F0000A1F00E946B0200919B0210919C02209123
:100F10009D0230919E026C197D098E099F0906176A
:100F200017072807390708F442C08091BC0083FDE9
:100F3000D8CF85EC8093BC000E946B026B017C01D2
:100F400080919902823009F450C0809197028F3FBE
:100F500009F46FC080919702803209F46CC08091CF
:100F60009702803309F469C084E026C080919B0217
:100F700090919C02A0919D02B0919E02892B8A2B98
:100F80008B2B09F484CF0E946B0280909B0290907F
:100F90009C02A0909D02B0909E026C197D098E0962
:100FA0009F0986169706A806B90608F070CF8091AB
:100FB0009A020E940E0785E01092A0021092C202CF
:100FC00010929F02DF91CF911F910F91FF90EF90B0
:100FD000DF90CF90BF90AF909F908F9008959D919C
:100FE00091938F5F69CF85EEA5CF80919B02909101
:100FF0009C02A0919D02B0919E02892B8A2B8B2B83
:1010000009F49ECF0E946B0200919B0210919C02FA
:1010100020919D0230919E026C197D098E099F09D5
:10102000061717072807390708F08ACFC0CF81E0D5
:10103000C3CF80E0C1CF82E0BFCF83E0BDCF0895B2
:1010400008950895E091100280910F02E81730F49E
:10105000F0E0E151FE4F808190E008958FEF9FEF27
:1010600008959091100280910F022FEF3FEF981793
:1010700048F4E92FF0E0E151FE4F208130E09F5F1E
:1010800090931002C901089580910F02909110026F
:10109000891B990B0895CF92DF92EF92FF920F93E5
:1010A0001F93CF93DF937C01CB018A0120919F0294
:1010B000222389F0EB016B01C40ED51ECC15DD0592
:1010C00069F06991D701ED91FC910190F081E02DDB
:1010D000C7010995F3CF642F0E94C906C801DF91AB
:1010E000CF911F910F91FF90EF90DF90CF900895D7
:1010F000CF93DF931F92CDB7DEB7698320919F0214
:101100002223F9F02091C202203258F021E030E091
:10111000FC013383228390E080E00F90DF91CF9138
:1011200008958091A002E82FF0E0EF55FD4F9981DE
:1011300090838F5F8093A0028093C20281E090E051
:10114000ECCF61E0CE0101960E94C906F7CF90E096
:1011500080E00895EF92FF920F931F93DC011896A1
:101160008C911897882381F0489FA0011124452F66
:10117000829F90011124232F809F80011124012F31
:101180008E9D70011124EF2C1E968C911E9719963E
:10119000ED91FC911A971B969C911B97891320C087
:1011A000CB01880F991F680F791F6E0F7F1F1B9649
:1011B000EC911B97E60FF72FF11D40831C96EC91E5
:1011C0001C97E60FF72FF11D20831D968C91680F59
:1011D000711DFB0100831F910F91FF90EF90089507
:1011E000660F771F660F771F6E0F7F1FFB01E80FDB
:1011F000F11DE082DCCFCF92DF92EF92FF920F934E
:101200001F93CF93DF93CDB7DEB729970FB6F8942E
:10121000DEBF0FBECDBF8C010E946B02D8011F96AE
:10122000CD90DD90ED90FC9052976C157D058E056C
:101230009F0528F4F8016787708B818B928BD8010A
:101240001F96CD90DD90ED90FC9052976C197D0922
:101250008E099F096C32714081059105E8F2F8947E
:10126000F801848195819A8389830184F285E02D38
:101270007F012FEFE21AF20A80818F83D8019C91BF
:101280005396ED91FC91549755968C91992309F4BE
:1012900048C09081982B9887908180958923898771
:1012A00089858B8388E08C83588569854F813C8153
:1012B0002B8189819A81D701508347FD252F3A954B
:1012C0002083262F39F0441F00C0000060830000F7
:1012D00000C0F2CF38E04D9160830000019761F7C4
:1012E000D8015496FC93EE9353974F833C832B8302
:1012F0009A83898378940E946B02F8016787708BC8
:10130000818B928B29960FB6F894DEBF0FBECDBFAE
:10131000DF91CF911F910F91FF90EF90DF90CF90D1
:1013200008959081982B988790818095892389874B
:1013300089858D8388E08E83588569854F813E81BC
:101340002D8189819A81D701508347FD252F00C0C7
:1013500000C0208300C000C000C000C000C0608387
:101360000000262F3A9541F0441F000000C000C045
:1013700000C000C000C0E8CF38E04D9100C06083DD
:1013800000C0019709F7D8015496FC93EE93539748
:101390004F833E832D83ACCF7F928F929F92AF92EB
:1013A000BF92CF92DF92EF92FF920F931F93CF9352
:1013B000DF93EC018C898E3008F08E50877080644A
:1013C00080937C0080917A00806480937A00809181
:1013D0007A0086FDFCCF80917800909179009A8701
:1013E00089870E946B024B015C018B829C82AD82DB
:1013F000BE8220E030E0A9016BA57CA58DA59EA54D
:101400000E943F2A69857A85181614F5E9A4FAA482
:1014100090E080E00E948127AB01BC01D701ED91F3
:10142000FC910280F381E02D95018401C7010995AB
:101430006B017C0120E030E0A9010E947C2787FF3E
:1014400003C0C12CD12C7601C701B6010E94E92945
:1014500078876F830E9490020F8118854E855F8583
:101460002A893B894017510760F421153105A9F0FD
:10147000CD8CDE8CEF8CF8A0C616D706E806F906F0
:1014800060F41F870E876B017C01C20ED31EE11C26
:10149000F11CCD8EDE8EEF8EF8A248895989041793
:1014A000150760F42115310599F0C9A0DAA0EBA069
:1014B000FCA0C616D706E806F90650F4198B088B6F
:1014C000620F731F811D911D69A37AA38BA39CA337
:1014D000CE84DF84E888F988EC18FD087B847720C7
:1014E000D1F0B70190E080E00E9481272F89388DEC
:1014F000498D5A8D0E94E2274B015C01B60190E0B4
:1015000080E00E948127A50194010E94D1280E94B9
:10151000E9297C8F6B8F8C859D85E816F90610F480
:10152000711009C02B8D3C8D8981882331F081E0B9
:101530000217130730F480E004C081E0021713079C
:10154000D0F748818883EFA1F8A59A8121E030E0A7
:1015500001C0220F9A95EAF72095908129232083D4
:10156000EFA1F8A528819A8101C0220F9A95EAF788
:101570009081292B20838427DF91CF911F910F9198
:10158000FF90EF90DF90CF90BF90AF909F908F90A3
:101590007F900895CF93DF93EC016B816170898117
:1015A0000E9491016B8162708A81DF91CF910C94CE
:1015B000910160E070E0CB01089560E070E0CB0144
:1015C0000895CF92DF92EF92FF920F931F93CF93E4
:1015D000DF93EC016A017B010E946B028B019C018D
:1015E000E881F9810280F381E02DB701A601CE01E7
:1015F0000995DF91CF911F910F91FF90EF90DF90B0
:10160000CF90089560E070E080E89FEB089560E07F
:1016100070E080E89FEB0895CF92DF92EF92FF9207
:10162000CF93DF93EC01E881F9810084F185E02D0F
:1016300009956B017C012C853D854E855F85688908
:1016400079898A899B890E94D128A70196010E94E5
:10165000E227DF91CF91FF90EF90DF90CF90089538
:10166000DC01ED91FC910088F189E02D60E00994A6
:101670008F929F92AF92BF92CF92DF92EF92FF92A2
:101680001F93CF93DF93EC016A017B01122F8C84AF
:101690009D84AE84BF84AB019601C501B4010E9454
:1016A0007C2740E050E0BA0187FF0EC0A5019401FD
:1016B000C701B6010E94D028288939894A895B89E7
:1016C0000E943D29AB01BC01E881F9810480F581CC
:1016D000E02D212FCE010995288939894A895B8916
:1016E0000E94E2272C853D854E855F850E94D1288A
:1016F000DF91CF911F91FF90EF90DF90CF90BF903F
:10170000AF909F908F900895DC01ED91FC9104843F
:10171000F585E02D20E00994DC01ED91FC91008439
:10172000F185E02D60E00994DC01ED91FC910480ED
:10173000F581E02D20E009941F93CF93DF93EC0116
:101740008C899D89892B11F51092100210920F023D
:101750001092A0021092C2020E94F0068FE198E05F
:10176000909333028093320280E298E090933702A4
:1017700080933602898D91E090939F028093C102FD
:1017800081E0DF91CF911F910C942F071FB7F89440
:101790008091EE01811127C0EFEAF0E08491E3EC43
:1017A000F0E09491E82FF0E0EE0FFF1FEF56FF4FAF
:1017B000A591B491EC91E92321F461E08AE00E94C3
:1017C000910161E08AE00E94DD018CB580618CBDF1
:1017D0008CB580648CBD61E08DE00E94DD0161E02C
:1017E0008BE00E94DD018091EE018F5F8093EE011E
:1017F0001FBF61E08E890E94DD0161E08E890E9439
:10180000910180E0DF91CF911F910895CF92DF92F7
:10181000EF92FF920F931F93CF93DF93EC016A0136
:101820007B010CA51DA501151105D9F0AB01960191
:1018300060E070E080E89FE30E94D028AB01BC012B
:10184000D801ED91FC910480F581E02D28A9C80113
:10185000DF91CF911F910F91FF90EF90DF90CF908C
:1018600009940EA4DFA5C02D2097C1F0688170E017
:1018700090E080E00E948127A70196010E94E22764
:101880000E94E9296B83CE01DF91CF911F910F91C7
:10189000FF90EF90DF90CF900C94CA0ADF91CF9128
:1018A0001F910F91FF90EF90DF90CF900895FC0172
:1018B00083A50C942A036A3018F4DC0112966C9309
:1018C000DC01ED91FC910280F381E02D0994DC01B3
:1018D0001296EC91B4E0EB9FF0011124E80FF91F90
:1018E0002581368163817481FC0183A550E040E04D
:1018F0002F3F320719F420E030E0A9010C94560381
:10190000CF93DF93EC0161E08BA50E94DD0160E0E5
:101910008BA50E9491018CA59DA5009739F0DC0153
:10192000ED91FC910190F081E02D09950EA4DFA5C9
:10193000C02D2097A9F061E089810E94DD0160E05F
:1019400089810E94910161E08A810E94DD0160E04D
:101950008A810E949101CE01DF91CF910C94CA0A35
:10196000DF91CF910895EF92FF920F931F93CF9342
:10197000DF93EC018EA19FA110E0892BE9F406E032
:101980008DA5181708F042C0812F90E02881FE0134
:10199000029FE00DF11D1124E80FF91F61812EA5B2
:1019A000211101C0609570E08C0F9D1FFC0181A585
:1019B0000E940E021F5FE4CF86E0F82E8EA19FA149
:1019C00028A51217B0F4612F70E0FC012281338149
:1019D0006217730760F42881FE01F29EE00DF11D8D
:1019E0001124E4800381228141810E94AA081F5FA3
:1019F000E5CFFC0121853285232B41F0DF91CF918A
:101A00001F910F91FF90EF900C94FB08DF91CF9105
:101A10001F910F91FF90EF900895EF920F931F93F6
:101A2000CF93DF93EC018EA19FA110E0892B91F45D
:101A30008DA5181758F58EA570E060E0811102C0E1
:101A40006FEF70E0FE01E10FF11D81A50E940E0213
:101A50001F5FEECF8EA19FA128A5121780F4612FE2
:101A600070E0FC01228133816217730730F4E12CAE
:101A700000E020E040E00E94AA081F5FEBCFFC01DD
:101A800021853285232B11F00E94FB081FA618AA7E
:101A900019AA1AAA1DA2DF91CF911F910F91EF9061
:101AA00008951F93CF93DF93EC010E94B30C8881BC
:101AB00016E0FE01189FE00DF11D1124858196812D
:101AC000019691F00E9490022881FE01129FE00D84
:101AD000F11D112425813681620F731F811D911D17
:101AE0006FA778AB89AB9AAB81E08DA3DF91CF91E3
:101AF0001F910895CF93DF9300D000D0CDB7DEB70C
:101B000049835A836B837C83DC018D919C91DC013A
:101B1000ED91FC910280F381E02D44E050E0BE01A4
:101B20006F5F7F4F09950F900F900F900F90DF918F
:101B3000CF910895CF93DF9300D0CDB7DEB76983FF
:101B40007A83DC018D919C91DC01ED91FC91028006
:101B5000F381E02D42E050E0BE016F5F7F4F0995B9
:101B60000F900F90DF91CF910895EF92FF920F9316
:101B70001F93CF93DF93EC0160E772E08CE194E078
:101B80000E949A0D4D815E816F8178858CE194E091
:101B90000E947A0D00911C0410911D04D801ED9152
:101BA000FC91E080F180E881F9810480F581E02DED
:101BB000CE010995682FC801F701DF91CF911F91E0
:101BC0000F91FF90EF90099480911C0490911D0457
:101BD000DC01ED91FC910190F081E02D60E0099530
:101BE00070E060E08CE194E00C949A0DCF93C62FE6
:101BF000BC018CE194E00E949A0D80911C049091AC
:101C00001D0461E06C0FDC01ED91FC910190F0810D
:101C1000E02DCF910994FF920F931F93CF93DF9301
:101C2000EC018B01F42E62E072E00E949A0D888133
:101C3000998161E06F0DDC01ED91FC910190F081E3
:101C4000E02D0995F8014381548165817681CE01AB
:101C50000E947A0DD80117966D917C91CE010E9459
:101C60009A0DF80161857285CE01DF91CF911F91A8
:101C70000F91FF900C949A0D0F931F93CF93DF93C6
:101C8000EC018B0160E072E00E949A0DF801438143
:101C9000548165817681CE010E947A0D8881998177
:101CA000E801AFA1B8A5EC01E881F9810190F081CC
:101CB000E02D6C91DF91CF911F910F910994DC0180
:101CC000ED91FC910280F381E02D0994DC01ED910E
:101CD000FC910190F081E02D0994CF93DF93E09186
:101CE0003004F0913104309709F480C0EC01809108
:101CF000550490915604A0915704B0915804AC013A
:101D0000BD014F5F5F4F6F4F7F4F4093550450931E
:101D10005604609357047093580409958E3108F067
:101D200046C080934A04BE018CE194E00E949A0D63
:101D300080910E0490910F04DC01ED91FC910190D3
:101D4000F081E02D60914A04099580914A0488232E
:101D500009F44CC0E0913004F091310480915504B5
:101D600090915604A0915704B0915804AC01BD0164
:101D70004F5F5F4F6F4F7F4F409355045093560412
:101D800060935704709358040995682F70E070931E
:101D900035046093340480910E0490910F040E94E6
:101DA000660E80914A04815080934A04CECF1092EF
:101DB0004A04E0912E04F0912F04309709F4B3CF38
:101DC0008091550490915604A0915704B091580405
:101DD0000197A109B1098093550490935604A093EB
:101DE0005704B093580460E009959DCFDF91CF91DF
:101DF000089583EC92E00E94CC098823A9F0809199
:101E0000C30269E170E0811102C061E070E08AE024
:101E10000E940E028091100481FF06C063EC72E004
:101E20008CE194E00C943C0E08958F929F92AF92B7
:101E3000BF92CF92DF92EF92FF920F931F93CF93B7
:101E4000DF93EC01042FF22E632B162F142B8C89B9
:101E50009D89892B09F030C18CE08093B8008F896F
:101E6000988D298D31E030939F022093C10210920A
:101E7000A0021092C202DC01ED91FC910190F08170
:101E8000E02D612F09950C3009F006C181E00E9418
:101E90002F07882379F08FEF9FEFDF91CF911F916C
:101EA0000F91FF90EF90DF90CF90BF90AF909F90F9
:101EB0008F900895198D0E946B026B017C018091B7
:101EC0009902811165C081E0809399028093980204
:101ED0009FEF9093970210929602809395028093C1
:101EE000740280917402110F182B10937402809168
:101EF0007302813009F08EC0109273020E946B024F
:101F00006B017C01809174028093BB0080919B02E5
:101F100090919C02A0919D02B0919E02892B8A2BE8
:101F20008B2BA1F00E946B0200919B0210919C02EE
:101F300020919D0230919E026C197D098E099F09A6
:101F4000061717072807390708F443C08091BC001B
:101F500083FDD8CF85EC8093BC000E946B026B019F
:101F60007C0180919902813009F456C080919602DB
:101F7000823008F073C080919602E5E7F2E0AFEEA0
:101F8000B1E090E0981751F121912D939F5FFACF26
:101F900080919B0290919C02A0919D02B0919E0223
:101FA000892B8A2B8B2B09F48ACF0E946B0280909D
:101FB0009B0290909C02A0909D02B0909E026C1992
:101FC0007D098E099F0986169706A806B90608F0AE
:101FD00076CF80919A020E940E0780E01092100244
:101FE00080930F028230E0F58F89988DDC01ED91AE
:101FF000FC910084F185E02D0995892B09F44BCFE4
:102000008F89988DDC01ED91FC910284F385E02DA0
:102010000995EACF85EE9FCF80919B0290919C021B
:10202000A0919D02B0919E02892B8A2B8B2B09F4E3
:1020300098CF0E946B0200919B0210919C0220910C
:102040009D0230919E026C197D098E099F09061729
:1020500017072807390708F084CFBBCF82E08DCF60
:102060008F89988DDC01ED91FC910284F385E02D40
:102070000995082F8F89988DDC01ED91FC910284E0
:10208000F385E02D0995182F802F90E0982F882751
:10209000810F911D917001CF8F89988DDC01ED9199
:1020A000FC910190F081E02D6F2D099581E00E9457
:1020B0002F07182F00E0E8CF81E58CBD1DBC60E044
:1020C0008E890E9491011EBD00000DB407FEFDCF58
:1020D0000EB5FEBC00000DB407FEFDCF1EB561E0DD
:1020E0008E890E949101D0CF4F925F926F927F9222
:1020F0008F929F92AF92BF92CF92DF92EF92FF9218
:10210000CF93DF93EC012FEF31E04CE0611147C03A
:10211000CE010E94150FBC0190E080E00E94812753
:102120006B017C016A857B8590E080E00E948127BD
:102130009B01AC01C701B6010E943D299B01AC0186
:10214000C888D988EA88FB88C701B6010E94E227BF
:102150009B01AC018C849D84AE84BF84C501B40115
:102160000E94D1282B013C01A5019401C701B601B1
:102170000E94D1289B01AC01C301B2010E943D29FC
:10218000DF91CF91FF90EF90DF90CF90BF90AF9015
:102190009F908F907F906F905F904F90089560E137
:1021A000B7CFCF92DF92EF92FF921F93CF93DF933F
:1021B000EC016A017B01122F6A857B8590E080E04B
:1021C0000E948127A70196010E94E2270E94E92927
:1021D0009B0140E060E0111160E1CE010E94150F0B
:1021E000E881F9810084F185E02D612FCE01DF9136
:1021F000CF911F91FF90EF90DF90CF9009940E94B4
:10220000482C85ED8093BC0080919B0290919C02AC
:10221000A0919D02B0919E020796A11DB11D23E0E1
:10222000B695A795979587952A95D1F72091BC00EB
:1022300024FD03C010929902089540919B02509191
:102240009C0260919D0270919E02452B462B472B6C
:1022500069F30097A105B10541F02AE22A95F1F74B
:1022600000C00197A109B109E1CF80919A020C94B5
:102270000E073F924F925F926F927F928F929F9242
:10228000AF92BF92CF92DF92EF92FF920F931F9384
:10229000CF93DF93CDB7DEB72A970FB6F894DEBFA2
:1022A0000FBECDBF9A8789876A017B01DC011F962B
:1022B0008D909D90AD90BC905297FC010787108B3C
:1022C000218B328B13968D919D910D90BC91A02DF9
:1022D00089839A83AB83BC83838B948BA58BB68BCA
:1022E00087819085A185B2858D839E83AF83B887D2
:1022F000878B908FA18FB28FC382D482E582F682C2
:10230000328031101EC0C782D086E186F286C701B6
:10231000B6012A960FB6F894DEBF0FBECDBFDF918F
:10232000CF911F910F91FF90EF90DF90CF90BF90D2
:10233000AF909F908F907F906F905F904F903F9065
:102340000895C901B801681979098A099B090E9491
:1023500081274B015C01A985BA851B964D905D9044
:102360006D907C901E97AC019B01C301B2010E944D
:102370003D2920E030E040EE50E40E943F2A18164C
:10238000C4F5A5019401C301B2010E94D1289B01AB
:10239000AC01C301B2010E943D294B015C01AC01BB
:1023A0009B016D817E818F8198850E94E2272B01A0
:1023B0003C01B1E03B1227C0A501940160E070E050
:1023C00080E89FE30E94D028A70196010E94E2279F
:1023D000A30192010E94D128E985FA85678370875D
:1023E00081879287E985FA85C780D084E184F28469
:1023F0008ECFC501B4019058A30192010E943D29DE
:102400000E94B729CACF29813A814B815C81C701DB
:10241000B6010E94D028A50194010E94E227A301E1
:1024200092010E94D128A985BA8517966D937D9354
:102430008D939C931A97D6CF0C94A0280C94A8281F
:102440001F920F920FB60F9211242F933F938F93E9
:102450009F93AF93BF9380916B0290916C02A09178
:102460006D02B0916E0230916A0223E0230F2D3786
:1024700058F50196A11DB11D20936A0280936B024D
:1024800090936C02A0936D02B0936E0280916F02E4
:1024900090917002A0917102B09172020196A11DFB
:1024A000B11D80936F0290937002A0937102B0935C
:1024B0007202BF91AF919F918F913F912F910F9099
:1024C0000FBE0F901F90189526E8230F0296A11DAE
:1024D000B11DD2CF1F920F920FB60F9211242F93DE
:1024E0003F934F935F936F937F938F939F93AF939C
:1024F000BF93EF93FF938091660290916702A09142
:102500006802B0916902892B8A2B8B2BD1F19091B3
:102510006502E0916302F0916402808189278083E3
:102520008091660290916702A0916802B091690261
:10253000181619061A061B069CF4809166029091E3
:102540006702A0916802B09169020197A109B109DF
:102550008093660290936702A0936802B093690229
:10256000FF91EF91BF91AF919F918F917F916F916B
:102570005F914F913F912F910F900FBE0F901F9041
:102580001895809100010E942A03EACF1F920F92B2
:102590000FB60F9211242F933F934F935F936F9336
:1025A0007F938F939F93AF93BF93EF93FF9381E7B5
:1025B00093E00E943A06FF91EF91BF91AF919F91F6
:1025C0008F917F916F915F914F913F912F910F90DC
:1025D0000FBE0F901F9018951F920F920FB60F927B
:1025E00011242F938F939F93EF93FF93E091810397
:1025F000F09182038081E0918703F091880382FD4E
:102600001BC0908180918A038F5F8F7320918B0311
:10261000821741F0E0918A03F0E0EF58FC4F958F6C
:1026200080938A03FF91EF919F918F912F910F904B
:102630000FBE0F901F9018958081F4CF1F920F92BC
:102640000FB60F9211242F933F934F935F936F9385
:102650007F938F939F93AF93BF93EF93FF9380915B
:10266000B900887F803609F44AC0F0F5883209F451
:10267000A7C018F5803109F49BC0B8F4882309F489
:10268000F9C0883009F494C0FF91EF91BF91AF91E8
:102690009F918F917F916F915F914F913F912F917A
:1026A0000F900FBE0F901F901895883109F488C0C5
:1026B000803251F78093970214C0803409F49DC092
:1026C00040F48033B9F38833F9F68093970285ECB0
:1026D000B0C0803509F485C0883509F496C08834C7
:1026E00099F60E940111D0CF883909F48CC038F5D1
:1026F000883729F050F4883611F0803729F683E0C6
:10270000809399021092580257C0883809F47BC010
:10271000803919F0803809F0B7CF809158028032A3
:1027200008F071C0E091580281E08E0F809358024A
:102730008091BB00F0E0E85CFD4F80833DC0803BB2
:1027400039F0E0F4803A09F479C0883A09F09CCF76
:1027500084E0809399021092350210923402E09145
:102760003202F091330209958091340281110FC039
:1027700081E0809334021092120209C0803C09F477
:10278000A6CF883C09F4A3CF883B09F07DCFE09128
:10279000350281E08E0F80933502F0E0EE5EFD4F52
:1027A00080818093BB00909135028091340229C0D2
:1027B000809174028093BB0085EC8093BC0064CF51
:1027C0009091960280919502981758F5E0919602A3
:1027D00081E08E0F80939602F0E0EB58FD4F8081F0
:1027E000E9CFE091960281E08E0F8093960280916E
:1027F000BB00F0E0EB58FD4F8083909196028091F2
:1028000095029817C8F285E8D8CFE091960281E04A
:102810008E0F809396028091BB00F0E0EB58FD4F45
:1028200080838091980281115CCF81E08093730254
:1028300084EA8093BC001092990226CF85EC8093A5
:10284000BC001092990280915802803230F4E091DD
:102850005802F0E0E85CFD4F10826091580270E091
:10286000E0913602F091370288E392E009951092E8
:1028700058020ACF1092970234CFFF920F931F9302
:10288000CF93DF93A1E7B3E013961C921E921297A9
:1028900048EE53E060E070E014964D935D936D93C5
:1028A0007C9317978EE191E011969C938E9385EC23
:1028B00090E01D969C938E931C9784EC90E01F965D
:1028C0009C938E931E9780EC90E051969C938E93F0
:1028D000509781EC90E053969C938E93529782ECA4
:1028E00090E055969C938E93549786EC90E0579683
:1028F0009C938E93569759961C9259975A961C9270
:102900005A975B961C925B975C961C925C97EEE0E4
:10291000F4E0B183A08312828AEF90E094838383F2
:1029200080E197E2A0E0B0E085839683A783B0873B
:102930001586118A108A138A128A158A148A178AB0
:10294000168A118E108E138E128E158E148E178E7F
:10295000168E11A210A213A212A215A214A21092F6
:102960005D0410925F0410925E0410926204109253
:102970006504E7E5F3E080E090E0A6E9B2E484874F
:102980009587A687B78780E090E4ACE1B6E4808BBA
:10299000918BA28BB38B82E1868B108E178A86E592
:1029A00093E0958B848B84E491E091838083A5E20E
:1029B000B3E088E391E011969C938E9312961C925B
:1029C000129780E19B968C939B979F961C921E92E8
:1029D0009E97D0961C92D0979D96FC93EE939C97D1
:1029E000E2EFF2E0108217A216A2FF24F394F6A6FB
:1029F00083E081A785E082A786E083A789E084A79A
:102A000084E085A7C3ECD2E0F9821A82FB8684E6D3
:102A100090E09D878C878FEF9FEF9F878E87198A25
:102A2000188A80E395E79B8B8A8B8EE08C8B8FEFE7
:102A30008D8B8E8B80E090E0A0E0BFE38F8B988F32
:102A4000A98FBA8F88EE93E09EA38DA318A61FA22C
:102A50001BA61CA61DA61EA68BE190E00E94232BA0
:102A60008C01FC01F28280E391E0918380838CEB06
:102A70009CE6ABE1B8E483879487A587B687138289
:102A80001482158216821782108611861286178A82
:102A9000108E118E128E0E946B02F8016787708B68
:102AA000818B928B80E391E0918380831AA709A7A1
:102AB000DF91CF911F910F91FF900895CF93DF93F6
:102AC000CDB7DEB7E4970FB6F894DEBF0FBECDBF2B
:102AD000789484B5826084BD84B5816084BD85B5F9
:102AE000826085BD85B5816085BD80916E00816005
:102AF00080936E00109281008091810082608093AB
:102B000081008091810081608093810080918000AC
:102B10008160809380008091B10084608093B100D7
:102B20008091B00081608093B00080917A008460D1
:102B300080937A0080917A00826080937A008091FD
:102B40007A00816080937A0080917A008068809317
:102B50007A001092C10084E690E09093D0028093B6
:102B6000CF0280E090E0A0E0BFE38093DA02909390
:102B7000DB02A093DC02B093DD0281E08093CE0201
:102B8000E091EC02F091ED028AEF9DEAA8EFB5E446
:102B900083879487A587B68780E090E0A0EAB1E4B8
:102BA0008093EE029093EF02A093F002B093F102B3
:102BB0008091EA029091EB02892B51F481E090E040
:102BC0000E94232B9093EB028093EA02DC011C927B
:102BD00060E08091D7020E94DD010E949002209166
:102BE000E8023091E902DC01CB01820F931FA11DA5
:102BF000B11D8093E0029093E102A093E202B093B2
:102C0000E3028093E4029093E502A093E602B0937E
:102C1000E7020E94F90E8CE992E090931F048093E2
:102C20001E0488ED92E0909321048093200481E0BB
:102C300093E090932304809322048EE192E1909399
:102C40002F0480932E048CE192E1909331048093C1
:102C5000300485E293E090935A048093590483EC06
:102C600092E0909361048093600482EF92E09093ED
:102C70005C0480935B0440E052EC61E070E0809182
:102C80000E0490910F040E949D0080910E0490917B
:102C90000F0490931D0480931C0463E270E08CE1A8
:102CA00094E00E949A0D60E083E10E94DD0161E002
:102CB0008AE00E94DD0161E070E08AE00E940E027D
:102CC00000911803109119030115110579F410E012
:102CD00080911F031817D8F4E12FF0E0EE50FD4F5C
:102CE00061E081A50E94DD011F5FF2CFF8018681BE
:102CF000978197FDA3C161E00E94DD0160E0D801EA
:102D000016968C910E94910181E0F801818382EFF7
:102D100092E00E940D0D82E1E8E0F1E0DE01119603
:102D200001900D928A95E1F712EFA12E12E0B12EDB
:102D300010E000E086E0982E94E6C92ED12C26E023
:102D4000E22EF12C0093F202812F90E0FC01EE0FB5
:102D5000FF1FE80FF91F21E030E02C0F3D1FE20FAD
:102D6000F31F828191812081D50111962C931197B7
:102D700012969C93129713968C93139714961C9209
:102D800080911703882321F082EF92E00E94B30C18
:102D9000E091F2029E9EF0011124EE50FD4FD6828A
:102DA000C5821F5F812F90E0B7010E94C82A182FAB
:102DB0000F5FB6E0AB0EB11C063021F685E293E062
:102DC0000E94800CE5E2F3E088EE93E024E630E038
:102DD00094838383368325838C599F4F3496803D1B
:102DE00047E09407A9F789E08093270340E050E08B
:102DF00060E87FE385E293E00E94060C66246A9413
:102E0000762CCE010A969CAB8BABCC24CA94DC2CDE
:102E100001E010E080910E0490910F04DC01ED912F
:102E2000FC910084F185E02D0995892B09F442C0BD
:102E300080910E0490910F04DC01ED91FC910284CD
:102E4000F385E02D0995682F482F592F50933504AD
:102E500040933404E0913B04F0913C04309711F02E
:102E60000C945821609136047091370480913A0493
:102E70008111E6C07093390460933804509337048D
:102E80004093360481E080933A0480913B04909112
:102E90003C04892B11F00C94572780913A0481113E
:102EA0000C94572710924C0410924D0410924E042B
:102EB00010924F0480914C0490914D04A0914E04C7
:102EC000B0914F04892B8A2B8B2B89F00E949002A2
:102ED00080904C0490904D04A0904E04B0904F040C
:102EE00086169706A806B90610F40E94FD00809188
:102EF000210390912203A0912303B0912403892BF5
:102F00008A2B8B2B99F00E94900280902103909045
:102F10002203A0902303B090240386169706A806E8
:102F2000B90620F482EF92E00E940D0DF0900101AD
:102F3000FF20C9F180911703811135C0FA94F092F6
:102F40000101F092F20282EF92E00E94510D6F2D8A
:102F500085E293E00E945B0C80910101811123C006
:102F6000D092F802C092F702D092FE02C092FD0207
:102F7000D0920403C0920303D0920A03C0920903C3
:102F8000D0921003C0920F03D0921603C092150383
:102F900085E08093F20282EF92E00E940D0D85E2BF
:102FA00093E00E94570C0E94F90E8091100480FF5C
:102FB00038C00E946B028090170490901804A09073
:102FC0001904B0901A0486169706A806B90648F5A3
:102FD0008091100482FD02C00C946B2740E063ECEA
:102FE00072E08CE194E00E940B0E809117049091A6
:102FF0001804A0911904B0911A044091130450913F
:1030000014046091150470911604840F951FA61F77
:10301000B71F8093170490931804A0931904B093DA
:103020001A0480E090E0892B09F4F4CE0E94260671
:10303000882309F4EFCE0E940000ECCE118267CE07
:10304000542F4427460F571F50933704409336049C
:1030500010923A044A38B1E05B0709F410C608F050
:10306000FFC14937510509F474C508F0CFC040319C
:10307000510509F4AFC408F05CC04530510509F4AE
:10308000E5C408F54130510509F42DC408F428C4FD
:103090004230510509F42EC44430510509F4F2C4FC
:1030A00061E270E08CE194E00E949A0D6091360438
:1030B000709137048CE194E00E949A0D609138047D
:1030C0007091390412C44830510509F44FC4F8F422
:1030D0004630510509F4E7C44730510509F783E04C
:1030E00090E090933C0480933B0488E190E09093BF
:1030F0003E0480933D0481E0809354041092550473
:10310000109256041092570410925804BECE4C30C0
:10311000510509F4D3C44E30510511F66FE070E04B
:103120008CE194E00E949A0D40E052EC61E070E086
:1031300018C44831510509F4E6C3B8F542315105C8
:1031400009F481C408F46BC44331510509F4F7C391
:103150004631510509F0A4CFE0911E04F0911F04FF
:10316000309709F49ACECE0101960995F82E65E1C3
:1031700070E08CE194E00E949A0D80911C04909183
:103180001D04DC01ED91FC910190F081E02D6F2D8B
:1031900009954F2D50E0BE016F5F7F4F80911C0459
:1031A00090911D040E945F0E70CE4636510509F4C1
:1031B000BFC490F44A31510509F4B3C345365105F3
:1031C00009F06ECF10933C0400933B0482E080939F
:1031D0004A0486E190E007C44736510509F4A5C4C6
:1031E0004837510509F05CCF87E190E090933C04AB
:1031F00080933B0483E080934A0483E090E09093C3
:103200003E0480933D0489E190E0B4C44A30F1E08B
:103210005F0709F4FFC408F086C0443031E053076B
:1032200009F4D1C408F043C0411591E0590709F4ED
:10323000B0C418F54A37510509F032CFE091320495
:10324000F0913304309709F428CE09956093500427
:103250007093510480935204909353046BE770E091
:103260008CE194E00E949A0D4091500450915104D9
:10327000609152047091530474C34130540709F4AF
:103280008BC44230514009F00BCF63E071E08CE118
:1032900094E00E949A0D80911C0490911D04DC0121
:1032A000ED91FC910190F081E02D6AE073C347300D
:1032B000F1E05F0709F48AC490F4453031E0530728
:1032C00009F476C44630514009F0EACE10933C042C
:1032D00000933B0410924A048AE290E084C3483091
:1032E00091E0590709F48DC44930514009F0D8CE16
:1032F000E0905904F0905A04E114F10409F4CDCDA2
:1033000068E071E08CE194E00E949A0DF7018281FF
:10331000F4E08F9FC0011124E80EF91ED701159625
:103320006D917C91E2C24438B1E05B0709F4E8C4D6
:1033300008F03FC04036F1E05F0709F4F3C368F5D9
:103340004B30514009F0ACCEE0905904F0905A0453
:10335000E114F10409F4A1CD6AE071E08CE194E09C
:103360000E949A0DF70184A595A5009709F45CC405
:10337000DC01ED91FC910084F185E02DD701D09620
:103380006C9109959B01AC0160E070E080E89FE3DF
:103390000E94D0280E94450178CD403881E058072E
:1033A00009F464C44138514009F07ACE8FE290E0CC
:1033B00012C24738A1E05A0709F4ABC498F4453863
:1033C000E1E05E0709F470C44638514009F068CE68
:1033D00010933C0400933B0482E080934A0481E311
:1033E00090E001C3483821E0520709F4E1C44938AC
:1033F000514009F055CEB0905D04EB2DF0E0EE0F9A
:10340000FF1FE55AFB4FE080F180D701AC9068E8E0
:1034100071E08CE194E00E949A0D80911C049091DF
:103420001D0461E06B0DDC01ED91FC910190F081D8
:10343000E02D099580911C0490911D0461E06A0DB6
:10344000DC01ED91FC910190F081E02D0995F701EF
:10345000B6E0BA9DE00DF11D11246581768145C26B
:10346000413882E0580709F4B9C508F01DC14C3055
:10347000A2E05A0709F424C508F0A1C04630E2E0F2
:103480005E0709F4CCC408F04EC0413022E0520778
:1034900009F497C4B0F44D38514009F001CE6CE8FE
:1034A00071E08CE194E00E949A0D80911C0490914F
:1034B0001D04DC01ED91FC910190F081E02D66E0AE
:1034C00069C2433092E0590709F48FC44530524035
:1034D00009F0E6CDB0906204EB2DF0E0EE0FFF1F97
:1034E000E05AFB4FE080F18064E072E08CE194E010
:1034F0000E949A0D80911C0490911D0461E06B0D57
:10350000DC01ED91FC910190F081E02D0995F7012E
:10351000668577858CE194E00E949A0DD7015096DC
:103520006D917C91E2C14930B2E05B0709F4A4C41B
:1035300090F44730F2E05F0709F47BC44830524012
:1035400009F0AECD10933C0400933B0410924A0462
:1035500085E390E048C24A3032E0530709F4ADC435
:103560004B30524009F09CCDB0906204EB2DF0E05E
:10357000EE0FFF1FE05AFB4FE080F1806AE072E03F
:103580008CE194E00E949A0D80911C0490911D049E
:1035900061E06B0DDC01ED91FC910190F081E02D7B
:1035A000099580911C0490911D04DC01ED91FC9122
:1035B0000190F081E02DD7011B966C91EBC1413752
:1035C00092E0590709F4BBC408F03FC04031B2E0B3
:1035D0005B0709F489C468F44F30524009F060CDAC
:1035E00010933C0400933B0410924A0487E390E05C
:1035F000FAC1413122E0520709F497C442315240E6
:1036000009F04ECDB0906204EB2DF0E0EE0FFF1FFD
:10361000E05AFB4FE080F18061E172E08CE194E0E0
:103620000E949A0D80911C0490911D0461E06B0D25
:10363000DC01ED91FC910190F081E02D0995F701FD
:1036400063A574A585A596A5A5CE443782E0580745
:1036500009F490C480F44237A2E05A0709F487C401
:103660006091650482E792E04337524009F018CD3B
:103670000E94F60D0ACC4537E2E05E0709F484C4E7
:103680004637524009F00CCDE0916504F0E0EE0FB2
:10369000FF1FED59FB4F80819181DC01ED91FC9181
:1036A0000284F385E02D82C24D3822E0520709F4EE
:1036B0008CC508F095C0473882E0580709F42CC53E
:1036C00008F040C04438A2E05A0709F4F4C440F5B9
:1036D0004338524009F0E4CCB0906504EB2DF0E0A3
:1036E000EE0FFF1FED59FB4FE080F18062E872E0C2
:1036F0008CE194E00E949A0D80911C0490911D042D
:10370000E114F10409F0FACEDC01ED91FC91019095
:10371000F081E02D60E0099540E050E0BA0121C160
:103720004538F2E05F0709F4CFC44638524009F04B
:10373000B7CC10933C0400933B0410924A048CE3F2
:1037400090E051C14A3832E0530709F410C5C0F582
:10375000483892E0590709F403C54938524009F046
:103760009FCCB0906504EB2DF0E0EE0FFF1FED59FC
:10377000FB4FE080F18068E872E08CE194E00E9409
:103780009A0DE114F10409F4EEC480911C049091A7
:103790001D0461E06B0DDC01ED91FC910190F08165
:1037A000E02D099580911C0490911D04DC01ED91A0
:1037B000FC910190F081E02DD70156966C91EAC002
:1037C0004B38B2E05B0709F4DBC48FE390E04C3880
:1037D000524009F065CC90933C0480933B0455CB58
:1037E0004339F2E05F0709F42FC588F5403932E02C
:1037F000530709F421C550F44E3892E0590709F4F3
:1038000013C54F38524009F440CB4ACC4139B2E09D
:103810005B0709F43ACB4239524009F041CC10938E
:103820003C0400933B0482E080934A0482E490E0ED
:1038300090933E0480933D041092500410925104E2
:1038400010925204109253041092490457CC4436FB
:10385000F5E65F0709F419CB80F5463932E05307E6
:1038600009F40AC54739524009F01ACCB0906504F2
:10387000EB2DF0E0EE0FFF1FED59FB4FE080F180E4
:1038800066E972E08CE194E00E949A0DE114F10483
:1038900009F4EEC480911C0490911D0461E06B0D4D
:1038A000DC01ED91FC910190F081E02D0995F7018B
:1038B00067A570A981A992A96DCD423694E75907F1
:1038C00009F496C04336544709F0EACB25E030E0CE
:1038D00030933C0420933B048FEF80934A04D5CA75
:1038E0000E94FD00D2CA6DEC7BEA8CE194E00E945C
:1038F0009A0DCBCA63E070E08CE194E00E949A0DCF
:1039000067E070E0F2CFE0912004F091210430975D
:1039100009F4C3CACE0101960995F82E67E170E05B
:1039200028CCE0912204F0912304309709F4B5CA21
:10393000CE0101960995F82E69E170E01ACC64E198
:1039400070E08CE194E00E949A0D0E949002AB011D
:10395000BC018CE194E00E947A0D0E946B02AB01E5
:10396000BC018CE194E00E947A0D8FCAE0912C0496
:10397000F0912D04309781F0E0900E04F0900F0448
:10398000D7018D919C91DC01AD90BC900995682F79
:10399000C701F501099579CA69E070E08CE194E00E
:1039A0000E949A0D80911C0490911D04DC01ED9100
:1039B000FC910190F081E02D6EE1099580911C044D
:1039C00090911D04DC01ED91FC910190F081E02DBE
:1039D00060E0E0CF10933C0400933B0482E08093CE
:1039E0004A0484E090E090933E0480933D0453C1E8
:1039F00063E674E78CE194E00E949A0DF12CE12CCF
:103A0000B70180911C0490911D040E94660EBFEFC7
:103A1000EB1AFB0AE114E1E0FE0691F736CAF090DA
:103A20001B0462E170E08CE194E00E949A0D8091A9
:103A30001C0490911D04DC01ED91FC910190F0813A
:103A4000E02D6F2DA7CF86E090E0C5CE83E090E01B
:103A500090933C0480933B0488E190E090933E0473
:103A600080933D0481E0809354048EE190E0A0E0D7
:103A7000B0E08093550490935604A0935704B093FC
:103A8000580403CA8EE190E0A0E0B0E080935504B2
:103A900090935604A0935704B093580485E090E0A7
:103AA0000E946D0EF2C910925504109256041092A5
:103AB00057041092580487E090E0F2CFDE0111968F
:103AC000EEE0F0E021E2CF01019620935700E4916F
:103AD000ED93FC01449711F4E5E1F0E08BA99CA97A
:103AE0008A179B0781F76DE070E08CE194E00E94FB
:103AF0009A0D69E070E080911C0490911D040E9471
:103B0000660E80911C0490911D04DC01ED91FC91E6
:103B10000280F381E02D49E050E0BE016F5F7F4FEE
:103B20000995B3C984E190E056CE85E190E053CE8B
:103B30008090130490901404A0901504B090160483
:103B400065E670E08CE194E00E949A0DB501A40155
:103B500008CF87E190E090933C0480933B0483E09E
:103B600080934A0483E090E090933E0480933D0468
:103B700088E190E09093400480933F0410925504B4
:103B8000109256041092570410925804109249044F
:103B90007CC988E290E01FCE8091590490915A042C
:103BA000DC01ED91FC910680F781E02D09956DC94E
:103BB000E0915904F0915A04309709F46EC962817A
:103BC00084E091E055CD89E290E005CEE090590483
:103BD000F0905A04E114F10409F45FC966E071E061
:103BE0008CE194E00E949A0DF7018281F4E08F9FAE
:103BF000C0011124E80EF91ED70113966D917C9136
:103C000074CE10933C0400933B0410924A048BE260
:103C100090E0E9CE10933C0400933B0482E0809353
:103C20004A048CE290E0DFCEE6A4F7A460E070E006
:103C300080E89FE3E114F10409F4ACCBD7011396BB
:103C40006C9170E090E080E00E9481274B015C0164
:103C5000F701608170E090E080E00E9481279B0185
:103C6000AC01C501B4010E943D2994CB10933C04E2
:103C700000933B0410924A048DE290E0B4CE10937E
:103C80003C0400933B0410924A042EE230E030934F
:103C90003E0420933D04109250041092510410925F
:103CA00052041092530472CFF0905D04EF2DF0E0B7
:103CB000EE0FFF1FE55AFB4F0190F081E02DE080F1
:103CC00064E871E08CE194E00E949A0D80911C04FC
:103CD00090911D0461E06F0DDC01ED91FC9101906C
:103CE000F081E02D099580911C0490911D0461E004
:103CF0006E0DDC01ED91FC910190F081E02D4ACE3A
:103D000010933C0400933B0410924A0480E390E03B
:103D10006ACEF0905D04EF2DF0E0EE0FFF1FE55A44
:103D2000FB4FA080B180F501908066E871E08CE1E6
:103D300094E00E949A0D80911C0490911D0461E012
:103D40006F0DDC01ED91FC910190F081E02D099562
:103D500080911C0490911D0461E0690DDC01ED91DE
:103D6000FC910190F081E02D0995F12CE12C8091DE
:103D70001C0490911D04292D2E19D501E6E0E29F27
:103D8000A00DB11D11249D012E0D3F1DDC01ED91F3
:103D9000FC910190F081E02DD90111966C9109956B
:103DA000BFEFEB1AFB0AE4E0EE16F10401F76DC871
:103DB00010933C0400933B0410924A0482E390E089
:103DC00012CE80916004909161040E94CC09E09130
:103DD0006204F0E0EE0FFF1FE05AFB4F608171813B
:103DE0008CE194E00E943C0E50C8E0916204F0E047
:103DF000EE0FFF1FE05AFB4F808191810E94CC099A
:103E000040916204E42FF0E0EE0FFF1FE05AFB4FF9
:103E1000608171818CE194E00E940B0E36C8109392
:103E20003C0400933B0482E080934A0484E390E0E6
:103E3000DACDB0906204EB2DF0E0EE0FFF1FE05AF8
:103E4000FB4FE080F18066E072E08CE194E00E943C
:103E50009A0D80911C0490911D0461E06B0DDC01B2
:103E6000ED91FC910190F081E02D0995F7016789B2
:103E7000708D818D928D8ECAB0906204EB2DF0E032
:103E8000EE0FFF1FE05AFB4FE080F18068E072E028
:103E90008CE194E00E949A0D80911C0490911D0485
:103EA00061E06B0DDC01ED91FC910190F081E02D62
:103EB0000995F701638D748D18CD86E390E08BCC66
:103EC000E0916204F0E0EE0FFF1FE05AFB4F01901B
:103ED000F081E02D77866686118A108A148E138E03
:103EE00081E083870C944517B0906204EB2DF0E0DD
:103EF000EE0FFF1FE05AFB4FE080F1806FE072E0B1
:103F00008CE194E00E949A0D80911C0490911D0414
:103F100061E06B0DDC01ED91FC910190F081E02DF1
:103F20000995F70164857585E0CC10933C040093F6
:103F30003B0482E080934A0488E390E054CD809172
:103F4000630490916404DC01ED91FC910280F381A3
:103F5000E02D0995E0916504F0E0EE0FFF1FED59AB
:103F6000FB4F808191810E94B50D0C94451789E328
:103F700090E031CC10933C0400933B0482E08093AA
:103F80004A048AE390E02FCDB0906504EB2DF0E079
:103F9000EE0FFF1FED59FB4FE080F18064E772E008
:103FA0008CE194E00E949A0DE114F10409F460C1DF
:103FB00080911C0490911D0461E06B0DDC01ED917A
:103FC000FC910190F081E02D0995D701ED91FC91D4
:103FD0000084F185E02DC7010995DCC9E0916504F5
:103FE000F0E0EE0FFF1FED59FB4F80819181DC0166
:103FF000ED91FC910280F381E02D099550906504CC
:10400000E52DF0E0EE0FFF1FED59FB4FE080F18052
:1040100060E872E08CE194E00E949A0DE114F104F2
:10402000B9F1F70145815681678170858CE194E093
:104030000E947A0DA0901C04B0901D04D501ED9152
:10404000FC9180809180D701ED91FC910480F581F5
:10405000E02DC7010995682FC501F40109958091EC
:104060001C0490911D0461E0650DDC01ED91FC9153
:104070000190F081E02D0995F701628573858CE14F
:1040800094E00E949A0DD7011C966D917C912DCCE5
:104090006AE0F62E80911C0490911D04DC01ED91E4
:1040A000FC910190F081E02D60E00995FA94F11007
:1040B000F1CF0C94451710933C0400933B041092ED
:1040C0004A048BE390E08FCCB0906504EB2DF0E0D8
:1040D000EE0FFF1FED59FB4FE080F18064E872E0C6
:1040E0008CE194E00E949A0DE114F10489F0809132
:1040F0001C0490911D0461E06B0DDC01ED91FC91BD
:104100000190F081E02D0995F70162897389EDCB6B
:104110000E94E40D0C944517B0906504EB2DF0E07F
:10412000EE0FFF1FED59FB4FE080F18066E872E073
:104130008CE194E00E949A0DE114F10449F380911E
:104140001C0490911D0461E06B0DDC01ED91FC916C
:104150000190F081E02D0995F701618D728DC5CB3D
:104160008DE390E038CB0E9477010C9445171093B3
:104170003C0400933B0410924A048EE390E033CC5D
:10418000B0906504EB2DF0E0EE0FFF1FED59FB4FF3
:10419000E080F1806AE872E08CE194E00E949A0D80
:1041A000E114F10409F4B4CF80911C0490911D0432
:1041B00061E06B0DDC01ED91FC910190F081E02D4F
:1041C0000995F7016489758990CBB0906504EB2D52
:1041D000F0E0EE0FFF1FED59FB4FE080F1806CE83F
:1041E00072E08CE194E00E949A0DE114F10409F46C
:1041F000BACF80911C0490911D0461E06B0DDC012D
:10420000ED91FC910190F081E02D099580911C04C5
:1042100090911D04DC01ED91FC910190F081E02D65
:10422000D70119966C91B6CBE0E4F0E0F0933C0432
:10423000E0933B040C94451721E430E030933C04B8
:1042400020933B040C944517B0906504EB2DF0E0EF
:10425000EE0FFF1FED59FB4FE080F18062E972E045
:104260008CE194E00E949A0DE114F10409F0DAC99E
:104270000E9466010C94451710933C0400933B0484
:1042800082E080934A0422E430E030933E0420939D
:104290003D04109250041092510410925204109256
:1042A00053041092490481E090E0A0E0B0E0E1CB3B
:1042B0003197E234F10508F06FC0EF59FE4D0C94D0
:1042C0001D2BA321CC21C82103227E22F222CC2146
:1042D000CC21CC21CC21CC21CC21CC21CC21CC2176
:1042E000CC21CC21CC21CC21CC21F5222F2357234A
:1042F0007923CC21CC21CC21CC21CC21CC21CC21A7
:10430000CC21CC21CC21CC21CC21CC21CC21CC2145
:104310009923AB23B723E42311241D246F244E24B7
:104320009824BE241125412544256B259825A725D1
:10433000D325042608265B262E2687269726C32605
:10434000CC21CC21CF26809149044A01B12CA12C4B
:10435000082E04C0880C991CAA1CBB1C0A94D2F716
:104360004091500450915104609152047091530453
:10437000480D591D6A1D7B1D4093500450935104F4
:104380006093520470935304885F8093490404C07F
:10439000452B69F40E94FD0080914A04882309F4AA
:1043A00077C590914B04911173C5815096CA8FEFD8
:1043B000860F80934A0481E080934B0480915404DB
:1043C000882351F3E0912E04F0912F043097C1F02F
:1043D0008091550490915604A0915704B0915804CF
:1043E0004C015D012FEF821A920AA20AB20A809252
:1043F000550490925604A0925704B092580409951F
:1044000010925404C9CFCA01B0E0A0E02091490441
:1044100004C0880F991FAA1FBB1F2A95D2F780904E
:10442000500490905104A0905204B0905304880D11
:10443000991DAA1DBB1DBF70809350049093510419
:10444000A0935204B0935304F4E056954795FA951F
:10445000E1F75093350440933404E0900E04F0905B
:104460000F04D701ED91FC910680F781E02DC70183
:104470000995D7015296ED91FC91539780818F7EDB
:1044800080835296ED91FC9153978081877F808342
:104490005296ED91FC91539780818F77808352964D
:1044A000ED91FC91539780818F7D80835A968C91FA
:1044B0005A9759968C9340915004509151046091B1
:1044C00052047091530480910E0490910F040E9445
:1044D0009D008090500490905104A0905204B090A0
:1044E000530465E674E78CE194E00E949A0DB501EF
:1044F000A4018CE194E00E947A0D4ECF20914A04F1
:104500002F3F59F480934A041092500410925104A2
:1045100010925204109253043FCF80915004909116
:104520005104A0915204B09153048417150659F414
:104530009F5FAF4FBF4F8093500490935104A0935F
:104540005204B0935304211139C064E674E78CE13E
:1045500094E00E949A0DA0910E04B0910F04409136
:104560005004509151046091520470915304CB0156
:10457000BA016F5F7F4F8F4F9F4FED91FC91119765
:104580000190F081E02DCD010995A0910E04B0912C
:104590000F04409150045091510460915204709165
:1045A00053049927872F762F652FED91FC91119752
:1045B0000190F081E02DCD010995EECE809150045F
:1045C00090915104A0915204B09153040196A11D01
:1045D000B11D8093500490935104A0935204B09362
:1045E0005304DACE80931B04D7CE80931004882323
:1045F00009F4D2CEE0916204F0E0EE0FFF1FE05A22
:10460000FB4F608171818CE194E00E943C0EE0914F
:104610006504F0E0EE0FFF1FED59FB4F80819181A3
:104620000E94B50D8091100480FFB6CE0E946B02EF
:104630008090130490901404A0901504B090160478
:10464000DC01CB01880D991DAA1DBB1D80931704A9
:1046500090931804A0931904B0931A049DCE70E0AF
:1046600060E08091490404C0440F551F661F771F06
:104670008A95D2F78091500490915104A0915204F0
:10468000B0915304840F951FA61FB71F8093500449
:1046900090935104A0935204B09353048093130455
:1046A00090931404A0931504B093160475CE8091D2
:1046B00049044A01B12CA12C082E04C0880C991C75
:1046C000AA1CBB1C0A94D2F7409155045091560481
:1046D0006091570470915804480D591D6A1D7B1D47
:1046E00040935504509356046093570470935804B4
:1046F0004BCEE0912E04F0912F04309709F44CCE6C
:104700008091550490915604A0915704B09158049B
:104710004C015D012FEF821A920AA20AB20A80921E
:10472000550490925604A0925704B09258040995EB
:1047300033CE8091590490915A04DC01ED91FC91A3
:104740000480F581E02D4150510950933504409388
:104750003404642FECCF41505109509335044093F9
:104760003404E0915904F0915A04428315CE70E06C
:1047700060E08091490404C0440F551F661F771FF5
:104780008A95D2F78091500490915104A0915204DF
:10479000B0915304840F951FA61FB71F8093500438
:1047A00090935104A0935204B0935304E0915904A0
:1047B000F0915A04228144E0249F90011124E20FD9
:1047C000F31F94838383E8CD70E060E08091490417
:1047D00004C0440F551F661F771F8A95D2F780913A
:1047E000500490915104A0915204B0915304840F4D
:1047F000951FA61FB71F8093500490935104A09358
:104800005204B0935304E0915904F0915A04228168
:1048100044E0249F90011124E20FF31F96838583C7
:10482000BBCDE0905904F0905A040E942401AB01E2
:10483000BC01C7010E94060CAFCD8091500490913D
:104840005104A0915204B09153040197A109B109F8
:104850008093500490935104A0935204B093530456
:1048600080935D04415051095093350440933404C2
:10487000E82FF0E0EE0FFF1FE55AFB4F0190F081AB
:10488000E02D4083E0915D04F0E0EE0FFF1FE55A5C
:10489000FB4F808191810E94510D7ECD4F3F51058C
:1048A00069F480915B0490915C04DC0195962C91F5
:1048B000222309F471CD0E940D0D6ECD4150510996
:1048C000509335044093340440935D045527440FBE
:1048D000551FFA01E55AFB4F80819181ECCF70E0C2
:1048E00060E08091490404C0440F551F661F771F84
:1048F0008A95D2F78091500490915104A09152046E
:10490000B0915304840F951FA61FB71F80935004C6
:1049100090935104A0935204B093530420915B04EC
:1049200030915C0480FF02C0C901B5CFC901C3CF7B
:104930008091500490915104A0915204B09153047D
:104940000197A109B1098093500490935104A09359
:104950005204B093530480935D0441505109509325
:10496000350440933404E82FF0E0EE0FFF1FE55AC2
:10497000FB4F0190F081E02D40830ECD70E060E0B0
:104980008091490404C0440F551F661F771F8A9504
:10499000D2F78091500490915104A0915204B091AB
:1049A0005304480F591F6A1F7B1F409350045093B4
:1049B00051046093520470935304E0915D04F0E05D
:1049C000EE0FFF1FE55AFB4F0190F081E02DF5A49B
:1049D00090E080E08F15E8F42081DF0136E0329F1F
:1049E000A00DB11D1124A80FB91F9C01220F331F68
:1049F000220F331F220F331F4A015B0104C0B694FC
:104A0000A794979487942A95D2F711968C92019641
:104A1000E1CF85A1882309F4BFCCCF010E94B30C5C
:104A2000BBCC70E060E08091490404C0440F551F86
:104A3000661F771F8A95D2F7809150049091510498
:104A4000A0915204B0915304840F951FA61FB71F65
:104A50008093500490935104A0935204B093530454
:104A6000E0915D04F0E0EE0FFF1FE55AFB4F01906F
:104A7000F081E02D208146E0429FE00DF11D1124E0
:104A8000CDCE8093620488CCE0916204F0E0EE0F1A
:104A9000FF1FE05AFB4FE080F1800E942401D70104
:104AA00057966D937D938D939C935A9781E01B96B7
:104AB0008C93E0916204F0E0EE0FFF1FE05AFB4F91
:104AC0000190F081E02D77866686118A108A148E17
:104AD000138E838761CC70E060E08091490404C04C
:104AE000440F551F661F771F8A95D2F78091500497
:104AF00090915104A0915204B0915304840F951FDA
:104B0000A61FB71F8093500490935104A0935204A2
:104B1000B0935304E0916204F0E0EE0FFF1FE05AFF
:104B2000FB4F0190F081E02D948F838F138634CC5E
:104B3000E0916204F0E0EE0FFF1FE05AFB4F01909E
:104B4000F081E02D81E0452B21F680E0C2CF70E0BE
:104B500060E08091490404C0440F551F661F771F11
:104B60008A95D2F78091500490915104A0915204FB
:104B7000B0915304840F951FA61FB71F8093500454
:104B800090935104A0935204B0935304E0916204B3
:104B9000F0E0EE0FFF1FE05AFB4F0190F081E02D97
:104BA00095878487F9CBE0916204F0E0EE0FFF1F58
:104BB000E05AFB4FE080F1800E9424011B012C0190
:104BC000F701A1A4B2A42BED3FE049EC50E40E9410
:104BD000E2279B01AC0160E070E080E89FE30E9467
:104BE0003D2920E034E244E759E40E94E227D50160
:104BF0001B966D937D938D939C931E97F70123A62F
:104C000034A645A656A6C8CB615060936504C4CBB4
:104C1000E0916504F0E0EE0FFF1FED59FB4FE080DF
:104C2000F180D701ED91FC91A680B7800E9424010C
:104C3000AB01BC01C701F5010995E0916504F0E005
:104C4000EE0FFF1FED59FB4F80819181DC01ED914B
:104C5000FC910284F385E02D09959ECB70E060E025
:104C60008091490404C0440F551F661F771F8A9521
:104C7000D2F78091500490915104A0915204B091C8
:104C80005304840F951FA61FB71F80935004909361
:104C90005104A0935204B0935304E0916504F0E0F2
:104CA000EE0FFF1FED59FB4F0190F081E02D928F29
:104CB000818F168A71CB70E060E08091490404C056
:104CC000440F551F661F771F8A95D2F780915004B5
:104CD00090915104A0915204B0915304840F951FF8
:104CE000A61FB71F8093500490935104A0935204C1
:104CF000B0935304E0916504F0E0EE0FFF1FED590F
:104D0000FB4F0190F081E02D938B828B45CBE0919E
:104D10006504F0E0EE0FFF1FED59FB4F0190F081AD
:104D2000E02D81E0452B09F480E0868B35CB70E0E7
:104D300060E08091490404C0440F551F661F771F2F
:104D40008A95D2F78091500490915104A091520419
:104D5000B0915304840F951FA61FB71F8093500472
:104D600090935104A0935204B0935304E0916504CE
:104D7000F0E0EE0FFF1FED59FB4F0190F081E02DA9
:104D8000958B848B09CBE0916504F0E0EE0FFF1F5B
:104D9000ED59FB4F0190F081E02D6187FDCAE09154
:104DA0006504F0E0EE0FFF1FED59FB4FE080F1804E
:104DB0008091550490915604A0915704B0915804E5
:104DC000892B8A2B8B2BD9F50E9424011B012C01E6
:104DD000F701A7A0B0A42BED3FE049EC50E40E94FE
:104DE000E2279B01AC0160E070E080E89FE30E9455
:104DF0003D2920E034E244E759E40E94E227D5014E
:104E00001B966D937D938D939C931E97F70123A61C
:104E100034A645A656A68091550490915604A091BB
:104E20005704B09158040196A11DB11D80935504FB
:104E300090935604A0935704B0935804ADCA0E94AF
:104E400024011B012C01D7019996AD90BC902BED4C
:104E50003FE049EC50E40E94E2279B01AC0160E096
:104E600070E080E89FE30E943D2920E034E244E7BF
:104E700059E40E94E227F501638774878587968746
:104E8000D7019F962D923D924D925C92D297C3CFBF
:104E9000EBE3F4E0828193818193919327E434E002
:104EA0002E173F07B9F710924B040C9445170E9438
:104EB00090022091110430911204620F731F811D22
:104EC000911D60934C0470934D0480934E04909315
:104ED0004F040C945A1763EC72E08CE194E00E944A
:104EE0003C0E0C94F5178091EC029091ED02009726
:104EF00011F00C94BF2B08950E94BE2708F481E0A6
:104F00000895E89409C097FB3EF4909580957095BC
:104F100061957F4F8F4F9F4F9923A9F0F92F96E905
:104F2000BB279395F695879577956795B795F1117A
:104F3000F8CFFAF4BB0F11F460FF1BC06F5F7F4F17
:104F40008F4F9F4F16C0882311F096E911C0772329
:104F500021F09EE8872F762F05C0662371F096E832
:104F6000862F70E060E02AF09A95660F771F881F01
:104F7000DAF7880F9695879597F90895990F0008A5
:104F8000550FAA0BE0E8FEEF16161706E807F9071B
:104F9000C0F012161306E407F50798F0621B730BB6
:104FA000840B950B39F40A2661F0232B242B252B37
:104FB00021F408950A2609F4A140A6958FEF811DDA
:104FC000811D08950E94F5270C9466280E94582898
:104FD00038F00E945F2820F0952311F00C944F28A0
:104FE0000C94552811240C949A280E94772870F369
:104FF000959FC1F3950F50E0551F629FF001729F7E
:10500000BB27F00DB11D639FAA27F00DB11DAA1F8C
:10501000649F6627B00DA11D661F829F2227B00DD9
:10502000A11D621F739FB00DA11D621F839FA00D64
:10503000611D221F749F3327A00D611D231F849FB4
:10504000600D211D822F762F6A2F11249F5750400B
:105050009AF0F1F088234AF0EE0FFF1FBB1F661F86
:10506000771F881F91505040A9F79E3F510580F04F
:105070000C944F280C949A285F3FE4F3983ED4F3A5
:10508000869577956795B795F795E7959F5FC1F7F3
:10509000FE2B880F911D9695879597F9089597F99E
:1050A0009F6780E870E060E008959FEF80EC0895CE
:1050B00000240A94161617061806090608950024F7
:1050C0000A9412161306140605060895092E039471
:1050D000000C11F4882352F0BB0F40F4BF2B11F4E5
:1050E00060FF04C06F5F7F4F8F4F9F4F089557FD44
:1050F0009058440F551F59F05F3F71F04795880F46
:1051000097FB991F61F09F3F79F0879508951216DC
:1051100013061406551FF2CF4695F1DF08C0161688
:1051200017061806991FF1CF869571056105089439
:105130000895E894BB2766277727CB0197F9089550
:10514000F999FECF92BD81BDF89A992780B508954F
:10515000262FF999FECF1FBA92BD81BD20BD0FB693
:10516000F894FA9AF99A0FBE019608950E94C12800
:10517000A59F900DB49F900DA49F800D911D1124AB
:105180000895A29FB001B39FC001A39F700D811D20
:105190001124911DB29F700D811D1124911D089540
:1051A0005058BB27AA270E94E8280C9466280E9422
:1051B000582838F00E945F2820F039F49F3F19F4F6
:1051C00026F40C9455280EF4E095E7FB0C944F2838
:1051D000E92F0E94772858F3BA17620773078407EC
:1051E000950720F079F4A6F50C9499280EF4E09533
:1051F0000B2EBA2FA02D0B01B90190010C01CA0191
:10520000A0011124FF27591B99F0593F50F4503E3B
:1052100068F11A16F040A22F232F342F4427585F2D
:10522000F3CF469537952795A795F0405395C9F745
:105230007EF41F16BA0B620B730B840BBAF09150FD
:10524000A1F0FF0FBB1F661F771F881FC2F70EC09C
:10525000BA0F621F731F841F48F48795779567956F
:10526000B795F7959E3F08F0B0CF9395880F08F05B
:105270009927EE0F9795879508950E9451290C94D0
:1052800066280E945F2858F00E94582840F029F4B0
:105290005F3F29F00C944F2851110C949A280C94DC
:1052A00055280E94772868F39923B1F3552391F389
:1052B000951B550BBB27AA2762177307840738F085
:1052C0009F5F5F4F220F331F441FAA1FA9F335D0E2
:1052D0000E2E3AF0E0E832D091505040E695001C96
:1052E000CAF72BD0FE2F29D0660F771F881FBB1F50
:1052F000261737074807AB07B0E809F0BB0B802D2E
:10530000BF01FF2793585F4F3AF09E3F510578F059
:105310000C944F280C949A285F3FE4F3983ED4F302
:10532000869577956795B795F7959F5FC9F7880F2D
:10533000911D9695879597F90895E1E0660F771F7F
:10534000881FBB1F621773078407BA0720F0621B10
:10535000730B840BBA0BEE1F88F7E095089529F4C0
:1053600016F00C944F280C9499280C9455280E9400
:105370007F28A8F39638A0F707F80F92E8942BE35C
:105380003AEA48EB5FE70E94F8270F920F920F92DC
:105390004DB75EB70F920E94862AE8E6F0E00E94C1
:1053A000182A4F915F91EF91FF91E595EE1FFF1F36
:1053B00049F0FE57E0684427EE0F441FFA95E1F7E5
:1053C0004195550B0E94502A0F9007FE0C94442AD9
:1053D00008950E947F2888F09F5798F0B92F992749
:1053E000B751B0F0E1F0660F771F881F991F1AF0D0
:1053F000BA95C9F714C0B13091F00E949928B1E074
:1054000008950C949928672F782F8827B85F39F072
:10541000B93FCCF3869577956795B395D9F73EF468
:1054200090958095709561957F4F8F4F9F4F089510
:10543000DF93CF931F930F93FF92EF92DF927B0145
:105440008C01689406C0DA2EEF010E94F527FE0158
:10545000E894A5912591359145915591A6F3EF01D9
:105460000E94E828FE019701A801DA9469F7DF900D
:10547000EF90FF900F911F91CF91DF9108950E94BF
:10548000BE2708F48FEF08959B01AC0160E070E047
:1054900080E89FE30C943D290C944F280C94BA2A81
:1054A0000E947F28D8F39923C9F3940F511DA3F3C9
:1054B0009150504094F059F0882332F0660F771FD6
:1054C000881F91505040C1F79E3F51052CF7880F1F
:1054D000911D9695879597F908955F3FACF0983E9A
:1054E0009CF0BB27869577956795B79508F4B160D2
:1054F0009395C1F7BB0F58F711F460FFE8CF6F5FCA
:105500007F4F8F4F9F4FE3CF0C949A28FA01DC0115
:10551000AA0FBB1F9B01AC01BF5728F422273327DA
:105520004427507820C0B75190F4AB2F0024469503
:1055300037952795011CA395D2F3002071F0220F17
:10554000331F441FB395DAF30ED00C94D02861308A
:105550007105A0E88A07B94630F49B01AC016627C3
:10556000772788279078309621F0208331834283F3
:10557000538308959F3F31F0915020F4879577959C
:105580006795B795880F911D9695879597F908951A
:10559000AA1BBB1B51E107C0AA1FBB1FA617B70759
:1055A00010F0A61BB70B881F991F5A95A9F7809575
:1055B0009095BC01CD010895A1E21A2EAA1BBB1B38
:1055C000FD010DC0AA1FBB1FEE1FFF1FA217B307CF
:1055D000E407F50720F0A21BB30BE40BF50B661FE5
:1055E000771F881F991F1A9469F7609570958095A9
:1055F00090959B01AC01BD01CF010895052E97FB4D
:105600001EF400940E94152B57FD07D00E94DC2A3F
:1056100007FC03D04EF40C94152B50954095309513
:1056200021953F4F4F4F5F4F08959095809570950E
:1056300061957F4F8F4F9F4F0895EE0FFF1F05908D
:10564000F491E02D09940F931F93CF93DF93823051
:10565000910510F482E090E0E0916804F091690413
:1056600030E020E0B0E0A0E0309799F4211531055A
:1056700009F44AC0281B390B24303105D8F58A813A
:105680009B816115710589F1FB0193838283FE0182
:1056900011C0408151810281138148175907E0F000
:1056A0004817590799F4109761F012960C931297C6
:1056B00013961C933296CF01DF91CF911F910F91DA
:1056C00008950093680410936904F4CF21153105FF
:1056D00051F04217530738F0A901DB019A01BD01CF
:1056E000DF01F801C1CFEF01F9CF909369048093F6
:1056F0006804CDCFFE01E20FF31F819391932250F6
:10570000310939832883D7CF20916604309167040B
:10571000232B41F42091040130910501309367045B
:105720002093660420910201309103012115310577
:1057300041F42DB73EB74091060150910701241B5B
:10574000350BE0916604F0916704E217F307A0F4CB
:105750002E1B3F0B2817390778F0AC014E5F5F4FC7
:105760002417350748F04E0F5F1F5093670440938E
:105770006604819391939FCFF0E0E0E09CCFCF93BC
:10578000DF930097E9F0FC01329713821282A09117
:105790006804B0916904ED0130E020E01097A1F4B5
:1057A00020813181820F931F20916604309167041C
:1057B0002817390709F061C0F0936704E093660485
:1057C000DF91CF910895EA01CE17DF07E8F54A810E
:1057D0005B819E0141155105B1F7E901FB83EA8325
:1057E00049915991C40FD51FEC17FD0761F48081D1
:1057F00091810296840F951FE901998388838281A4
:1058000093819B838A83F0E0E0E012968D919C91D6
:1058100013970097B9F52D913C911197CD01029600
:10582000820F931F2091660430916704281739076F
:1058300039F6309751F51092690410926804B093CC
:105840006704A0936604BCCFD383C2834081518197
:10585000840F951FC817D90761F44E5F5F4F888189
:105860009981480F591F518340838A819B8193837B
:1058700082832115310509F0B0CFF0936904E093DC
:1058800068049ECFFD01DC01C0CF13821282D7CF06
:1058900081E090E0F8940C944D2C10E0C2E7D0E049
:1058A00004C0FE010E941D2B2196C337D107C9F702
:0458B000F894FFCF9A
:1058B400FF0600006A048000FF0000FFFF0000FFF5
:1058C4000000FFFF0000FFFF00FF000000005C0677
:1058D400BC05E905A9061A06F8050C060000000037
:1058E400E10A391100000000800C670C5B0C570CB6
:1058F400000000009C0B940BD1108C0B7410840BD3
:10590400380B300B0C0B483A5C4D792044726976A5
:10591400655C56756C696E74757320536F66747725
:10592400617265202844726577295C4669726D77D7
:10593400617265202D204F6D6E695472616B5C4FEE
:105944006D6E695472616B5F4E6F7365706F6B65DA
:105954005F4669726D776172655C4F6D6E695472F2
:10596400616B5F4E6F7365706F6B655F56335C4F31
:105974006D6E695472616B5F4E6F7365706F6B65AA
:105984005F56332E696E6F004A756C2032312032B7
:0E5994003032350031313A32333A30350000CE
:00000001FF
