:020000040000FA
:100000000C9463000C948B000C948B000C948B006C
:100010000C948B000C948B000C948B000C940111AD
:100020000C948B000C948B000C948B000C948B0024
:100030000C948B000C948B000C948B000C948B0014
:100040000C94B7100C948B000C9483110C945D11DC
:100050000C948B000C948B000C948B000C948B00F4
:100060000C94B5110C948B000000000023002600B6
:1000700029000200000000240027002A00000000E0
:1000800000250028002B00040404040404040402D6
:100090000202020202030303030303010204081025
:1000A00020408001020408102001020408102000F2
:1000B0000000080002010000030407000000000027
:1000C00000000000D41211241FBECFEFD8E0DEBF25
:1000D000CDBF24E0A8EEB1E001C01D92A835B20763
:1000E000E1F711E0A0E0B1E0E6E2F4E402C005903F
:1000F0000D92A83EB107D9F710E0C3E6D0E004C0E6
:100100002197FE010E94E120C236D107C9F70E9463
:10011000B8130C9411220C940000CF93DF9300D0FD
:1001200000D0CDB7DEB769837A838B839C838091BF
:100130000B0490910C04DC01ED91FC910280F381A1
:10014000E02D44E050E0BE016F5F7F4F09950F90B6
:100150000F900F900F90DF91CF910895CF93DF9381
:1001600000D0CDB7DEB789839A8380910B0490913C
:100170000C04DC01ED91FC910280F381E02D42E062
:1001800050E0BE016F5F7F4F09950F900F90DF9198
:10019000CF910895CF93DF9380E092E00E94AE006C
:1001A000C0E5D4E0E881F0E0EE0FFF1FE25BFB4F1B
:1001B0000190F081E02D65817681878190850E9494
:1001C0008D0080910B0490910C04E881F0E0EE0F1B
:1001D000FF1FE25BFB4F0190F081E02DA5A1B6A1CE
:1001E000EC01E881F9810190F081E02D6C91DF91C3
:1001F000CF910994EF92FF920F931F93CF93DF93C8
:1002000080E792E00E94AE0083E5E82E84E0F82EBD
:10021000D701EC91F0E0EE0FFF1FEF5AFB4F01907A
:10022000F081E02D65817681878190850E948D0027
:10023000C0910B04D0910C04E881F98100811181F7
:10024000D701EC91F0E0EE0FFF1FEF5AFB4F8081DA
:100250009181DC01ED91FC910480F581E02D0995FF
:10026000682FCE01F801DF91CF911F910F91FF9080
:10027000EF900994CF92DF92EF92FF92CF93DF93AA
:10028000EC016A017B01E889F98982E08083C1146D
:1002900081EED806E104F104A1F060E079E08DE39D
:1002A00090E0A70196010E94A02021503109410948
:1002B00051095695479537952795211580E13807BF
:1002C00098F0E889F989108260E874E88EE190E09E
:1002D000A70196010E94A02021503109410951092E
:1002E0005695479537952795EC85FD853083EE85A6
:1002F000FF852083188EEC89FD8986E08083EA895A
:10030000FB89808180618083EA89FB8980818860A4
:100310008083EA89FB89808180688083EA89FB8900
:1003200080818F7D8083DF91CF91FF90EF90DF9070
:10033000CF900895EBE0F4E011A210A213A212A254
:1003400015A214A217A216A211A610A613A612A6F1
:1003500015A614A611AA12AA13AA14AA178E17A6D4
:1003600010AA11AE15AA16AA17AA10AE16A60895BD
:10037000EBE0F4E0838D948DB0E0A0E026A504C00E
:10038000880F991FAA1FBB1F2A95D2F745A956A906
:1003900067A970AD840F951FA61FB71F85AB96ABDD
:1003A000A7ABB0AF682F792F8A2F9B2F0895CF93DB
:1003B000DF9300D000D0CDB7DEB769837A838B831B
:1003C0009C8380910B0490910C04DC01ED91FC91D5
:1003D0000280F381E02D44E050E0BE016F5F7F4F6B
:1003E00009950F900F900F900F90DF91CF91089586
:1003F000CF93DF93E0912104F0912204309709F428
:1004000085C0EC018091450490914604A091470479
:10041000B0914804AC01BD014F5F5F4F6F4F7F4FFC
:1004200040934504509346046093470470934804F6
:1004300009958E3108F04BC080933A04CE010E949A
:10044000AE0080910B0490910C04DC01ED91FC91C5
:100450000190F081E02D60913A04099580913A0471
:10046000882309F453C0E0912104F0912204809183
:10047000450490914604A0914704B0914804AC0112
:10048000BD014F5F5F4F6F4F7F4F409345045093C7
:10049000460460934704709348040995282F30E080
:1004A0003093270420932604A0910B04B0910C04F0
:1004B000ED91FC9111970190F081E02D682FCD0115
:1004C000099580913A04815080933A04C7CF1092E5
:1004D0003A04E0911F04F0912004309709F4AECF64
:1004E0008091450490914604A0914704B09148043E
:1004F0000197A109B1098093450490934604A09304
:100500004704B093480460E0099598CFDF91CF91FC
:100510000895833081F028F4813099F08230A9F079
:1005200008958730A9F08830C9F08430B1F4809103
:1005300080008F7D03C0809180008F778093800042
:10054000089584B58F7784BD089584B58F7DFBCFE2
:100550008091B0008F778093B00008958091B000B3
:100560008F7DF9CF1F93CF93DF93282F30E0F901D0
:10057000E155FF4F8491F901E556FF4FD491F90100
:10058000E957FF4FC491CC23A9F0162F81110E9487
:100590008902EC2FF0E0EE0FFF1FE358FF4FA5910B
:1005A000B4918FB7F894EC91111108C0D095DE2367
:1005B000DC938FBFDF91CF911F910895DE2BF8CF91
:1005C000CF93DF9390E0FC01E556FF4F24918957CC
:1005D0009F4FFC0184918823D1F090E0880F991FF0
:1005E000FC01ED58FF4FA591B491FC01E358FF4F7A
:1005F000C591D49161110EC09FB7F8948C91E22FF0
:10060000E0958E238C932881E223E8839FBFDF91BE
:10061000CF9108958FB7F894EC91E22BEC938FBFB4
:10062000F6CF1F93CF93DF93182FEB0161E00E9469
:10063000E002209739F460E0812FDF91CF911F9184
:100640000C94B202CF3FD10511F461E0F5CFE12F58
:10065000F0E0E155FF4FE491E33031F140F4E13057
:10066000B1F0E230E1F0C038D1057CF7E4CFE730FB
:1006700029F1E83059F1E430B1F7809180008062CF
:1006800080938000D0938B00C0938A0004C084B50F
:10069000806884BDC7BDDF91CF911F91089584B557
:1006A000806284BDC8BDF7CF809180008068809350
:1006B0008000D0938900C0938800EDCF8091B00076
:1006C00080688093B000C093B300E5CF8091B00004
:1006D00080628093B000C093B400DDCF3FB7F89440
:1006E0008091690290916A02A0916B02B0916C02B4
:1006F00026B5A89B05C02F3F19F00196A11DB11D7D
:100700003FBFBA2FA92F982F8827BC01CD01620FB8
:10071000711D811D911D42E0660F771F881F991F73
:100720004A95D1F708952FB7F894609165027091BA
:10073000660280916702909168022FBF0895CF935F
:10074000DF93CDB7DEB7C258D1090FB6F894DEBF3C
:100750000FBECDBF382F82E8E1E5F1E0DE01119652
:1007600001900D928A95E1F7DE01AC57BF4FE2E8A8
:100770008E918C3511F0E150D9F7EF5F81E88E1B37
:1007800041E050E04C0F5D1F4E0F511DFA01232F29
:10079000A32FB92F9A2F921B981718F491919D931C
:1007A000F9CFCE57DF4F0FB6F894DEBF0FBECDBFE7
:1007B000DF91CF910895CF93DF93CDB7DEB72C971C
:1007C0000FB6F894DEBF0FBECDBF2CE0E3EDF1E035
:1007D000DE01119601900D922A95E1F7FE01319606
:1007E0009C01255F3F4F4191DC014D93CD01A21744
:1007F000B307C9F78BE02C960FB6F894DEBF0FBE97
:10080000CDBFDF91CF910895CF93DF93CDB7DEB702
:1008100029970FB6F894DEBF0FBECDBF29E0EFEDEC
:10082000F1E0DE01119601900D922A95E1F7FE01AB
:1008300031969C01285F3F4F4191DC014D93CD01E2
:10084000A217B307C9F788E029960FB6F894DEBF60
:100850000FBECDBFDF91CF91089590910001891314
:100860000BC0E2E7F0E0E4919FEF90930001E130EC
:1008700049F028F0E23061F060E00C94B20210928E
:100880006E00FACF90916F009D7F90936F00F4CF30
:10089000909170009D7F9093700091E09093B000D4
:1008A0009091B100987F94609093B1001092B30042
:1008B000E3CF4F925F926F927F928F929F92AF920F
:1008C000BF92CF92DF92EF92FF920F931F93CF933D
:1008D000DF9300D000D01F92CDB7DEB78B01290186
:1008E0003A01909100018917C9F09F3F09F47EC039
:1008F0000F900F900F900F900F90DF91CF911F915D
:100900000F91FF90EF90DF90CF90BF90AF909F90AE
:100910008F907F906F905F904F900895E2E7F0E0A6
:1009200094919D8397FDE4CF61E00E94E0028D8168
:10093000882321F09D81923009F04AC14801B12CF1
:10094000A12C60E072E18AE790E0A50198010E9485
:10095000C22029833A834B835C8369017A0181E059
:10096000C81AD108E108F1089FEFC916D104E104C3
:10097000F10409F00CF401C160E472E48FE090E04E
:10098000A50198010E94C22069017A0181E0C81A7C
:10099000D108E108F1089D81923009F0A2C08FEFE3
:1009A000C816D104E104F10409F00CF4E6C160E9D1
:1009B00070ED83E090E0A50198010E94C2206901DA
:1009C0007A0191E0C91AD108E108F1088FEFC81641
:1009D000D104E104F10411F00CF07FC183E09091A7
:1009E000B100987F892B8093B100CFC08093000124
:1009F000E2E7F0E094919D839F3F09F479CF913035
:100A000041F150F0923009F446C09D8197FD70CFBE
:100A100061E00E94E0028ECF14BC15BC94B59260D8
:100A200094BD95B5916095BD282F30E0F901E95747
:100A3000FF4FE491F0E0EE0FFF1FE358FF4F4591A9
:100A40005491F901E556FF4FE491E09354021D8261
:100A50006BCF10928000109281009091810098607D
:100A60009093810090918100916090938100282F54
:100A700030E0F901E957FF4FE491F0E0EE0FFF1F7E
:100A8000E358FF4F45915491F901E556FF4FE4912A
:100A9000E093530249CF1092B0001092B1009091B0
:100AA000B00092609093B0009091B10091609093EB
:100AB000B100282F30E0F901E957FF4FE491F0E051
:100AC000EE0FFF1FE358FF4F4591549150935E0284
:100AD00040935D02F901E556FF4FE491E0935F0218
:100AE00023CF9FEFC916D104E104F10409F00CF4FF
:100AF0006DC068E478EE81E090E0A50198010E9465
:100B0000C22069017A0181E0C81AD108E108F10820
:100B10009D81992309F4FAC08FEFC816D104E1042E
:100B2000F10411F00CF0FBC0EFC064E274EF80E060
:100B300090E0A50194010E94C22069017A0181E040
:100B4000C81AD108E108F10885E09FEFC916D10461
:100B5000E104F10409F008F442CF62E17AE780E0B1
:100B600090E0A50194010E94C22069017A0181E010
:100B7000C81AD108E108F108E5C081E09D81911112
:100B80002ECF95B5987F892B85BD2FEF3FEFA9011B
:100B9000411451046104710409F043C09D819130F6
:100BA00009F45EC0923009F46DC09111A1CEC7BCAA
:100BB0002093590230935A0240935B0250935C0297
:100BC00080916E00826080936E0092CE82E0D6CFDC
:100BD000B12CA12C60E072E18AE790E0A5019801B8
:100BE0000E94C22069017A0181E0C81AD108E10897
:100BF000F108C114D10491E0E906F10404F591E093
:100C00008D81813011F680918100887F892B8093BE
:100C100081002FEF3FEFA9014114510461047104D9
:100C2000F9F0D801AA0FBB1FA30192010E94781FFF
:100C300028EE33E040E050E00E94A020AFCF68E40F
:100C400078EE81E090E0A50198010E94C220690140
:100C50007A0181E0C81AD108E108F10893E0D0CF09
:100C6000D0928900C092880020935502309356029A
:100C7000409357025093580280916F008260809396
:100C80006F0036CEC092B3002093600230936102B1
:100C9000409362025093630280917000826080935F
:100CA000700026CE84E09FEFC916D104E104F10460
:100CB00009F008F466CFC980DA80EB80FC808AE016
:100CC000F594E794D794C7948A95D1F781E0C81A30
:100CD000D108E108F10885E054CF68E478EE81E0BE
:100CE00090E0A50198010E94C22069017A0181E08B
:100CF000C81AD108E108F1089FEFC916D104E10430
:100D0000F10411F00CF011CF84E069CE83E09FEF85
:100D1000C916D104E104F10409F00CF432CF62E108
:100D20007AE780E090E0A50194010E94C220690169
:100D30007A0181E0C81AD108E108F1089D81992360
:100D400009F4B0CF86E09FEFC916D104E104F104A5
:100D500009F008F444CEC980DA80EB80FC809AE088
:100D6000F594E794D794C7949A95D1F781E0C81A7F
:100D7000D108E108F10887E032CE82E030CEAF92B0
:100D8000BF92CF92DF92EF92FF920F931F93CF9378
:100D9000DF936C017B018B01040F151FEB015E01DA
:100DA000AE18BF08C017D10759F06991D601ED916F
:100DB000FC910190F081E02DC6010995892B79F70E
:100DC000C501DF91CF911F910F91FF90EF90DF90C0
:100DD000CF90BF90AF900895FC01538D448D252F87
:100DE00030E0842F90E0821B930B541710F0CF96C5
:100DF000089501970895FC01918D828D981761F0F7
:100E0000A28DAE0FBF2FB11D5D968C91928D9F5F0D
:100E10009F73928F90E008958FEF9FEF0895FC01EC
:100E2000918D828D981731F0828DE80FF11D858D9F
:100E300090E008958FEF9FEF0895FC01918D228D32
:100E4000892F90E0805C9F4F821B91098F739927B7
:100E500008958EE693E00E941D0721E0892B09F496
:100E600020E0822F089580E090E0892B29F00E94F5
:100E7000290781110C9400000895FC01A48DA80F8E
:100E8000B92FB11DA35ABF4F2C91848D90E00196CC
:100E90008F739927848FA689B7892C93A089B189EC
:100EA0008C91837080648C93938D848D981306C08D
:100EB0000288F389E02D80818F7D80830895EF92F1
:100EC000FF920F931F93CF93DF93EC0181E0888F04
:100ED0009B8D8C8D98131AC0E889F989808185FFD4
:100EE00015C09FB7F894EE89FF896083E889F98976
:100EF00080818370806480839FBF81E090E0DF9178
:100F0000CF911F910F91FF90EF900895F62E0B8DCA
:100F100010E00F5F1F4F0F731127E02E8C8D8E1185
:100F20000CC00FB607FCFACFE889F989808185FFEC
:100F3000F5CFCE010E943D07F1CFEB8DEC0FFD2FD9
:100F4000F11DE35AFF4FF0829FB7F8940B8FEA89A7
:100F5000FB8980818062CFCFCF93DF93EC01888DB6
:100F60008823B9F0AA89BB89E889F9898C9185FD24
:100F700003C0808186FD0DC00FB607FCF7CF8C91B2
:100F800085FFF2CF808185FFEDCFCE010E943D0726
:100F9000E9CFDF91CF910895089560E070E080E897
:100FA0009FE30895089580E0089580E00895DC01AE
:100FB0001396ED91FC9180810895AF92BF92CF92EC
:100FC000DF92EF92FF920F931F93CF93DF93EC0189
:100FD000EB81FC81B080C12CEE24E394F12C898557
:100FE000C81608F045C00C2D10E0FE01E00FF11FFF
:100FF000228530E0F901E155FF4F8491F901E55672
:10100000FF4FD490F901E957FF4FA490AA2069F14E
:1010100081110E948902EA2DF0E0EE0FFF1FE859CE
:10102000FF4FA591B491EC91DE2231E020E009F46C
:1010300030E0832F922FEB81FC819701002E01C0BD
:10104000220F0A94EAF7322F309520812323208340
:10105000EB81FC8121E0822701C0880F0A95EAF725
:101060009081892B8083C394BACF90E080E0E3CF56
:101070000E946E036D837E838F839887EB81FC8152
:1010800081E090819B1101C080E0DF91CF911F91A1
:101090000F91FF90EF90DF90CF90BF90AF900895A9
:1010A000CF93DF93EC016B81617089810E94B20262
:1010B0006B8162708A81DF91CF910C94B202EF92C2
:1010C000FF920F931F93DC0118968C911897882339
:1010D00081F0489FA0011124452F829F9001112487
:1010E000232F809F80011124012F8E9D70011124D8
:1010F000EF2C1E968C911E971996ED91FC911A97E4
:101100001B969C911B97891320C0CB01880F991FB8
:10111000680F791F6E0F7F1F1B96EC911B97E60FD0
:10112000F72FF11D40831C96EC911C97E60FF72FCB
:10113000F11D20831D968C91680F711DFB010083AA
:101140001F910F91FF90EF900895660F771F660F24
:10115000771F6E0F7F1FFB01E80FF11DE082DCCFD0
:10116000CF92DF92EF92FF920F931F93CF93DF9373
:10117000CDB7DEB729970FB6F894DEBF0FBECDBF4F
:101180008C010E946E03D8011F96CD90DD90ED90EA
:10119000FC9052976C157D058E059F0528F4F8018B
:1011A0006787708B818B928BD8011F96CD90DD90D5
:1011B000ED90FC9052976C197D098E099F096C3255
:1011C000714081059105E8F2F894F80184819581D8
:1011D0009A8389830184F285E02D7F012FEFE21A43
:1011E000F20A80818F83D8019C915396ED91FC91F6
:1011F000549755968C91992309F448C09081982B67
:101200009887908180958923898789858B8388E059
:101210008C83588569854F813C812B8189819A8196
:10122000D701508347FD252F3A952083262F39F08B
:10123000441F00C000006083000000C0F2CF38E00F
:101240004D9160830000019761F7D8015496FC939B
:10125000EE9353974F833C832B839A8389837894AF
:101260000E946E03F8016787708B818B928B2996A1
:101270000FB6F894DEBF0FBECDBFDF91CF911F91A7
:101280000F91FF90EF90DF90CF9008959081982B71
:101290009887908180958923898789858D8388E0C7
:1012A0008E83588569854F813E812D8189819A8100
:1012B000D701508347FD252F00C000C0208300C008
:1012C00000C000C000C000C060830000262F3A9517
:1012D00041F0441F000000C000C000C000C000C0BA
:1012E000E8CF38E04D9100C0608300C0019709F756
:1012F000D8015496FC93EE9353974F833E832D83EE
:10130000ACCFEF920F931F93CF93DF93EC018EA19D
:101310009FA1009799F410E08DA5181730F58EA5C0
:101320006FEF70E0882311F070E060E0FE01E10FE4
:10133000F11D81A50E9411031F5FEECF68A570E02B
:10134000FC01228133816217730730F4E12C00E045
:1013500020E040E00E945F088EA19FA1FC01218552
:101360003285232B11F00E94B0081FA618AA19AAD3
:101370001AAA1DA2DF91CF911F910F91EF900895AE
:10138000EF920F931F93CF93DF93EC018EA19FA158
:10139000009701F510E006E0288130E08DA51817D0
:1013A000B8F5812F90E0029FF001039FF00D11240A
:1013B000EC0FFD1FE80FF91F61812EA5211101C05F
:1013C000609570E08C0F9D1FFC0181A50E941103A8
:1013D0001F5FE2CF68A570E0FC01228133816217B4
:1013E000730768F42881FE0136E0239FE00DF11DAC
:1013F0001124E4800381228141810E945F088EA133
:101400009FA1FC0121853285232B11F00E94B00899
:10141000888116E0FE01189FE00DF11D11248581E1
:101420009681019691F00E9493032881FE01129FFC
:10143000E00DF11D112425813681620F731F811D7E
:10144000911D6FA778AB89AB9AAB81E08DA3DF913B
:10145000CF911F910F91EF900895CF92DF92EF926D
:10146000FF920F931F93CF93DF93EC016A017B01EF
:101470000AA51BA501151105D9F0AB01960160E085
:1014800070E080E89FE30E94921FAB01BC01D8018D
:10149000ED91FC910480F581E02D2EA5C801DF912E
:1014A000CF911F910F91FF90EF90DF90CF90099413
:1014B0000CA4DDA5C02D2097C1F0688170E090E0FC
:1014C00080E00E94431EA70196010E94A41E0E9474
:1014D00071206B83CE01DF91CF911F910F91FF900F
:1014E000EF90DF90CF900C945008DF91CF911F9137
:1014F0000F91FF90EF90DF90CF900895DC01EC9179
:10150000B4E0EB9FF0011124E80FF91F238134812F
:1015100061817281FC0181A550E040E02F3F3207DC
:1015200019F420E030E0A9010C945904DC01ED919C
:10153000FC910190F081E02D0994DC01ED91FC918A
:101540000280F381E02D09948F929F92AF92BF9217
:10155000CF92DF92EF92FF920F931F93CF93DF937F
:10156000EC018A898E3008F08E50877080648093F9
:101570007C0080917A00806480937A0080917A0068
:1015800086FDFCCF80917800909179009C838B83BD
:101590000E946E036D837E838F8398870E949303DE
:1015A0000B811C814C855D8528893989401751073D
:1015B00060F421153105A9F0CB8CDC8CED8CFE8C10
:1015C000C616D706E806F90660F41D870C876B017E
:1015D0007C01C20ED31EE11CF11CCB8EDC8EED8E85
:1015E000FE8E4E855F850417150760F421153105C1
:1015F00099F0CF8CD8A0E9A0FAA0C616D706E806C5
:10160000F90650F41F870E87620F731F811D911D0D
:101610006F8F78A389A39AA3CC84DD84EE84FF84A2
:10162000EC18FD0889858823D1F0B70190E080E0AF
:101630000E94431E2D893E894F89588D0E94A41E09
:101640004B015C01B60190E080E00E94431EA501C1
:1016500094010E94931F0E9471207A8F698F8A855E
:101660009B85E816F90648F0298D3A8D89818823F3
:1016700031F081E00217130730F480E004C081E00C
:1016800002171307D0F748818883EDA1FEA19A8144
:1016900021E030E001C0220F9A95EAF72095908171
:1016A00029232083EDA1FEA128819A8101C0220F68
:1016B0009A95EAF79081292B20838427DF91CF9197
:1016C0001F910F91FF90EF90DF90CF90BF90AF9060
:1016D0009F908F90089520912E02260F3327331F5D
:1016E00021323105ECF420919302FC0190E080E07E
:1016F000243069F082E00895A0912E022191AC017E
:10170000445F5D4FA40FB52FB11D2C930196861732
:1017100098F380912E02680F60932E0280E0089566
:1017200081E008951092930281E0809392021092DA
:101730006D0261E082E10E94B20261E083E10E94F9
:10174000B202E9EBF0E080818E7F808380818D7F23
:10175000808388E48093B80085E48093BC0008957A
:10176000CF93DF9391E090930B028823B9F0C0915F
:10177000B800D091BA008091BC008A7B8093BC00F5
:1017800060E082E10E94B20260E083E10E94B20266
:101790000E94920BD093BA00C093B800DF91CF9112
:1017A00008958F929F92AF92BF92CF92DF92EF9265
:1017B000FF920F931F93CF93DF93D091BC02D1324E
:1017C00008F0D7C0182FC091BB020E946E036B01B6
:1017D0007C018091930281116BC082E0809393021F
:1017E000109392028FEF8093910210929002D09307
:1017F0008F02ABE9B2E0EFE6F2E080E0D81391C0EF
:1018000010926E0280916E02CC0FC82BC0936E02B4
:1018100080916D02813009F088C010926D020E94A3
:101820006E036B017C0180916E028093BB008091FE
:10183000950290919602A0919702B0919802892BFF
:101840008A2B8B2BA1F00E946E03009195021091C0
:10185000960220919702309198026C197D098E09A9
:101860009F09061717072807390708F442C0809117
:10187000BC0083FDD8CF85EC8093BC000E946E0332
:101880006B017C0180919302823009F450C08091F9
:1018900091028F3F09F46FC080919102803209F468
:1018A0006CC080919102803309F469C084E026C045
:1018B0008091950290919602A0919702B091980222
:1018C000892B8A2B8B2B09F484CF0E946E03809086
:1018D000950290909602A0909702B09098026C1991
:1018E0007D098E099F0986169706A806B90608F095
:1018F00070CF809194020E94B00B85E010929A0202
:101900001092BC0210929902DF91CF911F910F911A
:10191000FF90EF90DF90CF90BF90AF909F908F900F
:1019200008959D9191938F5F69CF85EEA5CF8091AA
:10193000950290919602A0919702B0919802892BFE
:101940008A2B8B2B09F49ECF0E946E030091950287
:101950001091960220919702309198026C197D099E
:101960008E099F09061717072807390708F08ACF3D
:10197000C0CF81E0C3CF80E0C1CF82E0BFCF83E0A2
:10198000BDCF08950895E0910A0280910902E817F9
:1019900030F4F0E0E751FE4F808190E008958FEF42
:1019A0009FEF089590910A02809109022FEF3FEF77
:1019B000981748F4E92FF0E0E751FE4F208130E01E
:1019C0009F5F90930A02C901089580910902909146
:1019D0000A02891B990B0895CF92DF92EF92FF9232
:1019E0000F931F93CF93DF937C01CB018A0120914A
:1019F0009902222389F0EB016B01C40ED51ECC1590
:101A0000DD0569F06991D701ED91FC910190F081BC
:101A1000E02DC7010995F3CF642F0E946B0BC8011D
:101A2000DF91CF911F910F91FF90EF90DF90CF90BA
:101A30000895CF93DF931F92CDB7DEB769832091CE
:101A400099022223F9F02091BC02203258F021E0C3
:101A500030E0FC013383228390E080E00F90DF913F
:101A6000CF91089580919A02E82FF0E0E556FD4F5E
:101A7000998190838F5F80939A028093BC0281E06A
:101A800090E0ECCF61E0CE0101960E946B0BF7CFA6
:101A900090E080E0089560E070E080E89FEB0895BA
:101AA00060E070E080E89FEB0895CF92DF92EF92C4
:101AB000FF92CF93DF93EC01E881F9810084F185F7
:101AC000E02D09956B017C012A853B854C855D8560
:101AD0006E857F85888999890E94931FA701960149
:101AE0000E94A41EDF91CF91FF90EF90DF90CF90E6
:101AF0000895DC01ED91FC910088F189E02D60E012
:101B000009948F929F92AF92BF92CF92DF92EF9201
:101B1000FF921F93CF93DF93EC016A017B01122F99
:101B20008A849B84AC84BD84AB019601C501B40159
:101B30000E943E1E40E050E0BA0187FF0EC0A501A2
:101B40009401C701B6010E94921F2E853F854889E6
:101B500059890E94FF1FAB01BC01E881F981048013
:101B6000F581E02D212FCE0109952E853F854889ED
:101B700059890E94A41E2A853B854C855D850E945B
:101B8000931FDF91CF911F91FF90EF90DF90CF9047
:101B9000BF90AF909F908F900895DC01ED91FC91E4
:101BA0000484F585E02D20E00994DC01ED91FC91A1
:101BB0000084F185E02D60E00994DC01ED91FC9159
:101BC0000480F581E02D20E009941F93CF93DF93EB
:101BD000EC018A899B89892B11F510920A021092D7
:101BE000090210929A021092BC020E94920B81ECA0
:101BF0009CE090932D0280932C0282EC9CE09093C9
:101C00003102809330028F8991E090939902809302
:101C1000BB0281E0DF91CF911F910C94D10B1FB7D4
:101C2000F8948091E801811127C0E1E9F0E0849106
:101C3000E5EAF0E09491E82FF0E0EE0FFF1FED5899
:101C4000FF4FA591B491EC91E92321F461E08AE082
:101C50000E94B20261E08AE00E94E0028CB58061DD
:101C60008CBD8CB580648CBD61E08DE00E94E0028B
:101C700061E08BE00E94E0028091E8018F5F809339
:101C8000E8011FBF61E08C890E94E00261E08C895D
:101C90000E94B20280E0DF91CF911F91089589ECFC
:101CA00092E00E94A40A882381F08091C90269E130
:101CB00070E0811102C061E070E08AE00E941103CF
:101CC00080910D0481FD0C94CA0008958F929F921B
:101CD000AF92BF92CF92DF92EF92FF920F931F933A
:101CE000CF93DF93EC01042FF22E632B162F142BCE
:101CF0008A899B89892B09F030C18CE08093B800D8
:101D00008D899E892F8931E0309399022093BB02FF
:101D100010929A021092BC02DC01ED91FC910190AC
:101D2000F081E02D612F09950C3009F006C181E0AA
:101D30000E94D10B882379F08FEF9FEFDF91CF9135
:101D40001F910F91FF90EF90DF90CF90BF90AF90D9
:101D50009F908F9008951F890E946E036B017C01F4
:101D600080919302811165C081E0809393028093FA
:101D700092029FEF909391021092900280938F02B3
:101D800080936E0280916E02110F182B10936E02D9
:101D900080916D02813009F08EC010926D020E9418
:101DA0006E036B017C0180916E028093BB00809179
:101DB000950290919602A0919702B0919802892B7A
:101DC0008A2B8B2BA1F00E946E030091950210913B
:101DD000960220919702309198026C197D098E0924
:101DE0009F09061717072807390708F443C0809191
:101DF000BC0083FDD8CF85EC8093BC000E946E03AD
:101E00006B017C0180919302813009F456C080916E
:101E10009002823008F073C080919002EFE6F2E009
:101E2000A9EEB1E090E0981751F121912D939F5FB9
:101E3000FACF8091950290919602A0919702B0916D
:101E40009802892B8A2B8B2B09F48ACF0E946E0370
:101E50008090950290909602A0909702B090980280
:101E60006C197D098E099F0986169706A806B90682
:101E700008F076CF809194020E94B00B80E010921F
:101E80000A02809309028230E0F58D899E89DC0187
:101E9000ED91FC910084F185E02D0995892B09F4E1
:101EA0004BCF8D899E89DC01ED91FC910284F385F5
:101EB000E02D0995EACF85EE9FCF80919502909114
:101EC0009602A0919702B0919802892B8A2B8B2BB6
:101ED00009F498CF0E946E0300919502109196022A
:101EE00020919702309198026C197D098E099F0903
:101EF000061717072807390708F084CFBBCF82E001
:101F00008DCF8D899E89DC01ED91FC910284F38552
:101F1000E02D0995082F8D899E89DC01ED91FC91BA
:101F20000284F385E02D0995182F802F90E0982FDB
:101F30008827810F911D917001CF8D899E89DC01C9
:101F4000ED91FC910190F081E02D6F2D099581E0DC
:101F50000E94D10B182F00E0E8CF81E58CBD1DBC9D
:101F600060E08C890E94B2021EBD00000DB407FE25
:101F7000FDCF0EB5FEBC00000DB407FEFDCF1EB5B3
:101F800061E08C890E94B202D0CF4F925F926F9233
:101F90007F928F929F92AF92BF92CF92DF92EF92F9
:101FA000FF92CF93DF93EC012FEF31E04CE0611112
:101FB00047C0CE010E94660EBC0190E080E00E9406
:101FC000431E6B017C01688D798D90E080E00E945A
:101FD000431E9B01AC01C701B6010E94FF1F9B017C
:101FE000AC01CE84DF84E888F988C701B6010E947D
:101FF000A41E9B01AC018A849B84AC84BD84C50172
:10200000B4010E94931F2B013C01A5019401C7015B
:10201000B6010E94931F9B01AC01C301B2010E9453
:10202000FF1FDF91CF91FF90EF90DF90CF90BF9097
:10203000AF909F908F907F906F905F904F9008959A
:1020400060E1B7CFCF92DF92EF92FF921F93CF93D1
:10205000DF93EC016A017B01122F688D798D90E08E
:1020600080E00E94431EA70196010E94A41E0E94C8
:1020700071209B0140E060E0111160E1CE010E94FF
:10208000660EE881F9810084F185E02D612FCE0193
:10209000DF91CF911F91FF90EF90DF90CF90099447
:1020A0001F93CF93DF93EC018B819C81892B41F4AB
:1020B00081E090E00E94E7209C838B83FC011082EA
:1020C00010E08985181748F4FE01E10FF11D60E06A
:1020D00082850E94E0021F5FF4CFE881F9810280CF
:1020E000F381E02DCE01099580E0DF91CF911F9122
:1020F00008950E940C2285ED8093BC00809195028A
:1021000090919602A0919702B09198020796A11D16
:10211000B11D23E0B695A795979587952A95D1F798
:102120002091BC0024FD03C01092930208954091B9
:102130009502509196026091970270919802452BFA
:10214000462B472B69F30097A105B10541F02AE220
:102150002A95F1F700C00197A109B109E1CF80915B
:1021600094020C94B00B0C94621F0C946A1F1F9283
:102170000F920FB60F9211242F933F938F939F933B
:10218000AF93BF938091650290916602A091670220
:10219000B09168023091640223E0230F2D3758F587
:1021A0000196A11DB11D2093640280936502909356
:1021B0006602A0936702B0936802809169029091D1
:1021C0006A02A0916B02B0916C020196A11DB11D33
:1021D0008093690290936A02A0936B02B0936C02A1
:1021E000BF91AF919F918F913F912F910F900FBE13
:1021F0000F901F90189526E8230F0296A11DB11D80
:10220000D2CF1F920F920FB60F9211242F933F93AC
:102210004F935F936F937F938F939F93AF93BF93EE
:10222000EF93FF938091600290916102A09162020E
:10223000B0916302892B8A2B8B2BD1F190915F0295
:10224000E0915D02F0915E02808189278083809118
:10225000600290916102A0916202B091630218162F
:1022600019061A061B069CF4809160029091610287
:10227000A0916202B09163020197A109B109809314
:10228000600290936102A0936202B0936302FF9197
:10229000EF91BF91AF919F918F917F916F915F91DE
:1022A0004F913F912F910F900FBE0F901F90189557
:1022B000809100010E942D04EACF1F920F920FB669
:1022C0000F9211242F933F934F935F936F937F93BC
:1022D0008F939F93AF93BF93EF93FF938EE693E01B
:1022E0000E943D07FF91EF91BF91AF919F918F9118
:1022F0007F916F915F914F913F912F910F900FBE02
:102300000F901F9018951F920F920FB60F921124E5
:102310002F938F939F93EF93FF93E0917E03F09120
:102320007F038081E0918403F091850382FD1BC0CF
:102330009081809187038F5F8F732091880382172C
:1023400041F0E0918703F0E0E259FC4F958F8093D4
:102350008703FF91EF919F918F912F910F900FBE67
:102360000F901F9018958081F4CF1F920F920FB697
:102370000F9211242F933F934F935F936F937F930B
:102380008F939F93AF93BF93EF93FF938091B90087
:10239000887F803609F44AC0F0F5883209F4A7C076
:1023A00018F5803109F49BC0B8F4882309F4F9C00A
:1023B000883009F494C0FF91EF91BF91AF919F9144
:1023C0008F917F916F915F914F913F912F910F90DE
:1023D0000FBE0F901F901895883109F488C0803285
:1023E00051F78093910214C0803409F49DC040F4E9
:1023F0008033B9F38833F9F68093910285ECB0C04D
:10240000803509F485C0883509F496C0883499F67A
:102410000E947B10D0CF883909F48CC038F58837FA
:1024200029F050F4883611F0803729F683E0809344
:1024300093021092520257C0883809F47BC0803949
:1024400019F0803809F0B7CF80915202803208F03D
:1024500071C0E091520281E08E0F80935202809110
:10246000BB00F0E0EE5CFD4F80833DC0803B39F067
:10247000E0F4803A09F479C0883A09F09CCF84E00E
:102480008093930210922F0210922E02E0912C0260
:10249000F0912D02099580912E0281110FC081E0EB
:1024A00080932E0210920C0209C0803C09F4A6CF42
:1024B000883C09F4A3CF883B09F07DCFE0912F023F
:1024C00081E08E0F80932F02F0E0E45FFD4F80816A
:1024D0008093BB0090912F0280912E0229C08091A1
:1024E0006E028093BB0085EC8093BC0064CF90911A
:1024F000900280918F02981758F5E091900281E048
:102500008E0F80939002F0E0E159FD4F8081E9CF7A
:10251000E091900281E08E0F809390028091BB0049
:10252000F0E0E159FD4F80839091900280918F02FD
:102530009817C8F285E8D8CFE091900281E08E0F1D
:10254000809390028091BB00F0E0E159FD4F8083C1
:102550008091920281115CCF81E080936D0284EAC8
:102560008093BC001092930226CF85EC8093BC0030
:102570001092930280915202803230F4E091520224
:10258000F0E0EE5CFD4F10826091520270E0E0914D
:102590003002F091310282E392E0099510925202EA
:1025A0000ACF1092910234CFEEE6F3E0138212824A
:1025B00088EE93E0A0E0B0E084839583A683B783A0
:1025C0008DE191E09183808385EC90E0958784870D
:1025D00084EC90E09787868780EC90E0918B808BED
:1025E00081EC90E0938B828B82EC90E0958B848BD6
:1025F00086EC90E0978B868B118E128E138E148E44
:10260000ABE0B4E01196FC93EE9312961C921297F5
:102610008AEF90E014969C938E93139740E157E2D3
:1026200060E070E015964D935D936D937C931897E1
:102630001D961C921D971F961C921E921E975196D6
:102640001C921E92509753961C921E92529755962A
:102650001C921E92549757961C921E92569759960A
:102660001C921E92589710924D0410925004109292
:10267000530481E05A968C93E4E5F3E040E050E0A7
:1026800066E972E4428753876487758740E050E4C7
:102690006CE176E446875787608B718B93E1948B6E
:1026A000168A158A20E830E0318F208F23E533E049
:1026B000338B228B2FE331E031832083A4E2B3E01C
:1026C0001C929FE099969C9399979D961C921E92BE
:1026D0009C979E961C929E979B96FC93EE939A973E
:1026E000E1EFF2E0108217A216A210A686A794E0EE
:1026F00095A723E021A725E022A726E023A729E02C
:1027000024A7E9ECF2E0818320EF32E02283818785
:1027100024E630E033872287158614862FEF3FEFBB
:102720003787268720E335E7318B208B8EE0828B3D
:102730008FEF838B848B40E050E060E07FE3458B3C
:10274000568B678B708F28EE33E034A323A316A239
:1027500015A2EDEBF2E01282148213822FE231E037
:102760003183208382E08187928787E08387089581
:10277000CF93DF93CDB7DEB7E4970FB6F894DEBF03
:102780000FBECDBF789484B5826084BD84B581606E
:1027900084BD85B5826085BD85B5816085BD80912C
:1027A0006E00816080936E001092810080918100A4
:1027B000826080938100809181008160809381009C
:1027C000809180008160809380008091B10084605E
:1027D0008093B1008091B00081608093B0008091BF
:1027E0007A00846080937A0080917A00826080937E
:1027F0007A0080917A00816080937A0080917A00DB
:10280000806880937A001092C10084E690E09093F3
:10281000D4028093D30280E090E0A0E0BFE38093F5
:10282000DE029093DF02A093E002B093E10281E028
:102830008093D2028091EE029091EF02892B51F4A5
:1028400081E090E00E94E7209093EF028093EE02F7
:10285000DC011C9260E08091DB020E94E0020E9499
:1028600093032091EC023091ED02DC01CB01820F49
:10287000931FA11DB11D8093E4029093E502A093E4
:10288000E602B093E7028093E8029093E902A093F6
:10289000EA02B093EB020E944F0E8DEB92E00E9491
:1028A00050108FE993E090931A04809319048BEDF4
:1028B00093E090931C0480931B0484E094E0909335
:1028C0001E0480931D0485EB90E190932004809377
:1028D0001F0483EB90E1909322048093210484E20F
:1028E00093E090934A048093490489EC92E090939A
:1028F0004F0480934E0481EF92E090934C048093B8
:102900004B0440E052EC61E070E080910B04909148
:102910000C040E943A0160E081E10E94E00261E063
:102920008AE00E94E00269E170E08AE00E941103FF
:1029300082E1E7E0F1E0DE01119601900D928A95C7
:10294000E1F700911703109118030115110579F4AF
:1029500010E080911E031817D8F4E12FF0E0EF503B
:10296000FD4F61E081A50E94E0021F5FF2CFF801F8
:102970008681978197FD09C061E00E94E00260E0D6
:10298000D80116968C910E94B20281E0F8018183F1
:1029900081EF92E00E948109DE011196E1EFF2E001
:1029A00084E690E012962C91129711963C91119723
:1029B0004C91418332832383968385831396369685
:1029C00023E0E531F20771F785E08093F10261E0E1
:1029D00080914D030E94E00260E080914D030E94CF
:1029E000B20280914E0390914F03009739F0DC01C1
:1029F000ED91FC910190F081E02D0995009150033B
:102A00001091510301151105C9F061E0F8018181B0
:102A10000E94E00260E0D80111968C910E94B202FF
:102A200061E0F80182810E94E00260E0D801129624
:102A30008C910E94B202C8010E945008E4E2F3E0C7
:102A400088EE93E024E630E092838183348323830D
:102A50008C599F4F3496803DB7E09B07A9F789E0DA
:102A60008093240340E050E060E87FE384E293E059
:102A70000E942D0A10E01093F10281EF92E00E9473
:102A8000C0091093240384E293E00E947E0A0E940E
:102A90006E034B015C0178ECC72ED12CE12CF12C9C
:102AA0000E946E03681979098A099B09683E734080
:102AB00081059105A8F3E1E0CE1AD108E108F108FB
:102AC000F8EE8F0EF3E09F1EA11CB11CC114D104BF
:102AD000E104F10429F71F5F163069F680914D0378
:102AE0000E942D0466246A94762CCE010A969CAB33
:102AF0008BAB6EE1862E912CA12CB12C01E010E065
:102B000080910B0490910C04DC01ED91FC91008408
:102B1000F185E02D0995892BC9F180910B049091E5
:102B20000C04DC01ED91FC910284F385E02D099504
:102B3000682F282F392F3093270420932604E09103
:102B40002B04F0912C04309709F086C580912A045B
:102B50008111A5C0309329042093280481E080933B
:102B60002A0480912B0490912C04892B11F00C9451
:102B70002A1E80912A0481110C942A1E10923C0472
:102B800010923D0410923E0410923F0480913C0448
:102B900090913D04A0913E04B0913F04892B8A2B73
:102BA0008B2B89F00E949303C0903C04D0903D048D
:102BB000E0903E04F0903F04C616D706E806F906FA
:102BC00010F40E949A018091200390912103A0911A
:102BD0002203B0912303892B8A2B8B2B99F00E941F
:102BE0009303C0902003D0902103E0902203F09043
:102BF0002303C616D706E806F90620F481EF92E013
:102C00000E9481090E944F0E8DEB92E00E94DD0729
:102C100090910D0491FF03C081110E94FA008091F0
:102C20000D0480FF2FC00E946E03C0901404D0904A
:102C30001504E0901604F0901704C616D706E806AF
:102C4000F90600F50E94CA000E94FA00809114045F
:102C500090911504A0911604B091170440911004AE
:102C6000509111046091120470911304840F951F08
:102C7000A61FB71F8093140490931504A093160405
:102C8000B093170480E090E0892B09F439CF0E94BB
:102C90002907882309F434CF0E9400002FCF922FF8
:102CA00088272091280430912904820F931F909344
:102CB00029048093280410922A048A30B1E09B07EB
:102CC00009F438C308F0FCC08A31910509F445C203
:102CD00008F086C08730910509F48FC248F582302C
:102CE000910509F4FEC178F4009709F4F2C1019747
:102CF00009F4F2C181E290E00E94AE0080912804C4
:102D000090912904EBC18530910509F45EC208F069
:102D10008CC2049779F78092450490924604A09261
:102D20004704B092480485E090E00E94F80119CF72
:102D30008131910509F437C208F040C08E30910509
:102D400009F410C28031910509F417C20C9791F66D
:102D5000DE011196EEE0F0E021E2CF010196209332
:102D60005700E491ED93FC01449711F4E5E1F0E0A4
:102D70008BA99CA9A817B90781F78DE090E00E9464
:102D8000AE0080910B0490910C04DC01ED91FC915C
:102D90000190F081E02D69E0099580910B049091FC
:102DA0000C04DC01ED91FC910280F381E02D49E0FF
:102DB00050E0BE016F5F7F4F0995D3CE86319105FC
:102DC00009F496C18831910509F4B9C1429709F017
:102DD00091CF85E090E090932C0480932B04C1CE9A
:102DE0008115F1E09F0709F475C2C0F5873691059A
:102DF00009F426C2A8F48536910509F424C2863662
:102E0000910509F077CF85E690E00E94AE006091D1
:102E10001004709111048091120490911304AAC1BE
:102E20008937910509F436C28A37910509F415C22C
:102E30008837910509F05ECF81E190E090932C04F2
:102E400080932B0483E080933A0483E090E0909396
:102E50002E0480932D0483E190E02DC2863031E072
:102E6000930709F447C298F48430A1E09A0709F463
:102E70003EC208F032C28130914009F03BCFE09170
:102E80004904F0914A0481A50E942D046ACE88303D
:102E9000F1E09F0709F447C208F433C288E091E0EB
:102EA0000E94AE00E0914904F0914A04808124E040
:102EB000829FC0011124E80FF91F838194810EC104
:102EC000833032E0930709F40CC308F082C08638DF
:102ED000A1E09A0709F4AFC250F58038E1E09E07FF
:102EE00009F477C260F48B3021E0920709F42CC218
:102EF0008036914009F0FECE8EE090E06CCF8438B1
:102F000041E0940709F472C208F066C2813891402A
:102F100009F0F0CE80914B0490914C04DC01959621
:102F20002C91222309F425CE0E9481091ACE8D38D6
:102F3000E1E09E0709F45DC2C0F5883821E0920700
:102F400009F4C8C208F481C28938914009F0D2CE90
:102F5000E0914D04F0E0EE0FFF1FE55BFB4F0190A9
:102F6000F081E02D808190E09093270480932604E7
:102F700088E891E00E94AE00E0914D04F0E0EE0F91
:102F8000FF1FE55BFB4F0190F081E02D20912604AF
:102F90003091270446E0429FC001439F900D1124C9
:102FA000E80FF91F8581968199C08F38A1E09A07B3
:102FB00009F432C208F42DC28130924009F09ACE51
:102FC00080914E0490914F040E94A40A0E94CA006E
:102FD000C8CD8C30F2E09F0709F4EDC208F04EC076
:102FE000883032E0930709F4C7C250F58630A2E07A
:102FF0009A0709F4A0C208F0ACC28530924009F0EB
:1030000079CE84E092E00E94AE00E0915004F0E0BE
:10301000EE0FFF1FE25BFB4F0190F081E02D8485F6
:1030200095850E94AE00E0915004F0E0EE0FFF1F86
:10303000E25BFB4F0190F081E02D868597854EC0C5
:103040008A30F2E09F0709F4AFC208F49CC28AE01C
:1030500092E00E94AE00E0915004F0E0EE0FFF1FFE
:10306000E25BFB4F0190F081E02D618570E0809183
:103070000B0490910C040E94960A73CD843732E0C1
:10308000930709F4B9C2C8F48237A2E09A0709F499
:10309000A5C208F0AAC28137924009F02BCE8091D8
:1030A000510490915204DC01ED91FC910280F38176
:1030B000E02D09950E94FA0054CD8637F2E09F0773
:1030C00009F4B9C208F4A2C28436954609F449CD80
:1030D00011CE0E949A0145CD8DEC9BEA0E94AE0074
:1030E00040CD83E090E00E94AE0087E090E0F6CF14
:1030F000E0911904F0911A04309709F43ACDCE0109
:1031000001960995F82E85E190E00E94AE0080912D
:103110000B0490910C04DC01ED91FC910190F08185
:10312000E02D6F2D09954F2D50E0BE016F5F7F4F51
:1031300080910B0490910C040E949D0A12CDE091A5
:103140001B04F0911C04309709F413CDCE010196B5
:103150000995F82E87E190E0D8CFE0911D04F09119
:103160001E04F1CF8FE090E00E94AE0060E072ECB0
:1031700081E090E00E948D00F4CC10932C04009329
:103180002B0482E080933A0484E090E090932E0434
:1031900080932D0410924004109241041092420436
:1031A0001092430494C082E190E00E94AE008091AE
:1031B0000B0490910C04DC01ED91FC910190F081E5
:1031C000E02D609118040995CCCC83E090E09093B9
:1031D0002C0480932B0482E190E090932E04809342
:1031E0002D0481E08093440480924504909246042B
:1031F000A0924704B0924804B4CC83E090E090934E
:103200002C0480932B0482E190E090932E04809311
:103210002D0481E0809344041092450410924604EA
:1032200010924704109248049CCC109245041092CE
:103230004604109247041092480487E090E075CD50
:103240008FE090E0C8CD10932C0400932B0482E013
:1032500080933A0480E190E099CFE0912304F091CB
:103260002404309709F485CC099560934004709349
:10327000410480934204909343048BE790E00E94C2
:10328000AE0060914004709141048091420490919D
:10329000430470CF81E190E090932C0480932B0441
:1032A00083E080933A0483E090E090932E0480932F
:1032B0002D0482E190E09093300480932F041092CB
:1032C000450410924604109247041092480410924C
:1032D000390447CC86E190E07ECD84E091E00E9405
:1032E000AE00E0914904F0914A0460817BC087E11F
:1032F00090E071CD10932C0400932B0488E190E0B2
:1033000045CF86E091E00E94AE00E0914904F09143
:103310004A048081B4E08B9FC0011124E80FF91F9B
:1033200081819281DBCE10932C0400932B0489E1E0
:1033300090E02CCF10932C0400932B0482E0809318
:103340003A048AE190E022CF8AE091E00E94AE0048
:10335000A0914904B0914A049A968D919C919B97B3
:103360000097A9F0FC0120813181F9012085318588
:103370009E966C91F90109959B01AC0160E070E0AB
:1033800080E89FE30E94921F0E94D701EACB9C969F
:10339000ED90FC9060E070E080E89FE3E114F104C0
:1033A00099F3D70113966C9170E090E080E00E9451
:1033B000431E1B012C01F701608170E090E080E06A
:1033C0000E94431E9B01AC01C201B1010E94FF1F7C
:1033D000DBCF8BE190E0FFCC84E891E00E94AE006F
:1033E00060914D0470E06F5F7F4F41CE8CE190E0C3
:1033F000F2CC8CE891E00E94AE0080910B04909199
:103400000C04DC01ED91FC910190F081E02D66E06F
:10341000DACE8DE190E0DFCC8EE891E00E94AE0044
:10342000E0914D04F0E0EE0FFF1FE55BFB4F0190D4
:10343000F081E02D5ACF10932C0400932B0482E0EE
:1034400080933A048FE190E0A1CEE0914D04F0E04A
:10345000EE0FFF1FE55BFB4F0190F081E02D8081B7
:1034600090E0909327048093260486E891E00E94E0
:10347000AE00F12CE12C86E0D82E80910B049091C7
:103480000C04E0914D04F0E0EE0FFF1FE55BFB4FF5
:10349000A081B1814091260450912704D49E9001CF
:1034A000D59E300D1124A20FB31F9D012E0D3F1D7F
:1034B000DC01ED91FC910190F081E02DD901119694
:1034C0006C910995BFEFEB1AFB0AE4E0EE16F104EC
:1034D000A1F647CB10932C0400932B0480E290E0DC
:1034E00055CEE0915004F0E0EE0FFF1FE25BFB4F82
:1034F000808191810E94A40A82E092E00E94AE0045
:10350000E0915004F0E0EE0FFF1FE25BFB4F0190F3
:10351000F081E02D65817681878190850E948D0004
:10352000E0915004F0E0EE0FFF1FE25BFB4F0190D3
:10353000F081E02DC2CC10932C0400932B0482E088
:1035400080933A0422E230E030932E0420932D043D
:1035500021CE86E092E00E94AE00E0915004F0E0BF
:10356000EE0FFF1FE25BFB4F0190F081E02D6589BC
:1035700076898789908D08CF10932C0400932B04B3
:1035800083E290E003CE88E092E00E94AE00E091FA
:103590005004F0E0EE0FFF1FE25BFB4F0190F08163
:1035A000E02D818D928D9ACDA4E2B0E0B0932C04F1
:1035B000A0932B04D6CAE0915004F0E0EE0FFF1F59
:1035C000E25BFB4F0190F081E02D758664861786E3
:1035D0001686128E118E81E08187C3CAE5E2F0E083
:1035E000F0932C04E0932B04BCCA82E792E00E9483
:1035F000AE0060915304F6CE10932C0400932B047C
:1036000082E080933A0426E230E09ECF84E792E0A5
:103610000E94AE00E0915304F0E0EE0FFF1FEF5A5E
:10362000FB4F80819181DC01ED91FC910084F1855B
:10363000E02D0995A9CEE0915304F0E0EE0FFF1FB5
:10364000EF5AFB4F80819181DC01ED91FC91028466
:10365000F385E02D099585CA3197E632F10508F02A
:1036600053C0EB5CF44E0C94E1205B1B841B801B6D
:10367000BD1BF71B841B841B841B841B841B841BA6
:10368000841B841B841BFA1B201C491C6B1C841B81
:10369000841B841B8B1C971C9E1CCC1CFA1C061DB7
:1036A000141D181D841B221D571D8A1D8D1DB41D40
:1036B000E21DF11DF51D909139046901F12CE12CF9
:1036C000092E04C0CC0CDD1CEE1CFF1C0A94D2F7A2
:1036D0004091400450914104609142047091430430
:1036E000C40ED51EE61EF71EC0924004D0924104BF
:1036F000E0924204F0924304985F9093390404C02E
:10370000232B79F40E949A0180913A04882309F4CA
:1037100092C290913B0491118EC2815080933A04E1
:1037200020CA8FEF860F80933A0481E080933B0498
:1037300080914404882341F3E0911F04F091200418
:103740003097C1F08091450490914604A0914704C0
:10375000B09148046C017D012FEFC21AD20AE20A2F
:10376000F20AC0924504D0924604E0924704F092D7
:103770004804099510924404C7CFC901B0E0A0E005
:103780002091390404C0880F991FAA1FBB1F2A95D6
:10379000D2F74091400450914104609142047091ED
:1037A0004304840F951FA61FB71F80934004909376
:1037B0004104A0934204B093430480910B04909180
:1037C0000C04DC01ED91FC910680F781E02D099558
:1037D000409140045091410460914204709143042F
:1037E00080910B0490910C040E943A018DCF80933C
:1037F00018048ACF80930D04882309F485CF0E9492
:10380000CA000E94FA0080910D0480FF7DCF0E94C3
:103810006E03C0901004D0901104E0901204F09058
:103820001304DC01CB018C0D9D1DAE1DBF1D8093CB
:10383000140490931504A0931604B093170464CF56
:10384000C901B0E0A0E02091390404C0880F991F9D
:10385000AA1FBB1F2A95D2F7409140045091410402
:103860006091420470914304840F951FA61FB71FF7
:103870008093400490934104A0934204B093430486
:103880008093100490931104A0931204B093130436
:103890003BCF909139046901F12CE12C092E04C031
:1038A000CC0CDD1CEE1CFF1C0A94D2F740914504A1
:1038B000509146046091470470914804C40ED51E8F
:1038C000E61EF71EC0924504D0924604E0924704DB
:1038D000F092480411CFE0911F04F091200430973A
:1038E00009F412CF8091450490914604A0914704B9
:1038F000B09148046C017D012FEFC21AD20AE20A8E
:10390000F20AC0924504D0924604E0924704F09235
:1039100048040995F9CE8091490490914A04615078
:103920006A3010F4DC016C930E947E0AEDCEA09107
:103930004904B0914A0461506C93E6CEC901B0E0ED
:10394000A0E02091390404C0880F991FAA1FBB1F53
:103950002A95D2F74091400450914104609142046D
:1039600070914304840F951FA61FB71F80934004D6
:1039700090934104A0934204B0934304E09149041E
:10398000F0914A04408124E0429FA0011124E40FF9
:10399000F51F92838183B8CEC901B0E0A0E02091E9
:1039A000390404C0880F991FAA1FBB1F2A95D2F79C
:1039B000409140045091410460914204709143044D
:1039C000840F951FA61FB71F809340049093410456
:1039D000A0934204B0934304E0914904F0914A0457
:1039E000408134E0439FA0011124E40FF51F94832C
:1039F00083838ACEE0904904F0904A040E94B80183
:103A0000AB01BC01C7010E942D0A7ECE61506093BC
:103A10004D04E62FF0E0EE0FFF1FE55BFB4F8081CA
:103A200091810E94C00970CE615060934D046CCEAC
:103A3000E0914D04F0E0EE0FFF1FE55BFB4FA0812E
:103A4000B18179CFC901B0E0A0E02091390404C070
:103A5000880F991FAA1FBB1F2A95D2F740914004D7
:103A6000509141046091420470914304840F951F6A
:103A7000A61FB71F8093400490934104A093420473
:103A8000B0934304E0914D04F0E0EE0FFF1FE55BBF
:103A9000FB4F0190F081E02D208146E0249FE00D56
:103AA000F11D112481839283A383B4832DCEC90198
:103AB000B0E0A0E02091390404C0880F991FAA1F2C
:103AC000BB1F2A95D2F74091400450914104609168
:103AD000420470914304840F951FA61FB71F809363
:103AE000400490934104A0934204B0934304E091B6
:103AF0004D04F0E0EE0FFF1FE55BFB4F0190F081FE
:103B0000E02D208136E0239FE00DF11D11249683E6
:103B10008583FACD80935004F7CDE0915004F0E016
:103B2000EE0FFF1FE25BFB4FE080F1800E94B801C7
:103B3000D70155966D937D938D939C93589781E013
:103B400019968C93E0915004F0E0EE0FFF1FE25BBA
:103B5000FB4F0190F081E02D7586648617861686EE
:103B6000128E118E8187D0CDC901B0E0A0E02091E6
:103B7000390404C0880F991FAA1FBB1F2A95D2F7CA
:103B8000409140045091410460914204709143047B
:103B9000840F951FA61FB71F809340049093410484
:103BA000A0934204B0934304E0915004F0E0EE0F80
:103BB000FF1FE25BFB4F0190F081E02D928F818F20
:103BC0001186A2CDE0915004F0E0EE0FFF1FE25B02
:103BD000FB4F0190F081E02D81E0232B19F680E06E
:103BE000C1CF6150609353048FCDE0915304F0E056
:103BF000EE0FFF1FEF5AFB4FE080F180D701ED91F0
:103C0000FC91C680D7800E94B801AB01BC01C701FE
:103C1000F6010995E0915304F0E0EE0FFF1FEF5A13
:103C2000FB4F80819181DC01ED91FC910284F38551
:103C3000E02D099569CDEBE2F4E0828193818193D7
:103C4000919327E334E02E173F07B9F710923B0416
:103C50000C94B1150E94930320910E0430910F042F
:103C6000620F731F811D911D60933C0470933D048E
:103C700080933E0490933F040C94C6150E94801ECE
:103C800008F481E00895E89409C097FB3EF490950C
:103C90008095709561957F4F8F4F9F4F9923A9F025
:103CA000F92F96E9BB279395F695879577956795B4
:103CB000B795F111F8CFFAF4BB0F11F460FF1BC0F8
:103CC0006F5F7F4F8F4F9F4F16C0882311F096E98B
:103CD00011C0772321F09EE8872F762F05C0662339
:103CE00071F096E8862F70E060E02AF09A95660FF2
:103CF000771F881FDAF7880F9695879597F90895AB
:103D0000990F0008550FAA0BE0E8FEEF16161706EC
:103D1000E807F907C0F012161306E407F50798F054
:103D2000621B730B840B950B39F40A2661F0232B6D
:103D3000242B252B21F408950A2609F4A140A695E9
:103D40008FEF811D811D08950E94B71E0C94281FBE
:103D50000E941A1F38F00E94211F20F0952311F0B5
:103D60000C94111F0C94171F11240C945C1F0E94BB
:103D7000391F70F3959FC1F3950F50E0551F629F57
:103D8000F001729FBB27F00DB11D639FAA27F00DB4
:103D9000B11DAA1F649F6627B00DA11D661F829FDB
:103DA0002227B00DA11D621F739FB00DA11D621FC0
:103DB000839FA00D611D221F749F3327A00D611DDD
:103DC000231F849F600D211D822F762F6A2F1124BF
:103DD0009F5750409AF0F1F088234AF0EE0FFF1FF2
:103DE000BB1F661F771F881F91505040A9F79E3F49
:103DF000510580F00C94111F0C945C1F5F3FE4F39D
:103E0000983ED4F3869577956795B795F795E7959E
:103E10009F5FC1F7FE2B880F911D9695879597F9A7
:103E2000089597F99F6780E870E060E008959FEF3C
:103E300080EC089500240A94161617061806090641
:103E4000089500240A941216130614060506089510
:103E5000092E0394000C11F4882352F0BB0F40F498
:103E6000BF2B11F460FF04C06F5F7F4F8F4F9F4FD8
:103E7000089557FD9058440F551F59F05F3F71F05A
:103E80004795880F97FB991F61F09F3F79F08795C1
:103E90000895121613061406551FF2CF4695F1DF4A
:103EA00008C0161617061806991FF1CF86957105DA
:103EB000610508940895E894BB2766277727CB010E
:103EC00097F90895F999FECF92BD81BDF89A992787
:103ED00080B50895262FF999FECF1FBA92BD81BDF6
:103EE00020BD0FB6F894FA9AF99A0FBE019608957C
:103EF0000E94831FA59F900DB49F900DA49F800DDD
:103F0000911D11240895A29FB001B39FC001A39FEA
:103F1000700D811D1124911DB29F700D811D112402
:103F2000911D08955058BB27AA270E94AA1F0C94E0
:103F3000281F0E941A1F38F00E94211F20F039F418
:103F40009F3F19F426F40C94171F0EF4E095E7FB3D
:103F50000C94111FE92F0E94391F58F3BA176207FA
:103F600073078407950720F079F4A6F50C945B1F7E
:103F70000EF4E0950B2EBA2FA02D0B01B901900184
:103F80000C01CA01A0011124FF27591B99F0593FC8
:103F900050F4503E68F11A16F040A22F232F342F10
:103FA0004427585FF3CF469537952795A795F0405E
:103FB0005395C9F77EF41F16BA0B620B730B840B73
:103FC000BAF09150A1F0FF0FBB1F661F771F881F2B
:103FD000C2F70EC0BA0F621F731F841F48F4879583
:103FE00077956795B795F7959E3F08F0B0CF939575
:103FF000880F08F09927EE0F9795879508950E94EE
:1040000013200C94281F0E94211F58F00E941A1F91
:1040100040F029F45F3F29F00C94111F51110C94CA
:104020005C1F0C94171F0E94391F68F39923B1F38A
:10403000552391F3951B550BBB27AA2762177307CE
:10404000840738F09F5F5F4F220F331F441FAA1F62
:10405000A9F335D00E2E3AF0E0E832D0915050401E
:10406000E695001CCAF72BD0FE2F29D0660F771FCC
:10407000881FBB1F261737074807AB07B0E809F0B2
:10408000BB0B802DBF01FF2793585F4F3AF09E3F37
:10409000510578F00C94111F0C945C1F5F3FE4F302
:1040A000983ED4F3869577956795B795F7959F5F7A
:1040B000C9F7880F911D9695879597F90895E1E0C6
:1040C000660F771F881FBB1F621773078407BA0725
:1040D00020F0621B730B840BBA0BEE1F88F7E09580
:1040E00008950E94411F88F09F5798F0B92F992793
:1040F000B751B0F0E1F0660F771F881F991F1AF0D3
:10410000BA95C9F714C0B13091F00E945B1FB1E0BD
:1041100008950C945B1F672F782F8827B85F39F0BC
:10412000B93FCCF3869577956795B395D9F73EF46B
:1041300090958095709561957F4F8F4F9F4F089513
:10414000A1E21A2EAA1BBB1BFD010DC0AA1FBB1F9B
:10415000EE1FFF1FA217B307E407F50720F0A21B0D
:10416000B30BE40BF50B661F771F881F991F1A947A
:1041700069F760957095809590959B01AC01BD01A4
:10418000CF010895052E97FB1EF400940E94D920BC
:1041900057FD07D00E94A02007FC03D04EF40C94DA
:1041A000D92050954095309521953F4F4F4F5F4F07
:1041B000089590958095709561957F4F8F4F9F4F93
:1041C0000895EE0FFF1F0590F491E02D09940F93D1
:1041D0001F93CF93DF938230910510F482E090E03B
:1041E000E0915604F091570430E020E0B0E0A0E008
:1041F000309799F42115310509F44AC0281B390B71
:1042000024303105D8F58A819B816115710589F1CA
:10421000FB0193838283FE0111C0408151810281A1
:10422000138148175907E0F04817590799F4109778
:1042300061F012960C93129713961C933296CF014D
:10424000DF91CF911F910F91089500935604109321
:104250005704F4CF2115310551F04217530738F0B8
:10426000A901DB019A01BD01DF01F801C1CFEF0116
:10427000F9CF9093570480935604CDCFFE01E20FFF
:10428000F31F819391932250310939832883D7CF2B
:104290002091540430915504232B41F420910301C3
:1042A000309104013093550420935404209101016E
:1042B000309102012115310541F42DB73EB74091EF
:1042C000050150910601241B350BE0915404F09137
:1042D0005504E217F307A0F42E1B3F0B28173907EC
:1042E00078F0AC014E5F5F4F2417350748F04E0F52
:1042F0005F1F5093550440935404819391939FCF33
:10430000F0E0E0E09CCFCF93DF930097E9F0FC0171
:10431000329713821282A0915604B0915704ED0196
:1043200030E020E01097A1F420813181820F931FAB
:1043300020915404309155042817390709F061C0C1
:10434000F0935504E0935404DF91CF910895EA016E
:10435000CE17DF07E8F54A815B819E0141155105C3
:10436000B1F7E901FB83EA8349915991C40FD51F45
:10437000EC17FD0761F4808191810296840F951FEF
:10438000E90199838883828193819B838A83F0E00A
:10439000E0E012968D919C9113970097B9F52D91BD
:1043A0003C911197CD010296820F931F20915404E6
:1043B000309155042817390739F6309751F5109286
:1043C000570410925604B0935504A0935404BCCFE4
:1043D000D383C28340815181840F951FC817D907A9
:1043E00061F44E5F5F4F88819981480F591F518357
:1043F00040838A819B81938382832115310509F053
:10440000B0CFF0935704E09356049ECFFD01DC013A
:10441000C0CF13821282D7CF81E090E0F8940C9441
:104420001122F894FFCFFF000058048000FF00FF26
:104430000000FF00FFFF00FF00FFFF00FF00000083
:104440000000005F07BF06EC06AC071D07FB060F68
:1044500007000000005010DD07D707D207CD07CCBA
:104460000700000000E50DDD0D2210D50DC50FCDB4
:104470000D810D790D550D483A5C4D7920447269D6
:1044800076655C56756C696E74757320536F6674CF
:1044900077617265202844726577295C4669726D80
:1044A00077617265202D204F6D6E695472616B5C6F
:1044B0004F6D6E695472616B5F4E6F7365706F6B99
:1044C000655F4669726D776172655C4F6D6E6954A8
:1044D00072616B5F4E6F7365706F6B655F56335CB7
:1044E0004F6D6E695472616B5F4E6F7365706F6B69
:1044F000655F56332E696E6F004175672032382034
:0E450000323032340031323A35373A3134003D
:107E0000112484B714BE81FFF0D085E080938100F7
:107E100082E08093C00088E18093C10086E0809377
:107E2000C20080E18093C4008EE0C9D0259A86E02C
:107E300020E33CEF91E0309385002093840096BBD3
:107E4000B09BFECF1D9AA8958150A9F7CC24DD24C4
:107E500088248394B5E0AB2EA1E19A2EF3E0BF2EE7
:107E6000A2D0813461F49FD0082FAFD0023811F036
:107E7000013811F484E001C083E08DD089C08234E0
:107E800011F484E103C0853419F485E0A6D080C0E4
:107E9000853579F488D0E82EFF2485D0082F10E0AE
:107EA000102F00270E291F29000F111F8ED06801E7
:107EB0006FC0863521F484E090D080E0DECF843638
:107EC00009F040C070D06FD0082F6DD080E0C81688
:107ED00080E7D80618F4F601B7BEE895C0E0D1E017
:107EE00062D089930C17E1F7F0E0CF16F0E7DF06D8
:107EF00018F0F601B7BEE89568D007B600FCFDCFD4
:107F0000A601A0E0B1E02C9130E011968C91119780
:107F100090E0982F8827822B932B1296FA010C0160
:107F200087BEE89511244E5F5F4FF1E0A038BF0790
:107F300051F7F601A7BEE89507B600FCFDCF97BE46
:107F4000E89526C08437B1F42ED02DD0F82E2BD052
:107F50003CD0F601EF2C8F010F5F1F4F84911BD097
:107F6000EA94F801C1F70894C11CD11CFA94CF0C13
:107F7000D11C0EC0853739F428D08EE10CD085E9AC
:107F80000AD08FE07ACF813511F488E018D01DD067
:107F900080E101D065CF982F8091C00085FFFCCF94
:107FA0009093C60008958091C00087FFFCCF809118
:107FB000C00084FD01C0A8958091C6000895E0E648
:107FC000F0E098E1908380830895EDDF803219F02E
:107FD00088E0F5DFFFCF84E1DECF1F93182FE3DFCA
:107FE0001150E9F7F2DF1F91089580E0E8DFEE27F6
:047FF000FF270994CA
:027FFE00040479
:00000001FF
