:100000000C9477000C949F000C949F000C949F001C
:100010000C949F000C949F000C949F000C9450151E
:100020000C949F000C949F000C949F000C949F00D4
:100030000C949F000C949F000C949F000C949F00C4
:100040000C9406150C949F000C94D2150C94AC15CE
:100050000C949F000C949F000C949F000C949F00A4
:100060000C9404160C949F0007634236B79BD8A7E4
:100070001A39685618AEBAAB558C1D3CB7CC5763CD
:10008000BD6DEDFD753EF6177231BF000000803F7B
:1000900000000000230026002900020000000024C8
:1000A0000027002A0000000000250028002B000483
:1000B000040404040404040202020202020303030F
:1000C0000303030102040810204080010204081009
:1000D00020010204081020000000080002010000B6
:1000E0000304070000000000000000002317112493
:1000F0001FBECFEFD8E0DEBFCDBF25E0AEE4B2E05B
:1001000001C01D92A830B207E1F712E0A0E0B1E013
:10011000E6E0F9E502C005900D92AE34B107D9F7DB
:1001200010E0C7E7D0E004C02197FE010E94512BE8
:10013000C637D107C9F70E94AD180C94812C0C94D6
:100140000000CF92DF92EF92FF92CF93DF93EC010A
:100150006A017B01E889F98982E08083C11481EE1C
:10016000D806E104F104A1F060E079E08DE390E0CD
:10017000A70196010E94102B215031094109510914
:100180005695479537952795211580E1380798F0C2
:10019000E889F989108260E874E88EE190E0A701AF
:1001A00096010E94102B21503109410951095695A1
:1001B000479537952795EC85FD853083EE85FF853E
:1001C0002083188EEC89FD8986E08083EA89FB898B
:1001D000808180618083EA89FB8980818860808357
:1001E000EA89FB89808180688083EA89FB89808134
:1001F0008F7D8083DF91CF91FF90EF90DF90CF9044
:100200000895E0EBF4E014A613A616A615A610AA0E
:1002100017A612AA11AA14AA13AA16AA15AA10AEF2
:1002200017AA14AE15AE16AE17AE12A612AE13AEC6
:100230001092F4041092F0041092F1041092F2045F
:100240001092F30411AE0895E0EBF4E086A197A1BB
:10025000B0E0A0E021AD04C0880F991FAA1FBB1F0A
:100260002A95D2F7E0EFF4E04081518162817381F9
:10027000840F951FA61FB71F80839183A283B3832A
:10028000682F792F8A2F9B2F0895833081F028F4CF
:10029000813099F08230A9F008958730A9F0883034
:1002A000C9F08430B1F4809180008F7D03C08091CB
:1002B00080008F7780938000089584B58F7784BD08
:1002C000089584B58F7DFBCF8091B0008F778093A8
:1002D000B00008958091B0008F7DF9CF1F93CF9328
:1002E000DF93282F30E0F901E952FF4F8491F901A3
:1002F000ED53FF4FD491F901E155FF4FC491CC2349
:10030000A9F0162F81110E944501EC2FF0E0EE0FAD
:10031000FF1FEB55FF4FA591B4918FB7F894EC9167
:10032000111108C0D095DE23DC938FBFDF91CF91F0
:100330001F910895DE2BF8CFCF93DF9390E0FC015F
:10034000ED53FF4F249181559F4FFC0184918823E9
:10035000D1F090E0880F991FFC01E556FF4FA59161
:10036000B491FC01EB55FF4FC591D49161110EC0C2
:100370009FB7F8948C91E22FE0958E238C9328817F
:10038000E223E8839FBFDF91CF9108958FB7F89460
:10039000EC91E22BEC938FBFF6CF8E3008F08E50AD
:1003A0008770806480937C0080917A008064809361
:1003B0007A0080917A0086FDFCCF80917800909140
:1003C000790008953FB7F8948091AF029091B00200
:1003D000A091B102B091B20226B5A89B05C02F3FF3
:1003E00019F00196A11DB11D3FBFBA2FA92F982F5B
:1003F0008827BC01CD01620F711D811D911D42E056
:10040000660F771F881F991F4A95D1F70895CF93DC
:10041000DF93CDB7DEB7CA59D1090FB6F894DEBF66
:100420000FBECDBF382F8AE9EFE9F1E0DE0111966A
:1004300001900D928A95E1F7DE01A456BF4FEAE9DB
:100440008E918C3511F0E150D9F7EF5F89E98E1B61
:1004500041E050E04C0F5D1F4E0F511DFA01232F5C
:10046000A32FB92F9A2F921B981718F491919D934F
:10047000F9CFC656DF4F0FB6F894DEBF0FBECDBF23
:10048000DF91CF910895CF93DF93CDB7DEB72C974F
:100490000FB6F894DEBF0FBECDBF2CE0E9E3F2E06B
:1004A000DE01119601900D922A95E1F7FE01319639
:1004B0009C01255F3F4F4191DC014D93CD01A21777
:1004C000B307C9F78BE02C960FB6F894DEBF0FBECA
:1004D000CDBFDF91CF910895CF93DF93CDB7DEB736
:1004E00029970FB6F894DEBF0FBECDBF29E0E5E433
:1004F000F2E0DE01119601900D922A95E1F7FE01DE
:1005000031969C01285F3F4F4191DC014D93CD0115
:10051000A217B307C9F788E029960FB6F894DEBF93
:100520000FBECDBFDF91CF91089585E10E94CD012F
:10053000BC01990F880B990B0E94AB2720E030EC8F
:100540004FE754E40E94652920E030E040E251E4A6
:100550000E940A2820E030E040E05FE30E94F92892
:100560000E94182A862F08959091000189130BC0CC
:10057000EAE9F0E0E4919FEF90930001E13049F067
:1005800028F0E23061F060E00C946E0110926E0091
:10059000FACF90916F009D7F90936F00F4CF909170
:1005A00070009D7F9093700091E09093B0009091C7
:1005B000B100987F94609093B1001092B300E3CFA4
:1005C0004F925F926F927F928F929F92AF92BF9263
:1005D000CF92DF92EF92FF920F931F93CF93DF930F
:1005E00000D000D01F92CDB7DEB78B0129013A01B0
:1005F000909100018917C9F09F3F09F47EC00F90C8
:100600000F900F900F900F90DF91CF911F910F914E
:10061000FF90EF90DF90CF90BF90AF909F908F9022
:100620007F906F905F904F900895EAE9F0E0949189
:100630009D8397FDE4CF61E00E949C018D8188231A
:1006400021F09D81923009F04AC14801B12CA12CC2
:1006500060E072E18AE790E0A50198010E94322BE8
:1006600029833A834B835C8369017A0181E0C81A4C
:10067000D108E108F1089FEFC916D104E104F104A3
:1006800009F00CF401C160E472E48FE090E0A50190
:1006900098010E94322B69017A0181E0C81AD108C1
:1006A000E108F1089D81923009F0A2C08FEFC816D1
:1006B000D104E104F10409F00CF4E6C160E970ED45
:1006C00083E090E0A50198010E94322B69017A0134
:1006D00091E0C91AD108E108F1088FEFC816D104DA
:1006E000E104F10411F00CF07FC183E09091B100BE
:1006F000987F892B8093B100CFC080930001EAE9F5
:10070000F0E094919D839F3F09F479CF913041F1BE
:1007100050F0923009F446C09D8197FD70CF61E0A2
:100720000E949C018ECF14BC15BC94B5926094BD00
:1007300095B5916095BD282F30E0F901E155FF4F47
:10074000E491F0E0EE0FFF1FEB55FF4F4591549100
:10075000F901ED53FF4FE491E0939A021D826BCFB4
:100760001092800010928100909181009860909387
:10077000810090918100916090938100282F30E05A
:10078000F901E155FF4FE491F0E0EE0FFF1FEB554B
:10079000FF4F45915491F901ED53FF4FE491E093E0
:1007A000990249CF1092B0001092B1009091B00020
:1007B00092609093B0009091B10091609093B100DD
:1007C000282F30E0F901E155FF4FE491F0E0EE0F02
:1007D000FF1FEB55FF4F459154915093A402409356
:1007E000A302F901ED53FF4FE491E093A50223CF5B
:1007F0009FEFC916D104E104F10409F00CF46DC0B7
:1008000068E478EE81E090E0A50198010E94322B27
:1008100069017A0181E0C81AD108E108F1089D81D7
:10082000992309F4FAC08FEFC816D104E104F1044A
:1008300011F00CF0FBC0EFC064E274EF80E090E0D8
:10084000A50194010E94322B69017A0181E0C81A46
:10085000D108E108F10885E09FEFC916D104E10451
:10086000F10409F008F442CF62E17AE780E090E019
:10087000A50194010E94322B69017A0181E0C81A16
:10088000D108E108F108E5C081E09D8191112ECFEA
:1008900095B5987F892B85BD2FEF3FEFA9014114B6
:1008A00051046104710409F043C09D81913009F441
:1008B0005EC0923009F46DC09111A1CEC7BC2093E7
:1008C0009F023093A0024093A1025093A202809114
:1008D0006E00826080936E0092CE82E0D6CFB12C03
:1008E000A12C60E072E18AE790E0A50198010E94E6
:1008F000322B69017A0181E0C81AD108E108F108B8
:10090000C114D10491E0E906F10404F591E08D8170
:10091000813011F680918100887F892B809381003E
:100920002FEF3FEFA9014114510461047104F9F064
:10093000D801AA0FBB1FA30192010E94DE2828EE56
:1009400033E040E050E00E94102BAFCF68E478EE37
:1009500081E090E0A50198010E94322B69017A01A3
:1009600081E0C81AD108E108F10893E0D0CFD09215
:100970008900C092880020939B0230939C02409390
:100980009D0250939E0280916F00826080936F0061
:1009900036CEC092B3002093A6023093A7024093B4
:1009A000A8025093A9028091700082608093700029
:1009B00026CE84E09FEFC916D104E104F10409F0CA
:1009C00008F466CFC980DA80EB80FC808AE0F59479
:1009D000E794D794C7948A95D1F781E0C81AD108D3
:1009E000E108F10885E054CF68E478EE81E090E01A
:1009F000A50198010E94322B69017A0181E0C81A91
:100A0000D108E108F1089FEFC916D104E104F1040F
:100A100011F00CF011CF84E069CE83E09FEFC9168E
:100A2000D104E104F10409F00CF432CF62E17AE779
:100A300080E090E0A50194010E94322B69017A01C7
:100A400081E0C81AD108E108F1089D81992309F4D1
:100A5000B0CF86E09FEFC916D104E104F10409F09C
:100A600008F444CEC980DA80EB80FC809AE0F594EB
:100A7000E794D794C7949A95D1F781E0C81AD10822
:100A8000E108F10887E032CE82E030CEAF92BF922B
:100A9000CF92DF92EF92FF920F931F93CF93DF934A
:100AA0006C017B018B01040F151FEB015E01AE1879
:100AB000BF08C017D10759F06991D601ED91FC919B
:100AC0000190F081E02DC6010995892B79F7C501C8
:100AD000DF91CF911F910F91FF90EF90DF90CF901A
:100AE000BF90AF900895FC01538D448D252F30E0C9
:100AF000842F90E0821B930B541710F0CF9608952B
:100B000001970895FC01918D828D981761F0A28D57
:100B1000AE0FBF2FB11D5D968C91928D9F5F9F731D
:100B2000928F90E008958FEF9FEF0895FC01918DD3
:100B3000828D981731F0828DE80FF11D858D90E040
:100B400008958FEF9FEF0895FC01918D228D892FDD
:100B500090E0805C9F4F821B91098F7399270895C5
:100B600083E194E00E94A40521E0892B09F420E0B0
:100B7000822F089580E090E0892B29F00E94B00533
:100B800081110C9400000895FC01A48DA80FB92FC9
:100B9000B11DA35ABF4F2C91848D90E001968F73A5
:100BA0009927848FA689B7892C93A089B1898C91C4
:100BB000837080648C93938D848D981306C0028813
:100BC000F389E02D80818F7D80830895EF92FF92DD
:100BD0000F931F93CF93DF93EC0181E0888F9B8D60
:100BE0008C8D98131AC0E889F989808185FF15C01A
:100BF0009FB7F894EE89FF896083E889F98980813D
:100C00008370806480839FBF81E090E0DF91CF910B
:100C10001F910F91FF90EF900895F62E0B8D10E02D
:100C20000F5F1F4F0F731127E02E8C8D8E110CC09C
:100C30000FB607FCFACFE889F989808185FFF5CFE7
:100C4000CE010E94C405F1CFEB8DEC0FFD2FF11DFD
:100C5000E35AFF4FF0829FB7F8940B8FEA89FB8924
:100C600080818062CFCFCF93DF93EC01888D882382
:100C7000B9F0AA89BB89E889F9898C9185FD03C0FF
:100C8000808186FD0DC00FB607FCF7CF8C9185FFE4
:100C9000F2CF808185FFEDCFCE010E94C405E9CF60
:100CA000DF91CF91089520917402260F3327331FCF
:100CB00021323105ECF42091F902FC0190E080E052
:100CC000243069F082E00895A09174022191AC0172
:100CD0004E5A5D4FA40FB52FB11D2C930196861768
:100CE00098F380917402680F6093740280E0089515
:100CF00081E008951092F90281E08093F802109249
:100D0000D30261E082E10E946E0161E083E10E9412
:100D10006E01E9EBF0E080818E7F808380818D7FA2
:100D2000808388E48093B80085E48093BC000895B4
:100D3000CF93DF9391E0909351028823B9F0C09153
:100D4000B800D091BA008091BC008A7B8093BC002F
:100D500060E082E10E946E0160E083E10E946E012A
:100D60000E947A06D093BA00C093B800DF91CF9169
:100D700008958F929F92AF92BF92CF92DF92EF929F
:100D8000FF920F931F93CF93DF93D0912203D13221
:100D900008F0D7C0182FC09121030E94E2016B0117
:100DA0007C018091F90281116BC082E08093F9028D
:100DB0001093F8028FEF8093F7021092F602D0930F
:100DC000F502A1E0B3E0E5EDF2E080E0D81391C0D8
:100DD0001092D4028091D402CC0FC82BC093D402BD
:100DE0008091D302813009F088C01092D3020E9412
:100DF000E2016B017C018091D4028093BB00809161
:100E0000FB029091FC02A091FD02B091FE02892BA1
:100E10008A2B8B2BA1F00E94E2010091FB02109122
:100E2000FC022091FD023091FE026C197D098E09B1
:100E30009F09061717072807390708F442C0809151
:100E4000BC0083FDD8CF85EC8093BC000E94E201FA
:100E50006B017C018091F902823009F450C08091CD
:100E6000F7028F3F09F46FC08091F702803209F4D6
:100E70006CC08091F702803309F469C084E026C019
:100E80008091FB029091FC02A091FD02B091FE02C4
:100E9000892B8A2B8B2B09F484CF0E94E20180904E
:100EA000FB029090FC02A090FD02B090FE026C1933
:100EB0007D098E099F0986169706A806B90608F0CF
:100EC00070CF8091FA020E94980685E0109200038C
:100ED000109222031092FF02DF91CF911F910F9188
:100EE000FF90EF90DF90CF90BF90AF909F908F904A
:100EF00008959D9191938F5F69CF85EEA5CF8091E5
:100F0000FB029091FC02A091FD02B091FE02892BA0
:100F10008A2B8B2B09F49ECF0E94E2010091FB02E9
:100F20001091FC022091FD023091FE026C197D09A6
:100F30008E099F09061717072807390708F08ACF77
:100F4000C0CF81E0C3CF80E0C1CF82E0BFCF83E0DC
:100F5000BDCFCF92DF92EF92FF920F931F93CF936B
:100F6000DF93D82FC62F613208F098C00E94E201AB
:100F70006B017C018091F90281116BC081E080934B
:100F8000F9028093F8029FEF9093F7021092F60215
:100F90009C0F9093F5028093D4028091D402DD0FD0
:100FA000D82BD093D4028091D302813009F078C03D
:100FB0001092D3020E94E2016B017C018091D40265
:100FC0008093BB008091FB029091FC02A091FD02F6
:100FD000B091FE02892B8A2B8B2BA1F00E94E2019B
:100FE0000091FB021091FC022091FD023091FE0263
:100FF0006C197D098E099F090617170728073907FD
:1010000008F448C08091BC0083FDD8CF85EC809364
:10101000BC000E94E2016B017C018091F9028130E9
:1010200009F440C08091F6028C1710F4C091F602CA
:10103000E5EDF2E0A3EBB2E080E08C1355C08C2F1D
:10104000DF91CF911F910F91FF90EF90DF90CF90A4
:1010500008958091FB029091FC02A091FD02B09155
:10106000FE02892B8A2B8B2B09F484CF0E94E2018C
:101070000091FB021091FC022091FD023091FE02D2
:101080006C197D098E099F0906171707280739076C
:1010900008F070CF8091FA020E949806C0E0CFCF8E
:1010A00085EEB5CF8091FB029091FC02A091FD02EC
:1010B000B091FE02892B8A2B8B2B09F4AECF0E94B4
:1010C000E2010091FB021091FC022091FD0230919F
:1010D000FE026C197D098E099F090617170728075C
:1010E000390708F09ACFD6CF91919D938F5FA5CF06
:1010F000089508950895E091500280914F02E817F5
:1011000030F4F0E0ED54FD4F808190E008958FEFD2
:101110009FEF08959091500280914F022FEF3FEF83
:10112000981748F4E92FF0E0ED54FD4F208130E0AE
:101130009F5F90935002C901089580914F02909152
:101140005002891B990B0895CF92DF92EF92FF9284
:101150000F931F93CF93DF937C01CB018A012091E2
:10116000FF02222389F0EB016B01C40ED51ECC15C2
:10117000DD0569F06991D701ED91FC910190F08155
:10118000E02DC7010995F3CF642F0E945306C801D3
:10119000DF91CF911F910F91FF90EF90DF90CF9053
:1011A0000895CF93DF931F92CDB7DEB76983209167
:1011B000FF022223F9F020912203203258F021E08F
:1011C00030E0FC013383228390E080E00F90DF91D8
:1011D000CF91089580910003E82FF0E0EF5FFC4F7E
:1011E000998190838F5F809300038093220381E035
:1011F00090E0ECCF61E0CE0101960E945306F7CF5C
:1012000090E080E00895CF93DF93EC016B816170F3
:1012100089810E946E016B8162708A81DF91CF911A
:101220000C946E01FC01608971898289938908950B
:10123000FC0160897189828993890895FC01648524
:10124000758586859785089560E070E080E89FE366
:10125000089560E070E080E89FE3089590E080E00A
:10126000089560E070E0CB01089580E00895AF92AA
:10127000BF92CF92DF92EF92FF920F931F93CF9383
:10128000DF9300D000D0CDB7DEB7DC0197962D916B
:101290003C91232B61F17B016C015E01B5E0AB0E4B
:1012A000B11C8E010F5F1F4FE01AF10AD60197960D
:1012B000ED91FC91C701800F911F0995F801819371
:1012C0008F01EA15FB0591F769817A818B819C81F9
:1012D0000F900F900F900F90DF91CF911F910F9172
:1012E000FF90EF90DF90CF90BF90AF90089560E0B7
:1012F00070E0CB01EDCFAF92BF92CF92DF92EF9231
:10130000FF920F931F93CF93DF9300D000D0CDB700
:10131000DEB7DC019596ED91FC91EF2BE9F06C01C5
:1013200029833A834B835C835E01B5E0AB0EB11C2D
:101330008E010F5F1F4F7B01E01AF10AC701800F7A
:10134000911FF80161918F01D6019596ED91FC9165
:1013500009950A151B0591F70F900F900F900F90AC
:10136000DF91CF911F910F91FF90EF90DF90CF9081
:10137000BF90AF9008952F923F924F925F926F92DD
:101380007F928F929F92AF92BF92CF92DF92EF9215
:10139000FF920F931F93CF93DF9300D000D01F9243
:1013A000CDB7DEB79D838C834B01DC0157968D91C1
:1013B0009C91892B09F46DC0AA24AA94BA2C10E040
:1013C00000E0EC81FD81C788D08CD6011A96ED90A3
:1013D000FC901B97ED91FC91848195819A83898380
:1013E000AC81BD815A963C90E016F106A8F1B80197
:1013F00090E080E00E94A9272B013C01B70190E01A
:1014000080E00E94A9279B01AC01C301B2010E94A8
:101410006529AB01BC01232DC601E981FA8109953B
:1014200083EC90E00197F1F7AC81BD81D1968C916E
:101430000E94CD018819990997FF03C09195819564
:1014400091098A159B0528F0C5010F5F1F4F5C01AC
:10145000B8CF202E1B83F9CF822D9B81B7010E942C
:10146000FC2A90E080E00E94A9274B015C01232D1B
:10147000BC01A401C601E981FA810995AC81BD8155
:1014800091966D917C919297A5019401CD010E9456
:101490007B09AC81BD81ED91FC9111970684F785A4
:1014A000E02DCD010995EC81FD81608971898289EA
:1014B00093890F900F900F900F900F90DF91CF9125
:1014C0001F910F91FF90EF90DF90CF90BF90AF9062
:1014D0009F908F907F906F905F904F903F902F9054
:1014E0000895BF92CF92DF92EF92FF920F931F93D6
:1014F000CF93DF93EC01B12C03EC10E06C89B616AE
:10150000B8F489A90E94CD019B838A83BC0190E035
:1015100080E00E94A9279B01AC01C701B6010E948F
:10152000F9286B017C01C8010197F1F7B394E6CF6C
:1015300070E090E080E00E94A9279B01AC01C70108
:10154000B6010E9465299B01AC01288B398B4A8B1F
:101550005B8B6D8D7E8DCE010E947B0968897989B8
:101560008A899B89DF91CF911F910F91FF90EF9016
:10157000DF90CF90BF9008957F928F929F92AF920D
:10158000BF92CF92DF92EF92FF920F931F93CF9370
:10159000DF93EC014A015B01712C03EC10E06C89D4
:1015A0007616B8F489A90E94CD019B838A83BC0179
:1015B00090E080E00E94A9279B01AC01C701B60121
:1015C0000E94F9286B017C01C8010197F1F773941F
:1015D000E6CF70E090E080E00E94A9279B01AC017B
:1015E000C701B6010E946529288939894A895B8922
:1015F0000E94F8289B01AC01C501B4010E94652935
:10160000AB01BC01E881F9810284F385E02DCE01B4
:1016100009956C857D858E859F85DF91CF911F9182
:101620000F91FF90EF90DF90CF90BF90AF909F9081
:101630008F907F900895DC011C964D935D936D9380
:101640007C931F975B96ED91FC919A01AB01BF01D2
:101650000C947B09CF92DF92EF92FF920F931F932E
:10166000CF93DF93EC016A017B0120E030E0A90118
:10167000CB01B6010E946E2A181644F50D891E8909
:101680000115110519F120E030E040E85FE3C701E2
:10169000B6010E94F8289B01AC0169A57AA58BA52B
:1016A0009CA50E946529AB01BC014DA75EA76FA751
:1016B00078ABD801ED91FC910484F585E02D298D5E
:1016C000C80109956DA77EA78FA798AB2DA53EA54C
:1016D0004FA558A969A57AA58BA59CA50E94652947
:1016E00020E030E040E85FE30E94F9286B017C01D4
:1016F0006F8D78A1AC019601CE010E947B09C701D4
:10170000B601DF91CF911F910F91FF90EF90DF9085
:10171000CF900895CF92DF92EF92FF92CF93DF9315
:10172000EC018D899E89009761F0DC01ED91FC91BF
:101730000088F189E02D698D09956DA77EA78FA797
:1017400098AB2DA53EA54FA558A969A57AA58BA54F
:101750009CA50E94652920E030E040E85FE30E94FC
:10176000F9286B017C016F8D78A1AC019601CE0147
:101770000E947B09C701B601DF91CF91FF90EF90E6
:10178000DF90CF900895DC01ED91FC910280F38110
:10179000E02D099520E030E040E251E40E940A2863
:1017A0000E94112ACB010895CF93DF93EC0189A900
:1017B0000E94CD019B838A830E94E201688779871A
:1017C0008A879B876A817B8190E080E00E94A927BD
:1017D000288939894A895B890E94F8282C853D85AA
:1017E0004E855F850E940A28AB01BC014C835D8356
:1017F0006E837F838BA19CA1009759F0DC01ED9152
:10180000FC910190F081E02D09956C837D838E839E
:101810009F836C817D818E819F81DF91CF9108951F
:101820008F929F92AF92BF92CF92DF92EF92FF92F0
:101830001F93CF93DF93EC018D899E89009771F1FF
:10184000DC01ED91FC910190F081E02D0995182FBC
:101850006F8D78A1CE010E9437096B017C0120E0D9
:1018600030E0A9010E94A42788809980181664F4AA
:10187000F401A084B184A7019601C701B6010E94BA
:10188000E92A882309F4A6C04AA95BA96CA97DA905
:10189000D4011896ED91FC91CE0109958F89988D10
:1018A000009769F1DC01ED91FC910190F081E02D50
:1018B0000995182B69A17AA1CE010E9437096B0105
:1018C0007C0120E030E0A9010E94A427181644F40E
:1018D000A7019601C701B6010E94E92A882319F0E1
:1018E000C12CD12C76018F89988DDC01ED91FC9172
:1018F0000480F581E02D2A8DB701A60109958FA1FD
:1019000098A5892B91F06B8D7C8DCE010E943709B3
:101910006C877D878E879F876D8D7E8DCE010E941F
:101920003709688B798B8A8B9B8BCC84DD84EE8422
:10193000FF8420E030E0A901C701B6010E94A4277E
:10194000882341F0A7019601C701B6010E94E92A48
:10195000882359F04EA95FA968AD79ADE881F98176
:101960000284F385E02DCE010995C888D988EA88DC
:10197000FB8820E030E0A901C701B6010E94A4273E
:1019800087FD08C0A7019601C701B6010E94E92A98
:10199000882361F0188A198A1A8A1B8A6D8D7E8DB8
:1019A00020E030E0A901CE010E947B09E881F981A5
:1019B0000280F381E02DCE010995812FDF91CF9137
:1019C0001F91FF90EF90DF90CF90BF90AF909F90CE
:1019D0008F900895B701A601CE01F5015ECFCF9398
:1019E000DF93EC0160E08D890E946E0160E08E89DA
:1019F0000E946E011A8E1B8E1C8E1D8E1E8EDF9114
:101A0000CF9108950F931F93CF93DF93EC0181E063
:101A100090E0998F888F8A81982F9D7F2D853E85B4
:101A20002230310520F42F853889232B81F5913020
:101A300049F561E08D890E946E010E94E2010B81EF
:101A40001C812D813E81DC01CB01800F911FA21FE3
:101A5000B31F8A8F9B8FAC8FBD8F81E08E8F89895A
:101A60008823D9F08A899B890097B9F0DC01ED9130
:101A7000FC910480F581E02D6C89DF91CF911F915D
:101A80000F9109948230C9F661E08E89D4CF9923F1
:101A900081F28350823088F6F7CFDF91CF911F918A
:101AA0000F910895CF93DF93EC0161E08D890E943F
:101AB0009C0160E08D890E946E0161E08E890E9428
:101AC0009C0160E08E890E946E018A899B89009743
:101AD00049F0DC01ED91FC910190F081E02DDF9166
:101AE000CF910994DF91CF91089560E070E0CB0130
:101AF000089560E070E0CB010895CF92DF92EF92FD
:101B0000FF920F931F93CF93DF93EC016A017B0148
:101B10000E94E2018B019C01E881F9810280F3813E
:101B2000E02DB701A601CE010995DF91CF911F915C
:101B30000F91FF90EF90DF90CF90089560E070E0FC
:101B400080E89FEB089560E070E080E89FEB0895E7
:101B5000CF92DF92EF92FF92CF93DF93EC01E88177
:101B6000F9810084F185E02D09956B017C012C85BC
:101B70003D854E855F85688979898A899B890E9420
:101B8000F928A70196010E940A28DF91CF91FF90C2
:101B9000EF90DF90CF900895DC01ED91FC910088EB
:101BA000F189E02D60E009948F929F92AF92BF92ED
:101BB000CF92DF92EF92FF921F93CF93DF93EC01CE
:101BC0006A017B01122F8C849D84AE84BF84AB019B
:101BD0009601C501B4010E94A42740E050E0BA017B
:101BE00087FF0EC0A5019401C701B6010E94F82825
:101BF000288939894A895B890E946529AB01BC0122
:101C0000E881F9810480F581E02D212FCE0109952D
:101C1000288939894A895B890E940A282C853D8553
:101C20004E855F850E94F928DF91CF911F91FF902B
:101C3000EF90DF90CF90BF90AF909F908F900895DE
:101C4000DC01ED91FC910484F585E02D20E0099400
:101C5000DC01ED91FC910084F185E02D60E00994B8
:101C6000DC01ED91FC910480F581E02D20E00994E8
:101C70001F93CF93DF93EC018C899D89892B11F5FC
:101C80001092500210924F02109200031092220301
:101C90000E947A0688E798E090937302809372021C
:101CA00089E798E09093770280937602898D91E09E
:101CB0009093FF028093210381E0DF91CF911F91E8
:101CC0000C94B9061FB7F89480914E02811127C079
:101CD000E9EBF0E08491EDECF0E09491E82FF0E096
:101CE000EE0FFF1FE556FF4FA591B491EC91E9234C
:101CF00021F461E08AE00E946E0161E08AE00E94C6
:101D00009C018CB580618CBD8CB580648CBD61E01C
:101D10008DE00E949C0161E08BE00E949C0180911B
:101D20004E028F5F80934E021FBF61E08E890E943A
:101D30009C0161E08E890E946E0180E0DF91CF916D
:101D40001F910895CF92DF92EF92FF92CF93DF938E
:101D5000EC01E881F9810084F185E02D09956B01A2
:101D60007C01288939894A895B896C857D858E85C6
:101D70009F850E94F928A70196010E940A28DF91F9
:101D8000CF91FF90EF90DF90CF900895DC01ED911F
:101D9000FC910088F189E02D60E009948F929F9278
:101DA000AF92BF92CF92DF92EF92FF921F93CF93A9
:101DB000DF93EC016A017B01122F8C849D84AE8439
:101DC000BF84AB019601C501B4010E94A42740E085
:101DD00050E0BA0187FF0EC0A5019401C701B6010A
:101DE0000E94F828288939894A895B890E946529D7
:101DF000AB01BC01E881F9810480F581E02D212F40
:101E0000CE010995288939894A895B890E940A2867
:101E10002C853D854E855F850E94F928DF91CF9105
:101E20001F91FF90EF90DF90CF90BF90AF909F9069
:101E30008F900895DC01ED91FC910484F585E02DEF
:101E400020E00994DC01ED91FC910680F781E02D02
:101E50000994DC01ED91FC910280F381E02D09945D
:101E6000CF92DF92EF92FF921F93CF93DF93EC011B
:101E70006A017B016C897D8990E080E00E94A9273E
:101E8000A70196010E940A280E94182A162F8CE0AA
:101E90008093B8008E899F89288D31E03093FF02AE
:101EA000209321031092000310922203DC01ED9194
:101EB000FC910190F081E02D60E009958E899F8969
:101EC000DC01ED91FC910190F081E02D612F0995ED
:101ED00081E00E94B906E881F9810680F781E02D52
:101EE000CE01DF91CF911F91FF90EF90DF90CF90C7
:101EF0000994CF93DF93EC011092500210924F029D
:101F000010920003109222030E947A0688E798E05C
:101F1000909373028093720289E798E0909377021E
:101F200080937602888D91E09093FF028093210345
:101F300081E0DF91CF910C94B906089580E0089577
:101F4000DC011396ED91FC9180810895AF92BF92D0
:101F5000CF92DF92EF92FF920F931F93CF93DF9375
:101F6000EC01EB81FC81B080C12CEE24E394F12CD8
:101F70008985C81608F045C00C2D10E0FE01E00F61
:101F8000F11F228530E0F901E952FF4F8491F901F8
:101F9000ED53FF4FD490F901E155FF4FA490AA20D3
:101FA00069F181110E944501EA2DF0E0EE0FFF1F5B
:101FB000E057FF4FA591B491EC91DE2231E020E093
:101FC00009F430E0832F922FEB81FC819701002EE2
:101FD00001C0220F0A94EAF7322F30952081232383
:101FE0002083EB81FC8121E0822701C0880F0A95C4
:101FF000EAF79081892B8083C394BACF90E080E088
:10200000E3CF0E94E2016D837E838F839887EB810B
:10201000FC8181E090819B1101C080E0DF91CF9134
:102020001F910F91FF90EF90DF90CF90BF90AF90F6
:102030000895CF92DF92EF92FF920F931F93CF9369
:10204000DF93EC016A017B010CA51DA501151105AB
:10205000D9F0AB01960160E070E080E89FE30E9458
:10206000F828AB01BC01D801ED91FC910480F58109
:10207000E02D28A9C801DF91CF911F910F91FF900A
:10208000EF90DF90CF9009940EA4DFA5C02D20978C
:10209000C1F0688170E090E080E00E94A927A7016C
:1020A00096010E940A280E94182A6B83CE01DF91B4
:1020B000CF911F910F91FF90EF90DF90CF900C94F4
:1020C0000309DF91CF911F910F91FF90EF90DF9067
:1020D000CF900895FC0183A50C94B4026A3018F4E3
:1020E000DC0112966C93DC01ED91FC910280F3818E
:1020F000E02D0994DC011296EC91B4E0EB9FF00125
:102100001124E80FF91F2581368163817481FC0158
:1021100083A550E040E02F3F320719F420E030E083
:10212000A9010C94E002CF93DF93EC0161E08BA551
:102130000E949C0160E08BA50E946E018CA59DA56C
:10214000009739F0DC01ED91FC910190F081E02DD8
:1021500009950EA4DFA5C02D2097A9F061E0898123
:102160000E949C0160E089810E946E0161E08A8189
:102170000E949C0160E08A810E946E01CE01DF9185
:10218000CF910C940309DF91CF910895CF93DF9302
:1021900000D000D0CDB7DEB749835A836B837C83F0
:1021A000DC018D919C91DC01ED91FC910280F38129
:1021B000E02D44E050E0BE016F5F7F4F09950F9026
:1021C0000F900F900F90DF91CF910895CF93DF93F1
:1021D00000D000D0CDB7DEB749835A836B837C83B0
:1021E000DC018D919C91DC01ED91FC910280F381E9
:1021F000E02D44E050E0BE016F5F7F4F09950F90E6
:102200000F900F900F90DF91CF910895CF93DF93B0
:1022100000D0CDB7DEB769837A83DC018D919C91C4
:10222000DC01ED91FC910280F381E02D42E050E071
:10223000BE016F5F7F4F09950F900F90DF91CF9197
:102240000895CF93C62FBC018EEB94E00E94061137
:102250008091BE049091BF0461E06C0FDC01ED91B0
:10226000FC910190F081E02DCF910994EF92FF92C3
:102270001F93CF93DF93EC017B01142F6BE07AEA7D
:102280000E940611D70118964D915D916D917C9138
:102290001B97CE010E94E6108881998161E0610F51
:1022A000DC01ED91FC910190F081E02D0995F701A1
:1022B0004481558166817781CE01DF91CF911F9155
:1022C000FF90EF900C94C610EF92FF920F931F9324
:1022D000CF93DF938C01EB0160E772E00E9406115F
:1022E0004D815E816F817885C8010E94E610D8011A
:1022F0000D911C91D801ED91FC91E080F180E88175
:10230000F9810480F581E02DCE010995682FC8017F
:10231000F701DF91CF911F910F91FF90EF900994FA
:10232000DC01ED91FC910280F381E02D0994DC0148
:10233000ED91FC910190F081E02D0994CF93DF9312
:10234000E091D204F091D304309709F480C0EC01FD
:102350008091F5049091F604A091F704B091F804EF
:10236000AC01BD014F5F5F4F6F4F7F4F4093F5044E
:102370005093F6046093F7047093F80409958E3136
:1023800008F046C08093EA04BE018EEB94E00E9400
:1023900006118091B0049091B104DC01ED91FC91A3
:1023A0000190F081E02D6091EA0409958091EA04A2
:1023B000882309F44CC0E091D204F091D3048091B9
:1023C000F5049091F604A091F704B091F804AC01E3
:1023D000BD014F5F5F4F6F4F7F4F4093F5045093A8
:1023E000F6046093F7047093F8040995682F70E081
:1023F0007093D7046093D6048091B0049091B10497
:102400000E9497118091EA0481508093EA04CECF14
:102410001092EA04E091D004F091D104309709F4CD
:10242000B3CF8091F5049091F604A091F704B09198
:10243000F8040197A109B1098093F5049093F6047B
:10244000A093F704B093F80460E009959DCFDF9165
:10245000CF910895FF920F931F93CF93DF93EC01D9
:10246000042FF22E632B162F142B8C899D89892B18
:1024700009F072C08CE08093B8008F89988D298D07
:1024800031E03093FF022093210310920003109259
:102490002203DC01ED91FC910190F081E02D612F90
:1024A00009950C3009F048C081E00E94B9068823E4
:1024B00041F08FEF9FEFDF91CF911F910F91FF9030
:1024C000089562E0898D0E94A907109250028093BE
:1024D0004F028230A8F48F89988DDC01ED91FC9138
:1024E0000084F185E02D0995892B19F38F89988D4A
:1024F000DC01ED91FC910284F385E02D0995EBCF91
:102500008F89988DDC01ED91FC910284F385E02D9B
:102510000995082F8F89988DDC01ED91FC9102843B
:10252000F385E02D0995182F802F90E0982F8827AC
:10253000810F911D9170BFCF8F89988DDC01ED9136
:10254000FC910190F081E02D6F2D099581E00E94B2
:10255000B906182F00E0E8CF81E58CBD1DBC60E016
:102560008E890E946E011EBD00000DB407FEFDCFD6
:102570000EB5FEBC00000DB407FEFDCF1EB561E038
:102580008E890E946E01D0CF4F925F926F927F92A0
:102590008F929F92AF92BF92CF92DF92EF92FF9273
:1025A000CF93DF93EC012FEF31E04CE0611147C096
:1025B000CE010E942A12BC0190E080E00E94A9276F
:1025C0006B017C016A857B8590E080E00E94A927F1
:1025D0009B01AC01C701B6010E9465299B01AC01BA
:1025E000C888D988EA88FB88C701B6010E940A28F2
:1025F0009B01AC018C849D84AE84BF84C501B40171
:102600000E94F9282B013C01A5019401C701B601E4
:102610000E94F9289B01AC01C301B2010E94652907
:10262000DF91CF91FF90EF90DF90CF90BF90AF9070
:102630009F908F907F906F905F904F90089560E192
:10264000B7CFCF92DF92EF92FF921F93CF93DF939A
:10265000EC016A017B01122F6A857B8590E080E0A6
:102660000E94A927A70196010E940A280E94182A01
:102670009B0140E060E0111160E1CE010E942A124E
:10268000E881F9810084F185E02D612FCE01DF9191
:10269000CF911F91FF90EF90DF90CF9009944F92D0
:1026A0005F926F927F928F929F92AF92BF92CF92E2
:1026B000DF92EF92FF92CF93DF93EC018CE0809357
:1026C000B80061E0888D0E94A907109250028093A3
:1026D0004F02882309F44EC08E899F89DC01ED9159
:1026E000FC910284F385E02D0995682F70E090E05D
:1026F00080E00E94A9276B017C016C897D8990E0B4
:1027000080E00E94A9279B01AC01C701B6010E948D
:1027100065299B01AC01C888D988EA88FB88C70174
:10272000B6010E940A289B01AC018C849D84AE8472
:10273000BF84C501B4010E94F9282B013C01A50109
:102740009401C701B6010E94F9289B01AC01C301A5
:10275000B2010E946529DF91CF91FF90EF90DF9049
:10276000CF90BF90AF909F908F907F906F905F9031
:102770004F9008958FEFB9CF0E947C2C85ED809308
:10278000BC008091FB029091FC02A091FD02B091EF
:10279000FE020796A11DB11D23E0B695A79597955A
:1027A00087952A95D1F72091BC0024FD03C0109293
:1027B000F90208954091FB025091FC026091FD02E4
:1027C0007091FE02452B462B472B69F30097A1051C
:1027D000B10541F02AE22A95F1F700C00197A1095D
:1027E000B109E1CF8091FA020C9498063F924F9282
:1027F0005F926F927F928F929F92AF92BF92CF9291
:10280000DF92EF92FF920F931F93CF93DF93CDB799
:10281000DEB72A970FB6F894DEBF0FBECDBF9A87FA
:1028200089876A017B01DC011F968D909D90AD9098
:10283000BC905297FC010787108B218B328B13962B
:102840008D919D910D90BC91A02D89839A83AB832E
:10285000BC83838B948BA58BB68B87819085A18558
:10286000B2858D839E83AF83B887878B908FA18F2E
:10287000B28FC382D482E582F682328031101EC0CC
:10288000C782D086E186F286C701B6012A960FB6C6
:10289000F894DEBF0FBECDBFDF91CF911F910F9196
:1028A000FF90EF90DF90CF90BF90AF909F908F9070
:1028B0007F906F905F904F903F900895C901B8014D
:1028C000681979098A099B090E94A9274B015C01B3
:1028D000A985BA851B964D905D906D907C901E9752
:1028E000AC019B01C301B2010E94652920E030E0E8
:1028F00040EE50E40E946E2A1816C4F5A50194011A
:10290000C301B2010E94F9289B01AC01C301B201CD
:102910000E9465294B015C01AC019B016D817E81A8
:102920008F8198850E940A282B013C01B1E03B125F
:1029300027C0A501940160E070E080E89FE30E9459
:10294000F828A70196010E940A28A30192010E947B
:10295000F928E985FA856783708781879287E985F9
:10296000FA85C780D084E184F2848ECFC501B4019A
:102970009058A30192010E9465290E94DF29CACFC5
:1029800029813A814B815C81C701B6010E94F828F8
:10299000A50194010E940A28A30192010E94F9282E
:1029A000A985BA8517966D937D938D939C931A97FD
:1029B000D6CF1F93CF93DF93EC018B819C81892B22
:1029C00041F481E090E00E94572B9C838B83FC01B3
:1029D000108210E08985181748F4FE01E10FF11DFF
:1029E00060E082850E949C011F5FF4CFE881F9813D
:1029F0000280F381E02DCE01099580E0DF91CF9137
:102A00001F9108950C94C8280C94D0281F920F92FF
:102A10000FB60F9211242F933F938F939F93AF93F1
:102A2000BF938091AB029091AC02A091AD02B091A6
:102A3000AE023091AA0223E0230F2D3758F50196FC
:102A4000A11DB11D2093AA028093AB029093AC020A
:102A5000A093AD02B093AE028091AF029091B0020C
:102A6000A091B102B091B2020196A11DB11D809357
:102A7000AF029093B002A093B102B093B202BF91A3
:102A8000AF919F918F913F912F910F900FBE0F901B
:102A90001F90189526E8230F0296A11DB11DD2CFD5
:102AA0001F920F920FB60F9211242F933F934F93C3
:102AB0005F936F937F938F939F93AF93BF93EF93A6
:102AC000FF938091A6029091A702A091A802B091D5
:102AD000A902892B8A2B8B2BD1F19091A502E09131
:102AE000A302F091A4028081892780838091A602AD
:102AF0009091A702A091A802B091A90218161906F8
:102B00001A061B069CF48091A6029091A702A09140
:102B1000A802B091A9020197A109B1098093A60268
:102B20009093A702A093A802B093A902FF91EF91FE
:102B3000BF91AF919F918F917F916F915F914F91D5
:102B40003F912F910F900FBE0F901F90189580917D
:102B500000010E94B402EACF1F920F920FB60F92AB
:102B600011242F933F934F935F936F937F938F9392
:102B70009F93AF93BF93EF93FF9383E194E00E9401
:102B8000C405FF91EF91BF91AF919F918F917F917C
:102B90006F915F914F913F912F910F900FBE0F90CA
:102BA0001F9018951F920F920FB60F9211242F931A
:102BB0008F939F93EF93FF93E0912304F09124046C
:102BC0008081E0912904F0912A0482FD1BC090814C
:102BD00080912C048F5F8F7320912D04821741F018
:102BE000E0912C04F0E0ED5EFB4F958F80932C0478
:102BF000FF91EF919F918F912F910F900FBE0F90AA
:102C00001F9018958081F4CF1F920F920FB60F92EC
:102C100011242F933F934F935F936F937F938F93E1
:102C20009F93AF93BF93EF93FF938091B900887FF9
:102C3000803609F44AC0F0F5883209F4A7C018F5C7
:102C4000803109F49BC0B8F4882309F4F9C08830B6
:102C500009F494C0FF91EF91BF91AF919F918F9133
:102C60007F916F915F914F913F912F910F900FBE88
:102C70000F901F901895883109F488C0803251F761
:102C80008093F70214C0803409F49DC040F480336F
:102C9000B9F38833F9F68093F70285ECB0C080353C
:102CA00009F485C0883509F496C0883499F60E94E5
:102CB000BE13D0CF883909F48CC038F5883729F095
:102CC00050F4883611F0803729F683E08093F902BA
:102CD0001092980257C0883809F47BC0803919F0E7
:102CE000803809F0B7CF80919802803208F071C027
:102CF000E091980281E08E0F809398028091BB0052
:102D0000F0E0E858FD4F80833DC0803B39F0E0F4AF
:102D1000803A09F479C0883A09F09CCF84E0809326
:102D2000F9021092750210927402E0917202F09111
:102D3000730209958091740281110FC081E0809324
:102D400074021092520209C0803C09F4A6CF883C5C
:102D500009F4A3CF883B09F07DCFE091750281E0B3
:102D60008E0F80937502F0E0EE5AFD4F80818093C4
:102D7000BB00909175028091740229C08091D402A9
:102D80008093BB0085EC8093BC0064CF9091F602E9
:102D90008091F502981758F5E091F60281E08E0FC8
:102DA0008093F602F0E0EB52FD4F8081E9CFE09195
:102DB000F60281E08E0F8093F6028091BB00F0E076
:102DC000EB52FD4F80839091F6028091F5029817A7
:102DD000C8F285E8D8CFE091F60281E08E0F8093AB
:102DE000F6028091BB00F0E0EB52FD4F80838091B2
:102DF000F80281115CCF81E08093D30284EA809352
:102E0000BC001092F90226CF85EC8093BC00109292
:102E1000F90280919802803230F4E0919802F0E05B
:102E2000E858FD4F10826091980270E0E0917602C0
:102E3000F091770288E792E00995109298020ACF04
:102E40001092F70234CFBF92CF92DF92EF92FF92AF
:102E50000F931F93CF93DF93A3E1B4E013961C92DB
:102E60001E92129788EEC82E83E0D82EE12CF12C0A
:102E70001496CD92DD92ED92FC9217978FE091E03F
:102E800011969C938E9385EC90E01D969C938E9367
:102E90001C9784EC90E01F969C938E931E9780EC79
:102EA00090E051969C938E93509781EC90E05396CE
:102EB0009C938E93529782EC90E055969C938E93C0
:102EC000549786EC90E057969C938E93569759961C
:102ED0001C9259975A961C925A975B961C925B9734
:102EE0005C961C925C978DEE93E0FC01138212823B
:102EF000C482D582E682F78221E231E031832083E9
:102F0000E0EBF4E0B183A08312822AEF30E0348357
:102F1000238340E157E260E070E045835683678396
:102F200070871586118A108A138A128A158A148A64
:102F3000178A168A118E108E138E128E158E148E8D
:102F4000178E168E11A210A213A212A215A214A2FD
:102F50001092FD041092000510920305C9EFD3E012
:102F600040E050E066E972E44C875D876E877F87BA
:102F700040E050E46CE176E4488B598B6A8B7B8BA4
:102F80001D8A1C8A28E2298F988F8F8B20E830E0D9
:102F90003B872A872DE831E039832883E4EDF3E08D
:102FA00027E731E03183208300E010E020E732E4BE
:102FB0000487158726873787408B518B628B738BED
:102FC0002FE330E0358B248B2CE2208F978B868B80
:102FD000EAE9F3E000E010E020E83FE3048715872A
:102FE00026873787108A118A128A138A84E6848B8F
:102FF000168A158A108E178A118E128E80E490E040
:10300000948F838F84E490E0968F858F88E490E09E
:1030100090A3878F8CE490E092A381A314A213A2C3
:1030200016A215A210A617A281E691E091838083D3
:1030300080E090E4ACE9B6E481A792A7A3A7B4A787
:1030400080E090E0A8ECB2E485A796A7A7A7B0AB74
:103050008EE081AB42AB53AB64AB75AB06AB17AB49
:1030600020AF31AF0FE713E0BB24B394F801B28275
:1030700089E591E09183808384E991EFA6ECB4E443
:1030800083879487A587B687138214821582168258
:103090001782108611861286178A108E118E128E54
:1030A0000E94E201F8016787708B818B928B89E522
:1030B00091E091838083EEE4F3E08DE491E09183ED
:1030C000808312828FE083A717A616A6B0AAD5A781
:1030D000C4A7E2E4F3E01282148213828DE391E04C
:1030E00091838083B18684E18287E3E2F3E01282F8
:1030F000C382D482E582F68280E593ECA0E0B0E062
:1031000087839087A187B28782E390E09487838743
:103110008091070190910801A0910901B0910A01E5
:1031200085879687A787B08B118A138A128A148A9B
:1031300083E391E09183808387E0858B88E0868BB1
:1031400087898360878BDF91CF911F910F91FF90CB
:10315000EF90DF90CF90BF900895CF93DF93CDB7DE
:10316000DEB7E2970FB6F894DEBF0FBECDBF7894FE
:1031700084B5826084BD84B5816084BD85B582607C
:1031800085BD85B5816085BD80916E00816080932D
:103190006E00109281008091810082608093810096
:1031A00080918100816080938100809180008160A6
:1031B000809380008091B10084608093B100809101
:1031C000B00081608093B00080917A008460809329
:1031D0007A0080917A00826080937A0080917A00F0
:1031E000816080937A0080917A00806880937A0071
:1031F0001092C10087E092E09093C1048093C004D4
:1032000083E492E09093C3048093C2048CE692E03E
:103210009093C5048093C40485E992E09093CF0411
:103220008093CE0484E095E19093D1048093D00400
:1032300082E095E19093D3048093D20482E493E0FA
:1032400090930205809301058AE993E09093FF042F
:103250008093FE048EE493E09093FA048093F90443
:1032600083E293E09093FC048093FB0440E052ECF3
:1032700061E070E08091B0049091B1040E94A100DF
:103280008091B0049091B1049093BF048093BE04E8
:1032900063E270E08EEB94E00E94061161E085E04D
:1032A0000E949C0161E085E00E949C01ECEDF0E051
:1032B000E491E33009F4B3C150F4E130E1F0E230DD
:1032C00009F4A7C160E085E00E946E0119C0E730F3
:1032D00009F4B1C1E83009F4B7C1E43099F780913D
:1032E000800080628093800085E090E090938B0066
:1032F00080938A0005C084B5806884BD85E087BD61
:1033000084E095E19093C0038093BF0382E095E150
:103310009093C2038093C10380E090E4ACE1B6E4F3
:103320008093090490930A04A0930B04B0930C04B7
:1033300089EF93E09093B2038093B1031092B403AA
:1033400080E090E0AAE7B4E48093E4039093E5037F
:10335000A093E603B093E70384ED93E09093B0036A
:103360008093AF038FE793E09093BE038093BD03F8
:1033700080E094E2A4E7B9E48093C3039093C4038C
:10338000A093C503B093C6038AE993E00E94100C92
:1033900082E493E00E94D9148EE493E00E9493109B
:1033A0001092500380EA9FE0909352038093510360
:1033B00083E090E0909354038093530340E050E007
:1033C00060E87FE38EE493E00E94191081E080932F
:1033D00034038EE493E0909336038093350383E2C5
:1033E00093E00E94520D3E012AE0620E711C01E042
:1033F00010E09EE1892E912CA12CB12C8091B0047B
:103400009091B104DC01ED91FC910084F185E02DF7
:103410000995892BD1F18091B0049091B104DC0120
:10342000ED91FC910284F385E02D0995682FE82E3B
:10343000F92EF092D704E092D6048091DB049091AB
:10344000DC04009711F00C946E228091DA04811153
:1034500004C1F092D904E092D80481E08093DA04A8
:103460008091DB049091DC04892B11F00C94F926F7
:103470008091DA0481110C94F9261092EC041092D8
:10348000ED041092EE041092EF048091EC04909100
:10349000ED04A091EE04B091EF04892B8A2B8B2BC5
:1034A000D1F02FB7F8948091AB029091AC02A0912B
:1034B000AD02B091AE022FBF4091EC045091ED04EB
:1034C0006091EE047091EF04481759076A077B0773
:1034D00010F40E9401018AE993E00E94D40B82E477
:1034E00093E00E94A60F882351F08091B20481FFDF
:1034F00006C062E473E08EEB94E00E946411809158
:103500003D0390913E03A0913F03B0914003892B6E
:103510008A2B8B2BD9F10E94E201C0903D03D09001
:103520003E03E0903F03F0904003C616D706E8063E
:10353000F90660F580914103882311F40C9440272B
:1035400060E0809138030E946E0160E08091390351
:103550000E946E0180913B0390913C0301969093F1
:103560003C0380933B0320912E0330912F032817B7
:10357000390710F00C94162710923D0310923E0369
:1035800010923F0310924003109241038091B204C5
:1035900080FF32C00E94E201C090B904D090BA040A
:1035A000E090BB04F090BC04C616D706E806F90606
:1035B00018F540E06AE973E08EEB94E00E94361162
:1035C0008091B9049091BA04A091BB04B091BC045D
:1035D0004091B5045091B6046091B7047091B8045D
:1035E000840F951FA61FB71F8093B9049093BA0448
:1035F000A093BB04B093BC0480E090E0892B09F455
:10360000FDCE0E94B005882309F4F8CE0E94000088
:10361000F5CE84B5806284BD85E088BD71CE809191
:10362000800080688093800085E090E0909389001E
:103630008093880065CE8091B00080688093B00050
:1036400085E08093B3005CCE8091B000806280936F
:10365000B00085E08093B40053CEFE2CEE24809120
:10366000D8049091D904E80EF91EF092D904E092A2
:10367000D8041092DA04B4E7EB16B2E0FB0609F4C2
:1036800033C608F06FC1F6E6EF16F10409F447C43B
:1036900008F0B8C04CE0E416F10409F40FC408F0D7
:1036A00041C094E0E916F10409F4D8C3A0F4B1E0F4
:1036B000EB16F10409F40FC308F40AC3F2E0EF16A5
:1036C000F10409F40FC361E270E08EEB94E00E9414
:1036D0000611B70102C326E0E216F10409F4E3C3C0
:1036E00008F4A4C387E0E816F10409F4C4C398E021
:1036F000E916F10441F7E091CE04F091CF04309740
:1037000009F433C3E090B004F090B104D7018D9177
:103710009C91DC01CD90DC900995682FC701F601E2
:1037200009959ECEA3E1EA16F10409F400C310F551
:10373000E0E1EE16F10409F436C378F42EE0E21667
:10374000F10409F66FE070E08EEB94E00E94061140
:1037500040E052EC61E070E003C341E1E416F104A3
:1037600009F450C382E1E816F10409F0ACCF86E019
:1037700090E063C098E1E916F10409F4BCC270F569
:10378000B6E1EB16F10409F09ECFE091C004F09190
:10379000C104309709F46CCECE0101960995F82E3C
:1037A00065E170E08EEB94E00E9406118091BE040A
:1037B0009091BF04DC01ED91FC910190F081E02D2E
:1037C0006F2D09954F2D50E0BE016F5F7F4F8091A7
:1037D000BE049091BF040E94901142CEEAE1EE1621
:1037E000F10409F496C2F5E6EF16F10409F06BCF87
:1037F0001093DC040093DB0482E08093EA0486E10A
:1038000090E0DAC226E0E21621E0F20609F4EEC307
:1038100008F060C0E11481E0F80609F4C3C3D8F5EC
:10382000A8E7EA16F10409F4ABC360F485E190E07F
:10383000E7E6EE16F10409F046CF9093DC0480939E
:10384000DB040ECEF9E7EF16F10409F479C32AE799
:10385000E216F10409F037CFE091D404F091D504D9
:10386000309709F405CE09956093F0047093F10444
:103870008093F2049093F3046BE770E08EEB94E096
:103880000E9406114091F0045091F1046091F204FD
:103890007091F30465C242E0E41641E0F40609F4D5
:1038A00090C308F482C394E0E91691E0F90609F4A4
:1038B0009AC3A5E0EA16A1E0FA0609F004CFE09168
:1038C000F904F091FA04309709F4D2CD628184E0D2
:1038D00091E045C0BBE0EB16B1E0FB0609F4CEC3B6
:1038E000F0F4F8E0EF16F1E0FF0609F4A3C308F4E2
:1038F00086C349E0E41641E0F40609F4A4C38AE073
:10390000E81681E0F80609F0DECE1093DC0400939F
:10391000DB0482E08093EA048CE290E04DC291E700
:10392000E91692E0F90609F4C3C448F484E190E092
:10393000B0E6EB16B1E0FB0609F47FCFC4CEE2E7B8
:10394000EE16E2E0FE0609F4CCC46091030582E7BE
:1039500092E0F3E7EF16F2E0FF0609F0B4CE0E9422
:1039600021117ECD22E1E21620E4F20609F4B1C570
:1039700008F0A2C086E0E81680E4F80609F440C525
:1039800008F045C0A1E0EA16A0E4FA0609F4F9C47B
:10399000B8F4E6E7EE16E2E0FE0609F4E2C408F445
:1039A000ADC4E11420E4F20609F08DCE1093DC04DE
:1039B0000093DB0482E08093EA0480E590E0FCC1A0
:1039C00043E0E41640E4F40609F4FAC408F4EEC453
:1039D00094E0E91690E4F90609F409C5A5E0EA16B1
:1039E000A0E4FA0609F06FCEE091FD04F0E0EE0FDE
:1039F000FF1FE550FB4FE080F18064E070E48EEB48
:103A000094E00E940611F7016385748566C1BDE0EC
:103A1000EB16B0E4FB0609F41DC5B8F5FAE0EF16A5
:103A2000F0E4FF0609F4F6C408F547E0E41640E4C4
:103A3000F40609F048CEE091FD04F0E0EE0FFF1F20
:103A4000E550FB4FE080F18066E070E48EEB94E09F
:103A50000E940611D7011D966D917C918EEB94E02A
:103A60000E940611F7016785708937C18BE0E8165F
:103A700080E4F80609F4DEC49CE0E91690E4F90657
:103A800009F021CE84E590E0D8CEAFE0EA16A0E4BC
:103A9000FA0609F4F0C408F4E0C4E0E1EE16E0E44C
:103AA000FE0609F4EBC487E590E0F1E1EF16F0E4DF
:103AB000FF0609F4C2CE07CE2EE0E2162AEAF2068D
:103AC00009F46BC308F07EC088E0E8168AEAF806BD
:103AD00009F41DC308F058C0A2E6EA16A4E7FA06E6
:103AE00009F46FC138F4E4E6EE16E5E6FE0609F4E3
:103AF000B7CCE9CDF3E6EF16F4E7FF0609F478C199
:103B000026E0E2162AEAF20609F0DDCD8091B20441
:103B1000811110C0E0910005F0E0EE0FFF1FE250B0
:103B2000FB4F80819181DC01ED91FC910280F3815A
:103B3000E02D0995D0900005ED2DF0E0EE0FFF1F70
:103B4000E250FB4FE080F18067E07AEA8EEB94E090
:103B50000E940611F70140855185628573858EEBC1
:103B600094E00E94E6108091BE049091BF0461E051
:103B70006D0DDC01ED91FC910190F081E02D099536
:103B8000F70162817381A9C04AE0E4164AEAF406AB
:103B900009F4C5C208F4BEC29CE0E9169AEAF90627
:103BA00009F4E0C2ADE0EA16AAEAFA0609F08BCD04
:103BB0001093DC040093DB0482E08093EA048BE53D
:103BC00090E0FAC0B4E1EB16BAEAFB0609F435C39B
:103BD00008F060C0F0E1EF16FAEAFF0609F4FCC253
:103BE00008F4F0C241E1E4164AEAF40609F40FC30E
:103BF00082E1E8168AEAF80609F065CD8091B20400
:103C0000811110C0E0910005F0E0EE0FFF1FE250BF
:103C1000FB4F80819181DC01ED91FC910280F38169
:103C2000E02D0995D0900005ED2DF0E0EE0FFF1F7F
:103C3000E250FB4FE080F18020E030E040E251E4D0
:103C4000F70164817581868197810E940A280E940C
:103C5000112A1B0163E17AEA8EEB94E00E940611BF
:103C6000D70118964D915D916D917C911B978EEBCC
:103C700094E00E94E6108091BE049091BF0461E040
:103C80006D0DDC01ED91FC910190F081E02D099525
:103C9000B10123C096E1E9169AEAF90609F4EEC2E9
:103CA00008F4E2C2B7E1EB16BAEAFB0609F4F7C280
:103CB000E8E1EE16EAEAFE0609F005CD1093DC0411
:103CC0000093DB0482E08093EA0480E690E074C015
:103CD0000E940101C5CB6DEC7BEA8EEB94E00E9463
:103CE0000611BECB63E070E08EEB94E00E940611FB
:103CF0006CE070E0F2CFE091C204F091C304309721
:103D000009F4B6CBCE0101960995F82E67E170E073
:103D100049CDE091C404F091C504309709F4A8CBD3
:103D2000CE0101960995F82E69E170E03BCD64E182
:103D300070E08EEB94E00E9406118FB7F8944091EA
:103D4000AB025091AC026091AD027091AE028FBF98
:103D50008EEB94E00E94E6100E94E201AB01BC01F0
:103D60008EEB94E00E94E6107BCB69E070E08EEB76
:103D700094E00E9406118091BE049091BF04DC0182
:103D8000ED91FC910190F081E02D61E00995809129
:103D9000BE049091BF04DC01ED91FC910190F08193
:103DA000E02D60E0BDCC1093DC040093DB0482E0E6
:103DB0008093EA0484E090E09093DE048093DD0435
:103DC00033C263E674E78EEB94E00E940611F12C97
:103DD000E12CB7018091BE049091BF040E9497111D
:103DE000BFEFEB1AFB0AE114E1E0FE0691F738CBD6
:103DF00085E090E09093DC048093DB048FEF809368
:103E0000EA042ECBF090BD0462E170E08EEB94E00A
:103E10000E9406118091BE049091BF04DC01ED91D7
:103E2000FC910190F081E02D6F2D7ACC83E090E041
:103E30009093DC048093DB0488E190E09093DE04AF
:103E40008093DD0481E08093F4048092F5049092E5
:103E5000F604A092F704B092F80402CB8092F50425
:103E60009092F604A092F704B092F80485E090E0F6
:103E70000E949E11F5CA83E090E09093DC04809349
:103E8000DB0488E190E09093DE048093DD0481E020
:103E90008093F4041092F5041092F6041092F70443
:103EA0001092F804DDCA1092F5041092F6041092F4
:103EB000F7041092F80487E090E0DACFDE01119663
:103EC000EEE0F0E07D0121E2CF0101962093570062
:103ED000E491ED93FC01449711F4E5E1F0E06A16FA
:103EE0007B0691F76DE070E08EEB94E00E94061186
:103EF00069E070E08091BE049091BF040E94971128
:103F00008091BE049091BF04DC01ED91FC91028090
:103F1000F381E02D49E050E0B7010995A1CAC090B6
:103F2000B504D090B604E090B704F090B80465E60C
:103F300070E08EEB94E00E940611B701A60110CF4D
:103F400087E190E09093DC048093DB0483E080932E
:103F5000EA0483E090E09093DE048093DD0488E13E
:103F600090E09093E0048093DF041092F5041092A7
:103F7000F6041092F7041092F8041092E90470CA43
:103F800087E190E09093DC048093DB0483E08093EE
:103F9000EA0483E090E09093DE048093DD0489E1FD
:103FA00090E0DFCF88E290E048CC8091F9049091D6
:103FB000FA04DC01ED91FC910680F781E02D099572
:103FC0004FCA63E071E08EEB94E00E94061180918D
:103FD000BE049091BF04DC01ED91FC910190F08151
:103FE000E02D6AE09DCB89E290E027CC1093DC04C1
:103FF0000093DB041092EA048AE290E0DDCEE090C8
:10400000F904F090FA04E114F10409F431CA66E00D
:1040100071E08EEB94E00E940611F7018281F4E0DA
:104020008F9FC0011124E80EF91ED70113966D91E0
:104030007C9153CE1093DC040093DB041092EA04CD
:104040008BE290E0B9CEE090F904F090FA04E1142C
:10405000F10409F40DCA68E071E08EEB94E00E946F
:104060000611F7018281F4E08F9FC0011124E80E50
:10407000F91ED70115966D917C912FCEE090F90431
:10408000F090FA04E114F10409F4F2C96AE071E075
:104090008EEB94E00E940611F70184A595A5009788
:1040A000A9F0DC01ED91FC910084F185E02DD701B0
:1040B000D0966C9109959B01AC0160E070E080E8BE
:1040C0009FE30E94F828AB01BC0162C0E6A4F7A4FC
:1040D00060E070E080E89FE3E114F104A1F3D70110
:1040E00013966C9170E090E080E00E94A9271B017C
:1040F0002C01F701608170E090E080E00E94A92728
:104100009B01AC01C201B1010E946529DCCF8AE5A7
:1041100090E093CB6091000588E09AEA20CC8091F2
:10412000B204811110C0E0910005F0E0EE0FFF1F16
:10413000E250FB4F80819181DC01ED91FC91028086
:10414000F381E02D099540910005E42FF0E0EE0F9A
:10415000FF1FE250FB4F608171818EEB94E00E9463
:1041600036117EC9E0910005F0E0EE0FFF1FE2502E
:10417000FB4FE080F1806DE07AEA8EEB94E00E94E4
:104180000611D70150964D915D916D917C91539799
:104190008EEB94E00E94C61063C9E0910005F0E048
:1041A000EE0FFF1FE250FB4FE080F1806FE07AEAF4
:1041B0008EEB94E00E940611F701448555856685D3
:1041C0007785E6CF1093DC040093DB0482E08093D4
:1041D000EA048CE590E0F0CDE0910005F0E0EE0F10
:1041E000FF1FE250FB4FE080F18061E17AEA8EEB45
:1041F00094E00E940611D70157968D919C91DC01A5
:10420000ED91FC910680F781E02D09955CCF10932C
:10421000DC040093DB0482E08093EA04EDE5F0E047
:10422000F093DE04E093DD041092F0041092F104A8
:104230001092F2041092F304A0CEE0910005F0E099
:10424000EE0FFF1FE250FB4FE080F18065E17AEA5C
:104250008EEB94E00E940611D701ED91FC9106804F
:10426000F781E02DC701D1CF1093DC040093DB046C
:1042700082E08093EA04EEE5F0E0D2CFE091000521
:10428000F0E0EE0FFF1FE250FB4F80819181DC01D7
:10429000ED91FC910684F785E02D0995E1C8109316
:1042A000DC040093DB041092EA04EFE5F0E0B8CF01
:1042B0008091010590910205DC01ED91FC91028055
:1042C000F381E02D0995E0910305F0E0EE0FFF1F6B
:1042D000EF5FFA4F608171818EEB94E00E94641170
:1042E000BFC888E390E0A9CA1093DC040093DB0404
:1042F00082E08093EA04E9E3F0E092CFD0900305F6
:10430000ED2DF0E0EE0FFF1FEF5FFA4FE080F18040
:1043100064E772E08EEB94E00E9406118091BE0487
:104320009091BF04E114F10481F061E06D0DDC01B6
:10433000ED91FC910190F081E02D0995D701ED916F
:10434000FC910084F185E02D8DCFDC01ED91FC9195
:104350000190F081E02D60E0099540E050E0BA0165
:1043600017CFE0910305F0E0EE0FFF1FEF5FFA4F6C
:1043700080819181DC01ED91FC910284F385E02D37
:104380001ECEE091FD04F0E0EE0FFF1FE550FB4F65
:10439000E080F18060E070E48EEB94E00E94061112
:1043A000F7014381548165817681DACC1093DC0476
:1043B0000093DB0482E08093EA0481E590E0FCCC8A
:1043C000E091FD04F0E0EE0FFF1FE550FB4FE080B1
:1043D000F18062E070E48EEB94E00E940611D70158
:1043E00017964D915D916D917C911A97B9CC109370
:1043F000DC040093DB041092EA0482E590E0DCCC5C
:104400001093DC040093DB0482E08093EA0483E5EC
:1044100090E0D2CCE091FD04F0E0EE0FFF1FE550FC
:10442000FB4F80819181DC01ED91FC910280F38151
:10443000E02DC5CDE091FD04F0E0EE0FFF1FE5504B
:10444000FB4F80819181DC01ED91FC910480F5812D
:10445000E02DB5CD85E590E0F0C9E091FD04F0E0F8
:10446000EE0FFF1FE550FB4F0190F081E02D6489B6
:104470008DE090E474CA86E590E0DFC9D090FD0439
:10448000ED2DF0E0EE0FFF1FE550FB4FE080F180D7
:104490006FE070E48EEB94E00E9406118091BE0400
:1044A0009091BF0461E06D0DDC01ED91FC910190F4
:1044B000F081E02D09958091BE049091BF04DC014C
:1044C000ED91FC910190F081E02DD70112966C9155
:1044D00027C96091FD0481E190E441CA89339105C7
:1044E00009F4B0C308F062C08731910509F47DC2B8
:1044F00020F58530910509F4ACC1A0F48330910515
:1045000009F4FAC008F02AC1019709F4D0C08091DB
:10451000EA04882309F45EC49091EB0491115AC413
:1045200081506DCC8531910509F407C208F034C281
:10453000069769F76093BD04EACF8A32910509F4C2
:1045400089C238F58832910509F471C208F07BC23E
:104550004897E9F6E091D004F091D1043097B9F290
:104560008091F5049091F604A091F704B091F804BD
:104570006C017D012FEFC21AD20AE20AF20AC09240
:10458000F504D092F604E092F704F092F80409954D
:10459000BECF8C32910509F4B9C208F489C2C8971C
:1045A00009F0B5CF615060930305B1CF8735910510
:1045B00009F40DC408F04FC08335910509F4BFC359
:1045C000C8F58135910509F463C308F090C38035BF
:1045D000910509F09CCFC701B0E0A0E02091E9046B
:1045E00004C0880F991FAA1FBB1F2A95D2F74091BC
:1045F000F0045091F1046091F2047091F304840F7F
:10460000951FA61FB71F8093F0049093F104A09309
:10461000F204B093F304E091FD04F0E0EE0FFF1F0D
:10462000E550FB4F0190F081E02D83839483A583B7
:10463000B6836DCFE091FD048535910509F4BCC3C7
:1046400008F4ACC3F0E0EE0FFF1FE550FB4F019004
:10465000F081E02DFDC18D35910509F48CC270F417
:104660008B35910509F45EC208F06FC28A35910559
:1046700009F04DCF61506093000549CF8F3591050A
:1046800009F4ACC208F494C28036910509F03FCF1A
:10469000E0910005F0E0EE0FFF1FE250FB4FE080DD
:1046A000F180D701ED91FC91C484D5848FC28091B3
:1046B000E9046701F12CE12C082E04C0CC0CDD1CB0
:1046C000EE1CFF1C0A94D2F74091F0045091F104C3
:1046D0006091F2047091F3044C0D5D1D6E1D7F1D01
:1046E0004093F0045093F1046093F2047093F30448
:1046F000885F8093E9040BCFEF2819F40E94010131
:1047000006CF8FEF860F8093EA0481E08093EB045D
:104710008091F404882309F4FACEE091D004F0915A
:10472000D1043097C1F08091F5049091F604A091E6
:10473000F704B091F8046C017D012FEFC21AD20A80
:10474000E20AF20AC092F504D092F604E092F7046D
:10475000F092F80409951092F404D9CEC701B0E0A4
:10476000A0E02091E90404C0880F991FAA1FBB1F75
:104770002A95D2F74091F0045091F1046091F2042F
:104780007091F304840F951FA61FB71FBF7080930D
:10479000F0049093F104A093F204B093F304F4E0D6
:1047A000F694E794FA95E1F7F092D704E092D604F4
:1047B000E090B004F090B104D701ED91FC91068037
:1047C000F781E02DC7010995D7015296ED91FC9133
:1047D000539780818F7E80835296ED91FC91539701
:1047E0008081877F80835296ED91FC9153978081E1
:1047F0008F7780835296ED91FC91539780818F7DC6
:1048000080835A968C915A9759968C934091F004D4
:104810005091F1046091F2047091F3048091B0041E
:104820009091B1040E94A100C090F004D090F104D6
:10483000E090F204F090F30465E674E78EEB94E008
:104840000E940611B701A6018EEB94E00E94E610CB
:104850005ECE2091EA042F3F59F46093EA0410924F
:10486000F0041092F1041092F2041092F3044FCE6F
:104870008091F0049091F104A091F204B091F304BE
:104880008E151F0459F49F5FAF4FBF4F8093F00404
:104890009093F104A093F204B093F304211139C072
:1048A00064E674E78EEB94E00E940611A091B004D8
:1048B000B091B1044091F0045091F1046091F20480
:1048C0007091F304CB01BA016F5F7F4F8F4F9F4F01
:1048D000ED91FC9111970190F081E02DCD010995AA
:1048E000A091B004B091B1044091F0045091F10452
:1048F0006091F2047091F3049927872F762F652F2A
:10490000ED91FC9111970190F081E02DCD01099579
:10491000FECD8091F0049091F104A091F204B09149
:10492000F3040196A11DB11D8093F0049093F1044E
:10493000A093F204B093F304EACD6093B20466232B
:1049400009F4E5CDE0910305F0E0EE0FFF1FEF5F06
:10495000FA4F608171818EEB94E00E946411809126
:10496000B20480FFD4CD0E94E201C090B504D09083
:10497000B604E090B704F090B804DC01CB018C0DD4
:104980009D1DAE1DBF1D8093B9049093BA04A093E2
:10499000BB04B093BC04BBCDC701B0E0A0E0209144
:1049A000E90404C0880F991FAA1FBB1F2A95D2F7DC
:1049B0004091F0045091F1046091F2047091F3047D
:1049C000840F951FA61FB71F8093F0049093F104E6
:1049D000A093F204B093F3048093B5049093B604CB
:1049E000A093B704B093B80492CD8091E904670115
:1049F000F12CE12C082E04C0CC0CDD1CEE1CFF1C9D
:104A00000A94D2F74091F5045091F6046091F704AE
:104A10007091F8044C0D5D1D6E1D7F1D4093F504D3
:104A20005093F6046093F7047093F80461CE80917C
:104A3000F9049091FA046150DC01ED91FC9104803D
:104A4000F581E02DA4CDE091F904F091FA046150D4
:104A500062835DCDA70170E060E08091E90404C04D
:104A6000440F551F661F771F8A95D2F78091F00477
:104A70009091F104A091F204B091F304840F951F7A
:104A8000A61FB71F8093F0049093F104A093F20443
:104A9000B093F304E091F904F091FA04228144E028
:104AA000249F90011124E20FF31F948383832FCD61
:104AB000A70170E060E08091E90404C0440F551F35
:104AC000661F771F8A95D2F78091F0049091F104C8
:104AD000A091F204B091F304840F951FA61FB71F95
:104AE0008093F0049093F104A093F204B093F30444
:104AF000E091F904F091FA04228144E0249F9001AE
:104B00001124E20FF31F9683858301CDE090F90411
:104B1000F090FA040E942401AB01BC01C7010E947D
:104B20001910F5CCE0910005F0E0EE0FFF1FE25008
:104B3000FB4FE080F1800E942401D70150966D93D5
:104B40007D938D939C935397E2CCE0910005F0E028
:104B5000EE0FFF1FE250FB4FE080F180D701ED9197
:104B6000FC91C284D3840E942401AB01BC01C70123
:104B7000F6010995CCCCE0910005F0E0EE0FFF1FA7
:104B8000E250FB4F0190F081E02DE788F08CD701D7
:104B90008D919C91DC011496CD90DC90528C0E94FA
:104BA0002401AB01BC01252DC701F6010995AFCC4D
:104BB000E0910005F0E0EE0FFF1FE250FB4FE080B8
:104BC000F180D701ED91FC91C084D1840E94240131
:104BD000AB01BC01C701F601099599CCA70170E0B2
:104BE00060E08091E90404C0440F551F661F771FE1
:104BF0008A95D2F78091F0049091F104A091F2048B
:104C0000B091F304840F951FA61FB71F8093F00483
:104C10009093F104A093F204B093F304E0910005A3
:104C2000F0E0EE0FFF1FE250FB4F20813181F901D0
:104C300040815181FA0140895189BC01C901FA01C1
:104C4000099565CCE0910305F0E0EE0FFF1FEF5FE3
:104C5000FA4FE080F180D701ED91FC91C680D780BA
:104C60000E942401AB01BC01C701F6010995E09146
:104C70000305F0E0EE0FFF1FEF5FFA4F8081918197
:104C8000DC01ED91FC910284F385E02D09953FCC88
:104C9000C701B0E0A0E02091E90404C0880F991F8B
:104CA000AA1FBB1F2A95D2F74091F0045091F1043E
:104CB0006091F2047091F304840F951FA61FB71F33
:104CC0008093F0049093F104A093F204B093F30462
:104CD000E091FD04F0E0EE0FFF1FE550FB4F019067
:104CE000F081E02D87839087A187B28710CC8091D7
:104CF000E90402C0EE0CFF1C8A95E2F78091F004F3
:104D00009091F104A091F204B091F3048E0D9F1DD7
:104D1000A11DB11D8093F0049093F104A093F204BF
:104D2000B093F304E091FD04F0E0EE0FFF1FE550B7
:104D3000FB4F0190F081E02D94878387E8CBC7017A
:104D4000B0E0A0E02091E90404C0880F991FAA1FD9
:104D5000BB1F2A95D2F74091F0045091F104609165
:104D6000F2047091F304840F951FA61FB71F809360
:104D7000F0049093F104A093F204B093F304E09153
:104D8000FD04F0E0EE0FFF1FE550FB4F0190F081B6
:104D9000E02D96878587B08BA787B9CBF0E0EE0F23
:104DA000FF1FE550FB4F0190F081E02D81E0EF28DF
:104DB00009F480E0818BABCBF0E0EE0FFF1FE550F4
:104DC000FB4F0190F081E02D6150648BA0CB60938C
:104DD000FD049DCBEBEDF4E082819381819391936F
:104DE00087EE94E08E179F07B9F71092EB040C94AE
:104DF000301A2FB7F8948091AB029091AC02A09139
:104E0000AD02B091AE022FBF2091B3043091B40433
:104E1000820F931FA11DB11D8093EC049093ED04AC
:104E2000A093EE04B093EF040C94451A80913D03D7
:104E300090913E03A0913F03B091400340912A031B
:104E400050912B0360912C0370912D03840F951FBB
:104E5000A61FB71F40912603509127036091280396
:104E600070912903841B950BA60BB70B80933D0310
:104E700090933E03A0933F03B09340030C94C41A55
:104E800020913B0330913C0380912503982F9D7F17
:104E900040913003509131032417350740F0409181
:104EA0003203509133034217530708F045C0913045
:104EB000E9F561E0809138030E946E0181E0809302
:104EC000410380913D0390913E03A0913F03B09137
:104ED000400340912603509127036091280370916D
:104EE0002903840F951FA61FB71F80933D0390933E
:104EF0003E03A0933F03B093400380913403882383
:104F000011F40C94C61A80913503909136030097E2
:104F100011F40C94C61ADC01ED91FC910480F5812A
:104F2000E02D6091370309950C94C61A823031F652
:104F300061E080913903C0CF992309F4BACF83503F
:104F4000823008F0BBCFF4CF0E94E62708F481E05E
:104F50000895E89409C097FB3EF49095809570956C
:104F600061957F4F8F4F9F4F9923A9F0F92F96E9B5
:104F7000BB279395F695879577956795B795F1112A
:104F8000F8CFFAF4BB0F11F460FF1BC06F5F7F4FC7
:104F90008F4F9F4F16C0882311F096E911C07723D9
:104FA00021F09EE8872F762F05C0662371F096E8E2
:104FB000862F70E060E02AF09A95660F771F881FB1
:104FC000DAF7880F9695879597F90895990F000855
:104FD000550FAA0BE0E8FEEF16161706E807F907CB
:104FE000C0F012161306E407F50798F0621B730B66
:104FF000840B950B39F40A2661F0232B242B252BE7
:1050000021F408950A2609F4A140A6958FEF811D89
:10501000811D08950E941D280C948E280E948028CE
:1050200038F00E94872820F0952311F00C947728FF
:105030000C947D2811240C94C2280E949F2870F3A0
:10504000959FC1F3950F50E0551F629FF001729F2D
:10505000BB27F00DB11D639FAA27F00DB11DAA1F3C
:10506000649F6627B00DA11D661F829F2227B00D89
:10507000A11D621F739FB00DA11D621F839FA00D14
:10508000611D221F749F3327A00D611D231F849F64
:10509000600D211D822F762F6A2F11249F575040BB
:1050A0009AF0F1F088234AF0EE0FFF1FBB1F661F36
:1050B000771F881F91505040A9F79E3F510580F0FF
:1050C0000C9477280C94C2285F3FE4F3983ED4F305
:1050D000869577956795B795F795E7959F5FC1F7A3
:1050E000FE2B880F911D9695879597F9089597F94E
:1050F0009F6780E870E060E008959FEF80EC08957E
:1051000000240A94161617061806090608950024A6
:105110000A9412161306140605060895092E039420
:10512000000C11F4882352F0BB0F40F4BF2B11F494
:1051300060FF04C06F5F7F4F8F4F9F4F089557FDF3
:105140009058440F551F59F05F3F71F04795880FF5
:1051500097FB991F61F09F3F79F08795089512168C
:1051600013061406551FF2CF4695F1DF08C0161638
:1051700017061806991FF1CF8695710561050894E9
:105180000895E894BB2766277727CB0197F9089500
:10519000F999FECF92BD81BDF89A992780B50895FF
:1051A000262FF999FECF1FBA92BD81BD20BD0FB643
:1051B000F894FA9AF99A0FBE019608950E94E92888
:1051C000A59F900DB49F900DA49F800D911D11245B
:1051D0000895A29FB001B39FC001A39F700D811DD0
:1051E0001124911DB29F700D811D1124911D0895F0
:1051F0005058BB27AA270E9410290C948E280E9481
:10520000802838F00E94872820F039F49F3F19F455
:1052100026F40C947D280EF4E095E7FB0C94772897
:10522000E92F0E949F2858F3BA1762077307840773
:10523000950720F079F4A6F50C94C1280EF4E095BA
:105240000B2EBA2FA02D0B01B90190010C01CA0140
:10525000A0011124FF27591B99F0593F50F4503EEB
:1052600068F11A16F040A22F232F342F4427585FDD
:10527000F3CF469537952795A795F0405395C9F7F5
:105280007EF41F16BA0B620B730B840BBAF09150AD
:10529000A1F0FF0FBB1F661F771F881FC2F70EC04C
:1052A000BA0F621F731F841F48F48795779567951F
:1052B000B795F7959E3F08F0B0CF9395880F08F00B
:1052C0009927EE0F9795879508950E9479290C9458
:1052D0008E280E94872858F00E94802840F029F4E8
:1052E0005F3F29F00C94772851110C94C2280C943C
:1052F0007D280E949F2868F39923B1F3552391F3E9
:10530000951B550BBB27AA2762177307840738F034
:105310009F5F5F4F220F331F441FAA1FA9F335D091
:105320000E2E3AF0E0E832D091505040E695001C45
:10533000CAF72BD0FE2F29D0660F771F881FBB1FFF
:10534000261737074807AB07B0E809F0BB0B802DDD
:10535000BF01FF2793585F4F3AF09E3F510578F009
:105360000C9477280C94C2285F3FE4F3983ED4F362
:10537000869577956795B795F7959F5FC9F7880FDD
:10538000911D9695879597F90895E1E0660F771F2F
:10539000881FBB1F621773078407BA0720F0621BC0
:1053A000730B840BBA0BEE1F88F7E095089529F470
:1053B00016F00C9477280C94C1280C947D280E9438
:1053C000A728A8F39638A0F707F80F92E8942BE3E4
:1053D0003AEA48EB5FE70E9420280F920F920F9263
:1053E0004DB75EB70F920E94B52AE8E6F0E00E9442
:1053F000472A4F915F91EF91FF91E595EE1FFF1FB7
:1054000049F0FE57E0684427EE0F441FFA95E1F794
:105410004195550B0E947F2A0F9007FE0C94732A2A
:1054200008950E94182A6894B1110C94C228089516
:105430000E94A72888F09F5798F0B92F9927B75155
:10544000B0F0E1F0660F771F881F991F1AF0BA9528
:10545000C9F714C0B13091F00E94C128B1E008959D
:105460000C94C128672F782F8827B85F39F0B93F8F
:10547000CCF3869577956795B395D9F73EF49095DB
:105480008095709561957F4F8F4F9F4F0895DF9363
:10549000CF931F930F93FF92EF92DF927B018C01CA
:1054A000689406C0DA2EEF010E941D28FE01E894E0
:1054B000A5912591359145915591A6F3EF010E9453
:1054C0001029FE019701A801DA9469F7DF90EF90A7
:1054D000FF900F911F91CF91DF9108950E94E627D1
:1054E00008F48FEF08959B01AC0160E070E080E864
:1054F0009FE30C9465290C9477280C94EE2A0E9463
:10550000A728D8F39923C9F3940F511DA3F3915001
:10551000504094F059F0882332F0660F771F881FAF
:1055200091505040C1F79E3F51052CF7880F911DB7
:105530009695879597F908955F3FACF0983E9CF05B
:10554000BB27869577956795B79508F4B1609395D5
:10555000C1F7BB0F58F711F460FFE8CF6F5F7F4FC3
:105560008F4F9F4FE3CF0C94C228FA01DC01AA0FA2
:10557000BB1F9B01AC01BF5728F4222733274427C8
:10558000507820C0B75190F4AB2F00244695379542
:105590002795011CA395D2F3002071F0220F331F31
:1055A000441FB395DAF30ED00C94F82861307105DE
:1055B000A0E88A07B94630F49B01AC01662777273B
:1055C00088279078309621F020833183428353835B
:1055D00008950E94E627880B990B08959F3F31F0AC
:1055E000915020F4879577956795B795880F911D11
:1055F0009695879597F90895AA1BBB1B51E107C0A3
:10560000AA1FBB1FA617B70710F0A61BB70B881F52
:10561000991F5A95A9F780959095BC01CD010895E1
:10562000A1E21A2EAA1BBB1BFD010DC0AA1FBB1FA6
:10563000EE1FFF1FA217B307E407F50720F0A21B18
:10564000B30BE40BF50B661F771F881F991F1A9485
:1056500069F760957095809590959B01AC01BD01AF
:10566000CF010895052E97FB1EF400940E94492B4C
:1056700057FD07D00E94102B07FC03D04EF40C946A
:10568000492B50954095309521953F4F4F4F5F4F97
:10569000089590958095709561957F4F8F4F9F4F9E
:1056A0000895EE0FFF1F0590F491E02D09940F93DC
:1056B0001F93CF93DF938230910510F482E090E046
:1056C000E0910605F091070530E020E0B0E0A0E0B1
:1056D000309799F42115310509F44AC0281B390B7C
:1056E00024303105D8F58A819B816115710589F1D6
:1056F000FB0193838283FE0111C0408151810281AD
:10570000138148175907E0F04817590799F4109783
:1057100061F012960C93129713961C933296CF0158
:10572000DF91CF911F910F9108950093060510937B
:105730000705F4CF2115310551F04217530738F012
:10574000A901DB019A01BD01DF01F801C1CFEF0121
:10575000F9CF9093070580930605CDCFFE01E20FA8
:10576000F31F819391932250310939832883D7CF36
:105770002091040530910505232B41F4209103016C
:105780003091040130930505209304052091010117
:10579000309102012115310541F42DB73EB74091FA
:1057A000050150910601241B350BE0910405F09191
:1057B0000505E217F307A0F42E1B3F0B2817390746
:1057C00078F0AC014E5F5F4F2417350748F04E0F5D
:1057D0005F1F5093050540930405819391939FCFDC
:1057E000F0E0E0E09CCFCF93DF930097E9F0FC017D
:1057F000329713821282A0910605B0910705ED0140
:1058000030E020E01097A1F420813181820F931FB6
:1058100020910405309105052817390709F061C06A
:10582000F0930505E0930405DF91CF910895EA0117
:10583000CE17DF07E8F54A815B819E0141155105CE
:10584000B1F7E901FB83EA8349915991C40FD51F50
:10585000EC17FD0761F4808191810296840F951FFA
:10586000E90199838883828193819B838A83F0E015
:10587000E0E012968D919C9113970097B9F52D91C8
:105880003C911197CD010296820F931F2091040540
:10589000309105052817390739F6309751F51092E0
:1058A000070510920605B0930505A0930405BCCF2B
:1058B000D383C28340815181840F951FC817D907B4
:1058C00061F44E5F5F4F88819981480F591F518362
:1058D00040838A819B81938382832115310509F05E
:1058E000B0CFF0930705E09306059ECFFD01DC01E4
:1058F000C0CF13821282D7CF81E090E0F8940C944D
:06590000812CF894FFCF9A
:10590600FF00000805800028002D0000000000E6CA
:1059160005460573053306A40582059605000000B5
:1059260000D108A40800097A089D088A087B0800A7
:10593600000000520D020DEF0C00000000D914A665
:105946000FA00F9D0F29097A080000000093107A16
:10595600106E106A10000000007D0DF613000000A6
:1059660000100CD40BC30B8A0B2A0B1B0BBC0A7141
:105976000ABB0900000000790F300F290F4F1322D0
:105986000F1A0FCE0EC60EA20E00000000380E3003
:105996000E2113280EC412200ED40DCC0DA80D48CE
:1059A6003A5C4D792044726976655C56756C696E11
:1059B60074757320536F667477617265202844721C
:1059C6006577295C4669726D77617265202D205373
:1059D600656E73695472616B5C53656E736954725C
:1059E600616B5F566962726F74616374696C655F3F
:1059F6004669726D776172655C53656E7369547240
:105A0600616B5F566962726F74616374696C655F1E
:105A16004D6F64756C655C53656E73695472616B2A
:105A26005F566962726F74616374696C655F4D6F0E
:105A360064756C652E696E6F004D61792033302078
:0E5A4600323032350031343A30333A313300E9
:00000001FF
