:100000000C9477000C946F1B0C94481B0C949F006D
:100010000C949F000C949F000C949F000C94961BD2
:100020000C949F000C949F000C949F000C949F00D4
:100030000C949F000C949F000C949F000C949F00C4
:100040000C94FE1A0C949F000C94181C0C94F21B38
:100050000C949F000C949F000C949F000C949F00A4
:100060000C944A1C0C949F0007634236B79BD8A798
:100070001A39685618AEBAAB558C1D3CB7CC5763CD
:10008000BD6DEDFD753EF6177231BF000000803F7B
:1000900000000000230026002900020000000024C8
:1000A0000027002A0000000000250028002B000483
:1000B000040404040404040202020202020303030F
:1000C0000303030102040810204080010204081009
:1000D00020010204081020000000080002010000B6
:1000E000030407000000000000000000691D112447
:1000F0001FBECFEFD8E0DEBFCDBF25E0A0E9B2E064
:1001000001C01D92A63CB207E1F712E0A0E0B1E009
:10011000EAE2FAE602C005900D92A039B107D9F7DC
:1001200010E0C7E7D0E004C02197FE010E94E3334E
:10013000C637D107C9F70E94691F0C9413350C9478
:100140000000CF92DF92EF92FF92CF93DF93EC010A
:100150006A017B01E889F98982E08083C11481EE1C
:10016000D806E104F104A1F060E079E08DE390E0CD
:10017000A70196010E94A23321503109410951097A
:100180005695479537952795211580E1380798F0C2
:10019000E889F989108260E874E88EE190E0A701AF
:1001A00096010E94A2332150310941095109569507
:1001B000479537952795EC85FD853083EE85FF853E
:1001C0002083188EEC89FD8986E08083EA89FB898B
:1001D000808180618083EA89FB8980818860808357
:1001E000EA89FB89808180688083EA89FB89808134
:1001F0008F7D8083DF91CF91FF90EF90DF90CF9044
:100200000895E8E6F5E015A614A617A616A611AA05
:1002100010AA13AA12AA15AA14AA17AA16AA11AEEE
:1002200010AE1092A5051092A6051092A705109287
:10023000A80513A613AE14AE1092AD051092A90531
:100240001092AA051092AB051092AC0512AE08955B
:10025000E8E6F5E087A190A5B0E0A0E022AD04C0FB
:10026000880F991FAA1FBB1F2A95D2F7E9EAF5E06C
:100270004081518162817381840F951FA61FB71F32
:1002800080839183A283B383682F792F8A2F9B2F3A
:100290000895833081F028F4813099F08230A9F0FC
:1002A00008958730A9F08830C9F08430B1F4809186
:1002B00080008F7D03C0809180008F7780938000C5
:1002C000089584B58F7784BD089584B58F7DFBCF65
:1002D0008091B0008F778093B00008958091B00036
:1002E0008F7DF9CF1F93CF93DF93282F30E0F90153
:1002F000E952FF4F8491F901ED53FF4FD491F90179
:10030000E155FF4FC491CC23A9F0162F81110E9413
:100310004901EC2FF0E0EE0FFF1FEB55FF4FA591C9
:10032000B4918FB7F894EC91111108C0D095DE23E9
:10033000DC938FBFDF91CF911F910895DE2BF8CF13
:10034000CF93DF9390E0FC01ED53FF4F2491815553
:100350009F4FFC0184918823D1F090E0880F991F72
:10036000FC01E556FF4FA591B491FC01EB55FF4F01
:10037000C591D49161110EC09FB7F8948C91E22F72
:10038000E0958E238C932881E223E8839FBFDF9141
:10039000CF9108958FB7F894EC91E22BEC938FBF37
:1003A000F6CF8E3008F08E508770806480937C008A
:1003B00080917A00806480937A0080917A0086FD33
:1003C000FCCF809178009091790008953FB7F89420
:1003D0008091F3029091F402A091F502B091F6029F
:1003E00026B5A89B05C02F3F19F00196A11DB11D90
:1003F0003FBFBA2FA92F982F8827BC01CD01620FCC
:10040000711D811D911D42E0660F771F881F991F86
:100410004A95D1F7089581E0809390020895CF9393
:10042000DF93CDB7DEB7CC5AD1090FB6F894DEBF53
:100430000FBECDBF382F8CEAEFECF1E0DE01119654
:1004400001900D928A95E1F7DE01A255BF4FECEACB
:100450008E918C3511F0E150D9F7EF5F8BEA8E1B4E
:1004600041E050E04C0F5D1F4E0F511DFA01232F4C
:10047000A32FB92F9A2F921B981718F491919D933F
:10048000F9CFC455DF4F0FB6F894DEBF0FBECDBF16
:10049000DF91CF910895CF93DF93CDB7DEB72C973F
:1004A0000FB6F894DEBF0FBECDBF2CE0EBE7F2E055
:1004B000DE01119601900D922A95E1F7FE01319629
:1004C0009C01255F3F4F4191DC014D93CD01A21767
:1004D000B307C9F78BE02C960FB6F894DEBF0FBEBA
:1004E000CDBFDF91CF910895CF93DF93CDB7DEB726
:1004F00029970FB6F894DEBF0FBECDBF29E0E7E81D
:10050000F2E0DE01119601900D922A95E1F7FE01CD
:1005100031969C01285F3F4F4191DC014D93CD0105
:10052000A217B307C9F788E029960FB6F894DEBF83
:100530000FBECDBFDF91CF91089585E10E94D1011B
:10054000BC01990F880B990B0E943D3020E030ECE4
:100550004FE754E40E94F73120E030E040E251E4FC
:100560000E949C3020E030E040E05FE30E948B314D
:100570000E94AA32862F0895089590910001891350
:100580000BC0EAE9F0E0E4919FEF90930001E130C5
:1005900049F028F0E23061F060E00C9472011092B2
:1005A0006E00FACF90916F009D7F90936F00F4CF13
:1005B000909170009D7F9093700091E09093B000B7
:1005C0009091B100987F94609093B1001092B30025
:1005D000E3CF4F925F926F927F928F929F92AF92F2
:1005E000BF92CF92DF92EF92FF920F931F93CF9320
:1005F000DF9300D000D01F92CDB7DEB78B01290169
:100600003A01909100018917C9F09F3F09F47EC01B
:100610000F900F900F900F900F90DF91CF911F913F
:100620000F91FF90EF90DF90CF90BF90AF909F9091
:100630008F907F906F905F904F900895EAE9F0E07F
:1006400094919D8397FDE4CF61E00E94A0018D818C
:10065000882321F09D81923009F04AC14801B12CD4
:10066000A12C60E072E18AE790E0A50198010E9468
:10067000C43329833A834B835C8369017A0181E027
:10068000C81AD108E108F1089FEFC916D104E104A6
:10069000F10409F00CF401C160E472E48FE090E031
:1006A000A50198010E94C43369017A0181E0C81A4A
:1006B000D108E108F1089D81923009F0A2C08FEFC6
:1006C000C816D104E104F10409F00CF4E6C160E9B4
:1006D00070ED83E090E0A50198010E94C4336901A8
:1006E0007A0191E0C91AD108E108F1088FEFC81624
:1006F000D104E104F10411F00CF07FC183E090918A
:10070000B100987F892B8093B100CFC08093000106
:10071000EAE9F0E094919D839F3F09F479CF91300D
:1007200041F150F0923009F446C09D8197FD70CFA1
:1007300061E00E94A0018ECF14BC15BC94B59260FC
:1007400094BD95B5916095BD282F30E0F901E15534
:10075000FF4FE491F0E0EE0FFF1FEB55FF4F459187
:100760005491F901ED53FF4FE491E093DD021D82B6
:100770006BCF109280001092810090918100986060
:100780009093810090918100916090938100282F37
:1007900030E0F901E155FF4FE491F0E0EE0FFF1F6B
:1007A000EB55FF4F45915491F901ED53FF4FE49103
:1007B000E093DC0249CF1092B0001092B10090910A
:1007C000B00092609093B0009091B10091609093CE
:1007D000B100282F30E0F901E155FF4FE491F0E03E
:1007E000EE0FFF1FEB55FF4F459154915093E702D9
:1007F0004093E602F901ED53FF4FE491E093E802E4
:1008000023CF9FEFC916D104E104F10409F00CF4E1
:100810006DC068E478EE81E090E0A50198010E9447
:10082000C43369017A0181E0C81AD108E108F108EE
:100830009D81992309F4FAC08FEFC816D104E10411
:10084000F10411F00CF0FBC0EFC064E274EF80E043
:1008500090E0A50194010E94C43369017A0181E00E
:10086000C81AD108E108F10885E09FEFC916D10444
:10087000E104F10409F008F442CF62E17AE780E094
:1008800090E0A50194010E94C43369017A0181E0DE
:10089000C81AD108E108F108E5C081E09D819111F5
:1008A0002ECF95B5987F892B85BD2FEF3FEFA901FE
:1008B000411451046104710409F043C09D819130D9
:1008C00009F45EC0923009F46DC09111A1CEC7BC8D
:1008D0002093E2023093E3024093E4025093E50256
:1008E00080916E00826080936E0092CE82E0D6CFBF
:1008F000B12CA12C60E072E18AE790E0A50198019B
:100900000E94C43369017A0181E0C81AD108E10864
:10091000F108C114D10491E0E906F10404F591E075
:100920008D81813011F680918100887F892B8093A1
:1009300081002FEF3FEFA9014114510461047104BC
:10094000F9F0D801AA0FBB1FA30192010E947031D8
:1009500028EE33E040E050E00E94A233AFCF68E4DD
:1009600078EE81E090E0A50198010E94C43369010E
:100970007A0181E0C81AD108E108F10893E0D0CFEC
:10098000D0928900C09288002093DE023093DF026B
:100990004093E0025093E10280916F008260809367
:1009A0006F0036CEC092B3002093E9023093EA0282
:1009B0004093EB025093EC02809170008260809330
:1009C000700026CE84E09FEFC916D104E104F10443
:1009D00009F008F466CFC980DA80EB80FC808AE0F9
:1009E000F594E794D794C7948A95D1F781E0C81A13
:1009F000D108E108F10885E054CF68E478EE81E0A1
:100A000090E0A50198010E94C43369017A0181E058
:100A1000C81AD108E108F1089FEFC916D104E10412
:100A2000F10411F00CF011CF84E069CE83E09FEF68
:100A3000C916D104E104F10409F00CF432CF62E1EB
:100A40007AE780E090E0A50194010E94C433690137
:100A50007A0181E0C81AD108E108F1089D81992343
:100A600009F4B0CF86E09FEFC916D104E104F10488
:100A700009F008F444CEC980DA80EB80FC809AE06B
:100A8000F594E794D794C7949A95D1F781E0C81A62
:100A9000D108E108F10887E032CE82E030CEAF9293
:100AA000BF92CF92DF92EF92FF920F931F93CF935B
:100AB000DF936C017B018B01040F151FEB015E01BD
:100AC000AE18BF08C017D10759F06991D601ED9152
:100AD000FC910190F081E02DC6010995892B79F7F1
:100AE000C501DF91CF911F910F91FF90EF90DF90A3
:100AF000CF90BF90AF900895FC01538D448D252F6A
:100B000030E0842F90E0821B930B541710F0CF96A7
:100B1000089501970895FC01918D828D981761F0D9
:100B2000A28DAE0FBF2FB11D5D968C91928D9F5FF0
:100B30009F73928F90E008958FEF9FEF0895FC01CF
:100B4000918D828D981731F0828DE80FF11D858D82
:100B500090E008958FEF9FEF0895FC01918D228D15
:100B6000892F90E0805C9F4F821B91098F7399279A
:100B700008958BEC94E00E94AD0521E0892B09F4E7
:100B800020E0822F089580E090E0892B29F00E94D8
:100B9000B90581110C9400000895FC01A48DA80FE3
:100BA000B92FB11DA35ABF4F2C91848D90E00196AF
:100BB0008F739927848FA689B7892C93A089B189CF
:100BC0008C91837080648C93938D848D981306C070
:100BD0000288F389E02D80818F7D80830895EF92D4
:100BE000FF920F931F93CF93DF93EC0181E0888FE7
:100BF0009B8D8C8D98131AC0E889F989808185FFB7
:100C000015C09FB7F894EE89FF896083E889F98958
:100C100080818370806480839FBF81E090E0DF915A
:100C2000CF911F910F91FF90EF900895F62E0B8DAD
:100C300010E00F5F1F4F0F731127E02E8C8D8E1168
:100C40000CC00FB607FCFACFE889F989808185FFCF
:100C5000F5CFCE010E94CD05F1CFEB8DEC0FFD2F2E
:100C6000F11DE35AFF4FF0829FB7F8940B8FEA898A
:100C7000FB8980818062CFCFCF93DF93EC01888D99
:100C80008823B9F0AA89BB89E889F9898C9185FD07
:100C900003C0808186FD0DC00FB607FCF7CF8C9195
:100CA00085FFF2CF808185FFEDCFCE010E94CD057B
:100CB000E9CFDF91CF910895CF93CFB7F89480918A
:100CC000DB02811127C0E9EBF0E08491EDECF0E06C
:100CD0009491E82FF0E0EE0FFF1FE556FF4FA5912E
:100CE000B491EC91E92321F461E08AE00E94720161
:100CF00061E08AE00E94A0018CB580618CBD8CB55A
:100D000080648CBD61E08DE00E94A00161E08BE019
:100D10000E94A0018091DB028F5F8093DB02CFBF36
:100D2000CF9108952091B602260F3327331F213229
:100D30003105ECF420913D03FC0190E080E024308B
:100D400069F082E00895A091B6022191AC014C5661
:100D50005D4FA40FB52FB11D2C930196861798F304
:100D60008091B602680F6093B60280E0089581E03A
:100D7000089510923D0381E080933C031092170385
:100D800061E082E10E94720161E083E10E947201F0
:100D9000E9EBF0E080818E7F808380818D7F80838E
:100DA00088E48093B80085E48093BC000895CF93D5
:100DB000DF9391E0909393028823B9F0C091B8003B
:100DC000D091BA008091BC008A7B8093BC0060E027
:100DD00082E10E94720160E083E10E9472010E9440
:100DE000B906D093BA00C093B800DF91CF910895AF
:100DF0008F929F92AF92BF92CF92DF92EF92FF922B
:100E00000F931F93CF93DF93D0916603D13208F0F5
:100E1000D7C0182FC09165030E94E6016B017C01C9
:100E200080913D0381116BC082E080933D0310935C
:100E30003C038FEF80933B0310923A03D093390326
:100E4000A5E4B3E0E9E1F3E080E0D81391C01092AB
:100E5000180380911803CC0FC82BC09318038091FE
:100E60001703813009F088C0109217030E94E60131
:100E70006B017C01809118038093BB0080913F033C
:100E800090914003A0914103B0914203892B8A2B9A
:100E90008B2BA1F00E94E60100913F0310914003CB
:100EA00020914103309142036C197D098E099F09FD
:100EB000061717072807390708F442C08091BC00BD
:100EC00083FDD8CF85EC8093BC000E94E6016B01C6
:100ED0007C0180913D03823009F450C080913B0336
:100EE0008F3F09F46FC080913B03803209F46CC0DE
:100EF00080913B03803309F469C084E026C080916F
:100F00003F0390914003A0914103B0914203892B8C
:100F10008A2B8B2B09F484CF0E94E60180903F033B
:100F200090904003A0904103B09042036C197D095A
:100F30008E099F0986169706A806B90608F070CF95
:100F400080913E030E94D70685E0109244031092E0
:100F5000660310924303DF91CF911F910F91FF9091
:100F6000EF90DF90CF90BF90AF909F908F900895BB
:100F70009D9191938F5F69CF85EEA5CF80913F03BF
:100F800090914003A0914103B0914203892B8A2B99
:100F90008B2B09F49ECF0E94E60100913F03109134
:100FA000400320914103309142036C197D098E0961
:100FB0009F09061717072807390708F08ACFC0CFFF
:100FC00081E0C3CF80E0C1CF82E0BFCF83E0BDCF5F
:100FD000CF92DF92EF92FF920F931F93CF93DF9305
:100FE000D82FC62F613208F098C00E94E6016B012D
:100FF0007C0180913D0381116BC081E080933D03B2
:1010000080933C039FEF90933B0310923A039C0F15
:10101000909339038093180380911803DD0FD82B28
:10102000D093180380911703813009F078C0109293
:1010300017030E94E6016B017C01809118038093E5
:10104000BB0080913F0390914003A0914103B09178
:101050004203892B8A2B8B2BA1F00E94E601009181
:101060003F031091400320914103309142036C19DA
:101070007D098E099F09061717072807390708F405
:1010800048C08091BC0083FDD8CF85EC8093BC0024
:101090000E94E6016B017C0180913D03813009F4DF
:1010A00040C080913A038C1710F4C0913A03E9E1F3
:1010B000F3E0A7EFB2E080E08C1355C08C2FDF91F6
:1010C000CF911F910F91FF90EF90DF90CF900895F7
:1010D00080913F0390914003A0914103B09142035E
:1010E000892B8A2B8B2B09F484CF0E94E601009177
:1010F0003F031091400320914103309142036C194A
:101100007D098E099F09061717072807390708F078
:1011100070CF80913E030E94D706C0E0CFCF85EE0E
:10112000B5CF80913F0390914003A0914103B091CE
:101130004203892B8A2B8B2B09F4AECF0E94E60148
:1011400000913F03109140032091410330914203ED
:101150006C197D098E099F0906171707280739079B
:1011600008F09ACFD6CF91919D938F5FA5CF089528
:1011700008950895E091920280919102E81730F469
:10118000F0E0E950FD4F808190E008958FEF9FEFF0
:10119000089590919202809191022FEF3FEF98175E
:1011A00048F4E92FF0E0E950FD4F208130E09F5FE7
:1011B00090939202C90108958091910290919202B8
:1011C000891B990B0895CF92DF92EF92FF920F93B4
:1011D0001F93CF93DF937C01CB018A0120914303BE
:1011E000222389F0EB016B01C40ED51ECC15DD0561
:1011F00069F06991D701ED91FC910190F081E02DAA
:10120000C7010995F3CF642F0E949206C801DF91B0
:10121000CF911F910F91FF90EF90DF90CF900895A5
:10122000CF93DF931F92CDB7DEB76983209143033D
:101230002223F9F020916603203258F021E030E0BB
:10124000FC013383228390E080E00F90DF91CF9107
:10125000089580914403E82FF0E0EB5BFC4F998107
:1012600090838F5F809344038093660381E090E0D6
:10127000ECCF61E0CE0101960E949206F7CF90E09C
:1012800080E0089590E080E0089581E090E0089586
:1012900080E0089580E00895CF92DF92EF92FF9270
:1012A000CF93DF93EC01CB01BA010E943D306B017B
:1012B0007C01E881F9810284F385E02DCE01099556
:1012C000BC0190E080E00E943B309B01AC01C70173
:1012D000B6010E94F7312E813F81488559850E94D1
:1012E000F7312A813B814C815D810E949C30DF91E6
:1012F000CF91FF90EF90DF90CF900895CF92DF9243
:10130000EF92FF92CF93DF93EC01CB01BA012A81D8
:101310003B814C815D810E94F7312E813F81488560
:1013200059850E949C306B017C01E881F98102841F
:10133000F385E02DCE010995BC0190E080E00E948C
:101340003B30A70196010E949C300E94A332DF919E
:10135000CF91FF90EF90DF90CF900895DC019D96A4
:101360008D919C91DC01ED91FC910484F585E02D3B
:101370000994DC019D968D919C91DC01ED91FC918D
:101380000284F385E02D0994DC019D968D919C915A
:10139000DC01ED91FC910084F185E02D0994DC01E4
:1013A0009D968D919C91DC01ED91FC910680F781D9
:1013B000E02D0994DC019D968D919C91DC01ED91CD
:1013C000FC910480F581E02D0994DC019D968D91BE
:1013D0009C91DC01ED91FC910280F381E02D099458
:1013E000CF92DF92EF92FF92CF93DF93EC016A01ED
:1013F0007B010E947E099B01AC0160E472E48FE0F6
:1014000090E00E94A2333AAB29AB8FA598A982172E
:10141000930720F438AB2FA71EAA1DAACE86DF861D
:10142000E88AF98ADF91CF91FF90EF90DF90CF901B
:101430000895CF93DF93EC0189A99AA9892B39F4F8
:101440004E855F8568897989CE010E94F00929A9B6
:101450003AA950E040E060E472E48FE090E00E943E
:10146000C433BA01A901CE010E944C096E877F875F
:10147000888B998BDF91CF910895CF92DF92EF9275
:10148000FF92CF93DF93EC016A017B010E947E09FA
:101490009B01AC0160E472E48FE090E00E94A23313
:1014A00038AB2FA789A99AA92817390720F43AAB96
:1014B00029AB1EAA1DAACA86DB86EC86FD86DF91B3
:1014C000CF91FF90EF90DF90CF900895CF93DF936F
:1014D000EC018FA598A9892B39F44A855B856C8529
:1014E0007D85CE010E943D0A2FA538A950E040E03D
:1014F00060E472E48FE090E00E94C433BA01A90175
:10150000CE010E944C096A877B878C879D87DF917B
:10151000CF9108956F927F928F929F92AF92BF92D8
:10152000CF92DF92EF92FF920F931F93CF93DF93AF
:10153000EC016A017B018FA598A9892B39F44A85B2
:101540005B856C857D85CE010E943D0A89A99AA99B
:10155000892B39F44E855F8568897989CE010E948F
:10156000F009CE010E94660A4B015C01CE010E9487
:10157000190A0FA518A969A87AA8A50194010E94C3
:101580008A3120E034E244E759E40E949C30A7010C
:1015900096010E94F7314B015C01B801660D771D81
:1015A0007695679590E080E00E943B309B01AC010E
:1015B000C501B4010E94F7310E94AA3290E080E098
:1015C0000E943B304B015C01B8016619770990E03D
:1015D00080E00E943B30A50194010E94F7314B014D
:1015E0005C0120E030E0A9010E94003320E030E0FF
:1015F00040E05FE387FD1FC0C501B4010E948B314D
:101600000E94A332272F60167106D0F06DAB7EAB1F
:10161000CA8ADB8AEC8AFD8ADF91CF911F910F91F4
:10162000FF90EF90DF90CF90BF90AF909F908F9002
:101630007F906F900895C501B4010E948A31E0CF78
:10164000862F922F009711F481E090E09EAB8DAB36
:10165000DFCF0F931F93CF93DF93EC01E881F981E4
:101660000280F381E02D0995FE01FF961082118220
:10167000128213828FA998ADA9ADBAAD8BAF9CAF82
:10168000ADAFBEAF0E94E601FE01E75BFF4FCB5B53
:10169000DF4F088119812A813B81DC01CB01800F5A
:1016A000911FA21FB31F80839183A283B383DF9115
:1016B000CF911F910F9108958F929F92AF92BF92F9
:1016C000CF92DF92EF92FF920F931F93CF93DF930E
:1016D000FC01E35BFF4F6A017B01C082D182E282A1
:1016E000F382FC0120A12111F4C08B017A01EC01ED
:1016F000A1A0B2A0C3A0D4A09A01AB01B501C601BC
:101700000E940033181614F457016801EDA0FEA0E2
:101710000FA118A59501A601B701C8010E94363096
:1017200087FF02C075018601A701B801CE010E94A2
:101730007E096BAF7CAF8DAF9EAFC701D80189A783
:101740009AA7ABA7BCA78E01015C1F4FF80180814F
:101750009181A281B381892B8A2B8B2B19F0CE0129
:101760000E94290B4FA958AD69AD7AAD8BAD9CADE8
:10177000ADADBEAD481759076A077B0709F4A9C08C
:101780008FA598A9892B39F44A855B856C857D8561
:10179000CE010E943D0A89A99AA9892B39F44E8568
:1017A0005F8568897989CE010E94F00989A99AA983
:1017B0002FA538A98217930748F4892B39F44A8951
:1017C0005B896C897D89CE010E948A0AE881F98152
:1017D0000680F781E02D6E8DCBACDCACEDACFEACC1
:1017E0008FA998ADA9ADBAAD8C159D05AE05BF0505
:1017F0000CF07CC081E08F8FCE010995E881F981E2
:101800000190F081E02DCE0109957E01F9E4EF0E03
:10181000F11CF70180819181A281B381892B8A2BF0
:101820008B2B51F10E94E601F70180809180A2800C
:10183000B380681579058A059B05F0F40E94E601DE
:10184000F70180809180A280B3803497C080D180DE
:10185000E280F380DC01CB0188199909AA09BB0950
:10186000C816D906EA06FB0610F4D701C601F8012E
:1018700080839183A283B383FE01ED5BFF4F2081C0
:101880003181F80180819181A281B381820F931F00
:10189000A11DB11D80839183A283B3830E94E601C1
:1018A000AB01BC012BA93CA9F80180819181A281E7
:1018B000B381820F931FA11DB11D840F951FA61F19
:1018C000B71F80839183A283B3838FA598A99CAB14
:1018D0008BABDF91CF911F910F91FF90EF90DF9035
:1018E000CF90BF90AF909F908F9008951F8E81E012
:1018F000682782CFFC01828D938D0895653C29E095
:10190000720790F024EC39E0DC015B963C932E9357
:101910005A97DC0158966D917C915997ED91FC9105
:101920000288F389E02D0994FC01738F628FF1CF57
:10193000DC015C96EC91EB3090F4F0E0EE55F34F67
:101940000C94E333AD0CAD0CB10CB10CB40CB70C72
:10195000BA0CBD0CC00CC30CC60C21E030E0C901B0
:10196000089522E030E0FBCF24E030E0F8CF28E01B
:1019700030E0F5CF20E130E0F2CF20E230E0EFCFF1
:1019800020E430E0ECCF20E830E0E9CF20E031E0A7
:10199000E6CFCF93DF93FC01938995FF07C0892F92
:1019A000881F8827881FDF91CF910895268130E016
:1019B000F901E952FF4F8491F901ED53FF4FD491A2
:1019C000F901E155FF4FC491CC2379F081110E94B8
:1019D0004901EC2FF0E0EE0FFF1FE057FF4FA591FC
:1019E000B491EC91ED2381E009F480E08170DBCFCC
:1019F000CF93DF93EC016B81617089810E9472014A
:101A00006B8162708A81DF91CF910C947201FC012D
:101A100060897189828993890895FC01608971893F
:101A2000828993890895FC016485758586859785EB
:101A3000089560E070E080E89FE3089560E070E062
:101A400080E89FE3089590E080E0089560E070E012
:101A5000CB010895AF92BF92CF92DF92EF92FF92A7
:101A60000F931F93CF93DF9300D000D0CDB7DEB795
:101A7000DC0197962D913C91232B61F17B016C0148
:101A80005E01B5E0AB0EB11C8E010F5F1F4FE01A77
:101A9000F10AD6019796ED91FC91C701800F911F35
:101AA0000995F80181938F01EA15FB0591F769818A
:101AB0007A818B819C810F900F900F900F90DF9116
:101AC000CF911F910F91FF90EF90DF90CF90BF903B
:101AD000AF90089560E070E0CB01EDCFAF92BF9280
:101AE000CF92DF92EF92FF920F931F93CF93DF93EA
:101AF00000D000D0CDB7DEB7DC019596ED91FC911A
:101B0000EF2BE9F06C0129833A834B835C835E0100
:101B1000B5E0AB0EB11C8E010F5F1F4F7B01E01AC9
:101B2000F10AC701800F911FF80161918F01D60161
:101B30009596ED91FC9109950A151B0591F70F906B
:101B40000F900F900F90DF91CF911F910F91FF9009
:101B5000EF90DF90CF90BF90AF9008952F923F927B
:101B60004F925F926F927F928F929F92AF92BF92AD
:101B7000CF92DF92EF92FF920F931F93CF93DF9359
:101B800000D000D01F92CDB7DEB79D838C834B0170
:101B9000DC0157968D919C91892B09F46DC0AA2484
:101BA000AA94BA2C10E000E0EC81FD81C788D08CAB
:101BB000D6011A96ED90FC901B97ED91FC918481D3
:101BC00095819A838983AC81BD815A963C90E016B9
:101BD000F106A8F1B80190E080E00E943B302B01B3
:101BE0003C01B70190E080E00E943B309B01AC01DA
:101BF000C301B2010E94F731AB01BC01232DC60124
:101C0000E981FA81099583EC90E00197F1F7AC81C5
:101C1000BD81D1968C910E94D1018819990997FFB5
:101C200003C09195819591098A159B0528F0C501FE
:101C30000F5F1F4F5C01B8CF202E1B83F9CF822D81
:101C40009B81B7010E948E3390E080E00E943B3080
:101C50004B015C01232DBC01A401C601E981FA817D
:101C60000995AC81BD8191966D917C919297A5016A
:101C70009401CD010E946E0DAC81BD81ED91FC916E
:101C800011970684F785E02DCD010995EC81FD8142
:101C900060897189828993890F900F900F900F90BE
:101CA0000F90DF91CF911F910F91FF90EF90DF90F8
:101CB000CF90BF90AF909F908F907F906F905F90EC
:101CC0004F903F902F900895BF92CF92DF92EF9266
:101CD000FF920F931F93CF93DF93EC01B12C03EC92
:101CE00010E06C89B616B8F489A90E94D1019B83D3
:101CF0008A83BC0190E080E00E943B309B01AC01F4
:101D0000C701B6010E948B316B017C01C8010197AC
:101D1000F1F7B394E6CF70E090E080E00E943B30B2
:101D20009B01AC01C701B6010E94F7319B01AC01D8
:101D3000288B398B4A8B5B8B6D8D7E8DCE010E94FB
:101D40006E0D688979898A899B89DF91CF911F916E
:101D50000F91FF90EF90DF90CF90BF9008957F920A
:101D60008F929F92AF92BF92CF92DF92EF92FF92AB
:101D70000F931F93CF93DF93EC014A015B01712C0A
:101D800003EC10E06C897616B8F489A90E94D101A1
:101D90009B838A83BC0190E080E00E943B309B01E2
:101DA000AC01C701B6010E948B316B017C01C801F7
:101DB0000197F1F77394E6CF70E090E080E00E9425
:101DC0003B309B01AC01C701B6010E94F731288965
:101DD00039894A895B890E948A319B01AC01C5011E
:101DE000B4010E94F731AB01BC01E881F9810284A2
:101DF000F385E02DCE0109956C857D858E859F85C7
:101E0000DF91CF911F910F91FF90EF90DF90CF90D6
:101E1000BF90AF909F908F907F900895DC011C96AB
:101E20004D935D936D937C931F975B96ED91FC9121
:101E30009A01AB01BF010C946E0DCF92DF92EF922D
:101E4000FF920F931F93CF93DF93EC016A017B0105
:101E500020E030E0A901CB01B6010E940033181642
:101E600044F50D891E890115110519F120E030E0B6
:101E700040E85FE3C701B6010E948A319B01AC01D3
:101E800069A57AA58BA59CA50E94F731AB01BC0181
:101E90004DA75EA76FA778ABD801ED91FC910484A4
:101EA000F585E02D298DC80109956DA77EA78FA71F
:101EB00098AB2DA53EA54FA558A969A57AA58BA5D8
:101EC0009CA50E94F73120E030E040E85FE30E94EB
:101ED0008B316B017C016F8D78A1AC019601CE0135
:101EE0000E946E0DC701B601DF91CF911F910F9136
:101EF000FF90EF90DF90CF900895CF92DF92EF9216
:101F0000FF92CF93DF93EC018D899E89009761F05A
:101F1000DC01ED91FC910088F189E02D698D099536
:101F20006DA77EA78FA798AB2DA53EA54FA558A955
:101F300069A57AA58BA59CA50E94F73120E030E029
:101F400040E85FE30E948B316B017C016F8D78A1CB
:101F5000AC019601CE010E946E0DC701B601DF9162
:101F6000CF91FF90EF90DF90CF900895DC01ED913D
:101F7000FC910280F381E02D099520E030E040E201
:101F800051E40E949C300E94A332CB0108958F92AD
:101F90009F92AF92BF92CF92DF92EF92FF921F93E8
:101FA000CF93DF93EC018D899E89009771F1DC015D
:101FB000ED91FC910190F081E02D0995182F6F8D26
:101FC00078A1CE010E942A0D6B017C0120E030E057
:101FD000A9010E94363088809980181664F4F401B3
:101FE000A084B184A7019601C701B6010E947B338A
:101FF000882309F4A6C04AA95BA96CA97DA9D401CC
:102000001896ED91FC91CE0109958F89988D0097D6
:1020100069F1DC01ED91FC910190F081E02D0995D1
:10202000182B69A17AA1CE010E942A0D6B017C01B7
:1020300020E030E0A9010E943630181644F4A701D0
:102040009601C701B6010E947B33882319F0C12C89
:10205000D12C76018F89988DDC01ED91FC91048063
:10206000F581E02D2A8DB701A60109958FA198A5CC
:10207000892B91F06B8D7C8DCE010E942A0D6C878F
:102080007D878E879F876D8D7E8DCE010E942A0D64
:10209000688B798B8A8B9B8BCC84DD84EE84FF8468
:1020A00020E030E0A901C701B6010E943630882344
:1020B00041F0A7019601C701B6010E947B33882336
:1020C00059F04EA95FA968AD79ADE881F981028424
:1020D000F385E02DCE010995C888D988EA88FB8868
:1020E00020E030E0A901C701B6010E94363087FD2B
:1020F00008C0A7019601C701B6010E947B3388235F
:1021000061F0188A198A1A8A1B8A6D8D7E8D20E0EB
:1021100030E0A901CE010E946E0DE881F9810280B4
:10212000F381E02DCE010995812FDF91CF911F9191
:10213000FF90EF90DF90CF90BF90AF909F908F90E7
:102140000895B701A601CE01F5015ECF60E070E011
:1021500080E89FEB089560E070E080E89FEB0895D1
:10216000CF92DF92EF92FF92CF93DF93EC01E88161
:10217000F9810084F185E02D09956B017C012C85A6
:102180003D854E855F85688979898A899B890E940A
:102190008B31A70196010E949C30DF91CF91FF9077
:1021A000EF90DF90CF900895DC01ED91FC910088D5
:1021B000F189E02D60E009948F929F92AF92BF92D7
:1021C000CF92DF92EF92FF921F93CF93DF93EC01B8
:1021D0006A017B01122F8C849D84AE84BF84AB0185
:1021E0009601C501B4010E94363040E050E0BA01CA
:1021F00087FF0EC0A5019401C701B6010E948A3174
:10220000288939894A895B890E94F731AB01BC0171
:10221000E881F9810480F581E02D212FCE01099517
:10222000288939894A895B890E949C302C853D85A3
:102230004E855F850E948B31DF91CF911F91FF907A
:10224000EF90DF90CF90BF90AF909F908F900895C8
:10225000DC01ED91FC910484F585E02D20E00994EA
:10226000DC01ED91FC910084F185E02D60E00994A2
:10227000DC01ED91FC910480F581E02D20E00994D2
:10228000CF93DF93EC018C899D89892B09F51092FE
:1022900092021092910210924403109266030E94DF
:1022A000B90687EB98E09093B5028093B40288EB6F
:1022B00098E09093B9028093B802898D91E0909351
:1022C00043038093650381E0DF91CF910C94F8067E
:1022D0000E945C0661E08E890E94A00161E08E8907
:1022E0000E94720180E0DF91CF910895089561E02E
:1022F000809169030C9472018EBD00000DB407FE3D
:10230000FDCF8EB508958CBD9DBD0895CF92DF920F
:10231000EF92FF92CF93DF93EC01E881F981008483
:10232000F185E02D09956B017C01288939894A895D
:102330005B896C857D858E859F850E948B31A70189
:1023400096010E949C30DF91CF91FF90EF90DF903B
:10235000CF900895DC01ED91FC910088F189E02D8A
:1023600060E009948F929F92AF92BF92CF92DF92DA
:10237000EF92FF921F93CF93DF93EC016A017B01F1
:10238000122F8C849D84AE84BF84AB019601C5015D
:10239000B4010E94363040E050E0BA0187FF0EC021
:1023A000A5019401C701B6010E948A3128893989A3
:1023B0004A895B890E94F731AB01BC01E881F98150
:1023C0000480F581E02D212FCE01099528893989D6
:1023D0004A895B890E949C302C853D854E855F85AE
:1023E0000E948B31DF91CF911F91FF90EF90DF9092
:1023F000CF90BF90AF909F908F900895DC01ED91AA
:10240000FC910484F585E02D20E00994DC01ED9138
:10241000FC910680F781E02D0994DC01ED91FC919F
:102420000280F381E02D0994CF92DF92EF92FF9228
:102430001F93CF93DF93EC016A017B016C897D8947
:1024400090E080E00E943B30A70196010E949C3002
:102450000E94AA32162F8CE08093B8008E899F8943
:10246000288D31E030934303209365031092440399
:1024700010926603DC01ED91FC910190F081E02D5A
:1024800060E009958E899F89DC01ED91FC910190B6
:10249000F081E02D612F099581E00E94F806E88126
:1024A000F9810680F781E02DCE01DF91CF911F9158
:1024B000FF90EF90DF90CF900994CF93DF93EC01E2
:1024C00010929202109291021092440310926603AD
:1024D0000E94B90687EB98E09093B5028093B4020E
:1024E00088EB98E09093B9028093B802888D91E0D0
:1024F000909343038093650381E0DF91CF910C9427
:10250000F806CF92DF92EF92FF920F931F93CF9333
:10251000DF93EC016A017B010CA51DA501151105D6
:10252000D9F0AB01960160E070E080E89FE30E9483
:102530008A31AB01BC01D801ED91FC910480F58199
:10254000E02D28A9C801DF91CF911F910F91FF9035
:10255000EF90DF90CF9009940EA4DFA5C02D2097B7
:10256000C1F0688170E090E080E00E943B30A701FC
:1025700096010E949C300E94AA326B83CE01DF91AB
:10258000CF911F910F91FF90EF90DF90CF900C941F
:10259000F80CDF91CF911F910F91FF90EF90DF909A
:1025A000CF900895FC0183A50C94BD026A3018F405
:1025B000DC0112966C93DC01ED91FC910280F381B9
:1025C000E02D0994DC011296EC91B4E0EB9FF00150
:1025D0001124E80FF91F2581368163817481FC0184
:1025E00083A550E040E02F3F320719F420E030E0AF
:1025F000A9010C94E902CF93DF93EC0161E08BA574
:102600000E94A00160E08BA50E9472018CA59DA58F
:10261000009739F0DC01ED91FC910190F081E02D03
:1026200009950EA4DFA5C02D2097A9F061E089814E
:102630000E94A00160E089810E94720161E08A81AC
:102640000E94A00160E08A810E947201CE01DF91A8
:10265000CF910C94F80CDF91CF9108957F928F92D7
:102660009F92AF92BF92CF92DF92EF92FF920F9321
:102670001F93CF93DF93EC018A890E94D1019C8341
:102680008B830E94E6016D837E838F8398872FB7AB
:10269000F8948091EF029091F002A091F102B09134
:1026A000F2022FBF0B811C814C855D8528893989F9
:1026B0004017510760F421153105A9F04B8D5C8D51
:1026C0006D8D7E8D481759076A077B0760F41D875B
:1026D0000C87AC01BD01420F531F611D711D4B8F53
:1026E0005C8F6D8F7E8F4E855F850417150760F4B4
:1026F0002115310599F04F8D58A169A17AA148178C
:1027000059076A077B0750F41F870E87820F931FB4
:10271000A11DB11D8F8F98A3A9A3BAA3CC84DD847A
:10272000EE84FF84EC18FD0879847720D1F0B7019E
:1027300090E080E00E943B302D893E894F89588D82
:102740000E949C304B015C01B60190E080E00E9449
:102750003B30A50194010E948B310E94AA327A8FEE
:10276000698F8A859B85E816F90610F4711009C0F7
:10277000298D3A8D8981882331F081E00217130772
:1027800030F480E004C081E002171307D0F74881DD
:102790008883EDA1FEA19A8121E030E001C0220FE3
:1027A0009A95EAF72095908129232083EDA1FEA137
:1027B00028819A8101C0220F9A95EAF79081292BEE
:1027C00020838427DF91CF911F910F91FF90EF908D
:1027D000DF90CF90BF90AF909F908F907F900895A3
:1027E000CF92DF92EF92FF928091920390919303A8
:1027F000A0919403B09195038093090190930A01ED
:10280000A0930B01B0930C0180918E0390918F03E4
:10281000A0919003B091910380930D0190930E01CC
:10282000A0930F01B09310018CED93E00E942E1342
:102830008091DC03882341F180E090E0A0EAB1ECD4
:102840008093920390939303A0939403B093950382
:102850006C017D01409105015091060160910701D5
:10286000709108018DE693E00E94F009B701A6017E
:102870008DE693E00E945C0B81E080938D03FF90D6
:10288000EF90DF90CF90089580E090E0A0EAB1E46F
:1028900080938E0390938F03A0939003B093910342
:1028A000D7CFCF93DF9300D000D0CDB7DEB7498329
:1028B0005A836B837C83DC018D919C91DC01ED91CB
:1028C000FC910280F381E02D44E050E0BE016F5F97
:1028D0007F4F09950F900F900F900F90DF91CF9140
:1028E0000895CF93DF9300D000D0CDB7DEB74983F2
:1028F0005A836B837C83DC018D919C91DC01ED918B
:10290000FC910280F381E02D44E050E0BE016F5F56
:102910007F4F09950F900F900F900F90DF91CF91FF
:102920000895CF93DF9300D0CDB7DEB769837A8364
:10293000DC018D919C91DC01ED91FC910280F38191
:10294000E02D42E050E0BE016F5F7F4F09950F9090
:102950000F90DF91CF910895CF93DF93EC0160E06A
:1029600072E086E795E00E9491144D815E816F814F
:10297000788586E795E00E947114809176059091A4
:102980007705ADA1BEA1EC01E881F9810190F0814C
:10299000E02D6C91DF91CF910994DC01ED91FC91D8
:1029A0000280F381E02D0994DC01ED91FC9101900E
:1029B000F081E02D0994EF92FF920F931F93CF9334
:1029C0008C017B01C42F6BE07AEA0E949114F7011D
:1029D0004085518562857385C8010E9471146C2FF2
:1029E00070E06F5F7F4FF801808191810E94D41465
:1029F000F7014481558166817781C801CF911F918C
:102A00000F91FF90EF900C945114DC01ED91FC912B
:102A10000190F081E02D0994CF93DF93E0918A0536
:102A2000F0918B05309709F480C0EC018091AE05E0
:102A30009091AF05A091B005B091B105AC01BD0179
:102A40004F5F5F4F6F4F7F4F4093AE055093AF0581
:102A50006093B0057093B10509958E3108F046C0BA
:102A60008093A305BE0186E795E00E9491148091B2
:102A7000680590916905DC01ED91FC910190F08170
:102A8000E02D6091A30509958091A305882309F4A1
:102A90004CC0E0918A05F0918B058091AE05909134
:102AA000AF05A091B005B091B105AC01BD014F5F7C
:102AB0005F4F6F4F7F4F4093AE055093AF056093CC
:102AC000B0057093B1050995682F70E0709390057B
:102AD00060938F0580916805909169050E940515A6
:102AE0008091A30581508093A305CECF1092A305BA
:102AF000E0918805F0918905309709F4B3CF809172
:102B0000AE059091AF05A091B005B091B1050197C8
:102B1000A109B1098093AE059093AF05A093B005CC
:102B2000B093B10560E009959DCFDF91CF910895F5
:102B30008DE693E00E94290B8091AC039091AD0348
:102B4000A091AE03B091AF03892B8A2B8B2B21F080
:102B50008DE693E00E94290B1092A4031092A50326
:102B60001092A6031092A7038091090190910A0187
:102B7000A0910B01B0910C01809392039093930369
:102B8000A0939403B093950380910D0190910E0151
:102B9000A0910F01B091100180938E0390938F0349
:102BA000A0939003B093910310928D0340E050E006
:102BB00060EA71E48DE693E00E94F009409109011A
:102BC00050910A0160910B0170910C018DE693E028
:102BD0000E945C0B80916A05882371F06CE370E0C1
:102BE00086E795E00E9491140E94E601AB01BC01CA
:102BF00086E795E00C9471140895ECEDF0E0E49113
:102C0000E33039F140F4E130C1F0E230E1F060E06E
:102C100085E00C947201E73041F1E83079F1E4305D
:102C2000B1F78091800080628093800085E090E021
:102C300090938B0080938A00089584B5806884BD4A
:102C400085E087BD089584B5806284BD85E088BD38
:102C500008958091800080688093800085E090E0F6
:102C6000909389008093880008958091B0008068D7
:102C70008093B00085E08093B30008958091B00008
:102C800080628093B00085E08093B400089560E096
:102C9000809169030E94720180E590E00C94831199
:102CA00060E0FC0185810E94720184E591E00C9452
:102CB00083110F931F93CF93DF938C01C62FD42FD3
:102CC0000E9450168C2F880F0E947C11C82F8D2FC8
:102CD0000E947C11D82F61E0F80185810E94720169
:102CE000F8018481CF73C82BC4838D2FDF91CF91DE
:102CF0001F910F9108950F931F93CF93DF93EC01D2
:102D0000AA8DBB8DA617B70770F5B98FA88F088D50
:102D1000198D84E0000F111F8A95E1F7288930E0B2
:102D20000E947B312FEF30E040E050E00E94A23360
:102D3000C801B9010E948E336623C1F0613108F0E9
:102D400060E149894F7080E1861B20E1829FC001CC
:102D50001124482B498B63E0CE01DF91CF911F9165
:102D60000F910C945916798F688FD1CF61E0E9CF1C
:102D7000FC01438945FF06C060FB47F9438B65E0D2
:102D80000C94591686810C947201FC01258522FF52
:102D900004C060E080850C94720142894F77428BB9
:102DA00064E00C945916CF93DF93EC014A8947FDF8
:102DB00005C040684A8B64E00E9459168D8582FFE9
:102DC00006C061E08885DF91CF910C947201DF919C
:102DD000CF9108951F93CF93DF93EC0161E08D8134
:102DE0000E94A00161E08D810E9472018C8583FDAB
:102DF00004C097E0998788608C878C8583FF12C018
:102E000061E089850E94A00161E089850E947201CC
:102E10008C8588608C878D8588608D878BEB92E1AF
:102E20000197F1F70E945C06198A8FE08A8B80E394
:102E30008B8B8C8B18E01D8B83E08E8B80E28F8BCD
:102E400040E063E0CE010E9459164A8964E0CE0159
:102E50000E9459164B8965E0CE010E9459164C8993
:102E600066E0CE010E9459164D8967E0CE010E94AE
:102E700059164E8968E0CE010E9459164F8969E0C3
:102E8000CE010E9459168C8582FD03C0188784608C
:102E90008C878C8582FF15C061E088850E94A00127
:102EA00060E088850E9472018C8584608C878D85A6
:102EB00084608D874A8940684A8B64E0CE010E9415
:102EC00059168C8581FD04C099E09E8382608C87B1
:102ED0008C8581FF15C061E08E810E94A00160E0B9
:102EE0008E810E9472018C8582608C878D858260C4
:102EF0008D874B894F7D4B8B65E0CE010E94591623
:102F00008C8580FD04C09AE09F8381608C878C85CE
:102F100080FF15C061E08F810E94A00160E08F8179
:102F20000E9472018C8581608C878D8581608D8780
:102F30004B894F7E4B8B65E0CE010E9459168C85E4
:102F400084FD04C092E09A8780618C878C8584FF21
:102F50000AC060E08A850E94A0018C8580618C8710
:102F60008D8580618D8780E0DF91CF911F910895DD
:102F7000CF92DF92EF92FF920F931F93CF93DF9345
:102F8000EC012889AA8DBB8D30E00E947B312FEFA8
:102F900030E040E050E00E94A2336901CE010E947F
:102FA000501686E40E947C11082F80E00E947C115C
:102FB000182F61E08D810E9472018C810F73082BA4
:102FC0000C83198B812F90E024E0959587952A95A5
:102FD000E1F720E130E0281B390B2C9DC0012D9D2D
:102FE000900D3C9D900D112434E0969587953A956F
:102FF000E1F7DF91CF911F910F91FF90EF90DF905C
:10300000CF900895CF93DF93FC01438944FF07C01D
:103010004064438B65E0DF91CF910C945916EC012D
:1030200061E087810E94720160E08F81DF91CF9122
:103030000C947201FF920F931F93CF93DF93EC01D7
:10304000042FF22E632B162F142B8C899D89892B2C
:1030500009F072C08CE08093B8008F89988D298D1B
:1030600031E03093430320936503109244031092A0
:103070006603DC01ED91FC910190F081E02D612F60
:1030800009950C3009F048C081E00E94F8068823B9
:1030900041F08FEF9FEFDF91CF911F910F91FF9044
:1030A000089562E0898D0E94E80710929202809351
:1030B00091028230A8F48F89988DDC01ED91FC910A
:1030C0000084F185E02D0995892B19F38F89988D5E
:1030D000DC01ED91FC910284F385E02D0995EBCFA5
:1030E0008F89988DDC01ED91FC910284F385E02DB0
:1030F0000995082F8F89988DDC01ED91FC91028450
:10310000F385E02D0995182F802F90E0982F8827C0
:10311000810F911D9170BFCF8F89988DDC01ED914A
:10312000FC910190F081E02D6F2D099581E00E94C6
:10313000F806182F00E0E8CF81E590E00E948311A7
:1031400060E08E890E947201812F0E947C11082FFD
:103150008F2D0E947C11182F61E08E890E947201D0
:10316000D3CF4F925F926F927F928F929F92AF9246
:10317000BF92CF92DF92EF92FF92CF93DF93EC0159
:103180002FEF31E04CE0611147C0CE010E941A18C8
:10319000BC0190E080E00E943B306B017C016A85BD
:1031A0007B8590E080E00E943B309B01AC01C70131
:1031B000B6010E94F7319B01AC01C888D988EA8822
:1031C000FB88C701B6010E949C309B01AC018C8436
:1031D0009D84AE84BF84C501B4010E948B312B0154
:1031E0003C01A5019401C701B6010E948B319B01EE
:1031F000AC01C301B2010E94F731DF91CF91FF9082
:10320000EF90DF90CF90BF90AF909F908F907F9086
:103210006F905F904F90089560E1B7CFCF92DF92AB
:10322000EF92FF921F93CF93DF93EC016A017B0132
:10323000122F6A857B8590E080E00E943B30A701D9
:1032400096010E949C300E94AA329B0140E060E0FF
:10325000111160E1CE010E941A18E881F981008401
:10326000F185E02D612FCE01DF91CF911F91FF906D
:10327000EF90DF90CF9009944F925F926F927F9280
:103280008F929F92AF92BF92CF92DF92EF92FF9276
:10329000CF93DF93EC018CE08093B80061E0888DE0
:1032A0000E94E8071092920280939102882309F409
:1032B0004EC08E899F89DC01ED91FC910284F385DB
:1032C000E02D0995682F70E090E080E00E943B308F
:1032D0006B017C016C897D8990E080E00E943B302D
:1032E0009B01AC01C701B6010E94F7319B01AC0103
:1032F000C888D988EA88FB88C701B6010E949C303B
:103300009B01AC018C849D84AE84BF84C501B40153
:103310000E948B312B013C01A5019401C701B6012C
:103320000E948B319B01AC01C301B2010E94F731B5
:10333000DF91CF91FF90EF90DF90CF90BF90AF9053
:103340009F908F907F906F905F904F9008958FEF38
:10335000B9CF0E940E3585ED8093BC0080913F036C
:1033600090914003A0914103B09142030796A11DA3
:10337000B11D23E0B695A795979587952A95D1F726
:103380002091BC0024FD03C010923D03089540919C
:103390003F03509140036091410370914203452BDC
:1033A000462B472B69F30097A105B10541F02AE2AE
:1033B0002A95F1F700C00197A109B109E1CF8091E9
:1033C0003E030C94D7064F925F926F927F928F923A
:1033D0009F92AF92BF92CF92DF92EF92FF920F93A4
:1033E0001F93CF93DF93CDB7DEB72A970FB6F8942C
:1033F000DEBF0FBECDBF8C01FC0181A90E94D101AF
:10340000F801938382830E94E601F8016087718747
:10341000828793876281738190E080E00E943B30D5
:10342000F80120893189428953890E948A31F80143
:1034300024853585468557850E949C306B017C012B
:10344000F801C482D582E682F78223A134A13A87AB
:103450002987232B09F494C00E94E6014B015C01EB
:10346000E985FA85828D938DA48DB58DA501940192
:10347000281B390B4A0B5B0BCA01B9010E943D3076
:103480009B01AC01E985FA85268B378B408F518FE4
:10349000828E938EA48EB58E428453846484758408
:1034A00046865786608A718AC28AD38AE48AF58AF8
:1034B00082809380A480B580C501B4010E94F73159
:1034C0009B01AC01E985FA852683378340875187C4
:1034D00060E070E080E89FEB0E94F7310E9471325B
:1034E00069837A838B839C839B01AC0160E070E0ED
:1034F00080E89FE30E948A31A70196010E949C30D8
:103500006D837E838F83988729813A814B815C818B
:10351000C301B2010E949C309B01AC016D817E8190
:103520008F8198850E948B312B013C01E985FA85BA
:1035300042865386648675868081918181309105AB
:10354000D1F0D0F18230910531F00397E1F1412CB7
:10355000512C320110C020E034E244E759E4C501A7
:10356000B4010E94F7319B01AC01C301B2010E947A
:103570009C302B013C01F80144825582668277829F
:10358000F80164817581868197812A960FB6F89437
:10359000DEBF0FBECDBFDF91CF911F910F91FF9086
:1035A000EF90DF90CF90BF90AF909F908F907F90E3
:1035B0006F905F904F900895A3019201C701B601EB
:1035C0000E948A31D6CFA3019201C701B6010E94A1
:1035D0008A316B017C0120E034E244E759E4C50103
:1035E000B4010E94F7319B01AC01C701B6010E94F2
:1035F000F731BFCF0C945A310C9462311F920F9265
:103600000FB60F9211242F933F938F939F93AF93F5
:10361000BF938091EF029091F002A091F102B091DE
:10362000F2023091EE0223E0230F2D3758F5019678
:10363000A11DB11D2093EE028093EF029093F00242
:10364000A093F102B093F2028091F3029091F40200
:10365000A091F502B091F6020196A11DB11D8093D3
:10366000F3029093F402A093F502B093F602BF9197
:10367000AF919F918F913F912F910F900FBE0F901F
:103680001F90189526E8230F0296A11DB11DD2CFD9
:103690001F920F920FB60F9211242F933F934F93C7
:1036A0005F936F937F938F939F93AF93BF93EF93AA
:1036B000FF93E0910301F09104010995FF91EF91CF
:1036C000BF91AF919F918F917F916F915F914F913A
:1036D0003F912F910F900FBE0F901F9018951F9242
:1036E0000F920FB60F9211242F933F934F935F9336
:1036F0006F937F938F939F93AF93BF93EF93FF93BA
:10370000E0910101F09102010995FF91EF91BF91C4
:10371000AF919F918F917F916F915F914F913F9169
:103720002F910F900FBE0F901F9018951F920F9220
:103730000FB60F9211242F933F934F935F936F9384
:103740007F938F939F93AF93BF93EF93FF9380915A
:10375000E9029091EA02A091EB02B091EC02892B70
:103760008A2B8B2BD1F19091E802E091E602F09147
:10377000E7028081892780838091E9029091EA02A3
:10378000A091EB02B091EC02181619061A061B065E
:103790009CF48091E9029091EA02A091EB02B09131
:1037A000EC020197A109B1098093E9029093EA0222
:1037B000A093EB02B093EC02FF91EF91BF91AF9118
:1037C0009F918F917F916F915F914F913F912F9139
:1037D0000F900FBE0F901F901895809100010E94CE
:1037E000BD02EACF1F920F920FB60F9211242F93B2
:1037F0003F934F935F936F937F938F939F93AF9379
:10380000BF93EF93FF938BEC94E00E94CD05FF9163
:10381000EF91BF91AF919F918F917F916F915F9148
:103820004F913F912F910F900FBE0F901F901895C1
:103830001F920F920FB60F9211242F938F939F9385
:10384000EF93FF93E091DB04F091DC048081E09141
:10385000E104F091E20482FD1BC090818091E404B8
:103860008F5F8F732091E504821741F0E091E404AB
:10387000F0E0E553FB4F958F8093E404FF91EF91C7
:103880009F918F912F910F900FBE0F901F901895C1
:103890008081F4CF1F920F920FB60F9211242F93B5
:1038A0003F934F935F936F937F938F939F93AF93C8
:1038B000BF93EF93FF938091B900887F803609F41E
:1038C0004AC0F0F5883209F4A7C018F5803109F430
:1038D0009BC0B8F4882309F4F9C0883009F494C077
:1038E000FF91EF91BF91AF919F918F917F916F91D8
:1038F0005F914F913F912F910F900FBE0F901F90AE
:103900001895883109F488C0803251F780933B03C1
:1039100014C0803409F49DC040F48033B9F3883377
:10392000F9F680933B0385ECB0C0803509F485C07F
:10393000883509F496C0883499F60E94AB19D0CF27
:10394000883909F48CC038F5883729F050F4883666
:1039500011F0803729F683E080933D031092DA025C
:1039600057C0883809F47BC0803919F0803809F0D5
:10397000B7CF8091DA02803208F071C0E091DA02AC
:1039800081E08E0F8093DA028091BB00F0E0E65474
:10399000FD4F80833DC0803B39F0E0F4803A09F46C
:1039A00079C0883A09F09CCF84E080933D0310925F
:1039B000B7021092B602E091B402F091B5020995F7
:1039C0008091B60281110FC081E08093B6021092FF
:1039D000940209C0803C09F4A6CF883C09F4A3CF27
:1039E000883B09F07DCFE091B70281E08E0F809394
:1039F000B702F0E0EC56FD4F80818093BB009091C0
:103A0000B7028091B60229C0809118038093BB0051
:103A100085EC8093BC0064CF90913A038091390388
:103A2000981758F5E0913A0381E08E0F80933A039E
:103A3000F0E0E75EFC4F8081E9CFE0913A0381E05E
:103A40008E0F80933A038091BB00F0E0E75EFC4F5D
:103A5000808390913A03809139039817C8F285E8E2
:103A6000D8CFE0913A0381E08E0F80933A038091A2
:103A7000BB00F0E0E75EFC4F808380913C03811146
:103A80005CCF81E08093170384EA8093BC0010929E
:103A90003D0326CF85EC8093BC0010923D038091BE
:103AA000DA02803230F4E091DA02F0E0E654FD4FC1
:103AB00010826091DA0270E0E091B802F091B902F0
:103AC0008AEB92E009951092DA020ACF10923B033A
:103AD00034CF4F925F926F927F928F929F92AF926C
:103AE000BF92CF92DF92FF920F931F93CF93DF93FA
:103AF000CDB7DEB76C970FB6F894DEBF0FBECDBF63
:103B0000ABECB4E013961C921E92129748EE53E071
:103B100060E070E014964D935D936D937C931797DE
:103B20002BE131E011963C932E9325EC30E01D966D
:103B30003C932E931C9724EC30E01F963C932E93DD
:103B40001E9720EC30E051963C932E93509721EC39
:103B500030E053963C932E93529722EC30E05596EA
:103B60003C932E93549726EC30E057963C932E933B
:103B7000569759961C9259975A961C925A975B964B
:103B80001C925B975C961C925C9785EAC82E84E039
:103B9000D82EF6011382128244835583668377837D
:103BA0002DE231E031832083E8E6F5E0B183A083A4
:103BB00012828AEF90E09483838340E157E260E0D1
:103BC00070E045835683678370871586118A108A53
:103BD000138A128A158A148A178A168A118E108EF1
:103BE000138E128E158E148E178E168E11A210A2A1
:103BF00013A212A215A214A21092B6051092B90532
:103C00001092BD051092BC051092BF051092BE0522
:103C1000FF24F394F6A201EB14E0812C912C96E999
:103C2000A92E92E4B92EF80184869586A686B786D9
:103C300040E050E46CE176E4408B518B628B738BF7
:103C4000158A148A88E2818FD08EC78A80E890E036
:103C50009387828781EA91E091838083ECE8F4E0A6
:103C60008BE891E091838083412C512C20E7622ED8
:103C700022E4722E4486558666867786408B518B69
:103C8000628B738B8FE390E0958B848B8CE2808FBB
:103C9000D78AC68AE2E5F4E0412C512C30E8632E45
:103CA0003FE3732E4486558666867786108A118A8E
:103CB000128A138A84E6848B168A158A108E178AD4
:103CC000118E128E80E490E0948F838F84E490E0D4
:103CD000968F858F88E490E090A3878F8CE490E0A6
:103CE00092A381A314A213A216A215A210A617A232
:103CF00085E791E09183808380E090E4ACE9B6E4CD
:103D000081A792A7A3A7B4A780E090E0A8ECB2E4B3
:103D100085A796A7A7A7B0AB84E181AB42AB53AB15
:103D200064AB75AB46AA57AA60AE71AE44E3642E8D
:103D300044E0742E81E090E0F3019183808384E974
:103D400091EFA6ECB4E482839383A483B5831286B7
:103D500013861486158616861786108A118A128A8B
:103D6000138A148A158A0E94E601F301628F738F09
:103D7000848F958FE3E0F4E089E691E0918380837E
:103D800012828FE083A717A616A6F0AA15A704A78C
:103D9000ECEDF3E0F1821282F18684E690E0938705
:103DA00082878FEF9FEF958784871786168680E33B
:103DB00095E7918B808B83E0828B2FEF238B248B75
:103DC00080E090E0A0E0BFE3858B968BA78BB08F5F
:103DD00088EE93E094A383A316A215A28FEB93E041
:103DE0004FE451E0FC0151834083138212823EE094
:103DF000358337E03187208B24EF31E0318F208FFE
:103E000024EC39E0338F228F148E4EEB53E057872A
:103E100046872485286024872CE1E3EBF1E0DE016E
:103E2000119601900D922A95E1F7EDE6F3E02FE36C
:103E300031E03183208310A281A292A2A3A2B4A276
:103E400015A216A217A210A611A612A613A614A6B2
:103E50001092AC031092AD031092AE031092AF0318
:103E600028E833E13093B1032093B00300E910ED6B
:103E700023E030E00093B2031093B3032093B40324
:103E80003093B50396A785A78CE1FE013196AFE686
:103E9000B3E001900D928A95E1F7E7E6F3E084E064
:103EA0008283518340836C960FB6F894DEBF0FBEB9
:103EB000CDBFDF91CF911F910F91FF90DF90CF90F9
:103EC000BF90AF909F908F907F906F905F904F903A
:103ED0000895CF93DF93CDB7DEB7E8970FB6F89488
:103EE000DEBF0FBECDBF789484B5826084BD84B53B
:103EF000816084BD85B5826085BD85B5816085BDE5
:103F000080916E00816080936E001092810080919C
:103F10008100826080938100809181008160809324
:103F20008100809180008160809380008091B10049
:103F300084608093B1008091B00081608093B00074
:103F400080917A00846080937A0080917A00826008
:103F500080937A0080917A00816080937A008091CA
:103F60007A00806880937A001092C1008FE092E01E
:103F700090937905809378058BE492E090937B058C
:103F800080937A0584E792E090937D0580937C0589
:103F90008DE992E090938705809386058CEF9AE1F6
:103FA00090938905809388058AEF9AE190938B0519
:103FB00080938A0580EF93E19093BD058093BC05C3
:103FC0008FEB93E09093C1058093C0058DE693E05D
:103FD0009093BB058093BA0582E594E09093B80571
:103FE0008093B70583E094E09093B3058093B20586
:103FF0008CED93E09093B5058093B40540E052ECCE
:1040000061E070E080916805909169050E94A100CF
:104010008091680590916905909377058093760566
:1040200063E270E086E795E00E94911461E085E02C
:104030000E94A00161E085E00E94A0010E94FD15A0
:104040001092ED031092EC0384E690E09093F60357
:104050008093F5031092E5039093E7038093E603C2
:104060008091010490910204892B51F481E090E049
:104070000E94E9339093020480930104DC011C92B6
:1040800060E08091EE030E94A0012FB7F894809128
:10409000EF029091F002A091F102B091F2022FBFD5
:1040A0002091FF0330910004820F931FA11DB11DC9
:1040B0008093F7039093F803A093F903B093FA0366
:1040C0008093FB039093FC03A093FD03B093FE0346
:1040D0008CEF9AE190937804809377048AEF9AE1C9
:1040E00090937A048093790480E090E4ACE1B6E4A4
:1040F0008093C1049093C204A093C304B093C404FA
:1041000081EB94E090936A048093690410926C04AC
:1041100080E090E0AAE7B4E480939C0490939D042F
:10412000A0939E04B0939F048CE894E0909368045D
:104130008093670484E394E09093760480937504FD
:1041400080E094E2A4E7B9E480937B0490937C043C
:10415000A0937D04B0937E0482E594E00E94C70F93
:1041600083E094E00E94FB1240E050E060E87FE3CF
:1041700083E094E00E948112E3E0F4E088EE93E0B3
:1041800022E330E094838383368325838C599F4FC9
:104190003496803DB7E09B07A9F789E0809305043A
:1041A00080919A0390919B03DC01ED91FC91019029
:1041B000F081E02D0995C0907703D0907803E090CE
:1041C0007903F0907A0320E030E0A901C701B6013D
:1041D0000E943630882331F0B701A6018DE693E0C6
:1041E0000E943D0AC0907B03D0907C03E0907D0349
:1041F000F0907E0320E030E0A901C701B6010E94E3
:104200003630882331F0B701A6018DE693E00E9495
:10421000F009C0907F03D0908003E0908103F0907C
:10422000820320E030E0A901C701B6010E943630C8
:10423000882331F0B701A6018DE693E00E948A0A37
:104240006091890370918A036115710559F080911D
:104250009A0390919B03DC01ED91FC910288F38914
:10426000E02D09956BEC7EE08FEB93E00E947E0CD5
:104270006CE271E08FEB93E00E947B164091D303D8
:1042800066E08FEB93E00E94591681E080938B03E8
:1042900080910D0190910E01A0910F01B09110013C
:1042A00080938E0390938F03A0939003B093910318
:1042B0008091090190910A01A0910B01B0910C012C
:1042C0008093920390939303A0939403B0939503E8
:1042D0008091AC039091AD03A091AE03B091AF0378
:1042E000892B8A2B8B2B21F08DE693E00E94290BE2
:1042F0001092A4031092A5031092A6031092A70394
:10430000C0900501D0900601E0900701F0900801EF
:1043100020E030E040EA50E4C701B6010E940033DB
:10432000181634F0C12CD12C40EAE42E40E4F42ECF
:10433000C0920501D0920601E0920701F0920801B7
:1043400061E0809169030E94A00161E080916903AE
:104350000E9472010E945C0684E080936A0383E0FD
:1043600080936B030E94471688E80E947C1183E0CB
:104370000E947C110E94771180E880936C030E9458
:10438000471680E90E947C1180E80E947C110E94FF
:1043900077110E94471680E20E947C110E947711DB
:1043A000FE013A96FCABEBABAA24A394B12C80910E
:1043B000680590916905DC01ED91FC910084F1851F
:1043C000E02D0995892BD1F18091680590916905BF
:1043D000DC01ED91FC910284F385E02D0995682FB5
:1043E000482F592F5093900540938F05E0919405E5
:1043F000F0919505309711F00C94B72A80919305B0
:104400008111DAC0509392054093910581E0809329
:1044100093058091940590919505892B11F00C944A
:104420004D2F8091930581110C944D2F1092A5056D
:104430001092A6051092A7051092A8058091A505D7
:104440009091A605A091A705B091A805892B8A2B6C
:104450008B2BD1F02FB7F8948091EF029091F0025E
:10446000A091F102B091F2022FBF4091A5055091A9
:10447000A6056091A7057091A805481759076A0716
:104480007B0710F40E94010182E594E00E94E31989
:1044900080916A0580FF34C00E94E6010091710599
:1044A0001091720520917305309174050617170756
:1044B0002807390710F00C946A2F40E062E574E099
:1044C00086E795E00E94DB1480917105909172055A
:1044D000A0917305B091740540916D0550916E05E2
:1044E00060916F0570917005840F951FA61FB71F0F
:1044F0008093710590937205A0937305B093740532
:104500001091ED0280918D0381111CC0C090BA03FF
:10451000D090BB03E090BC03F090BD0320919603C4
:10452000309197034091980350919903C701B601C8
:104530000E943630882331F0B701A6018DE693E062
:104540000E945C0B8091AC039091AD03A091AE03EF
:10455000B091AF03892B8A2B8B2BD9F04091A40308
:104560005091A5036091A6037091A7038091A803C1
:104570009091A903A091AA03B091AB0348175907E2
:104580006A077B0711F00C94722F8DE693E00E946E
:10459000290B1092ED020E94471680E60E947C11C2
:1045A00000E080916A03081710F00C94093080E055
:1045B0000E947C110F5FF5CF742F662780919105C3
:1045C00090919205680F791F709392056093910501
:1045D000109293056A37710509F414C408F0C2C13A
:1045E0006134710509F493C608F0E7C06E307105B7
:1045F00009F470C308F05EC06530710509F4A5C305
:10460000C8F46130710509F41BC308F416C36230A5
:10461000710509F41CC36430710509F4B2C361E289
:1046200070E086E795E00E94911460919105709189
:10463000920508C36730710509F4B4C308F4CAC30E
:104640006830710509F41AC36C30710541F7DE0159
:104650001196EEE0F0E08D0121E2CF01019620936A
:104660005700E491ED93FC01449711F4E5E1F0E08B
:104670004BA95CA94A175B0781F76DE070E086E7FC
:1046800095E00E94911469E070E080917605909128
:1046900077050E9405158091760590917705DC01DC
:1046A000ED91FC910280F381E02D49E050E0B801EA
:1046B0000995AFCE6831710509F4D2C208F048C03F
:1046C0006131710509F42BC390F46031710509F073
:1046D000A6CFB0929505A092940582E08093A305A1
:1046E00084E090E090939705809396058AC26231AA
:1046F000710509F427C36631710509F090CFE09187
:104700007805F0917905309709F48BCECE010196AA
:104710000995182F65E170E086E795E00E949114F5
:104720008091760590917705DC01ED91FC910190E7
:10473000F081E02D612F0995412F50E0BE016F5FA0
:104740007F4F80917605909177050E94CD1461CEC0
:104750006B33710509F4D2C590F46A31710509F023
:104760005ECFE0917C05F0917D05309709F459CE3C
:10477000CE0101960995182F69E170E0CDCF6F3316
:10478000710509F4CEC56034710509F048CF8091F8
:10479000BA059091BB05892B09F443CE61E470E022
:1047A00086E795E00E949114E091BA05F091BB056F
:1047B00041A552A563A574A540C46235710509F4ED
:1047C00011C608F060C06734710509F4CFC508F060
:1047D00042C06434710509F4A9C5F8F46234710566
:1047E00009F01DCF8091BA059091BB05892B09F482
:1047F00018CE63E470E086E795E00E949114809102
:10480000BA059091BB05DC01D7964D915D916D91F4
:104810007C91DA970E944C098DC36534710509F4C7
:104820009BC56634710509F0FACE8091BA05909166
:10483000BB05892B09F4F5CD67E470E086E795E0C8
:104840000E949114E091BA05F091BB0541A152A1DB
:1048500063A174A1F2C36934710509F4A5C508F414
:104860008FC56035710509F4A9C56135710509F079
:10487000D6CEB0929505A092940582E08093A305D0
:104880008DE390E02FCF6735710509F469C630F5E7
:104890006435710509F442C608F436C665357105FC
:1048A00009F457C66635710509F0B9CE8091C00587
:1048B0009091C105892B09F4B4CD67E570E086E7D6
:1048C00095E00E9491148091C0059091C105DC0192
:1048D000ED91FC910088F189E02D38C667367105AD
:1048E00009F483C2B8F46536710509F481C26636ED
:1048F000710509F094CE65E670E086E795E00E94C8
:10490000911440916D0550916E0560916F05709105
:104910007005EAC16837710509F493C269377105FA
:1049200009F07DCE82E190E0909395058093940507
:1049300083E08093A30583E090E0909397058093B4
:10494000960583E190E090939905809398051092E5
:10495000AE051092AF051092B0051092B1051092FD
:10496000A20557CD6B30B2E07B0709F485C308F090
:10497000A2C06B30F1E07F0709F4BAC208F045C06D
:10498000663031E0730709F47DC228F5613051E0EB
:10499000750709F468C238F46115714009F03FCE1B
:1049A00081E290E044C06430A1E07A0709F467C274
:1049B0006530714009F033CE64E071E086E795E040
:1049C0000E949114E091B205F091B305628170E00C
:1049D0006F5F7F4F63C36830E1E07E0709F46DC20B
:1049E00008F457C2693021E0720709F46DC26A30D9
:1049F000714009F014CEB0929505A092940582E022
:104A00008093A30585E290E06DCE663042E07407A6
:104A100009F4F5C2E8F5613082E0780709F4AFC225
:104A200058F48FE090E06036714009F0F8CD909333
:104A3000950580939405EDCC6330B2E07B0709F4D3
:104A4000B0C26530724009F0EACD64E072E086E7FA
:104A500095E00E949114E091B605F0E0EE0FFF1F83
:104A6000EC54FA4F0190F081E02D6485758586E75E
:104A700095E00E949114E091B605F0E0EE0FFF1F63
:104A8000EC54FA4F0190F081E02D66857785DAC00D
:104A90006830F2E07F0709F4D5C208F4BAC2693081
:104AA00032E0730709F4D5C28FE290E06A307240B9
:104AB00009F4BDCFB4CD6D305AEA750709F4A4C32B
:104AC00008F063C066309AEA790709F462C390F58A
:104AD0006436B5E67B0709F49CCCC8F46C307240B0
:104AE00009F09DCDE091B605F0E0EE0FFF1FEC540C
:104AF000FA4F0190F081E02D2FEF3FEF35872487AB
:104B000017861686128E118E81E0818782CC6236DE
:104B100024E7720709F4EDC06336744709F07FCDCE
:104B200085E090E090939505809394058FEF8093B6
:104B3000A3056FCC69304AEA740709F4B6C238F4A9
:104B400068307A4A09F06BCD8CE490E070CF6A301F
:104B50009AEA790709F4B2C26C307A4A09F05FCD5B
:104B6000E091B905F0E0EE0FFF1FE954FA4F008124
:104B700011816DE07AEA86E795E00E949114F801D0
:104B8000408951896289738958C26231BAEA7B07C8
:104B900009F4B7C2D0F46F30FAEA7F0709F459C3B9
:104BA00008F440C360313AEA730709F45CC3613129
:104BB0007A4A09F034CDB0929505A092940582E02E
:104BC0008093A3058FE490E08DCD66315AEA750796
:104BD00009F47AC3F8F464319AEA790709F45DC3F9
:104BE00065317A4A09F01BCDB0929505A0929405E3
:104BF00082E08093A305E0E5F0E0F0939705E09371
:104C000096051092A9051092AA051092AB05109274
:104C1000AC05A5CE6731BAEA7B0709F466C36831F3
:104C20007A4A09F0FCCCB0929505A092940582E0F6
:104C30008093A30522E530E0F0C20E940101E9CB98
:104C40006DEC7BEA86E795E00E949114E2CB63E08D
:104C500070E086E795E00E9491146FE070E0F2CF7B
:104C6000E0917A05F0917B05309709F4DACBCE011B
:104C700001960995182F67E170E04ECD69E070E06C
:104C800086E795E00E94911463E070E080916805EA
:104C9000909169050E94D414E0918605F0918705F2
:104CA000E0906805F0906905D701309759F08D9133
:104CB0009C91DC010D911C910995682FC701F801A9
:104CC0000995A7CBED91FC910190F081E02D60E07A
:104CD000C701F6CF6FE070E086E795E00E9491147F
:104CE00040E052EC61E070E086E795E00E947114CC
:104CF00090CB63E674E786E795E00E94911410E09C
:104D000000E0B80180917605909177050E94051525
:104D10000F5F1F4F0115B1E01B0799F77ACB62E1D6
:104D200070E086E795E00E9491148091680590916B
:104D30006905DC01ED91FC910190F081E02D60911D
:104D40007505BECF86E090E072CE83E090E0909350
:104D500095058093940583E190E090939705809367
:104D6000960581E08093AD052EE130E040E050E013
:104D70002093AE053093AF054093B0055093B10535
:104D800048CB8EE190E0A0E0B0E08093AE05909338
:104D9000AF05A093B005B093B10585E090E00E9407
:104DA0000C1537CB83E090E09093950580939405A4
:104DB00083E190E0909397058093960581E080933E
:104DC000AD051092AE051092AF051092B00510928D
:104DD000B1051FCB1092AE051092AF051092B00531
:104DE0001092B10587E090E0DACF80E190E01FCE2D
:104DF000B0929505A092940582E08093A30581E18D
:104E000090E070CCE0918C05F0918D05309709F41D
:104E100008CB09956093A9057093AA058093AB050B
:104E20009093AC056BE770E086E795E00E949114E3
:104E30004091A9055091AA056091AB057091AC0510
:104E400053CF82E190E0909395058093940583E0A1
:104E50008093A30583E090E0909397058093960557
:104E600084E190E070CD8091B2059091B305DC01B2
:104E7000ED91FC910680F781E02D0995CACA82E286
:104E800090E0D5CDB0929505A092940583E290E094
:104E900029CC66E071E086E795E00E949114E091EC
:104EA000B205F091B3058281B4E08B9FC00111245B
:104EB000E80FF91F63817481C5CEB0929505A09269
:104EC000940584E290E00ECC68E071E086E795E01E
:104ED0000E949114E091B205F091B305828124E023
:104EE000829FC0011124E80FF91F65817681AACE47
:104EF0006AE071E086E795E00E949114A091B20506
:104F0000B091B3059C968D919C919D970097A9F0C7
:104F1000FC0120813181F90120853185D0966C9189
:104F2000F90109959B01AC0160E070E080E89FE326
:104F30000E948A31AB01BC0180C09E960D911C91EC
:104F400060E070E080E89FE30115110599F3D80156
:104F500013966C9170E090E080E00E943B306B0112
:104F60007C01F801608170E090E080E00E943B30BD
:104F70009B01AC01C701B6010E94F731DBCF8091E4
:104F8000B4059091B5050E942E13E091B605F0E0AE
:104F9000EE0FFF1FEC54FA4F808191810E94AC14F8
:104FA00038CAE091B605F0E0EE0FFF1FEC54FA4F5F
:104FB000808191810E942E1362E072E086E795E085
:104FC0000E949114E091B605F0E0EE0FFF1FEC5443
:104FD000FA4F0190F081E02D4581568167817085FF
:104FE00086E795E00E947114E091B605F0E0EE0FBF
:104FF000FF1FEC54FA4F0190F081E02D5BCFB0928F
:105000009505A092940582E08093A3058DE290E03F
:1050100069CB66E072E086E795E00E949114E0912A
:10502000B605F0E0EE0FFF1FEC54FA4F0190F0814F
:10503000E02D458956896789708D86E795E00E9445
:105040005114E7C9B0929505A09294058EE290E0C4
:1050500049CB68E072E086E795E00E949114E09108
:10506000B605F0E0EE0FFF1FEC54FA4F0190F0810F
:10507000E02D618D728DE6CD6AE072E086E795E005
:105080000E949114E091B605F0E0EE0FFF1FEC5482
:10509000FA4F0190F081E02D618570E08091680504
:1050A000909169050E94D414B4C968E07AEA86E751
:1050B00095E00E9491146091B90589CC80916A05B0
:1050C000811110C0E091B905F0E0EE0FFF1FE95427
:1050D000FA4F80819181DC01ED91FC910280F38196
:1050E000E02D09954091B905E42FF0E0EE0FFF1F88
:1050F000E954FA4F6081718186E795E00E94DB14E4
:1051000088C980916A05811110C0E091B905F0E06D
:10511000EE0FFF1FE954FA4F80819181DC01ED9180
:10512000FC910280F381E02D09950091B90510E012
:10513000F801EE0FFF1FE954FA4FE080F18020E004
:1051400030E040E251E4F701648175818681978106
:105150000E949C300E94A3322B0163E17AEA86E729
:1051600095E00E949114D70118964D915D916D9133
:105170007C911B9786E795E00E947114B8016F5FE0
:105180007F4F80917605909177050E94D414B201EB
:1051900059CD80916A05811110C0E091B905F0E008
:1051A000EE0FFF1FE954FA4F80819181DC01ED91F0
:1051B000FC910280F381E02D0995E090B905F12C76
:1051C000F701EE0FFF1FE954FA4F0081118167E0EC
:1051D0007AEA86E795E00E949114F80140855185AE
:1051E0006285738586E795E00E947114B7016F5F51
:1051F0007F4F80917605909177050E94D414D80155
:1052000012966D917C911ECDB0929505A092940559
:1052100082E08093A3052DE430E03093970520933E
:105220009605EFCCE091B905F0E0EE0FFF1FE954D1
:10523000FA4F008111816FE07AEA86E795E00E94DB
:105240009114D8011C964D915D916D917C911F97A1
:10525000F4CEB0929505A092940582E08093A305C8
:105260008EE490E03FCAE091B905F0E0EE0FFF1F39
:10527000E954FA4F0081118161E17AEA86E795E00D
:105280000E949114F8018789908DDC01ED91FC91C9
:105290000680F781E02D09954DCEE091B905F0E04B
:1052A000EE0FFF1FE954FA4F0081118165E17AEAA0
:1052B00086E795E00E949114D801ED91FC9106805B
:1052C000F781E02DC801E7CFE091B905F0E0EE0FDE
:1052D000FF1FE954FA4F80819181DC01ED91FC912F
:1052E0000684F785E02D099594C8B0929505A092A3
:1052F00094051092A305E1E5F0E07FCCE091BC05B8
:10530000F091BD05309709F48CC8099582C8B09218
:105310009505A092940582E08093A30589E390E02F
:10532000E1C9E091BE05F091BF05ECCF8091BA05CF
:105330009091BB05892B09F474C865E470E086E799
:1053400095E00E949114E091BA05F091BB0545A14A
:1053500056A167A170A571CEB0929505A092940553
:1053600082E08093A3058AE390E0BCC9B0929505E2
:10537000A092940582E08093A3058BE390E0B2C9EC
:105380008091BA059091BB05892B09F44AC869E45C
:1053900070E086E795E00E9491148091BA059091A3
:1053A000BB050E94660AC6CDB0929505A0929405F1
:1053B00082E08093A3058CE390E094C98091BA05C4
:1053C0009091BB05892B09F42CC861E570E086E754
:1053D00095E00E9491148091BA059091BB050E94BE
:1053E000190AA8CD8091BA059091BB05892B09F4C3
:1053F00018C863E570E086E795E00E94911400917B
:10540000BA051091BB05F80187A590A9892B39F43D
:105410004285538564857585C8010E943D0AD8017F
:10542000D1968D919C91D297892B49F41E964D91DE
:105430005D916D917C915197C8010E94F009F8012E
:1054400027A530A981A992A940E050E0BA01281708
:10545000390709F4F2CD85A996A9892B39F4428937
:10546000538964897589C8010E948A0AC8010E940B
:10547000660A6DAB7EAB8FAB98AFC8010E94190A6C
:105480006B017C01D8019F968D909C90D097D1960E
:105490002D903C90D297C40182199309D5966D91B5
:1054A0007C910E948E3390E080E00E943B302B0183
:1054B0003C01280C391C36942794B10190E080E01F
:1054C0000E943B309B01AC01C301B2010E949C30A1
:1054D00020E034E244E759E40E94F7312B013C011B
:1054E0002DA93EA94FA958ADC701B6010E948A3126
:1054F000A30192010E94F731AB01BC01F801428B7C
:10550000538B648B758B99CDB0929505A0929405C1
:1055100082E08093A3058EE390E0E4C88091C0050B
:105520009091C105892B11F40C94112265E570E06E
:1055300086E795E00E9491148091C0059091C10585
:10554000DC01ED91FC910488F589E02D0995BC0101
:1055500079CBB0929505A09294058FE390E0C2C8F4
:10556000B0929505A092940580E490E0BBC8319775
:10557000E235F10508F07FC0E054F54D0C94E333BB
:10558000122B3B2B372B712BEC2B602C3B2B3B2B0B
:105590003B2B3B2B3B2B3B2B3B2B3B2B3B2B632CB2
:1055A000902CB82CDA2C3B2B3B2B3B2B3B2B3B2B57
:1055B0003B2B3B2B3B2B3B2B3B2B3B2B3B2B3B2BBB
:1055C000F92C052D0C2D392D662D3B2B3B2B3B2B20
:1055D0003B2B3B2B3B2B722D752D9E2DCB2D3B2B2F
:1055E0003B2B3B2B3B2B3B2B3B2B3B2B3B2B3B2B8B
:1055F0007C2E8C2E9E2EAE2EBE2ECE2EDE2E102F6C
:105600003B2B3B2B3B2B3B2B3B2B3B2B3B2B3B2B6A
:105610003B2B3B2B3B2BDA2DDE2DF12D072E242EA1
:105620003A2E6D2E8091A2058A0130E020E0082EEE
:1056300004C0000F111F221F331F0A94D2F740919C
:10564000A9055091AA056091AB057091AC05400F7A
:10565000511F621F731F4093A9055093AA056093C1
:10566000AB057093AC05885F8093A20504C0452B01
:1056700069F40E9401018091A305882309F4FEC307
:105680009091A4059111FAC3815051CA8FEF860FF2
:105690008093A30581E08093A4058091AD058823C4
:1056A00051F3E0918805F09189053097B9F0809128
:1056B000AE059091AF05A091B005B091B1058C01F8
:1056C0009D010F5F1F4F2F4F3F4F0093AE0510936B
:1056D000AF052093B0053093B10509951092AD0543
:1056E000CACFCA01B0E0A0E02091A20504C0880F93
:1056F000991FAA1FBB1F2A95D2F70091A9051091E7
:10570000AA052091AB053091AC05800F911FA21F17
:10571000B31FBF708093A9059093AA05A093AB0512
:10572000B093AC0594E0569547959A95E1F7509360
:10573000900540938F050091680510916905D80187
:10574000ED91FC910680F781E02DC8010995D80103
:105750005296ED91FC91539780818F7E8083529673
:10576000ED91FC9153978081877F80835296ED91D4
:10577000FC91539780818F7780835296ED91FC91B5
:10578000539780818F7D80835A968C915A97599632
:105790008C934091A9055091AA056091AB05709139
:1057A000AC0580916805909169050E94A100C090A8
:1057B000A905D090AA05E090AB05F090AC0565E690
:1057C00074E786E795E00E949114B701A60186E789
:1057D00095E00E9471144FCF2091A3052F3F59F4FB
:1057E0008093A3051092A9051092AA051092AB050B
:1057F0001092AC0540CF8091A9059091AA05A09187
:10580000AB05B091AC058417150659F49F5FAF4FF7
:10581000BF4F8093A9059093AA05A093AB05B093C1
:10582000AC05211139C064E674E786E795E00E9473
:105830009114A0916805B09169054091A905509116
:10584000AA056091AB057091AC05CB01BA016F5F01
:105850007F4F8F4F9F4FED91FC9111970190F081F9
:10586000E02DCD010995A0916805B09169054091A1
:10587000A9055091AA056091AB057091AC059927D7
:10588000872F762F652FED91FC9111970190F08174
:10589000E02DCD010995EFCE8091A9059091AA0543
:1058A000A091AB05B091AC050196A11DB11D8093EF
:1058B000A9059093AA05A093AB05B093AC05DBCEE8
:1058C00080937505D8CE80936A05882309F4D3CEDA
:1058D000E091B605F0E0EE0FFF1FEC54FA4F808127
:1058E00091810E94AC1480916A0580FFC4CE0E9411
:1058F000E60100916D0510916E0520916F053091C4
:105900007005DC01CB01800F911FA21FB31F809394
:10591000710590937205A0937305B0937405ABCE97
:1059200070E060E08091A20504C0440F551F661F1F
:10593000771F8A95D2F78091A9059091AA05A09129
:10594000AB05B091AC05840F951FA61FB71F8093C0
:10595000A9059093AA05A093AB05B093AC058093DD
:105960006D0590936E05A0936F05B093700583CE7F
:105970008091A2058A0130E020E0082E04C0000FCB
:10598000111F221F331F0A94D2F74091AE05509188
:10599000AF056091B0057091B105400F511F621FB6
:1059A000731F4093AE055093AF056093B00570939D
:1059B000B10559CEE0918805F0918905309709F439
:1059C0005ACE8091AE059091AF05A091B005B091EF
:1059D000B1058C019D010F5F1F4F2F4F3F4F00936B
:1059E000AE051093AF052093B0053093B10509952E
:1059F00042CE8091B2059091B3056150DC01ED91EA
:105A0000FC910480F581E02DF2CFE091B205F09198
:105A1000B305615062832FCE70E060E08091A205F3
:105A200004C0440F551F661F771F8A95D2F78091D7
:105A3000A9059091AA05A091AB05B091AC05840F82
:105A4000951FA61FB71F8093A9059093AA05A09341
:105A5000AB05B093AC05E091B205F091B30522819E
:105A600044E0249F90011124E20FF31F9483838369
:105A700002CE70E060E08091A20504C0440F551F83
:105A8000661F771F8A95D2F78091A9059091AA0584
:105A9000A091AB05B091AC05840F951FA61FB71F51
:105AA0008093A9059093AA05A093AB05B093AC058C
:105AB000E091B205F091B305228154E0259F900159
:105AC0001124E20FF31F96838583D5CD0091B20593
:105AD0001091B3050E942801AB01BC01C8010E94CE
