:100000000C9477000C949F000C949F000C949F001C
:100010000C949F000C949F000C949F000C9431153D
:100020000C949F000C949F000C949F000C949F00D4
:100030000C949F000C949F000C949F000C949F00C4
:100040000C94E7140C949F000C94B3150C948D152C
:100050000C949F000C949F000C949F000C949F00A4
:100060000C94E5150C949F0007634236B79BD8A704
:100070001A39685618AEBAAB558C1D3CB7CC5763CD
:10008000BD6DEDFD753EF6177231BF000000803F7B
:100090000200000000240027002A000000000025C4
:1000A0000028002B000000000800020100000304EB
:1000B00007000000000000000000000000230026F0
:1000C00000290004040404040404040202020202DD
:1000D000020303030303030102040810204080010C
:1000E0000204081020010204081020000417112443
:1000F0001FBECFEFD8E0DEBFCDBF24E0AEEFB1E052
:1001000001C01D92A83BB207E1F711E0A0E0B1E009
:10011000EEE2FCE502C005900D92AE3FB107D9F7C3
:1001200010E0C7E7D0E004C02197FE010E94E52C53
:10013000C637D107C9F70E949A180C94152E0C9453
:100140000000CF92DF92EF92FF92CF93DF93EC010A
:100150006A017B01E889F98982E08083C11481EE1C
:10016000D806E104F104A1F060E079E08DE390E0CD
:10017000A70196010E94A42C21503109410951097F
:100180005695479537952795211580E1380798F0C2
:10019000E889F989108260E874E88EE190E0A701AF
:1001A00096010E94A42C215031094109510956950C
:1001B000479537952795EC85FD853083EE85FF853E
:1001C0002083188EEC89FD8986E08083EA89FB898B
:1001D000808180618083EA89FB8980818860808357
:1001E000EA89FB89808180688083EA89FB89808134
:1001F0008F7D8083DF91CF91FF90EF90DF90CF9044
:100200000895E0E6F4E014A613A616A615A610AA13
:1002100017A612AA11AA14AA13AA16AA15AA10AEF2
:1002200017AA14AE15AE16AE17AE12A612AE13AEC6
:100230001092A4041092A0041092A1041092A2049F
:100240001092A30411AE0895E0E6F4E086A197A110
:10025000B0E0A0E021AD04C0880F991FAA1FBB1F0A
:100260002A95D2F7E0EAF4E04081518162817381FE
:10027000840F951FA61FB71F80839183A283B3832A
:10028000682F792F8A2F9B2F0895CF93DF9300D06B
:1002900000D0CDB7DEB769837A838B839C8380914E
:1002A0006E0490916F04DC01ED91FC910280F3816A
:1002B000E02D44E050E0BE016F5F7F4F09950F9045
:1002C0000F900F900F90DF91CF910895CF93DF9310
:1002D000C0E6D4E08E859F85DC01ED91FC91019014
:1002E000F081E02D60E009958E859F85DC01ED9120
:1002F000FC910190F081E02D60E0DF91CF910994B5
:1003000090E0FC01EB55FF4F2491FC01E952FF4FB7
:100310003491FC01ED53FF4FE491EE23C9F0222309
:1003200039F0233001F1A8F4213019F1223029F1FC
:10033000F0E0EE0FFF1FE556FF4FA591B4918FB788
:10034000F894EC91611126C030953E233C938FBF09
:1003500008952730A9F02830C9F0243049F780915A
:1003600080008F7D03C0809180008F778093800014
:10037000DFCF84B58F7784BDDBCF84B58F7DFBCF96
:100380008091B0008F778093B000D2CF8091B00081
:100390008F7DF9CF3E2BDACFCF93DF9390E0FC0136
:1003A000E952FF4F24918D539F4FFC018491882384
:1003B000D1F090E0880F991FFC01EF56FF4FA591F7
:1003C000B491FC01E556FF4FC591D49161110EC067
:1003D0009FB7F8948C91E22FE0958E238C9328811F
:1003E000E223E8839FBFDF91CF9108958FB7F89400
:1003F000EC91E22BEC938FBFF6CF1F93CF93DF935B
:10040000182FEB0161E00E94CC01209739F460E0E5
:10041000812FDF91CF911F910C948001CF3FD105A7
:1004200011F461E0F5CFE12FF0E0EB55FF4FE491DF
:10043000E33031F140F4E130B1F0E230E1F0C038C6
:10044000D1057CF7E4CFE73029F1E83059F1E43009
:10045000B1F780918000806280938000D0938B0000
:10046000C0938A0004C084B5806884BDC7BDDF9195
:10047000CF911F91089584B5806284BDC8BDF7CF28
:1004800080918000806880938000D0938900C09321
:100490008800EDCF8091B00080688093B000C09359
:1004A000B300E5CF8091B00080628093B000C0932C
:1004B000B400DDCF3FB7F89480918402909185021B
:1004C000A0918602B091870226B5A89B05C02F3F58
:1004D00019F00196A11DB11D3FBFBA2FA92F982F6A
:1004E0008827BC01CD01620F711D811D911D42E065
:1004F000660F771F881F991F4A95D1F708952FB768
:10050000F8946091800270918102809182029091B2
:1005100083022FBF0895CF93DF93CDB7DEB7C258C4
:10052000D1090FB6F894DEBF0FBECDBF382F82E8D9
:10053000E6E6F1E0DE01119601900D928A95E1F771
:10054000DE01AC57BF4FE2E88E918C3511F0E150DF
:10055000D9F7EF5F81E88E1B41E050E04C0F5D1F43
:100560004E0F511DFA01232FA32FB92F9A2F921B43
:10057000981718F491919D93F9CFCE57DF4F0FB68E
:10058000F894DEBF0FBECDBFDF91CF910895CF931A
:10059000DF93CDB7DEB72C970FB6F894DEBF0FBE52
:1005A000CDBF2CE0E8EEF1E0DE01119601900D9256
:1005B0002A95E1F7FE0131969C01255F3F4F41915D
:1005C000DC014D93CD01A217B307C9F78BE02C9640
:1005D0000FB6F894DEBF0FBECDBFDF91CF91089567
:1005E000CF93DF93CDB7DEB729970FB6F894DEBF70
:1005F0000FBECDBF29E0E4EFF1E0DE0111960190DE
:100600000D922A95E1F7FE0131969C01285F3F4F3C
:100610004191DC014D93CD01A217B307C9F788E0E2
:1006200029960FB6F894DEBF0FBECDBFDF91CF91F4
:100630000895CF92DF92EF92FF92CF93DF93EC0178
:100640006A017B0120E030E0A901CB01B6010E94E4
:100650001B2C1816C4F420E030E040E85FE3C7012B
:10066000B6010E94512987FF0EC0A701960160E0E4
:1006700070E080E89FE30E94A52A6DA37EA38FA36C
:1006800098A781E08E8BDF91CF91FF90EF90DF9064
:10069000CF9008959091000189130BC0E0E9F0E03C
:1006A000E4919FEF90930001E13049F028F0E230AF
:1006B00061F060E00C94800110926E00FACF90918E
:1006C0006F009D7F90936F00F4CF909170009D7F9D
:1006D0009093700091E09093B0009091B100987F5A
:1006E00094609093B1001092B300E3CF4F925F9269
:1006F0006F927F928F929F92AF92BF92CF92DF9232
:10070000EF92FF920F931F93CF93DF9300D000D00F
:100710001F92CDB7DEB78B0129013A0190910001FC
:100720008917C9F09F3F09F47EC00F900F900F907A
:100730000F900F90DF91CF911F910F91FF90EF904D
:10074000DF90CF90BF90AF909F908F907F906F90F1
:100750005F904F900895E0E9F0E094919D8397FDBC
:10076000E4CF61E00E94CC018D81882321F09D813E
:10077000923009F04AC14801B12CA12C60E072E12D
:100780008AE790E0A50198010E94C62C29833A834C
:100790004B835C8369017A0181E0C81AD108E108C2
:1007A000F1089FEFC916D104E104F10409F00CF43B
:1007B00001C160E472E48FE090E0A50198010E941D
:1007C000C62C69017A0181E0C81AD108E108F10854
:1007D0009D81923009F0A2C08FEFC816D104E104C8
:1007E000F10409F00CF4E6C160E970ED83E090E0FB
:1007F000A50198010E94C62C69017A0191E0C91AED
:10080000D108E108F1088FEFC816D104E104F10422
:1008100011F00CF07FC183E09091B100987F892B9B
:100820008093B100CFC080930001E0E9F0E09491A3
:100830009D839F3F09F479CF913041F150F0923080
:1008400009F446C09D8197FD70CF61E00E94CC0104
:100850008ECF14BC15BC94B5926094BD95B59160D3
:1008600095BD282F30E0F901ED53FF4FE491F0E002
:10087000EE0FFF1FE556FF4F45915491F901E952E4
:10088000FF4FE491E0936A021D826BCF10928000CB
:1008900010928100909181009860909381009091D6
:1008A0008100916090938100282F30E0F901ED5391
:1008B000FF4FE491F0E0EE0FFF1FE556FF4F45912B
:1008C0005491F901E952FF4FE491E093690249CF55
:1008D0001092B0001092B1009091B000926090938D
:1008E000B0009091B10091609093B100282F30E05A
:1008F000F901ED53FF4FE491F0E0EE0FFF1FE556D5
:10090000FF4F459154915093740240937302F90143
:10091000E952FF4FE491E093750223CF9FEFC91690
:10092000D104E104F10409F00CF46DC068E478EE40
:1009300081E090E0A50198010E94C62C69017A012E
:1009400081E0C81AD108E108F1089D81992309F4D2
:10095000FAC08FEFC816D104E104F10411F00CF0D5
:10096000FBC0EFC064E274EF80E090E0A501940169
:100970000E94C62C69017A0181E0C81AD108E108F9
:10098000F10885E09FEFC916D104E104F10409F0F4
:1009900008F442CF62E17AE780E090E0A50194019B
:1009A0000E94C62C69017A0181E0C81AD108E108C9
:1009B000F108E5C081E09D8191112ECF95B5987F1A
:1009C000892B85BD2FEF3FEFA9014114510461042C
:1009D000710409F043C09D81913009F45EC09230EA
:1009E00009F46DC09111A1CEC7BC20936F02309362
:1009F0007002409371025093720280916E00826087
:100A000080936E0092CE82E0D6CFB12CA12C60E014
:100A100072E18AE790E0A50198010E94C62C690165
:100A20007A0181E0C81AD108E108F108C114D104A3
:100A300091E0E906F10404F591E08D81813011F631
:100A400080918100887F892B809381002FEF3FEF79
:100A5000A9014114510461047104F9F0D801AA0FED
:100A6000BB1FA30192010E948B2A28EE33E040E0D5
:100A700050E00E94A42CAFCF68E478EE81E090E0D3
:100A8000A50198010E94C62C69017A0181E0C81A6B
:100A9000D108E108F10893E0D0CFD0928900C0924C
:100AA000880020936B0230936C0240936D02509348
:100AB0006E0280916F00826080936F0036CEC0928C
:100AC000B3002093760230937702409378025093DC
:100AD00079028091700082608093700026CE84E05D
:100AE0009FEFC916D104E104F10409F008F466CFC0
:100AF000C980DA80EB80FC808AE0F594E794D79493
:100B0000C7948A95D1F781E0C81AD108E108F108A5
:100B100085E054CF68E478EE81E090E0A50198018B
:100B20000E94C62C69017A0181E0C81AD108E10847
:100B3000F1089FEFC916D104E104F10411F00CF0A3
:100B400011CF84E069CE83E09FEFC916D104E104A0
:100B5000F10409F00CF432CF62E17AE780E090E032
:100B6000A50194010E94C62C69017A0181E0C81A8E
:100B7000D108E108F1089D81992309F4B0CF86E0FE
:100B80009FEFC916D104E104F10409F008F444CE42
:100B9000C980DA80EB80FC809AE0F594E794D794E2
:100BA000C7949A95D1F781E0C81AD108E108F108F5
:100BB00087E032CE82E030CEAF92BF92CF92DF920A
:100BC000EF92FF920F931F93CF93DF936C017B0102
:100BD0008B01040F151FEB015E01AE18BF08C01793
:100BE000D10759F06991D601ED91FC910190F08106
:100BF000E02DC6010995892B79F7C501DF91CF91C9
:100C00001F910F91FF90EF90DF90CF90BF90AF902A
:100C10000895FC01538D448D252F30E0842F90E002
:100C2000821B930B541710F0CF96089501970895E7
:100C3000FC01918D828D981761F0A28DAE0FBF2FB0
:100C4000B11D5D968C91928D9F5F9F73928F90E006
:100C500008958FEF9FEF0895FC01918D828D981775
:100C600031F0828DE80FF11D858D90E008958FEFB2
:100C70009FEF0895FC01918D228D892F90E0805C7B
:100C80009F4F821B91098F739927089583EC93E0FE
:100C90000E943A0621E0892B09F420E0822F089572
:100CA00080E090E0892B29F00E94460681110C9487
:100CB00000000895FC01A48DA80FB92FB11DA35AFF
:100CC000BF4F2C91848D90E001968F739927848F6C
:100CD000A689B7892C93A089B1898C91837080648F
:100CE0008C93938D848D981306C00288F389E02D30
:100CF00080818F7D80830895EF92FF920F931F93E1
:100D0000CF93DF93EC0181E0888F9B8D8C8D9813BE
:100D10001AC0E889F989808185FF15C09FB7F894CA
:100D2000EE89FF896083E889F98980818370806416
:100D300080839FBF81E090E0DF91CF911F910F9161
:100D4000FF90EF900895F62E0B8D10E00F5F1F4F70
:100D50000F731127E02E8C8D8E110CC00FB607FC7F
:100D6000FACFE889F989808185FFF5CFCE010E940D
:100D70005A06F1CFEB8DEC0FFD2FF11DE35AFF4F1B
:100D8000F0829FB7F8940B8FEA89FB89808180629B
:100D9000CFCFCF93DF93EC01888D8823B9F0AA8958
:100DA000BB89E889F9898C9185FD03C0808186FD26
:100DB0000DC00FB607FCF7CF8C9185FFF2CF808175
:100DC00085FFEDCFCE010E945A06E9CFDF91CF918A
:100DD000089520914402260F3327331F2132310515
:100DE000ECF42091AE02FC0190E080E0243069F048
:100DF00082E00895A09144022191AC014E5D5D4FC7
:100E0000A40FB52FB11D2C930196861798F38091EE
:100E10004402680F6093440280E0089581E00895E1
:100E20001092AE0281E08093AD021092880261E0E0
:100E300082E10E94800161E083E10E948001E9EB90
:100E4000F0E080818E7F808380818D7F808388E445
:100E50008093B80085E48093BC000895CF93DF931E
:100E600091E0909321028823B9F0C091B800D0910D
:100E7000BA008091BC008A7B8093BC0060E082E174
:100E80000E94800160E083E10E9480010E941007BF
:100E9000D093BA00C093B800DF91CF9108958F929C
:100EA0009F92AF92BF92CF92DF92EF92FF920F93F9
:100EB0001F93CF93DF93D091D702D13208F0D7C0E0
:100EC000182FC091D6020E945A026B017C018091BA
:100ED000AE0281116BC082E08093AE021093AD022E
:100EE0008FEF8093AC021092AB02D093AA02A6EBD4
:100EF000B2E0EAE8F2E080E0D81391C010928902F3
:100F000080918902CC0FC82BC093890280918802FE
:100F1000813009F088C0109288020E945A026B0149
:100F20007C01809189028093BB008091B0029091F6
:100F3000B102A091B202B091B302892B8A2B8B2B04
:100F4000A1F00E945A020091B0021091B1022091CA
:100F5000B2023091B3026C197D098E099F09061700
:100F600017072807390708F442C08091BC0083FDA9
:100F7000D8CF85EC8093BC000E945A026B017C01A3
:100F80008091AE02823009F450C08091AC028F3F54
:100F900009F46FC08091AC02803209F46CC080917A
:100FA000AC02803309F469C084E026C08091B002AD
:100FB0009091B102A091B202B091B302892B8A2B19
:100FC0008B2B09F484CF0E945A028090B00290903B
:100FD000B102A090B202B090B3026C197D098E09E3
:100FE0009F0986169706A806B90608F070CF80916B
:100FF000AF020E942E0785E01092B5021092D70230
:101000001092B402DF91CF911F910F91FF90EF905A
:10101000DF90CF90BF90AF909F908F9008959D915B
:1010200091938F5F69CF85EEA5CF8091B0029091AB
:10103000B102A091B202B091B302892B8A2B8B2B03
:1010400009F49ECF0E945A020091B0021091B102A1
:101050002091B2023091B3026C197D098E099F096B
:10106000061717072807390708F08ACFC0CF81E095
:10107000C3CF80E0C1CF82E0BFCF83E0BDCF089572
:1010800008950895E091200280911F02E81730F43E
:10109000F0E0E150FE4F808190E008958FEF9FEFE8
:1010A00008959091200280911F022FEF3FEF981733
:1010B00048F4E92FF0E0E150FE4F208130E09F5FDF
:1010C00090932002C901089580911F0290912002FF
:1010D000891B990B0895CF92DF92EF92FF920F93A5
:1010E0001F93CF93DF937C01CB018A012091B4023F
:1010F000222389F0EB016B01C40ED51ECC15DD0552
:1011000069F06991D701ED91FC910190F081E02D9A
:10111000C7010995F3CF642F0E94E906C801DF914A
:10112000CF911F910F91FF90EF90DF90CF90089596
:10113000CF93DF931F92CDB7DEB769832091B402BE
:101140002223F9F02091D702203258F021E030E03C
:10115000FC013383228390E080E00F90DF91CF91F8
:1011600008958091B502E82FF0E0EA54FD4F99818F
:1011700090838F5F8093B5028093D70281E090E0E7
:10118000ECCF61E0CE0101960E94E906F7CF90E036
:1011900080E00895EF92FF920F931F93DC01189661
:1011A0008C911897882381F0489FA0011124452F26
:1011B000829F90011124232F809F80011124012FF1
:1011C0008E9D70011124EF2C1E968C911E971996FE
:1011D000ED91FC911A971B969C911B97891320C047
:1011E000CB01880F991F680F791F6E0F7F1F1B9609
:1011F000EC911B97E60FF72FF11D40831C96EC91A5
:101200001C97E60FF72FF11D20831D968C91680F18
:10121000711DFB0100831F910F91FF90EF900895C6
:10122000660F771F660F771F6E0F7F1FFB01E80F9A
:10123000F11DE082DCCFCF92DF92EF92FF920F930D
:101240001F93CF93DF93CDB7DEB729970FB6F894EE
:10125000DEBF0FBECDBF8C010E945A02D8011F967F
:10126000CD90DD90ED90FC9052976C157D058E052C
:101270009F0528F4F8016787708B818B928BD801CA
:101280001F96CD90DD90ED90FC9052976C197D09E2
:101290008E099F096C32714081059105E8F2F8943E
:1012A000F801848195819A8389830184F285E02DF8
:1012B0007F012FEFE21AF20A80818F83D8019C917F
:1012C0005396ED91FC91549755968C91992309F47E
:1012D00048C09081982B9887908180958923898731
:1012E00089858B8388E08C83588569854F813C8113
:1012F0002B8189819A81D701508347FD252F3A950B
:101300002083262F39F0441F00C0000060830000B6
:1013100000C0F2CF38E04D9160830000019761F783
:10132000D8015496FC93EE9353974F833C832B83C1
:101330009A83898378940E945A02F8016787708B98
:10134000818B928B29960FB6F894DEBF0FBECDBF6E
:10135000DF91CF911F910F91FF90EF90DF90CF9091
:1013600008959081982B988790818095892389870B
:1013700089858D8388E08E83588569854F813E817C
:101380002D8189819A81D701508347FD252F00C087
:1013900000C0208300C000C000C000C000C0608347
:1013A0000000262F3A9541F0441F000000C000C005
:1013B00000C000C000C0E8CF38E04D9100C060839D
:1013C00000C0019709F7D8015496FC93EE93539708
:1013D0004F833E832D83ACCFCF93DF93EC016B81A2
:1013E000617089810E9480016B8162708A81DF91C6
:1013F000CF910C94800160E070E0CB01089560E033
:1014000070E0CB010895CF92DF92EF92FF920F939D
:101410001F93CF93DF93EC016A017B010E945A0274
:101420008B019C01E881F9810280F381E02DB701F5
:10143000A601CE010995DF91CF911F910F91FF90E9
:10144000EF90DF90CF90089560E070E080E89FEB30
:10145000089560E070E080E89FEB0895CF92DF92FE
:10146000EF92FF92CF93DF93EC01E881F981008442
:10147000F185E02D09956B017C012C853D854E851C
:101480005F85688979898A899B890E94A62AA70134
:1014900096010E94B729DF91CF91FF90EF90DF90E6
:1014A000CF900895DC01ED91FC910088F189E02D49
:1014B00060E009948F929F92AF92BF92CF92DF9299
:1014C000EF92FF921F93CF93DF93EC016A017B01B0
:1014D000122F8C849D84AE84BF84AB019601C5011C
:1014E000B4010E94512940E050E0BA0187FF0EC0CC
:1014F000A5019401C701B6010E94A52A288939894E
:101500004A895B890E94122BAB01BC01E881F981F9
:101510000480F581E02D212FCE0109952889398994
:101520004A895B890E94B7292C853D854E855F8558
:101530000E94A62ADF91CF911F91FF90EF90DF903C
:10154000CF90BF90AF909F908F900895DC01ED9168
:10155000FC910484F585E02D20E00994DC01ED91F7
:10156000FC910084F185E02D60E00994DC01ED91AF
:10157000FC910480F581E02D20E009941F93CF9326
:10158000DF93EC018C899D89892B11F51092200243
:1015900010921F021092B5021092D7020E941007FB
:1015A0008FE398E0909343028093420280E498E0B6
:1015B0009093470280934602898D91E09093B40204
:1015C0008093D60281E0DF91CF911F910C944F0759
:1015D0001FB7F8948091FE01811127C0EDECF0E077
:1015E0008491E1EEF0E09491E82FF0E0EE0FFF1F20
:1015F000EF56FF4FA591B491EC91E92321F461E0FE
:101600008AE00E94800161E08AE00E94CC018CB5F2
:1016100080618CBD8CB580648CBD61E08DE00E94E2
:10162000CC0161E08BE00E94CC018091FE018F5FD4
:101630008093FE011FBF61E08E890E94CC0161E0B2
:101640008E890E94800180E0DF91CF911F910895E3
:1016500060E070E080E89FE30895089580E00895D9
:1016600080E00895FC018FEF9FEF97878687118AAE
:10167000108A148E138E81E0868B0895FC0125A1BB
:1016800036A147A150A560E070E080E89FE30E948A
:10169000A52A0895DC011396ED91FC9180810895AF
:1016A0004F925F926F927F928F929F92AF92BF9272
:1016B000DF92EF92FF920F931F93CF93DF937C0102
:1016C000DC011396ED91FC911497D08019965C91F2
:1016D00019975996CD91DC911C8A1D8A1E8A1F8A02
:1016E00080E090E0DC01552309F467C0888199818E
:1016F00097FD10C240E023E230E0F894E98DFA8DC6
:101700009281888D809589238283EC8DFD8D9181D6
:101710008B8D809589238183EC8DFD8D92818B8DBE
:10172000809589238283EC8DFD8D81819B8D892B12
:101730008183EC8DFD8D92818B8D809589238283B1
:10174000C9010197F1F7EC8DFD8D91818B8D80950D
:1017500089238183EC8DFD8D92818B8D80958923EA
:101760008283E98DFA8D8281988D892B828378948A
:10177000EC8DFD8D7B8D88849984AA84BB846081E7
:101780008C899D89AE89BF89672369F4881599057D
:10179000AA05BB0540F40196A11DB11D8C8B9D8B44
:1017A000AE8BBF8BECCF88169906AA06BB0608F055
:1017B000F9C08EEF9FEFAFEFBFEFF70195878487FA
:1017C0000E945A024B015C01D70115968D929D92A1
:1017D000AD92BC9218975796CD91DC9158971C9674
:1017E0006D917C911D97209709F498C190E080E05D
:1017F0000E945629AB01BC01E881F9810280F38186
:10180000E02D95018401CE0109954B015C0120E09A
:1018100030E0A9010E94512987FF03C0812C912C3F
:101820005401C501B4010E94C52BF701738762877B
:101830000E947F02F701028513854685578524891A
:1018400035894017510760F421153105C9F0858CA1
:10185000968CA78CB0A086169706A806B90680F4C9
:10186000D7011F961C930E931E974B015C01820EAD
:10187000931EA11CB11CF701858E968EA78EB0A277
:10188000D70150964D915C9151970417150770F44C
:1018900021153105B1F091968D909D90AD90BC9041
:1018A000949786169706A806B90658F4F701118B87
:1018B000008B620F731F811D911D61A372A383A30F
:1018C00094A3F701C685D785A088B188AC1ABD0A54
:1018D0008689882311F1B50190E080E00E945629A5
:1018E000D70195962D913D914D915C9198970E94CD
:1018F000B7292B013C01BE0190E080E00E945629EF
:10190000A30192010E94A62A0E94C52BC617D707E1
:1019100009F409C1F701748F638FF70182899389F4
:10192000A816B90630F081E0238D348D0217130715
:1019300008F480E0D7011396ED91FC91149712966C
:101940009C91129721E030E001C0220F9A95EAF7AE
:1019500020959081292320831396ED91FC91149773
:1019600012962C91129701C0880F2A95EAF7908160
:10197000892B80831396ED91FC9181E090819D11DC
:1019800001C080E0DF91CF911F910F91FF90EF9008
:10199000DF90BF90AF909F908F907F906F905F90FF
:1019A0004F900895F894EC8DFD8D82819B8D892B4D
:1019B0008283EC8DFD8D81819B8D892B8183EC8DC4
:1019C000FD8D82819B8D892B8283EC8DFD8D918194
:1019D0008B8D809589238183EC8DFD8D92818B8DFC
:1019E000809589238283E98DFA8D9281888D8095F7
:1019F000892382837894EC8DFD8D7B8D88849984F6
:101A0000AA84BB8460818C899D89AE89BF89672344
:101A100009F06DC088159905AA05BB0508F0C9CE67
:101A20004F5F54136ACE8A809B80AC80BD8088163D
:101A30009906AA06BB0608F068C09C01AD012819EA
:101A400039094A095B0949015A010E947F02088944
:101A500019892A893B89601B710B820B930B0C85BA
:101A60001D852E853F85061717072807390728F596
:101A70006A817B818C819D810E9456292DEC3CECF2
:101A80004CEC5DE30E94B7290E94BE2B072E000C90
:101A9000880B990B86169706A806B90670F48FEF87
:101AA0009FEFAFEFBFE08A839B83AC83BD830E942F
:101AB0007F02688B798B8A8B9B8B8C899D89AE8901
:101AC000BF894A815B816C817D8184179507A60758
:101AD000B70720F48A839B83AC83BD834A815B81F3
:101AE0006C817D81841B950BA60BB70B66CE881588
:101AF0009905AA05BB0508F05CCE0196A11DB11D94
:101B00008C8B9D8BAE8BBF8B7DCF881A990AAA0ACE
:101B1000BB0A9BCF8FEF9FEFDC014FCE1B967C93D0
:101B20006E931A9785CE2196D7015C96DC93CE935F
:101B30005B97F3CECF92DF92EF92FF920F931F93BA
:101B4000CF93DF93EC016A017B010CA51DA5011564
:101B50001105D9F0AB01960160E070E080E89FE3E9
:101B60000E94A52AAB01BC01D801ED91FC91048033
:101B7000F581E02D28A9C801DF91CF911F910F9128
:101B8000FF90EF90DF90CF9009940EA4DFA5C02DB9
:101B90002097C1F0688170E090E080E00E945629B3
:101BA000A70196010E94B7290E94C52B6B83CE0125
:101BB000DF91CF911F910F91FF90EF90DF90CF9029
:101BC0000C94EC09DF91CF911F910F91FF90EF9052
:101BD000DF90CF900895FC0183A50C944A036A30EE
:101BE00018F4DC0112966C93DC01ED91FC910280FB
:101BF000F381E02D0994DC011296EC91B4E0EB9FA7
:101C0000F0011124E80FF91F258136816381748169
:101C1000FC0183A550E040E02F3F320719F420E09B
:101C200030E0A9010C947603CF93DF93EC0161E0DF
:101C30008BA50E94CC0160E08BA50E9480018CA541
:101C40009DA5009739F0DC01ED91FC910190F081A8
:101C5000E02D09950EA4DFA5C02D2097A9F061E025
:101C600089810E94CC0160E089810E94800161E04D
:101C70008A810E94CC0160E08A810E948001CE01AD
:101C8000DF91CF910C94EC09DF91CF910895EF9201
:101C90000F931F93CF93DF93EC018EA19FA110E0D0
:101CA000892B91F48DA5181758F58EA570E060E08A
:101CB000811102C06FEF70E0FE01E10FF11D81A5FF
:101CC0000E94FD011F5FEECF8EA19FA128A51217D4
:101CD00080F4612F70E0FC01228133816217730769
:101CE00030F4E12C00E020E040E00E94CA081F5FD1
:101CF000EBCFFC0121853285232B11F00E941B09BB
:101D00001FA618AA19AA1AAA1DA2DF91CF911F9186
:101D10000F91EF900895EF92FF920F931F93CF933F
:101D2000DF93EC018EA19FA110E0892BF9F406E06E
:101D3000288130E08DA51817E8F5812F90E0029FEB
:101D4000F001039FF00D1124EC0FFD1FE80FF91FA8
:101D500061812EA5211101C0609570E08C0F9D1F3F
:101D6000FC0181A50E94FD011F5FE2CF86E0F82EF5
:101D70008EA19FA128A51217B0F4612F70E0FC017D
:101D8000228133816217730760F42881FE01F29E7D
:101D9000E00DF11D1124E4800381228141810E9424
:101DA000CA081F5FE5CFFC0121853285232B11F086
:101DB0000E941B09888116E0FE01189FE00DF11DAD
:101DC000112485819681019691F00E947F022881DD
:101DD000FE01129FE00DF11D112425813681620F55
:101DE000731F811D911D6FA778AB89AB9AAB81E002
:101DF0008DA3DF91CF911F910F91FF90EF900895E8
:101E00007F928F929F92AF92BF92CF92DF92EF928A
:101E1000FF920F931F93CF93DF93EC018A898E304B
:101E200008F08E508770806480937C0080917A00E7
:101E3000806480937A0080917A0086FDFCCF809147
:101E40007800909179009C838B830E945A026D8365
:101E50007E838F8398870E947F020B811C814C8533
:101E60005D85288939894017510760F421153105AE
:101E7000A9F0CB8CDC8CED8CFE8CC616D706E80660
:101E8000F90660F41D870C876B017C01C20ED31E1E
:101E9000E11CF11CCB8EDC8EED8EFE8E4E855F85B7
:101EA0000417150760F42115310599F0CF8CD8A0DF
:101EB000E9A0FAA0C616D706E806F90650F41F876F
:101EC0000E87620F731F811D911D6F8F78A389A3E9
:101ED0009AA3CC84DD84EE84FF84EC18FD08798419
:101EE0007720D1F0B70190E080E00E9456292D893B
:101EF0003E894F89588D0E94B7294B015C01B6017C
:101F000090E080E00E945629A50194010E94A62A33
:101F10000E94C52B7A8F698F8A859B85E816F90602
:101F200010F4711009C0298D3A8D8981882331F010
:101F300081E00217130730F480E004C081E002174B
:101F40001307D0F748818883EDA1FEA19A8121E093
:101F500030E001C0220F9A95EAF72095908129235D
:101F60002083EDA1FEA128819A8101C0220F9A95BC
:101F7000EAF79081292B20838427DF91CF911F914D
:101F80000F91FF90EF90DF90CF90BF90AF909F9018
:101F90008F907F900895CF93DF9300D000D0CDB77E
:101FA000DEB749835A836B837C83DC018D919C91DE
:101FB000DC01ED91FC910280F381E02D44E050E0E2
:101FC000BE016F5F7F4F09950F900F900F900F909C
:101FD000DF91CF910895CF93DF9300D0CDB7DEB7D7
:101FE00069837A83DC018D919C91DC01ED91FC91F8
:101FF0000280F381E02D42E050E0BE016F5F7F4F31
:1020000009950F900F90DF91CF91089580916E0404
:1020100090916F04DC01ED91FC910190F081E02D35
:1020200060E0099570E060E08EE694E00C94EB0FC0
:10203000EF92FF920F931F93CF93DF938C01EB01ED
:1020400060E772E00E94EB0F4D815E816F817885C1
:10205000C8010E94CB0FD8010D911C91D801ED91C0
:10206000FC91E080F180E881F9810480F581E02D28
:10207000CE010995682FC801F701DF91CF911F911B
:102080000F91FF90EF9009940F931F93CF93DF93DD
:10209000EC018B0160E072E00E94EB0FF8014581DA
:1020A000568167817085CE010E94CB0F888199810E
:1020B000E801ADA1BEA1EC01E881F9810190F081B8
:1020C000E02D6C91DF91CF911F910F910994DC016C
:1020D000ED91FC910190F081E02D0994CF93C62FF2
:1020E000BC018EE694E00E94EB0F6C2F70E06F5FF6
:1020F0007F4F80916E0490916F04CF910C94671084
:10210000AF92BF92CF92DF92FF920F931F93CF9324
:10211000DF93EC018B01F42E60E872E00E94EB0F7C
:1021200001151105A9F1D80115964D915D916D919B
:102130007C911897CE010E94CB0FC880D980D60120
:10214000ED91FC91A080B180D801ED91FC910480CB
:10215000F581E02DC8010995682FC601F5010995A3
:102160006F2D70E06F5F7F4F888199810E946710AB
:10217000D8011A966D917C91CE01DF91CF911F917C
:102180000F91FF90DF90CF90BF90AF900C94EB0F2A
:1021900040E050E0BA01CE010E94CB0F40E050E099
:1021A000BA01CE01DF91CF911F910F91FF90DF9087
:1021B000CF90BF90AF900C94CB0FEF92FF920F9304
:1021C0001F93CF938C017B01C42F62E072E00E94C9
:1021D000EB0F6C2F70E06F5F7F4FF8018081918172
:1021E0000E946710F7014581568167817085C8019B
:1021F0000E94CB0FF70163817481C801CF911F91B9
:102200000F91FF90EF900C94EB0FDC01ED91FC919E
:102210000280F381E02D0994DC01ED91FC910190A5
:10222000F081E02D0994CF93DF93E0918204F09147
:102230008304309709F480C0EC018091A50490914B
:10224000A604A091A704B091A804AC01BD014F5F02
:102250005F4F6F4F7F4F4093A5045093A604609348
:10226000A7047093A80409958E3108F046C08093A6
:102270009A04BE018EE694E00E94EB0F8091600408
:1022800090916104DC01ED91FC910190F081E02DD1
:1022900060919A04099580919A04882309F44CC0AE
:1022A000E0918204F09183048091A5049091A604AA
:1022B000A091A704B091A804AC01BD014F5F5F4F8E
:1022C0006F4F7F4F4093A5045093A6046093A704DB
:1022D0007093A8040995682F70E070938704609349
:1022E000860480916004909161040E940C11809199
:1022F0009A04815080939A04CECF10929A04E09170
:102300008004F0918104309709F4B3CF8091A50443
:102310009091A604A091A704B091A8040197A109E7
:10232000B1098093A5049093A604A093A704B09349
:10233000A80460E009959DCFDF91CF9108958CE1CD
:1023400093E00E94000F8823A9F080911C0369E1AB
:1023500070E0811102C061E070E08AE00E94FD013E
:102360008091620481FF06C06CE173E08EE694E028
:102370000C9444100895CF93DF93EC018B819C81E2
:10238000892B41F481E090E00E94EB2C9C838B83AD
:10239000FC011082E881F9810284F385E02DCE01F1
:1023A0000995E881F9810280F381E02DCE0109953C
:1023B00080E0DF91CF9108950E94102E85ED8093EB
:1023C000BC008091B0029091B102A091B202B09194
:1023D000B3020796A11DB11D23E0B695A795979569
:1023E00087952A95D1F72091BC0024FD03C0109257
:1023F000AE0208954091B0025091B1026091B202D4
:102400007091B302452B462B472B69F30097A1052A
:10241000B10541F02AE22A95F1F700C00197A10920
:10242000B109E1CF8091AF020C942E073F924F92F9
:102430005F926F927F928F929F92AF92BF92CF9254
:10244000DF92EF92FF920F931F93CF93DF93CDB75D
:10245000DEB72A970FB6F894DEBF0FBECDBF9A87BE
:1024600089876A017B01DC011F968D909D90AD905C
:10247000BC905297FC010787108B218B328B1396EF
:102480008D919D910D90BC91A02D89839A83AB83F2
:10249000BC83838B948BA58BB68B87819085A1851C
:1024A000B2858D839E83AF83B887878B908FA18FF2
:1024B000B28FC382D482E582F682328031101EC090
:1024C000C782D086E186F286C701B6012A960FB68A
:1024D000F894DEBF0FBECDBFDF91CF911F910F915A
:1024E000FF90EF90DF90CF90BF90AF909F908F9034
:1024F0007F906F905F904F903F900895C901B80111
:10250000681979098A099B090E9456294B015C01C7
:10251000A985BA851B964D905D906D907C901E9715
:10252000AC019B01C301B2010E94122B20E030E0FC
:1025300040EE50E40E941B2C1816C4F5A50194012E
:10254000C301B2010E94A62A9B01AC01C301B201E2
:102550000E94122B4B015C01AC019B016D817E81BD
:102560008F8198850E94B7292B013C01B1E03B1275
:1025700027C0A501940160E070E080E89FE30E941D
:10258000A52AA70196010E94B729A30192010E94E2
:10259000A62AE985FA856783708781879287E9850E
:1025A000FA85C780D084E184F2848ECFC501B4015E
:1025B0009058A30192010E94122B0E948C2BCACF2B
:1025C00029813A814B815C81C701B6010E94A52A0D
:1025D000A50194010E94B729A30192010E94A62A95
:1025E000A985BA8517966D937D938D939C931A97C1
:1025F000D6CF8F929F92AF92BF92CF92DF92EF92FF
:10260000FF920F931F93CF93DF93EC01042FF22ED1
:10261000632B162F142B8C899D89892B09F030C1CF
:102620008CE08093B8008F89988D298D31E03093AC
:10263000B4022093D6021092B5021092D702DC01A8
:10264000ED91FC910190F081E02D612F09950C3006
:1026500009F006C181E00E944F07882379F08FEFCF
:102660009FEFDF91CF911F910F91FF90EF90DF903F
:10267000CF90BF90AF909F908F900895198D0E943A
:102680005A026B017C018091AE02811165C081E02C
:102690008093AE028093AD029FEF9093AC021092B4
:1026A000AB028093AA028093890280918902110F64
:1026B000182B1093890280918802813009F08EC016
:1026C000109288020E945A026B017C01809189025B
:1026D0008093BB008091B0029091B102A091B202B0
:1026E000B091B302892B8A2B8B2BA1F00E945A0246
:1026F0000091B0021091B1022091B2023091B30268
:102700006C197D098E099F090617170728073907D5
:1027100008F443C08091BC0083FDD8CF85EC809342
:10272000BC000E945A026B017C018091AE02813094
:1027300009F456C08091AB02823008F073C08091DA
:10274000AB02EAE8F2E0AFEFB1E090E0981751F1A8
:1027500021912D939F5FFACF8091B0029091B102A9
:10276000A091B202B091B302892B8A2B8B2B09F472
:102770008ACF0E945A028090B0029090B102A0903D
:10278000B202B090B3026C197D098E099F098616BA
:102790009706A806B90608F076CF8091AF020E948E
:1027A0002E0780E01092200280931F028230E0F515
:1027B0008F89988DDC01ED91FC910084F185E02DED
:1027C0000995892B09F44BCF8F89988DDC01ED9108
:1027D000FC910284F385E02D0995EACF85EE9FCF29
:1027E0008091B0029091B102A091B202B091B30277
:1027F000892B8A2B8B2B09F498CF0E945A020091C7
:10280000B0021091B1022091B2023091B3026C1962
:102810007D098E099F09061717072807390708F051
:1028200084CFBBCF82E08DCF8F89988DDC01ED9175
:10283000FC910284F385E02D0995082F8F89988DEE
:10284000DC01ED91FC910284F385E02D0995182FB0
:10285000802F90E0982F8827810F911D917001CFD4
:102860008F89988DDC01ED91FC910190F081E02D34
:102870006F2D099581E00E944F07182F00E0E8CFE7
:1028800081E58CBD1DBC60E08E890E9480011EBD6B
:1028900000000DB407FEFDCF0EB5FEBC00000DB468
:1028A00007FEFDCF1EB561E08E890E948001D0CF6A
:1028B0004F925F926F927F928F929F92AF92BF9250
:1028C000CF92DF92EF92FF92CF93DF93EC012FEF45
:1028D00031E04CE0611147C0CE010E94F912BC0109
:1028E00090E080E00E9456296B017C016A857B851F
:1028F00090E080E00E9456299B01AC01C701B6011F
:102900000E94122B9B01AC01C888D988EA88FB88F9
:10291000C701B6010E94B7299B01AC018C849D843C
:10292000AE84BF84C501B4010E94A62A2B013C01DC
:10293000A5019401C701B6010E94A62A9B01AC0122
:10294000C301B2010E94122BDF91CF91FF90EF9053
:10295000DF90CF90BF90AF909F908F907F906F90BF
:102960005F904F90089560E1B7CFCF92DF92EF92E2
:10297000FF921F93CF93DF93EC016A017B01122F2B
:102980006A857B8590E080E00E945629A701960128
:102990000E94B7290E94C52B9B0140E060E0111105
:1029A00060E1CE010E94F912E881F9810084F1858D
:1029B000E02D612FCE01DF91CF911F91FF90EF901D
:1029C000DF90CF9009940C94752A0C947D2A1F9265
:1029D0000F920FB60F9211242F933F938F939F93D3
:1029E000AF93BF938091800290918102A091820267
:1029F000B091830230917F0223E0230F2D3758F5E9
:102A00000196A11DB11D20937F02809380029093B7
:102A10008102A0938202B0938302809184029091FC
:102A20008502A0918602B09187020196A11DB11D79
:102A30008093840290938502A0938602B0938702CC
:102A4000BF91AF919F918F913F912F910F900FBEAA
:102A50000F901F90189526E8230F0296A11DB11D17
:102A6000D2CF1F920F920FB60F9211242F933F9344
:102A70004F935F936F937F938F939F93AF93BF9386
:102A8000EF93FF938091760290917702A091780264
:102A9000B0917902892B8A2B8B2BD1F19091750201
:102AA000E0917302F0917402808189278083809184
:102AB000760290917702A0917802B091790218166F
:102AC00019061A061B069CF48091760290917702F3
:102AD000A0917802B09179020197A109B109809380
:102AE000760290937702A0937802B0937902FF91D7
:102AF000EF91BF91AF919F918F917F916F915F9176
:102B00004F913F912F910F900FBE0F901F901895EE
:102B1000809100010E944A03EACF1F920F920FB6E4
:102B20000F9211242F933F934F935F936F937F9353
:102B30008F939F93AF93BF93EF93FF9383EC93E0B7
:102B40000E945A06FF91EF91BF91AF919F918F9193
:102B50007F916F915F914F913F912F910F900FBE99
:102B60000F901F9018951F920F920FB60F9211247D
:102B70002F938F939F93EF93FF93E091D303F09163
:102B8000D4038081E091D903F091DA0382FD1BC068
:102B900090818091DC038F5F8F732091DD0382171A
:102BA00041F0E091DC03F0E0ED53FC4F958F809312
:102BB000DC03FF91EF919F918F912F910F900FBEAA
:102BC0000F901F9018958081F4CF1F920F920FB62F
:102BD0000F9211242F933F934F935F936F937F93A3
:102BE0008F939F93AF93BF93EF93FF938091B9001F
:102BF000887F803609F44AC0F0F5883209F4A7C00E
:102C000018F5803109F49BC0B8F4882309F4F9C0A1
:102C1000883009F494C0FF91EF91BF91AF919F91DB
:102C20008F917F916F915F914F913F912F910F9075
:102C30000FBE0F901F901895883109F488C080321C
:102C400051F78093AC0214C0803409F49DC040F465
:102C50008033B9F38833F9F68093AC0285ECB0C0C9
:102C6000803509F485C0883509F496C0883499F612
:102C70000E94DE11D0CF883909F48CC038F588372E
:102C800029F050F4883611F0803729F683E08093DC
:102C9000AE021092680257C0883809F47BC08039B0
:102CA00019F0803809F0B7CF80916802803208F0BF
:102CB00071C0E091680281E08E0F8093680280917C
:102CC000BB00F0E0E85BFD4F80833DC0803B39F006
:102CD000E0F4803A09F479C0883A09F09CCF84E0A6
:102CE0008093AE021092450210924402E09142029B
:102CF000F091430209958091440281110FC081E057
:102D0000809344021092220209C0803C09F4A6CFAD
:102D1000883C09F4A3CF883B09F07DCFE0914502C0
:102D200081E08E0F80934502F0E0EE5DFD4F8081E3
:102D30008093BB00909145028091440229C080910C
:102D400089028093BB0085EC8093BC0064CF909196
:102D5000AB028091AA02981758F5E091AB0281E08E
:102D60008E0F8093AB02F0E0E657FD4F8081E9CFF4
:102D7000E091AB0281E08E0F8093AB028091BB00AB
:102D8000F0E0E657FD4F80839091AB028091AA025C
:102D90009817C8F285E8D8CFE091AB0281E08E0F9A
:102DA0008093AB028091BB00F0E0E657FD4F80833B
:102DB0008091AD0281115CCF81E08093880284EA2A
:102DC0008093BC001092AE0226CF85EC8093BC00AD
:102DD0001092AE0280916802803230F4E091680275
:102DE000F0E0E85BFD4F10826091680270E0E091D6
:102DF0004602F091470288E492E009951092680239
:102E00000ACF1092AC0234CF0F931F93CF93DF936E
:102E1000A3ECB3E013961C921E92129748EE53E077
:102E200060E070E014964D935D936D937C931797DB
:102E30008EE191E011969C938E9385EC90E01D9627
:102E40009C938E931C9784EC90E01F969C938E939A
:102E50001E9780EC90E051969C938E93509781EC56
:102E600090E053969C938E93529782EC90E0559607
:102E70009C938E93549786EC90E057969C938E93F8
:102E8000569759961C9259975A961C925A975B9648
:102E90001C925B975C961C925C97E0E6F4E0B18331
:102EA000A08312822AEF30E03483238380E197E20B
:102EB000A0E0B0E085839683A783B0871586118A4A
:102EC000108A138A128A158A148A178A168A118E12
:102ED000108E138E128E158E148E178E168E11A2D2
:102EE00010A213A212A215A214A21092AD04109265
:102EF000B0041092B304E9EAF3E080E090E0A6E9C0
:102F0000B2E484879587A687B78780E090E4ACE138
:102F1000B6E4808B918BA28BB38B83E1868B108E72
:102F2000178A88EA93E0958B848B84E591E09183FE
:102F30008083A7E7B3E088E491E011969C938E9399
:102F400012961C9212978FE09B968C939B979F965C
:102F50001C921E929E97D0961C92D0979D96FC93A1
:102F6000EE939C97E4E4F3E0108217A216A281E0AE
:102F700086A793E091A795E092A796E093A799E0A2
:102F800094A794E095A7ECE1F3E0818343E453E058
:102F90004283818744E650E0538742874FEF5FEFDB
:102FA000558744871786168640E355E7518B408B3B
:102FB0009EE0928B9FEF938B948B40E050E060E01B
:102FC0007FE3458B568B678B708F48EE53E054A39D
:102FD00043A316A215A2C3EFD2E01A821C821B8261
:102FE00048E351E0598348839AE0998744E050E0F0
:102FF0005B8B4A8B3D8B2C8B8E8B188E1F8A80E0CF
:1030000090E0A0E4BFE38DA39EA3AFA3B8A78EE199
:1030100090E00E94EB2C8C0181E090E0D8011196A9
:103020009C938E9386E391E017969C938E931697CC
:1030300080EE95E7A9E0B0E0F80180879187A2874C
:10304000B38780E29EE4A0E0B0E084879587A687FE
:10305000B78761E082E10E94CC0160E080E10E94DC
:10306000CC0160E082E10E948001E9EEF0E0E491B1
:10307000D8015896EC935897E5EDF0E0E491F0E034
:10308000EE0FFF1FE754FF4F85919491F801928F47
:10309000818FE7EEF0E0E4915B96EC93E3EDF0E0F6
:1030A000E491F0E0EE0FFF1FE754FF4F85919491FC
:1030B000F801958F848F8FEF9FEFAFEFBFE0828392
:1030C0009383A483B5830E947F02D80150966D93A9
:1030D0007D938D939C9353971A8F098F1A82C8ED15
:1030E000D2E080E391E09983888382E08A838AEF4B
:1030F0009DEAA8E7B6E48B879C87AD87BE871B82D5
:103100001C821D821E821F82188619861A861F8ABB
:10311000188E198E1A8E0E945A026F87788B898BAF
:103120009A8B80E391E099838883DF91CF911F91FF
:103130000F910895CF93DF93CDB7DEB7E4970FB625
:10314000F894DEBF0FBECDBF789484B5826084BD95
:1031500084B5816084BD85B5826085BD85B581609B
:1031600085BD80916E00816080936E001092810019
:1031700080918100826080938100809181008160D4
:103180008093810080918000816080938000809195
:10319000B10084608093B1008091B0008160809321
:1031A000B00080917A00846080937A0080917A00E8
:1031B000826080937A0080917A00816080937A00A7
:1031C00080917A00806880937A001092C10084E632
:1031D00090E0909327038093260380E090E0A0E0A6
:1031E000BFE38093310390933203A0933303B093F2
:1031F000340381E080932503809141039091420341
:10320000892B51F481E090E00E94EB2C90934203D3
:1032100080934103DC011C9260E080912E030E94A8
:10322000CC010E947F0220913F0330914003DC01DA
:10323000CB01820F931FA11DB11D80933703909383
:103240003803A0933903B0933A0380933B039093E0
:103250003C03A0933D03B0933E030E949F1185E081
:1032600090E0909306038093050380E090E0A0E84F
:10327000BEE38093180390931903A0931A03B093AD
:103280001B0381E08093090388ED92E090930B0388
:1032900080930A0383EF92E00E94BB118BE892E0D7
:1032A000909379048093780487EC92E090937B0468
:1032B00080937A0480EF92E090937D0480937C0465
:1032C00085EE94E1909381048093800483EE94E1F1
:1032D000909383048093820487E793E09093AA04F9
:1032E0008093A9048CE193E09093AF048093AE04A3
:1032F00084E493E09093AC048093AB0483EF92E07A
:103300009093B2048093B10440E052EC61E070E02D
:1033100080916004909161040E94A10080916004FA
:103320009091610490936F0480936E0463E270E067
:103330008EE694E00E94EB0F60E081E10E94CC01F8
:1033400061E08AE00E94CC0161E070E08AE00E94C6
:10335000FD0182E1E8E0F1E0DE01119601900D92BD
:103360008A95E1F700916A0310916B03011511052D
:1033700079F410E0809171031817D8F4E12FF0E090
:10338000EC5BFC4F61E081A50E94CC011F5FF2CF96
:10339000F8018681978197FD09C061E00E94CC0108
:1033A00060E0D80116968C910E94800181E0F801BE
:1033B000818384E493E00E94470EDE011196E4E4E9
:1033C000F3E084E690E012962C91129711963C91CE
:1033D00011974C914183328323839683858313967F
:1033E000369623E0E836F20771F785E080934403D0
:1033F00087E793E00E94140EE7E7F3E088EE93E09E
:1034000024E630E094838383368325838C599F4F51
:103410003496803D47E09407A9F789E080937903CB
:1034200040E050E060E87FE387E793E00E949A0D78
:1034300022242A94322CCE010A969CAB8BABEE242C
:10344000EA94FE2C4EE1442E512C612C712C01E0AB
:1034500010E08091600490916104DC01ED91FC9199
:103460000084F185E02D0995892BD1F180916004CC
:1034700090916104DC01ED91FC910284F385E02DD3
:103480000995682FC82ED92ED0928704C092860441
:10349000E0918B04F0918C04309711F00C94392456
:1034A00080918A04811120C1D0928904C09288043D
:1034B00081E080938A0480918B0490918C04892B05
:1034C00011F00C94272980918A0481110C942729EA
:1034D00010929C0410929D0410929E0410929F04DE
:1034E00080919C0490919D04A0919E04B0919F04B2
:1034F000892B8A2B8B2B89F00E947F0280909C0461
:1035000090909D04A0909E04B0909F04861697060C
:10351000A806B90610F40E940101809173039091EE
:103520007403A0917503B0917603892B8A2B8B2BA2
:1035300099F00E947F028090730390907403A09092
:103540007503B090760386169706A806B90620F490
:1035500084E493E00E94470ED0900101DD20C9F180
:1035600080916903811135C0DA94D0920101D09223
:10357000440384E493E00E948B0E6D2D87E793E073
:103580000E94EF0D80910101811123C0F0924A0346
:10359000E0924903F0925003E0924F03F0925603F9
:1035A000E0925503F0925C03E0925B03F0926203B9
:1035B000E0926103F0926803E092670385E08093F4
:1035C000440384E493E00E94470E87E793E00E945F
:1035D000EB0D0E949F1183EF92E00E94500BD09060
:1035E0007E02D82AD0927E020E947F0280907A02C8
:1035F00090907B02A0907C02B0907D0268157905C6
:103600008A059B0508F1DD20F9F08091620481FFB5
:103610000BC082FD02C00C943B2940E063EF72E0D6
:103620008EE694E00E94801010927E020E947F023B
:10363000665F7F4F8F4F9F4F60937A0270937B023C
:1036400080937C0290937D028091620480FF3FC052
:103650000E945A028090690490906A04A0906B04C2
:10366000B0906C0486169706A806B90680F580917E
:10367000620482FD02C00C94432940E06CE173E0D7
:103680008EE694E00E94DD1040E063EF72E08EE68B
:1036900094E00E9480108091690490916A04A09146
:1036A0006B04B0916C044091650450916604609184
:1036B000670470916804840F951FA61FB71F80933D
:1036C000690490936A04A0936B04B0936C0480E047
:1036D00090E0892B09F4BDCE0E944606882309F4A8
:1036E000B6CE0E940000B3CEDC2CCC2420918804FE
:1036F00030918904C20ED31ED0928904C0928804EE
:1037000010928A04BDE8CB16B1E0DB0609F425C6A9
:1037100008F027C2F9E7CF16D10409F484C508F0F0
:10372000D7C030E1C316D10409F4C6C408F05AC0AA
:1037300085E0C816D10409F4FBC4C8F4A1E0CA1698
:10374000D10409F442C408F43DC4E2E0CE16D10429
:1037500009F442C4F4E0CF16D10409F401C561E2D2
:1037600070E08EE694E00E94EB0FB60130C428E0D2
:10377000C216D10409F46CC408F546E0C416D1049D
:1037800009F4FBC487E0C816D10449F783E090E050
:1037900090938C0480938B0484E190E090938E044A
:1037A00080938D0481E08093A4041092A50410926C
:1037B000A6041092A7041092A8047DCE9CE0C9161E
:1037C000D10409F4E5C4AEE0CA16D10441F66FE0B5
:1037D00070E08EE694E00E94EB0F40E052EC61E076
:1037E00070E031C4B8E1CB16D10409F4FEC3D0F5C2
:1037F000F2E1CF16D10409F498C408F482C433E18D
:10380000C316D10409F40DC446E1C416D10409F06D
:10381000A6CFE0917004F0917104309709F453CE73
:10382000CE0101960995D82E65E170E08EE694E010
:103830000E94EB0F80916E0490916F04DC01ED917A
:10384000FC910190F081E02D6D2D09954D2D50E0FA
:10385000BE016F5F7F4F80916E0490916F040E9454
:10386000051129CE86E6C816D10409F4CBC4A0F40C
:10387000AAE1CA16D10409F4C6C3B5E6CB16D10431
:1038800009F06DCF10938C0400938B0482E0809339
:103890009A0482E190E019C4E7E6CE16D10409F457
:1038A000AEC4F8E7CF16D10409F059CF83E190E018
:1038B00090938C0480938B0483E080939A0483E03C
:1038C00090E090938E0480938D0485E190E0BCC4D9
:1038D0002AE0C21621E0D20609F408C508F092C019
:1038E00044E0C41641E0D40609F4D9C408F047C046
:1038F000C11491E0D90609F4B6C420F5BAE7CB1695
:10390000D10409F02CCFE0918404F0918504309724
:1039100009F4D9CD09956093A0047093A104809314
:10392000A2049093A3046BE770E08EE694E00E94FB
:10393000EB0F4091A0045091A1046091A2047091FA
:10394000A30481C3E1E0CE16DE0609F48FC4F2E0E1
:10395000CF16F1E0DF0609F002CF63E071E08EE6FA
:1039600094E00E94EB0F80916E0490916F04DC0153
:10397000ED91FC910190F081E02D6AE07DC327E09C
:10398000C21621E0D20609F48DC4A8F445E0C4169D
:1039900041E0D40609F476C486E0C81681E0D80672
:1039A00009F0DDCE10938C0400938B0410929A04DE
:1039B00086E290E08AC398E0C91691E0D90609F43E
:1039C0008CC4A9E0CA16A1E0DA0609F0C8CEC090FE
:1039D000A904D090AA04C114D10409F474CD68E0FC
:1039E00071E08EE694E00E94EB0FF6018281F4E034
:1039F0008F9FC0011124C80ED91ED60115966D9156
:103A00007C91E5C2B4E8CB16B1E0DB0609F4A2C4B0
:103A100008F04FC0F0E6CF16F1E0DF0609F4ECC382
:103A200078F53BE0C31631E0D30609F098CEC0909C
:103A3000A904D090AA04C114D10409F444CD6AE0C9
:103A400071E08EE694E00E94EB0FF60184A595A547
:103A5000009709F455C4DC01ED91FC910084F185D7
:103A6000E02DD601D0966C9109959B01AC0160E0E8
:103A700070E080E89FE30E94A52A0E9445011BCDCB
:103A800040E8C41641E0D40609F45CC481E8C816D5
:103A900081E0D80609F063CE8091AB049091AC042C
:103AA000DC0195962C91222309F40DCD0E94470E3E
:103AB00002CD97E8C91691E0D90609F471C4B0F4B3
:103AC000B5E8CB16B1E0DB0609F43FC4E6E8CE1654
:103AD000E1E0DE0609F043CE10938C0400938B04E2
:103AE00082E080939A048DE290E0EFC2F8E8CF166E
:103AF000F1E0DF0609F49BC429E8C21621E0D206F2
:103B000009F02DCEE091AD04F0E0EE0FFF1FE5557A
:103B1000FB4F0190F081E02D808190E0909387042D
:103B20008093860468E871E08EE694E00E94EB0FD3
:103B3000E091AD04F0E0EE0FFF1FE555FB4F019063
:103B4000F081E02D209186043091870446E0429F69
:103B5000C001439F900D1124E80FF91F6581768104
:103B600036C233E8C31632E0D30609F45BC508F069
:103B700019C18BE0C81682E0D80609F4CAC408F05F
:103B80007CC0A5E0CA16A2E0DA0609F46DC470F59F
:103B9000EFE8CE16E1E0DE0609F4F4C308F4EFC363
:103BA00021E0C21622E0D20609F44AC433E0C3166B
:103BB00032E0D30609F0D3CDE091B004F0E0EE0F8F
:103BC000FF1FE255FB4F808191810E94000F4091C1
:103BD000B004E42FF0E0EE0FFF1FE255FB4F6081D1
:103BE00071818EE694E00E94DD1065CC48E0C41639
:103BF00042E0D40609F467C468F596E0C91692E07D
:103C0000D90609F456C4A7E0CA16A2E0DA0609F0FC
:103C1000A6CDC090B004D12CF601EE0FFF1FE255E7
:103C2000FB4FA080B18066E072E08EE694E00E94D7
:103C3000EB0FB6016F5F7F4F80916E0490916F0420
:103C40000E946710D50155966D917D918D919C9143
:103C5000589713CFB9E0CB16B2E0DB0609F43CC4A9
:103C600082E390E0EAE0CE16E2E0DE0609F077CDEE
:103C700090938C0480938B041ECCF2E7CF16F2E075
:103C8000DF0609F491C408F045C03FE0C31632E0F6
:103C9000D30609F463C4C8F48CE0C81682E0D806E1
:103CA00009F05DCDE091B004F0E0EE0FFF1FE255AA
:103CB000FB4F0190F081E02D35862486178616860D
:103CC000128E118E81E08187F6CB90E1C91692E0C9
:103CD000D90609F44CC4A1E7CA16A2E0DA0609F035
:103CE0003ECD8091B1049091B204DC01ED91FC9144
:103CF0000280F381E02D0995E091B304F0E0EE0F2E
:103D0000FF1FEF54FB4F608171818EE694E00E94AB
:103D10001810D1CBB5E7CB16B2E0DB0609F44CC4E2
:103D2000B0F4F3E7CF16F2E0DF0609F440C424E76D
:103D3000C21622E0D20609F012CD10938C04009333
:103D40008B0482E080939A0485E390E0BEC136E75D
:103D5000C31632E0D30609F455C441E8C41642E064
:103D6000D40609F0FCCCE091B304F0E0EE0FFF1FA5
:103D7000EF54FB4F80819181DC01ED91FC91028039
:103D8000F381E02D09954091B304E42FF0E0EE0FAC
:103D9000FF1FEF54FB4F608171818EE694E00E941B
:103DA000801089CB8EE8C81682E0D80609F407C5D2
:103DB00008F08FC0A8E8CA16A2E0DA0609F4A9C480
:103DC000A8F5E5E8CE16E2E0DE0609F474C408F4CE
:103DD0005DC426E8C21622E0D20609F491C437E891
:103DE000C31632E0D30609F0BACCC090B304D12C8C
:103DF000F601EE0FFF1FEF54FB4FA080B18066E885
:103E000072E08EE694E00E94EB0FA114B10409F475
:103E100073C4B6016F5F7F4F80916E0490916F0401
:103E20000E946710F501638D748DD1C04BE8C416F4
:103E300042E0D40609F499C4A8F499E8C91692E0BE
:103E4000D90609F46EC4AAE8CA16A2E0DA0609F097
:103E500086CC10938C0400938B0410929A04E9E3AF
:103E6000F0E01CC4BCE8CB16B2E0DB0609F49FC44A
:103E7000EDE8CE16E2E0DE0609F071CCC090B304A6
:103E8000D12CF601EE0FFF1FEF54FB4FA080B18045
:103E90006CE872E08EE694E00E94EB0FA114B1048E
:103EA00009F45FC4B6016F5F7F4F80916E049091FB
:103EB0006F040E94671080916E0490916F04DC0182
:103EC000ED91FC910190F081E02DD50119966C9156
:103ED000D3C0F3E9CF16F2E0DF0609F476C4F0F4BC
:103EE00030E9C31632E0D30609F46CC408F4E3CA1F
:103EF00081E9C81682E0D80609F4DDCA92E9C9163C
:103F000092E0D90609F02BCC10938C0400938B041B
:103F100082E080939A048DE390E0D7C0A4E6CA16AD
:103F2000A5E6DA0609F4C7CAB8F5E4E9CE16E2E078
:103F3000DE0609F48FC4F5E9CF16F2E0DF0609F0DA
:103F40000ECCC090B304D12CF601EE0FFF1FEF543E
:103F5000FB4FA080B180A114B10409F47EC464E9D0
:103F600072E08EE694E00E94EB0FB6016F5F7F4F28
:103F700080916E0490916F040E946710D50157964E
:103F8000ED91FC9180916E0490916F04309709F44B
:103F90008BC0628170E0DEC222E6C21624E7D20640
:103FA00009F498C033E6C31634E7D30609F0D7CB3B
:103FB00025E030E030938C0420938B048FEF8093C6
:103FC0009A0479CA0E94010176CA6DEC7BEA8EE6FA
:103FD00094E00E94EB0F6FCA63E070E08EE694E01D
:103FE0000E94EB0F67E070E0F2CFE0917204F09175
:103FF0007304309709F467CACE0101960995D82E4B
:1040000067E170E013CCE0917404F091750430978F
:1040100009F459CACE0101960995D82E69E170E0DC
:1040200005CC64E170E08EE694E00E94EB0F0E9404
:104030007F02AB01BC018EE694E00E94CB0F0E9490
:104040005A02AB01BC018EE694E00E94CB0F33CA4A
:10405000E0917E04F0917F04309781F0C09060047D
:10406000D0906104D6018D919C91DC01AD90BC9003
:104070000995682FC601F50109951DCA69E070E030
:104080008EE694E00E94EB0F80916E0490916F0495
:10409000DC01ED91FC910190F081E02D6FE109953B
:1040A00080916E0490916F04DC01ED91FC91019080
:1040B000F081E02D60E0E0CF10938C0400938B043E
:1040C00082E080939A0484E090E090938E04809341
:1040D0008D04E8C263E674E78EE694E00E94EB0F7D
:1040E000D12CC12CB60180916E0490916F040E9476
:1040F0000C11BFEFCB1ADB0AC114E1E0DE0691F729
:10410000DAC9D0906D0462E170E08EE694E00E941E
:10411000EB0F80916E0490916F04DC01ED91FC91A6
:104120000190F081E02D6D2DA7CF86E090E0A0CD2D
:1041300083E090E090938C0480938B0484E190E082
:1041400090938E0480938D0481E08093A404409228
:10415000A5045092A6046092A7047092A804ABC96B
:104160004092A5045092A6046092A7047092A804FD
:1041700085E090E00E9413119EC91092A504109250
:10418000A6041092A7041092A80487E090E0F2CF52
:10419000DE011196EEE0F0E021E2CF0101962093DE
:1041A0005700E491ED93FC01449711F4E5E1F0E050
:1041B0008BA99CA98A179B0781F76DE070E08EE6BA
:1041C00094E00E94EB0F69E070E080916E049091A2
:1041D0006F040E940C1180916E0490916F04DC01B9
:1041E000ED91FC910280F381E02D49E050E0BE01A9
:1041F0006F5F7F4F09955FC980E190E039CD81E124
:1042000090E036CD8090650490906604A09067049D
:10421000B090680465E670E08EE694E00E94EB0FD3
:10422000B501A40110CF83E190E090938C048093BA
:104230008B0483E080939A0483E090E090938E0453
:1042400080938D0484E190E09093900480938F0498
:104250001092A5041092A6041092A7041092A8042C
:104260001092990428C984E290E002CD8091A904BB
:104270009091AA04DC01ED91FC910680F781E02D7C
:10428000099519C9E091A904F091AA04309709F49D
:104290001AC9628184E091E00E946E100CC985E227
:1042A00090E0E6CCC090A904D090AA04C114D10437
:1042B00009F409C966E071E08EE694E00E94EB0F14
:1042C000F6018281F4E08F9FC0011124C80ED91E2F
:1042D000D60113966D917C917ACE10938C04009345
:1042E0008B0410929A0487E290E0EFCE10938C0436
:1042F00000938B0482E080939A0488E290E0E5CEFC
:10430000C6A4D7A460E070E080E89FE3C114D104A4
:1043100009F4B3CBD60113966C9170E090E080E085
:104320000E9456294B015C01F601608170E090E02B
:1043300080E00E9456299B01AC01C501B4010E9496
:10434000122B9BCB89E290E093CC6091AD0484E882
:1043500091E0A2CF8AE290E08BCC6CE871E08EE62F
:1043600094E00E94EB0F80916E0490916F04DC0149
:10437000ED91FC910190F081E02D66E07DCE8BE225
:1043800090E076CCE091AD04F0E0EE0FFF1FE55534
:10439000FB4F0190F081E02D60818EE891E07CCFB1
:1043A000E091AD04F0E0EE0FFF1FE555FB4F0190EB
:1043B000F081E02D808190E09093870480938604C3
:1043C00066E871E08EE694E00E94EB0FD12CC12CE0
:1043D000B6E0BB2E8091600490916104E091AD0441
:1043E000F0E0EE0FFF1FE555FB4FA081B18140913A
:1043F000860450918704B49E9001B59E300D11241F
:10440000A20FB31F9D012C0D3D1DDC01ED91FC9110
:104410000190F081E02DD90111966C910995BFEFC3
:10442000CB1ADB0AE4E0CE16D104A1F644C81093FF
:104430008C0400938B0410929A048EE290E045CE97
:104440008091AE049091AF040E94000FE091B004FF
:10445000F0E0EE0FFF1FE255FB4F608171818EE6A9
:1044600094E00E94441027C8C090B004D12CF601FB
:10447000EE0FFF1FE255FB4FA080B18064E072E0B9
:104480008EE694E00E94EB0FB6016F5F7F4F809144
:104490006E0490916F040E946710D5011C966D9177
:1044A0007C918EE694E00E94EB0FF501668577859E
:1044B0008ECD10938C0400938B0482E080939A0439
:1044C00080E390E002CE10938C0400938B04109252
:1044D0009A0481E390E0F9CDC090B004D12CF601AC
:1044E000EE0FFF1FE255FB4FA080B18068E072E045
:1044F0008EE694E00E94EB0FB6016F5F7F4F8091D4
:104500006E0490916F040E946710F501618D728DA9
:104510005ECDC090B004D12CF601EE0FFF1FE25526
:10452000FB4FA080B1806AE072E08EE694E00E94CA
:10453000EB0FB6016F5F7F4F80916E0490916F0417
:104540000E946710D50119966C9170E080916E04FD
:1045500090916F040E9467100C945B1A10938C0466
:1045600000938B0410929A0483E390E0AECDC09048
:10457000B004D12CF601EE0FFF1FE255FB4FA080D7
:10458000B1806FE072E08EE694E00E94EB0FB6011E
:104590006F5F7F4F80916E0490916F040E9467104F
:1045A000F5016285738513CD84E390E061CB609162
:1045B000B30482E792E070CEC090B304D12CF60130
:1045C000EE0FFF1FEF54FB4FA080B18064E772E055
:1045D0008EE694E00E94EB0F80916E0490916F0440
:1045E000A114B10409F42AC1B6016F5F7F4F0E9484
:1045F0006710D501ED91FC910084F185E02DC50196
:1046000009953BCAE091B304F0E0EE0FFF1FEF54B1
:10461000FB4F80819181DC01ED91FC910284F38557
:10462000E02D2ECEC090B304D12CF601EE0FFF1F6B
:10463000EF54FB4FA080B18062E872E08EE694E018
:104640000E94EB0F80916E0490916F04A114B1044D
:1046500089F0B6016F5F7F4F0E946710F501668594
:1046600077858EE694E00E94EB0FD50150966D9110
:104670007C91ADCCDC01ED91FC910190F081E02DBD
:1046800060E0099540E050E0BA01DDCC10938C0465
:1046900000938B0410929A04E6E3F0E0F0938E040A
:1046A000E0938D041092A0041092A1041092A20431
:1046B0001092A304D5CDC090B304D12CF601EE0F17
:1046C000FF1FEF54FB4FA080B18064E872E08EE6DC
:1046D00094E00E94EB0FA114B10471F0B6016F5F7A
:1046E0007F4F80916E0490916F040E946710D501F6
:1046F00052966D917C916BCC0E9406100C945B1AC3
:1047000010938C0400938B0410929A0487E390E03A
:10471000DCCC28E330E030938C0420938B040C94A1
:104720005B1AC090B304D12CF601EE0FFF1FEF54BB
:10473000FB4FA080B18068E872E08EE694E00E94B2
:10474000EB0FA114B10469F0B6016F5F7F4F809148
:104750006E0490916F040E946710D50156966C917B
:10476000F4CE0E9466010C945B1AC090B304D12C65
:10477000F601EE0FFF1FEF54FB4FA080B1806AE8F7
:1047800072E08EE694E00E94EB0FA114B10409F4EC
:10479000B3CFB6016F5F7F4F80916E0490916F042D
:1047A0000E946710D50154966D917C9110CCEAE37C
:1047B000F0E0F0938C04E0938B040C945B1AEBE331
:1047C000F0E0F7CF2CE330E0A6CFC090B304D12CBB
:1047D000F601EE0FFF1FEF54FB4FA080B18062E99E
:1047E00072E08EE694E00E94EB0F80916E0490914F
:1047F0006F04A114B10411F1B6016F5F7F4F0E94E5
:104800006710D5015796ED91FC913097F9F02DEB9B
:1048100037E346E855E363857485858596850E9470
:10482000B7292BED3FE049EC50E40E94B7299B01EA
:10483000AC0160E070E080E89FE381CDDC01ED91A8
:10484000FC910190F081E02D60E0099560E070E05E
:10485000CB0113C9EEE3F0E0ACCF80916E049091F0
:104860006F04DC01ED91FC910190F081E02D60E09E
:1048700016CC3197EE33F10508F06BC0EE5BFB4DC3
:104880000C94E52C8024A924A524E0245B25CF25C5
:10489000A924A924A924A924A924A924A924A924B0
:1048A000A924A924D2250E2637265926A924A924CD
:1048B000A924A924A924A924A924A924A924A92490
:1048C000A924A924A924A924A924792685268D26EA
:1048D000BB26E926F52603270727A92413274827FF
:1048E00079277C27A327D127E0270D2811286528C1
:1048F00037289228A228CF28A924A924DB28072911
:10490000909199044601B12CA12C092E04C0880C69
:10491000991CAA1CBB1C0A94D2F74091A004509188
:10492000A1046091A2047091A304480D591D6A1D51
:104930007B1D4093A0045093A1046093A204709344
:10494000A304985F9093990404C0CD2869F40E9451
:10495000010180919A04882309F46BC490919B040F
:10496000911167C481502BCB8FEF860F80939A04EF
:1049700081E080939B048091A404882351F3E0910B
:104980008004F09181043097C1F08091A50490914A
:10499000A604A091A704B091A8044C015D012FEFDB
:1049A000821A920AA20AB20A8092A5049092A604E0
:1049B000A092A704B092A80409951092A404C9CFAC
:1049C000C601B0E0A0E02091990404C0880F991FAF
:1049D000AA1FBB1F2A95D2F74091A0045091A104B1
:1049E0006091A2047091A304840F951FA61FB71FA6
:1049F000BF708093A0049093A104A093A204B093ED
:104A0000A30424E0D694C7942A95E1F7D0928704B2
:104A1000C0928604C0906004D0906104D601ED91EC
:104A2000FC910680F781E02DC6010995D6015296CA
:104A3000ED91FC91539780818F7E80835296ED910A
:104A4000FC9153978081877F80835296ED91FC91F2
:104A5000539780818F7780835296ED91FC91539785
:104A600080818F7D80835A968C915A9759968C932A
:104A70004091A0045091A1046091A2047091A304FC
:104A800080916004909161040E94A1008090A00434
:104A90009090A104A090A204B090A30465E674E7EE
:104AA0008EE694E00E94EB0FB501A4018EE694E03F
:104AB0000E94CB0F4ECF20919A042F3F59F4809340
:104AC0009A041092A0041092A1041092A2041092D1
:104AD000A3043FCF8091A0049091A104A091A204CF
:104AE000B091A3048C151D0459F49F5FAF4FBF4FC5
:104AF0008093A0049093A104A093A204B093A30474
:104B0000211139C064E674E78EE694E00E94EB0F51
:104B1000A0916004B09161044091A0045091A1045F
:104B20006091A2047091A304CB01BA016F5F7F4F23
:104B30008F4F9F4FED91FC9111970190F081E02DE7
:104B4000CD010995A0916004B09161044091A00449
:104B50005091A1046091A2047091A3049927872F1A
:104B6000762F652FED91FC9111970190F081E02D4A
:104B7000CD010995EECE8091A0049091A104A09161
:104B8000A204B091A3040196A11DB11D8093A004BD
:104B90009093A104A093A204B093A304DACE8093CF
:104BA0006D04D7CE80936204882309F4D2CEE091BD
:104BB000B004F0E0EE0FFF1FE255FB4F6081718102
:104BC0008EE694E00E944410E091B304F0E0EE0F12
:104BD000FF1FEF54FB4F608171818EE694E00E94CD
:104BE00018108091620480FFB4CE0E945A02809017
:104BF000650490906604A0906704B0906804DC019E
:104C0000CB01880D991DAA1DBB1D8093690490934B
:104C10006A04A0936B04B0936C049BCEC601B0E011
:104C2000A0E02091990404C0880F991FAA1FBB1F00
:104C30002A95D2F74091A0045091A1046091A2045A
:104C40007091A304840F951FA61FB71F8093A00423
:104C50009093A104A093A204B093A304809365044D
:104C600090936604A0936704B093680472CE909109
:104C700099044601B12CA12C092E04C0880C991C62
:104C8000AA1CBB1C0A94D2F74091A5045091A6041B
:104C90006091A7047091A804480D591D6A1D7B1DE1
:104CA0004093A5045093A6046093A7047093A804AE
:104CB00048CEE0918004F0918104309709F449CE08
:104CC0008091A5049091A604A091A704B091A80496
:104CD0004C015D012FEF821A920AA20AB20A809259
:104CE000A5049092A604A092A704B092A8040995E6
:104CF00030CE8091A9049091AA046150DC01ED911D
:104D0000FC910480F581E02DF2CFA091A904B0912F
:104D1000AA04615012966C931CCEC601B0E0A0E0CC
:104D20002091990404C0880F991FAA1FBB1F2A95C0
:104D3000D2F74091A0045091A1046091A204709117
:104D4000A304840F951FA61FB71F8093A004909300
:104D5000A104A093A204B093A304E091A904F0914C
:104D6000AA04228144E0249F90011124E20FF31F42
:104D700094838383EECDC601B0E0A0E02091990436
:104D800004C0880F991FAA1FBB1F2A95D2F7409114
:104D9000A0045091A1046091A2047091A304840F17
:104DA000951FA61FB71F8093A0049093A104A09302
:104DB000A204B093A304E091A904F091AA04228173
:104DC00044E0249F90011124E20FF31F9683858312
:104DD000C0CDC090A904D090AA040E942401AB01C8
:104DE000BC01C6010E949A0DB4CD61506093AD0420
:104DF000E62FF0E0EE0FFF1FE555FB4F808191811C
:104E00000E948B0EA6CD61506093AD04A2CDE091BF
:104E1000AD04F0E0EE0FFF1FE555FB4FA081B1811F
:104E200061506C9396CDC601B0E0A0E0209199044A
:104E300004C0880F991FAA1FBB1F2A95D2F7409163
:104E4000A0045091A1046091A2047091A304840F66
:104E5000951FA61FB71F8093A0049093A104A09351
:104E6000A204B093A304E091AD04F0E0EE0FFF1FA5
:104E7000E555FB4F0190F081E02D208136E0239F26
:104E8000E00DF11D112481839283A383B48361CD4E
:104E9000C601B0E0A0E02091990404C0880F991FDA
:104EA000AA1FBB1F2A95D2F74091A0045091A104DC
:104EB0006091A2047091A304840F951FA61FB71FD1
:104EC0008093A0049093A104A093A204B093A304A0
:104ED000E091AD04F0E0EE0FFF1FE555FB4F0190B0
:104EE000F081E02D208146E0249FE00DF11D11248A
:104EF0006DCF8093B0042DCDE091B004F0E0EE0FC3
:104F0000FF1FE255FB4FC080D1800E942401D601D3
:104F100055966D937D938D939C93589781E0199648
:104F20008C93E091B004F0E0EE0FFF1FE255FB4FD1
:104F30000190F081E02D3586248617861686128E24
:104F4000118E818706CDC601B0E0A0E020919904C2
:104F500004C0880F991FAA1FBB1F2A95D2F7409142
:104F6000A0045091A1046091A2047091A304840F45
:104F7000951FA61FB71F8093A0049093A104A09330
:104F8000A204B093A304E091B004F0E0EE0FFF1F81
:104F9000E255FB4F0190F081E02D928F818F1186B9
:104FA000D8CCE091B004F0E0EE0FFF1FE255FB4FCC
:104FB0000190F081E02D81E0CD2819F680E0C1CF8D
:104FC000C601B0E0A0E02091990404C0880F991FA9
:104FD000AA1FBB1F2A95D2F74091A0045091A104AB
:104FE0006091A2047091A304840F951FA61FB71FA0
:104FF0008093A0049093A104A093A204B093A3046F
:10500000E091B004F0E0EE0FFF1FE255FB4F01907E
:10501000F081E02D938782879CCC61506093B3042C
:1050200098CCE091B304F0E0EE0FFF1FEF54FB4F7C
:10503000C080D180D601ED91FC91A680B7800E94FE
:105040002401AB01BC01C601F5010995E091B3044F
:10505000F0E0EE0FFF1FEF54FB4F80819181DC01E8
:10506000ED91FC910284F385E02D099572CCC60187
:10507000B0E0A0E02091990404C0880F991FAA1FF6
:10508000BB1F2A95D2F74091A0045091A1046091D2
:10509000A2047091A304840F951FA61FB71F8093CD
:1050A000A0049093A104A093A204B093A304E09160
:1050B000B304F0E0EE0FFF1FEF54FB4F0190F081BF
:1050C000E02D948F838F168A44CCC601B0E0A0E017
:1050D0002091990404C0880F991FAA1FBB1F2A950D
:1050E000D2F74091A0045091A1046091A204709164
:1050F000A304840F951FA61FB71F8093A00490934D
:10510000A104A093A204B093A304E091B304F0E03F
:10511000EE0FFF1FEF54FB4F0190F081E02D938BBA
:10512000828B17CCE091B304F0E0EE0FFF1FEF5439
:10513000FB4F0190F081E02D81E0CD2809F480E063
:10514000868B07CCC601B0E0A0E02091990404C092
:10515000880F991FAA1FBB1F2A95D2F74091A00460
:105160005091A1046091A2047091A304840F951F33
:10517000A61FB71F8093A0049093A104A093A2043C
:10518000B093A304E091B304F0E0EE0FFF1FEF54DF
:10519000FB4F0190F081E02D958B848BDACBE09171
:1051A000B304F0E0EE0FFF1FEF54FB4F0190F081CE
:1051B000E02D8187CECBE091B304F0E0EE0FFF1F2E
:1051C000EF54FB4F0190F081E02DC788D08CC114C3
:1051D000D10409F4BECB0E9424012BED3FE049EC41
:1051E00050E40E94B7299B01AC0160E070E080E8C8
:1051F0009FE30E94122B20E034E244E759E40E942E
:10520000B729F6016387748785879687A2CBE091DB
:10521000B304F0E0EE0FFF1FEF54FB4F0190F0815D
:10522000E02D0788F08DE02D309709F492CB628352
:1052300090CBEBE8F4E0828193818193919324E019
:10524000E739F207C1F710929B040C945B1A0E9495
:105250007F022091630430916404620F731F811DEB
:10526000911D60939C0470939D0480939E04909381
:105270009F040C94701A63EF72E08EE694E00E9433
:1052800018100C94141B6CE173E08EE694E00E94FD
:10529000441063EF72E08EE694E00E9418100C94C4
:1052A0004B1B0E94932908F481E00895E89409C0FB
:1052B00097FB3EF490958095709561957F4F8F4F49
:1052C0009F4F9923A9F0F92F96E9BB279395F6955F
:1052D000879577956795B795F111F8CFFAF4BB0FDD
:1052E00011F460FF1BC06F5F7F4F8F4F9F4F16C041
:1052F000882311F096E911C0772321F09EE8872FCB
:10530000762F05C0662371F096E8862F70E060E086
:105310002AF09A95660F771F881FDAF7880F9695FF
:10532000879597F90895990F0008550FAA0BE0E8A3
:10533000FEEF16161706E807F907C0F01216130657
:10534000E407F50798F0621B730B840B950B39F497
:105350000A2661F0232B242B252B21F408950A26FD
:1053600009F4A140A6958FEF811D811D08950E942B
:10537000CA290C943B2A0E942D2A38F00E94342A14
:1053800020F0952311F00C94242A0C942A2A11243D
:105390000C946F2A0E944C2A70F3959FC1F3950FCD
:1053A00050E0551F629FF001729FBB27F00DB11DA9
:1053B000639FAA27F00DB11DAA1F649F6627B00D39
:1053C000A11D661F829F2227B00DA11D621F739F22
:1053D000B00DA11D621F839FA00D611D221F749F30
:1053E0003327A00D611D231F849F600D211D822F77
:1053F000762F6A2F11249F5750409AF0F1F088239E
:105400004AF0EE0FFF1FBB1F661F771F881F9150CA
:105410005040A9F79E3F510580F00C94242A0C942B
:105420006F2A5F3FE4F3983ED4F3869577956795AE
:10543000B795F795E7959F5FC1F7FE2B880F911DF4
:105440009695879597F9089597F99F6780E870E09A
:1054500060E008959FEF80EC089500240A941616EA
:10546000170618060906089500240A941216130652
:10547000140605060895092E0394000C11F48823E0
:1054800052F0BB0F40F4BF2B11F460FF04C06F5FFC
:105490007F4F8F4F9F4F089557FD9058440F551FD2
:1054A00059F05F3F71F04795880F97FB991F61F0A6
:1054B0009F3F79F087950895121613061406551F1D
:1054C000F2CF4695F1DF08C0161617061806991F89
:1054D000F1CF86957105610508940895E894BB277E
:1054E00066277727CB0197F90895F999FECF92BDEA
:1054F00081BDF89A992780B50895262FF999FECF96
:105500001FBA92BD81BD20BD0FB6F894FA9AF99AE0
:105510000FBE019608950E94962AA59F900DB49FF4
:10552000900DA49F800D911D11240895A29FB0019C
:10553000B39FC001A39F700D811D1124911DB29FC7
:10554000700D811D1124911D08955058BB27AA2765
:105550000E94BD2A0C943B2A0E942D2A38F00E94FA
:10556000342A20F039F49F3F19F426F40C942A2AA7
:105570000EF4E095E7FB0C94242AE92F0E944C2AB4
:1055800058F3BA17620773078407950720F079F478
:10559000A6F50C946E2A0EF4E0950B2EBA2FA02DD2
:1055A0000B01B90190010C01CA01A0011124FF27D0
:1055B000591B99F0593F50F4503E68F11A16F040CB
:1055C000A22F232F342F4427585FF3CF46953795CA
:1055D0002795A795F0405395C9F77EF41F16BA0B8F
:1055E000620B730B840BBAF09150A1F0FF0FBB1F3D
:1055F000661F771F881FC2F70EC0BA0F621F731F86
:10560000841F48F4879577956795B795F7959E3FE2
:1056100008F0B0CF9395880F08F09927EE0F979573
:10562000879508950E94262B0C943B2A0E94342AC9
:1056300058F00E942D2A40F029F45F3F29F00C9485
:10564000242A51110C946F2A0C942A2A0E944C2A65
:1056500068F39923B1F3552391F3951B550BBB27A1
:10566000AA2762177307840738F09F5F5F4F220FE6
:10567000331F441FAA1FA9F335D00E2E3AF0E0E8DD
:1056800032D091505040E695001CCAF72BD0FE2F27
:1056900029D0660F771F881FBB1F261737074807BB
:1056A000AB07B0E809F0BB0B802DBF01FF27935873
:1056B0005F4F3AF09E3F510578F00C94242A0C94E9
:1056C0006F2A5F3FE4F3983ED4F38695779567950C
:1056D000B795F7959F5FC9F7880F911D96958795A8
:1056E00097F90895E1E0660F771F881FBB1F6217C7
:1056F00073078407BA0720F0621B730B840BBA0B85
:10570000EE1F88F7E095089529F416F00C94242AEA
:105710000C946E2A0C942A2A0E94542AA8F39638D4
:10572000A0F707F80F92E8942BE33AEA48EB5FE71B
:105730000E94CD290F920F920F924DB75EB70F9234
:105740000E94622CE8E6F0E00E94F42B4F915F91FA
:10575000EF91FF91E595EE1FFF1F49F0FE57E068BE
:105760004427EE0F441FFA95E1F74195550B0E942F
:105770002C2C0F9007FE0C94202C08950E94C52B12
:105780006894B1110C946F2A08950E94542A88F0ED
:105790009F5798F0B92F9927B751B0F0E1F0660FF5
:1057A000771F881F991F1AF0BA95C9F714C0B13036
:1057B00091F00E946E2AB1E008950C946E2A672F32
:1057C000782F8827B85F39F0B93FCCF38695779565
:1057D0006795B395D9F73EF490958095709561954E
:1057E0007F4F8F4F9F4F0895DF93CF931F930F935A
:1057F000FF92EF92DF927B018C01689406C0DA2E53
:10580000EF010E94CA29FE01E894A59125913591E6
:1058100045915591A6F3EF010E94BD2AFE01970123
:10582000A801DA9469F7DF90EF90FF900F911F9134
:10583000CF91DF9108950E94932908F48FEF089586
:105840009B01AC0160E070E080E89FE30C94122BB8
:105850000C94242A0C94962C0E94542AD8F3992351
:10586000C9F3940F511DA3F39150504094F059F097
:10587000882332F0660F771F881F91505040C1F780
:105880009E3F51052CF7880F911D9695879597F9A6
:1058900008955F3FACF0983E9CF0BB2786957795C6
:1058A0006795B79508F4B1609395C1F7BB0F58F7AA
:1058B00011F460FFE8CF6F5F7F4F8F4F9F4FE3CFB3
:1058C0000C946F2AFA01DC01AA0FBB1F9B01AC01EB
:1058D000BF5728F4222733274427507820C0B751D8
:1058E00090F4AB2F0024469537952795011CA3957E
:1058F000D2F3002071F0220F331F441FB395DAF367
:105900000ED00C94A52A61307105A0E88A07B9462B
:1059100030F49B01AC016627772788279078309672
:1059200021F0208331834283538308959F3F31F0D8
:10593000915020F4879577956795B795880F911DBD
:105940009695879597F90895A1E21A2EAA1BBB1B7D
:10595000FD010DC0AA1FBB1FEE1FFF1FA217B3073B
:10596000E407F50720F0A21BB30BE40BF50B661F51
:10597000771F881F991F1A9469F760957095809515
:1059800090959B01AC01BD01CF010895052E97FBB9
:105990001EF400940E94DD2C57FD07D00E94A42C19
:1059A00007FC03D04EF40C94DD2C509540953095B7
:1059B00021953F4F4F4F5F4F08959095809570957B
:1059C00061957F4F8F4F9F4F0895EE0FFF1F0590FA
:1059D000F491E02D09940F931F93CF93DF938230BE
:1059E000910510F482E090E0E091B604F091B704E4
:1059F00030E020E0B0E0A0E0309799F421153105C7
:105A000009F44AC0281B390B24303105D8F58A81A6
:105A10009B816115710589F1FB0193838283FE01EE
:105A200011C0408151810281138148175907E0F06C
:105A30004817590799F4109761F012960C93129732
:105A400013961C933296CF01DF91CF911F910F9146
:105A500008950093B6041093B704F4CF21153105CF
:105A600051F04217530738F0A901DB019A01BD013B
:105A7000DF01F801C1CFEF01F9CF9093B704809314
:105A8000B604CDCFFE01E20FF31F81939193225014
:105A9000310939832883D7CF2091B4043091B504DC
:105AA000232B41F420910401309105013093B5047A
:105AB0002093B40420910201309103012115310596
:105AC00041F42DB73EB74091060150910701241BC8
:105AD000350BE091B404F091B504E217F307A0F49C
