:100000000C945E000C9486000C9486000C94860080
:100010000C9486000C9486000C9486000C947F103F
:100020000C9486000C9486000C9486000C94860038
:100030000C9486000C9486000C9486000C94860028
:100040000C9435100C9486000C9401110C94DB1068
:100050000C9486000C9486000C9486000C94860008
:100060000C9433110C948600020000000024002739
:10007000002A0000000000250028002B00040404D2
:100080000404040404020202020202030303030341
:10009000030102040810204080010204081020011E
:1000A0000204081020000000080002010000030400
:1000B00007000000000000000000521211241FBEC3
:1000C000CFEFD8E0DEBFCDBF24E0A6EEB1E001C0A7
:1000D0001D92A835B207E1F711E0A0E0B1E0E8EB2E
:1000E000F9E402C005900D92A63EB107D9F710E0E1
:1000F000CEE5D0E004C02197FE010E94AA23CD35B1
:10010000D107C9F70E9438130C94DA240C9400002C
:10011000CF92DF92EF92FF92CF93DF93EC016A01CF
:100120007B01E889F98982E08083C11481EED806D9
:10013000E104F104A1F060E079E08DE390E0A70133
:1001400096010E94692321503109410951095695B0
:10015000479537952795211580E1380798F0E8896C
:10016000F989108260E874E88EE190E0A7019601B9
:100170000E9469232150310941095109569547953B
:1001800037952795EC85FD853083EE85FF852083A7
:10019000188EEC89FD8986E08083EA89FB8980815D
:1001A00080618083EA89FB89808188608083EA8915
:1001B000FB89808180688083EA89FB8980818F7DCB
:1001C0008083DF91CF91FF90EF90DF90CF900895E3
:1001D000EFEFF3E015A614A617A616A611AA10AA0B
:1001E00013AA12AA15AA14AA17AA16AA11AE10AE1B
:1001F00010923C0410923D0410923E0410923F0471
:1002000013A613AE14AE1092440410924004109240
:100210004104109242041092430412AE0895EFEF8D
:10022000F3E087A190A5B0E0A0E022AD04C0880F64
:10023000991FAA1FBB1F2A95D2F7E0E4F4E0408182
:10024000518162817381840F951FA61FB71F808320
:100250009183A283B383682F792F8A2F9B2F0895D0
:10026000CF93DF9300D000D0CDB7DEB769837A8318
:100270008B839C8380910D0490910E04DC01ED91A1
:10028000FC910280F381E02D44E050E0BE016F5FFD
:100290007F4F09950F900F900F900F90DF91CF91A6
:1002A000089590E0FC01EB55FF4F2491FC01EF56BF
:1002B000FF4F3491FC01E358FF4FE491EE23C9F066
:1002C000222339F0233001F1A8F4213019F1223032
:1002D00029F1F0E0EE0FFF1FED58FF4FA591B4910B
:1002E0008FB7F894EC91611126C030953E233C9372
:1002F0008FBF08952730A9F02830C9F0243049F77E
:10030000809180008F7D03C0809180008F778093E3
:100310008000DFCF84B58F7784BDDBCF84B58F7D40
:10032000FBCF8091B0008F778093B000D2CF8091C7
:10033000B0008F7DF9CF3E2BDACFCF93DF9390E0E3
:10034000FC01EF56FF4F249183589F4FFC0184918D
:100350008823D1F090E0880F991FFC01E759FF4FE7
:10036000A591B491FC01ED58FF4FC591D491611155
:100370000EC09FB7F8948C91E22FE0958E238C935A
:100380002881E223E8839FBFDF91CF9108958FB743
:10039000F894EC91E22BEC938FBFF6CF1F93CF93A1
:1003A000DF93182FEB0161E00E949D01209739F443
:1003B00060E0812FDF91CF911F910C945101CF3FCD
:1003C000D10511F461E0F5CFE12FF0E0EB55FF4FDF
:1003D000E491E33031F140F4E130B1F0E230E1F0AA
:1003E000C038D1057CF7E4CFE73029F1E83059F186
:1003F000E430B1F780918000806280938000D093D8
:100400008B00C0938A0004C084B5806884BDC7BDDA
:10041000DF91CF911F91089584B5806284BDC8BDDE
:10042000F7CF80918000806880938000D09389000E
:10043000C0938800EDCF8091B00080688093B000B9
:10044000C093B300E5CF8091B00080628093B0008C
:10045000C093B400DDCF3FB7F894809167029091CC
:100460006802A0916902B0916A0226B5A89B05C0F6
:100470002F3F19F00196A11DB11D3FBFBA2FA92F23
:10048000982F8827BC01CD01620F711D811D911D20
:1004900042E0660F771F881F991F4A95D1F708958C
:1004A0002FB7F894609163027091640280916502A5
:1004B000909166022FBF0895CF93DF93CDB7DEB73B
:1004C000C258D1090FB6F894DEBF0FBECDBF382F8A
:1004D00082E8EEE4F1E0DE01119601900D928A953A
:1004E000E1F7DE01AC57BF4FE2E88E918C3511F099
:1004F000E150D9F7EF5F81E88E1B41E050E04C0FEF
:100500005D1F4E0F511DFA01232FA32FB92F9A2FD4
:10051000921B981718F491919D93F9CFCE57DF4F06
:100520000FB6F894DEBF0FBECDBFDF91CF91089517
:10053000CF93DF93CDB7DEB72C970FB6F894DEBF1D
:100540000FBECDBF2CE0E0EDF1E0DE011196019091
:100550000D922A95E1F7FE0131969C01255F3F4FF0
:100560004191DC014D93CD01A217B307C9F78BE090
:100570002C960FB6F894DEBF0FBECDBFDF91CF91A2
:100580000895CF93DF93CDB7DEB729970FB6F894D0
:10059000DEBF0FBECDBF29E0ECEDF1E0DE0111962C
:1005A00001900D922A95E1F7FE0131969C01285F9A
:1005B0003F4F4191DC014D93CD01A217B307C9F71D
:1005C00088E029960FB6F894DEBF0FBECDBFDF914D
:1005D000CF9108959091000189130BC0E8E6F0E0F7
:1005E000E4919FEF90930001E13049F028F0E23070
:1005F00061F060E00C94510110926E00FACF90917E
:100600006F009D7F90936F00F4CF909170009D7F5D
:100610009093700091E09093B0009091B100987F1A
:1006200094609093B1001092B300E3CF4F925F9229
:100630006F927F928F929F92AF92BF92CF92DF92F2
:10064000EF92FF920F931F93CF93DF9300D000D0D0
:100650001F92CDB7DEB78B0129013A0190910001BD
:100660008917C9F09F3F09F47EC00F900F900F903B
:100670000F900F90DF91CF911F910F91FF90EF900E
:10068000DF90CF90BF90AF909F908F907F906F90B2
:100690005F904F900895E8E6F0E094919D8397FD78
:1006A000E4CF61E00E949D018D81882321F09D812E
:1006B000923009F04AC14801B12CA12C60E072E1EE
:1006C0008AE790E0A50198010E948B2329833A8351
:1006D0004B835C8369017A0181E0C81AD108E10883
:1006E000F1089FEFC916D104E104F10409F00CF4FC
:1006F00001C160E472E48FE090E0A50198010E94DE
:100700008B2369017A0181E0C81AD108E108F10858
:100710009D81923009F0A2C08FEFC816D104E10488
:10072000F10409F00CF4E6C160E970ED83E090E0BB
:10073000A50198010E948B2369017A0191E0C91AF1
:10074000D108E108F1088FEFC816D104E104F104E3
:1007500011F00CF07FC183E09091B100987F892B5C
:100760008093B100CFC080930001E8E6F0E094915F
:100770009D839F3F09F479CF913041F150F0923041
:1007800009F446C09D8197FD70CF61E00E949D01F4
:100790008ECF14BC15BC94B5926094BD95B5916094
:1007A00095BD282F30E0F901E358FF4FE491F0E0C8
:1007B000EE0FFF1FED58FF4F45915491F901EF5691
:1007C000FF4FE491E09352021D826BCF10928000A4
:1007D0001092810090918100986090938100909197
:1007E0008100916090938100282F30E0F901E35857
:1007F000FF4FE491F0E0EE0FFF1FED58FF4F4591E2
:100800005491F901EF56FF4FE491E093510249CF23
:100810001092B0001092B1009091B000926090934D
:10082000B0009091B10091609093B100282F30E01A
:10083000F901E358FF4FE491F0E0EE0FFF1FED5890
:10084000FF4F4591549150935C0240935B02F90134
:10085000EF56FF4FE491E0935D0223CF9FEFC9165F
:10086000D104E104F10409F00CF46DC068E478EE01
:1008700081E090E0A50198010E948B2369017A0133
:1008800081E0C81AD108E108F1089D81992309F493
:10089000FAC08FEFC816D104E104F10411F00CF096
:1008A000FBC0EFC064E274EF80E090E0A50194012A
:1008B0000E948B2369017A0181E0C81AD108E108FE
:1008C000F10885E09FEFC916D104E104F10409F0B5
:1008D00008F442CF62E17AE780E090E0A50194015C
:1008E0000E948B2369017A0181E0C81AD108E108CE
:1008F000F108E5C081E09D8191112ECF95B5987FDB
:10090000892B85BD2FEF3FEFA901411451046104EC
:10091000710409F043C09D81913009F45EC09230AA
:1009200009F46DC09111A1CEC7BC2093570230933A
:1009300058024093590250935A0280916E0082608F
:1009400080936E0092CE82E0D6CFB12CA12C60E0D5
:1009500072E18AE790E0A50198010E948B2369016A
:100960007A0181E0C81AD108E108F108C114D10464
:1009700091E0E906F10404F591E08D81813011F6F2
:1009800080918100887F892B809381002FEF3FEF3A
:10099000A9014114510461047104F9F0D801AA0FAE
:1009A000BB1FA30192010E94412228EE33E040E0E8
:1009B00050E00E946923AFCF68E478EE81E090E0D8
:1009C000A50198010E948B2369017A0181E0C81A70
:1009D000D108E108F10893E0D0CFD0928900C0920D
:1009E0008800209353023093540240935502509351
:1009F000560280916F00826080936F0036CEC09265
:100A0000B30020935E0230935F02409360025093E4
:100A100061028091700082608093700026CE84E035
:100A20009FEFC916D104E104F10409F008F466CF80
:100A3000C980DA80EB80FC808AE0F594E794D79453
:100A4000C7948A95D1F781E0C81AD108E108F10866
:100A500085E054CF68E478EE81E090E0A50198014C
:100A60000E948B2369017A0181E0C81AD108E1084C
:100A7000F1089FEFC916D104E104F10411F00CF064
:100A800011CF84E069CE83E09FEFC916D104E10461
:100A9000F10409F00CF432CF62E17AE780E090E0F3
:100AA000A50194010E948B2369017A0181E0C81A93
:100AB000D108E108F1089D81992309F4B0CF86E0BF
:100AC0009FEFC916D104E104F10409F008F444CE03
:100AD000C980DA80EB80FC809AE0F594E794D794A3
:100AE000C7949A95D1F781E0C81AD108E108F108B6
:100AF00087E032CE82E030CEAF92BF92CF92DF92CB
:100B0000EF92FF920F931F93CF93DF936C017B01C2
:100B10008B01040F151FEB015E01AE18BF08C01753
:100B2000D10759F06991D601ED91FC910190F081C6
:100B3000E02DC6010995892B79F7C501DF91CF9189
:100B40001F910F91FF90EF90DF90CF90BF90AF90EB
:100B50000895FC01538D448D252F30E0842F90E0C3
:100B6000821B930B541710F0CF96089501970895A8
:100B7000FC01918D828D981761F0A28DAE0FBF2F71
:100B8000B11D5D968C91928D9F5F9F73928F90E0C7
:100B900008958FEF9FEF0895FC01918D828D981736
:100BA00031F0828DE80FF11D858D90E008958FEF73
:100BB0009FEF0895FC01918D228D892F90E0805C3C
:100BC0009F4F821B91098F739927089582E693E0C6
:100BD0000E94DA0521E0892B09F420E0822F089594
:100BE00080E090E0892B29F00E94E60581110C94A9
:100BF00000000895FC01A48DA80FB92FB11DA35AC0
:100C0000BF4F2C91848D90E001968F739927848F2C
:100C1000A689B7892C93A089B1898C91837080644F
:100C20008C93938D848D981306C00288F389E02DF0
:100C300080818F7D80830895EF92FF920F931F93A1
:100C4000CF93DF93EC0181E0888F9B8D8C8D98137F
:100C50001AC0E889F989808185FF15C09FB7F8948B
:100C6000EE89FF896083E889F989808183708064D7
:100C700080839FBF81E090E0DF91CF911F910F9122
:100C8000FF90EF900895F62E0B8D10E00F5F1F4F31
:100C90000F731127E02E8C8D8E110CC00FB607FC40
:100CA000FACFE889F989808185FFF5CFCE010E94CE
:100CB000FA05F1CFEB8DEC0FFD2FF11DE35AFF4F3D
:100CC000F0829FB7F8940B8FEA89FB89808180625C
:100CD000CFCFCF93DF93EC01888D8823B9F0AA8919
:100CE000BB89E889F9898C9185FD03C0808186FDE7
:100CF0000DC00FB607FCF7CF8C9185FFF2CF808136
:100D000085FFEDCFCE010E94FA05E9CFDF91CF91AB
:100D1000089520912C02260F3327331F21323105ED
:100D2000ECF420919102FC0190E080E0243069F025
:100D300082E00895A0912C022191AC01465F5D4FA5
:100D4000A40FB52FB11D2C930196861798F38091AF
:100D50002C02680F60932C0280E0089581E00895D2
:100D60001092910281E08093900210926B0261E0F8
:100D700082E10E94510161E083E10E945101E9EBAF
:100D8000F0E080818E7F808380818D7F808388E406
:100D90008093B80085E48093BC000895CF93DF93DF
:100DA00091E0909309028823B9F0C091B800D091E6
:100DB000BA008091BC008A7B8093BC0060E082E135
:100DC0000E94510160E083E10E9451010E94B0063F
:100DD000D093BA00C093B800DF91CF9108958F925D
:100DE0009F92AF92BF92CF92DF92EF92FF920F93BA
:100DF0001F93CF93DF93D091BA02D13208F0D7C0BE
:100E0000182FC091B9020E942B026B017C018091C6
:100E1000910281116BC082E0809391021093900245
:100E20008FEF80938F0210928E02D0938D02A9E9EA
:100E3000B2E0EDE6F2E080E0D81391C010926C02CF
:100E400080916C02CC0FC82BC0936C0280916B0216
:100E5000813009F088C010926B020E942B026B0156
:100E60007C0180916C028093BB00809193029091F1
:100E70009402A0919502B0919602892B8A2B8B2B1C
:100E8000A1F00E942B0200919302109194022091F4
:100E90009502309196026C197D098E099F090617FB
:100EA00017072807390708F442C08091BC0083FD6A
:100EB000D8CF85EC8093BC000E942B026B017C0193
:100EC00080919102823009F450C080918F028F3F4F
:100ED00009F46FC080918F02803209F46CC0809158
:100EE0008F02803309F469C084E026C080919302A8
:100EF00090919402A0919502B0919602892B8A2B31
:100F00008B2B09F484CF0E942B0280909302909047
:100F10009402A0909502B09096026C197D098E09FA
:100F20009F0986169706A806B90608F070CF80912B
:100F300092020E94CE0685E0109298021092BA02A8
:100F400010929702DF91CF911F910F91FF90EF9038
:100F5000DF90CF90BF90AF909F908F9008959D911C
:100F600091938F5F69CF85EEA5CF80919302909189
:100F70009402A0919502B0919602892B8A2B8B2B1B
:100F800009F49ECF0E942B020091930210919402CB
:100F900020919502309196026C197D098E099F0966
:100FA000061717072807390708F08ACFC0CF81E056
:100FB000C3CF80E0C1CF82E0BFCF83E0BDCF089533
:100FC00008950895E091080280910702E81730F42F
:100FD000F0E0E951FE4F808190E008958FEF9FEFA0
:100FE000089590910802809107022FEF3FEF981724
:100FF00048F4E92FF0E0E951FE4F208130E09F5F97
:1010000090930802C9010895809107029091080207
:10101000891B990B0895CF92DF92EF92FF920F9365
:101020001F93CF93DF937C01CB018A01209197021C
:10103000222389F0EB016B01C40ED51ECC15DD0512
:1010400069F06991D701ED91FC910190F081E02D5B
:10105000C7010995F3CF642F0E948906C801DF916B
:10106000CF911F910F91FF90EF90DF90CF90089557
:10107000CF93DF931F92CDB7DEB76983209197029C
:101080002223F9F02091BA02203258F021E030E01A
:10109000FC013383228390E080E00F90DF91CF91B9
:1010A000089580919802E82FF0E0E756FD4F99816E
:1010B00090838F5F809398028093BA0281E090E0E2
:1010C000ECCF61E0CE0101960E948906F7CF90E057
:1010D00080E00895EF92FF920F931F93DC01189622
:1010E0008C911897882381F0489FA0011124452FE7
:1010F000829F90011124232F809F80011124012FB2
:101100008E9D70011124EF2C1E968C911E971996BE
:10111000ED91FC911A971B969C911B97891320C007
:10112000CB01880F991F680F791F6E0F7F1F1B96C9
:10113000EC911B97E60FF72FF11D40831C96EC9165
:101140001C97E60FF72FF11D20831D968C91680FD9
:10115000711DFB0100831F910F91FF90EF90089587
:10116000660F771F660F771F6E0F7F1FFB01E80F5B
:10117000F11DE082DCCFCF92DF92EF92FF920F93CE
:101180001F93CF93DF93CDB7DEB729970FB6F894AF
:10119000DEBF0FBECDBF8C010E942B02D8011F966F
:1011A000CD90DD90ED90FC9052976C157D058E05ED
:1011B0009F0528F4F8016787708B818B928BD8018B
:1011C0001F96CD90DD90ED90FC9052976C197D09A3
:1011D0008E099F096C32714081059105E8F2F894FF
:1011E000F801848195819A8389830184F285E02DB9
:1011F0007F012FEFE21AF20A80818F83D8019C9140
:101200005396ED91FC91549755968C91992309F43E
:1012100048C09081982B98879081809589238987F1
:1012200089858B8388E08C83588569854F813C81D3
:101230002B8189819A81D701508347FD252F3A95CB
:101240002083262F39F0441F00C000006083000077
:1012500000C0F2CF38E04D9160830000019761F744
:10126000D8015496FC93EE9353974F833C832B8382
:101270009A83898378940E942B02F8016787708B88
:10128000818B928B29960FB6F894DEBF0FBECDBF2F
:10129000DF91CF911F910F91FF90EF90DF90CF9052
:1012A00008959081982B98879081809589238987CC
:1012B00089858D8388E08E83588569854F813E813D
:1012C0002D8189819A81D701508347FD252F00C048
:1012D00000C0208300C000C000C000C000C0608308
:1012E0000000262F3A9541F0441F000000C000C0C6
:1012F00000C000C000C0E8CF38E04D9100C060835E
:1013000000C0019709F7D8015496FC93EE935397C8
:101310004F833E832D83ACCFCF93DF93EC016B8162
:10132000617089810E9451016B8162708A81DF91B5
:10133000CF910C94510160E070E080E89FEB08953C
:1013400060E070E080E89FEB0895CF92DF92EF922B
:10135000FF92CF93DF93EC01E881F9810084F1855E
:10136000E02D09956B017C012C853D854E855F85BF
:10137000688979898A899B890E945C22A7019601E4
:101380000E946D21DF91CF91FF90EF90DF90CF9081
:101390000895DC01ED91FC910088F189E02D60E079
:1013A00009948F929F92AF92BF92CF92DF92EF9269
:1013B000FF921F93CF93DF93EC016A017B01122F01
:1013C0008C849D84AE84BF84AB019601C501B401B9
:1013D0000E94072140E050E0BA0187FF0EC0A5013E
:1013E0009401C701B6010E945B22288939894A8984
:1013F0005B890E94C822AB01BC01E881F9810480AD
:10140000F581E02D212FCE010995288939894A8956
:101410005B890E946D212C853D854E855F850E94EC
:101420005C22DF91CF911F91FF90EF90DF90CF90E2
:10143000BF90AF909F908F900895DC01ED91FC914B
:101440000484F585E02D20E00994DC01ED91FC9108
:101450000084F185E02D60E00994DC01ED91FC91C0
:101460000480F581E02D20E009941F93CF93DF9352
:10147000EC018C899D89892B11F51092080210923C
:101480000702109298021092BA020E94B0068FEDE5
:1014900097E090932B0280932A0280EE97E090933E
:1014A0002F0280932E02898D91E090939702809372
:1014B000B90281E0DF91CF911F910C94EF061FB725
:1014C000F8948091E601811127C0E7E8F0E084916B
:1014D000EBE9F0E09491E82FF0E0EE0FFF1FE75901
:1014E000FF4FA591B491EC91E92321F461E08AE0EA
:1014F0000E94510161E08AE00E949D018CB58061EB
:101500008CBD8CB580648CBD61E08DE00E949D0136
:1015100061E08BE00E949D018091E6018F5F8093E6
:10152000E6011FBF61E08E890E949D0161E08E8906
:101530000E94510180E0DF91CF911F910895CF92D9
:10154000DF92EF92FF920F931F93CF93DF93EC0103
:101550006A017B010CA51DA501151105D9F0AB0190
:10156000960160E070E080E89FE30E945B22AB019F
:10157000BC01D801ED91FC910480F581E02D28A9F2
:10158000C801DF91CF911F910F91FF90EF90DF90F5
:10159000CF9009940EA4DFA5C02D2097C1F06881DB
:1015A00070E090E080E00E940C21A70196010E946B
:1015B0006D210E943A236B83CE01DF91CF911F9161
:1015C0000F91FF90EF90DF90CF900C948C09DF91FA
:1015D000CF911F910F91FF90EF90DF90CF900895E2
:1015E000FC0183A50C94EA026A3018F4DC0112961F
:1015F0006C93DC01ED91FC910280F381E02D099464
:10160000DC011296EC91B4E0EB9FF0011124E80F9D
:10161000F91F2581368163817481FC0183A550E027
:1016200040E02F3F320719F420E030E0A9010C948C
:101630001603CF93DF93EC0161E08BA50E949D011F
:1016400060E08BA50E9451018CA59DA5009739F003
:10165000DC01ED91FC910190F081E02D09950EA443
:10166000DFA5C02D2097A9F061E089810E949D012E
:1016700060E089810E94510161E08A810E949D01A0
:1016800060E08A810E945101CE01DF91CF910C94DC
:101690008C09DF91CF910895EF920F931F93CF9311
:1016A000DF93EC018EA19FA1009799F410E08DA526
:1016B000181730F58EA56FEF70E0882311F070E0F9
:1016C00060E0FE01E10FF11D81A50E94CE011F5FC8
:1016D000EECF68A570E0FC012281338162177307A9
:1016E00030F4E12C00E020E040E00E946A088EA186
:1016F0009FA1FC0121853285232B11F00E94BB089C
:101700001FA618AA19AA1AAA1DA2DF91CF911F918C
:101710000F91EF900895EF920F931F93CF93DF9364
:10172000EC018EA19FA1009701F510E006E0288151
:1017300030E08DA51817B8F5812F90E0029FF001D9
:10174000039FF00D1124EC0FFD1FE80FF91F6181BD
:101750002EA5211101C0609570E08C0F9D1FFC012A
:1017600081A50E94CE011F5FE2CF68A570E0FC0159
:10177000228133816217730768F42881FE0136E005
:10178000239FE00DF11D1124E4800381228141811A
:101790000E946A088EA19FA1FC0121853285232B1E
:1017A00011F00E94BB08888116E0FE01189FE00D31
:1017B000F11D112485819681019691F00E945002BD
:1017C0002881FE01129FE00DF11D11242581368133
:1017D000620F731F811D911D6FA778AB89AB9AAB08
:1017E00081E08DA3DF91CF911F910F91EF9008952C
:1017F0007F928F929F92AF92BF92CF92DF92EF92A1
:10180000FF920F931F93CF93DF93EC018A898E3061
:1018100008F08E508770806480937C0080917A00FD
:10182000806480937A0080917A0086FDFCCF80915D
:101830007800909179009C838B830E942B026D83AA
:101840007E838F8398870E9450020B811C814C8578
:101850005D85288939894017510760F421153105C4
:10186000A9F0CB8CDC8CED8CFE8CC616D706E80676
:10187000F90660F41D870C876B017C01C20ED31E34
:10188000E11CF11CCB8EDC8EED8EFE8E4E855F85CD
:101890000417150760F42115310599F0CF8CD8A0F5
:1018A000E9A0FAA0C616D706E806F90650F41F8785
:1018B0000E87620F731F811D911D6F8F78A389A3FF
:1018C0009AA3CC84DD84EE84FF84EC18FD0879842F
:1018D0007720D1F0B70190E080E00E940C212D89A3
:1018E0003E894F89588D0E946D214B015C01B601E4
:1018F00090E080E00E940C21A50194010E945C22EE
:101900000E943A237A8F698F8A859B85E816F906AB
:1019100010F4711009C0298D3A8D8981882331F026
:1019200081E00217130730F480E004C081E0021761
:101930001307D0F748818883EDA1FEA19A8121E0A9
:1019400030E001C0220F9A95EAF720959081292373
:101950002083EDA1FEA128819A8101C0220F9A95D2
:10196000EAF79081292B20838427DF91CF911F9163
:101970000F91FF90EF90DF90CF90BF90AF909F902E
:101980008F907F900895CF93DF9300D000D0CDB794
:10199000DEB749835A836B837C83DC018D919C91F4
:1019A000DC01ED91FC910280F381E02D44E050E0F8
:1019B000BE016F5F7F4F09950F900F900F900F90B2
:1019C000DF91CF910895CF93DF9300D0CDB7DEB7ED
:1019D00069837A83DC018D919C91DC01ED91FC910E
:1019E0000280F381E02D42E050E0BE016F5F7F4F47
:1019F00009950F900F90DF91CF910895EF92FF928C
:101A00000F931F93CF93DF93EC0160E772E08DE0BB
:101A100094E00E94E30C4D815E816F8178858DE0BA
:101A200094E00E94C30C00910D0410910E04D801A3
:101A3000ED91FC91E080F180E881F9810480F581ED
:101A4000E02DCE010995682FC801F701DF91CF91F4
:101A50001F910F91FF90EF9009940F931F93CF93D5
:101A6000DF93EC018B0160E072E00E94E30CF8016F
:101A70004581568167817085CE010E94C30C8881A3
:101A80009981E801ADA1BEA1EC01E881F981019045
:101A9000F081E02D6C91DF91CF911F910F9109940E
:101AA000DC01ED91FC910280F381E02D0994DC01D1
:101AB000ED91FC910190F081E02D0994DC01ED9114
:101AC000FC910190F081E02D0994CF93DF93E09198
:101AD0002104F0912204309709F480C0EC01809138
:101AE000450490914604A0914704B0914804AC018C
:101AF000BD014F5F5F4F6F4F7F4F40934504509341
:101B00004604609347047093480409958E3108F0A9
:101B100046C080933A04BE018DE094E00E94E30C3D
:101B20008091FF0390910004DC01ED91FC91019004
:101B3000F081E02D60913A04099580913A04882360
:101B400009F44CC0E0912104F091220480914504F5
:101B500090914604A0914704B0914804AC01BD01A6
:101B60004F5F5F4F6F4F7F4F409345045093460444
:101B700060934704709348040995682F70E0709350
:101B80002704609326048091FF03909100040E9433
:101B90005E0D80913A04815080933A04CECF10922A
:101BA0003A04E0911F04F0912004309709F4B3CF78
:101BB0008091450490914604A0914704B091480457
:101BC0000197A109B1098093450490934604A0931D
:101BD0004704B093480460E009959DCFDF91CF9111
:101BE00008958BEB92E00E94F80B8823A9F0809176
:101BF000BB0269E170E0811102C061E070E08AE03F
:101C00000E94CE018091010481FF06C06BEB72E05F
:101C10008DE094E00C942D0D08958F929F92AF92D9
:101C2000BF92CF92DF92EF92FF920F931F93CF93C9
:101C3000DF93EC01042FF22E632B162F142B8C89CB
:101C40009D89892B09F030C18CE08093B8008F8981
:101C5000988D298D31E0309397022093B90210922C
:101C600098021092BA02DC01ED91FC910190F08192
:101C7000E02D612F09950C3009F006C181E00E942A
:101C8000EF06882379F08FEF9FEFDF91CF911F91BF
:101C90000F91FF90EF90DF90CF90BF90AF909F900B
:101CA0008F900895198D0E942B026B017C01809109
:101CB0009102811165C081E080939102809390022E
:101CC0009FEF90938F0210928E0280938D028093EB
:101CD0006C0280916C02110F182B10936C02809192
:101CE0006B02813009F08EC010926B020E942B02B1
:101CF0006B017C0180916C028093BB008091930208
:101D000090919402A0919502B0919602892B8A2B12
:101D10008B2BA1F00E942B02009193021091940250
:101D200020919502309196026C197D098E099F09C8
:101D3000061717072807390708F443C08091BC002D
:101D400083FDD8CF85EC8093BC000E942B026B01F1
:101D50007C0180919102813009F456C080918E02FD
:101D6000823008F073C080918E02EDE6F2E0A7EEBB
:101D7000B1E090E0981751F121912D939F5FFACF38
:101D80008091930290919402A0919502B091960255
:101D9000892B8A2B8B2B09F48ACF0E942B028090EF
:101DA000930290909402A0909502B09096026C19C4
:101DB0007D098E099F0986169706A806B90608F0C0
:101DC00076CF809192020E94CE0680E010920802A7
:101DD000809307028230E0F58F89988DDC01ED91C8
:101DE000FC910084F185E02D0995892B09F44BCFF6
:101DF0008F89988DDC01ED91FC910284F385E02DB3
:101E00000995EACF85EE9FCF80919302909194023D
:101E1000A0919502B0919602892B8A2B8B2B09F405
:101E200098CF0E942B02009193021091940220916E
:101E30009502309196026C197D098E099F0906174B
:101E400017072807390708F084CFBBCF82E08DCF72
:101E50008F89988DDC01ED91FC910284F385E02D52
:101E60000995082F8F89988DDC01ED91FC910284F2
:101E7000F385E02D0995182F802F90E0982F882763
:101E8000810F911D917001CF8F89988DDC01ED91AB
:101E9000FC910190F081E02D6F2D099581E00E9469
:101EA000EF06182F00E0E8CF81E58CBD1DBC60E097
:101EB0008E890E9451011EBD00000DB407FEFDCFAA
:101EC0000EB5FEBC00000DB407FEFDCF1EB561E0EF
:101ED0008E890E945101D0CF4F925F926F927F9274
:101EE0008F929F92AF92BF92CF92DF92EF92FF922A
:101EF000CF93DF93EC012FEF31E04CE0611147C04D
:101F0000CE010E940D0EBC0190E080E00E940C21E9
:101F10006B017C016A857B8590E080E00E940C214A
:101F20009B01AC01C701B6010E94C8229B01AC0114
:101F3000C888D988EA88FB88C701B6010E946D214C
:101F40009B01AC018C849D84AE84BF84C501B40127
:101F50000E945C222B013C01A5019401C701B6013E
:101F60000E945C229B01AC01C301B2010E94C82205
:101F7000DF91CF91FF90EF90DF90CF90BF90AF9027
:101F80009F908F907F906F905F904F90089560E149
:101F9000B7CFCF92DF92EF92FF921F93CF93DF9351
:101FA000EC016A017B01122F6A857B8590E080E05D
:101FB0000E940C21A70196010E946D210E943A23E4
:101FC0009B0140E060E0111160E1CE010E940D0E26
:101FD000E881F9810084F185E02D612FCE01DF9148
:101FE000CF911F91FF90EF90DF90CF9009940E94C6
:101FF000D52485ED8093BC0080919302909194024A
:10200000A0919502B09196020796A11DB11D23E003
:10201000B695A795979587952A95D1F72091BC00FD
:1020200024FD03C0109291020895409193025091B3
:1020300094026091950270919602452B462B472B96
:1020400069F30097A105B10541F02AE22A95F1F75D
:1020500000C00197A109B109E1CF809192020C94CF
:10206000CE060C942B220C9433221F920F920FB6A3
:102070000F9211242F933F938F939F93AF93BF930E
:102080008091630290916402A0916502B091660212
:102090003091620223E0230F2D3758F50196A11DE0
:1020A000B11D209362028093630290936402A09317
:1020B0006502B09366028091670290916802A091D8
:1020C0006902B0916A020196A11DB11D8093670259
:1020D00090936802A0936902B0936A02BF91AF9196
:1020E0009F918F913F912F910F900FBE0F901F9056
:1020F000189526E8230F0296A11DB11DD2CF1F927D
:102100000F920FB60F9211242F933F934F935F932B
:102110006F937F938F939F93AF93BF93EF93FF93AF
:1021200080915E0290915F02A0916002B091610285
:10213000892B8A2B8B2BD1F190915D02E0915B0270
:10214000F0915C0280818927808380915E0290916A
:102150005F02A0916002B0916102181619061A067A
:102160001B069CF480915E0290915F02A091600238
:10217000B09161020197A109B10980935E02909329
:102180005F02A0936002B0936102FF91EF91BF9153
:10219000AF919F918F917F916F915F914F913F91FF
:1021A0002F910F900FBE0F901F90189580910001F6
:1021B0000E94EA02EACF1F920F920FB60F921124EB
:1021C0002F933F934F935F936F937F938F939F933F
:1021D000AF93BF93EF93FF9382E693E00E94FA05DB
:1021E000FF91EF91BF91AF919F918F917F916F91EF
:1021F0005F914F913F912F910F900FBE0F901F90C5
:1022000018951F920F920FB60F9211242F938F9350
:102210009F93EF93FF93E0917203F091730380819A
:10222000E0917803F091790382FD1BC09081809149
:102230007B038F5F8F7320917C03821741F0E091C5
:102240007B03F0E0EE59FC4F958F80937B03FF9169
:10225000EF919F918F912F910F900FBE0F901F9034
:1022600018958081F4CF1F920F920FB60F92112410
:102270002F933F934F935F936F937F938F939F938E
:10228000AF93BF93EF93FF938091B900887F80361F
:1022900009F44AC0F0F5883209F4A7C018F5803176
:1022A00009F49BC0B8F4882309F4F9C0883009F414
:1022B00094C0FF91EF91BF91AF919F918F917F91CA
:1022C0006F915F914F913F912F910F900FBE0F90A3
:1022D0001F901895883109F488C0803251F7809397
:1022E0008F0214C0803409F49DC040F48033B9F3E8
:1022F0008833F9F680938F0285ECB0C0803509F4FD
:1023000085C0883509F496C0883499F60E94F90F83
:10231000D0CF883909F48CC038F5883729F050F4CB
:10232000883611F0803729F683E08093910210926D
:10233000500257C0883809F47BC0803919F08038C2
:1023400009F0B7CF80915002803208F071C0E0915F
:10235000500281E08E0F809350028091BB00F0E02C
:10236000E05DFD4F80833DC0803B39F0E0F4803A72
:1023700009F479C0883A09F09CCF84E080939102F7
:1023800010922D0210922C02E0912A02F0912B0261
:10239000099580912C0281110FC081E080932C025D
:1023A00010920A0209C0803C09F4A6CF883C09F4C7
:1023B000A3CF883B09F07DCFE0912D0281E08E0F05
:1023C00080932D02F0E0E65FFD4F80818093BB009B
:1023D00090912D0280912C0229C080916C028093F3
:1023E000BB0085EC8093BC0064CF90918E028091FD
:1023F0008D02981758F5E0918E0281E08E0F809340
:102400008E02F0E0E359FD4F8081E9CFE0918E022A
:1024100081E08E0F80938E028091BB00F0E0E35943
:10242000FD4F808390918E0280918D029817C8F2A3
:1024300085E8D8CFE0918E0281E08E0F80938E02E6
:102440008091BB00F0E0E359FD4F808380919002C2
:1024500081115CCF81E080936B0284EA8093BC00A1
:102460001092910226CF85EC8093BC0010929102CD
:1024700080915002803230F4E0915002F0E0E05D53
:10248000FD4F10826091500270E0E0912E02F091B9
:102490002F0280E392E00995109250020ACF109229
:1024A0008F0234CFA2E6B3E013961C921E921297CD
:1024B00048EE53E060E070E014964D935D936D93A9
:1024C0007C9317978EE191E011969C938E9385EC07
:1024D00090E01D969C938E931C9784EC90E01F9641
:1024E0009C938E931E9780EC90E051969C938E93D4
:1024F000509781EC90E053969C938E93529782EC88
:1025000090E055969C938E93549786EC90E0579666
:102510009C938E93569759961C9259975A961C9253
:102520005A975B961C925B975C961C925C97EFEFB8
:10253000F3E0B183A08312828AEF90E094838383D7
:1025400080E197E2A0E0B0E085839683A783B0871F
:102550001586118A108A138A128A158A148A178A94
:10256000168A118E108E138E128E158E148E178E63
:10257000168E11A210A213A212A215A214A21092DA
:102580004D04109250041092530481E086A3E8E4B5
:10259000F3E040E050E066E972E4448755876687DF
:1025A000778740E050E46CE176E4408B518B628B9E
:1025B000738B92E1968B108E178A27E433E0358B6C
:1025C000248B2CE331E031832083A6E1B3E020E3C8
:1025D00031E011963C932E9312961C92129790E143
:1025E0009B969C939B979F961C921E929E97D0962B
:1025F0001C92D0979D96FC93EE939C97E3EEF2E0AD
:10260000108217A216A210A686A794E095A793E0C1
:1026100091A795E092A796E093A799E094A7EBEB9A
:10262000F2E0818322EE32E02283818784E690E02B
:10263000938782878FEF9FEF95878487178616860B
:1026400080E395E7918B808B8EE0828B8FEF838B7D
:10265000848B80E090E0A0E0BFE3858B968BA78B16
:10266000B08F88EE93E094A383A316A215A20895D9
:10267000CF93DF93CDB7DEB7E4970FB6F894DEBF04
:102680000FBECDBF789484B5826084BD84B581606F
:1026900084BD85B5826085BD85B5816085BD80912D
:1026A0006E00816080936E001092810080918100A5
:1026B000826080938100809181008160809381009D
:1026C000809180008160809380008091B10084605F
:1026D0008093B1008091B00081608093B0008091C0
:1026E0007A00846080937A0080917A00826080937F
:1026F0007A0080917A00816080937A0080917A00DC
:10270000806880937A001092C10084E690E09093F4
:10271000C6028093C50280E090E0A0E0BFE3809312
:10272000D0029093D102A093D202B093D30281E061
:102730008093C4028091E0029091E102892B51F4D0
:1027400081E090E00E94B0239093E1028093E00248
:10275000DC011C9260E08091CD020E949D010E94EC
:1027600050022091DE023091DF02DC01CB01820FAA
:10277000931FA11DB11D8093D6029093D702A09301
:10278000D802B093D9028093DA029093DB02A0932F
:10279000DC02B093DD020E94F10D8CE592E0909393
:1027A00018048093170488E992E090931A048093A8
:1027B000190481EC92E090931C0480931B0483E342
:1027C00090E19093200480931F0481E390E1909323
:1027D00022048093210486E193E090934A0480933D
:1027E00049048BEB92E090934F0480934E0483EE68
:1027F00092E090934C0480934B0440E052EC61E0F3
:1028000070E08091FF03909100040E948800809105
:10281000FF039091000490930E0480930D0463E2F3
:1028200070E08DE094E00E94E30C60E083E10E94A0
:102830009D0161E08AE00E949D0161E070E08AE014
:102840000E94CE0182E1E8E0F1E0DE011196019004
:102850000D928A95E1F70091090310910A03011581
:10286000110579F410E0809110031817D8F4E12FC6
:10287000F0E0ED51FD4F61E081A50E949D011F5FD9
:10288000F2CFF8018681978197FD09C061E00E942F
:102890009D0160E0D80116968C910E94510181E063
:1028A000F801818383EE92E00E944C0BDE011196C9
:1028B000E3EEF2E084E690E012962C9112971196E6
:1028C0003C9111974C914183328323839683858376
:1028D0001396369623E0E730F20771F785E0809390
:1028E000E30286E193E00E94190BE6E1F3E088EE53
:1028F00093E024E630E094838383368325838C59E8
:102900009F4F3496803D47E09407A9F789E0809374
:10291000180340E050E060E87FE386E193E00E9426
:102920009F0ACE010A969CAB8BAB66246A94762CE8
:102930000EE1202E312C412C512C01E010E0809131
:10294000FF0390910004DC01ED91FC910084F1857E
:10295000E02D0995892BC9F18091FF039091000426
:10296000DC01ED91FC910284F385E02D0995682F3F
:10297000282F392F3093270420932604E0912B042D
:10298000F0912C04309709F0CCC780912A04811172
:10299000D9C0309329042093280481E080932A042D
:1029A00080912B0490912C04892B11F00C94F3202E
:1029B00080912A0481110C94F32010923C0410920F
:1029C0003D0410923E0410923F0480913C0490918B
:1029D0003D04A0913E04B0913F04892B8A2B8B2BA0
:1029E00089F00E945002C0903C04D0903D04E090D9
:1029F0003E04F0903F04C616D706E806F90610F428
:102A00000E94E8008091120390911303A091140397
:102A1000B0911503892B8A2B8B2B99F00E945002C1
:102A2000C0901203D0901303E0901403F0901503AC
:102A3000C616D706E806F90620F483EE92E00E9457
:102A40004C0BF0900101FF20C9F180910803811126
:102A500035C0FA94F0920101F092E30283EE92E025
:102A60000E948B0B6F2D86E193E00E94F40A809107
:102A70000101811123C07092E9026092E802709214
:102A8000EF026092EE027092F5026092F402709290
:102A9000FB026092FA02709201036092000370924E
:102AA00007036092060385E08093E30283EE92E0E1
:102AB0000E944C0B86E193E00E94F00A0E94F10D07
:102AC0008091010480FF31C00E942B02C090080455
:102AD000D0900904E0900A04F0900B04C616D706C3
:102AE000E806F90610F56BEB72E08DE094E00E94C9
:102AF0002D0D8091080490910904A0910A04B091D1
:102B00000B044091040450910504609106047091F7
:102B10000704840F951FA61FB71F80930804909386
:102B20000904A0930A04B0930B0480E090E0892B81
:102B300009F405CF0E94E605882309F400CF0E941E
:102B40000000FBCE922F8827209128043091290481
:102B5000820F931F909329048093280410922A04D3
:102B60008738B1E09B0709F4C2C408F04DC187362D
:102B7000910509F4CAC308F0A7C08C30910509F487
:102B800090C308F04AC08430910509F45AC3A0F4F8
:102B90008130910509F4B6C208F4B1C2029709F474
:102BA000B8C261E270E08DE094E00E94E30C6091B5
:102BB000280470912904A8C28630910509F466C3DF
:102BC00008F427C38730910509F448C3089749F7EB
:102BD00069E070E08DE094E00E94E30C6EE170E04B
:102BE0008091FF03909100040E94570DE0911D0415
:102BF000F0911E04E090FF03F0900004D70130979D
:102C000009F4C7C28D919C91DC01CD90DC900995AF
:102C1000682FC701F6010995C3CE8631910509F4E5
:102C200081C228F58031910509F4BBC290F40E975A
:102C300009F0B7CF6FE070E08DE094E00E94E30C04
:102C400040E052EC61E070E08DE094E00E94C30C43
:102C5000A7CE8131910509F4C9C2429709F0A1CFED
:102C600086E090E090932C0480932B0499CE8A31D7
:102C7000910509F480C288F4489709F092CFE09159
:102C80001104F0911204309709F492CECE0101960E
:102C90000995F82E67E170E052C28536910509F476
:102CA00037C38636910509F07CCF65E670E08DE08C
:102CB00094E00E94E30C409104045091050460915B
:102CC000060470910704C0CF8830F1E09F0709F433
:102CD00090C308F056C0813031E0930709F461C316
:102CE00030F58937910509F43CC3B0F48837910574
:102CF00009F057CF82E190E090932C0480932B044D
:102D000083E080933A0483E090E090932E048093D4
:102D10002D0484E190E036C38A37910509F402C39B
:102D20008115914009F03DCF87E190E09BCF853040
:102D3000B1E09B0709F441C338F48430914009F0B5
:102D400030CF88E190E08ECF863021E0920709F401
:102D500049C38730914009F024CF66E071E08DE0EF
:102D600094E00E94E30CE0914904F0914A048281CE
:102D7000B4E08B9FC0011124E80FF91F63817481B7
:102D8000C3C1803841E0940709F49FC398F48A30A6
:102D9000B1E09B0709F448C308F432C38B30F1E07B
:102DA0009F0709F44BC38036914009F0FACE8FE0BB
:102DB00090E058CF843831E0930709F492C388F447
:102DC0008138914009F0EDCE80914B0490914C04F4
:102DD000DC0195962C91222309F4EACD0E944C0B3C
:102DE000DFCD8538B1E09B0709F472C38638914086
:102DF00009F0D7CE10932C0400932B0482E080932B
:102E00003A0480E290E0D6C18437F2E09F0709F4EB
:102E10008FC408F0BCC0863032E0930709F422C4A6
:102E200008F06BC08E38A1E09A0709F45DC3E8F49E
:102E30008938E1E09E0709F4A8C308F49FC38D38E0
:102E4000914009F0AECE6CE871E08DE094E00E9414
:102E5000E30C8091FF0390910004DC01ED91FC9163
:102E60000190F081E02D66E0D6CE813032E093070C
:102E700009F4B6C3B0F48F38914009F092CE6EE8F1
:102E800071E08DE094E00E94E30CE0914D04F0E0ED
:102E9000EE0FFF1FE55BFB4F0190F081E02D60819D
:102EA00097C28330B2E09B0709F4AEC385309240ED
:102EB00009F077CE64E072E08DE094E00E94E30CCC
:102EC000E0915004F0E0EE0FFF1FE25BFB4F01903A
:102ED000F081E02D648575858DE094E00E94E30C1F
:102EE000E0915004F0E0EE0FFF1FE25BFB4F01901A
:102EF000F081E02D6685778507C18B30F2E09F0772
:102F000009F4E9C398F4883032E0930709F4C9C39F
:102F100008F4B2C38930A2E09A0709F4C9C38A3021
:102F2000924009F03ECE85E290E09CCE8137E2E00F
:102F30009E0709F4E3C3C8F48C30924009F031CE07
:102F4000E0915004F0E0EE0FFF1FE25BFB4F0190B9
:102F5000F081E02D2FEF3FEF358724871786168607
:102F6000128E118E81E081871BCD823732E093076C
:102F700009F4DBC38337924009F013CE62E772E0B5
:102F80008DE094E00E94E30C6091530421C28B38E1
:102F9000A2E09A0709F484C408F050C08638E2E041
:102FA0009E0709F44EC498F5863722E0920709F48B
:102FB000ECC308F4D3C3813842E0940709F4F5C3A5
:102FC0008338924009F0EDCD62E872E08DE094E044
:102FD0000E94E30CE0915304F0E0EE0FFF1FEF5A64
:102FE000FB4F0190F081E02D628D738D8DE094E0B8
:102FF0000E94E30CE0915304F0E0EE0FFF1FEF5A44
:10300000FB4F0190F081E02D648D758D7DC0883877
:10301000B2E09B0709F42FC408F41AC48938F2E01F
:103020009F0709F42BC48A38924009F0BACD109357
:103030002C0400932B048AE290E0BCC0803932E07B
:10304000930709F46BC460F58D38A2E09A0709F480
:1030500041C408F438C48E38E2E09E0709F457C42E
:103060008F38924009F09DCD6EE872E08DE094E0DB
:103070000E94E30C8091FF0390910004E0915304BF
:10308000F0E0EE0FFF1FEF5AFB4FA081B181FC0172
:1030900020813181F9012081318158966C9135C4AC
:1030A000843625E6920709F47BCCB0F4813992404E
:1030B00009F077CD60E972E08DE094E00E94E30CC6
:1030C000E0915304F0E0EE0FFF1FEF5AFB4F019029
:1030D000F081E02D618D10C38236A4E79A0709F4D0
:1030E0006EC08336944709F05CCD25E030E0309324
:1030F0002C0420932B048FEF80933A0451CC0E9430
:10310000E8004ECC6DEC7BEA8DE094E00E94E30C8D
:1031100047CC63E070E08DE094E00E94E30C67E050
:1031200070E0F2CFE0910F04F0911004309709F4B1
:103130003FCCCE0101960995F82E65E170E08DE057
:1031400094E00E94E30C80910D0490910E04DC0148
:10315000ED91FC910190F081E02D6F2D09954F2D9F
:1031600050E0BE016F5F7F4F80910D0490910E047F
:103170000E94500D15CCE0911304F0911404309787
:1031800009F416CCCE0101960995F82E69E170E09C
:10319000D6CFED91FC910190F081E02D60E0C70168
:1031A0003ACD10932C0400932B0482E080933A04D0
:1031B00084E090E090932E0480932D04C6C263E6D1
:1031C00074E78DE094E00E94E30CF12CE12CB70150
:1031D00080910D0490910E040E945E0DBFEFEB1ADA
:1031E000FB0AE114E1E0FE0691F7DACB62E170E060
:1031F0008DE094E00E94E30C8091FF039091000425
:10320000DC01ED91FC910190F081E02D60910C04C6
:1032100002CD83E090E090932C0480932B0483E113
:1032200090E090932E0480932D0481E080934404D9
:10323000209245043092460440924704509248043C
:10324000AFCB2092450430924604409247045092FE
:10325000480485E090E00E94650DA2CB83E090E0F9
:1032600090932C0480932B0483E190E090932E04A0
:1032700080932D0481E080934404109245041092C1
:10328000460410924704109248048ACB10924504D9
:1032900010924604109247041092480487E090E090
:1032A000DACFDE011196EEE0F0E021E2CF010196E7
:1032B00020935700E491ED93FC01449711F4E5E16C
:1032C000F0E08BA99CA98A179B0781F76DE070E05D
:1032D0008DE094E00E94E30C69E070E080910D04C1
:1032E00090910E040E945E0D80910D0490910E0449
:1032F000DC01ED91FC910280F381E02D49E050E08A
:10330000BE016F5F7F4F09954BCB80E190E0AACC67
:1033100010932C0400932B0482E080933A0481E103
:1033200090E048CFE0912304F0912404309709F411
:103330003FCB09956093400470934104809342040D
:10334000909343046BE770E08DE094E00E94E30CFF
:1033500040914004509141046091420470914304B3
:1033600073CC82E190E090932C0480932B0483E053
:1033700080933A0483E090E090932E0480932D0490
:1033800083E190E09093300480932F0410924504E1
:103390001092460410924704109248041092390487
:1033A000FFCA8091490490914A04DC01ED91FC919F
:1033B0000680F781E02D0995F3CA64E071E08DE0A5
:1033C00094E00E94E30CE0914904F0914A04628188
:1033D00070E06F5F7F4F8091FF03909100040E9427
:1033E000570DDECA10932C0400932B0489E190E062
:1033F000E1CE10932C0400932B048AE190E0DACE06
:1034000068E071E08DE094E00E94E30CE0914904F3
:10341000F0914A04828124E0829FC0011124E80FC8
:10342000F91F6581768170CE10932C0400932B04D4
:1034300082E080933A048BE190E0BCCE6AE071E0D8
:103440008DE094E00E94E30CA0914904B0914A04FD
:103450009C968D919C919D970097A9F0FC012081ED
:103460003181F90120853185D0966C91F90109955A
:103470009B01AC0160E070E080E89FE30E945B226A
:103480000E9430018DCA9E96ED90FC9060E070E045
:1034900080E89FE3E114F10499F3D70113966C914E
:1034A00070E090E080E00E940C214B015C01F7018C
:1034B000608170E090E080E00E940C219B01AC01F3
:1034C000C501B4010E94C822DBCF8CE190E0CACBD9
:1034D00064E871E08DE094E00E94E30C60914D049B
:1034E00077CF8DE190E0BECB8EE190E0BBCBE09159
:1034F0004D04F0E0EE0FFF1FE55BFB4F0190F08104
:10350000E02D808190E0909327048093260466E864
:1035100071E08DE094E00E94E30CF12CE12C76E068
:10352000D72E8091FF0390910004E0914D04F0E0CC
:10353000EE0FFF1FE55BFB4FA081B1814091260498
:1035400050912704D49E9001D59E300D1124A20FD6
:10355000B31F9D012E0D3F1DDC01ED91FC910190EB
:10356000F081E02DD90111966C910995BFEFEB1A0E
:10357000FB0AE4E0EE16F104A1F612CA10932C0443
:1035800000932B0481E290E015CEE0914D04F0E031
:10359000EE0FFF1FE55BFB4F0190F081E02D808176
:1035A00090E0909327048093260468E871E08DE012
:1035B00094E00E94E30CE0914D04F0E0EE0FFF1F59
:1035C000E55BFB4F0190F081E02D209126043091C6
:1035D000270446E0429FC001439F900D11241FCF56
:1035E00080914E0490914F040E94F80BE09150049A
:1035F000F0E0EE0FFF1FE25BFB4F608171818DE019
:1036000094E00E942D0DCCC9E0915004F0E0EE0F43
:10361000FF1FE25BFB4F808191810E94F80B62E00B
:1036200072E08DE094E00E94E30CE0915004F0E041
:10363000EE0FFF1FE25BFB4F0190F081E02D458113
:103640005681678170858DE094E00E94C30CE09103
:103650005004F0E0EE0FFF1FE25BFB4F0190F081A2
:10366000E02D8CCB10932C0400932B0482E08093EC
:103670003A0483E290E09ECD66E072E08DE094E053
:103680000E94E30CE0915004F0E0EE0FFF1FE25BBC
:10369000FB4F0190F081E02D658976898789908DB7
:1036A000EFCE10932C0400932B0484E290E082CDA3
:1036B00068E072E08DE094E00E94E30CE091500439
:1036C000F0E0EE0FFF1FE25BFB4F0190F081E02D79
:1036D000618D728D19CD6AE072E08DE094E00E94F8
:1036E000E30CE0915004F0E0EE0FFF1FE25BFB4FB4
:1036F0000190F081E02D618570E06DCE80915104E4
:1037000090915204DC01ED91FC910280F381E02D57
:103710000995E0915304F0E0EE0FFF1FEF5AFB4FC5
:10372000808191810E94FE0C3BC986E290E09ACA9A
:1037300010932C0400932B0482E080933A04E7E278
:10374000F0E0F0932E04E0932D04109240041092C8
:103750004104109242041092430420CE64E772E0C8
:103760008DE094E00E94E30CE0915304F0E0EE0F52
:10377000FF1FEF5AFB4F80819181DC01ED91FC919D
:103780000084F185E02D09957BCEE0915304F0E0B3
:10379000EE0FFF1FEF5AFB4F80819181DC01ED910D
:1037A000FC910284F385E02D06CEE0915304F0E015
:1037B000EE0FFF1FEF5AFB4F80819181DC01ED91ED
:1037C000FC910280F381E02D0995E0905304F12CE7
:1037D000F701EE0FFF1FEF5AFB4FC080D18060E86A
:1037E00072E08DE094E00E94E30CF6014581568181
:1037F000678170858DE094E00E94C30CA0900D0459
:10380000B0900E04D501ED91FC9180809180D6019D
:10381000ED91FC910480F581E02DC6010995682F9A
:10382000C501F4010995B7016F5F7F4F80910D04C9
:1038300090910E040E94570DD6011A966D917C91BD
:1038400063CC10932C0400932B0488E290E0B2CC5C
:1038500066E872E08DE094E00E94E30CE09153048E
:10386000F0E0EE0FFF1FEF5AFB4F0190F081E02DCB
:1038700065A176A149CC89E290E0F4C968E872E0DC
:103880008DE094E00E94E30CE0915304F0E0EE0F31
:10389000FF1FEF5AFB4F0190F081E02D62A12CCF6A
:1038A0006AE872E08DE094E00E94E30CE09153043A
:1038B000F0E0EE0FFF1FEF5AFB4F0190F081E02D7B
:1038C00060A171A121CCEBE2F0E0F0932C04E09335
:1038D0002B0466C86CE872E08DE094E00E94E30C73
:1038E0008091FF0390910004E0915304F0E0EE0F0B
:1038F000FF1FEF5AFB4FA081B181FC012081318174
:10390000F9012081318119966C91F90184C92CE269
:1039100030E030932C0420932B0442C82DE230E099
:10392000F8CF3197ED32F10508F05AC0E656F34E64
:103930000C94AA23C71CF01CEC1C271DA21D161EEC
:10394000F01CF01CF01CF01CF01CF01CF01CF01C17
:10395000F01C191E531E7C1E9E1EF01CF01CF01C39
:10396000BE1ECA1ED21E001F2E1F3A1F481F4C1F0C
:10397000F01C581F8D1FBE1FC11FEA1F18202720D3
:103980002B2051207F208F20BC20C820D420909154
:1039900039046901F12CE12C092E04C0CC0CDD1C8A
:1039A000EE1CFF1C0A94D2F7409140045091410450
:1039B0006091420470914304C40ED51EE61EF71EAA
:1039C000C0924004D0924104E0924204F092430439
:1039D000985F9093390404C0232B69F40E94E80097
:1039E00080913A04882309F4EFC390913B0491112C
:1039F000EBC3815081CB8FEF860F80933A0481E037
:103A000080933B0480914404882351F3E0911F0488
:103A1000F09120043097C1F08091450490914604C4
:103A2000A0914704B09148046C017D013FEFC31A97
:103A3000D30AE30AF30AC0924504D0924604E09206
:103A40004704F0924804099510924404C9CFC90173
:103A5000B0E0A0E04091390404C0880F991FAA1F6C
:103A6000BB1F4A95D2F740914004509141046091A8
:103A7000420470914304840F951FA61FB71FBF70A7
:103A80008093400490934104A0934204B093430474
:103A9000F4E036952795FA95E1F7309327042093C3
:103AA0002604E090FF03F0900004D701ED91FC9113
:103AB0000680F781E02DC7010995D7015296ED9157
:103AC000FC91539780818F7E80835296ED91FC917B
:103AD00053978081877F80835296ED91FC91539715
:103AE00080818F7780835296ED91FC9153978081EE
:103AF0008F7D80835A968C915A9759968C934091DA
:103B000040045091410460914204709143048091BB
:103B1000FF03909100040E948800C0904004D09060
:103B20004104E0904204F090430465E674E78DE0C0
:103B300094E00E94E30CB701A6018DE094E00E949E
:103B4000C30C4ECF40913A044F3F59F480933A044E
:103B500010924004109241041092420410924304C7
:103B60003FCF8091400490914104A0914204B091D4
:103B700043048217130659F49F5FAF4FBF4F8093E2
:103B8000400490934104A0934204B0934304411134
:103B900039C064E674E78DE094E00E94E30CA091E4
:103BA000FF03B091000440914004509141046091A2
:103BB000420470914304CB01BA016F5F7F4F8F4F76
:103BC0009F4FED91FC9111970190F081E02DCD0177
:103BD0000995A091FF03B0910004409140045091D9
:103BE000410460914204709143049927872F762FF6
:103BF000652FED91FC9111970190F081E02DCD01A1
:103C00000995EECE8091400490914104A091420428
:103C1000B09143040196A11DB11D8093400490937F
:103C20004104A0934204B0934304DACE80930C0481
:103C3000D7CE80930104882309F4D2CEE0915004BA
:103C4000F0E0EE0FFF1FE25BFB4F608171818DE0C2
:103C500094E00E942D0DE0915304F0E0EE0FFF1F61
:103C6000EF5AFB4F808191810E94FE0C80910104EC
:103C700080FFB6CE0E942B02C0900404D0900504B1
:103C8000E0900604F0900704DC01CB018C0D9D1D33
:103C9000AE1DBF1D8093080490930904A0930A04ED
:103CA000B0930B049DCEC901B0E0A0E0209139048F
:103CB00004C0880F991FAA1FBB1F2A95D2F74091F5
:103CC0004004509141046091420470914304840F78
:103CD000951FA61FB71F8093400490934104A093A3
:103CE0004204B09343048093040490930504A0938A
:103CF0000604B093070474CE909139046901F12C45
:103D0000E12C092E04C0CC0CDD1CEE1CFF1C0A9417
:103D1000D2F7409145045091460460914704709158
:103D20004804C40ED51EE61EF71EC0924504D0926C
:103D30004604E0924704F09248044ACEE0911F0402
:103D4000F0912004309709F44BCE80914504909176
:103D50004604A0914704B09148046C017D012FEF07
:103D6000C21AD20AE20AF20AC0924504D09246046C
:103D7000E0924704F0924804099532CE80914904BC
:103D800090914A046150DC01ED91FC910480F58131
:103D9000E02DF2CFA0914904B0914A0461501296EF
:103DA0006C931ECEC901B0E0A0E02091390404C09C
:103DB000880F991FAA1FBB1F2A95D2F74091400474
:103DC000509141046091420470914304840F951F07
:103DD000A61FB71F8093400490934104A093420410
:103DE000B0934304E0914904F0914A04428124E0F5
:103DF000429FA0011124E40FF51F94838383F0CD2B
:103E0000C901B0E0A0E02091390404C0880F991FD7
:103E1000AA1FBB1F2A95D2F740914004509141043C
:103E20006091420470914304840F951FA61FB71F31
:103E30008093400490934104A0934204B0934304C0
:103E4000E0914904F0914A04428134E0439FA0018B
:103E50001124E40FF51F96838583C2CDE0904904B9
:103E6000F0904A040E940F01AB01BC01C7010E94FF
:103E70009F0AB6CD615060934D04E62FF0E0EE0F3F
:103E8000FF1FE55BFB4F808191810E948B0BA8CDCA
:103E9000615060934D04A4CDE0914D04F0E0EE0F2D
:103EA000FF1FE55BFB4FA081B18161506C9398CD02
:103EB000C901B0E0A0E02091390404C0880F991F27
:103EC000AA1FBB1F2A95D2F740914004509141048C
:103ED0006091420470914304840F951FA61FB71F81
:103EE0008093400490934104A0934204B093430410
:103EF000E0914D04F0E0EE0FFF1FE55BFB4F0190FA
:103F0000F081E02D208146E0249FE00DF11D112479
:103F100081839283A383B48363CDC901B0E0A0E021
:103F20002091390404C0880F991FAA1FBB1F2A952E
:103F3000D2F7409140045091410460914204709145
:103F40004304840F951FA61FB71F809340049093CE
:103F50004104A0934204B0934304E0914D04F0E087
:103F6000EE0FFF1FE55BFB4F0190F081E02D2081FC
:103F700036E0239FE00DF11D11246DCF8093500496
:103F80002FCDE0915004F0E0EE0FFF1FE25BFB4FFE
:103F9000E080F1800E940F01D70155966D937D93CB
:103FA0008D939C93589781E019968C93E0915004DF
:103FB000F0E0EE0FFF1FE25BFB4F0190F081E02D80
:103FC0002FEF3FEF3587248717861686128E118EC6
:103FD000818706CDC901B0E0A0E02091390404C07A
:103FE000880F991FAA1FBB1F2A95D2F74091400442
:103FF000509141046091420470914304840F951FD5
:10400000A61FB71F8093400490934104A0934204DD
:10401000B0934304E0915004F0E0EE0FFF1FE25B29
:10402000FB4F0190F081E02D928F818F1186D8CCCB
:10403000E0915004F0E0EE0FFF1FE25BFB4F0190B8
:10404000F081E02D81E0232B19F680E0C1CF615093
:1040500060935304C5CCE0915304F0E0EE0FFF1FD2
:10406000EF5AFB4FE080F180D701ED91FC91C680C3
:10407000D7800E940F01AB01BC01C701F601099571
:10408000E0915304F0E0EE0FFF1FEF5AFB4F8081E9
:104090009181DC01ED91FC910284F385E02D09957D
:1040A0009FCCC901B0E0A0E02091390404C0880F82
:1040B000991FAA1FBB1F2A95D2F740914004509127
:1040C00041046091420470914304840F951FA61F20
:1040D000B71F8093400490934104A0934204B0938F
:1040E0004304E0915304F0E0EE0FFF1FEF5AFB4F43
:1040F0000190F081E02D96A385A312A271CCE091EE
:104100005304F0E0EE0FFF1FEF5AFB4F0190F081D8
:10411000E02D81E0232B09F480E082A361CCC9016A
:10412000B0E0A0E02091390404C0880F991FAA1FB5
:10413000BB1F2A95D2F740914004509141046091F1
:10414000420470914304840F951FA61FB71F8093EC
:10415000400490934104A0934204B0934304E0913F
:104160005304F0E0EE0FFF1FEF5AFB4F0190F08178
:10417000E02D91A380A334CCE0915304F0E0EE0F46
:10418000FF1FEF5AFB4F0190F081E02D818728CC73
:10419000E0915304F0E0EE0FFF1FEF5AFB4F019048
:1041A000F081E02D608F1CCCE0915304F0E0EE0F25
:1041B000FF1FEF5AFB4F0190F081E02D81E0232B90
:1041C00009F480E0818F0CCCEBE2F4E082819381F2
:1041D0008193919327E334E02E173F07B9F71092AC
:1041E0003B040C94D0140E945002209102043091A0
:1041F0000304620F731F811D911D60933C04709333
:104200003D0480933E0490933F040C94E5140E9477
:10421000492108F481E00895E89409C097FB3EF431
:1042200090958095709561957F4F8F4F9F4F992303
:10423000A9F0F92F96E9BB279395F6958795779581
:104240006795B795F111F8CFFAF4BB0F11F460FF41
:104250001BC06F5F7F4F8F4F9F4F16C0882311F099
:1042600096E911C0772321F09EE8872F762F05C0AD
:10427000662371F096E8862F70E060E02AF09A9548
:10428000660F771F881FDAF7880F9695879597F93D
:104290000895990F0008550FAA0BE0E8FEEF1616D7
:1042A0001706E807F907C0F012161306E407F5072A
:1042B00098F0621B730B840B950B39F40A2661F09E
:1042C000232B242B252B21F408950A2609F4A14041
:1042D000A6958FEF811D811D08950E9480210C9469
:1042E000F1210E94E32138F00E94EA2120F0952379
:1042F00011F00C94DA210C94E02111240C94252265
:104300000E94022270F3959FC1F3950F50E0551F54
:10431000629FF001729FBB27F00DB11D639FAA271A
:10432000F00DB11DAA1F649F6627B00DA11D661F69
:10433000829F2227B00DA11D621F739FB00DA11D8A
:10434000621F839FA00D611D221F749F3327A00D44
:10435000611D231F849F600D211D822F762F6A2FE0
:1043600011249F5750409AF0F1F088234AF0EE0F45
:10437000FF1FBB1F661F771F881F91505040A9F772
:104380009E3F510580F00C94DA210C9425225F3F6A
:10439000E4F3983ED4F3869577956795B795F795AE
:1043A000E7959F5FC1F7FE2B880F911D9695879526
:1043B00097F9089597F99F6780E870E060E00895A5
:1043C0009FEF80EC089500240A941616170618062D
:1043D0000906089500240A94121613061406050609
:1043E0000895092E0394000C11F4882352F0BB0F9A
:1043F00040F4BF2B11F460FF04C06F5F7F4F8F4FFD
:104400009F4F089557FD9058440F551F59F05F3F37
:1044100071F04795880F97FB991F61F09F3F79F0E6
:1044200087950895121613061406551FF2CF469568
:10443000F1DF08C0161617061806991FF1CF8695EA
:104440007105610508940895E894BB2766277727CE
:10445000CB0197F90895F999FECF92BD81BDF89AE5
:10446000992780B50895262FF999FECF1FBA92BDDE
:1044700081BD20BD0FB6F894FA9AF99A0FBE019645
:1044800008950E944C22A59F900DB49F900DA49F6B
:10449000800D911D11240895A29FB001B39FC0010A
:1044A000A39F700D811D1124911DB29F700D811D60
:1044B0001124911D08955058BB27AA270E947322EA
:1044C0000C94F1210E94E32138F00E94EA2120F0AF
:1044D00039F49F3F19F426F40C94E0210EF4E09592
:1044E000E7FB0C94DA21E92F0E94022258F3BA1755
:1044F000620773078407950720F079F4A6F50C94FA
:1045000024220EF4E0950B2EBA2FA02D0B01B90139
:1045100090010C01CA01A0011124FF27591B99F039
:10452000593F50F4503E68F11A16F040A22F232F45
:10453000342F4427585FF3CF469537952795A79595
:10454000F0405395C9F77EF41F16BA0B620B730B3C
:10455000840BBAF09150A1F0FF0FBB1F661F771FAD
:10456000881FC2F70EC0BA0F621F731F841F48F462
:10457000879577956795B795F7959E3F08F0B0CFEB
:104580009395880F08F09927EE0F979587950895D2
:104590000E94DC220C94F1210E94EA2158F00E9432
:1045A000E32140F029F45F3F29F00C94DA21511106
:1045B0000C9425220C94E0210E94022268F3992396
:1045C000B1F3552391F3951B550BBB27AA2762170F
:1045D0007307840738F09F5F5F4F220F331F441F1C
:1045E000AA1FA9F335D00E2E3AF0E0E832D0915050
:1045F0005040E695001CCAF72BD0FE2F29D0660F3D
:10460000771F881FBB1F261737074807AB07B0E87F
:1046100009F0BB0B802DBF01FF2793585F4F3AF085
:104620009E3F510578F00C94DA210C9425225F3FCF
:10463000E4F3983ED4F3869577956795B795F7950B
:104640009F5FC9F7880F911D9695879597F90895F3
:10465000E1E0660F771F881FBB1F6217730784078F
:10466000BA0720F0621B730B840BBA0BEE1F88F79E
:10467000E09508950E940A2288F09F5798F0B92F7C
:104680009927B751B0F0E1F0660F771F881F991F87
:104690001AF0BA95C9F714C0B13091F00E942422E3
:1046A000B1E008950C942422672F782F8827B85FF3
:1046B00039F0B93FCCF3869577956795B395D9F7DF
:1046C0003EF490958095709561957F4F8F4F9F4FE9
:1046D0000895A1E21A2EAA1BBB1BFD010DC0AA1F43
:1046E000BB1FEE1FFF1FA217B307E407F50720F05B
:1046F000A21BB30BE40BF50B661F771F881F991FD6
:104700001A9469F760957095809590959B01AC011E
:10471000BD01CF010895052E97FB1EF400940E9461
:10472000A22357FD07D00E94692307FC03D04EF453
:104730000C94A22350954095309521953F4F4F4FB3
:104740005F4F089590958095709561957F4F8F4F3D
:104750009F4F0895EE0FFF1F0590F491E02D0994EF
:104760000F931F93CF93DF938230910510F482E073
:1047700090E0E0915604F091570430E020E0B0E082
:10478000A0E0309799F42115310509F44AC0281B9F
:10479000390B24303105D8F58A819B81611571056B
:1047A00089F1FB0193838283FE0111C04081518115
:1047B0000281138148175907E0F04817590799F407
:1047C000109761F012960C93129713961C933296E1
:1047D000CF01DF91CF911F910F910895009356045F
:1047E00010935704F4CF2115310551F042175307A8
:1047F00038F0A901DB019A01BD01DF01F801C1CF49
:10480000EF01F9CF9093570480935604CDCFFE016A
:10481000E20FF31F8193919322503109398328834A
:10482000D7CF2091540430915504232B41F420918B
:1048300004013091050130935504209354042091D4
:104840000201309103012115310541F42DB73EB726
:104850004091060150910701241B350BE09154044F
:10486000F0915504E217F307A0F42E1B3F0B281715
:10487000390778F0AC014E5F5F4F2417350748F0D9
:104880004E0F5F1F509355044093540481939193AE
:104890009FCFF0E0E0E09CCFCF93DF930097E9F06B
:1048A000FC01329713821282A0915604B0915704F2
:1048B000ED0130E020E01097A1F420813181820FDA
:1048C000931F20915404309155042817390709F09B
:1048D00061C0F0935504E0935404DF91CF910895A3
:1048E000EA01CE17DF07E8F54A815B819E01411599
:1048F0005105B1F7E901FB83EA8349915991C40F4E
:10490000D51FEC17FD0761F4808191810296840F19
:10491000951FE90199838883828193819B838A8390
:10492000F0E0E0E012968D919C9113970097B9F515
:104930002D913C911197CD010296820F931F2091EA
:104940005404309155042817390739F6309751F53A
:104950001092570410925604B0935504A093540437
:10496000BCCFD383C28340815181840F951FC81768
:10497000D90761F44E5F5F4F88819981480F591FB5
:10498000518340838A819B819383828321153105E2
:1049900009F0B0CFF0935704E09356049ECFFD0189
:1049A000DC01C0CF13821282D7CF81E090E0F8946F
:0849B0000C94DA24F894FFCF07
:1049B800FF06000058048000FF00FF0000FF00FF12
:1049C800FF00FF00FFFF00FF0000000000001C06C2
:1049D8007C05A9056906DA05B805CC0500000000C4
:1049E800190B000BF40AF00A00000000350A2D0A22
:1049F800C90F250A6C0F1D0AD109C909A509483A2A
:104A08005C4D792044726976655C56756C696E7484
:104A1800757320536F6674776172652028447265D8
:104A280077295C4669726D77617265202D204F6D1C
:104A38006E695472616B5C4F6D6E695472616B5F25
:104A48004E6F7365706F6B655F4669726D776172E3
:104A5800655C4F6D6E695472616B5F4E6F73657004
:104A68006F6B655F56335C4F6D6E695472616B5F37
:104A78004E6F7365706F6B655F56332E696E6F008E
:104A88004E6F7620313320323032340031383A35A7
:064A9800373A3036000041
:00000001FF
