:100000000C9464000C94CF090C94A8090C948C00F7
:100010000C948C000C948C000C948C000C94F609BD
:100020000C948C000C948C000C948C000C948C0020
:100030000C948C000C948C000C948C000C948C0010
:100040000C945E090C948C000C94780A0C94520A5F
:100050000C948C000C948C000C948C000C948C00F0
:100060000C94AA0A0C948C000200000000240027C3
:10007000002A0000000000230026002900000000E4
:100080000800020100000304070000000000000057
:100090000001020408102040800102040810200121
:1000A000020408102000000000250028002B000496
:1000B000040404040404040202020202020303030F
:1000C00003030300C50B5C1D11241FBECFEFD8E056
:1000D000DEBFCDBF25E0A4E7B1E001C01D92A83B83
:1000E000B207E1F711E0A0E0B1E0E6EFF0E402C012
:1000F00005900D92A437B107D9F710E0C3E6D0E020
:1001000004C02197FE010E946F1EC236D107C9F7B5
:100110000E94CC0C0C946E200C940000833081F073
:1001200028F4813099F08230A9F008958730A9F041
:100130008830C9F08430B1F4809180008F7D03C095
:10014000809180008F7780938000089584B58F77A9
:1001500084BD089584B58F7DFBCF8091B0008F77EB
:100160008093B00008958091B0008F7DF9CFCF9338
:10017000DF93282F30E0F901E358FF4F8491F90114
:10018000EF56FF4FD491F901E155FF4FC491CC23B5
:10019000A1F081110E948E00EC2FF0E0EE0FFF1F06
:1001A000ED58FF4FA591B491EC91ED2381E090E0E3
:1001B00009F480E0DF91CF91089580E090E0FACFDC
:1001C0001F93CF93DF93282F30E0F901E358FF4FBF
:1001D0008491F901EF56FF4FD491F901E155FF4F9A
:1001E000C491CC23A9F0162F81110E948E00EC2F10
:1001F000F0E0EE0FFF1FEB55FF4FA591B4918FB7C5
:10020000F894EC91111108C0D095DE23DC938FBFD8
:10021000DF91CF911F910895DE2BF8CF61E080919F
:1002200058030C94E000CF93DF9390E0FC01EF566D
:10023000FF4F249181559F4FFC0184918823D1F079
:1002400090E0880F991FFC01E759FF4FA591B491E9
:10025000FC01EB55FF4FC591D49161110EC09FB7C2
:10026000F8948C91E22FE0958E238C932881E223E1
:10027000E8839FBFDF91CF9108958FB7F894EC91F9
:10028000E22BEC938FBFF6CF8E3008F08E50877044
:10029000806480937C0080917A00806480937A00EF
:1002A00080917A0086FDFCCF809178009091790052
:1002B00008953FB7F8948091B2029091B302A09153
:1002C000B402B091B50226B5A89B05C02F3F19F026
:1002D0000196A11DB11D3FBFBA2FA92F982F8827C6
:1002E000BC01CD01620F711D811D911D42E0660FA1
:1002F000771F881F991F4A95D1F708952FB7F89453
:100300006091AE027091AF028091B0029091B10203
:100310002FBF08950895CF93DF93C0915303D091D9
:1003200054032097A1F0FE01E55EFD4F80810E94FD
:10033000B70021E0892B09F420E02C878C858823E5
:1003400049F00E945901688779878A879B87DF91E6
:10035000CF9108950E9459016C837D838E839F8382
:10036000F6CF823068F4E82FF0E0813051F0E89861
:10037000EE0FFF1FEF5FFE4F83EC91E091838083D0
:100380000895E998F5CF08958230E8F4E82FF0E079
:10039000EE0FFF1FEF5FFE4F71836083813041F0EE
:1003A000809169008C7F482B40936900E89A0895FA
:1003B00080916900837F440F551F440F551F482BC0
:1003C00040936900E99A0895CF93C82F813069F46A
:1003D00080919105882349F080918D05823011F13B
:1003E000833011F581E00E94B1016C2F80918D0561
:1003F0000E941301C1111AC0809191058823B1F0A8
:100400006091A1057091A20580918D05823021F047
:10041000C1E0833009F0CFEF41E050E08C2FCF9165
:100420000C94C40180E0DFCF8FEFDDCFCF91089532
:1004300080917303882319F080E00E94E401809189
:10044000910581110AC080918D050E94B70021E0BD
:10045000892B09F420E020939305109281051092D6
:1004600082051092830510928405109297051092D0
:1004700096051092950510929405109273031092B0
:10048000A00510929F0580919B0590919C05A091DD
:100490009D05B0919E05892B8A2B8B2BA1F00E9484
:1004A00059012091B1053091B205220F331F620F1F
:1004B000731F811D911D60939B0570939C05809314
:1004C0009D0590939E050895CF93DF932091B305EA
:1004D0002093980522E020937303880F991F90932F
:1004E0009505809394051092970510929605C2E9A0
:1004F000D5E0188281E00E94E401688180918D0539
:100500000E94E0000E9459012091A9053091AA059E
:10051000620F731F811D911D609381057093820589
:100520008093830590938405DF91CF9108959091F6
:10053000000189130BC0E8E6F0E0E4919FEF90938F
:100540000001E13049F028F0E23061F060E00C9405
:10055000E00010926E00FACF90916F009D7F909313
:100560006F00F4CF909170009D7F9093700091E0A8
:100570009093B0009091B100987F94609093B100F7
:100580001092B300E3CF4F925F926F927F928F925F
:100590009F92AF92BF92CF92DF92EF92FF920F9312
:1005A0001F93CF93DF9300D000D01F92CDB7DEB75B
:1005B0008B0129013A01909100018917C9F09F3FF1
:1005C00009F47EC00F900F900F900F900F90DF9165
:1005D000CF911F910F91FF90EF90DF90CF90BF9040
:1005E000AF909F908F907F906F905F904F90089505
:1005F000E8E6F0E094919D8397FDE4CF61E00E94EE
:1006000013018D81882321F09D81923009F04AC128
:100610004801B12CA12C60E072E18AE790E0A501CD
:1006200098010E94501E29833A834B835C836901A1
:100630007A0181E0C81AD108E108F1089FEFC916D4
:10064000D104E104F10409F00CF401C160E472E4A6
:100650008FE090E0A50198010E94501E69017A0187
:1006600081E0C81AD108E108F1089D81923009F0B3
:10067000A2C08FEFC816D104E104F10409F00CF414
:10068000E6C160E970ED83E090E0A50198010E9469
:10069000501E69017A0191E0C91AD108E108F108F8
:1006A0008FEFC816D104E104F10411F00CF07FC102
:1006B00083E09091B100987F892B8093B100CFC0E7
:1006C00080930001E8E6F0E094919D839F3F09F458
:1006D00079CF913041F150F0923009F446C09D81BC
:1006E00097FD70CF61E00E9413018ECF14BC15BC42
:1006F00094B5926094BD95B5916095BD282F30E07A
:10070000F901E155FF4FE491F0E0EE0FFF1FEB55CB
:10071000FF4F45915491F901EF56FF4FE491E0935B
:10072000E8011D826BCF10928000109281009091A1
:1007300081009860909381009091810091609093E6
:100740008100282F30E0F901E155FF4FE491F0E0FE
:10075000EE0FFF1FEB55FF4F45915491F901EF56F6
:10076000FF4FE491E093E70149CF1092B00010925F
:10077000B1009091B00092609093B0009091B10060
:1007800091609093B100282F30E0F901E155FF4FBF
:10079000E491F0E0EE0FFF1FEB55FF4F45915491B0
:1007A0005093F2014093F101F901EF56FF4FE491AC
:1007B000E093F30123CF9FEFC916D104E104F104C4
:1007C00009F00CF46DC068E478EE81E090E0A501DA
:1007D00098010E94501E69017A0181E0C81AD1086F
:1007E000E108F1089D81992309F4FAC08FEFC8163A
:1007F000D104E104F10411F00CF0FBC0EFC064E29D
:1008000074EF80E090E0A50194010E94501E690100
:100810007A0181E0C81AD108E108F10885E09FEF6C
:10082000C916D104E104F10409F008F442CF62E1F1
:100830007AE780E090E0A50194010E94501E6901D2
:100840007A0181E0C81AD108E108F108E5C081E029
:100850009D8191112ECF95B5987F892B85BD2FEF66
:100860003FEFA901411451046104710409F043C030
:100870009D81913009F45EC0923009F46DC09111F0
:10088000A1CEC7BC2093ED013093EE014093EF0160
:100890005093F00180916E00826080936E0092CE42
:1008A00082E0D6CFB12CA12C60E072E18AE790E023
:1008B000A50198010E94501E69017A0181E0C81AC1
:1008C000D108E108F108C114D10491E0E906F1046E
:1008D00004F591E08D81813011F680918100887F4F
:1008E000892B809381002FEF3FEFA9014114510420
:1008F00061047104F9F0D801AA0FBB1FA301920192
:100900000E94DD1D28EE33E040E050E00E942E1EE4
:10091000AFCF68E478EE81E090E0A50198010E94F5
:10092000501E69017A0181E0C81AD108E108F10876
:1009300093E0D0CFD0928900C09288002093E90143
:100940003093EA014093EB015093EC0180916F00EA
:10095000826080936F0036CEC092B3002093F40182
:100960003093F5014093F6015093F70180917000A8
:1009700082608093700026CE84E09FEFC916D10478
:10098000E104F10409F008F466CFC980DA80EB8055
:10099000FC808AE0F594E794D794C7948A95D1F7C0
:1009A00081E0C81AD108E108F10885E054CF68E475
:1009B00078EE81E090E0A50198010E94501E690147
:1009C0007A0181E0C81AD108E108F1089FEFC91641
:1009D000D104E104F10411F00CF011CF84E069CEF0
:1009E00083E09FEFC916D104E104F10409F00CF48F
:1009F00032CF62E17AE780E090E0A50194010E94A5
:100A0000501E69017A0181E0C81AD108E108F10895
:100A10009D81992309F4B0CF86E09FEFC916D104D8
:100A2000E104F10409F008F444CEC980DA80EB80D7
:100A3000FC809AE0F594E794D794C7949A95D1F7FF
:100A400081E0C81AD108E108F10887E032CE82E0DF
:100A500030CEAF92BF92CF92DF92EF92FF920F9380
:100A60001F93CF93DF936C017B018B01040F151F44
:100A7000EB015E01AE18BF08C017D10759F06991AC
:100A8000D601ED91FC910190F081E02DC601099510
:100A9000892B79F7C501DF91CF911F910F91FF90BD
:100AA000EF90DF90CF90BF90AF900895FC01538DF1
:100AB000448D252F30E0842F90E0821B930B541738
:100AC00010F0CF96089501970895FC01918D828DC5
:100AD000981761F0A28DAE0FBF2FB11D5D968C915E
:100AE000928D9F5F9F73928F90E008958FEF9FEF9D
:100AF0000895FC01918D828D981731F0828DE80F59
:100B0000F11D858D90E008958FEF9FEF0895FC0112
:100B1000918D228D892F90E0805C9F4F821B9109DF
:100B20008F739927089586EB92E00E94870521E054
:100B3000892B09F420E0822F089580E090E0892B32
:100B400029F00E94930581110C9400000895FC0186
:100B5000A48DA80FB92FB11DA35ABF4F2C91848D1E
:100B600090E001968F739927848FA689B7892C937B
:100B7000A089B1898C91837080648C93938D848DCE
:100B8000981306C00288F389E02D80818F7D8083D1
:100B90000895EF92FF920F931F93CF93DF93EC0191
:100BA00081E0888F9B8D8C8D98131AC0E889F98914
:100BB000808185FF15C09FB7F894EE89FF89608317
:100BC000E889F98980818370806480839FBF81E098
:100BD00090E0DF91CF911F910F91FF90EF900895DA
:100BE000F62E0B8D10E00F5F1F4F0F731127E02EB5
:100BF0008C8D8E110CC00FB607FCFACFE889F989ED
:100C0000808185FFF5CFCE010E94A705F1CFEB8D46
:100C1000EC0FFD2FF11DE35AFF4FF0829FB7F894C0
:100C20000B8FEA89FB8980818062CFCF682F86EBAA
:100C300092E00C94C905CF93DF93EC01888D882353
:100C4000B9F0AA89BB89E889F9898C9185FD03C02F
:100C5000808186FD0DC00FB607FCF7CF8C9185FF14
:100C6000F2CF808185FFEDCFCE010E94A705E9CFAD
:100C7000DF91CF91089520919D01260F3327331FD7
:100C800021323105ECF42091C101FC0190E080E0BB
:100C9000243069F082E00895A0919D012191AC017A
:100CA00043585E4FA40FB52FB11D2C9301968617A4
:100CB00098F380919D01680F60939D0180E00895F5
:100CC00081E0089508958FEF9FEF08958FEF9FEFD4
:100CD00008958091760190E091958195910908950C
:100CE000CF93DF93CB01EA01642F0E943B06CE0134
:100CF000DF91CF910895CF93DF931F92CDB7DEB7E9
:100D0000698361E0CE0101960E943B0681E090E09C
:100D10000F90DF91CF91089590E080E00895CF93F8
:100D2000DF9300D0CDB7DEB789839A8342E050E0ED
:100D3000BE016F5F7F4F86EB92E00E9429050F9006
:100D40000F90DF91CF910895E6E2F1E09EE023E17C
:100D500080818E3039F42083319681E0EC32F807BF
:100D6000B9F708958331C1F79083F6CFCF93DF931E
:100D7000EC01805991408035910528F084589E4FB0
:100D80008F34910588F483E1809311018EE0809384
:100D900015010E94A40681E080937501CBE4D0E0A8
:100DA000CE01DF91CF910895809175018823C1F321
:100DB0008EE08093110183E1809315010E94A406C7
:100DC00010927501EDCFCF93DF93C82FD0E0FE01D5
:100DD000ED5CFE4F60E080810E94E000CC0FDD1FE3
:100DE000CC0FDD1FC358DD4F188219821A821B8277
:100DF000DF91CF9108950F931F93CF93DF93C82F67
:100E0000D0E0FE01ED5CFE4F61E080810E94E000D9
:100E1000FE01EE0FFF1FE050FE4F008111810F3FDA
:100E2000100781F00E947E01CC0FDD1FCC0FDD1F6B
:100E3000C358DD4F600F711F811D911D6883798339
:100E40008A839B83DF91CF911F910F9108958091A9
:100E5000FE019091FF01009709F08896209173039D
:100E6000222381F04FEF5FEFBA0140939B0550932F
:100E70009C0560939D0570939E0590939A058093C1
:100E80009905089540919B0550919C0560919D05A1
:100E900070919E05452B462B472B79F70C946402E5
:100EA00081E08093730381E090E0909395058093B7
:100EB0009405109292050E94E40160919205809140
:100EC0008D050E94E0000E9459012091A3053091F8
:100ED000A405620F731F811D911D6093810570939E
:100EE0008205809383059093840561E084E00E94ED
:100EF000E0000E947E016C507E4F8F4F9F4F6093A9
:100F00008502709386028093870290938802809175
:100F10001D02853019F480E00E94FB0680911E02BC
:100F2000853019F481E00C94FB0608958EBD000015
:100F30000DB407FEFDCF8EB5089560E08091580393
:100F40000E94E00080E58CBD1DBC0895CF92DF9229
:100F5000EF92FF92CF930E949D0780E60E94960732
:100F6000C12CD12C7601C0E080915903C81768F4D8
:100F700080E00E949607FE2CED2CDC2CCC24C80EC1
:100F8000D11CE11CF11CCF5FEFCF0E940E01C70105
:100F9000B601CF91FF90EF90DF90CF900895FC01C4
:100FA00001900020E9F73197AF01481B590BBC01B4
:100FB00086EB92E00C9429058F929F92AF92BF929C
:100FC0000F931F93CF93DF93CDB7DEB7A1970FB6E3
:100FD000F894DEBF0FBECDBF19A2423008F44AE03C
:100FE0008E010F5D1F4F842E912CB12CA12CA501D9
:100FF00094010E942E1EE62FB901CA01EA30F4F4D2
:10100000E05DD801EE938D01232B242B252B79F75E
:1010100090E080E0109719F0CD010E94CF07A196D3
:101020000FB6F894DEBF0FBECDBFDF91CF911F91F9
:101030000F91BF90AF909F908F900895E95CE1CFA2
:10104000CF92DF92EF92FF92CF93DF936B017C01FF
:101050006DE286EB92E00E94C905EC0166277727D6
:10106000CB016C197D098E099F094AE00E94DC07BB
:101070008C0F9D1FDF91CF91FF90EF90DF90CF906D
:1010800008950F931F93CF936091A9027091AA02C4
:101090008091AB029091AC024AE00E94DC0769E0CB
:1010A00086EB92E00E94C905C0E080912C01C81730
:1010B000F8F40C2F10E0F801EE0FFF1FE356FD4F80
:1010C00060817181072E000C880B990B97FF0CC073
:1010D0000E942008F801E55FFE4F608186EB92E0F8
:1010E0000E94C905CF5FE1CF4AE00E94DC07F2CF42
:1010F000CF911F910F910895CF93DF93BC01990F6A
:10110000880B990B97FF0CC00E942008EC0189E422
:1011100091E00E94CF078C0F9D1FDF91CF91089522
:101120004AE00E94DC07F2CF0F931F93CF93DF9327
:10113000EC0188819981009759F02A813B8126171B
:10114000370730F081E0DF91CF911F910F91089523
:101150008B016F5F7F4F0E949A1F009759F0998310
:1011600088831B830A832C813D81232B59F7FC0143
:101170001082E8CF80E0E7CFEF92FF920F931F93AA
:10118000CF93DF93EC017B018A01BA010E9494089E
:1011900028813981811114C02115310519F0C90147
:1011A0000E94111F198218821D821C821B821A82C2
:1011B000CE01DF91CF911F910F91FF90EF90089595
:1011C0001D830C83B701C9010E946720F1CF1F93D3
:1011D000CF93DF9385ED8093BC008091790190914E
:1011E0007A01A0917B01B0917C010796A11DB11DF0
:1011F00023E0B695A795979587952A95D1F72091E5
:10120000BC0024FD03C01092C10152C0409179017D
:1012100050917A0160917B0170917C01452B462BA6
:10122000472B69F30097A105B10541F02AE22A9501
:10123000F1F700C00197A109B109E1CF80917801D0
:10124000C1E0C0937701882399F1D091B800109143
:10125000BA008091BC008A7B8093BC0060E082E190
:101260000E94E00060E083E10E94E0001092C10172
:10127000C093C3011092C20161E082E10E94E000CC
:1012800061E083E10E94E0008091B9008E7F80934D
:10129000B9008091B9008D7F8093B90088E4809374
:1012A000B80085E48093BC001093BA00D093B800D6
:1012B000DF91CF911F9108950C94C71D1F920F923B
:1012C0000FB60F9211242F933F938F939F93AF9359
:1012D000BF938091AE029091AF02A091B002B09105
:1012E000B1023091AD0223E0230F2D3758F501965E
:1012F000A11DB11D2093AD028093AE029093AF0269
:10130000A093B002B093B1028091B2029091B30267
:10131000A091B402B091B5020196A11DB11D8093B8
:10132000B2029093B302A093B402B093B502BF91FE
:10133000AF919F918F913F912F910F900FBE0F9082
:101340001F90189526E8230F0296A11DB11DD2CF3C
:101350001F920F920FB60F9211242F933F934F932A
:101360005F936F937F938F939F93AF93BF93EF930D
:10137000FF93E0910301F09104010995FF91EF9132
:10138000BF91AF919F918F917F916F915F914F919D
:101390003F912F910F900FBE0F901F9018951F92A5
:1013A0000F920FB60F9211242F933F934F935F9399
:1013B0006F937F938F939F93AF93BF93EF93FF931D
:1013C000E0910101F09102010995FF91EF91BF9128
:1013D000AF919F918F917F916F915F914F913F91CD
:1013E0002F910F900FBE0F901F9018951F920F9284
:1013F0000FB60F9211242F933F934F935F936F93E8
:101400007F938F939F93AF93BF93EF93FF938091BD
:10141000F4019091F501A091F601B091F701892BAB
:101420008A2B8B2BD1F19091F301E091F101F09196
:10143000F2018081892780838091F4019091F501E8
:10144000A091F601B091F701181619061A061B06AD
:101450009CF48091F4019091F501A091F601B09176
:10146000F7010197A109B1098093F4019093F50167
:10147000A093F601B093F701FF91EF91BF91AF9167
:101480009F918F917F916F915F914F913F912F919C
:101490000F900FBE0F901F901895809100010E9431
:1014A0009702EACF1F920F920FB60F9211242F933B
:1014B0003F934F935F936F937F938F939F93AF93DC
:1014C000BF93EF93FF9386EB92E00E94A705FF91F5
:1014D000EF91BF91AF919F918F917F916F915F91AC
:1014E0004F913F912F910F900FBE0F901F90189525
:1014F0001F920F920FB60F9211242F938F939F93E9
:10150000EF93FF93E091C602F091C7028081E091D2
:10151000CC02F091CD0282FD1BC090818091CF0260
:101520008F5F8F732091D002821741F0E091CF023C
:10153000F0E0EA54FD4F958F8093CF02FF91EF9139
:101540009F918F912F910F900FBE0F901F90189524
:101550008081F4CF1F920F920FB60F9211242F9318
:101560003F934F935F936F937F938F939F93AF932B
:10157000BF93EF93FF938091B900887F803609F481
:101580004AC0F0F5883209F4A5C018F5803109F495
:1015900099C0B8F4882309F4F5C0883009F492C0E2
:1015A000FF91EF91BF91AF919F918F917F916F913B
:1015B0005F914F913F912F910F900FBE0F901F9011
:1015C0001895883109F486C0803251F78093C001A4
:1015D00014C0803409F49BC040F48033B9F38833DD
:1015E000F9F68093C00185ECAEC0803509F483C064
:1015F000883509F494C0883499F60E94E708D0CF62
:10160000883909F48AC038F5883729F050F48836CB
:1016100011F0803729F683E08093C1011092BF0159
:1016200055C0883809F479C0803919F0803809F03C
:10163000B7CF8091BF01803208F06FC0E091BF0149
:1016400081E08E0F8093BF018091BB00F0E0E156F6
:10165000FE4F80833BC0803B39F0D0F4803A09F4E0
:1016600077C0883A09F09CCF84E08093C101109242
:101670009E0110929D01F0E0E0E0099580919D01AE
:1016800081110FC081E080939D0110927D0109C0FE
:10169000803C09F4A8CF883C09F4A5CF883B09F029
:1016A0007FCFE0919E0181E08E0F80939E01F0E05C
:1016B000E358FE4F80818093BB0090919E01809102
:1016C0009D0129C08091E6018093BB0085EC809349
:1016D000BC0066CF9091E5018091E401981758F520
:1016E000E091E50181E08E0F8093E501F0E0EC539D
:1016F000FE4F8081E9CFE091E50181E08E0F80937C
:10170000E5018091BB00F0E0EC53FE4F80839091A7
:10171000E5018091E4019817C8F285E8D8CFE091FF
:10172000E50181E08E0F8093E5018091BB00F0E040
:10173000EC53FE4F80838091C30181115ECF81E025
:101740008093C20184EA8093BC001092C10128CF2B
:1017500085EC8093BC001092C1018091BF01803262
:1017600030F4E091BF01F0E0E156FE4F108260914D
:10177000BF0170E08FE991E0F0E0E0E009951092A0
:10178000BF010ECF1092C00138CF1092B902109253
:10179000B80288EE93E0A0E0B0E08093BA029093A4
:1017A000BB02A093BC02B093BD028BE391E0909387
:1017B000B7028093B60285EC90E09093C3028093C9
:1017C000C20284EC90E09093C5028093C40280EC46
:1017D00090E09093C7028093C60281EC90E09093D2
:1017E000C9028093C80282EC90E09093CB02809370
:1017F000CA0286EC90E09093CD028093CC021092C6
:10180000CF021092D0021092D1021092D20281E047
:101810008093720310927303109274039FEF90935E
:101820007503109285051092870510928605109217
:1018300089051092880510928B0510928A0598E010
:1018400090938D05809391051092A2051092A105A9
:1018500020E137E23093A4052093A30520E23EE483
:101860003093A6052093A50520ED37E03093A80519
:101870002093A70520E737E13093AA052093A90517
:1018800020EA3FE03093AC052093AB0520E43FE134
:101890003093AE052093AD0528EB3BE03093B005C7
:1018A0002093AF0528E93AE33093B2052093B105C0
:1018B0009BE09093B30580938C0522E733E030934F
:1018C00054032093530310925D031092640310920B
:1018D0006B0310926C0310926D0310926E03809351
:1018E0006A03809367031092680392E09093690300
:1018F00080935C0389E090E09093610380936003A0
:101900000E94751E9093660380936503009709F407
:101910003AC029E0FC0111922A95E9F783E090E0B2
:1019200090935F0380935E0386E090E0909363035F
:101930008093620380915D03882341F061E086E03B
:101940000E94130160E086E00E94E000E5EBF0E019
:10195000E491F0E0EE0FFF1FEB55FF4F859194915E
:101960009093700380936F03E7E9F0E0E491E093D4
:1019700071038AE08093580385E593E090935703C1
:1019800080935603089510926103109260031092A1
:101990005F0310925E03C8CFCF93DF93CDB7DEB75E
:1019A0006D970FB6F894DEBF0FBECDBF789484B5A7
:1019B000826084BD84B5816084BD85B5826085BD4B
:1019C00085B5816085BD80916E00816080936E00D9
:1019D00010928100809181008260809381008091CB
:1019E000810081608093810080918000816080937C
:1019F00080008091B10084608093B1008091B0003C
:101A000081608093B00080917A00846080937A0036
:101A100080917A00826080937A0080917A00816060
:101A200080937A0080917A00806880937A00109287
:101A3000C10061E087E00E94130161E087E00E943D
:101A4000E00061E089E00E94130160E089E00E940B
:101A5000E00061E083E00E94130160E083E00E9407
:101A6000E00061E086E00E94130161E086E00E94F0
:101A7000E00061E085E00E94130160E085E00E94E3
:101A8000E00061E084E00E94130160E084E00E94D5
:101A9000E00061E0809158030E94130161E08091B1
:101AA00058030E94E0001FB7F8948091F80181115B
:101AB00027C0E9EBF0E08491EBE9F0E09491E82FA6
:101AC000F0E0EE0FFF1FE759FF4FA591B491EC91A5
:101AD000E92321F461E08AE00E94E00061E08AE00D
:101AE0000E9413018CB580618CBD8CB580648CBD67
:101AF00061E08DE00E94130161E08BE00E94130120
:101B00008091F8018F5F8093F8011FBF84E080937C
:101B1000590383E080935A030E949D0788E80E943E
:101B2000960783E00E9496070E940E0180E880934A
:101B30005B030E949D0780E90E94960780E80E944F
:101B400096070E940E010E949D0780E20E94960760
:101B50000E940E01EFE1F2E0A3E3B2E028E833E1F6
:101B600084E190E0219331938D939D9342E0E333A0
:101B7000F407C1F788EE93E09093200280931F0250
:101B80008CE494E0909322028093210280EA9FE00B
:101B9000909324028093230285E090E090930102C9
:101BA00080930002909303028093020210927203CA
:101BB00080918C0581FF18C060E080918E050E94A5
:101BC000130180919105882379F080918E058230F0
:101BD00009F454C1833009F053C181E043E050E07F
:101BE0006AE871E00E94C40180918C0582FF0AC0FE
:101BF00061E080918F050E94130161E080918F0563
:101C00000E94E00080918C0583FF0AC061E0809112
:101C100090050E94130161E0809190050E94E00010
:101C200080919105882331F08BE891E09093A20593
:101C30008093A10580E00E94E4010E941802E091D7
:101C4000C602F091C70282E08083E091C202F09167
:101C5000C3021082E091C402F091C50280E180834A
:101C60001092CE02E091CA02F091CB0286E080830E
:101C7000E091C802F091C902808180618083E09187
:101C8000C802F091C902808188608083E091C80217
:101C9000F091C902808180688083E091C802F09150
:101CA000C90280818F7D80838CE491E00E94CF0700
:101CB00089E491E00E94CF07CE0101967C01CC24FB
:101CC000C394D12C86EB92E00E948705892B09F4FE
:101CD000EAC086EB92E00E9465059C019093160293
:101CE00080931502E0910E02E11183C5FC01B197CA
:101CF000EE3BF10508F0CAC0E058F14F0C946F1E9E
:101D000015127312671286127A1299128D12AC1282
:101D1000A012BF12B3122E124D12C612D6121313F6
:101D2000E513EF132F131A1328133B133F134D130F
:101D30005413CA12E912DD12F412F012FF12FB1250
:101D4000420F0B13BC0F58136313460F460F460F79
:101D5000460FDB13460F460F6713761380138C1361
:101D60009613A213AC13460F460F460F2F133513CD
:101D7000460F0613460F460F460F460F460F460FF7
:101D8000460F460F460F460FB813BF13D713460F23
:101D9000460F460F460F460F460F9C0FA60FC60F65
:101DA000A10F460F460F460F460F460F460F6E1007
:101DB0005F108E107D10B4109F10460F460F460F17
:101DC000460FDA0F22101210F30FDE0F2D1029101C
:101DD00058104C10CE0FD20F460F460F460F460F2D
:101DE000460F460F460F460F460FF311E411460FFC
:101DF000460F460F460F460F460F460F460FC910B7
:101E0000CC10E510D910460F460F460F460F460F6F
:101E1000460F0E120A12460F460F460F460F460F88
:101E2000460F460F460FEC10F010F810F41010118A
:101E3000FF102D111C113D1139114C114811681161
:101E400057117411460F460F460F460F460F791172
:101E50007D11861182119E118D11AE11AA11BC1136
:101E6000B811D811C711460F460F460F460F460F3F
:101E7000460F460F460FFA11FF11031280E0AECE57
:101E80008FEFACCE8FE690E00E947C0880910E022E
:101E900081110C948E1710920A0210920B0210926C
:101EA0000C0210920D0280900A0290900B02A090FA
:101EB0000C02B0900D0281149104A104B104B1F0A0
:101EC0000E947E0186169706A806B90678F4EEE011
:101ED000F2E086E0DF011D928A95E9F710920A028E
:101EE00010920B0210920C0210920D020E945901E6
:101EF0006093A9027093AA028093AB029093AC0204
:101F0000B12C80912C01B81610F00C94A7170B2D52
:101F100010E0F801EA5DFE4F8081000F111F8F3F36
:101F200011F00C949E170E94A607F801E356FD4F8E
:101F300071836083B394E5CF80EF90E00E948F06B9
:101F4000A5CF82ED90E00E948F06A0CF90E080E0C8
:101F50000E945C09082F10E01093FA010093F90128
:101F600081E090E00E945C09102F0027800F912FE4
:101F7000911D0E947C088ACF82E080930E0280939C
:101F80000F02109208021092070280CF81E10E9496
:101F900044010E94B6060E948F0678CF84E08093A9
:101FA0000E0274CF0E949D0780E20E9496070E9455
:101FB0000E016CCF85E080930E0268CF46E050E0C2
:101FC00066E070E08EE092E00E94602046E050E023
:101FD0006AE070E08BE091E00E94602010920602BF
:101FE00010922C0153CF06E211E0D8012D918D0102
:101FF00086E090E02F3F71F0E1E1F1E090E080E0D9
:102000003191231303C0CF0181519140B1E0E631FA
:10201000FB07B1F70E941606ECE2F1E0E017F107CA
:1020200021F734CF87E080930E0280930F02109245
:102030002201109223011092240110922501109286
:10204000090224CF80912201909123010E948F06E2
:102050001DCF88E080930E0219CFE0919702F0E047
:10206000EA5DFE4FB080FFEF01E111E0BF1205C055
:1020700086E090E00E94160609CFD8018D918D016F
:10208000B81205C0CD01815191400E941606B1E001
:1020900006311B0791F7FACE89E080930E028093F8
:1020A0000F02109221011092200110920902EECE2F
:1020B00080912001909121010E948F06E7CE81E05E
:1020C00080930E0280930F0282E0809310021092A0
:1020D00008021092070210920902D8CE81E0809384
:1020E0000E0280930F0283E0809310021092080288
:1020F0001092070210920902C9CE81E080930E026D
:1021000080930F0282E0809310028093110210925C
:1021100008021092070210920902B8CE81E0809363
:102120000E0280930F0283E08093100280931102CD
:10213000109208021092070210920902A7CE81E0C5
:1021400080930E0280930F0282E0809310028093AE
:1021500011028093120280931302109208021092CF
:1021600007021092090292CE81E080930E028093C2
:102170000F0283E080931002809311028093120279
:102180008093130210920802109207021092090223
:102190007DCE0E9450077ACE60E084E00E94E0008D
:1021A0001092850210928602109287021092880285
:1021B0006DCE8AE080930E0280930F0210920A0186
:1021C000109209011092090261CE8091090190914B
:1021D0000A010E948F065ACE81E180930E0256CEEC
:1021E00089E00E94970252CE8BE080930E024ECE81
:1021F0008091050290E001960E94160647CE8CE081
:1022000080930E0280930F02E0910502F0E0EE0F42
:10221000FF1FE15EFD4F118210821092090236CE3F
:10222000E0910502F0E0EE0FFF1FE15EFD4F8081BF
:1022300091810E948F062ACE8DE080930E028093BA
:102240000F02E0910502F0E0EE0FFF1FED5CFD4F85
:10225000118210821092090219CEE0910502F0E07D
:10226000EE0FFF1FED5CFD4F808191810E948F0674
:102270000DCE8EE080930E0209CEE0910502F0E0D3
:10228000EB59FD4F608186EB92E00E94C905FECDBF
:102290008FE080930E02FACDE0910502F0E0E55A5E
:1022A000FD4F608186EB92E00E94C905EFCD80E191
:1022B00080930E0280930F02E0910502F0E0EE0F92
:1022C000FF1FE95BFD4F1182108210920902DECDE3
:1022D000E0910502F0E0EE0FFF1FE95BFD4F80810A
:1022E00091810E948F06D2CD8AE090E00E9416066E
:1022F000CDCD82E180930E02C9CD809104020E946F
:10230000E306C4CD83E180930E02C0CD8091040228
:1023100090E001960E941606B9CD84E180930E02EA
:1023200080930F02E0910402F0E0EE0FFF1FE050F7
:10233000FE4F1182108210920902A8CDE091040292
:10234000F0E0EE0FFF1FE050FE4F808191810E9470
:102350008F069CCD85E180930E0298CDE09104021A
:10236000F0E0E35EFD4F808190E00E9416068ECD86
:1023700086E180930E028ACDE0910402F0E0E55EF2
:10238000FD4F608186EB92E00E94C9057FCD87E119
:1023900080930E0280930F02E0910402F0E0EE0FB2
:1023A000FF1FE95EFD4F11821082109209026ECD6F
:1023B000E0910402F0E0EE0FFF1FE95EFD4F808127
:1023C00091810E948F0662CD88E180930E028093F6
:1023D0000F0289E1809310021092FF011092FE011A
:1023E0001092090253CD8091FE019091FF010E944D
:1023F0008F064CCD90E080E00E94160647CD8BE121
:1024000080930E0243CD8DE180930E028CE1809388
:102410000F023CCD8AE180930E0238CD6091FC0121
:1024200086EB92E00E94C90531CD61E080E10E9417
:10243000130160E080E10E94E00061E083E10E941E
:10244000130160E083E10E94E00061E08FE00E9400
:10245000130160E08FE00E94E00018CD0E947E0131
:10246000609375027093760280937702909378025E
:102470002091050130910601620F731F811D911D8E
:102480006093790270937A0280937B0290937C022E
:10249000D0927402C0927302F9CCE091FB01F0E09B
:1024A000EB5CFE4F60E080810E94E00010927502BC
:1024B00010927602109277021092780210927902AE
:1024C00010927A0210927B0210927C02DFCC8AE298
:1024D00080930E0280930F02109206011092050164
:1024E00010920902D3CC80910501909106010E94BF
:1024F0008F06CCCC8BE280930E0280930F02109259
:1025000019011092180110920902C0CC8091180193
:10251000909119010E948F06B9CC8CE280930E0233
:1025200080930F0210921701109216011092090267
:10253000ADCC80911601909117010E948F06A6CC18
:102540008DE280930E0280930F021092720210921D
:102550007102109209029ACC8091710290917202DC
:102560000E948F0693CC8EE280930E0280930F021E
:102570001092700210926F021092090287CC809123
:102580006F02909170020E948F0680CC8FE2809340
:102590000E027CCC80E380930E0280930F02109297
:1025A0001B0110921A011092090270CC80911A013D
:1025B00090911B010E948F0669CC81E380930E02EB
:1025C00080930F0210921D0110921C0110920902BB
:1025D0005DCC80911C0190911D010E948F0656CC0C
:1025E00082E380930E0252CC60911F0186EB92E051
:1025F0000E94C9054BCC83E380930E0247CC8091A7
:10260000FB0190E001960E94160640CC80EF90E01E
:102610000E947C083BCC10920802109207028FE1C6
:1026200080930E0233CC8EE180930E0288E2809379
:102630000F022CCC6091090170910A0190E080E0BA
:102640004AE00E94DC0789E491E00E94CF071ECC9B
:102650008EE180930E0285E280930F0217CC0E94D8
:10266000500789E280930E0211CC82E280930E0221
:10267000109204020BCC80E00E94FB0607CC609114
:1026800000027091010290E080E04AE00E94DC07C5
:1026900089E491E00E94CF07F9CB8EE180930E028E
:1026A00086E280930F02F2CB87E280930E02EECB9C
:1026B00081E10E9444010E94B6060E947C0889E2E2
:1026C00080930E02E3CB81E280930E02DFCB80E2A7
:1026D00080930E02809126018F3F21F081E080934C
:1026E0000602D4CB86E080930602D0CB8FE18093A4
:1026F0000E02E4E0F0E0F0930802E0930702C6CB9C
:1027000082E080930E0280930F0224E030E0309349
:10271000080220930702BACB8FE180930E0246E0B5
:1027200050E05093080240930702B0CB82E08093C0
:102730000E0280930F0286E090E09093080280934F
:102740000702A4CB8FE180930E02A8E0B0E0B09323
:102750000802A09307029ACB82E080930E02809336
:102760000F02E8E0F0E0F0930802E09307028ECB5E
:102770008EE180930E0283E280930F0287CB6091FB
:10278000220170912301809124019091250128EE6E
:1027900033E040E050E00E942E1ECA01B9014AE039
:1027A0000E94DC0789E491E00E94CF076FCB84E2AE
:1027B00080930E026BCB24E130E040E050E060EA11
:1027C0007FE089E00E94C30261CB24E130E040E079
:1027D00050E068EE73E089E00E94C30257CB24E129
:1027E00030E040E050E06CE474E089E00E94C30215
:1027F0004DCBE150E33308F05EC0F0E0EE5FFB4EFE
:102800000C946F1E35144B1464147D143C178C14F7
:10281000B114CE14E514F81427152B1541154B15DA
:102820005F156F150B1579157F1583158D15A71578
:10283000BF15C9158B17F015DC15E915E515DB1665
:10284000E016FD160C17221725173B175D176A17A0
:1028500077177B175B1448165B166E168116941655
:10286000A716AE16C116D416D71680910902082EE7
:1028700002C0220F331F0A94E2F7409107025091E1
:102880000802240F351F3093080220930702885F47
:102890008093090210C0682F80910702909108026E
:1028A0000E94CF1D8091070290910802019690939B
:1028B000080280930702EEE0F2E081818193B2E0AA
:1028C000E431FB07D1F7E2CA009107021091080238
:1028D000C8010E945C09282F30E030931602209333
:1028E0001502682F86EB92E00E94C9050F5F1F4F0B
:1028F0001093080200930702DECF069731F40E947E
:10290000A607CB010E948F06D6CF205F3E4FD9018C
:102910008C910E944401F6CF80910602482F50E02E
:10292000FA01EA5DFE4F9FEF2630310561F0211577
:10293000310529F410828F5F80930602BCCF205F9F
:102940003E4FD9019C91908390912C019F5F909371
:102950002C01882381F3465F5E4F99E0FA01908352
:10296000EACF80910902082E02C0220F331F0A9479
:10297000E2F740912201509123016091240170916E
:102980002501420F531F611D711D40932201509379
:102990002301609324017093250179CF069799F064
:1029A000205F3E4FD9012C9190919702E6E2F1E031
:1029B00080E03191321301C0982F8F5F8630C9F7C4
:1029C0009093970278CF2FEFEFCF80910902082ED6
:1029D00002C0220F331F0A94E2F740912001509168
:1029E0002101240F351F30932101209320014FCF67
:1029F00080910902082E02C0220F331F0A94E2F7C9
:102A00004091090150910A01240F351F30930A01AA
:102A1000209309013CCF81508093050290E0880FFC
:102A2000991FFC01ED5CFD4F20813181815E9D4F3E
:102A3000FC016081718150E040E02F3F320719F4C2
:102A400020E030E0A90189E00E94C30234CF815028
:102A50008093050230CFE0910502F0E080910902F9
:102A6000EE0FFF1FE15EFD4F082E02C0220F331F45
:102A70000A94E2F740815181240F351F318320836E
:102A800006CFE0910502F0E080910902EE0FFF1FF2
:102A9000ED5CFD4FE9CFE0910502F0E0EB59FD4F11
:102AA0008083E5E6F2E080E09191911181E02FE6EC
:102AB00032E02E173F07C1F780938902FCCEE091E8
:102AC0000502F0E0A6E2B1E080E0E55AFD4F9D91FD
:102AD000911101C080838F5F8630C9F7ECCEE09101
:102AE0000502F0E080910902EE0FFF1FE95BFD4F48
:102AF000BBCF8150809304020E94FB06DCCE815044
:102B000080930402D8CEE0910402F0E080910902A3
:102B1000EE0FFF1FE050FE4FA7CFE0910402F0E060
:102B2000E35EFD4F808310928A0280911D028150E6
:102B3000843018F481E080938A0280911E028150D3
:102B4000843008F0B8CE81E080938A02B4CE9FEF43
:102B50002630310521F0205F3E4FD9019C91E09154
:102B60000402F0E0A6E2B1E080E0E55EFD4F2D91C9
:102B7000291301C080838F5F8630C9F79CCEE09116
:102B80000402F0E080910902EE0FFF1FE95EFD4FA5
:102B90006BCF80910902082E02C0220F331F0A94C6
:102BA000E2F74091FE015091FF01240F351F309351
:102BB000FF012093FE016BCE2A5F3E4FF901608139
:102BC00086EB92E00E94C90576CE81508093FD018C
:102BD00072CEE091FD01F0E0E95FFE4F80836BCEA5
:102BE000182F10951093FC011F3F29F461E087E036
:102BF0000E94E00060CE111102C060E0F8CF61E0F9
:102C000087E00E941301E4E8F0E08491833021F131
:102C100038F48130B9F08230D1F017FDE7CFEDCF35
:102C2000873031F1883061F18430B9F780918000CC
:102C3000806280938000812F90E090938B0080933E
:102C40008A0039CE84B5806884BD17BD34CE84B582
:102C5000806284BD18BD2FCE8091800080688093F3
:102C60008000812F90E0909389008093880023CE8C
:102C70008091B00080688093B0001093B3001BCEA9
:102C80008091B00080628093B0001093B40013CEA6
:102C900080910902082E02C0220F331F0A94E2F726
:102CA0004091050150910601240F351F3093060114
:102CB00020930501ECCD80910902082E02C0220F5D
:102CC000331F0A94E2F74091180150911901240F23
:102CD000351F3093190120931801D9CD8091090235
:102CE000082E02C0220F331F0A94E2F7409116010A
:102CF00050911701240F351F3093170120931601AF
:102D0000C6CD80910902082E02C0220F331F0A94FB
:102D1000E2F74091710250917202240F351F3093F7
:102D2000720220937102B3CD80910902082E02C075
:102D3000220F331F0A94E2F740916F025091700204
:102D4000240F351F3093700220936F02A0CD81E0D5
:102D5000232B09F480E080931E01ADCD8091090200
:102D6000082E02C0220F331F0A94E2F740911A0185
:102D700050911B01240F351F30931B0120931A0122
:102D800086CD80910902082E02C0220F331F0A94BB
:102D9000E2F740911C0150911D01240F351F309323
:102DA0001D0120931C0173CD80931F0184CD8150A0
:102DB0008093FB0180CD9093FA018093F9017BCD44
:102DC000A0900702B0900802C5010E945C09082F7C
:102DD00010E01093FA010093F901C50101960E94D9
:102DE0005C09102F00271093FA010093F901800F5E
:102DF000912F911D0E947C085ECDE0910602E63085
:102E000021F40E94A607CB01F5CFF0E0E05FFE4F72
:102E100080810E944401EECF205331093093160285
:102E2000209315022130310509F045CD82E591E06E
:102E30000E94CF0789E491E00E94CF078FEF809333
:102E4000260139CD8091040257CE3090F901212C12
:102E50003092FA012092F901220D331DA8EEB3E061
:102E60000E941F1E6093220170932301809324010E
:102E70009093250120CD805380939C0260E08111C6
:102E800061E085E00E94E0000E945901009122016A
:102E9000109123012091240130912501DC01CB0107
:102EA000800F911FA21FB31F8093980290939902E5
:102EB000A0939A02B0939B02FECCF091F901FB8F94
:102EC0001A8E4A8D5B8D240F351F30930A01209393
:102ED0000901F1CC5091F9015D8F1C8E8C8D9D8D77
:102EE000280F391F3093010220930002E4CC019790
:102EF00009F07CCE82CE9091F901998F188EA88D21
:102F0000B98DB093FA01A093F9012A0F3B1F3093BA
:102F1000FF012093FE010E942707CDCC0E947E0175
:102F200066507F4F8F4F9F4F60930A0270930B0242
:102F300080930C0290930D020C94530F0E94440155
:102F4000F801E356FD4F918380830C949A0F809192
:102F50009C02813009F02CC14091A9025091AA0233
:102F60006091AB027091AC028091980290919902AD
:102F7000A0919A02B0919B0284179507A607B70704
:102F8000F0F40E9441088091980290919902A091DA
:102F90009A02B0919B0240912201509123016091CD
:102FA000240170912501840F951FA61FB71F8093E0
:102FB000980290939902A0939A02B0939B028091F9
:102FC0008A024DE1A42E42E0B42E10E000E081110F
:102FD00017C180918902882349F135E6A32E32E09A
:102FE000B32E01E010E0D5014D915D014423C9F0FD
:102FF000F801E65AFD4F808190E0880F991FFC018F
:10300000E356FD4F2081318185579D4FFC01808122
:103010009181423009F499C108F059C1413009F455
:1030200074C10F5F1F4F0B301105E9F61091730348
:10303000113009F4AEC308F4C1C1123009F40BC455
:103040000E947E014B015C018092A9029092AA022B
:10305000A092AB02B092AC02809181059091820562
:10306000A0918305B0918405892B8A2B8B2BE9F4E1
:103070008091850290918602A0918702B09188028A
:103080000097A105B10589F088169906AA06BB0626
:1030900060F060E084E00E94E000109285021092EF
:1030A0008602109287021092880280917D02909190
:1030B0007E02A0917F02B09180020097A105B10528
:1030C00041F088169906AA06BB0618F080E00E9417
:1030D000E3068091810290918202A0918302B091D7
:1030E00084020097A105B10541F088169906AA0649
:1030F000BB0618F081E00E94E30680907902909070
:103100007A02A0907B02B0907C0281149104A10409
:10311000B104F1F10E947E01409075025090760258
:103120006090770270907802461657066806790616
:1031300008F06CC480911F01833009F43FC408F08B
:10314000F6C3813009F40EC4823009F424C480919E
:103150001E01882369F020911C0130911D0150E06F
:1031600040E060911A0170911B018FE00E94C30240
:103170008091180190911901480E591E611C711C13
:1031800040927502509276026092770270927802B5
:1031900090912C01ADE9B2E0EBE8F2E080E0981705
:1031A00009F47AC42D913D91219331938F5FF7CF2C
:1031B000823009F004CF8091970290E0880F991F28
:1031C000FC01E356FD4F85579D4F20813181FC0165
:1031D00080819181A901481B590BCA0157FF03C087
:1031E0009195819591092091200130912101281715
:1031F000390708F0E4CE0E944108E1CE01E010E07A
:10320000D5012D915D012223B1F0F801E55EFD4F5E
:10321000808190E0880F991FFC01E356FD4F4081AB
:10322000518185579D4FFC0180819181223039F178
:1032300030F42130B1F00130110501F7CACE23304E
:1032400079F12430C1F7F801EE0FFF1FE95EFD4F61
:103250002081318142175307ACF5821793075CF345
:103260001BC0F801EE0FFF1FE95EFD4F2081318189
:103270004217530704F382179307ECF60DC0F801C9
:10328000EE0FFF1FE95EFD4F2081318124173507C6
:1032900094F2281739077CF6802F0E94FB06CBCFCB
:1032A000F801EE0FFF1FE95EFD4F208131814217CB
:1032B00053070CF7821793070CF4BDCF802F0E94A1
:1032C000E306B9CF821793070CF0B5CFF7CF4330A1
:1032D00009F44DC0443009F0A4CEA801440F551F95
:1032E00042505109FA01E95BFD4F60817181261757
:1032F00037070CF05EC0861797070CF492CE415E3C
:103300005D4FFA016081718148C0F801EE0FFF1F27
:103310003297DF01A95BBD4F4D915C9124173507B2
:103320000CF47FCE841795070CF07BCEDF01AD5CEB
:10333000BD4F2D913C9150E040E0E15EFD4F60813A
:10334000718189E00E94C3026CCEF801EE0FFF1F6D
:103350003297DF01A95BBD4F4D915C914217530736
:103360000CF45FCE481759070CF05BCEDFCFA801F5
:10337000440F551F42505109FA01E95BFD4F60812E
:103380007181261737076CF0861797070CF049CE26
:10339000415E5D4FDA016D917C9120E030E0A90142
:1033A000D0CF861797070CF43CCE89E00E94970295
:1033B00038CE861797070CF034CEF7CF8091910561
:1033C00081111FC080918D050E94B70021E0892BDB
:1033D00009F420E020937E0390917E038091930571
:1033E000981708F0D6C00E94590160937603709335
:1033F0007703809378039093790380917E03809381
:10340000930580917A0390917B03A0917C03B09106
:103410007D03892B8A2B8B2B09F459C0809176036D
:1034200090917703A0917803B0917903892B8A2B2F
:103430008B2B09F44CC080907A0390907B03A09072
:103440007C03B0907D0340907603509077036090AA
:103450007803709079030E9459012091B105309151
:10346000B205620F731F811D911D609381057093DA
:103470008205809383059093840580919F059091A8
:10348000A0058330910599F0841895082091AD0529
:103490003091AE058216930608F0B6C0019709F088
:1034A00088C083E090E09093A00580939F051092E0
:1034B000760310927703109278031092790310929A
:1034C0007A0310927B0310927C0310927D0380910B
:1034D000810590918205A0918305B0918405892B87
:1034E0008A2B8B2B01F10E945901009181051091CB
:1034F0008205209183053091840506171707280758
:10350000390788F480917E03882369F080919F05B4
:103510009091A0058130910509F48BC0029709F4C0
:103520000BC10E94180280919B0590919C05A0916F
:103530009D05B0919E05892B8A2B8B2B09F480CD9C
:103540000E94590100919B0510919C0520919D05B9
:1035500030919E05061717072807390708F070CD28
:1035600010929B0510929C0510929D0510929E054D
:1035700080917303882309F405C12FEF3FEFA90160
:1035800020939B0530939C0540939D0550939E0589
:1035900057CD90917E03891708F02FCF0E945901D3
:1035A00060937A0370937B0380937C0390937D03F5
:1035B00024CF81E02091AB053091AC052815390569
:1035C00008F080E022E030E03093A00520939F05D2
:1035D0002091960530919705A9014F5F5F4F509359
:1035E00097054093960590E002C0880F991F2A9591
:1035F000E2F72091940530919505820F931F9093E7
:1036000095058093940553CF2091A5053091A6058B
:103610008216930608F04BCF029709F442CFD0925E
:10362000A005C0929F058091940590919505019603
:10363000E6CFE0918A05F0918B05309761F080919B
:1036400094059091950520917403222319F0281771
:10365000190609F4099580919405909195051B8AA6
:103660001A8A1D8A1C8A1F8A1E8A4AE0B7010E9494
:103670009D1DF70101900020E9F73197AF014E1928
:103680005F09B701CE0142960E94BC081A821982D6
:103690001C821B821E821D8242E150E060E671E0C6
:1036A000C7010E94BC08AA88BB88A114B104B9F163
:1036B0000E891F8901151105A9F08D819E81080FC2
:1036C000191FB801C7010E949408882341F129817C
:1036D0003A818D819E81B501820F931F0E946720E0
:1036E0001E830D834D815E8169817A8186EB92E034
:1036F0000E94290589E491E00E94CF0789819A817F
:10370000009711F00E94111F8A899B89009711F080
:103710000E94111F809194058093850502CF8981B5
:103720009A81009711F00E94111F1A8219821E823D
:103730001D821C821B82D6CF8091B30590E001963A
:1037400020919605309197052817390709F0E9CEA1
:103750008091940590919505969587959093950500
:1037600080939405E0918805F0918905309709F0E0
:103770000995809194059091950590938705809384
:103780008605CFCE8091990590919A050E9464029A
:1037900057CC8091810590918205A0918305B091CD
:1037A0008405892B8A2B8B2B09F441C00E94590177
:1037B0008090810590908205A0908305B09084054B
:1037C00086169706A806B90608F03ACC60919205CD
:1037D00061276093920580918D050E94E0008091A1
:1037E0009205409181055091820560918305709109
:1037F00084058823F9F080919405909195050197AF
:1038000090939505809394052091AF053091B00574
:10381000420F531F611D711D409381055093820516
:103820006093830570938405892B09F009CC0E946D
:10383000180206CC8091A3059091A405480F591F4A
:10384000611D711D4093810550938205609383052E
:1038500070938405F5CB8091810590918205A091AC
:103860008305B0918405892B8A2B8B2B01F30E9451
:1038700059010091810510918205209183053091B5
:103880008405061717072807390708F0D9CB609178
:10389000920581E068276093920580918D050E94D2
:1038A000E0008091920540918105509182056091E0
:1038B000830570918405882301F18091960590918C
:1038C0009705019690939705809396052091AF05F3
:1038D0003091B005420F531F611D711D409381054A
:1038E0005093820560938305709384052091980519
:1038F0002817190608F0A4CB9ACFC60100909605A8
:1039000002C0880F991F0A94E2F720919405309124
:10391000950582239323892B29F08091A905909105
:10392000AA058CCF8091A7059091A80587CF8430F8
:1039300009F459C0853009F00ACC80917302909146
:10394000740220917102309172028217930708F479
:10395000FECB20916F02309170022817390708F4CE
:10396000F6CB3EC080917302909174022091710257
:10397000309172028217930708F4E9CB20916F020D
:10398000309170022817390708F4E1CB61E080E13B
:103990000E94E000DCCB8091730290917402209130
:1039A0007102309172028217930780F320916F02A7
:1039B000309170022817390748F3C9CB8091730200
:1039C00090917402209171023091720282179307D4
:1039D00038F020916F023091700228173907B0F645
:1039E00061E083E1D5CF80917302909174022091C0
:1039F0007102309172028217930740F220916F0298
:103A0000309170022817390708F2EACF0E947E0130
:103A100086169706A806B90608F0BACB60E080E1E2
:103A20000E94E00080911F01833020F060E083E17C
:103A30000E94E0008091730290917402019690932D
:103A40007402809373022091160130911701281798
:103A5000390788F41092750210927602109277025C
:103A6000109278021092790210927A0210927B02E0
:103A700010927C028DCB8091180190911901880ED3
:103A8000991EA11CB11C8092790290927A02A09298
:103A90007B02B0927C027CCB80E090E0892B11F419
:103AA0000C94620E0E949305882311F40C945F0E0F
:103AB0000E9400000C945F0E809165039091660354
:103AC0000E94111F809162039091630397FD03C0D0
:103AD00060E00E941301809191058823D1F08091CC
:103AE0008C0580FF09C080918D058230F1F0833014
:103AF000F1F08FEF0E94B10180918C0581FF09C028
:103B000080918E058230A9F08330A9F08FEF0E945A
:103B1000B10180915303909154038257934021F453
:103B20001092540310925303089580E0E3CF81E094
:103B3000E1CF80E0ECCF81E0EACFBB27FB01552746
:103B4000AA27880F991FAA1FA41710F0A41B8395FA
:103B50005051B9F7A05DAA3308F0A95DA193009771
:103B600079F7B111B1931192CB010C94B71DDC011F
:103B7000FC01672F71917723E1F7329704C07C91A4
:103B80006D9370836291AE17BF07C8F30895F999DA
:103B9000FECF92BD81BDF89A992780B50895262F52
:103BA000F999FECF1FBA92BD81BD20BD0FB6F89422
:103BB000FA9AF99A0FBE019608950E941F1EA59FBA
:103BC000900DB49F900DA49F800D911D1124089518
:103BD0002F923F924F925F926F927F928F929F921D
:103BE000AF92BF92CF92DF92EF92FF920F931F930B
:103BF000CF93DF93CDB7DEB7CA1BDB0B0FB6F894BC
:103C0000DEBF0FBECDBF09942A88398848885F84FB
:103C10006E847D848C849B84AA84B984C884DF806C
:103C2000EE80FD800C811B81AA81B981CE0FD11D50
:103C30000FB6F894DEBF0FBECDBFED010895A29F71
:103C4000B001B39FC001A39F700D811D1124911D70
:103C5000B29F700D811D1124911D0895A1E21A2EAD
:103C6000AA1BBB1BFD010DC0AA1FBB1FEE1FFF1F20
:103C7000A217B307E407F50720F0A21BB30BE40B70
:103C8000F50B661F771F881F991F1A9469F76095B7
:103C90007095809590959B01AC01BD01CF01089571
:103CA000052E97FB1EF400940E94671E57FD07D057
:103CB0000E942E1E07FC03D04EF40C94671E5095F4
:103CC0004095309521953F4F4F4F5F4F0895909508
:103CD0008095709561957F4F8F4F9F4F0895EE0FA0
:103CE000FF1F0590F491E02D09940F931F93CF933C
:103CF000DF938230910510F482E090E0E091B60508
:103D0000F091B70530E020E0B0E0A0E0309799F402
:103D10002115310509F44AC0281B390B243031051F
:103D2000D8F58A819B816115710589F1FB01938327
:103D30008283FE0111C040815181028113814817A5
:103D40005907E0F04817590799F4109761F0129657
:103D50000C93129713961C933296CF01DF91CF915B
:103D60001F910F9108950093B6051093B705F4CFF6
:103D70002115310551F04217530738F0A901DB0135
:103D80009A01BD01DF01F801C1CFEF01F9CF909396
:103D9000B7058093B605CDCFFE01E20FF31F8193E7
:103DA00091932250310939832883D7CF2091B405CC
:103DB0003091B505232B41F420912F013091300132
:103DC0003093B5052093B40520912D0130912E013B
:103DD0002115310541F42DB73EB740913101509185
:103DE0003201241B350BE091B405F091B505E217C3
:103DF000F307A0F42E1B3F0B2817390778F0AC010E
:103E00004E5F5F4F2417350748F04E0F5F1F5093EA
:103E1000B5054093B405819391939FCFF0E0E0E026
:103E20009CCFCF93DF930097E9F0FC013297138288
:103E30001282A091B605B091B705ED0130E020E007
:103E40001097A1F420813181820F931F2091B40536
:103E50003091B5052817390709F061C0F093B50511
:103E6000E093B405DF91CF910895EA01CE17DF0703
:103E7000E8F54A815B819E0141155105B1F7E901E1
:103E8000FB83EA8349915991C40FD51FEC17FD07B5
:103E900061F4808191810296840F951FE9019983D5
:103EA0008883828193819B838A83F0E0E0E012968D
:103EB0008D919C9113970097B9F52D913C91119795
:103EC000CD010296820F931F2091B4053091B50564
:103ED0002817390739F6309751F51092B705109227
:103EE000B605B093B505A093B405BCCFD383C28308
:103EF00040815181840F951FC817D90761F44E5F27
:103F00005F4F88819981480F591F518340838A816F
:103F10009B81938382832115310509F0B0CFF09303
:103F2000B705E093B6059ECFFD01DC01C0CF13823B
:103F30001282D7CFB0E0A0E0E0EAFFE10C94EA1DE6
:103F40008C01009751F4CB010E94751E8C01C801B1
:103F5000CDB7DEB7E0E10C94061EFC01E60FF71FBB
:103F60009C0122503109E217F30708F49DC0D901E2
:103F7000CD91DC911197C617D70798F0C530D105C0
:103F800030F3CE0104978617970708F3C61BD70BAB
:103F90002297C193D1936D937C93CF010E94111FFF
:103FA000D6CF5B01AC1ABD0A4C018C0E9D1EA091B0
:103FB000B605B091B705512C412CF12CE12C10978E
:103FC00031F58091B4059091B5058815990509F0F2
:103FD0005CC04616570608F058C080912D0190919C
:103FE0002E01009741F48DB79EB740913101509159
:103FF0003201841B950BE817F90708F055C0F093C0
:10400000B505E093B405F90171836083A0CF8D916C
:104010009C91119712966C90129713967C9013971F
:10402000A815B90559F56C0142E0C40ED11CCA149B
:10403000DB0420F1AC014A195B09DA0112961597ED
:1040400080F06282738251834083D9016D937C93A7
:10405000E114F10471F0D7011396FC93EE931297DB
:1040600076CF22968C0F9D1FF90191838083F301F7
:10407000EFCFF093B705E093B60569CF4816590620
:1040800008F42C017D01D3019ACFCB010E94751E4B
:104090007C01009749F0AE01B8010E945720C80189
:1040A0000E94111F870153CF10E000E050CFFB01A9
:1040B000DC0102C001900D9241505040D8F70895A4
:1040C000DC0101C06D9341505040E0F70895FB01C1
:1040D000DC0101900D920020E1F7089510E0C3E6A5
:1040E000D0E004C0FE010E946F1E2196C436D107A5
:0640F000C9F7F894FFCFB0
:1040F600FFC301C301010000010500090A0A0A0AFB
:104106000A0E100F121332001400A00F0500010151
:104116000500102700000E1300000000020000B882
:104126000580000313101300000000C90529055679
:10413600051B068705650579050D0A0052454144AC
:1041460059004B6E6F622044657465637465640044
:10415600547269676765722072656365697665641E
:044166003A200000FB
:00000001FF
