:100000000C9478000C94E2170C94BB170C94A0008D
:100010000C94A0000C94A0000C94A0000C9409185F
:100020000C94A0000C94A0000C94A0000C94A000D0
:100030000C94A0000C94A0000C94A0000C94A000C0
:100040000C9471170C94A0000C948B180C946518E8
:100050000C94A0000C94A0000C94A0000C94A000A0
:100060000C94BD180C94A00007634236B79BD8A728
:100070001A39685618AEBAAB558C1D3CB7CC5763CD
:10008000BD6DEDFD753EF6177231BF000000803F7B
:100090000200000000240027002A000000000023C6
:1000A00000260029000000000800020100000304EF
:1000B00007000000000000000001020408102040BA
:1000C0008001020408102001020408102000000032
:1000D00000250028002B0004040404040404040286
:1000E000020202020203030303030300D819B93416
:1000F00011241FBECFEFD8E0DEBFCDBF25E0A6E5BF
:10010000B2E001C01D92AC33B207E1F712E0A0E00B
:10011000B1E0ECE6F3E702C005900D92A635B10719
:10012000D9F710E0C7E7D0E004C02197FE010E9494
:100130007938C637D107C9F70E943F1C0C94A939FA
:100140000C940000CF92DF92EF92FF92CF93DF9357
:10015000EC016A017B01E889F98982E08083C1149E
:1001600081EED806E104F104A1F060E079E08DE3CE
:1001700090E0A70196010E943838215031094109C9
:1001800051095695479537952795211580E13807F0
:1001900098F0E889F989108260E874E88EE190E0CF
:1001A000A70196010E9438382150310941095109AF
:1001B0005695479537952795EC85FD853083EE85D7
:1001C000FF852083188EEC89FD8986E08083EA898B
:1001D000FB89808180618083EA89FB8980818860D6
:1001E0008083EA89FB89808180688083EA89FB8932
:1001F00080818F7D8083DF91CF91FF90EF90DF90A2
:10020000CF900895E3EDF4E014A613A616A615A664
:1002100010AA17A612AA11AA14AA13AA16AA15AAF6
:1002200010AE17AA14AE15AE16AE17AE12A612AEC9
:1002300013AE109217051092130510921405109228
:1002400015051092160511AE0895E3EDF4E086A1B0
:1002500097A1B0E0A0E021AD04C0880F991FAA1FAC
:10026000BB1F2A95D2F7E3E1F5E04081518162811D
:100270007381840F951FA61FB71F80839183A2836C
:10028000B383682F792F8A2F9B2F0895833081F0B5
:1002900028F4813099F08230A9F008958730A9F0D0
:1002A0008830C9F08430B1F4809180008F7D03C024
:1002B000809180008F7780938000089584B58F7738
:1002C00084BD089584B58F7DFBCF8091B0008F777A
:1002D0008093B00008958091B0008F7DF9CFCF93C7
:1002E000DF93282F30E0F901EB55FF4F8491F9019E
:1002F000E754FF4FD491F901E952FF4FC491CC2349
:10030000A1F081110E944601EC2FF0E0EE0FFF1FDB
:10031000E556FF4FA591B491EC91ED2381E090E07B
:1003200009F480E0DF91CF91089580E090E0FACF6A
:100330001F93CF93DF93282F30E0F901EB55FF4F48
:100340008491F901E754FF4FD491F901E952FF4F2D
:10035000C491CC23A9F0162F81110E944601EC2FE5
:10036000F0E0EE0FFF1FE353FF4FA591B4918FB75D
:10037000F894EC91111108C0D095DE23DC938FBF67
:10038000DF91CF911F910895DE2BF8CFCF93DF93AC
:1003900090E0FC01E754FF4F249189529F4FFC01EC
:1003A00084918823D1F090E0880F991FFC01EF56CB
:1003B000FF4FA591B491FC01E353FF4FC591D49138
:1003C00061110EC09FB7F8948C91E22FE0958E23B7
:1003D0008C932881E223E8839FBFDF91CF9108951A
:1003E0008FB7F894EC91E22BEC938FBFF6CF1F936D
:1003F000CF93DF93182FEB0161E00E94C601209795
:1004000039F460E0812FDF91CF911F910C94980116
:10041000CF3FD10511F461E0F5CFE12FF0E0EB55CE
:10042000FF4FE491E33031F140F4E130B1F0E230DC
:10043000E1F0C038D1057CF7E4CFE73029F1E830AE
:1004400059F1E430B1F780918000806280938000A0
:10045000D0938B00C0938A0004C084B5806884BDAB
:10046000C7BDDF91CF911F91089584B5806284BD8F
:10047000C8BDF7CF80918000806880938000D093C2
:100480008900C0938800EDCF8091B0008068809390
:10049000B000C093B300E5CF8091B000806280933C
:1004A000B000C093B400DDCF8E3008F08E5087705E
:1004B000806480937C0080917A00806480937A00CD
:1004C00080917A0086FDFCCF809178009091790030
:1004D00008953FB7F8948091EC029091ED02A091BD
:1004E000EE02B091EF0226B5A89B05C02F3F19F090
:1004F0000196A11DB11D3FBFBA2FA92F982F8827A4
:10050000BC01CD01620F711D811D911D42E0660F7E
:10051000771F881F991F4A95D1F708952FB7F89430
:100520006091E8027091E9028091EA029091EB02F9
:100530002FBF089581E08093560208950E948E0295
:100540006C507E4F8F4F9F4F6093DE027093DF029F
:100550008093E0029093E1028091E2028F5F8093AA
:10056000E2020895CF93DF93CDB7DEB7C159D10929
:100570000FB6F894DEBF0FBECDBF382F81E9E0EB98
:10058000F1E0DE01119601900D928A95E1F7DE010E
:10059000AD56BF4FE1E98E918C3511F0E150D9F79E
:1005A000EF5F80E98E1B41E050E04C0F5D1F4E0F66
:1005B000511DFA01232FA32FB92F9A2F921B9817A1
:1005C00018F491919D93F9CFCF56DF4F0FB6F89461
:1005D000DEBF0FBECDBFDF91CF910895CF93DF93E4
:1005E000CDB7DEB72C970FB6F894DEBF0FBECDBFE8
:1005F0002CE0E1E4F2E0DE01119601900D922A95E3
:10060000E1F7FE0131969C01255F3F4F4191DC01EE
:100610004D93CD01A217B307C9F78BE02C960FB607
:10062000F894DEBF0FBECDBFDF91CF910895CF9379
:10063000DF93CDB7DEB729970FB6F894DEBF0FBEB4
:10064000CDBF29E0EDE4F2E0DE01119601900D92BC
:100650002A95E1F7FE0131969C01285F3F4F4191B9
:10066000DC014D93CD01A217B307C9F788E02996A5
:100670000FB6F894DEBF0FBECDBFDF91CF910895C6
:10068000CF92DF92EF92FF9285E10E945402BC016B
:10069000990F880B990B0E94D83420E030EC4FE77B
:1006A00054E40E94923620E030E048EC52E40E948C
:1006B00037356B017C0120E030E0A9010E949B37B7
:1006C00020E030E040E05FE387FD10C0C701B601E5
:1006D0000E9426360E943E370E94D8340E94453739
:1006E000862FFF90EF90DF90CF900895C701B6015D
:1006F0000E942536EFCF08959091000189130BC019
:10070000E0E9F0E0E4919FEF90930001E13049F0DF
:1007100028F0E23061F060E00C94980110926E00D5
:10072000FACF90916F009D7F90936F00F4CF9091DE
:1007300070009D7F9093700091E09093B000909135
:10074000B100987F94609093B1001092B300E3CF12
:100750004F925F926F927F928F929F92AF92BF92D1
:10076000CF92DF92EF92FF920F931F93CF93DF937D
:1007700000D000D01F92CDB7DEB78B0129013A011E
:10078000909100018917C9F09F3F09F47EC00F9036
:100790000F900F900F900F90DF91CF911F910F91BD
:1007A000FF90EF90DF90CF90BF90AF909F908F9091
:1007B0007F906F905F904F900895E0E9F0E0949102
:1007C0009D8397FDE4CF61E00E94C6018D8188235F
:1007D00021F09D81923009F04AC14801B12CA12C31
:1007E00060E072E18AE790E0A50198010E945A3822
:1007F00029833A834B835C8369017A0181E0C81ABB
:10080000D108E108F1089FEFC916D104E104F10411
:1008100009F00CF401C160E472E48FE090E0A501FE
:1008200098010E945A3869017A0181E0C81AD108FA
:10083000E108F1089D81923009F0A2C08FEFC8163F
:10084000D104E104F10409F00CF4E6C160E970EDB3
:1008500083E090E0A50198010E945A3869017A016D
:1008600091E0C91AD108E108F1088FEFC816D10448
:10087000E104F10411F00CF07FC183E09091B1002C
:10088000987F892B8093B100CFC080930001E0E96D
:10089000F0E094919D839F3F09F479CF913041F12D
:1008A00050F0923009F446C09D8197FD70CF61E011
:1008B0000E94C6018ECF14BC15BC94B5926094BD45
:1008C00095B5916095BD282F30E0F901E952FF4FB1
:1008D000E491F0E0EE0FFF1FE353FF4F4591549179
:1008E000F901E754FF4FE491E093CA021D826BCFF8
:1008F00010928000109281009091810098609093F6
:10090000810090918100916090938100282F30E0C8
:10091000F901E952FF4FE491F0E0EE0FFF1FE353BE
:10092000FF4F45915491F901E754FF4FE491E09353
:10093000C90249CF1092B0001092B1009091B0005E
:1009400092609093B0009091B10091609093B1004B
:10095000282F30E0F901E952FF4FE491F0E0EE0F6B
:10096000FF1FE353FF4F459154915093D40240939E
:10097000D302F901E754FF4FE491E093D50223CF6E
:100980009FEFC916D104E104F10409F00CF46DC025
:1009900068E478EE81E090E0A50198010E945A3861
:1009A00069017A0181E0C81AD108E108F1089D8146
:1009B000992309F4FAC08FEFC816D104E104F104B9
:1009C00011F00CF0FBC0EFC064E274EF80E090E047
:1009D000A50194010E945A3869017A0181E0C81A80
:1009E000D108E108F10885E09FEFC916D104E104C0
:1009F000F10409F008F442CF62E17AE780E090E088
:100A0000A50194010E945A3869017A0181E0C81A4F
:100A1000D108E108F108E5C081E09D8191112ECF58
:100A200095B5987F892B85BD2FEF3FEFA901411424
:100A300051046104710409F043C09D81913009F4AF
:100A40005EC0923009F46DC09111A1CEC7BC209355
:100A5000CF023093D0024093D1025093D2028091C2
:100A60006E00826080936E0092CE82E0D6CFB12C71
:100A7000A12C60E072E18AE790E0A50198010E9454
:100A80005A3869017A0181E0C81AD108E108F108F1
:100A9000C114D10491E0E906F10404F591E08D81DF
:100AA000813011F680918100887F892B80938100AD
:100AB0002FEF3FEFA9014114510461047104F9F0D3
:100AC000D801AA0FBB1FA30192010E940B3628EE8A
:100AD00033E040E050E00E943838AFCF68E478EE71
:100AE00081E090E0A50198010E945A3869017A01DD
:100AF00081E0C81AD108E108F10893E0D0CFD09284
:100B00008900C09288002093CB023093CC0240939E
:100B1000CD025093CE0280916F00826080936F006F
:100B200036CEC092B3002093D6023093D7024093C2
:100B3000D8025093D9028091700082608093700037
:100B400026CE84E09FEFC916D104E104F10409F038
:100B500008F466CFC980DA80EB80FC808AE0F594E7
:100B6000E794D794C7948A95D1F781E0C81AD10841
:100B7000E108F10885E054CF68E478EE81E090E088
:100B8000A50198010E945A3869017A0181E0C81ACA
:100B9000D108E108F1089FEFC916D104E104F1047E
:100BA00011F00CF011CF84E069CE83E09FEFC916FD
:100BB000D104E104F10409F00CF432CF62E17AE7E8
:100BC00080E090E0A50194010E945A3869017A0101
:100BD00081E0C81AD108E108F1089D81992309F440
:100BE000B0CF86E09FEFC916D104E104F10409F00B
:100BF00008F444CEC980DA80EB80FC809AE0F5945A
:100C0000E794D794C7949A95D1F781E0C81AD10890
:100C1000E108F10887E032CE82E030CEAF92BF9299
:100C2000CF92DF92EF92FF920F931F93CF93DF93B8
:100C30006C017B018B01040F151FEB015E01AE18E7
:100C4000BF08C017D10759F06991D601ED91FC9109
:100C50000190F081E02DC6010995892B79F7C50136
:100C6000DF91CF911F910F91FF90EF90DF90CF9088
:100C7000BF90AF900895FC01538D448D252F30E037
:100C8000842F90E0821B930B541710F0CF96089599
:100C900001970895FC01918D828D981761F0A28DC6
:100CA000AE0FBF2FB11D5D968C91928D9F5F9F738C
:100CB000928F90E008958FEF9FEF0895FC01918D42
:100CC000828D981731F0828DE80FF11D858D90E0AF
:100CD00008958FEF9FEF0895FC01918D228D892F4C
:100CE00090E0805C9F4F821B91098F739927089534
:100CF00086E394E00E946C0621E0892B09F420E051
:100D0000822F089580E090E0892B29F00E947806D8
:100D100081110C9400000895FC01A48DA80FB92F37
:100D2000B11DA35ABF4F2C91848D90E001968F7313
:100D30009927848FA689B7892C93A089B1898C9132
:100D4000837080648C93938D848D981306C0028881
:100D5000F389E02D80818F7D80830895EF92FF924B
:100D60000F931F93CF93DF93EC0181E0888F9B8DCE
:100D70008C8D98131AC0E889F989808185FF15C088
:100D80009FB7F894EE89FF896083E889F9898081AB
:100D90008370806480839FBF81E090E0DF91CF917A
:100DA0001F910F91FF90EF900895F62E0B8D10E09C
:100DB0000F5F1F4F0F731127E02E8C8D8E110CC00B
:100DC0000FB607FCFACFE889F989808185FFF5CF56
:100DD000CE010E948C06F1CFEB8DEC0FFD2FF11DA3
:100DE000E35AFF4FF0829FB7F8940B8FEA89FB8993
:100DF00080818062CFCFCF93DF93EC01888D8823F1
:100E0000B9F0AA89BB89E889F9898C9185FD03C06D
:100E1000808186FD0DC00FB607FCF7CF8C9185FF52
:100E2000F2CF808185FFEDCFCE010E948C06E9CF05
:100E3000DF91CF91089520917F02260F3327331F32
:100E400021323105ECF42091A302FC0190E080E016
:100E5000243069F082E00895A0917F022191AC01D5
:100E6000415A5D4FA40FB52FB11D2C9301968617E3
:100E700098F380917F02680F60937F0280E008956D
:100E800081E0089508958FEF9FEF08958FEF9FEF12
:100E900008958091580290E0919581959109089567
:100EA000CF93DF93CB01EA01642F0E941B07CE0191
:100EB000DF91CF910895CF93DF931F92CDB7DEB727
:100EC000698361E0CE0101960E941B0781E090E0FA
:100ED0000F90DF91CF91089590E080E00895CF9238
:100EE000DF92EF92FF92CF93DF93EC01CB01BA0137
:100EF0000E94D8346B017C01E881F9810284F3857A
:100F0000E02DCE010995BC0190E080E00E94D6342E
:100F10009B01AC01C701B6010E9492362E813F8130
:100F2000488559850E9492362A813B814C815D819A
:100F30000E943735DF91CF91FF90EF90DF90CF90F7
:100F40000895CF92DF92EF92FF92CF93DF93EC015F
:100F5000CB01BA012A813B814C815D810E9492368E
:100F60002E813F81488559850E9437356B017C0170
:100F7000E881F9810284F385E02DCE010995BC0159
:100F800090E080E00E94D634A70196010E94373598
:100F90000E943E37DF91CF91FF90EF90DF90CF908E
:100FA0000895DC01DB968D919C91DC01ED91FC9123
:100FB0000484F585E02D0994DC01DB968D919C91EC
:100FC000DC01ED91FC910284F385E02D0994DC01B4
:100FD000DB968D919C91DC01ED91FC910084F18573
:100FE000E02D0994DC01DB968D919C91DC01ED9163
:100FF000FC910680F781E02D0994DC01DB968D9150
:101000009C91DC01ED91FC910480F581E02D099427
:10101000DC01DB968D919C91DC01ED91FC910280CD
:10102000F381E02D0994CF92DF92EF92FF92CF935C
:10103000DF93EC016A017B010E94A1079B01AC01D7
:1010400060E472E48FE090E00E943838FE01FF9681
:10105000318320838DAD9EAD8217930728F43EAF78
:101060002DAF349611821082CE86DF86E88AF98A07
:10107000DF91CF91FF90EF90DF90CF9008950F9385
:101080001F93CF93DF93EC018C01015C1F4FF8019C
:1010900080819181892B39F44E855F8568897989B2
:1010A000CE010E941308F8012081318150E040E018
:1010B00060E472E48FE090E00E945A38BA01A9011E
:1010C000CE010E946F076E877F87888B998BDF9197
:1010D000CF911F910F910895CF92DF92EF92FF92DF
:1010E000CF93DF93EC016A017B010E94A1079B0172
:1010F000AC0160E472E48FE090E00E9438383EAFCB
:101100002DAFFE01FF96808191812817390728F4C1
:1011100031832083349611821082CA86DB86EC8666
:10112000FD86DF91CF91FF90EF90DF90CF900895F3
:10113000CF93DF93EC018DAD9EAD892B39F44A85B9
:101140005B856C857D85CE010E946C082DAD3EAD22
:1011500050E040E060E472E48FE090E00E945A3892
:10116000BA01A901CE010E946F076A877B878C872D
:101170009D87DF91CF9108956F927F928F929F927A
:10118000AF92BF92CF92DF92EF92FF920F931F9395
:10119000CF93DF93EC016A017B018DAD9EAD892B6E
:1011A00039F44A855B856C857D85CE010E946C088B
:1011B0003E018FE3680E711CF30180819181892BC0
:1011C00039F44E855F8568897989CE010E941308BC
:1011D000CE010E9498084B015C01CE010E943F089D
:1011E0000DAD1EADF30160807180A50194010E94D8
:1011F000253620E034E244E759E40E943735A70160
:1012000096010E9492364B015C01B801660D771D74
:101210007695679590E080E00E94D6349B01AC0102
:10122000C501B4010E9492360E94453790E080E0EB
:101230000E94D6344B015C01B8016619770990E031
:1012400080E00E94D634A50194010E9492364B01A1
:101250005C0120E030E0A9010E949B3720E030E0F3
:1012600040E05FE387FD22C0C501B4010E9426363D
:101270000E943E37272FFE01ED5BFF4F601671067F
:10128000D0F060837183CA8ADB8AEC8AFD8ADF91A1
:10129000CF911F910F91FF90EF90DF90CF90BF9073
:1012A000AF909F908F907F906F900895C501B4018B
:1012B0000E942536DDCF862F922F009711F481E012
:1012C00090E091838083DFCF0F931F93CF93DF93C1
:1012D000EC01E881F9810280F381E02D0995FE019E
:1012E000E35BFF4F10821182128213823497DE017A
:1012F000AB5BBF4F8D919D910D90BC91A02D8083D4
:101300009183A283B3830E946902FE01E95AFF4FD1
:10131000CD5ADF4F088119812A813B81DC01CB0145
:10132000800F911FA21FB31F80839183A283B38379
:10133000DF91CF911F910F910895CF92DF92EF929D
:10134000FF92CF93DF93EC016A017B01FC01E35B29
:10135000FF4F80819181A281B381892B8A2B8B2BB6
:1013600019F0CE010E946409B701A601CE010E94C6
:10137000A107CB5BDF4F688379838A839B83DF91EF
:10138000CF91FF90EF90DF90CF900895FC01EB5B41
:10139000FF4F40815181628173810C946F078F925E
:1013A0009F92AF92BF92CF92DF92EF92FF920F93F4
:1013B0001F93CF93DF93EC017A018B0189A58823DA
:1013C000A9F0CA01DB018EAB9FABA8AFB9AF81E03A
:1013D0008AAFDF91CF911F910F91FF90EF90DF9037
:1013E000CF90BF90AF909F908F900895AAA4BBA478
:1013F000CCA4DDA49A01AB01B501C6010E949B37C4
:10140000181614F075018601AEA4BFA4C8A8D9A807
:101410009701A801B501C6010E94D13487FD02C021
:1014200075018601A701B801CE010E94A1077E01C6
:1014300029E4E20EF11CD7016D937D938D939C936B
:1014400013978E01035B1F4FF80180819181A28168
:10145000B381892B8A2B8B2B19F0CE010E94640952
:101460006E01F5E4CF0ED11CD6014D915D916D91C9
:101470007C91F70180819181A281B381481759073E
:101480006A077B0709F4A5CF8DAD9EAD892B39F492
:101490004A855B856C857D85CE010E946C085E0166
:1014A000FFE3AF0EB11CD5018D919C91892B39F4CE
:1014B0004E855F8568897989CE010E941308F50100
:1014C000808191812DAD3EAD8217930748F4892B21
:1014D00039F44A895B896C897D89CE010E94BC08F8
:1014E000E881F9810190F081E02DCE010995D701C5
:1014F0004D915D916D917C91F60180819181A281E8
:10150000B381E881F98184179507A607B7070CF026
:101510007CC081E088A70680F781E02D6FA1CE0115
:1015200009958BAD9CADDC01ED91FC910688F789A6
:10153000E02D09957E01B7E5EB0EF11CF7018081E6
:101540009181A281B381892B8A2B8B2B51F10E942F
:101550006902D7018D909D90AD90BC90681579057A
:101560008A059B05F0F40E946902F7018080918052
:10157000A280B3803497C080D180E280F380DC0108
:10158000CB0188199909AA09BB09C816D906EA0628
:10159000FB0610F4D701C601F80180839183A28372
:1015A000B383FE01EF5AFF4F20813181F801808122
:1015B0009181A281B381820F931FA11DB11D8083F0
:1015C0009183A283B3830E946902AB01BC017E01B7
:1015D000F1E4EF0EF11CD7012D913C91F8018081CF
:1015E0009181A281B381820F931FA11DB11D840F30
:1015F000951FA61FB71F80839183A283B3838DADF0
:101600009EADD7018D939C93E4CE18A66FA181E087
:1016100068270680F781E02D82CF90E080E0089572
:1016200081E090E0089580E0089580E0089561E011
:10163000FC0183850C949801FC0180A191A108957F
:10164000653C29E0720790F024EC39E0DC019196CA
:101650003C932E939097DC015E966D917C915F9701
:10166000ED91FC910288F389E02D0994FC0171A3AE
:1016700060A3F1CFDC019296EC91EB3090F4F0E0B6
:10168000EC5BF44F0C9479384F0B4F0B530B530B0F
:10169000560B590B5C0B5F0B620B650B680B21E063
:1016A00030E0C901089522E030E0FBCF24E030E0D3
:1016B000F8CF28E030E0F5CF20E130E0F2CF20E2B3
:1016C00030E0EFCF20E430E0ECCF20E830E0E9CFAD
:1016D00020E031E0E6CFFC01218D25FF05C0221F6F
:1016E0002227221F822F089584850E946F0121E006
:1016F000892BC1F720E0F6CF7F928F929F92AF9215
:10170000BF92CF92DF92EF92FF920F931F93CF93EE
:10171000DF93EC018C890E9454029A8789870E948A
:1017200069024B015C018B829C82AD82BE8220E00B
:1017300030E0A9016BA57CA58DA59EA50E949B37D5
:1017400069857A85181614F5E9A4FAA490E080E07A
:101750000E94D634AB01BC01D701ED91FC9102800F
:10176000F381E02D95018401C70109956B017C018E
:1017700020E030E0A9010E94D13487FF03C0C12CD2
:10178000D12C7601C701B6010E94453778876F8357
:101790000E948E020F8118854E855F852A893B89BC
:1017A0004017510760F421153105A9F0CD8CDE8C6E
:1017B000EF8CF8A0C616D706E806F90660F41F8776
:1017C0000E876B017C01C20ED31EE11CF11CCD8E75
:1017D000DE8EEF8EF8A2488959890417150760F448
:1017E0002115310599F0C9A0DAA0EBA0FCA0C6161E
:1017F000D706E806F90650F4198B088B620F731FA1
:10180000811D911D69A37AA38BA39CA3CE84DF8441
:10181000E888F988EC18FD087B847720D1F0B701BF
:1018200090E080E00E94D6342F89388D498D5A8D02
:101830000E9437354B015C01B60190E080E00E94C8
:10184000D634A50194010E9426360E9445377C8F2C
:101850006B8F8C859D85E816F90610F4711009C010
:101860002B8D3C8D8981882331F081E0021713078D
:1018700030F480E004C081E002171307D0F74881FC
:101880008883EFA1F8A59A8121E030E001C0220F02
:101890009A95EAF72095908129232083EFA1F8A556
:1018A00028819A8101C0220F9A95EAF79081292B0D
:1018B00020838427DF91CF911F910F91FF90EF90AC
:1018C000DF90CF90BF90AF909F908F907F900895C2
:1018D000CF93DF93EC016B81617089810E94980145
:1018E0006B8162708A81DF91CF910C94980160E0E6
:1018F00070E0CB01089560E070E0CB010895CF92D5
:10190000DF92EF92FF920F931F93CF93DF93EC013F
:101910006A017B010E9469028B019C01E881F981C7
:101920000280F381E02DB701A601CE010995DF9178
:10193000CF911F910F91FF90EF90DF90CF9008957E
:101940008EBD00000DB407FEFDCF8EB5089560E09A
:1019500070E080E89FE308950895FC0185896FEFAA
:1019600070E0681B7109072E000C880B990B0E9410
:10197000D83420E030E04FE753E40E9492360895D7
:10198000CF93DF93EC01CB01BA0120E030E04FE7C9
:1019900053E40E9437350E94453760956D8B8C89E2
:1019A00080FF06C070E08A89DF91CF910C94F70127
:1019B000DF91CF910895DC011396ED91FC91808128
:1019C0000895CF92DF92EF92FF920F931F93CF93E0
:1019D000DF93EC01EB81FC81008110E0EE24E394C5
:1019E000F12C8985181728F5C12ED12CFE01EC0D9C
:1019F000FD1D82850E946F01EB81FC819701012E04
:101A000001C0220F0A94EAF7322F30952081232358
:101A10002083EB81FC8121E030E0892B09F020E07C
:101A200001C0220FCA94EAF78081282B20831F5F10
:101A3000D8CF0E9469026D837E838F839887EB8164
:101A4000FC8181E09081901301C080E0DF91CF9113
:101A50001F910F91FF90EF90DF90CF900895CF925C
:101A6000DF92EF92FF920F931F93CF93DF93EC01DE
:101A70006A017B010CA51DA501151105D9F0AB016B
:101A8000960160E070E080E89FE30E942536AB019C
:101A9000BC01D801ED91FC910480F581E02D28A9CD
:101AA000C801DF91CF911F910F91FF90EF90DF90D0
:101AB000CF9009940EA4DFA5C02D2097C1F06881B6
:101AC00070E090E080E00E94D634A70196010E9469
:101AD00037350E9445376B83CE01DF91CF911F913F
:101AE0000F91FF90EF90DF90CF900C94680CDF91F6
:101AF000CF911F910F91FF90EF90DF90CF900895BD
:101B0000FC0183A50C947C036A3018F4DC01129666
:101B10006C93DC01ED91FC910280F381E02D09943E
:101B2000DC011296EC91B4E0EB9FF0011124E80F78
:101B3000F91F2581368163817481FC0183A550E002
:101B400040E02F3F320719F420E030E0A9010C9467
:101B5000A803CF93DF93EC0161E08BA50E94C6013F
:101B600060E08BA50E9498018CA59DA5009739F097
:101B7000DC01ED91FC910190F081E02D09950EA41E
:101B8000DFA5C02D2097A9F061E089810E94C601E0
:101B900060E089810E94980161E08A810E94C6010B
:101BA00060E08A810E949801CE01DF91CF910C9470
:101BB000680CDF91CF910895CF93DF9300D000D0D0
:101BC000CDB7DEB749835A836B837C83DC018D916B
:101BD0009C91DC01ED91FC910280F381E02D44E0C9
:101BE00050E0BE016F5F7F4F09950F900F900F90EF
:101BF0000F90DF91CF910895CF93DF9300D000D065
:101C0000CDB7DEB749835A836B837C83DC018D912A
:101C10009C91DC01ED91FC910280F381E02D44E088
:101C200050E0BE016F5F7F4F09950F900F900F90AE
:101C30000F90DF91CF910895CF93DF9300D0CDB770
:101C4000DEB769837A83DC018D919C91DC01ED9193
:101C5000FC910280F381E02D42E050E0BE016F5F15
:101C60007F4F09950F900F90DF91CF910895CF93FB
:101C7000DF93EC0160E072E081EE94E00E941C0EC4
:101C80004B815C816D817E8181EE94E00E94FC0D30
:101C90008091E1049091E204AFA1B8A5EC01E88144
:101CA000F9810190F081E02D6C91DF91CF91099441
:101CB000EF92FF920F931F93CF93DF938C01EB0171
:101CC00060E772E00E941C0E4D815E816F81788515
:101CD000C8010E94FC0DD8010D911C91D801ED9115
:101CE000FC91E080F180E881F9810480F581E02DAC
:101CF000CE010995682FC801F701DF91CF911F919F
:101D00000F91FF90EF9009940F931F93CF938C0145
:101D1000C42F0E941C0ED8018D919C9161E06C0F24
:101D2000DC01ED91FC910190F081E02DCF911F91AC
:101D30000F910994DC01ED91FC910190F081E02D6F
:101D40000994DC01ED91FC910280F381E02D09946E
:101D5000DC01ED91FC910190F081E02D0994CF938D
:101D6000DF93E091F504F091F604309709F480C018
:101D7000EC018091180590911905A0911A05B09178
:101D80001B05AC01BD014F5F5F4F6F4F7F4F40930D
:101D900018055093190560931A0570931B05099552
:101DA0008E3108F046C080930D05BE0181EE94E0AF
:101DB0000E941C0E8091D3049091D404DC01ED911B
:101DC000FC910190F081E02D60910D0509958091C5
:101DD0000D05882309F44CC0E091F504F091F60458
:101DE0008091180590911905A0911A05B0911B05D5
:101DF000AC01BD014F5F5F4F6F4F7F4F40931805A0
:101E00005093190560931A0570931B050995682F67
:101E100070E07093FA046093F9048091D304909178
:101E2000D4040E94A80E80910D05815080930D0569
:101E3000CECF10920D05E091F304F091F4043097A9
:101E400009F4B3CF8091180590911905A0911A0556
:101E5000B0911B050197A109B109809318059093D2
:101E60001905A0931A05B0931B0560E009959DCF55
:101E7000DF91CF910895EF92FF920F931F93DC01B2
:101E800018968C911897882381F0489FA0011124FF
:101E9000452F829F90011124232F809F80011124C0
:101EA000012F8E9D70011124EF2C1E968C911E9790
:101EB0001996ED91FC911A971B969C911B9789138B
:101EC00020C0CB01880F991F680F791F6E0F7F1FED
:101ED0001B96EC911B97E60FF72FF11D40831C9684
:101EE000EC911C97E60FF72FF11D20831D968C9126
:101EF000680F711DFB0100831F910F91FF90EF9000
:101F00000895660F771F660F771F6E0F7F1FFB0107
:101F1000E80FF11DE082DCCFCF92DF92EF92FF92CB
:101F20000F931F93CF93DF93CDB7DEB729970FB6EB
:101F3000F894DEBF0FBECDBF8C010E946902D801AC
:101F40001F96CD90DD90ED90FC9052976C157D051D
:101F50008E059F0528F4F8016787708B818B928B23
:101F6000D8011F96CD90DD90ED90FC9052976C19A2
:101F70007D098E099F096C32714081059105E8F257
:101F8000F894F801848195819A8389830184F2858C
:101F9000E02D7F012FEFE21AF20A80818F83D801B2
:101FA0009C915396ED91FC91549755968C91992361
:101FB00009F448C09081982B988790818095892357
:101FC000898789858B8388E08C83588569854F81D3
:101FD0003C812B8189819A81D701508347FD252F30
:101FE0003A952083262F39F0441F00C000006083FB
:101FF000000000C0F2CF38E04D91608300000197EF
:1020000061F7D8015496FC93EE9353974F833C832A
:102010002B839A83898378940E946902F8016787E9
:10202000708B818B928B29960FB6F894DEBF0FBE12
:10203000CDBFDF91CF911F910F91FF90EF90DF9077
:10204000CF9008959081982B9887908180958923CF
:10205000898789858D8388E08E83588569854F813E
:102060003E812D8189819A81D701508347FD252F9B
:1020700000C000C0208300C000C000C000C000C07D
:1020800060830000262F3A9541F0441F000000C0F5
:1020900000C000C000C000C0E8CF38E04D9100C0D3
:1020A000608300C0019709F7D8015496FC93EE9322
:1020B00053974F833E832D83ACCFEF920F931F93A3
:1020C000CF93DF93EC018EA19FA110E0892B91F4B7
:1020D0008DA5181758F58EA570E060E0811102C03B
:1020E0006FEF70E0FE01E10FF11D81A50E94F70185
:1020F0001F5FEECF8EA19FA128A5121780F4612F3C
:1021000070E0FC01228133816217730730F4E12C07
:1021100000E020E040E00E943B0F1F5FEBCFFC019E
:1021200021853285232B11F00E948C0F1FA618AA3F
:1021300019AA1AAA1DA2DF91CF911F910F91EF90BA
:102140000895EF92FF920F931F93CF93DF93EC01CB
:102150008EA19FA110E0892BE9F406E08DA5181748
:1021600008F042C0812F90E02881FE01029FE00D1F
:10217000F11D1124E80FF91F61812EA5211101C065
:10218000609570E08C0F9D1FFC0181A50E94F701F6
:102190001F5FE4CF86E0F82E8EA19FA128A512171D
:1021A000B0F4612F70E0FC01228133816217730764
:1021B00060F42881FE01F29EE00DF11D1124E480FF
:1021C0000381228141810E943B0F1F5FE5CFFC010B
:1021D00021853285232B41F0DF91CF911F910F9103
:1021E000FF90EF900C948C0FDF91CF911F910F9186
:1021F000FF90EF9008951F93CF93DF93EC010E941F
:10220000A110888116E0FE01189FE00DF11D112438
:1022100085819681019691F00E948E022881FE01AF
:10222000129FE00DF11D112425813681620F731F6D
:10223000811D911D6FA778AB89AB9AAB81E08DA30F
:10224000DF91CF911F910895CF92DF92EF92FF928D
:102250001092A20382EA93E00E94FB108091D504C1
:10226000882351F180EF92E00E94C6096B017C0146
:1022700062E670E081EE94E00E941C0E0E9469020A
:10228000AB01BC0181EE94E00E94FC0D8091E10461
:102290009091E204DC01ED91FC910190F081E02D40
:1022A00061E00995B701A60181EE94E0FF90EF90FF
:1022B000DF90CF900C94DC0DFF90EF90DF90CF90EB
:1022C0000895CF92DF92EF92FF926B017C0180EF35
:1022D00092E00E946409B701A60180EF92E00E949B
:1022E0009D098091DA029091DB02A091DC02B0910D
:1022F000DD0280931A0390931B03A0931C03B093F9
:102300001D03109219038091D504882371F06CE3AA
:1023100070E081EE94E00E941C0E0E946902AB0105
:10232000BC0181EE94E00E94FC0D80910601909129
:10233000070190938F0380938E0310927E03FF908A
:10234000EF90DF90CF90089540E050E068EC71E4AA
:1023500080EF92E00E94130840E050E060E470ECEF
:1023600080EF92E00C94CF0940E050E068EC71E41B
:1023700080EF92E00E94130840E050E068EB71ECBF
:1023800080EF92E00C94CF0960E0FC0183850E940D
:10239000980184E58CBD81E08DBD08950F931F9356
:1023A000CF93DF938C01C62F0E94C4118C2F880F0E
:1023B00080640E94A00CC82F80E00E94A00CD82F3F
:1023C000C8010E94170BF8018481CF73C82BC48306
:1023D0008D2FDF91CF911F910F910895CF93DF93B0
:1023E000EC0168E00E94CE118C8F69E0CE010E9462
:1023F000CE118D8F8F7090E0982F88272C8D820FB3
:10240000911D9CA38BA3DF91CF910895CF93DF9370
:10241000EC016BE00E94CE118F701F8288876AE00A
:10242000CE010E94CE112F813885820F932F911DEE
:1024300098878F83DF91CF910895CF92DF92EF92AB
:10244000FF92CF93DF93EC012E89A8A1B9A130E0D0
:102450000E9416366B017C0163E0CE010E94CE1112
:102460008F8B90E024E0959587952A95E1F7C0E160
:10247000D0E0C81BD90BC701B6012FEF30E040E018
:1024800050E00E943838C29FC001C39F900DD29F78
:10249000900D112434E0969587953A95E1F7DF91F8
:1024A000CF91FF90EF90DF90CF9008950F931F93FF
:1024B000CF93DF938C01C62FD42F0E94C4118C2F91
:1024C000880F0E94A00CC82F8D2F0E94A00CD82F1F
:1024D000C8010E94170BF8018481CF73C82BC483F5
:1024E0008D2FDF91CF911F910F910895615070E072
:1024F000FC01E60FF71F3789222349F0432B478B56
:10250000605E7E4F4789FB0160810C9456124095B6
:102510004323F5CFCF93DF93EC01862F6D8761E0E6
:102520000E94C60160E08D850E9498018A898160C1
:102530008A8B8B8981608B8B20E040E163E0CE0148
:10254000DF91CF910C947612CF93DF93EC01862F1D
:102550006C8761E00E94C60160E08C850E94980152
:102560008A8982608A8B8B8982608B8B20E040E233
:1025700063E0CE01DF91CF910C947612FC01218DA6
:1025800025FF05C0262F40E863E00C947612848571
:102590000C949801CF93DF93EC01862F6E8761E056
:1025A0000E94C60160E08E850E9498018A8984603D
:1025B0008A8B8B8984608B8B488D4068488F64E060
:1025C000CE01DF91CF910C9456121F93CF93DF93DE
:1025D000EC01462F172F6BA37CA36C8F68E00E9441
:1025E0005612812F90E04D8D407F8F709927482B98
:1025F0004D8F69E0CE01DF91CF911F910C9456125F
:10260000CF93DF93EC014A8D406866E00E9456123A
:102610001D821EA21DA28B8D84FF08C021E040E117
:1026200065E0CE01DF91CF910C947612DF91CF91CE
:102630000895CF92DF92EF92FF92CF93DF93EC0158
:10264000A8A1B9A1A617B707E0F5BF8FAE8F2E8955
:1026500030E00E941636CE8CDF8C24E0CC0CDD1CE2
:102660002A95E1F7F12CE12C2FEF30E040E050E02B
:102670000E943838C701B6010E943838211531054B
:102680004105510509F1BA01A90141315105610521
:10269000710520F040E150E060E070E08F898F70BC
:1026A000242F2295207F2195482F422B4F8B63E0CA
:1026B000CE01DF91CF91FF90EF90DF90CF900C94FF
:1026C00056127F8F6E8FC3CF41E050E060E070E024
:1026D000E5CFFC01238922FF04C060E086850C94CD
:1026E0009801408D4F77408F64E00C945612CF9341
:1026F000DF93EC01488D47FD05C04068488F64E0DA
:102700000E9456128B8982FF06C061E08E85DF91A0
:10271000CF910C949801DF91CF910895CF92DF92E1
:10272000EF92FF920F931F93CF93DF93EC0161E041
:102730008B850E94C60161E08B850E9498018A8981
:1027400083FF12C061E08F850E94C60161E08F8522
:102750000E9498018A8988608A8B8B8988608B8B1C
:102760008BEB92E10197F1F71FB7F8948091570234
:10277000811127C0E1EEF0E08491E3ECF0E0949168
:10278000E82FF0E0EE0FFF1FEF56FF4FA591B49139
:10279000EC91E92321F461E08AE00E94980161E074
:1027A0008AE00E94C6018CB580618CBD8CB58064C6
:1027B0008CBD61E08DE00E94C60161E08BE00E946B
:1027C000C601809157028F5F809357021FBF1F8AF7
:1027D0008FE0888F80E3898F8A8F88E08B8F83E0FA
:1027E0008C8F80E28D8F8E01095E1F4F80E2E82E74
:1027F00081E0F82E6E018EE1C80ED11CF8014191E6
:102800008F01F70161917F01CE010E9456120C15D4
:102810001D05A1F78A8982FD04C095E09E8784602A
:102820008A8B8A8982FF04C06E85CE010E94CA12FB
:102830008A8981FD04C096E09C8782608A8B8A89A0
:1028400081FF04C06C85CE010E94A4128A8980FD9C
:1028500004C097E09D8781608A8B8A8980FF04C0CD
:102860006D85CE010E948A128A8984FD04C093E09E
:10287000988B80618A8B8A8984FF0AC060E088898E
:102880000E94C6018A8980618A8B8B8980618B8BCB
:10289000CE010E94EE1180E0DF91CF911F910F9148
:1028A000FF90EF90DF90CF900895CF93DF93EC01EE
:1028B000498D44FF21C0406465E00E9456128E811C
:1028C0008823B9F08BA19CA18F3F9105F1F0E8F02E
:1028D0006BE0CE010E94CE118F701F8288878DA180
:1028E0009EA129853A858217930798F401969EA3A5
:1028F0008DA3DF91CF91089561E08D850E949801AD
:1029000060E08D850E949801DACFCE010E94061208
:10291000E6CF2F8138858BA19CA12817390748F76E
:1029200081E08D83E6CF1F93CF93DF93EC018B8102
:102930009C81892B41F481E090E00E947F389C8348
:102940008B83FC01108210E08985181748F4FE0182
:10295000E10FF11D60E082850E94C6011F5FF4CF88
:102960008C8980FF0FC061E08A890E94C601E881DE
:10297000F9810680F781E02D40E050E060E87FE3D8
:10298000CE0109958C8981FF0BC061E08B890E9483
:10299000C6018C8981FF04C061E08B890E94980187
:1029A000E881F9810280F381E02DCE01099580E074
:1029B000DF91CF911F910895E4EEF2E083E0DF0113
:1029C0001D928A95E9F70895CF92DF92EF92FF92D8
:1029D000CF93C3E0C093A20382EA93E00E94FB106E
:1029E00080EF92E00E94640980911A0390911B038A
:1029F000A0911C03B0911D038093DA029093DB0237
:102A0000A093DC02B093DD020E94DC1481E080938D
:102A1000E40282E08093E502C093E60284E690E05F
:102A200090938F0380938E0310927E0383E793E04D
:102A30000E947C0B80917303811127C080E090E09D
:102A4000ACEBB2E480931A0390931B03A0931C0396
:102A5000B0931D036C017D0140E050E060E871E43B
:102A600080EF92E00E94130810921903B701A601AB
:102A700080EF92E00E94CF0981E080931903CF910B
:102A8000FF90EF90DF90CF900895C12CD12C8CEB6C
:102A9000E82E82ECF82EE0CF84E08093A20382EA55
:102AA00093E00E94FB100E94DC14E4EEF2E082E06E
:102AB000808383E081830C94B411CF92DF92EF92F4
:102AC000FF9282E08093A20382EA93E00E94FB10CF
:102AD0000E94DC1485E08093E4028091D504882371
:102AE00041F1C0901A03D0901B03E0901C03F090BA
:102AF0001D036DE370E081EE94E00E941C0E0E94C5
:102B00006902AB01BC0181EE94E00E94FC0D809152
:102B1000E1049091E204DC01ED91FC910190F081DF
:102B2000E02D61E00995B701A60181EE94E00E94D5
:102B3000DC0D40E050E068EC71E480EF92E00E9430
:102B4000130840911A0350911B0360911C0370916C
:102B50001D0380EF92E0FF90EF90DF90CF900C94F8
:102B6000CF098091E5028093E4029091E602909370
:102B7000E5021092E6028330A9F028F4882341F0A0
:102B8000823071F008958430E9F08530E9F00895DD
:102B900040E050E068EC71E480EF92E00C941308A0
:102BA0000C94B41140E050E060E871E480EF92E0F2
:102BB0000E94130840E050E064E072EC80EF92E085
:102BC0000C94CF090C94A4110C945D1581E08093B2
:102BD000A20382EA93E00E94FB1090912B05809162
:102BE000E302891710F01092E3020E94DC1480EFD8
:102BF00092E00E94C60920E030E040EE51EC0E94D5
:102C0000D134811105C084E08093E4020C94A411B6
:102C100082E08093E40283E08093E50284E0809385
:102C2000E6020C94B4110E94A4391F93CF93DF9352
:102C300085ED8093BC0080915B0290915C02A09135
:102C40005D02B0915E020796A11DB11D23E0B6950D
:102C5000A795979587952A95D1F72091BC0024FDDB
:102C600003C01092A30252C040915B0250915C02DB
:102C700060915D0270915E02452B462B472B69F3F4
:102C80000097A105B10541F02AE22A95F1F700C0AD
:102C90000197A109B109E1CF80915A02C1E0C09327
:102CA0005902882399F1D091B8001091BA0080910F
:102CB000BC008A7B8093BC0060E082E10E949801A6
:102CC00060E083E10E9498011092A302C093A502E4
:102CD0001092A40261E082E10E94980161E083E128
:102CE0000E9498018091B9008E7F8093B9008091F5
:102CF000B9008D7F8093B90088E48093B80085E4A3
:102D00008093BC001093BA00D093B800DF91CF91AC
:102D10001F9108953F924F925F926F927F928F9290
:102D20009F92AF92BF92CF92DF92EF92FF920F935A
:102D30001F93CF93DF93CDB7DEB72A970FB6F894E2
:102D4000DEBF0FBECDBF9A8789876A017B01DC0198
:102D50001F968D909D90AD90BC905297FC01078777
:102D6000108B218B328B13968D919D910D90BC9180
:102D7000A02D89839A83AB83BC83838B948BA58B93
:102D8000B68B87819085A185B2858D839E83AF8325
:102D9000B887878B908FA18FB28FC382D482E58250
:102DA000F682328031101EC0C782D086E186F2865C
:102DB000C701B6012A960FB6F894DEBF0FBECDBF8D
:102DC000DF91CF911F910F91FF90EF90DF90CF9007
:102DD000BF90AF909F908F907F906F905F904F903B
:102DE0003F900895C901B801681979098A099B09BA
:102DF0000E94D6344B015C01A985BA851B964D9083
:102E00005D906D907C901E97AC019B01C301B20157
:102E10000E94923620E030E040EE50E40E949B3762
:102E20001816C4F5A5019401C301B2010E9426360B
:102E30009B01AC01C301B2010E9492364B015C01BF
:102E4000AC019B016D817E818F8198850E94373511
:102E50002B013C01B1E03B1227C0A501940160E0C9
:102E600070E080E89FE30E942536A70196010E944A
:102E70003735A30192010E942636E985FA856783DA
:102E8000708781879287E985FA85C780D084E1843D
:102E9000F2848ECFC501B4019058A30192010E9423
:102EA00092360E940C37CACF29813A814B815C81CE
:102EB000C701B6010E942536A50194010E9437354D
:102EC000A30192010E942636A985BA8517966D93B3
:102ED0007D938D939C931A97D6CF0C94F5350C94D3
:102EE000FD351F920F920FB60F9211242F933F932F
:102EF0008F939F93AF93BF938091E8029091E902E3
:102F0000A091EA02B091EB023091E70223E0230F97
:102F10002D3758F50196A11DB11D2093E70280932E
:102F2000E8029093E902A093EA02B093EB02809149
:102F3000EC029091ED02A091EE02B091EF020196A9
:102F4000A11DB11D8093EC029093ED02A093EE02BF
:102F5000B093EF02BF91AF919F918F913F912F91CD
:102F60000F900FBE0F901F90189526E8230F029622
:102F7000A11DB11DD2CF1F920F920FB60F92112437
:102F80002F933F934F935F936F937F938F939F9371
:102F9000AF93BF93EF93FF93E0910301F09104018E
:102FA0000995FF91EF91BF91AF919F918F917F9183
:102FB0006F915F914F913F912F910F900FBE0F90A6
:102FC0001F9018951F920F920FB60F9211242F93F6
:102FD0003F934F935F936F937F938F939F93AF93A1
:102FE000BF93EF93FF93E0910101F09102010995E6
:102FF000FF91EF91BF91AF919F918F917F916F91D1
:103000005F914F913F912F910F900FBE0F901F90A6
:1030100018951F920F920FB60F9211242F933F9382
:103020004F935F936F937F938F939F93AF93BF93D0
:10303000EF93FF938091D6029091D702A091D8028E
:10304000B091D902892B8A2B8B2BD1F19091D5028B
:10305000E091D302F091D40280818927808380910E
:10306000D6029091D702A091D802B091D902181639
:1030700019061A061B069CF48091D6029091D7027D
:10308000A091D802B091D9020197A109B10980930A
:10309000D6029093D702A093D802B093D902FF91A1
:1030A000EF91BF91AF919F918F917F916F915F91C0
:1030B0004F913F912F910F900FBE0F901F90189539
:1030C000809100010E947C03EACF1F920F920FB6FD
:1030D0000F9211242F933F934F935F936F937F939E
:1030E0008F939F93AF93BF93EF93FF9386E394E007
:1030F0000E948C06FF91EF91BF91AF919F918F91AC
:103100007F916F915F914F913F912F910F900FBEE3
:103110000F901F9018951F920F920FB60F921124C7
:103120002F938F939F93EF93FF93E0914604F09139
:1031300047048081E0914C04F0914D0482FD1BC056
:10314000908180914F048F5F8F732091500482177C
:1031500041F0E0914F04F0E0EA5CFB4F958F8093E3
:103160004F04FF91EF919F918F912F910F900FBE80
:103170000F901F9018958081F4CF1F920F920FB679
:103180000F9211242F933F934F935F936F937F93ED
:103190008F939F93AF93BF93EF93FF938091B90069
:1031A000887F803609F44AC0F0F5883209F4A5C05A
:1031B00018F5803109F499C0B8F4882309F4F5C0F2
:1031C000883009F492C0FF91EF91BF91AF919F9128
:1031D0008F917F916F915F914F913F912F910F90C0
:1031E0000FBE0F901F901895883109F486C0803269
:1031F00051F78093A20214C0803409F49BC040F4BC
:103200008033B9F38833F9F68093A20285ECAEC01F
:10321000803509F483C0883509F494C0883499F660
:103220000E941516D0CF883909F48AC038F588373E
:1032300029F050F4883611F0803729F683E0809326
:10324000A3021092A10255C0883809F479C08039D0
:1032500019F0803809F0B7CF8091A102803208F0D0
:103260006FC0E091A10281E08E0F8093A102809156
:10327000BB00F0E0EF57FD4F80833BC0803B39F04F
:10328000D0F4803A09F477C0883A09F09CCF84E002
:103290008093A3021092800210927F02F0E0E0E09F
:1032A000099580917F0281110FC081E080937F0298
:1032B00010925F0209C0803C09F4A8CF883C09F451
:1032C000A5CF883B09F07FCFE091800281E08E0F8F
:1032D00080938002F0E0E15AFD4F80818093BB0033
:1032E0009091800280917F0229C08091C8028093D2
:1032F000BB0085EC8093BC0066CF9091C7028091A3
:10330000C602981758F5E091C70281E08E0F8093AE
:10331000C702F0E0EA55FD4F8081E9CFE091C70296
:1033200081E08E0F8093C7028091BB00F0E0EA55E8
:10333000FD4F80839091C7028091C6029817C8F212
:1033400085E8D8CFE091C70281E08E0F8093C70255
:103350008091BB00F0E0EA55FD4F80838091A5028B
:1033600081115ECF81E08093A40284EA8093BC0047
:103370001092A30228CF85EC8093BC001092A30288
:103380008091A102803230F4E091A102F0E0EF5789
:10339000FD4F10826091A10270E081E892E0F0E0C0
:1033A000E0E009951092A1020ECF1092A20238CF50
:1033B000EF92FF920F931F93CF93DF93CDB7DEB7BA
:1033C000A5970FB6F894DEBF0FBECDBF109239049B
:1033D0001092380488EE93E0A0E0B0E080933A04C5
:1033E00090933B04A0933C04B0933D048DE291E0A4
:1033F000909337048093360485EC90E090934304D7
:103400008093420484EC90E09093450480934404BC
:1034100080EC90E0909347048093460481EC90E028
:10342000909349048093480482EC90E090934B047D
:1034300080934A0486EC90E090934D0480934C0472
:1034400010924F04109250041092510410925204A2
:1034500086E394E09093D4048093D3041092D5042F
:103460008AEF90E09093D7048093D60480E197E2AE
:10347000A0E0B0E08093D8049093D904A093DA043C
:10348000B093DB041092E0041092E4041092E30481
:103490001092E6041092E5041092E8041092E704FA
:1034A0001092EA041092E9041092EC041092EB04DA
:1034B0001092EE041092ED041092F0041092EF04BA
:1034C0001092F2041092F1041092F4041092F3049A
:1034D0001092F6041092F5041092F8041092F7047A
:1034E00010922005109222051092210510922505B8
:1034F000109228051092290581E080932A0513E097
:1035000010932B0510922D0510922C0510922F056B
:1035100010922E0510923305109232051092350547
:103520001092340592E0909332048093350424E0A5
:10353000209333042FE02093340423E831E03093C8
:10354000020420930104109203042EE020932C0423
:1035500010922E0410922D041092310422E334E0D4
:103560003093300420932F041092ED031092EF0358
:103570001092EE039093F4032AE02093FD0310923F
:10358000000420E12093F50321E12093F60320912C
:10359000FF0321602093FF0323E731E03093EC0326
:1035A0002093EB031092D6031092DD031092E403F4
:1035B0001092E5031092E6031092E7038093E30371
:1035C0008093E0031092E1039093E2038093D5038C
:1035D00083E090E09093DA038093D9030E947F38D0
:1035E0009093DF038093DE03009709F43FC1FC0151
:1035F00011921A95E9F781E090E09093D8038093B7
:10360000D70389E090E09093DC038093DB03809103
:10361000D603882341F061E089E00E94C60160E0A2
:1036200089E00E949801E0EEF0E0E491F0E0EE0F16
:10363000FF1FE353FF4F859194919093E90380938B
:10364000E803E2ECF0E0E491E093EA031092A203D5
:1036500085ED93E09093C9038093C8031092CA0349
:10366000FF24F394F092D003F09274031092750348
:10367000F0927E0384E690E09093800380937F0332
:103680008FEF9FEF909382038093810310928403C6
:103690001092830380E395E79093860380938503DC
:1036A00082E180938703EE24EA94E0928803E0921B
:1036B000890380E090E0A0E0BFE380938A039093C9
:1036C0008B03A0938C03B0938D0388EE93E09093CB
:1036D00099038093980310929B0310929A0310927F
:1036E0009E0310929F031092A0031092A1038BE1FE
:1036F00090E00E947F388C01FC01F2828BE691E021
:10370000918380838CEB9CE6ABE1B8E4838794875C
:10371000A587B687138214821582168217821086B7
:1037200011861286178A108E118E128E0E946902DF
:10373000F8016787708B818B928B8BE691E0918388
:10374000808310939D0300939C0310924E038FE49B
:1037500091E090934D0380934C0382E080934F035C
:103760001092520388EC90E0909356038093550397
:1037700088E080935703E092620384EF91E0909396
:103780006B0380936A0384EC99E090936D038093BC
:103790006C0310926E038BE493E09093610380932B
:1037A000600385E2EBE8F1E0DE01119601900D92F5
:1037B0008A95E1F78FE391E09093F1028093F00214
:1037C0001092190380E090E0A6E9B2E480931A0316
:1037D00090931B03A0931C03B0931D0310921E0330
:1037E00010921F03109220031092210310922203C3
:1037F00010922303109224031092250310922A039F
:1038000010923D0310923E0310923F03109240032A
:1038100088E893E1909342038093410380E990ED1F
:10382000A3E0B0E08093430390934403A093450347
:10383000B09346038CE493E090932C0380932B0386
:1038400085E2FE013196A2EFB2E001900D928A95D9
:10385000E1F7A5960FB6F894DEBF0FBECDBFDF919E
:10386000CF911F910F91FF90EF9008951092DA037E
:103870001092D9031092D8031092D703C2CECF93DF
:10388000DF93CDB7DEB7E8970FB6F894DEBF0FBE73
:10389000CDBF789484B5826084BD84B5816084BDD9
:1038A00085B5826085BD85B5816085BD80916E00DE
:1038B000816080936E00109281008091810082600F
:1038C000809381008091810081608093810080914C
:1038D00080008160809380008091B100846080933B
:1038E000B1008091B00081608093B00080917A0037
:1038F000846080937A0080917A00826080937A005D
:1039000080917A00816080937A0080917A0080684B
:1039100080937A001092C10082EB92E09093E404CD
:103920008093E3048EEE92E09093E6048093E504A6
:1039300087E193E09093E8048093E70480E493E0C8
:103940009093EA048093E9048FE697E19093F4045E
:103950008093F3048DE697E19093F6048093F50449
:1039600084EE94E190933305809332058CE495E1E5
:1039700090933505809334058DE595E190932D0561
:1039800080932C0586EE95E190932F0580932E056C
:103990008BEE93E0909327058093260581E094E0D9
:1039A00090931D0580931C058CE493E0909337055C
:1039B0008093360580EF92E0909331058093300537
:1039C00083E793E0909324058093230582EA93E0B4
:1039D00090931F0580931E0540E052EC61E070E07B
:1039E0008091D3049091D4040E94A2008091D304CA
:1039F0009091D4049093E2048093E10463E270E038
:103A000081EE94E00E941C0E84E10E945402109208
:103A100086031092850384E690E090938F03809351
:103A20008E0310927E038AE090E09093800380934F
:103A30007F0380919A0390919B03892B51F481E03D
:103A400090E00E947F3890939B0380939A03DC015F
:103A50001C9260E0809187030E94C6010E948E0242
:103A60002091980330919903DC01CB01820F931FC1
:103A7000A11DB11D8093900390939103A093920395
:103A8000B09393038093940390939503A09396032C
:103A9000B093970360E082E00E94C6018EE992E055
:103AA0009093020180930101809169008C7F826074
:103AB00080936900E89A0091C8031091C903011529
:103AC000110579F410E08091CF031817D8F4E12F95
:103AD000F0E0EE55FC4F61E081A50E94C6011F5F3A
:103AE000F2CFF8018681978197FD40C261E00E9484
:103AF000C60160E0D80116968C910E94980181E081
:103B0000F801818382EA93E00E945D1082E1EEE099
:103B1000F1E0DE01119601900D928A95E1F7B2EA8B
:103B2000AB2EB3E0BB2E10E000E086E0982E96E9C5
:103B3000C92ED12C26E0E22EF12C0093A203812F76
:103B400090E0FC01EE0FFF1FE80FF91F21E030E0CD
:103B50002C0F3D1FE20FF31F828191812081D5013F
:103B600011962C93119712969C93129713968C93FF
:103B7000139714961C928091C703882321F082EA40
:103B800093E00E94A110E091A2039E9EF0011124F7
:103B9000EE55FC4FD682C5821F5F812F90E0B701A2
:103BA0000E942438182F0F5FB6E0AB0EB11C063010
:103BB00021F68BEE93E00E94931446E656E666E605
:103BC0007FE38BEE93E00E94C00C81E094E00E94C2
:103BD000A90D40E050E060E07FE381E094E00E94C6
:103BE0002F0DE1E0F4E088EE93E026E930E09483E5
:103BF0008383368325838C599F4F3496803D47E0DD
:103C00009407A9F789E08093030480E090E0A4E79B
:103C1000B2E48093DA029093DB02A093DC02B093CB
:103C2000DD0280912B0390912C03DC01ED91FC913E
:103C30000190F081E02D0995C090FA02D090FB022E
:103C4000E090FC02F090FD0220E030E0A901C70105
:103C5000B6010E94D134882331F0B701A60180EF6C
:103C600092E00E946C08C090FE02D090FF02E090AB
:103C70000003F090010320E030E0A901C701B60184
:103C80000E94D134882331F0B701A60180EF92E081
:103C90000E941308C0900203D0900303E090040335
:103CA000F090050320E030E0A901C701B6010E94B1
:103CB000D134882331F0B701A60180EF92E00E9451
:103CC000BC0880912B0390912C03DC01ED91FC91B9
:103CD0000684F785E02D68EE73E0099560910C038A
:103CE00070910D036115710559F080912B0390912E
:103CF0002C03DC01ED91FC910288F389E02D0995FC
:103D000065E08CE493E00E94CA1266E08CE493E0E4
:103D10000E94A41267E08CE493E00E948A1283E080
:103D200080935C0360E00E94C60180915E03806125
:103D300080935E0380915F03806180935F0368EEF0
:103D400073E08CE493E00E94200B6CE271E08CE461
:103D500093E00E94191321E040E165E08CE493E0D8
:103D60000E94761281E08093520363E070E08CE45D
:103D700093E00E94E51220E040E167E08CE493E0EC
:103D80000E9476128CE493E00E94001310921703B5
:103D900080E090E0A8EAB2EC80931E0390931F03AA
:103DA000A0932003B09321038091DA029091DB026B
:103DB000A091DC02B091DD0280931A0390931B0363
:103DC000A0931C03B0931D0340E050E0BA0180EFC4
:103DD00092E00E949D098AE992E090930401809309
:103DE000030180916900837F886080936900E99A6C
:103DF000FE013A96FCABEBAB44244394512C8091EA
:103E0000D3049091D404DC01ED91FC910084F18500
:103E1000E02D0995892BD1F18091D3049091D404A0
:103E2000DC01ED91FC910284F385E02D0995682F6A
:103E3000482F592F5093FA044093F904E091FE045F
:103E4000F091FF04309711F00C947E2C8091FD04CA
:103E500081118EC05093FC044093FB0481E0809359
:103E6000FD048091FE049091FF04892B11F00C94C5
:103E700093328091FD0481110C94933210920F05BE
:103E800010921005109211051092120580910F05E5
:103E900090911005A0911105B0911205892B8A2BE4
:103EA0008B2B89F00E948E0200910F051091100556
:103EB00020911105309112050617170728073907B9
:103EC00010F40E94020180913D0390913E03A09165
:103ED0003F03B0914003892B8A2B8B2BD9F0409163
:103EE0003503509136036091370370913803809108
:103EF000390390913A03A0913B03B0913C034817DA
:103F000059076A077B0711F00C94A73280EF92E003
:103F10000E9464098091E402843011F00C943134E1
:103F200083E793E00E947C0B80912A05882331F07F
:103F300080917303882311F40C94393385E08093C6
:103F4000A20382EA93E00E94FB101092E3028091A8
:103F5000D504882339F040E060E970E081EE94E018
:103F60000E94840E0E94B1150C9456331182CACD62
:103F7000542F44270091FB041091FC04040F151FDB
:103F80001093FC040093FB041092FD040636110507
:103F900009F4A3C608F061C20034110511F40C94B1
:103FA000142A08F016C10231110509F417C608F0E9
:103FB0007EC00630110509F441C6E8F5023011054E
:103FC00009F453C5A0F40115110509F444C50130E5
:103FD000110509F443C561E270E081EE94E00E94AE
:103FE0001C0EB80181EE94E00E941C0E3ACF043002
:103FF000110509F4FAC50530110569F783E090E071
:104000009093FF048093FE0488E190E09093010573
:104010008093000581E0809317055EE1A52EB12C09
:10402000C12CD12CA0921805B0921905C0921A0586
:10403000D0921B0516CF0C30110509F40CC6F0F414
:104040000730110509F4E2C50830110521F6E091A9
:10405000F104F091F204309709F454C50091D304AF
:104060001091D404D8018D919C91DC01ED90FC90CD
:104070000995682FC801F7010995F3CE00311105A4
:1040800009F45FC508F095C50E30110509F0A3CFFE
:104090006FE070E081EE94E00E941C0E40E052EC74
:1040A00061E070E081EE94E00E94FC0DDACE063310
:1040B000110508F06DC00433110508F0D2CE0831A7
:1040C000110509F4DFC488F50331110509F403C5AE
:1040D0000631110509F07FCFE091E304F091E4048B
:1040E000309709F4C6CECE0101960995182F65E1E7
:1040F00070E081EE94E00E941C0E8091E1049091AA
:10410000E204DC01ED91FC910190F081E02D612F42
:104110000995412F50E0BE016F5F7F4F8091E10410
:104120009091E2040E94A10E9CCE0233110509F485
:1041300037C608F03EC60A31110509F04CCFE091B0
:10414000E704F091E804309709F493CECE0101968C
:104150000995182F69E170E081EE94E00E941C0E31
:104160008091E1049091E204DC01ED91FC910190D9
:10417000F081E02D612F0995412F50E0BE016F5F66
:104180007F4F8091E1049091E2040E94A10E69CEDC
:104190000A33110511F40C94FA2948F40633110579
:1041A00009F4F3C50733110509F45BCE14CF0B33C3
:1041B000110511F40C94092A0F33110509F00BCFE6
:1041C000E0913405F0913505309709F452CE099508
:1041D00048CE0435110511F40C94872B08F096C0D5
:1041E0000734110511F40C947A2A08F048C00434FD
:1041F000110511F40C94472A08F50134110511F446
:104200000C942E2A0234110509F0E5CE00913005F8
:10421000109131050115110509F42BCE63E470E00E
:1042200081EE94E00E941C0EC8010E94C609AB01F9
:10423000BC0181EE94E00E94DC0D13CE0534110523
:1042400011F40C94632A0634110509F0C4CE0091D0
:104250003005109131050115110509F40ACE67E406
:1042600070E081EE94E00E941C0EF80142A553A577
:1042700064A575A581EE94E00E94DC0DF2CD0035B9
:10428000110511F40C94AD2A08F50834110511F448
:104290000C94932A0934110509F09DCE5092FF0425
:1042A0004092FE0482E080930D0587E490E09093B5
:1042B00001058093000510921305109214051092C9
:1042C00015051092160510920C05CBCD023511057F
:1042D00011F40C94E02A10F40C94C72A5092FF04B5
:1042E0004092FE0482E080930D0589E490E0909373
:1042F0000105809300051092130510921405109289
:1043000015051092160510920C05ABCD0B35110555
:1043100011F40C94FB2B08F056C00735110511F46D
:104320000C94BD2B28F50535110511F40C94A52B23
:104330000635110509F04FCE00913605109137056D
:104340000115110509F495CD67E570E081EE94E063
:104350000E941C0ED801ED91FC910088F189E02D9E
:10436000C8010995BC0181EE94E00E941C0E79CD34
:104370000935110511F40C94EB2BE0903605F09003
:1043800037050A35110510F40C94D52BE114F1040E
:1043900009F46FCD6BE570E081EE94E00E941C0E95
:1043A0000091E1041091E20467E0C7010E94CE1180
:1043B000D7015B968C9384FB662760F970E0C80197
:1043C0000E949A0E4ECD0E35110511F40C94282C36
:1043D00000F50C35110511F40C940F2C0D35110559
:1043E00009F0F9CD5092FF044092FE0410920D05A1
:1043F0008DE490E0909301058093000510921305E1
:1044000010921405109215051092160510920C05C5
:1044100028CD0036110511F40C94562C10F40C9490
:104420004E2C0536110509F0D6CD5092FF0440926E
:10443000FE0482E080930D0586E190E090930105F3
:104440008093000510921305109214051092150523
:104450001092160510920C0504CD0838B1E01B0728
:1044600009F426C608F051C10530F1E01F0709F430
:10447000F9C408F06EC00339110509F4A1C408F0AD
:1044800040C00937110509F460C440F5073611052D
:1044900009F41CC40837110509F09DCD87E190E0AF
:1044A0009093FF048093FE0483E080930D0583E0E6
:1044B00090E0909301058093000589E190E090934E
:1044C00003058093020510921805109219051092A9
:1044D0001A0510921B0510920C05C3CC0A37110562
:1044E00009F410C40139110509F075CDE0912E05CC
:1044F000F0912F05309709F4BCCC809129050995DE
:10450000B0CC011531E0130709F485C478F40439FF
:10451000110509F45CC40539110509F05CCD87E289
:1045200090E09093FF048093FE049BCC023081E0E6
:10453000180709F483C408F475C40430A1E01A070D
:1045400009F049CD89E290E09093FF048093FE0446
:1045500088CC0036B1E01B0709F4B1C308F068C08D
:104560000830F1E01F0709F4A6C448F5063031E031
:10457000130709F488C4073041E0140709F02BCD74
:1045800000911C0510911D050115110509F471CC50
:1045900066E071E081EE94E00E941C0EF8018281D9
:1045A000F4E08F9FC0011124080F191FD801139642
:1045B0006D917C9181EE94E00E941C0E52CC0A30E9
:1045C00081E0180709F4B0C408F48DC40B30A1E0F1
:1045D0001A0709F000CD00911C0510911D05011569
:1045E000110509F446CC6AE071E081EE94E00E9486
:1045F0001C0EF80184A595A5009709F4AEC4DC0152
:10460000ED91FC910084F185E02DD801D0966C915C
:1046100009959B01AC0160E070E080E89FE30E9497
:104620002536AB01BC0181EE94E00E94DC0D19CC73
:104630000438B1E01B0709F4F6C488F40038F1E04F
:104640001F0709F4ACC4013821E0120709F0C3CCFC
:104650008FE290E09093FF048093FE0402CC063832
:1046600031E0130709F40BC5D0902005073811403D
:1046700008F4ADC4ED2DF0E0EE0FFF1FE25EFA4F3F
:10468000E080F180F701C08066E871E081EE94E09F
:104690000E941C0E8091E1049091E20461E06D0D96
:1046A000DC01ED91FC910190F081E02D0995809164
:1046B000E1049091E20461E06C0DDC01ED91FC916C
:1046C0000190F081E02D099510E000E08091E10477
:1046D0009091E2042C2D201BD701E6E0E29FA00D73
:1046E000B11D11249D01200F311FDC01ED91FC91C2
:1046F0000190F081E02DD90111966C9109950F5F21
:104700001F4F0430110511F7ACCB0C3082E01807B5
:1047100009F4BEC508F0E0C00530A2E01A0709F4AC
:104720002CC508F072C00D38E1E01E0709F493C4EF
:1047300008F5093821E0120709F4D2C40A3831E03B
:10474000130709F048CC5092FF044092FE041092E7
:104750000D058EE290E09093010580930005109284
:10476000130510921405109215051092160510925B
:104770000C0577CB013042E0140709F4EBC4033099
:1047800082E0180709F027CCE0912505F0E0EE0F54
:10479000FF1FED5DFA4F808191810E947C0BF090AC
:1047A0002505EF2DF0E0EE0FFF1FED5DFA4F0081C4
:1047B000118162E072E081EE94E00E941C0E809113
:1047C000E1049091E20461E06F0DDC01ED91FC9158
:1047D0000190F081E02D0995F801438154816581B4
:1047E000768181EE94E00E94FC0DD80117966D91C0
:1047F0007C9181EE94E00E941C0EF8016185728527
:1048000081EE94E00E941C0E2CCB083092E0190738
:1048100009F4FAC488F50630B2E01B0709F4DBC4DA
:104820000730E2E01E0709F0D6CBF0902505EF2D0A
:10483000F0E0EE0FFF1FED5DFA4F0081118166E0A1
:1048400072E081EE94E00E941C0E8091E104909150
:10485000E20461E06F0DDC01ED91FC910190F081CB
:10486000E02D0995F8014789508D618D728D81EE9B
:1048700094E00E94DC0DF5CA0A30F2E01F0709F44B
:10488000FFC4F09025050B30124008F4D5C4EF2D7D
:10489000F0E0EE0FFF1FED5DFA4F008111816AE03D
:1048A00072E081EE94E00E941C0E8091E1049091F0
:1048B000E20461E06F0DDC01ED91FC910190F0816B
:1048C000E02D0995F801638570E08091E1049091F5
:1048D000E2040E949A0EC5CA033732E0130709F4B6
:1048E00042C508F068C0013182E0180709F4FFC42E
:1048F00078F50F30A2E01A0709F4E1C40031B2E004
:104900001B0709F068CBF0902505EF2DF0E0EE0FC6
:10491000FF1FED5DFA4F008111816FE072E081EEC3
:1049200094E00E941C0E8091E1049091E20461E009
:104930006F0DDC01ED91FC910190F081E02D099566
:10494000F8016485758581EE94E00E941C0E89CA89
:104950000137E2E01E0709F4E4C408F0FCC40231A8
:1049600022E0120709F037CBF0902505EF2DF0E09B
:10497000EE0FFF1FED5DFA4F0081118161E172E0E2
:1049800081EE94E00E941C0E8091E1049091E2047B
:1049900061E06F0DDC01ED91FC910190F081E02D63
:1049A0000995F80143A554A565A576A581EE94E087
:1049B0000E94DC0D56CA063732E0130709F408C519
:1049C000D0F5043782E0180709F4D7C4053792E020
:1049D000190709F000CBF0902805EF2DF0E0EE0F5D
:1049E000FF1FEA5DFA4F0081118164E772E081EEFA
:1049F00094E00E941C0E8091E1049091E204011564
:104A0000110509F4D4C461E06F0DDC01ED91FC9156
:104A10000190F081E02D0995D801ED91FC91008481
:104A2000F185E02DC8010995AB01BC0181EE94E050
:104A30000E94DC0D16CA0236A4E71A0709F499C0D1
:104A40000336B4E71B0709F4AAC00436E5E61E07DF
:104A500009F0C1CA06CA0E94020103CA6DEC7BEAD2
:104A600081EE94E00E941C0EFCC963E070E081EED0
:104A700094E00E941C0E64E170E081EE94E00E94DC
:104A80001C0EEFC9E091E504F091E604309709F4BB
:104A9000F0C9CE0101960995182F67E170E081EE0B
:104AA00094E00E941C0E8091E1049091E204DC01EC
:104AB000ED91FC910190F081E02D612F0995412F3E
:104AC00050E0BE016F5F7F4F8091E1049091E2045E
:104AD0000E94A10EC6C964E170E081EE94E00E94DC
:104AE0001C0E0E948E02AB01BC0181EE94E00E947C
:104AF000FC0D0E946902AB01BC0181EE94E00E94B2
:104B0000FC0DAFC969E070E081EE94E00E941C0EDC
:104B10008091E1049091E204DC01ED91FC9101901F
:104B2000F081E02D63E009958091E1049091E20429
:104B3000DC01ED91FC910190F081E02D60E00995A0
:104B400090C95092FF044092FE0482E080930D05CC
:104B500084E090E090930105809300051092130586
:104B600010921405109215051092160510920C055E
:104B700078C963E674E781EE94E00E941C0E10E0B1
:104B800000E0B8018091E1049091E2040E94A80E37
:104B90000F5F1F4F0115B1E01B0799F762C9E5E0F0
:104BA000F0E0F093FF04E093FE048FEF80930D0597
:104BB00058C91091E00462E170E081EE94E00E9437
:104BC0001C0E8091E1049091E204DC01ED91FC91D6
:104BD0000190F081E02D612F099543C986E090E0B6
:104BE0009093FF048093FE043CC98EE190E0A0E026
:104BF000B0E08093180590931905A0931A05B0931F
:104C00001B0585E090E00E94AF0E2BC983E090E089
:104C10009093FF048093FE0488E190E09093010557
:104C20008093000581E0809317051092180510927B
:104C3000190510921A0510921B0513C91092180538
:104C40001092190510921A0510921B0587E090E04A
:104C50000E94AF0E06C9DE011196EEE0F0E021E2FF
:104C6000CF01019620935700E491ED93FC01449706
:104C700011F4E5E1F0E0ABA8BCA8AA15BB0581F7EB
:104C80006DE070E081EE94E00E941C0E69E070E03F
:104C90008091E1049091E2040E94A80E8091E104C9
:104CA0009091E204DC01ED91FC910280F381E02D12
:104CB00049E050E0BE016F5F7F4F0995D2C884E1A3
:104CC00090E09093FF048093FE04CBC885E190E0D0
:104CD0009093FF048093FE04C4C8C090D804D09081
:104CE000D904E090DA04F090DB0465E670E081EE30
:104CF00094E00E941C0EB701A60181EE94E00E9490
:104D0000FC0DAFC8E091F704F091F804309709F476
:104D1000B0C8099560931305709314058093150529
:104D2000909316056BE770E081EE94E00E941C0EF4
:104D30004091130550911405609115057091160569
:104D400081EE94E00E94FC0D8CC887E190E0909386
:104D5000FF048093FE0483E080930D0583E090E0E0
:104D6000909301058093000588E190E090930305FE
:104D700080930205109218051092190510921A05D9
:104D800010921B0510920C056CC8E0912C05F09157
:104D90002D05309709F46DC880912905099561C8E2
:104DA0004091290563E370E081EE94E00E94840E57
:104DB00058C884E290E09093FF048093FE0451C8A9
:104DC00086E290E09093FF048093FE044AC810911D
:104DD0002B050091290565E970E081EE94E00E94C1
:104DE0001C0E8091E1049091E20461E0610FDC010E
:104DF000ED91FC910190F081E02D09958091E10405
:104E00009091E204DC01ED91FC910190F081E02DA4
:104E1000602F099526C888E290E09093FF04809364
:104E2000FE041FC880911C0590911D05DC01ED91C9
:104E3000FC910680F781E02D099513C863E071E0CD
:104E400081EE94E00E941C0E8091E1049091E204B6
:104E5000DC01ED91FC910190F081E02D6AE0099573
:104E60000C94311FE0911C05F0911D05309711F451
:104E70000C94391F428164E071E081EE94E00E945D
:104E8000840E0C94311F5092FF044092FE04109245
:104E90000D058AE290E09093010580930005109241
:104EA0001305109214051092150510921605109214
:104EB0000C050C94311F5092FF044092FE04109296
:104EC0000D058BE290E09093010580930005109210
:104ED00013051092140510921505109216051092E4
:104EE0000C050C94311F00911C0510911D05011536
:104EF000110511F40C94391F68E071E081EE94E023
:104F00000E941C0EF8018281F4E08F9FC0011124E1
:104F1000080F191FD80115966D917C9181EE94E0D0
:104F20000E941C0E0C94311F5092FF044092FE040C
:104F300082E080930D058CE290E0909301058093D0
:104F40000005109213051092140510921505109289
:104F5000160510920C050C94311F06A517A560E0EC
:104F600070E080E89FE30115110509F45ACBD801E0
:104F700013966C9170E090E080E00E94D6346B0153
:104F80007C01F801608170E090E080E00E94D634FE
:104F90009B01AC01C701B6010E94923642CB5092F0
:104FA000FF044092FE0410920D058DE290E0909374
:104FB00001058093000510921305109214051092BC
:104FC00015051092160510920C050C94311FED2D4D
:104FD000F0E0EE0FFF1FE25EFA4F0190F081E02D4E
:104FE000108164E871E081EE94E00E941C0E8091D3
:104FF000E1049091E20461E06D0DDC01ED91FC9122
:105000000190F081E02D09958091E1049091E204F6
:1050100061E0610FDC01ED91FC910190F081E02DE8
:1050200009950C94311F5092FF044092FE04109297
:105030000D0580E390E090930105809300051092A8
:105040001305109214051092150510921605109272
:105050000C050C94311F6CE871E081EE94E00E9425
:105060001C0E8091E1049091E204DC01ED91FC9131
:105070000190F081E02D66E009950C94311F50926B
:10508000FF044092FE0482E080930D0581E390E0EE
:10509000909301058093000510921305109214055A
:1050A000109215051092160510920C050C94311FE4
:1050B0005092FF044092FE0410920D05E2E3F0E0EE
:1050C000F0930105E093000510921305109214056A
:1050D000109215051092160510920C050C94311FB4
:1050E000F0902005EF2DF0E0EE0FFF1FE25EFA4F8B
:1050F00000811181D801EC9068E871E081EE94E0C4
:105100000E941C0E8091E1049091E20461E06F0D19
:10511000DC01ED91FC910190F081E02D09958091E9
:10512000E1049091E20461E06E0DDC01ED91FC91EF
:105130000190F081E02D0995F801B6E0BE9DE00DEB
:10514000F11D11246581768181EE94E00E941C0E90
:105150000C94311F80912305909124050E947C0BB3
:10516000E0912505F0E0EE0FFF1FED5DFA4F808125
:1051700091810E94370E0C94311FF0902505EF2D80
:10518000F0E0EE0FFF1FED5DFA4F0081118164E04A
:1051900072E081EE94E00E941C0E8091E1049091F7
:1051A000E20461E06F0DDC01ED91FC910190F08172
:1051B000E02D0995F8016685778581EE94E00E94DF
:1051C0001C0ED80150966D917C9181EE94E00E9466
:1051D0001C0E0C94311F5092FF044092FE0482E09A
:1051E00080930D0584E390E0909301058093000582
:1051F00010921305109214051092150510921605C1
:1052000010920C050C94311F5092FF044092FE0442
:1052100010920D0585E390E09093010580930005C1
:105220001092130510921405109215051092160590
:1052300010920C050C94311FEF2DF0E0EE0FFF1FC4
:10524000ED5DFA4F0081118168E072E081EE94E03B
:105250000E941C0E8091E1049091E20461E06F0DC8
:10526000DC01ED91FC910190F081E02D0995F801B0
:10527000638D748D81EE94E00E941C0E0C94311F9E
:1052800086E390E09093FF048093FE040C94311F1A
:10529000E0912505F0E0EE0FFF1FED5DFA4F019064
:1052A000F081E02DAA24AA94BA2CB786A686118A8A
:1052B000108A148E138E81E083870C94311F5092D4
:1052C000FF044092FE0410920D0587E390E0909356
:1052D0000105809300051092130510921405109299
:1052E00015051092160510920C050C94311F509262
:1052F000FF044092FE0482E080930D0538E3A32E64
:10530000B12CB0920105A0920005109213051092E5
:105310001405109215051092160510920C050C94A8
:10532000311F8091260590912705DC01ED91FC91BC
:105330000280F381E02D0995E0912805F0E0EE0F61
:10534000FF1FEA5DFA4F6081718181EE94E00E9457
:10535000580E0C94311FE9E3F0E0F093FF04E09362
:10536000FE040C94311F4091280562E772E081EE43
:1053700094E00E94840E0C94311F5092FF044092DE
:10538000FE0482E080930D058AE3A82EB12CB09232
:105390000105A092000510921305109214051092B9
:1053A00015051092160510920C050C94311FDC01A6
:1053B000ED91FC910190F081E02D60E0099540E0D5
:1053C00050E0BA0181EE94E00E94DC0D0C94311F94
:1053D000E0912805F0E0EE0FFF1FEA5DFA4F8081B3
:1053E0009181DC01ED91FC910284F385E02D09951A
:1053F0000C94311F8091300590913105009711F484
:105400000C94391F40E050E0BA010E949D090C94B1
:10541000311FE0913205F0913305309711F40C946F
:10542000391F09950C94311F0091300510913105F9
:105430000115110511F40C94391F61E470E081EE3F
:1054400094E00E941C0EF80142A953A964A975A911
:1054500081EE94E00E94DC0D0C94311F5092FF0409
:105460004092FE0482E080930D0584E490E09093E6
:1054700001058093000510921305109214051092F7
:1054800015051092160510920C050C94311F009111
:105490003005109131050115110511F40C94391FD7
:1054A00065E470E081EE94E00E941C0ED8019E96A7
:1054B0004D915D916D917C91D19781EE94E00E9428
:1054C000DC0D0C94311F5092FF044092FE0482E0E8
:1054D00080930D05109301050093000510921305AC
:1054E00010921405109215051092160510920C05D5
:1054F0000C94311F5092FF044092FE0482E080938E
:105500000D0586E490E090930105809300051092CC
:10551000130510921405109215051092160510929D
:105520000C050C94311F00913005109131050115C7
:10553000110511F40C94391F69E470E081EE94E0D8
:105540000E941C0EC8010E949808AB01BC0181EEAC
:1055500094E00E94DC0D0C94311F009130051091F5
:1055600031050115110511F40C94391F61E570E046
:1055700081EE94E00E941C0EC8010E943F08AB011E
:10558000BC0181EE94E00E94DC0D0C94311F50921E
:10559000FF044092FE0482E080930D0588E490E0D1
:1055A0009093010580930005109213051092140545
:1055B000109215051092160510920C050C94311FCF
:1055C00060903005709031056114710411F40C94F1
:1055D000391F63E570E081EE94E00E941C0ED30158
:1055E000DD968D919C91DE97892B49F41A964D9109
:1055F0005D916D917C911D97C3010E946C088301A0
:10560000015C1F4FF80180819181892B51F4D301F6
:105610001E964D915D916D917C915197C3010E94B1
:105620001308F30125AD36ADD8018D919C9140E072
:1056300050E0BA012817390709F463C0ED5BFF4F4A
:10564000FEABEDAB80819181892B51F4D301529651
:105650004D915D916D917C915597C3010E94BC085D
:10566000C3010E9498084B015C01C3010E943F08DE
:105670006B017C01F30125AC36ACD8010D911C9176
:10568000C101801B910BEDA9FEA9608171810E946F
:10569000243890E080E00E94D6346DAB7EAB8FABB7
:1056A00098AF200E311E36942794B10190E080E02F
:1056B0000E94D6349B01AC016DA97EA98FA998AD3B
:1056C0000E94373520E034E244E759E40E949236E4
:1056D0006DAB7EAB8FAB98AFA5019401C701B6014E
:1056E0000E9425362DA93EA94FA958AD0E94923699
:1056F000AB01BC01D30152964D935D936D937C93A6
:10570000559781EE94E00E94DC0D0C94311F0091BE
:105710003605109137050115110511F40C94391F48
:1057200065E570E081EE94E00E941C0ED801ED91D9
:10573000FC910488F589E02DC8010995BC0181EE32
:1057400094E00E941C0E0C94311F5092FF04409272
:10575000FE0410920D058AE490E090930105809379
:105760000005109213051092140510921505109261
:10577000160510920C050C94311F5092FF044092B4
:10578000FE0410920D058BE490E090930105809348
:105790000005109213051092140510921505109231
:1057A000160510920C050C94311FE114F10411F44C
:1057B0000C94391F69E570E081EE94E00E941C0EA4
:1057C000F701668170E08091E1049091E2040E940B
:1057D0009A0E0C94311F109213051092140510921A
:1057E0001505109216058CE490E09093FF048093C9
:1057F000FE040C94311FA12CB12C6501A394A0923E
:105800001305B0921405C0921505D09216058CE4CC
:1058100090E09093FF048093FE040C94311F00915C
:105820003605109137050115110511F40C94391F37
:105830006DE570E081EE94E00E941C0EC8010E94AC
:10584000EE11BC0181EE94E00E941C0E0C94311FFD
:1058500000913605109137050115110511F40C94CE
:10586000391F6FE570E081EE94E00E941C0EE0901D
:10587000E104F090E204D701ED91FC91C080D18069
:1058800069E0C8010E94CE11F801858F68E084FFAD
:1058900061E0C701F60109950C94311F8EE490E098
:1058A0009093FF048093FE040C94311F0091360501
:1058B000109137050115110511F40C94391F61E69B
:1058C00070E081EE94E00E941C0ED80116968C9137
:1058D0001697882349F017966D917C9181EE94E09C
:1058E0000E941C0E0C94311FC8010E940612BC01BC
:1058F00081EE94E00E941C0E0C94311F3197EE341F
:10590000F10508F07BC0E957F34D0C947938D52C9C
:10591000FE2CFA2C372DB22D262EFE2CFE2CFE2C22
:10592000FE2CFE2CFE2CFE2CFE2CFE2CFE2CFE2C27
:10593000FE2CFE2CFE2C292E632E8B2EAD2EFE2C43
:10594000FE2CFE2CFE2CFE2CFE2CFE2CFE2CFE2C07
:10595000FE2CFE2CCC2EFE2CD02ED72EDA2EE62EB0
:10596000ED2E1A2F472F532FA52F842FCB2FF12F3A
:10597000443075307830A230CF30DE300A313C31DF
:105980004031FE2CFE2CFE2CFE2CFE2CFE2CFE2C80
:10599000FE2CFE2C6631763186319831A831B83133
:1059A000C831F93128324732743280910C058A01AE
:1059B00030E020E0082E04C0000F111F221F331F0B
:1059C0000A94D2F740911305509114056091150582
:1059D00070911605400F511F621F731F40931305EE
:1059E000509314056093150570931605885F809396
:1059F0000C0504C0452B81F40E94020180910D0525
:105A0000882309F47FC590910E0591117BC58150C3
:105A100080930D050C94311F8FEF860F80930D0539
:105A200081E080930E0580911705882339F3E0917A
:105A3000F304F091F4043097B9F080911805909137
:105A40001905A0911A05B0911B058C019D010F5FEE
:105A50001F4F2F4F3F4F00931805109319052093A8
:105A60001A0530931B05099510921705C7CFCA0177
:105A7000B0E0A0E020910C0504C0880F991FAA1F78
:105A8000BB1F2A95D2F700911305109114052091A0
:105A9000150530911605800F911FA21FB31FBF700F
:105AA0008093130590931405A0931505B0931605E4
:105AB000F4E056954795FA95E1F75093FA04409330
:105AC000F9040091D3041091D404D801ED91FC9114
:105AD0000680F781E02DC8010995D8015296ED9115
