:100000000C9464000C9445140C941E140C948C00F5
:100010000C948C000C948C000C948C000C946C143C
:100020000C948C000C948C000C948C000C948C0020
:100030000C948C000C948C000C948C000C948C0010
:100040000C94D4130C948C000C94EE140C94C814DF
:100050000C948C000C948C000C948C000C948C00F0
:100060000C9420150C948C00020000000024002742
:10007000002A0000000000230026002900000000E4
:100080000800020100000304070000000000000057
:100090000001020408102040800102040810200121
:1000A000020408102000000000250028002B000496
:1000B000040404040404040202020202020303030F
:1000C000030303003B16862911241FBECFEFD8E09F
:1000D000DEBFCDBF25E0A4E4B2E001C01D92A23096
:1000E000B207E1F712E0A0E0B1E0ECE2FBE502C00C
:1000F00005900D92A434B107D9F710E0C3E6D0E023
:1001000004C02197FE010E94592CC236D107C9F7BD
:100110000E944D180C94892D0C940000CF92DF9210
:10012000EF92FF92CF93DF93EC016A017B01E889A4
:10013000F98982E08083C11481EED806E104F104DC
:10014000A1F060E079E08DE390E0A70196010E94C4
:10015000182C215031094109510956954795379579
:100160002795211580E1380798F0E889F9891082F0
:1001700060E874E88EE190E0A70196010E94182CD7
:1001800021503109410951095695479537952795D1
:10019000EC85FD853083EE85FF852083188EEC8904
:1001A000FD8986E08083EA89FB8980818061808384
:1001B000EA89FB89808188608083EA89FB89808164
:1001C00080688083EA89FB8980818F7D8083DF91CD
:1001D000CF91FF90EF90DF90CF900895EEE9F4E09B
:1001E00015A614A617A616A611AA10AA13AA12AA33
:1001F00015AA14AA17AA16AA11AE10AE1092DB0403
:100200001092DC041092DD041092DE0413A613AEEB
:1002100014AE1092E3041092DF041092E0041092E6
:10022000E1041092E20412AE0895EEE9F4E087A131
:1002300090A5B0E0A0E022AD04C0880F991FAA1FCE
:10024000BB1F2A95D2F7EFEDF4E040815181628126
:100250007381840F951FA61FB71F80839183A2838C
:10026000B383682F792F8A2F9B2F0895CF93DF9325
:1002700000D000D0CDB7DEB769837A838B839C83AF
:100280008091AC049091AD04DC01ED91FC91028071
:10029000F381E02D44E050E0BE016F5F7F4F099590
:1002A0000F900F900F900F90DF91CF9108958330B2
:1002B00081F028F4813099F08230A9F008958730D8
:1002C000A9F08830C9F08430B1F4809180008F7D2E
:1002D00003C0809180008F7780938000089584B55B
:1002E0008F7784BD089584B58F7DFBCF8091B0005A
:1002F0008F778093B00008958091B0008F7DF9CF03
:10030000CF93DF93282F30E0F901E358FF4F84911A
:10031000F901EF56FF4FD491F901E155FF4FC49118
:10032000CC23A1F081110E945701EC2FF0E0EE0FD9
:10033000FF1FED58FF4FA591B491EC91ED2381E0A3
:1003400090E009F480E0DF91CF91089580E090E0A3
:10035000FACF1F93CF93DF93282F30E0F901E358B2
:10036000FF4F8491F901EF56FF4FD491F901E15508
:10037000FF4FC491CC23A9F0162F81110E94570181
:10038000EC2FF0E0EE0FFF1FEB55FF4FA591B4915E
:100390008FB7F894EC91111108C0D095DE23DC934F
:1003A0008FBFDF91CF911F910895DE2BF8CFCF93B0
:1003B000DF9390E0FC01EF56FF4F249181559F4F52
:1003C000FC0184918823D1F090E0880F991FFC01F3
:1003D000E759FF4FA591B491FC01EB55FF4FC59133
:1003E000D49161110EC09FB7F8948C91E22FE095E3
:1003F0008E238C932881E223E8839FBFDF91CF91E6
:1004000008958FB7F894EC91E22BEC938FBFF6CF61
:100410001F93CF93DF93182FEB0161E00E94D70168
:10042000209739F460E0812FDF91CF911F910C94D8
:10043000A901CF3FD10511F461E0F5CFE12FF0E044
:10044000E358FF4FE491E33031F140F4E130B1F093
:10045000E230E1F0C038D1057CF7E4CFE73029F194
:10046000E83059F1E430B1F78091800080628093E8
:100470008000D0938B00C0938A0004C084B580684C
:1004800084BDC7BDDF91CF911F91089584B580626F
:1004900084BDC8BDF7CF80918000806880938000C4
:1004A000D0938900C0938800EDCF8091B000806820
:1004B0008093B000C093B300E5CF8091B00080621C
:1004C0008093B000C093B400DDCF8E3008F08E5022
:1004D0008770806480937C0080917A008064809330
:1004E0007A0080917A0086FDFCCF8091780090910F
:1004F000790008953FB7F8948091D3029091D40287
:10050000A091D502B091D60226B5A89B05C02F3F79
:1005100019F00196A11DB11D3FBFBA2FA92F982F29
:100520008827BC01CD01620F711D811D911D42E024
:10053000660F771F881F991F4A95D1F708952FB727
:10054000F8946091CF027091D0028091D102909185
:10055000D2022FBF089581E08093440208950E9443
:100560009F026C507E4F8F4F9F4F6093C8027093D5
:10057000C9028093CA029093CB028091CC028F5F14
:100580008093CC020895CF93DF93CDB7DEB7C159E6
:10059000D1090FB6F894DEBF0FBECDBF382F81E969
:1005A000EEE9F1E0DE01119601900D928A95E1F7F6
:1005B000DE01AD56BF4FE1E98E918C3511F0E1506F
:1005C000D9F7EF5F80E98E1B41E050E04C0F5D1FD3
:1005D0004E0F511DFA01232FA32FB92F9A2F921BD3
:1005E000981718F491919D93F9CFCF56DF4F0FB61E
:1005F000F894DEBF0FBECDBFDF91CF910895CF93AA
:10060000DF93CDB7DEB72C970FB6F894DEBF0FBEE1
:10061000CDBF2CE0EFE2F2E0DE01119601900D92E9
:100620002A95E1F7FE0131969C01255F3F4F4191EC
:10063000DC014D93CD01A217B307C9F78BE02C96CF
:100640000FB6F894DEBF0FBECDBFDF91CF910895F6
:10065000CF93DF93CDB7DEB729970FB6F894DEBFFF
:100660000FBECDBF29E0EBE3F2E0DE011196019071
:100670000D922A95E1F7FE0131969C01285F3F4FCC
:100680004191DC014D93CD01A217B307C9F788E072
:1006900029960FB6F894DEBF0FBECDBFDF91CF9184
:1006A0000895CF92DF92EF92FF9285E10E9465025A
:1006B000BC01990F880B990B0E949D2920E030EC1A
:1006C0004FE754E40E94572B20E030E048EC52E41E
:1006D0000E94FC296B017C0120E030E0A9010E940E
:1006E000FF2B20E030E040E05FE387FD10C0C70152
:1006F000B6010E94EB2A0E94C92B0E949D290E94EC
:10070000D02B862FFF90EF90DF90CF900895C701F8
:10071000B6010E94EA2AEFCF089590910001891353
:100720000BC0E8E6F0E0E4919FEF90930001E13028
:1007300049F028F0E23061F060E00C94A9011092D9
:100740006E00FACF90916F009D7F90936F00F4CF71
:10075000909170009D7F9093700091E09093B00015
:100760009091B100987F94609093B1001092B30083
:10077000E3CF4F925F926F927F928F929F92AF9250
:10078000BF92CF92DF92EF92FF920F931F93CF937E
:10079000DF9300D000D01F92CDB7DEB78B012901C7
:1007A0003A01909100018917C9F09F3F09F47EC07A
:1007B0000F900F900F900F900F90DF91CF911F919E
:1007C0000F91FF90EF90DF90CF90BF90AF909F90F0
:1007D0008F907F906F905F904F900895E8E6F0E0E3
:1007E00094919D8397FDE4CF61E00E94D7018D81B4
:1007F000882321F09D81923009F04AC14801B12C33
:10080000A12C60E072E18AE790E0A50198010E94C6
:100810003A2C29833A834B835C8369017A0181E016
:10082000C81AD108E108F1089FEFC916D104E10404
:10083000F10409F00CF401C160E472E48FE090E08F
:10084000A50198010E943A2C69017A0181E0C81A39
:10085000D108E108F1089D81923009F0A2C08FEF24
:10086000C816D104E104F10409F00CF4E6C160E912
:1008700070ED83E090E0A50198010E943A2C690197
:100880007A0191E0C91AD108E108F1088FEFC81682
:10089000D104E104F10411F00CF07FC183E09091E8
:1008A000B100987F892B8093B100CFC08093000165
:1008B000E8E6F0E094919D839F3F09F479CF913071
:1008C00041F150F0923009F446C09D8197FD70CF00
:1008D00061E00E94D7018ECF14BC15BC94B5926024
:1008E00094BD95B5916095BD282F30E0F901E15593
:1008F000FF4FE491F0E0EE0FFF1FEB55FF4F4591E6
:100900005491F901EF56FF4FE491E093B8021D8234
:100910006BCF1092800010928100909181009860BE
:100920009093810090918100916090938100282F95
:1009300030E0F901E155FF4FE491F0E0EE0FFF1FC9
:10094000EB55FF4F45915491F901EF56FF4FE4915C
:10095000E093B70249CF1092B0001092B10090918D
:10096000B00092609093B0009091B100916090932C
:10097000B100282F30E0F901E155FF4FE491F0E09C
:10098000EE0FFF1FEB55FF4F459154915093C2025C
:100990004093C102F901EF56FF4FE491E093C30287
:1009A00023CF9FEFC916D104E104F10409F00CF440
:1009B0006DC068E478EE81E090E0A50198010E94A6
:1009C0003A2C69017A0181E0C81AD108E108F108DE
:1009D0009D81992309F4FAC08FEFC816D104E10470
:1009E000F10411F00CF0FBC0EFC064E274EF80E0A2
:1009F00090E0A50194010E943A2C69017A0181E0FE
:100A0000C81AD108E108F10885E09FEFC916D104A2
:100A1000E104F10409F008F442CF62E17AE780E0F2
:100A200090E0A50194010E943A2C69017A0181E0CD
:100A3000C81AD108E108F108E5C081E09D81911153
:100A40002ECF95B5987F892B85BD2FEF3FEFA9015C
:100A5000411451046104710409F043C09D81913037
:100A600009F45EC0923009F46DC09111A1CEC7BCEB
:100A70002093BD023093BE024093BF025093C00248
:100A800080916E00826080936E0092CE82E0D6CF1D
:100A9000B12CA12C60E072E18AE790E0A5019801F9
:100AA0000E943A2C69017A0181E0C81AD108E10854
:100AB000F108C114D10491E0E906F10404F591E0D4
:100AC0008D81813011F680918100887F892B809300
:100AD00081002FEF3FEFA90141145104610471041B
:100AE000F9F0D801AA0FBB1FA30192010E94D02ADE
:100AF00028EE33E040E050E00E94182CAFCF68E4CD
:100B000078EE81E090E0A50198010E943A2C6901FD
:100B10007A0181E0C81AD108E108F10893E0D0CF4A
:100B2000D0928900C09288002093B9023093BA0213
:100B30004093BB025093BC0280916F00826080930F
:100B40006F0036CEC092B3002093C4023093C5022A
:100B50004093C6025093C7028091700082608093D8
:100B6000700026CE84E09FEFC916D104E104F104A1
:100B700009F008F466CFC980DA80EB80FC808AE057
:100B8000F594E794D794C7948A95D1F781E0C81A71
:100B9000D108E108F10885E054CF68E478EE81E0FF
:100BA00090E0A50198010E943A2C69017A0181E048
:100BB000C81AD108E108F1089FEFC916D104E10471
:100BC000F10411F00CF011CF84E069CE83E09FEFC7
:100BD000C916D104E104F10409F00CF432CF62E14A
:100BE0007AE780E090E0A50194010E943A2C690127
:100BF0007A0181E0C81AD108E108F1089D819923A2
:100C000009F4B0CF86E09FEFC916D104E104F104E6
:100C100009F008F444CEC980DA80EB80FC809AE0C9
:100C2000F594E794D794C7949A95D1F781E0C81AC0
:100C3000D108E108F10887E032CE82E030CEAF92F1
:100C4000BF92CF92DF92EF92FF920F931F93CF93B9
:100C5000DF936C017B018B01040F151FEB015E011B
:100C6000AE18BF08C017D10759F06991D601ED91B0
:100C7000FC910190F081E02DC6010995892B79F74F
:100C8000C501DF91CF911F910F91FF90EF90DF9001
:100C9000CF90BF90AF900895FC01538D448D252FC8
:100CA00030E0842F90E0821B930B541710F0CF9606
:100CB000089501970895FC01918D828D981761F038
:100CC000A28DAE0FBF2FB11D5D968C91928D9F5F4F
:100CD0009F73928F90E008958FEF9FEF0895FC012E
:100CE000918D828D981731F0828DE80FF11D858DE1
:100CF00090E008958FEF9FEF0895FC01918D228D74
:100D0000892F90E0805C9F4F821B91098F739927F8
:100D1000089581E094E00E947D0621E0892B09F48A
:100D200020E0822F089580E090E0892B29F00E9436
:100D3000890681110C9400000895FC01A48DA80F70
:100D4000B92FB11DA35ABF4F2C91848D90E001960D
:100D50008F739927848FA689B7892C93A089B1892D
:100D60008C91837080648C93938D848D981306C0CE
:100D70000288F389E02D80818F7D80830895EF9232
:100D8000FF920F931F93CF93DF93EC0181E0888F45
:100D90009B8D8C8D98131AC0E889F989808185FF15
:100DA00015C09FB7F894EE89FF896083E889F989B7
:100DB00080818370806480839FBF81E090E0DF91B9
:100DC000CF911F910F91FF90EF900895F62E0B8D0C
:100DD00010E00F5F1F4F0F731127E02E8C8D8E11C7
:100DE0000CC00FB607FCFACFE889F989808185FF2E
:100DF000F5CFCE010E949D06F1CFEB8DEC0FFD2FBC
:100E0000F11DE35AFF4FF0829FB7F8940B8FEA89E8
:100E1000FB8980818062CFCFCF93DF93EC01888DF7
:100E20008823B9F0AA89BB89E889F9898C9185FD65
:100E300003C0808186FD0DC00FB607FCF7CF8C91F3
:100E400085FFF2CF808185FFEDCFCE010E949D0608
:100E5000E9CFDF91CF91089520916D02260F3327BE
:100E6000331F21323105ECF420919102FC0190E016
:100E700080E0243069F082E00895A0916D02219114
:100E8000AC01435B5D4FA40FB52FB11D2C930196B0
:100E9000861798F380916D02680F60936D0280E071
:100EA000089581E0089508958FEF9FEF08958FEFE3
:100EB0009FEF08958091460290E091958195910968
:100EC0000895CF93DF93CB01EA01642F0E942C0792
:100ED000CE01DF91CF910895CF93DF931F92CDB7CD
:100EE000DEB7698361E0CE0101960E942C0781E0A4
:100EF00090E00F90DF91CF91089590E080E0089509
:100F000090E080E0089581E090E0089580E0089509
:100F100080E00895CF92DF92EF92FF92CF93DF931C
:100F2000EC01CB01BA010E949D296B017C01E88193
:100F3000F9810284F385E02DCE010995BC0190E092
:100F400080E00E949B299B01AC01C701B6010E9471
:100F5000572B2E813F81488559850E94572B2A8126
:100F60003B814C815D810E94FC29DF91CF91FF90F4
:100F7000EF90DF90CF900895CF92DF92EF92FF92A3
:100F8000CF93DF93EC01CB01BA012A813B814C81E5
:100F90005D810E94572B2E813F81488559850E9493
:100FA000FC296B017C01E881F9810284F385E02D45
:100FB000CE010995BC0190E080E00E949B29A70129
:100FC00096010E94FC290E94C92BDF91CF91FF90CE
:100FD000EF90DF90CF900895DC019D968D919C91CC
:100FE000DC01ED91FC910484F585E02D0994DC0190
:100FF0009D968D919C91DC01ED91FC910284F3858D
:10100000E02D0994DC019D968D919C91DC01ED9180
:10101000FC910084F185E02D0994DC019D968D9171
:101020009C91DC01ED91FC910680F781E02D099403
:10103000DC019D968D919C91DC01ED91FC910480E9
:10104000F581E02D0994DC019D968D919C91DC0148
:10105000ED91FC910280F381E02D0994CF92DF9213
:10106000EF92FF92CF93DF93EC016A017B010E9424
:10107000BC079B01AC0160E472E48FE090E00E9449
:10108000182C3AAB29AB8FA598A98217930720F4A7
:1010900038AB2FA71EAA1DAACE86DF86E88AF98A5A
:1010A000DF91CF91FF90EF90DF90CF900895CF9395
:1010B000DF93EC0189A99AA9892B39F44E855F85C4
:1010C00068897989CE010E942E0829A93AA950E0A1
:1010D00040E060E472E48FE090E00E943A2CBA01B4
:1010E000A901CE010E948A076E877F87888B998B22
:1010F000DF91CF910895CF92DF92EF92FF92CF933D
:10110000DF93EC016A017B010E94BC079B01AC01EB
:1011100060E472E48FE090E00E94182C38AB2FA7B7
:1011200089A99AA92817390720F43AAB29AB1EAA36
:101130001DAACA86DB86EC86FD86DF91CF91FF90E3
:10114000EF90DF90CF900895CF93DF93EC018FA5C0
:1011500098A9892B39F44A855B856C857D85CE01FC
:101160000E947B082FA538A950E040E060E472E4BB
:101170008FE090E00E943A2CBA01A901CE010E94B2
:101180008A076A877B878C879D87DF91CF91089537
:101190006F927F928F929F92AF92BF92CF92DF9287
:1011A000EF92FF920F931F93CF93DF93EC016A01AD
:1011B0007B018FA598A9892B39F44A855B856C85BD
:1011C0007D85CE010E947B0889A99AA9892B39F4D3
:1011D0004E855F8568897989CE010E942E08CE01EF
:1011E0000E94A4084B015C01CE010E9457080FA584
:1011F00018A969A87AA8A50194010E94EA2A20E00A
:1012000034E244E759E40E94FC29A70196010E94B8
:10121000572B4B015C01B801660D771D76956795DC
:1012200090E080E00E949B299B01AC01C501B401C4
:101230000E94572B0E94D02B90E080E00E949B29B7
:101240004B015C01B8016619770990E080E00E94CB
:101250009B29A50194010E94572B4B015C0120E0C2
:1012600030E0A9010E94FF2B20E030E040E05FE386
:1012700087FD1FC0C501B4010E94EB2A0E94C92B43
:10128000272F60167106D0F06DAB7EABCA8ADB8A61
:10129000EC8AFD8ADF91CF911F910F91FF90EF9023
:1012A000DF90CF90BF90AF909F908F907F906F9086
:1012B0000895C501B4010E94EA2AE0CF862F922F3B
:1012C000009711F481E090E09EAB8DABDFCF0F93E0
:1012D0001F93CF93DF93EC01E881F9810280F381C2
:1012E000E02D0995FE01FF96108211821282138271
:1012F0008FA998ADA9ADBAAD8BAF9CAFADAFBEAF66
:101300000E947A02FE01E75BFF4FCB5BDF4F088153
:1013100019812A813B81DC01CB01800F911FA21F23
:10132000B31F80839183A283B383DF91CF911F91F9
:101330000F9108958F929F92AF92BF92CF92DF92BA
:10134000EF92FF920F931F93CF93DF93FC01E35B28
:10135000FF4F6A017B01C082D182E282F382FC01ED
:1013600020A12111F4C08B017A01EC01A1A0B2A04F
:10137000C3A0D4A09A01AB01B501C6010E94FF2B06
:10138000181614F457016801EDA0FEA00FA118A5CE
:101390009501A601B701C8010E94962987FF02C0E6
:1013A00075018601A701B801CE010E94BC076BAF91
:1013B0007CAF8DAF9EAFC701D80189A79AA7ABA715
:1013C000BCA78E01015C1F4FF80180819181A28131
:1013D000B381892B8A2B8B2B19F0CE010E946709D0
:1013E0004FA958AD69AD7AAD8BAD9CADADADBEAD7D
:1013F000481759076A077B0709F4A9C08FA598A960
:10140000892B39F44A855B856C857D85CE010E94E8
:101410007B0889A99AA9892B39F44E855F8568894B
:101420007989CE010E942E0889A99AA92FA538A9E9
:101430008217930748F4892B39F44A895B896C89B0
:101440007D89CE010E94C808E881F9810680F78174
:10145000E02D6E8DCBACDCACEDACFEAC8FA998ADC5
:10146000A9ADBAAD8C159D05AE05BF050CF07CC0CD
:1014700081E08F8FCE010995E881F9810190F0819B
:10148000E02DCE0109957E01F9E4EF0EF11CF70184
:1014900080819181A281B381892B8A2B8B2B51F181
:1014A0000E947A02F70180809180A280B380681543
:1014B00079058A059B05F0F40E947A02F701808085
:1014C0009180A280B3803497C080D180E280F38085
:1014D000DC01CB0188199909AA09BB09C816D906EC
:1014E000EA06FB0610F4D701C601F8018083918358
:1014F000A283B383FE01ED5BFF4F20813181F801B0
:1015000080819181A281B381820F931FA11DB11DA2
:1015100080839183A283B3830E947A02AB01BC01D2
:101520002BA93CA9F80180819181A281B381820F0E
:10153000931FA11DB11D840F951FA61FB71F808388
:101540009183A283B3838FA598A99CAB8BABDF91CA
:10155000CF911F910F91FF90EF90DF90CF90BF90B0
:10156000AF909F908F9008951F8E81E0682782CF63
:1015700061E0FC0185810C94A901FC01828D938DB1
:101580000895653C29E0720790F024EC39E0DC0115
:101590005B963C932E935A97DC0158966D917C9103
:1015A0005997ED91FC910288F389E02D0994FC0193
:1015B000738F628FF1CFDC015C96EC91EB3090F48D
:1015C000F0E0EB51F54F0C94592CF00AF00AF40AB4
:1015D000F40AF70AFA0AFD0A000B030B060B090BC3
:1015E00021E030E0C901089522E030E0FBCF24E0A3
:1015F00030E0F8CF28E030E0F5CF20E130E0F2CF66
:1016000020E230E0EFCF20E430E0ECCF20E830E023
:10161000E9CF20E031E0E6CFFC01238925FF05C0BA
:10162000221F2227221F822F089586810E94800177
:1016300021E0892BC1F720E0F6CFCF93DF93EC01B7
:101640006B81617089810E94A9016B8162708A81BE
:10165000DF91CF910C94A9018EBD00000DB407FE5F
:10166000FDCF8EB5089560E070E080E89FE30895B7
:101670000895FC0185896FEF70E0681B7109072EE2
:10168000000C880B990B0E949D2920E030E04FE769
:1016900053E40E94572B0895CF93DF93EC01CB01C5
:1016A000BA0120E030E04FE753E40E94FC290E9499
:1016B000D02B60956D8B8C8980FF06C070E08A8985
:1016C000DF91CF910C940802DF91CF910895DC0156
:1016D0001396ED91FC9180810895CF92DF92EF9265
:1016E000FF920F931F93CF93DF93EC01EB81FC816B
:1016F000008110E0EE24E394F12C8985181728F579
:10170000C12ED12CFE01EC0DFD1D82850E948001B1
:10171000EB81FC819701012E01C0220F0A94EAF7A8
:10172000322F3095208123232083EB81FC8121E01F
:1017300030E0892B09F020E001C0220FCA94EAF7BB
:101740008081282B20831F5FD8CF0E947A026D836F
:101750007E838F839887EB81FC8181E09081901359
:1017600001C080E0DF91CF911F910F91FF90EF902A
:10177000DF90CF900895CF92DF92EF92FF920F9378
:101780001F93CF93DF93EC016A017B010CA51DA58C
:1017900001151105D9F0AB01960160E070E080E819
:1017A0009FE30E94EA2AAB01BC01D801ED91FC91B4
:1017B0000480F581E02D28A9C801DF91CF911F9108
:1017C0000F91FF90EF90DF90CF9009940EA4DFA5CA
:1017D000C02D2097C1F0688170E090E080E00E9409
:1017E0009B29A70196010E94FC290E94D02B6B83A4
:1017F000CE01DF91CF911F910F91FF90EF90DF907D
:10180000CF900C941D0BDF91CF911F910F91FF9002
:10181000EF90DF90CF900895FC0183A50C948D0389
:101820006A3018F4DC0112966C93DC01ED91FC91A6
:101830000280F381E02D0994DC011296EC91B4E072
:10184000EB9FF0011124E80FF91F25813681638198
:101850007481FC0183A550E040E02F3F320719F46A
:1018600020E030E0A9010C94B903CF93DF93EC01A1
:1018700061E08BA50E94D70160E08BA50E94A901C1
:101880008CA59DA5009739F0DC01ED91FC910190AC
:10189000F081E02D09950EA4DFA5C02D2097A9F0B9
:1018A00061E089810E94D70160E089810E94A901DD
:1018B00061E08A810E94D70160E08A810E94A901CB
:1018C000CE01DF91CF910C941D0BDF91CF91089544
:1018D0007F928F929F92AF92BF92CF92DF92EF92C0
:1018E000FF920F931F93CF93DF93EC018A890E949D
:1018F00065029C838B830E947A026D837E838F8333
:1019000098870E949F020B811C814C855D852889E8
:1019100039894017510760F421153105A9F0CB8CA6
:10192000DC8CED8CFE8CC616D706E806F90660F452
:101930001D870C876B017C01C20ED31EE11CF11CBC
:10194000CB8EDC8EED8EFE8E4E855F8504171507DF
:1019500060F42115310599F0CF8CD8A0E9A0FAA048
:10196000C616D706E806F90650F41F870E87620FE1
:10197000731F811D911D6F8F78A389A39AA3CC84B7
:10198000DD84EE84FF84EC18FD0879847720D1F0A3
:10199000B70190E080E00E949B292D893E894F8904
:1019A000588D0E94FC294B015C01B60190E080E05B
:1019B0000E949B29A50194010E94EB2A0E94D02B32
:1019C0007A8F698F8A859B85E816F90610F4711065
:1019D00009C0298D3A8D8981882331F081E0021771
:1019E000130730F480E004C081E002171307D0F73A
:1019F00048818883EDA1FEA19A8121E030E001C0F9
:101A0000220F9A95EAF72095908129232083EDA152
:101A1000FEA128819A8101C0220F9A95EAF7908150
:101A2000292B20838427DF91CF911F910F91FF9065
:101A3000EF90DF90CF90BF90AF909F908F907F906E
:101A40000895CF93DF9300D000D0CDB7DEB74983A0
:101A50005A836B837C83DC018D919C91DC01ED9139
:101A6000FC910280F381E02D44E050E0BE016F5F05
:101A70007F4F09950F900F900F900F90DF91CF91AE
:101A80000895CF93DF9300D0CDB7DEB769837A8313
:101A9000DC018D919C91DC01ED91FC910280F38140
:101AA000E02D42E050E0BE016F5F7F4F09950F903F
:101AB0000F90DF91CF910895CF93DF93EC0160E019
:101AC00072E08CEA94E00E94410D4D815E816F814D
:101AD00078858CEA94E00E94210D8091AC0490916D
:101AE000AD04ADA1BEA1EC01E881F9810190F081C6
:101AF000E02D6C91DF91CF910994EF92FF920F93BB
:101B00001F93CF93DF938C01EB0160E772E00E949B
:101B1000410D4D815E816F817885C8010E94210D44
:101B2000D8010D911C91D801ED91FC91E080F180DC
:101B3000E881F9810480F581E02DCE010995682FB7
:101B4000C801F701DF91CF911F910F91FF90EF90A6
:101B50000994DC01ED91FC910280F381E02D099460
:101B6000DC01ED91FC910190F081E02D0994DC0104
:101B7000ED91FC910190F081E02D0994CF93DF93DA
:101B8000E091C004F091C104309709F480C0EC01E9
:101B90008091E4049091E504A091E604B091E704FB
:101BA000AC01BD014F5F5F4F6F4F7F4F4093E40427
:101BB0005093E5046093E6047093E70409958E3131
:101BC00008F046C08093D904BE018CEA94E00E94DC
:101BD000410D80919E0490919F04DC01ED91FC9158
:101BE0000190F081E02D6091D90409958091D9048C
:101BF000882309F44CC0E091C004F091C1048091A5
:101C0000E4049091E504A091E604B091E704AC01EE
:101C1000BD014F5F5F4F6F4F7F4F4093E404509380
:101C2000E5046093E6047093E7040995682F70E07B
:101C30007093C6046093C50480919E0490919F04A4
:101C40000E94B70D8091D90481508093D904CECFE2
:101C50001092D904E091BE04F091BF04309709F4CA
:101C6000B3CF8091E4049091E504A091E604B09193
:101C7000E7040197A109B1098093E4049093E50476
:101C8000A093E604B093E70460E009959DCFDF914F
:101C9000CF910895EF92FF920F931F93DC01189656
:101CA0008C911897882381F0489FA0011124452F1B
:101CB000829F90011124232F809F80011124012FE6
:101CC0008E9D70011124EF2C1E968C911E971996F3
:101CD000ED91FC911A971B969C911B97891320C03C
:101CE000CB01880F991F680F791F6E0F7F1F1B96FE
:101CF000EC911B97E60FF72FF11D40831C96EC919A
:101D00001C97E60FF72FF11D20831D968C91680F0D
:101D1000711DFB0100831F910F91FF90EF900895BB
:101D2000660F771F660F771F6E0F7F1FFB01E80F8F
:101D3000F11DE082DCCFCF92DF92EF92FF920F9302
:101D40001F93CF93DF93CDB7DEB729970FB6F894E3
:101D5000DEBF0FBECDBF8C010E947A02D8011F9654
:101D6000CD90DD90ED90FC9052976C157D058E0521
:101D70009F0528F4F8016787708B818B928BD801BF
:101D80001F96CD90DD90ED90FC9052976C197D09D7
:101D90008E099F096C32714081059105E8F2F89433
:101DA000F801848195819A8389830184F285E02DED
:101DB0007F012FEFE21AF20A80818F83D8019C9174
:101DC0005396ED91FC91549755968C91992309F473
:101DD00048C09081982B9887908180958923898726
:101DE00089858B8388E08C83588569854F813C8108
:101DF0002B8189819A81D701508347FD252F3A9500
:101E00002083262F39F0441F00C0000060830000AB
:101E100000C0F2CF38E04D9160830000019761F778
:101E2000D8015496FC93EE9353974F833C832B83B6
:101E30009A83898378940E947A02F8016787708B6D
:101E4000818B928B29960FB6F894DEBF0FBECDBF63
:101E5000DF91CF911F910F91FF90EF90DF90CF9086
:101E600008959081982B9887908180958923898700
:101E700089858D8388E08E83588569854F813E8171
:101E80002D8189819A81D701508347FD252F00C07C
:101E900000C0208300C000C000C000C000C060833C
:101EA0000000262F3A9541F0441F000000C000C0FA
:101EB00000C000C000C0E8CF38E04D9100C0608392
:101EC00000C0019709F7D8015496FC93EE935397FD
:101ED0004F833E832D83ACCFEF920F931F93CF930D
:101EE000DF93EC018EA19FA1009701F510E006E0C1
:101EF000288130E08DA51817B8F5812F90E0029F5A
:101F0000F001039FF00D1124EC0FFD1FE80FF91FE6
:101F100061812EA5211101C0609570E08C0F9D1F7D
:101F2000FC0181A50E9408021F5FE2CF68A570E056
:101F3000FC01228133816217730768F42881FE0156
:101F400036E0239FE00DF11D1124E48003812281FE
:101F500041810E944A0E8EA19FA1FC0121853285FC
:101F6000232B11F00E949B0E888116E0FE01189F22
:101F7000E00DF11D112485819681019691F00E945A
:101F80009F022881FE01129FE00DF11D1124258181
:101F90003681620F731F811D911D6FA778AB89ABCE
:101FA0009AAB81E08DA3DF91CF911F910F91EF90BC
:101FB0000895EF920F931F93CF93DF93EC018EA1BF
:101FC0009FA1009799F410E08DA5181730F58EA504
:101FD0006FEF70E0882311F070E060E0FE01E10F28
:101FE000F11D81A50E9408021F5FEECF68A570E079
:101FF000FC01228133816217730730F4E12C00E089
:1020000020E040E00E944A0E8EA19FA1FC012185A4
:102010003285232B11F00E949B0E1FA618AA19AA25
:102020001AAA1DA2DF91CF911F910F91EF900895F1
:1020300087ED92E00E946709809116039091170343
:10204000A0911803B0911903892B8A2B8B2B21F0B7
:1020500087ED92E00E94670910920E0310920F0321
:1020600010921003109211038091090190910A01BE
:10207000A0910B01B0910C018093FC029093FD02A2
:10208000A093FE02B093FF0280910D0190910E018A
:10209000A0910F01B09110018093F8029093F90282
:1020A000A093FA02B093FB021092F70240E050E0D6
:1020B00060E272E487ED92E00E942E0840910901EF
:1020C00050910A0160910B0170910C0187ED92E033
:1020D0000E949A098091A004882371F06CE370E05B
:1020E0008CEA94E00E94410D0E947A02AB01BC018F
:1020F0008CEA94E00C94210D0895CF92DF92EF9238
:10210000FF928091FC029091FD02A091FE02B0919D
:10211000FF028093090190930A01A0930B01B093F1
:102120000C018091F8029091F902A091FA02B0910D
:10213000FB0280930D0190930E01A0930F01B093C9
:10214000100110926D038DE693E00E946C0F86E4FF
:1021500093E00E94680C80914603882341F180E05F
:1021600090E0A4EBB2EC8093FC029093FD02A0936C
:10217000FE02B093FF026C017D0140910501509178
:102180000601609107017091080187ED92E00E94BD
:102190002E08B701A60187ED92E00E949A0981E01E
:1021A0008093F702FF90EF90DF90CF90089580E04A
:1021B00090E0A4EBB2E48093F8029093F902A0932C
:1021C000FA02B093FB02D7CF85E080936D038DE6D2
:1021D00093E00E946C0F4091FC025091FD026091CF
:1021E000FE027091FF0287ED92E00C949A0982E062
:1021F00080936D038DE693E00E946C0F4091F8028E
:102200005091F9026091FA027091FB0287ED92E021
:102210000E949A098091A004882371F06DE370E018
:102220008CEA94E00E94410D0E947A02AB01BC014D
:102230008CEA94E00C94210D089560E0FC01858106
:102240000E94A90184E58CBD81E08DBD08950F93A6
:102250001F93CF93DF938C01C62FD42F0E941D11A3
:102260008C2F880F0E942C0BC82F8D2F0E942C0BB7
:10227000D82FC8010E94B80AF8018481CF73C82BF7
:10228000C4838D2FDF91CF911F910F9108950F93EC
:102290001F93CF93DF93EC01AA8DBB8DA617B707D1
:1022A00070F5B98FA88F088D198D84E0000F111F6C
:1022B0008A95E1F7288930E00E94DB2A2FEF30E091
:1022C00040E050E00E94182CC801B9010E94042C83
:1022D0006623C1F0613108F060E149894F7080E107
:1022E000861B20E1829FC0011124482B498B63E0AB
:1022F000CE01DF91CF911F910F910C942711798F0F
:10230000688FD1CF61E0E9CFFC01438945FF06C06A
:1023100060FB47F9438B65E00C94271186810C9490
:10232000A901FC01258522FF04C060E080850C9492
:10233000A90142894F77428B64E00C942711CF9317
:10234000DF93EC014A8947FD05C040684A8B64E091
:102350000E9427118D8582FF06C061E08885DF918C
:10236000CF910C94A901DF91CF9108951F93CF9342
:10237000DF93EC0161E08D810E94D70161E08D81E6
:102380000E94A9018C8583FF12C061E089850E94AB
:10239000D70161E089850E94A9018C8588608C87BE
:1023A0008D8588608D878BEB92E10197F1F71FB7E0
:1023B000F89480914502811127C0E9EBF0E0849107
:1023C000EBE9F0E09491E82FF0E0EE0FFF1FE75902
:1023D000FF4FA591B491EC91E92321F461E08AE0EB
:1023E0000E94A90161E08AE00E94D7018CB580615A
:1023F0008CBD8CB580648CBD61E08DE00E94D701FE
:1024000061E08BE00E94D701809145028F5F80934D
:1024100045021FBF198A8FE08A8B80E38B8B8C8BE0
:1024200088E08D8B83E08E8B80E28F8B40E063E0D1
:10243000CE010E9427114A8964E0CE010E94271133
:102440004B8965E0CE010E9427114C8966E0CE01E0
:102450000E9427114D8967E0CE010E9427114E8905
:1024600068E0CE010E9427114F8969E0CE010E94E9
:1024700027118C8582FD04C095E0988784608C8745
:102480008C8582FF15C061E088850E94D70160E0DD
:1024900088850E94A9018C8584608C878D858460E5
:1024A0008D874A8940684A8B64E0CE010E942711DB
:1024B0008C8581FD04C096E09E8382608C878C852C
:1024C00081FF15C061E08E810E94D70160E08E819E
:1024D0000E94A9018C8582608C878D8582608D87A2
:1024E0004B894F7D4B8B65E0CE010E9427118C8577
:1024F00080FD04C097E09F8381608C878C8580FF7E
:1025000015C061E08F810E94D70160E08F810E9439
:10251000A9018C8581608C878D8581608D874B8931
:102520004F7E4B8B65E0CE010E9427118C8584FD88
:1025300004C093E09A8780618C878C8584FF0AC0F1
:1025400060E08A850E94D7018C8580618C878D85AB
:1025500080618D8780E0DF91CF911F910895CF92A8
:10256000DF92EF92FF920F931F93CF93DF93EC01D3
:102570002889AA8DBB8D30E00E94DB2A2FEF30E046
:1025800040E050E00E94182C6901CE010E941D110C
:1025900086E40E942C0B082F80E00E942C0B182F41
:1025A000CE010E94B80A8C810F73082B0C83198B03
:1025B000812F90E024E0959587952A95E1F720E119
:1025C00030E0281B390B2C9DC0012D9D900D3C9DAA
:1025D000900D112434E0969587953A95E1F7DF91B7
:1025E000CF911F910F91FF90EF90DF90CF900895C2
:1025F000CF93DF93FC01438944FF07C04064438BC2
:1026000065E0DF91CF910C942711EC0161E08781A7
:102610000E94A90160E08F81DF91CF910C94A90104
:102620001F93CF93DF93EC018B819C81892B41F425
:1026300081E090E00E945F2C9C838B83FC011082E0
:1026400010E08985181748F4FE01E10FF11D60E0E4
:1026500082850E94D7011F5FF4CF8C8980FF0FC055
:1026600061E08A890E94D701E881F9810680F781BB
:10267000E02D40E050E060E87FE3CE0109958C89D1
:1026800081FF0BC061E08B890E94D7018C8981FF9B
:1026900004C061E08B890E94A901E881F981028070
:1026A000F381E02DCE01099580E0DF91CF911F915C
:1026B00008950E94842D1F93CF93DF9385ED80931F
:1026C000BC008091490290914A02A0914B02B091C6
:1026D0004C020796A11DB11D23E0B695A7959795CD
:1026E00087952A95D1F72091BC0024FD03C0109254
:1026F000910252C04091490250914A0260914B02AE
:1027000070914C02452B462B472B69F30097A1058E
:10271000B10541F02AE22A95F1F700C00197A1091D
:10272000B109E1CF80914802C1E0C09347028823FC
:1027300099F1D091B8001091BA008091BC008A7BC9
:102740008093BC0060E082E10E94A90160E083E127
:102750000E94A90110929102C093930210929202DA
:1027600061E082E10E94A90161E083E10E94A90188
:102770008091B9008E7F8093B9008091B9008D7FE0
:102780008093B90088E48093B80085E48093BC000E
:102790001093BA00D093B800DF91CF911F910895A4
:1027A0000C94BA2A0C94C22A1F920F920FB60F9261
:1027B00011242F933F938F939F93AF93BF93809157
:1027C000CF029091D002A091D102B091D20230916B
:1027D000CE0223E0230F2D3758F50196A11DB11D20
:1027E0002093CE028093CF029093D002A093D10287
:1027F000B093D2028091D3029091D402A091D502DD
:10280000B091D6020196A11DB11D8093D302909381
:10281000D402A093D502B093D602BF91AF919F91FD
:102820008F913F912F910F900FBE0F901F90189591
:1028300026E8230F0296A11DB11DD2CF1F920F9241
:102840000FB60F9211242F933F934F935F936F9383
:102850007F938F939F93AF93BF93EF93FF93E091F9
:102860000301F09104010995FF91EF91BF91AF91A0
:102870009F918F917F916F915F914F913F912F9198
:102880000F900FBE0F901F9018951F920F920FB6CA
:102890000F9211242F933F934F935F936F937F93E6
:1028A0008F939F93AF93BF93EF93FF93E0910101B9
:1028B000F09102010995FF91EF91BF91AF919F9126
:1028C0008F917F916F915F914F913F912F910F90D9
:1028D0000FBE0F901F9018951F920F920FB60F9278
:1028E00011242F933F934F935F936F937F938F9315
:1028F0009F93AF93BF93EF93FF938091C402909106
:10290000C502A091C602B091C702892B8A2B8B2BDE
:10291000D1F19091C302E091C102F091C202808195
:10292000892780838091C4029091C502A091C6023C
:10293000B091C702181619061A061B069CF480915E
:10294000C4029091C502A091C602B091C70201973E
:10295000A109B1098093C4029093C502A093C60255
:10296000B093C702FF91EF91BF91AF919F918F916B
:102970007F916F915F914F913F912F910F900FBE7B
:102980000F901F901895809100010E948D03EACF4F
:102990001F920F920FB60F9211242F933F934F93D4
:1029A0005F936F937F938F939F93AF93BF93EF93B7
:1029B000FF9381E094E00E949D06FF91EF91BF910B
:1029C000AF919F918F917F916F915F914F913F91C7
:1029D0002F910F900FBE0F901F9018951F920F927E
:1029E0000FB60F9211242F938F939F93EF93FF9322
:1029F000E0911104F09112048081E0911704F091AC
:102A0000180482FD1BC0908180911A048F5F8F7320
:102A100020911B04821741F0E0911A04F0E0EF5F6F
:102A2000FB4F958F80931A04FF91EF919F918F91A7
:102A30002F910F900FBE0F901F9018958081F4CFAB
:102A40001F920F920FB60F9211242F933F934F9323
:102A50005F936F937F938F939F93AF93BF93EF9306
:102A6000FF938091B900887F803609F44AC0F0F561
:102A7000883209F4A5C018F5803109F499C0B8F47A
:102A8000882309F4F5C0883009F492C0FF91EF91D2
:102A9000BF91AF919F918F917F916F915F914F9176
:102AA0003F912F910F900FBE0F901F901895883176
:102AB00009F486C0803251F78093900214C08034AC
:102AC00009F49BC040F48033B9F38833F9F680935E
:102AD000900285ECAEC0803509F483C0883509F4D6
:102AE00094C0883499F60E945B13D0CF883909F4DA
:102AF0008AC038F5883729F050F4883611F08037CD
:102B000029F683E08093910210928F0255C0883895
:102B100009F479C0803919F0803809F0B7CF809175
:102B20008F02803208F06FC0E0918F0281E08E0F3B
:102B300080938F028091BB00F0E0E159FD4F8083CC
:102B40003BC0803B39F0D0F4803A09F477C0883A32
:102B500009F09CCF84E08093910210926E02109253
:102B60006D02F0E0E0E0099580916D0281110FC0E7
:102B700081E080936D0210924D0209C0803C09F4FF
:102B8000A8CF883C09F4A5CF883B09F07FCFE0911E
:102B90006E0281E08E0F80936E02F0E0E35BFD4FEA
:102BA00080818093BB0090916E0280916D0229C05C
:102BB0008091B6028093BB0085EC8093BC0066CF09
:102BC0009091B5028091B402981758F5E091B50242
:102BD00081E08E0F8093B502F0E0EC56FD4F8081CE
:102BE000E9CFE091B50281E08E0F8093B50280912C
:102BF000BB00F0E0EC56FD4F80839091B5028091D0
:102C0000B4029817C8F285E8D8CFE091B50281E008
:102C10008E0F8093B5028091BB00F0E0EC56FD4F23
:102C200080838091930281115ECF81E08093920234
:102C300084EA8093BC001092910228CF85EC8093A7
:102C4000BC001092910280918F02803230F4E091AA
:102C50008F02F0E0E159FD4F108260918F0270E029
:102C60008FE692E0F0E0E0E0099510928F020ECF3F
:102C70001092900238CFCF93DF93CDB7DEB76C9729
:102C80000FB6F894DEBF0FBECDBF109204041092B1
:102C9000030488EE93E0A0E0B0E0809305049093F5
:102CA0000604A0930704B09308048EE291E0909389
:102CB00002048093010485EC90E090930E048093CD
:102CC0000D0484EC90E09093100480930F0480EC4A
:102CD00090E0909312048093110481EC90E0909323
:102CE00014048093130482EC90E090931604809374
:102CF000150486EC90E090931804809317041092CA
:102D00001A0410921B0410921C0410921D0481E0FE
:102D100094E090939F0480939E041092A0048AEF05
:102D200090E09093A2048093A10480E197E2A0E058
:102D3000B0E08093A3049093A404A093A504B0935F
:102D4000A6041092AB041092AF041092AE0410923D
:102D5000B1041092B0041092B3041092B204109215
:102D6000B5041092B4041092B7041092B6041092F5
:102D7000B9041092B8041092BB041092BA041092D5
:102D8000BD041092BC041092BF041092BE041092B5
:102D9000C1041092C0041092C3041092C204109295
:102DA000EC041092EF041092F2041092F3041092CB
:102DB000F5041092F4041092F9041092F8041092A1
:102DC000FB041092FA0481E08093C40492E0909393
:102DD000FD038093000424E02093FE032FE0209362
:102DE000FF032AE731E03093CD032093CC03109208
:102DF000CE032EE02093F7031092F9031092F8030C
:102E00001092FC032DEF33E03093FB032093FA0381
:102E10001092B8031092BA031092B9039093BF03B3
:102E20002AE02093C8031092CB0320E12093C00333
:102E300021E12093C1032091CA0321602093CA039A
:102E40002AE631E03093B7032093B6031092A10332
:102E50001092A8031092AF031092B0031092B10326
:102E60001092B2038093AE038093AB031092AC0335
:102E70009093AD038093A00383E090E09093A5032B
:102E80008093A4030E945F2C9093AA038093A903CC
:102E9000009709F4F9C023E0FC0111922A95E9F7A3
:102EA00081E090E09093A3038093A20389E090E0F7
:102EB0009093A7038093A6038091A103882341F0F8
:102EC00061E089E00E94D70160E089E00E94A901E9
:102ED000E8EBF0E0E491F0E0EE0FFF1FEB55FF4F61
:102EE000859194919093B4038093B303EAE9F0E061
:102EF000E491E093B50310926D0380EA93E0909320
:102F00009403809393031092950381E080939B0335
:102F1000809347031092480380934F0384E690E028
:102F200090935103809350038FEF9FEF909353033F
:102F300080935203109255031092540380E395E757
:102F4000909357038093560382E1809358038FEF49
:102F50008093590380935A0340E050E060E07FE3A0
:102F600040935B0350935C0360935D0370935E0337
:102F700028EE33E030936A032093690310926C03C8
:102F800010926B0320E531E030932A03209329034C
:102F900010922C0310922B0398E090932E038093B1
:102FA000390384EF91E0909342038093410384ECD2
:102FB00099E090934403809343031092450388E281
:102FC00093E090933803809337038CE1E2E8F1E0DB
:102FD000DE01119601900D928A95E1F780E491E06F
:102FE0009093D8028093D7021092F70280E090E08D
:102FF000A6E9B2E48093F8029093F902A093FA0252
:10300000B093FB021092FC021092FD021092FE029D
:103010001092FF021092000310920103109202031B
:1030200010920303109216031092170310921803C4
:103030001092190388E893E190931B0380931A037D
:1030400080E990EDA3E0B0E080931C0390931D0312
:10305000A0931E03B0931F0389E293E090930503AE
:10306000809304038CE1FE013196A9EDB2E001905A
:103070000D928A95E1F76C960FB6F894DEBF0FBEFD
:10308000CDBFDF91CF9108951092A5031092A403B4
:103090001092A3031092A20309CFCF93DF93CDB771
:1030A000DEB7EA970FB6F894DEBF0FBECDBF7894B7
:1030B00084B5826084BD84B5816084BD85B582603D
:1030C00085BD85B5816085BD80916E0081608093EE
:1030D0006E00109281008091810082608093810057
:1030E0008091810081608093810080918000816067
:1030F000809380008091B10084608093B1008091C2
:10310000B00081608093B00080917A0084608093E9
:103110007A0080917A00826080937A0080917A00B0
:10312000816080937A0080917A00806880937A0031
:103130001092C10083EC92E09093B7048093B604A0
:103140008FEF92E09093B9048093B80488E293E003
:103150009093BB048093BA0481E593E09093BD04FF
:103160008093BC0482ED93E19093BF048093BE04EE
:1031700080ED93E19093C1048093C0048DE790E1CA
:103180009093F9048093F80484EE90E19093FB040B
:103190008093FA0487EF90E19093F5048093F40410
:1031A00086EB93E09093F1048093F0048CEC93E031
:1031B0009093E9048093E80489E293E09093FD04FE
:1031C0008093FC0487ED92E09093F7048093F604DB
:1031D00086E493E09093EE048093ED048DE693E013
:1031E0009093EB048093EA0440E052EC61E070E0DD
:1031F00080919E0490919F040E948E0080919E0475
:1032000090919F049093AD048093AC0463E270E0CE
:103210008CEA94E00E94410D84E10E9465021092C4
:1032200057031092560384E690E0909360038093D6
:103230005F0310924F03909351038093500380914A
:103240006B0390916C03892B51F481E090E00E9414
:103250005F2C90936C0380936B03DC011C9260E005
:10326000809158030E94D7010E949F022091690318
:1032700030916A03DC01CB01820F931FA11DB11DA8
:103280008093610390936203A0936303B0936403FC
:103290008093650390936603A0936703B0936803DC
:1032A00060E082E00E94D7018FEA92E090930201F1
:1032B00080930101809169008C7F82608093690016
:1032C000E89A00919303109194030115110579F484
:1032D00010E080919A031817D8F4E12FF0E0E35939
:1032E000FC4F61E081A50E94D7011F5FF2CFF8017A
:1032F0008681978197FD09C061E00E94D70160E057
:10330000D80116968C910E94A90181E0F801818371
:103310008DE693E00E94D90F82E1E8E1F1E0DE0161
:10332000119601900D928A95E1F7EDE6F3E080E0C9
:1033300006E910E026E030E0482F50E0DA01AA0F5D
:10334000BB1FA40FB51F41E050E04C0F5D1FA40F41
:10335000B51F12969C91129711964C9111975C9102
:10336000518342839383168305838F5F90E0B90175
:103370000E94042C369653E0E139F507E9F685E022
:1033800080936D0386EB93E00E94101346E656E6A9
:1033900066E67FE386EB93E00E944C0B8CEC93E0B7
:1033A0000E94350C40E050E060E07FE38CEC93E05D
:1033B0000E94BB0BECECF3E088EE93E026E930E0F2
:1033C00094838383368325838C599F4F3496803D25
:1033D000A7E09A07A9F789E08093CE0380910403C0
:1033E00090910503DC01ED91FC910190F081E02DBD
:1033F0000995C090E102D090E202E090E302F090E3
:10340000E40220E030E0A901C701B6010E9496293C
:10341000882331F0B701A60187ED92E00E947B0876
:10342000C090E502D090E602E090E702F090E8025A
:1034300020E030E0A901C701B6010E949629882347
:1034400031F0B701A60187ED92E00E942E08C090EE
:10345000E902D090EA02E090EB02F090EC0220E06A
:1034600030E0A901C701B6010E949629882331F0F6
:10347000B701A60187ED92E00E94C8086091F302AF
:103480007091F4026115710559F0809104039091D7
:103490000503DC01ED91FC910288F389E02D09958B
:1034A00068EE73E089E293E00E94C10A6CE271E089
:1034B00089E293E00E94471140913D0366E089E272
:1034C00093E00E9427111092F50280910D019091D6
:1034D0000E01A0910F01B09110018093F80290931A
:1034E000F902A093FA02B093FB0280910901909136
:1034F0000A01A0910B01B0910C018093FC02909302
:10350000FD02A093FE02B093FF02809116039091FA
:103510001703A0911803B0911903892B8A2B8B2BC9
:1035200021F087ED92E00E94670910920E0310923D
:103530000F031092100310921103C0900501D09058
:103540000601E0900701F090080120E030E040E241
:1035500051E4C701B6010E94FF2B181634F0C12CAC
:10356000D12C80E2E82E81E4F82EC0920501D092A1
:103570000601E0920701F0920801AA24AA94BA2C4D
:10358000FE013A96FCABEBAB88248394912C80919E
:103590009E0490919F04DC01ED91FC910084F185E3
:1035A000E02D0995892BD1F180919E0490919F0483
:1035B000DC01ED91FC910284F385E02D0995682FE3
:1035C000482F592F5093C6044093C504E091CA0474
:1035D000F091CB04309711F00C940A248091C90427
:1035E000811141C15093C8044093C70481E0809386
:1035F000C9048091CA049091CB04892B11F00C94DA
:103600009E288091C90481110C949E281092DB049D
:103610001092DC041092DD041092DE048091DB0431
:103620009091DC04A091DD04B091DE04892B8A2BFB
:103630008B2B89F00E949F020091DB041091DC0427
:103640002091DD043091DE0406171707280739079B
:1036500010F40E94EE001091CD028091F7028111CA
:103660001CC0C0902403D0902503E0902603F09066
:1036700027032091000330910103409102035091F0
:103680000303C701B6010E949629882331F0B701D0
:10369000A60187ED92E00E949A098091160390910D
:1036A0001703A0911803B0911903892B8A2B8B2B38
:1036B000D9F040910E0350910F0360911003709167
:1036C00011038091120390911303A0911403B09100
:1036D0001503481759076A077B0711F00C94B228A5
:1036E00087ED92E00E9467091092CD028091F70267
:1036F000882311F40C9452290E94181086EB93E051
:103700000E946D0B882351F08091A004882331F032
:1037100066EB73E08CEA94E00E947D0D8091CC0210
:103720008823B1F10E949F020091C8021091C90242
:103730002091CA023091CB020617170728073907D4
:1037400038F58091CC02813011F00C9470294091B1
:103750000E0350910F03609110037091110387EDD8
:1037600092E00E948A0720E030E0A9010E94962999
:1037700087FD02C00C946C290E94F7101092C802B9
:103780001092C9021092CA021092CB021092CC027F
:1037900080919C0390919D03A0919E03B0919F0303
:1037A000892B8A2B8B2B99F00E949F0200919C03FE
:1037B00010919D0320919E0330919F0306171707D8
:1037C0002807390720F48DE693E00E94D90F109165
:1037D0001101112311F40C94742980919203811129
:1037E00035C011501093110110936D038DE693E0D5
:1037F0000E946C0F612F8CEC93E00E94100C809162
:103800001101811123C0B0927303A0927203B09290
:103810007903A0927803B0927F03A0927E03B092C6
:103820008503A0928403B0928B03A0928A03B09286
:103830009103A092900385E080936D038DE693E061
:103840000E94D90F8CEC93E00E940C0C80E090E079
:10385000892B09F49CCE0E948906882309F494CE12
:103860000E94000091CE742F66278091C70490912A
:10387000C804680F791F7093C8046093C70410923E
:10388000C9046736710509F41AC408F06EC16733BC
:10389000710509F4AECE08F096C06031710509F4E7
:1038A00065C308F058C06530710509F499C3C8F4C0
:1038B0006130710509F4E7C208F4E2C262307105B3
:1038C00009F4E8C26430710509F4A6C361E270E04E
:1038D0008CEA94E00E94410D6091C7047091C80485
:1038E000D4C26830710509F415C3F8F46630710567
:1038F00009F4A3C36730710549F783E090E0909322
:10390000CB048093CA0483E190E09093CD0480932C
:10391000CC0481E08093E3041092E4041092E50467
:103920001092E6041092E70464CE6C30710509F43D
:103930008FC36E30710551F66FE070E08CEA94E051
:103940000E94410D40E052EC61E070E08CEA94E0AE
:103950000E94210D4ECE6A31710509F4CDC2E0F40A
:103960006231710509F439C308F424C36631710565
:1039700009F499C26831710509F0A8CFE091B0044B
:10398000F091B104309709F43CCECE01019609952F
:10399000182F67E170E094C26633710508F0DFC349
:1039A0006433710508F025CE6233710509F4E2C372
:1039B00085E190E06333710509F088CF9093CB04E3
:1039C0008093CA0416CE6934710509F44BC608F019
:1039D0005CC06234710509F4F4C520F56F337105DC
:1039E00009F4EAC568F4E091F804F091F9046B3346
:1039F000710509F06BCF309709F403CE0995F9CD25
:103A00006034710509F4C2C56134710509F05ECFF7
:103A10009092CB048092CA0482E08093D9048FE212
:103A200090E0ADC26634710509F4FBC590F46434CE
:103A3000710509F4DFC56534710509F047CF90922F
:103A4000CB048092CA0482E08093D90480E390E0A2
:103A500096C26734710509F4FBC56834710509F035
:103A600035CF8091F6049091F704892B09F4C9CDE4
:103A700069E470E08CEA94E00E94410D8091F604C4
:103A80009091F7040E94A408EBC36435710509F412
:103A900098C678F56135710509F4EEC5C0F4603556
:103AA000710509F013CF8091F6049091F704892BEA
:103AB00009F4A7CD61E570E08CEA94E00E94410D25
:103AC0008091F6049091F7040E945708C9C36235AB
:103AD000710509F4DBC56335710509F0F7CE9092E5
:103AE000CB048092CA0482E08093D90484E390E0FE
:103AF00046C26735710509F486C600F5653571055E
:103B000009F47AC66635710509F0E0CE8091FC04AF
:103B10009091FD04892B09F474CD67E570E08CEA7F
:103B200094E00E94410D8091FC049091FD04DC0121
:103B3000ED91FC910088F189E02D5BC66536710539
:103B400009F4C4C26636710509F0C0CE65E670E0BE
:103B50008CEA94E00E94410D4091A3045091A4048A
:103B60006091A5047091A604F1CE6938B1E07B079D
:103B700009F40FC408F09FC06930F1E07F0709F431
:103B80002FC308F057C0613031E0730709F4FEC25B
:103B900030F56937710509F4C2C2B0F468377105B0
:103BA00009F094CE82E190E09093CB048093CA0414
:103BB00083E08093D90483E090E09093CD048093D8
:103BC000CC0484E190E0BCC26A37710509F488C274
:103BD00087E190E06115714009F4F0CE77CE663050
:103BE00081E0780709F4E1C2A8F46430A1E07A0723
:103BF00009F4D8C26530714009F068CE64E071E024
:103C00008CEA94E00E94410DE091E804F091E9040F
:103C10006281B8C26730E1E07E0709F4CDC2683046
:103C2000714009F053CE9092CB048092CA048AE18D
:103C300090E0A5C1613821E0720709F436C398F419
:103C40006B3041E0740709F4E9C208F4DDC2603664
:103C500081E0780709F430C26038714009F036CE4F
:103C60008CE190E0ABCE6638A1E07A0709F442C35C
:103C700090F46438E1E07E0709F424C365387140AC
:103C800009F024CE64E871E08CEA94E00E94410DD2
:103C90006091EC0477C2673821E0720709F434C3FD
:103CA0006838714009F012CE9092CB048092CA0419
:103CB00081E290E064C16A3042E0740709F401C413
:103CC00008F072C0633082E0780709F48DC3B8F55C
:103CD0006E38A1E07A0709F4F8C2B0F46D3871408B
:103CE00009F0F4CD6CE871E08CEA94E00E94410D9B
:103CF00080919E0490919F04DC01ED91FC910190D4
:103D0000F081E02D66E028C16F38F1E07F0709F40B
:103D1000DFC26130724009F0D9CD8091ED049091FD
:103D2000EE040E94680CE091EF04F0E0EE0FFF1F3C
:103D3000E351FB4F808191810E945C0D5ACC67302A
:103D400032E0730709F4A1C398F4653052E07507B7
:103D500009F478C36630724009F0B8CD9092CB0474
:103D60008092CA0482E08093D90483E290E007C184
:103D7000683092E0790709F49DC36930724009F018
:103D8000A5CD68E072E08CEA94E00E94410DE091DC
:103D9000EF04F0E0EE0FFF1FE351FB4F0190F081C5
:103DA000E02D618D728D71C06437B2E07B0709F43C
:103DB000C0C3A0F56137F2E07F0709F49EC3E0F4C9
:103DC0006B3032E0730709F47FC36C30724009F046
:103DD0007DCDE091EF04F0E0EE0FFF1FE351FB4FCC
:103DE0000190F081E02DB586A48617861686128E86
:103DF000118E81E08187FDCB623752E0750709F4AF
:103E000095C36337724009F061CD62E772E08CEAD6
:103E100094E00E94410D6091F204B4C1643695E6CD
:103E2000790709F4E6CBC8F46537B2E07B0709F4FB
:103E300096C36637724009F049CDE091F204F0E094
:103E4000EE0FFF1FE051FB4F80819181DC01ED916E
:103E5000FC910284F385E02DA3C16236F4E77F076D
:103E600009F492C06336744709F030CDE5E0F0E024
:103E7000F093CB04E093CA048FEF8093D904B9CBBD
:103E80000E94EE00B6CB6DEC7BEA8CEA94E00E94D7
:103E9000410DAFCB63E070E08CEA94E00E94410DED
:103EA00064E170E0F2CFE091AE04F091AF0430979E
:103EB00009F4A7CBCE0101960995182F65E170E0B2
:103EC0008CEA94E00E94410D8091AC049091AD0485
:103ED000DC01ED91FC910190F081E02D612F0995BD
:103EE000412F50E0BE016F5F7F4F8091AC049091F5
:103EF000AD040E94A90D7DCBE091B204F091B30412
:103F0000309709F47ECBCE0101960995182F69E10F
:103F100070E0D6CF69E070E08CEA94E00E94410D39
:103F200063E070E080919E0490919F040E94B00D28
:103F3000E091BC04F091BD0400919E0410919F0497
:103F4000D801309759F08D919C91DC01ED90FC9057
:103F50000995682FC801F70109954BCBED91FC91AC
:103F60000190F081E02D60E0C801F6CF9092CB0483
:103F70008092CA0482E08093D90484E090E0909318
:103F8000CD048093CC04E2C263E674E78CEA94E04B
:103F90000E94410D10E000E0B8018091AC049091C6
:103FA000AD040E94B70D0F5F1F4F0115B1E01B0755
:103FB00099F71FCB62E170E08CEA94E00E94410D1A
:103FC00080919E0490919F04DC01ED91FC91019001
:103FD000F081E02D6091AB04BFCF86E090E0EECCA5
:103FE00083E090E09093CB048093CA0483E190E057
:103FF0009093CD048093CC0481E08093E3042EE180
:1040000030E040E050E02093E4043093E504409336
:10401000E6045093E704EDCA8EE190E0A0E0B0E042
:104020008093E4049093E504A093E604B093E7043E
:1040300085E090E00E94BE0DDCCA1092E40410926C
:10404000E5041092E6041092E70487E090E0F2CFD6
:10405000DE011196EEE0F0E021E2CF01019620931F
:104060005700E491ED93FC01449711F4E5E1F0E091
:104070004BA95CA94A175B0781F76DE070E08CEAF9
:1040800094E00E94410D69E070E08091AC04909151
:10409000AD040E94B70D8091AC049091AD04DC0199
:1040A000ED91FC910280F381E02D49E050E0BE01EA
:1040B0006F5F7F4F09959DCA8FE090E07FCCE0E174
:1040C000F0E0F093CB04E093CA0493CA9092CB043F
:1040D0008092CA0482E08093D90481E190E04FCFBE
:1040E000E091C204F091C304309709F48ACA09959B
:1040F0006093DF047093E0048093E1049093E20402
:104100006BE770E08CEA94E00E94410D4091DF047F
:104110005091E0046091E1047091E20417CC82E1D7
:1041200090E09093CB048093CA0483E08093D904F9
:1041300083E090E09093CD048093CC0483E190E001
:104140009093CF048093CE041092E4041092E5047F
:104150001092E6041092E7041092D8044ACAE09143
:10416000F404F091F504309709F44BCA8091F304FC
:1041700009953FCA63E370E08CEA94E00E94410D28
:104180006091F30470E06F5F7F4FB0C18091E804ED
:104190009091E904DC01ED91FC910680F781E02D1E
:1041A000099527CA88E190E009CC9092CB048092CF
:1041B000CA0489E190E0E3CE66E071E08CEA94E025
:1041C0000E94410DE091E804F091E9048281B4E09D
:1041D0008B9FC0011124E80FF91F6381748155CEB4
:1041E00068E071E08CEA94E00E94410DE091E804FF
:1041F000F091E904828124E0829FC0011124E80F3C
:10420000F91F6581768141CE9092CB048092CA04D9
:1042100082E08093D9048BE190E0B1CE6AE071E056
:104220008CEA94E00E94410DA091E804B091E90469
:104230009C968D919C919D970097A9F0FC012081FF
:104240003181F90120853185D0966C91F90109956C
:104250009B01AC0160E070E080E89FE30E94EA2AE5
:104260000E943601C6C99E960D911C9160E070E0D7
:1042700080E89FE30115110599F3D80113966C911D
:1042800070E090E080E00E949B296B017C01F801C6
:10429000608170E090E080E00E949B299B01AC016E
:1042A000C701B6010E94572BDBCF8091EA049091A1
:1042B000EB04DC0195962C91222309F4A2C90E94FB
:1042C000D90F97C98DE190E079CB8EE190E076CB64
:1042D0006EE871E08CEA94E00E94410DE091EC04FC
:1042E000F0E0EE0FFF1FE651FB4F0190F081E02D53
:1042F000608148CF9092CB048092CA0482E0809380
:10430000D90480E290E03BCEE091EC04F0E0EE0FC7
:10431000FF1FE651FB4F0190F081E02D808190E07E
:104320009093C6048093C50466E871E08CEA94E03B
:104330000E94410D10E000E0E6E0FE2E80919E0418
:1043400090919F04E091EC04F0E0EE0FFF1FE65126
:10435000FB4FA081B1814091C5045091C604F49EE9
:104360009001F59E300D1124A20FB31F9D01200F67
:10437000311FDC01ED91FC910190F081E02DD9011C
:1043800011966C9109950F5F1F4F04301105B1F61E
:1043900030C9E091EC04F0E0EE0FFF1FE651FB4F57
:1043A0000190F081E02D808190E09093C60480938D
:1043B000C50468E871E08CEA94E00E94410DE09148
:1043C000EC04F0E0EE0FFF1FE651FB4F0190F0818F
:1043D000E02D2091C5043091C60446E0429FC00103
:1043E000439F900D11240BCFE091EF04F0E0EE0F0E
:1043F000FF1FE351FB4F808191810E94680C62E0B6
:1044000072E08CEA94E00E94410DE091EF04F0E04C
:10441000EE0FFF1FE351FB4F0190F081E02D45812E
:104420005681678170858CEA94E00E94210DE091AD
:10443000EF04F0E0EE0FFF1FE351FB4F0190F0811E
:10444000E02DCBCE64E072E08CEA94E00E94410D56
:10445000E091EF04F0E0EE0FFF1FE351FB4F0190FE
:10446000F081E02D648575858CEA94E00E94410D11
:10447000E091EF04F0E0EE0FFF1FE351FB4F0190DE
:10448000F081E02D6685778500CD66E072E08CEAEC
:1044900094E00E94410DE091EF04F0E0EE0FFF1F69
:1044A000E351FB4F0190F081E02D65897689878982
:1044B000908DD6CE9092CB048092CA0484E290E094
:1044C0005ECDE5E2F0E0FDCD6AE072E08CEA94E0DA
:1044D0000E94410DE091EF04F0E0EE0FFF1FE35169
:1044E000FB4F0190F081E02D618570E080919E048A
:1044F00090919F040E94B00D7CC88091F00490912F
:10450000F104DC01ED91FC910280F381E02D09952D
:10451000E091F204F0E0EE0FFF1FE051FB4F6081ED
:1045200071818CEA94E00E947D0D63C8E6E2F0E0C0
:10453000C8CD9092CB048092CA0482E08093D904C3
:1045400027E230E03093CD042093CC041092DF04B6
:104550001092E0041092E1041092E204FDCD64E7B1
:1045600072E08CEA94E00E94410DE091F204F0E0E8
:10457000EE0FFF1FE051FB4F80819181DC01ED9137
:10458000FC910084F185E02D09956ACE8091F604B6
:104590009091F704892B09F434C861E470E08CEA47
:1045A00094E00E94410DE091F604F091F70461A5BA
:1045B00072A583A594A554CEE091FA04F091FB0472
:1045C0001ACA8091F6049091F704892B09F419C84E
:1045D00063E470E08CEA94E00E94410D8091F6045F
:1045E0009091F704FC0147A950AD61AD72AD0E94F6
:1045F0008A0736CE8091F6049091F704892B11F446
:104600000C94011B65E470E08CEA94E00E94410D7B
:10461000E091F604F091F70465A176A187A190A539
:104620001FCE8091F6049091F704892B11F40C941D
:10463000011B67E470E08CEA94E00E94410DE09178
:10464000F604F091F70461A172A183A194A108CEB0
:104650009092CB048092CA0482E08093D90481E3D3
:1046600090E08DCC9092CB048092CA0482E080933B
:10467000D90482E390E083CC9092CB048092CA0468
:1046800082E08093D90483E390E079CC8091F604B2
:104690009091F704892B11F40C94011B63E570E0F1
:1046A0008CEA94E00E94410D0091F6041091F70409
:1046B000D8019F968D919C91D097892B49F41A9699
:1046C0004D915D916D917C911D97C8010E947B0871
:1046D000F80181A992A9892B39F44685578560890B
:1046E0007189C8010E942E08D8019F962D913C9196
:1046F000D097D1968D919C91D2972817390709F4BC
:104700005CC0D5968D919C91D697892B49F4529691
:104710004D915D916D917C915597C8010E94C8089B
:10472000C8010E94A4086FAB78AF89AF9AAFC801E7
:104730000E9457086B017C01F80127A430A821A929
:1047400032A93EAB2DABC101821B930B65A976A9A3
:104750000E94042C90E080E00E949B292B013C01E8
:104760004DA95EA9240E351E36942794B10190E020
:1047700080E00E949B299B01AC01C301B2010E9411
:10478000FC2920E034E244E759E40E94572B2B0136
:104790003C012FA938AD49AD5AADC701B6010E9401
:1047A000EA2AA30192010E94572BD80152966D93D9
:1047B0007D938D939C93559753CD60E070E0CB0132
:1047C0004FCD8091FC049091FD04892B11F40C9441
:1047D000011B65E570E08CEA94E00E94410D809138
:1047E000FC049091FD04DC01ED91FC910488F589B5
:1047F000E02D0995BC0149CB9092CB048092CA046C
:1048000085E390E0BCCB9092CB048092CA0486E30F
:1048100090E0B5CB3197E633F10508F063C0ED5E6B
:10482000FB4D0C94592C492472246E24A824232572
:1048300097257224722472247224722472247224A2
:10484000722472249A25D425FC251E2672243D2626
:10485000722441264D2655268226AF26BB26C92620
:10486000CD267224D9260D273D2740276727942778
:10487000A327A7277224722472247224722472241C
:104880007224CD27DD27ED27FF270F281F282F288B
:1048900061288091D8048A0130E020E0082E04C00D
:1048A000000F111F221F331F0A94D2F74091DF041B
:1048B0005091E0046091E1047091E204400F511FB7
:1048C000621F731F4093DF045093E0046093E10480
:1048D0007093E204885F8093D80404C0452B69F488
:1048E0000E94EE008091D904882309F418C49091A5
:1048F000DA04911114C48150C0CA8FEF860F8093DF
:10490000D90481E08093DA048091E304882351F391
:10491000E091BE04F091BF043097B9F08091E404B7
:104920009091E504A091E604B091E7048C019D010B
:104930000F5F1F4F2F4F3F4F0093E4041093E50488
:104940002093E6043093E70409951092E304CACF5C
:10495000CA01B0E0A0E02091D80404C0880F991FDC
:10496000AA1FBB1F2A95D2F70091DF041091E00423
:104970002091E1043091E204800F911FA21FB31F28
:10498000BF708093DF049093E004A093E104B093A0
:10499000E20494E0569547959A95E1F75093C60442
:1049A0004093C50400919E0410919F04D801ED919D
:1049B000FC910680F781E02DC8010995D801529637
:1049C000ED91FC91539780818F7E80835296ED917B
:1049D000FC9153978081877F80835296ED91FC9163
:1049E000539780818F7780835296ED91FC915397F6
:1049F00080818F7D80835A968C915A9759968C939B
:104A00004091DF045091E0046091E1047091E20470
:104A100080919E0490919F040E948E00C090DF04BC
:104A2000D090E004E090E104F090E20465E674E7E1
:104A30008CEA94E00E94410DB701A6018CEA94E053
:104A40000E94210D4FCF2091D9042F3F59F480931C
:104A5000D9041092DF041092E0041092E104109245
:104A6000E20440CF8091DF049091E004A091E10442
:104A7000B091E2048417150659F49F5FAF4FBF4F02
:104A80008093DF049093E004A093E104B093E204E8
:104A9000211139C064E674E78CEA94E00E94410D6C
:104AA000A0919E04B0919F044091DF045091E004D6
:104AB0006091E1047091E204CB01BA016F5F7F4F16
:104AC0008F4F9F4FED91FC9111970190F081E02D58
:104AD000CD010995A0919E04B0919F044091DF04FF
:104AE0005091E0046091E1047091E2049927872FCE
:104AF000762F652FED91FC9111970190F081E02DBB
:104B0000CD010995EFCE8091DF049091E004A09152
:104B1000E104B091E2040196A11DB11D8093DF0470
:104B20009093E004A093E104B093E204DBCE809381
:104B3000AB04D8CE8093A004882309F4D3CEE091AF
:104B4000EF04F0E0EE0FFF1FE351FB4F80819181F6
:104B50000E945C0DE091F204F0E0EE0FFF1FE051C7
:104B6000FB4F608171818CEA94E00E947D0D809101
:104B7000A00480FFB7CE0E947A020091A304109196
:104B8000A4042091A5043091A604DC01CB01800F80
:104B9000911FA21FB31F8093A7049093A804A09312
:104BA000A904B093AA049ECE70E060E08091D8047E
:104BB00004C0440F551F661F771F8A95D2F7809156
:104BC000DF049091E004A091E104B091E204840F2D
:104BD000951FA61FB71F8093DF049093E004A09356
:104BE000E104B093E2048093A3049093A404A093FF
:104BF000A504B093A60476CE8091D8048A0130E053
:104C000020E0082E04C0000F111F221F331F0A943A
:104C1000D2F74091E4045091E5046091E60470916C
:104C2000E704400F511F621F731F4093E404509329
:104C3000E5046093E6047093E7044CCEE091BE0473
:104C4000F091BF04309709F44DCE8091E404909127
:104C5000E504A091E604B091E7048C019D010F5F8B
:104C60001F4F2F4F3F4F0093E4041093E504209310
:104C7000E6043093E704099535CE61506093F30460
:104C800031CE8091E8049091E9046150DC01ED910E
:104C9000FC910480F581E02DEECFA091E804B09165
:104CA000E904615012966C931DCE70E060E0809133
:104CB000D80404C0440F551F661F771F8A95D2F78A
:104CC0008091DF049091E004A091E104B091E204AE
:104CD000840F951FA61FB71F8093DF049093E004F5
:104CE000A093E104B093E204E091E804F091E904B8
:104CF000228144E0249F90011124E20FF31F94834A
:104D00008383F0CD70E060E08091D80404C0440F4C
:104D1000551F661F771F8A95D2F78091DF04909107
:104D2000E004A091E104B091E204840F951FA61F56
:104D3000B71F8093DF049093E004A093E104B09345
:104D4000E204E091E804F091E904228154E0259F17
:104D500090011124E20FF31F96838583C3CD009148
:104D6000E8041091E9040E941501AB01BC01C801DF
:104D70000E94BB0BB7CD61506093EC04E62FF0E0CE
:104D8000EE0FFF1FE651FB4F808191810E946C0F57
:104D9000A9CD61506093EC04A5CDE091EC04F0E066
:104DA000EE0FFF1FE651FB4FA081B18161506C9364
:104DB00099CD70E060E08091D80404C0440F551F85
:104DC000661F771F8A95D2F78091DF049091E004E7
:104DD000A091E104B091E204840F951FA61FB71FB4
:104DE0008093DF049093E004A093E104B093E20485
:104DF000E091EC04F0E0EE0FFF1FE651FB4F019055
:104E0000F081E02D208136E0239FE00DF11D11247B
:104E100081839283A383B48365CD70E060E0809149
:104E2000D80404C0440F551F661F771F8A95D2F718
:104E30008091DF049091E004A091E104B091E2043C
:104E4000840F951FA61FB71F8093DF049093E00483
:104E5000A093E104B093E204E091EC04F0E0EE0FE3
:104E6000FF1FE651FB4F0190F081E02D208146E0CD
:104E7000249FE00DF11D11246FCF8093EF0432CDFC
:104E8000E091EF04F0E0EE0FFF1FE351FB4F0081D4
:104E900011810E941501D80155966D937D938D93D4
:104EA0009C93589781E019968C93E091EF04F0E081
:104EB000EE0FFF1FE351FB4F0190F081E02DB5860F
:104EC000A48617861686128E118E81870BCD70E010
:104ED00060E08091D80404C0440F551F661F771FFF
:104EE0008A95D2F78091DF049091E004A091E104CB
:104EF000B091E204840F951FA61FB71F8093DF04B3
:104F00009093E004A093E104B093E204E091EF04F5
:104F1000F0E0EE0FFF1FE351FB4F0190F081E02D19
:104F2000928F818F1186DECCE091EF04F0E0EE0FDE
:104F3000FF1FE351FB4F0190F081E02D81E0452BF5
:104F400021F680E0C2CF61506093F204CBCCE091B7
:104F5000F204F0E0EE0FFF1FE051FB4F00811181E2
:104F6000D801ED91FC91E680F7800E941501AB011C
:104F7000BC01C801F7010995E091F204F0E0EE0FE1
:104F8000FF1FE051FB4F80819181DC01ED91FC918D
:104F90000284F385E02D0995A5CC0091F6041091CB
:104FA000F7040115110509F49DCC0E941501AB0110
:104FB000BC01C8010E949A0995CC0091F604109199
:104FC000F7040115110509F48DCC0E941501F801B3
:104FD00065A376A387A390A785CC0091F6041091D2
:104FE000F7040115110509F47DCC0E941501D801C3
:104FF00091966D937D938D939C93949773CC009130
:10500000F6041091F7040115110509F46BCC0E9408
:105010001501AB01BC01C8010E947B0863CC009163
:10502000F6041091F7040115110509F45BCC0E94F8
:105030001501AB01BC01C8010E942E0853CC0091A0
:10504000F6041091F7040115110509F44BCC0E94E8
:105050001501AB01BC01C8010E94C80843CC70E037
:1050600060E08091D80404C0440F551F661F771F6D
:105070008A95D2F78091DF049091E004A091E10439
:10508000B091E204840F951FA61FB71F8093DF0421
:105090009093E004A093E104B093E2042091FC0417
:1050A0003091FD042115310509F41CCCF901408132
:1050B0005181FA0142895389BC01C901FA0109955C
:1050C00011CC70E060E08091D80404C0440F551FFB
:1050D000661F771F8A95D2F78091DF049091E004D4
:1050E000A091E104B091E204840F951FA61FB71FA1
:1050F0008093DF049093E004A093E104B093E20472
:105100002091FC043091FD042115310509F4EACB0E
:10511000F90140815181FA0146855785CDCFEAECEE
:10512000F4E0828193818193919326ED34E02E17F0
:105130003F07B9F71092DA040C94F91A0E949F0203
:105140002091A1043091A204620F731F811D911D53
:105150006093DB047093DC048093DD049093DE04A1
:105160000C940E1B0E947A020091160310911703F3
:105170002091180330911903601771078207930774
:1051800008F48EC087ED92E00E940D082091F6028F
:1051900080910E0390910F03A0911003B091110321
:1051A000222309F479C00196A11DB11D80930E033D
:1051B00090930F03A0931003B093110380910A03FF
:1051C00090910B03209108033091090328173907A8
:1051D00070F440910C0350910D03841B950B8217C2
:1051E000930708F4C90190930B0380930A0320915D
:1051F0000A0330910B038091160390911703A0913D
:105200001803B0911903820F931FA11DB11D809344
:10521000160390931703A0931803B093190382E029
:105220008093CD029091F702992311F40C94261CDF
:10523000823011F00C94261C86E493E00E94680CE6
:1052400090914F03911120C0209154033091550348
:105250004091520350915303241B350B409150034E
:10526000509151034217530778F420E030E040E0BA
:105270005FE320935B0330935C0340935D035093A3
:105280005E0391E090934F03882311F40C94261C45
:105290000E9418100C94261C0197A109B10986CF11
:1052A00081E0BECF112311F40C947E1B8091A004E9
:1052B000882311F40C947E1B6EE370E08CEA94E07A
:1052C0000E94410D0E947A02AB01BC018CEA94E07D
:1052D0000E94210D0C947E1B0E94E4100C94BE1BB6
:1052E0000E947D100C94BE1B8091CD02882311F486
:1052F0000C94261C80919203882311F40C94261C94
:105300008DE693E00E94D90F0C94261C8091A9038E
:105310009091AA030E94FB2C8091A6039091A70371
:1053200097FD03C060E00C94D70108950E94D8292E
:1053300008F481E00895E89409C097FB3EF4909545
:105340008095709561957F4F8F4F9F4F9923A9F05E
:10535000F92F96E9BB279395F695879577956795ED
:10536000B795F111F8CFFAF4BB0F11F460FF1BC031
:105370006F5F7F4F8F4F9F4F16C0882311F096E9C4
:1053800011C0772321F09EE8872F762F05C0662372
:1053900071F096E8862F70E060E02AF09A95660F2B
:1053A000771F881FDAF7880F9695879597F90895E4
:1053B000990F0008550FAA0BE0E8FEEF1616170626
:1053C000E807F907C0F012161306E407F50798F08E
:1053D000621B730B840B950B39F40A2661F0232BA7
:1053E000242B252B21F408950A2609F4A140A69523
:1053F0008FEF811D811D08950E940F2A0C94802A31
:105400000E94722A38F00E94792A20F0952311F028
:105410000C94692A0C946F2A11240C94B42A0E94CB
:10542000912A70F3959FC1F3950F50E0551F629F2D
:10543000F001729FBB27F00DB11D639FAA27F00DED
:10544000B11DAA1F649F6627B00DA11D661F829F14
:105450002227B00DA11D621F739FB00DA11D621FF9
:10546000839FA00D611D221F749F3327A00D611D16
:10547000231F849F600D211D822F762F6A2F1124F8
:105480009F5750409AF0F1F088234AF0EE0FFF1F2B
:10549000BB1F661F771F881F91505040A9F79E3F82
:1054A000510580F00C94692A0C94B42A5F3FE4F310
:1054B000983ED4F3869577956795B795F795E795D8
:1054C0009F5FC1F7FE2B880F911D9695879597F9E1
:1054D000089597F99F6780E870E060E008959FEF76
:1054E00080EC089500240A9416161706180609067B
:1054F000089500240A94121613061406050608954A
:10550000092E0394000C11F4882352F0BB0F40F4D1
:10551000BF2B11F460FF04C06F5F7F4F8F4F9F4F11
:10552000089557FD9058440F551F59F05F3F71F093
:105530004795880F97FB991F61F09F3F79F08795FA
:105540000895121613061406551FF2CF4695F1DF83
:1055500008C0161617061806991FF1CF8695710513
:10556000610508940895E894BB2766277727CB0147
:1055700097F90895F999FECF92BD81BDF89A9927C0
:1055800080B50895262FF999FECF1FBA92BD81BD2F
:1055900020BD0FB6F894FA9AF99A0FBE01960895B5
:1055A0000E94DB2AA59F900DB49F900DA49F800DB3
:1055B000911D11240895A29FB001B39FC001A39F24
:1055C000700D811D1124911DB29F700D811D11243C
:1055D000911D08955058BB27AA270E94022B0C94B6
:1055E000802A0E94722A38F00E94792A20F039F429
:1055F0009F3F19F426F40C946F2A0EF4E095E7FB14
:105600000C94692AE92F0E94912A58F3BA1762076D
:1056100073078407950720F079F4A6F50C94B32A54
:105620000EF4E0950B2EBA2FA02D0B01B9019001BD
:105630000C01CA01A0011124FF27591B99F0593F01
:1056400050F4503E68F11A16F040A22F232F342F49
:105650004427585FF3CF469537952795A795F04097
:105660005395C9F77EF41F16BA0B620B730B840BAC
:10567000BAF09150A1F0FF0FBB1F661F771F881F64
:10568000C2F70EC0BA0F621F731F841F48F48795BC
:1056900077956795B795F7959E3F08F0B0CF9395AE
:1056A000880F08F09927EE0F9795879508950E9427
:1056B0006B2B0C94802A0E94792A58F00E94722A3F
:1056C00040F029F45F3F29F00C94692A51110C94A1
:1056D000B42A0C946F2A0E94912A68F39923B1F39B
:1056E000552391F3951B550BBB27AA276217730708
:1056F000840738F09F5F5F4F220F331F441FAA1F9C
:10570000A9F335D00E2E3AF0E0E832D09150504057
:10571000E695001CCAF72BD0FE2F29D0660F771F05
:10572000881FBB1F261737074807AB07B0E809F0EB
:10573000BB0B802DBF01FF2793585F4F3AF09E3F70
:10574000510578F00C94692A0C94B42A5F3FE4F375
:10575000983ED4F3869577956795B795F7959F5FB3
:10576000C9F7880F911D9695879597F90895E1E0FF
:10577000660F771F881FBB1F621773078407BA075E
:1057800020F0621B730B840BBA0BEE1F88F7E095B9
:1057900008950E94D02B6894B1110C94B42A0895F6
:1057A0000E94992A88F09F5798F0B92F9927B751EE
:1057B000B0F0E1F0660F771F881F991F1AF0BA95B5
:1057C000C9F714C0B13091F00E94B32AB1E0089536
:1057D0000C94B32A672F782F8827B85F39F0B93F28
:1057E000CCF3869577956795B395D9F73EF4909568
:1057F0008095709561957F4F8F4F9F4F08950E94C0
:10580000D82908F48FEF0895AA1BBB1B51E107C0EC
:10581000AA1FBB1FA617B70710F0A61BB70B881F40
:10582000991F5A95A9F780959095BC01CD010895CF
:10583000A1E21A2EAA1BBB1BFD010DC0AA1FBB1F94
:10584000EE1FFF1FA217B307E407F50720F0A21B06
:10585000B30BE40BF50B661F771F881F991F1A9473
:1058600069F760957095809590959B01AC01BD019D
:10587000CF010895052E97FB1EF400940E94512C31
:1058800057FD07D00E94182C07FC03D04EF40C944F
:10589000512C50954095309521953F4F4F4F5F4F7C
:1058A000089590958095709561957F4F8F4F9F4F8C
:1058B0000895EE0FFF1F0590F491E02D09940F93CA
:1058C0001F93CF93DF938230910510F482E090E034
:1058D000E0910005F091010530E020E0B0E0A0E0AB
:1058E000309799F42115310509F44AC0281B390B6A
:1058F00024303105D8F58A819B816115710589F1C4
:10590000FB0193838283FE0111C04081518102819A
:10591000138148175907E0F04817590799F4109771
:1059200061F012960C93129713961C933296CF0146
:10593000DF91CF911F910F9108950093000510936F
:105940000105F4CF2115310551F04217530738F006
:10595000A901DB019A01BD01DF01F801C1CFEF010F
:10596000F9CF9093010580930005CDCFFE01E20FA2
:10597000F31F819391932250310939832883D7CF24
:105980002091FE043091FF04232B41F42091140157
:10599000309115013093FF042093FE0420911201F1
:1059A000309113012115310541F42DB73EB74091D7
:1059B000160150911701241B350BE091FE04F09164
:1059C000FF04E217F307A0F42E1B3F0B281739073B
:1059D00078F0AC014E5F5F4F2417350748F04E0F4B
:1059E0005F1F5093FF044093FE04819391939FCFD8
:1059F000F0E0E0E09CCFCF93DF930097E9F0FC016B
:105A0000329713821282A0910005B0910105ED0139
:105A100030E020E01097A1F420813181820F931FA4
:105A20002091FE043091FF042817390709F061C066
:105A3000F093FF04E093FE04DF91CF910895EA0113
:105A4000CE17DF07E8F54A815B819E0141155105BC
:105A5000B1F7E901FB83EA8349915991C40FD51F3E
:105A6000EC17FD0761F4808191810296840F951FE8
:105A7000E90199838883828193819B838A83F0E003
:105A8000E0E012968D919C9113970097B9F52D91B6
:105A90003C911197CD010296820F931F2091FE0435
:105AA0003091FF042817390739F6309751F51092D5
:105AB000010510920005B093FF04A093FE04BCCF33
:105AC000D383C28340815181840F951FC817D907A2
:105AD00061F44E5F5F4F88819981480F591F518350
