:100000000C9463000C948B000C948B000C948B006C
:100010000C948B000C948B000C948B000C940111AD
:100020000C948B000C948B000C948B000C948B0024
:100030000C948B000C948B000C948B000C948B0014
:100040000C94B7100C948B000C9483110C945D11DC
:100050000C948B000C948B000C948B000C948B00F4
:100060000C94B5110C948B000000000023002600B6
:1000700029000200000000240027002A00000000E0
:1000800000250028002B00040404040404040402D6
:100090000202020202030303030303010204081025
:1000A00020408001020408102001020408102000F2
:1000B0000000080002010000030407000000000027
:1000C00000000000D41211241FBECFEFD8E0DEBF25
:1000D000CDBF24E0AAEEB1E001C01D92AC35B2075D
:1000E000E1F711E0A0E0B1E0EEEAF4E402C005902F
:1000F0000D92AA3EB107D9F710E0C3E6D0E004C0E4
:100100002197FE010E942521C236D107C9F70E941E
:10011000BC130C9455220C940000CF93DF9300D0B5
:1001200000D0CDB7DEB769837A838B839C838091BF
:100130000D0490910E04DC01ED91FC910280F3819D
:10014000E02D44E050E0BE016F5F7F4F09950F90B6
:100150000F900F900F90DF91CF910895CF93DF9381
:1001600000D0CDB7DEB789839A8380910D0490913A
:100170000E04DC01ED91FC910280F381E02D42E060
:1001800050E0BE016F5F7F4F09950F900F90DF9198
:10019000CF910895CF93DF9380E092E00E94AE006C
:1001A000C4E5D4E0E881F0E0EE0FFF1FEE5AFB4F0C
:1001B0000190F081E02D65817681878190850E9494
:1001C0008D0080910D0490910E04E881F0E0EE0F17
:1001D000FF1FEE5AFB4F0190F081E02DA5A1B6A1C3
:1001E000EC01E881F9810190F081E02D6C91DF91C3
:1001F000CF910994EF92FF920F931F93CF93DF93C8
:1002000080E792E00E94AE0087E5E82E84E0F82EB9
:10021000D701EC91F0E0EE0FFF1FEB5AFB4F01907E
:10022000F081E02D65817681878190850E948D0027
:10023000C0910D04D0910E04E881F98100811181F3
:10024000D701EC91F0E0EE0FFF1FEB5AFB4F8081DE
:100250009181DC01ED91FC910480F581E02D0995FF
:10026000682FCE01F801DF91CF911F910F91FF9080
:10027000EF900994CF92DF92EF92FF92CF93DF93AA
:10028000EC016A017B01E889F98982E08083C1146D
:1002900081EED806E104F104A1F060E079E08DE39D
:1002A00090E0A70196010E94E42021503109410904
:1002B00051095695479537952795211580E13807BF
:1002C00098F0E889F989108260E874E88EE190E09E
:1002D000A70196010E94E4202150310941095109EA
:1002E0005695479537952795EC85FD853083EE85A6
:1002F000FF852083188EEC89FD8986E08083EA895A
:10030000FB89808180618083EA89FB8980818860A4
:100310008083EA89FB89808180688083EA89FB8900
:1003200080818F7D8083DF91CF91FF90EF90DF9070
:10033000CF900895EDE0F4E013A212A215A214A24A
:1003400017A216A211A610A613A612A615A614A6E9
:1003500017A616A613AA14AA15AA16AA11A211AABC
:1003600012AA13AE17AA10AE11AE12AE10AA0895BB
:10037000EDE0F4E0858D968DB0E0A0E020A904C00A
:10038000880F991FAA1FBB1F2A95D2F747A950AD06
:1003900061AD72AD840F951FA61FB71F87AB90AFDD
:1003A000A1AFB2AF682F792F8A2F9B2F0895CF93DB
:1003B000DF9300D000D0CDB7DEB769837A838B831B
:1003C0009C8380910D0490910E04DC01ED91FC91D1
:1003D0000280F381E02D44E050E0BE016F5F7F4F6B
:1003E00009950F900F900F900F90DF91CF91089586
:1003F000CF93DF93E0912504F0912604309709F420
:1004000085C0EC018091490490914A04A0914B046D
:10041000B0914C04AC01BD014F5F5F4F6F4F7F4FF8
:100420004093490450934A0460934B0470934C04E6
:1004300009958E3108F04BC080933E04CE010E9496
:10044000AE0080910D0490910E04DC01ED91FC91C1
:100450000190F081E02D60913E04099580913E0469
:10046000882309F453C0E0912504F091260480917B
:10047000490490914A04A0914B04B0914C04AC0102
:10048000BD014F5F5F4F6F4F7F4F409349045093C3
:100490004A0460934B0470934C040995282F30E074
:1004A00030932B0420932A04A0910D04B0910E04E4
:1004B000ED91FC9111970190F081E02D682FCD0115
:1004C000099580913E04815080933E04C7CF1092DD
:1004D0003E04E0912304F0912404309709F4AECF58
:1004E0008091490490914A04A0914B04B0914C042E
:1004F0000197A109B1098093490490934A04A093FC
:100500004B04B0934C0460E0099598CFDF91CF91F4
:100510000895833081F028F4813099F08230A9F079
:1005200008958730A9F08830C9F08430B1F4809103
:1005300080008F7D03C0809180008F778093800042
:10054000089584B58F7784BD089584B58F7DFBCFE2
:100550008091B0008F778093B00008958091B000B3
:100560008F7DF9CF1F93CF93DF93282F30E0F901D0
:10057000E155FF4F8491F901E556FF4FD491F90100
:10058000E957FF4FC491CC23A9F0162F81110E9487
:100590008902EC2FF0E0EE0FFF1FE358FF4FA5910B
:1005A000B4918FB7F894EC91111108C0D095DE2367
:1005B000DC938FBFDF91CF911F910895DE2BF8CF91
:1005C000CF93DF9390E0FC01E556FF4F24918957CC
:1005D0009F4FFC0184918823D1F090E0880F991FF0
:1005E000FC01ED58FF4FA591B491FC01E358FF4F7A
:1005F000C591D49161110EC09FB7F8948C91E22FF0
:10060000E0958E238C932881E223E8839FBFDF91BE
:10061000CF9108958FB7F894EC91E22BEC938FBFB4
:10062000F6CF1F93CF93DF93182FEB0161E00E9469
:10063000E002209739F460E0812FDF91CF911F9184
:100640000C94B202CF3FD10511F461E0F5CFE12F58
:10065000F0E0E155FF4FE491E33031F140F4E13057
:10066000B1F0E230E1F0C038D1057CF7E4CFE730FB
:1006700029F1E83059F1E430B1F7809180008062CF
:1006800080938000D0938B00C0938A0004C084B50F
:10069000806884BDC7BDDF91CF911F91089584B557
:1006A000806284BDC8BDF7CF809180008068809350
:1006B0008000D0938900C0938800EDCF8091B00076
:1006C00080688093B000C093B300E5CF8091B00004
:1006D00080628093B000C093B400DDCF3FB7F89440
:1006E00080916B0290916C02A0916D02B0916E02AC
:1006F00026B5A89B05C02F3F19F00196A11DB11D7D
:100700003FBFBA2FA92F982F8827BC01CD01620FB8
:10071000711D811D911D42E0660F771F881F991F73
:100720004A95D1F708952FB7F894609167027091B8
:1007300068028091690290916A022FBF0895CF9359
:10074000DF93CDB7DEB7C258D1090FB6F894DEBF3C
:100750000FBECDBF382F82E8E2E5F1E0DE01119651
:1007600001900D928A95E1F7DE01AC57BF4FE2E8A8
:100770008E918C3511F0E150D9F7EF5F81E88E1B37
:1007800041E050E04C0F5D1F4E0F511DFA01232F29
:10079000A32FB92F9A2F921B981718F491919D931C
:1007A000F9CFCE57DF4F0FB6F894DEBF0FBECDBFE7
:1007B000DF91CF910895CF93DF93CDB7DEB72C971C
:1007C0000FB6F894DEBF0FBECDBF2CE0E4EDF1E034
:1007D000DE01119601900D922A95E1F7FE01319606
:1007E0009C01255F3F4F4191DC014D93CD01A21744
:1007F000B307C9F78BE02C960FB6F894DEBF0FBE97
:10080000CDBFDF91CF910895CF93DF93CDB7DEB702
:1008100029970FB6F894DEBF0FBECDBF29E0E0EEFA
:10082000F1E0DE01119601900D922A95E1F7FE01AB
:1008300031969C01285F3F4F4191DC014D93CD01E2
:10084000A217B307C9F788E029960FB6F894DEBF60
:100850000FBECDBFDF91CF91089590910001891314
:100860000BC0E2E7F0E0E4919FEF90930001E130EC
:1008700049F028F0E23061F060E00C94B20210928E
:100880006E00FACF90916F009D7F90936F00F4CF30
:10089000909170009D7F9093700091E09093B000D4
:1008A0009091B100987F94609093B1001092B30042
:1008B000E3CF4F925F926F927F928F929F92AF920F
:1008C000BF92CF92DF92EF92FF920F931F93CF933D
:1008D000DF9300D000D01F92CDB7DEB78B01290186
:1008E0003A01909100018917C9F09F3F09F47EC039
:1008F0000F900F900F900F900F90DF91CF911F915D
:100900000F91FF90EF90DF90CF90BF90AF909F90AE
:100910008F907F906F905F904F900895E2E7F0E0A6
:1009200094919D8397FDE4CF61E00E94E0028D8168
:10093000882321F09D81923009F04AC14801B12CF1
:10094000A12C60E072E18AE790E0A50198010E9485
:10095000062129833A834B835C8369017A0181E014
:10096000C81AD108E108F1089FEFC916D104E104C3
:10097000F10409F00CF401C160E472E48FE090E04E
:10098000A50198010E94062169017A0181E0C81A37
:10099000D108E108F1089D81923009F0A2C08FEFE3
:1009A000C816D104E104F10409F00CF4E6C160E9D1
:1009B00070ED83E090E0A50198010E940621690195
:1009C0007A0191E0C91AD108E108F1088FEFC81641
:1009D000D104E104F10411F00CF07FC183E09091A7
:1009E000B100987F892B8093B100CFC08093000124
:1009F000E2E7F0E094919D839F3F09F479CF913035
:100A000041F150F0923009F446C09D8197FD70CFBE
:100A100061E00E94E0028ECF14BC15BC94B59260D8
:100A200094BD95B5916095BD282F30E0F901E95747
:100A3000FF4FE491F0E0EE0FFF1FE358FF4F4591A9
:100A40005491F901E556FF4FE491E09356021D825F
:100A50006BCF10928000109281009091810098607D
:100A60009093810090918100916090938100282F54
:100A700030E0F901E957FF4FE491F0E0EE0FFF1F7E
:100A8000E358FF4F45915491F901E556FF4FE4912A
:100A9000E093550249CF1092B0001092B1009091AE
:100AA000B00092609093B0009091B10091609093EB
:100AB000B100282F30E0F901E957FF4FE491F0E051
:100AC000EE0FFF1FE358FF4F459154915093600282
:100AD00040935F02F901E556FF4FE491E093610214
:100AE00023CF9FEFC916D104E104F10409F00CF4FF
:100AF0006DC068E478EE81E090E0A50198010E9465
:100B0000062169017A0181E0C81AD108E108F108DB
:100B10009D81992309F4FAC08FEFC816D104E1042E
:100B2000F10411F00CF0FBC0EFC064E274EF80E060
:100B300090E0A50194010E94062169017A0181E0FB
:100B4000C81AD108E108F10885E09FEFC916D10461
:100B5000E104F10409F008F442CF62E17AE780E0B1
:100B600090E0A50194010E94062169017A0181E0CB
:100B7000C81AD108E108F108E5C081E09D81911112
:100B80002ECF95B5987F892B85BD2FEF3FEFA9011B
:100B9000411451046104710409F043C09D819130F6
:100BA00009F45EC0923009F46DC09111A1CEC7BCAA
:100BB00020935B0230935C0240935D0250935E028F
:100BC00080916E00826080936E0092CE82E0D6CFDC
:100BD000B12CA12C60E072E18AE790E0A5019801B8
:100BE0000E94062169017A0181E0C81AD108E10852
:100BF000F108C114D10491E0E906F10404F591E093
:100C00008D81813011F680918100887F892B8093BE
:100C100081002FEF3FEFA9014114510461047104D9
:100C2000F9F0D801AA0FBB1FA30192010E94BC1FBB
:100C300028EE33E040E050E00E94E420AFCF68E4CB
:100C400078EE81E090E0A50198010E9406216901FB
:100C50007A0181E0C81AD108E108F10893E0D0CF09
:100C6000D0928900C0928800209357023093580296
:100C70004093590250935A0280916F008260809392
:100C80006F0036CEC092B3002093620230936302AD
:100C9000409364025093650280917000826080935B
:100CA000700026CE84E09FEFC916D104E104F10460
:100CB00009F008F466CFC980DA80EB80FC808AE016
:100CC000F594E794D794C7948A95D1F781E0C81A30
:100CD000D108E108F10885E054CF68E478EE81E0BE
:100CE00090E0A50198010E94062169017A0181E046
:100CF000C81AD108E108F1089FEFC916D104E10430
:100D0000F10411F00CF011CF84E069CE83E09FEF85
:100D1000C916D104E104F10409F00CF432CF62E108
:100D20007AE780E090E0A50194010E940621690124
:100D30007A0181E0C81AD108E108F1089D81992360
:100D400009F4B0CF86E09FEFC916D104E104F104A5
:100D500009F008F444CEC980DA80EB80FC809AE088
:100D6000F594E794D794C7949A95D1F781E0C81A7F
:100D7000D108E108F10887E032CE82E030CEAF92B0
:100D8000BF92CF92DF92EF92FF920F931F93CF9378
:100D9000DF936C017B018B01040F151FEB015E01DA
:100DA000AE18BF08C017D10759F06991D601ED916F
:100DB000FC910190F081E02DC6010995892B79F70E
:100DC000C501DF91CF911F910F91FF90EF90DF90C0
:100DD000CF90BF90AF900895FC01538D448D252F87
:100DE00030E0842F90E0821B930B541710F0CF96C5
:100DF000089501970895FC01918D828D981761F0F7
:100E0000A28DAE0FBF2FB11D5D968C91928D9F5F0D
:100E10009F73928F90E008958FEF9FEF0895FC01EC
:100E2000918D828D981731F0828DE80FF11D858D9F
:100E300090E008958FEF9FEF0895FC01918D228D32
:100E4000892F90E0805C9F4F821B91098F739927B7
:100E5000089580E793E00E941D0721E0892B09F4A3
:100E600020E0822F089580E090E0892B29F00E94F5
:100E7000290781110C9400000895FC01A48DA80F8E
:100E8000B92FB11DA35ABF4F2C91848D90E00196CC
:100E90008F739927848FA689B7892C93A089B189EC
:100EA0008C91837080648C93938D848D981306C08D
:100EB0000288F389E02D80818F7D80830895EF92F1
:100EC000FF920F931F93CF93DF93EC0181E0888F04
:100ED0009B8D8C8D98131AC0E889F989808185FFD4
:100EE00015C09FB7F894EE89FF896083E889F98976
:100EF00080818370806480839FBF81E090E0DF9178
:100F0000CF911F910F91FF90EF900895F62E0B8DCA
:100F100010E00F5F1F4F0F731127E02E8C8D8E1185
:100F20000CC00FB607FCFACFE889F989808185FFEC
:100F3000F5CFCE010E943D07F1CFEB8DEC0FFD2FD9
:100F4000F11DE35AFF4FF0829FB7F8940B8FEA89A7
:100F5000FB8980818062CFCFCF93DF93EC01888DB6
:100F60008823B9F0AA89BB89E889F9898C9185FD24
:100F700003C0808186FD0DC00FB607FCF7CF8C91B2
:100F800085FFF2CF808185FFEDCFCE010E943D0726
:100F9000E9CFDF91CF910895089560E070E080E897
:100FA0009FE30895089580E0089580E00895DC01AE
:100FB0001396ED91FC9180810895AF92BF92CF92EC
:100FC000DF92EF92FF920F931F93CF93DF93EC0189
:100FD000EB81FC81B080C12CEE24E394F12C898557
:100FE000C81608F045C00C2D10E0FE01E00FF11FFF
:100FF000228530E0F901E155FF4F8491F901E55672
:10100000FF4FD490F901E957FF4FA490AA2069F14E
:1010100081110E948902EA2DF0E0EE0FFF1FE859CE
:10102000FF4FA591B491EC91DE2231E020E009F46C
:1010300030E0832F922FEB81FC819701002E01C0BD
:10104000220F0A94EAF7322F309520812323208340
:10105000EB81FC8121E0822701C0880F0A95EAF725
:101060009081892B8083C394BACF90E080E0E3CF56
:101070000E946E036D837E838F839887EB81FC8152
:1010800081E090819B1101C080E0DF91CF911F91A1
:101090000F91FF90EF90DF90CF90BF90AF900895A9
:1010A000CF93DF93EC016B81617089810E94B20262
:1010B0006B8162708A81DF91CF910C94B202EF92C2
:1010C000FF920F931F93DC0118968C911897882339
:1010D00081F0489FA0011124452F829F9001112487
:1010E000232F809F80011124012F8E9D70011124D8
:1010F000EF2C1E968C911E971996ED91FC911A97E4
:101100001B969C911B97891320C0CB01880F991FB8
:10111000680F791F6E0F7F1F1B96EC911B97E60FD0
:10112000F72FF11D40831C96EC911C97E60FF72FCB
:10113000F11D20831D968C91680F711DFB010083AA
:101140001F910F91FF90EF900895660F771F660F24
:10115000771F6E0F7F1FFB01E80FF11DE082DCCFD0
:10116000CF92DF92EF92FF920F931F93CF93DF9373
:10117000CDB7DEB729970FB6F894DEBF0FBECDBF4F
:101180008C010E946E03D8011F96CD90DD90ED90EA
:10119000FC9052976C157D058E059F0528F4F8018B
:1011A0006787708B818B928BD8011F96CD90DD90D5
:1011B000ED90FC9052976C197D098E099F096C3255
:1011C000714081059105E8F2F894F80184819581D8
:1011D0009A8389830184F285E02D7F012FEFE21A43
:1011E000F20A80818F83D8019C915396ED91FC91F6
:1011F000549755968C91992309F448C09081982B67
:101200009887908180958923898789858B8388E059
:101210008C83588569854F813C812B8189819A8196
:10122000D701508347FD252F3A952083262F39F08B
:10123000441F00C000006083000000C0F2CF38E00F
:101240004D9160830000019761F7D8015496FC939B
:10125000EE9353974F833C832B839A8389837894AF
:101260000E946E03F8016787708B818B928B2996A1
:101270000FB6F894DEBF0FBECDBFDF91CF911F91A7
:101280000F91FF90EF90DF90CF9008959081982B71
:101290009887908180958923898789858D8388E0C7
:1012A0008E83588569854F813E812D8189819A8100
:1012B000D701508347FD252F00C000C0208300C008
:1012C00000C000C000C000C060830000262F3A9517
:1012D00041F0441F000000C000C000C000C000C0BA
:1012E000E8CF38E04D9100C0608300C0019709F756
:1012F000D8015496FC93EE9353974F833E832D83EE
:10130000ACCFEF920F931F93CF93DF93EC018EA19D
:101310009FA1009799F410E08DA5181730F58EA5C0
:101320006FEF70E0882311F070E060E0FE01E10FE4
:10133000F11D81A50E9411031F5FEECF68A570E02B
:10134000FC01228133816217730730F4E12C00E045
:1013500020E040E00E945F088EA19FA1FC01218552
:101360003285232B11F00E94B0081FA618AA19AAD3
:101370001AAA1DA2DF91CF911F910F91EF900895AE
:10138000EF920F931F93CF93DF93EC018EA19FA158
:10139000009701F510E006E0288130E08DA51817D0
:1013A000B8F5812F90E0029FF001039FF00D11240A
:1013B000EC0FFD1FE80FF91F61812EA5211101C05F
:1013C000609570E08C0F9D1FFC0181A50E941103A8
:1013D0001F5FE2CF68A570E0FC01228133816217B4
:1013E000730768F42881FE0136E0239FE00DF11DAC
:1013F0001124E4800381228141810E945F088EA133
:101400009FA1FC0121853285232B11F00E94B00899
:10141000888116E0FE01189FE00DF11D11248581E1
:101420009681019691F00E9493032881FE01129FFC
:10143000E00DF11D112425813681620F731F811D7E
:10144000911D6FA778AB89AB9AAB81E08DA3DF913B
:10145000CF911F910F91EF900895CF92DF92EF926D
:10146000FF920F931F93CF93DF93EC016A017B01EF
:101470000AA51BA501151105D9F0AB01960160E085
:1014800070E080E89FE30E94D61FAB01BC01D80149
:10149000ED91FC910480F581E02D2EA5C801DF912E
:1014A000CF911F910F91FF90EF90DF90CF90099413
:1014B0000CA4DDA5C02D2097C1F0688170E090E0FC
:1014C00080E00E94871EA70196010E94E81E0E94EC
:1014D000B5206B83CE01DF91CF911F910F91FF90CB
:1014E000EF90DF90CF900C945008DF91CF911F9137
:1014F0000F91FF90EF90DF90CF900895DC01EC9179
:10150000B4E0EB9FF0011124E80FF91F238134812F
:1015100061817281FC0181A550E040E02F3F3207DC
:1015200019F420E030E0A9010C945904DC01ED919C
:10153000FC910190F081E02D0994DC01ED91FC918A
:101540000280F381E02D09948F929F92AF92BF9217
:10155000CF92DF92EF92FF920F931F93CF93DF937F
:10156000EC018A898E3008F08E50877080648093F9
:101570007C0080917A00806480937A0080917A0068
:1015800086FDFCCF80917800909179009C838B83BD
:101590000E946E036D837E838F8398870E949303DE
:1015A0000B811C814C855D8528893989401751073D
:1015B00060F421153105A9F0CB8CDC8CED8CFE8C10
:1015C000C616D706E806F90660F41D870C876B017E
:1015D0007C01C20ED31EE11CF11CCB8EDC8EED8E85
:1015E000FE8E4E855F850417150760F421153105C1
:1015F00099F0CF8CD8A0E9A0FAA0C616D706E806C5
:10160000F90650F41F870E87620F731F811D911D0D
:101610006F8F78A389A39AA3CC84DD84EE84FF84A2
:10162000EC18FD0889858823D1F0B70190E080E0AF
:101630000E94871E2D893E894F89588D0E94E81E81
:101640004B015C01B60190E080E00E94871EA5017D
:1016500094010E94D71F0E94B5207A8F698F8A85D6
:101660009B85E816F90648F0298D3A8D89818823F3
:1016700031F081E00217130730F480E004C081E00C
:1016800002171307D0F748818883EDA1FEA19A8144
:1016900021E030E001C0220F9A95EAF72095908171
:1016A00029232083EDA1FEA128819A8101C0220F68
:1016B0009A95EAF79081292B20838427DF91CF9197
:1016C0001F910F91FF90EF90DF90CF90BF90AF9060
:1016D0009F908F90089520913002260F3327331F5B
:1016E00021323105ECF420919502FC0190E080E07C
:1016F000243069F082E00895A09130022191AC017C
:10170000425F5D4FA40FB52FB11D2C930196861734
:1017100098F380913002680F6093300280E0089562
:1017200081E008951092950281E0809394021092D6
:101730006F0261E082E10E94B20261E083E10E94F7
:10174000B202E9EBF0E080818E7F808380818D7F23
:10175000808388E48093B80085E48093BC0008957A
:10176000CF93DF9391E090930D028823B9F0C0915D
:10177000B800D091BA008091BC008A7B8093BC00F5
:1017800060E082E10E94B20260E083E10E94B20266
:101790000E94920BD093BA00C093B800DF91CF9112
:1017A00008958F929F92AF92BF92CF92DF92EF9265
:1017B000FF920F931F93CF93DF93D091BE02D1324C
:1017C00008F0D7C0182FC091BD020E946E036B01B4
:1017D0007C018091950281116BC082E0809395021B
:1017E000109394028FEF8093930210929202D09301
:1017F0009102ADE9B2E0E1E7F2E080E0D81391C0F8
:101800001092700280917002CC0FC82BC0937002AE
:1018100080916F02813009F088C010926F020E949F
:101820006E036B017C01809170028093BB008091FC
:10183000970290919802A0919902B0919A02892BF7
:101840008A2B8B2BA1F00E946E03009197021091BE
:1018500098022091990230919A026C197D098E09A3
:101860009F09061717072807390708F442C0809117
:10187000BC0083FDD8CF85EC8093BC000E946E0332
:101880006B017C0180919502823009F450C08091F7
:1018900093028F3F09F46FC080919302803209F464
:1018A0006CC080919302803309F469C084E026C043
:1018B0008091970290919802A0919902B0919A021A
:1018C000892B8A2B8B2B09F484CF0E946E03809086
:1018D000970290909802A0909902B0909A026C1989
:1018E0007D098E099F0986169706A806B90608F095
:1018F00070CF809196020E94B00B85E010929C02FE
:101900001092BE0210929B02DF91CF911F910F9116
:10191000FF90EF90DF90CF90BF90AF909F908F900F
:1019200008959D9191938F5F69CF85EEA5CF8091AA
:10193000970290919802A0919902B0919A02892BF6
:101940008A2B8B2B09F49ECF0E946E030091970285
:10195000109198022091990230919A026C197D0998
:101960008E099F09061717072807390708F08ACF3D
:10197000C0CF81E0C3CF80E0C1CF82E0BFCF83E0A2
:10198000BDCF08950895E0910C0280910B02E817F5
:1019900030F4F0E0E551FE4F808190E008958FEF44
:1019A0009FEF089590910C0280910B022FEF3FEF73
:1019B000981748F4E92FF0E0E551FE4F208130E020
:1019C0009F5F90930C02C901089580910B02909142
:1019D0000C02891B990B0895CF92DF92EF92FF9230
:1019E0000F931F93CF93DF937C01CB018A0120914A
:1019F0009B02222389F0EB016B01C40ED51ECC158E
:101A0000DD0569F06991D701ED91FC910190F081BC
:101A1000E02DC7010995F3CF642F0E946B0BC8011D
:101A2000DF91CF911F910F91FF90EF90DF90CF90BA
:101A30000895CF93DF931F92CDB7DEB769832091CE
:101A40009B022223F9F02091BE02203258F021E0BF
:101A500030E0FC013383228390E080E00F90DF913F
:101A6000CF91089580919C02E82FF0E0E356FD4F5E
:101A7000998190838F5F80939C028093BE0281E066
:101A800090E0ECCF61E0CE0101960E946B0BF7CFA6
:101A900090E080E0089560E070E080E89FEB0895BA
:101AA00060E070E080E89FEB0895CF92DF92EF92C4
:101AB000FF92CF93DF93EC01E881F9810084F185F7
:101AC000E02D09956B017C012A853B854C855D8560
:101AD0006E857F85888999890E94D71FA701960105
:101AE0000E94E81EDF91CF91FF90EF90DF90CF90A2
:101AF0000895DC01ED91FC910088F189E02D60E012
:101B000009948F929F92AF92BF92CF92DF92EF9201
:101B1000FF921F93CF93DF93EC016A017B01122F99
:101B20008A849B84AC84BD84AB019601C501B40159
:101B30000E94821E40E050E0BA0187FF0EC0A5015E
:101B40009401C701B6010E94D61F2E853F854889A2
:101B500059890E944320AB01BC01E881F9810480CE
:101B6000F581E02D212FCE0109952E853F854889ED
:101B700059890E94E81E2A853B854C855D850E9417
:101B8000D71FDF91CF911F91FF90EF90DF90CF9003
:101B9000BF90AF909F908F900895DC01ED91FC91E4
:101BA0000484F585E02D20E00994DC01ED91FC91A1
:101BB0000084F185E02D60E00994DC01ED91FC9159
:101BC0000480F581E02D20E009941F93CF93DF93EB
:101BD000EC018A899B89892B11F510920C021092D5
:101BE0000B0210929C021092BE020E94920B81EC9A
:101BF0009CE090932F0280932E0282EC9CE09093C5
:101C00003302809332028F8991E090939B028093FC
:101C1000BD0281E0DF91CF911F910C94D10B1FB7D2
:101C2000F8948091EA01811127C0E1E9F0E0849104
:101C3000E5EAF0E09491E82FF0E0EE0FFF1FED5899
:101C4000FF4FA591B491EC91E92321F461E08AE082
:101C50000E94B20261E08AE00E94E0028CB58061DD
:101C60008CBD8CB580648CBD61E08DE00E94E0028B
:101C700061E08BE00E94E0028091EA018F5F809337
:101C8000EA011FBF61E08C890E94E00261E08C895B
:101C90000E94B20280E0DF91CF911F9108958BECFA
:101CA00092E00E94A40A882381F08091CB0269E12E
:101CB00070E0811102C061E070E08AE00E941103CF
:101CC00080910F0481FD0C94CA0008958F929F9219
:101CD000AF92BF92CF92DF92EF92FF920F931F933A
:101CE000CF93DF93EC01042FF22E632B162F142BCE
:101CF0008A899B89892B09F030C18CE08093B800D8
:101D00008D899E892F8931E030939B022093BD02FB
:101D100010929C021092BE02DC01ED91FC910190A8
:101D2000F081E02D612F09950C3009F006C181E0AA
:101D30000E94D10B882379F08FEF9FEFDF91CF9135
:101D40001F910F91FF90EF90DF90CF90BF90AF90D9
:101D50009F908F9008951F890E946E036B017C01F4
:101D600080919502811165C081E0809395028093F6
:101D700094029FEF909393021092920280939102AB
:101D80008093700280917002110F182B10937002D3
:101D900080916F02813009F08EC010926F020E9414
:101DA0006E036B017C01809170028093BB00809177
:101DB000970290919802A0919902B0919A02892B72
:101DC0008A2B8B2BA1F00E946E0300919702109139
:101DD00098022091990230919A026C197D098E091E
:101DE0009F09061717072807390708F443C0809191
:101DF000BC0083FDD8CF85EC8093BC000E946E03AD
:101E00006B017C0180919502813009F456C080916C
:101E10009202823008F073C080919202E1E7F2E012
:101E2000ABEEB1E090E0981751F121912D939F5FB7
:101E3000FACF8091970290919802A0919902B09167
:101E40009A02892B8A2B8B2B09F48ACF0E946E036E
:101E50008090970290909802A0909902B0909A0278
:101E60006C197D098E099F0986169706A806B90682
:101E700008F076CF809196020E94B00B80E010921D
:101E80000C0280930B028230E0F58D899E89DC0183
:101E9000ED91FC910084F185E02D0995892B09F4E1
:101EA0004BCF8D899E89DC01ED91FC910284F385F5
:101EB000E02D0995EACF85EE9FCF80919702909112
:101EC0009802A0919902B0919A02892B8A2B8B2BB0
:101ED00009F498CF0E946E03009197021091980226
:101EE0002091990230919A026C197D098E099F09FF
:101EF000061717072807390708F084CFBBCF82E001
:101F00008DCF8D899E89DC01ED91FC910284F38552
:101F1000E02D0995082F8D899E89DC01ED91FC91BA
:101F20000284F385E02D0995182F802F90E0982FDB
:101F30008827810F911D917001CF8D899E89DC01C9
:101F4000ED91FC910190F081E02D6F2D099581E0DC
:101F50000E94D10B182F00E0E8CF81E58CBD1DBC9D
:101F600060E08C890E94B2021EBD00000DB407FE25
:101F7000FDCF0EB5FEBC00000DB407FEFDCF1EB5B3
:101F800061E08C890E94B202D0CF4F925F926F9233
:101F90007F928F929F92AF92BF92CF92DF92EF92F9
:101FA000FF92CF93DF93EC012FEF31E04CE0611112
:101FB00047C0CE010E94660EBC0190E080E00E9406
:101FC000871E6B017C01688D798D90E080E00E9416
:101FD000871E9B01AC01C701B6010E9443209B01F3
:101FE000AC01CE84DF84E888F988C701B6010E947D
:101FF000E81E9B01AC018A849B84AC84BD84C5012E
:10200000B4010E94D71F2B013C01A5019401C70117
:10201000B6010E94D71F9B01AC01C301B2010E940F
:102020004320DF91CF91FF90EF90DF90CF90BF9052
:10203000AF909F908F907F906F905F904F9008959A
:1020400060E1B7CFCF92DF92EF92FF921F93CF93D1
:10205000DF93EC016A017B01122F688D798D90E08E
:1020600080E00E94871EA70196010E94E81E0E9440
:10207000B5209B0140E060E0111160E1CE010E94BB
:10208000660EE881F9810084F185E02D612FCE0193
:10209000DF91CF911F91FF90EF90DF90CF90099447
:1020A0001F93CF93DF93EC018B819C81892B41F4AB
:1020B00081E090E00E942B219C838B83FC011082A5
:1020C00010E08985181748F4FE01E10FF11D60E06A
:1020D00082850E94E0021F5FF4CFE881F9810280CF
:1020E000F381E02DCE01099580E0DF91CF911F9122
:1020F00008950E94502285ED8093BC008091970244
:1021000090919802A0919902B0919A020796A11D10
:10211000B11D23E0B695A795979587952A95D1F798
:102120002091BC0024FD03C01092950208954091B7
:102130009702509198026091990270919A02452BF2
:10214000462B472B69F30097A105B10541F02AE220
:102150002A95F1F700C00197A109B109E1CF80915B
:1021600096020C94B00B0C94A61F0C94AE1F1F92F9
:102170000F920FB60F9211242F933F938F939F933B
:10218000AF93BF938091670290916802A09169021A
:10219000B0916A023091660223E0230F2D3758F583
:1021A0000196A11DB11D2093660280936702909352
:1021B0006802A0936902B0936A0280916B029091C9
:1021C0006C02A0916D02B0916E020196A11DB11D2D
:1021D00080936B0290936C02A0936D02B0936E0299
:1021E000BF91AF919F918F913F912F910F900FBE13
:1021F0000F901F90189526E8230F0296A11DB11D80
:10220000D2CF1F920F920FB60F9211242F933F93AC
:102210004F935F936F937F938F939F93AF93BF93EE
:10222000EF93FF938091620290916302A091640208
:10223000B0916502892B8A2B8B2BD1F19091610291
:10224000E0915F02F0916002808189278083809114
:10225000620290916302A0916402B0916502181627
:1022600019061A061B069CF4809162029091630283
:10227000A0916402B09165020197A109B109809310
:10228000620290936302A0936402B0936502FF918F
:10229000EF91BF91AF919F918F917F916F915F91DE
:1022A0004F913F912F910F900FBE0F901F90189557
:1022B000809100010E942D04EACF1F920F920FB669
:1022C0000F9211242F933F934F935F936F937F93BC
:1022D0008F939F93AF93BF93EF93FF9380E793E028
:1022E0000E943D07FF91EF91BF91AF919F918F9118
:1022F0007F916F915F914F913F912F910F900FBE02
:102300000F901F9018951F920F920FB60F921124E5
:102310002F938F939F93EF93FF93E0918003F0911E
:1023200081038081E0918603F091870382FD1BC0C9
:102330009081809189038F5F8F7320918A03821728
:1023400041F0E0918903F0E0E059FC4F958F8093D4
:102350008903FF91EF919F918F912F910F900FBE65
:102360000F901F9018958081F4CF1F920F920FB697
:102370000F9211242F933F934F935F936F937F930B
:102380008F939F93AF93BF93EF93FF938091B90087
:10239000887F803609F44AC0F0F5883209F4A7C076
:1023A00018F5803109F49BC0B8F4882309F4F9C00A
:1023B000883009F494C0FF91EF91BF91AF919F9144
:1023C0008F917F916F915F914F913F912F910F90DE
:1023D0000FBE0F901F901895883109F488C0803285
:1023E00051F78093930214C0803409F49DC040F4E7
:1023F0008033B9F38833F9F68093930285ECB0C04B
:10240000803509F485C0883509F496C0883499F67A
:102410000E947B10D0CF883909F48CC038F58837FA
:1024200029F050F4883611F0803729F683E0809344
:1024300095021092540257C0883809F47BC0803945
:1024400019F0803809F0B7CF80915402803208F03B
:1024500071C0E091540281E08E0F8093540280910C
:10246000BB00F0E0EC5CFD4F80833DC0803B39F069
:10247000E0F4803A09F479C0883A09F09CCF84E00E
:10248000809395021092310210923002E0912E0258
:10249000F0912F0209958091300281110FC081E0E7
:1024A0008093300210920E0209C0803C09F4A6CF3E
:1024B000883C09F4A3CF883B09F07DCFE09131023D
:1024C00081E08E0F80933102F0E0E25FFD4F80816A
:1024D0008093BB00909131028091300229C080919D
:1024E00070028093BB0085EC8093BC0064CF909118
:1024F000920280919102981758F5E091920281E042
:102500008E0F80939202F0E0EF58FD4F8081E9CF6B
:10251000E091920281E08E0F809392028091BB0045
:10252000F0E0EF58FD4F80839091920280919102EC
:102530009817C8F285E8D8CFE091920281E08E0F1B
:10254000809392028091BB00F0E0EF58FD4F8083B2
:102550008091940281115CCF81E080936F0284EAC4
:102560008093BC001092950226CF85EC8093BC002E
:102570001092950280915402803230F4E09154021E
:10258000F0E0EC5CFD4F10826091540270E0E0914D
:102590003202F091330284E392E0099510925402E2
:1025A0000ACF1092930234CFE0E7F3E01382128255
:1025B00088EE93E0A0E0B0E084839583A683B783A0
:1025C0008EE191E09183808385EC90E0958784870C
:1025D00084EC90E09787868780EC90E0918B808BED
:1025E00081EC90E0938B828B82EC90E0958B848BD6
:1025F00086EC90E0978B868B118E128E138E148E44
:10260000ADE0B4E01196FC93EE9312961C921297F3
:102610008AEF90E014969C938E93139740E157E2D3
:1026200060E070E015964D935D936D937C931897E1
:102630001D961C921D971F961C921E921E975196D6
:102640001C921E92509753961C921E92529755962A
:102650001C921E92549757961C921E92569759960A
:102660001C921E9258975B961C921E925A9710923B
:102670005104109254041092570481E05C968C939C
:10268000E6E5F3E040E050E066E972E44287538714
:102690006487758740E050E46CE176E446875787AD
:1026A000608B718B93E1948B168A158A20E830E059
:1026B000318F208F25E533E0338B228B20E431E00E
:1026C00031832083A6E2B3E01C929FE099969C930D
:1026D00099979D961C921E929C979E961C929E97EF
:1026E0009B96FC93EE939A97E3EFF2E0108217A289
:1026F00016A210A686A794E095A723E021A725E0BF
:1027000022A726E023A729E024A7EBECF2E08183AF
:1027100022EF32E02283818724E630E0338722876C
:10272000158614862FEF3FEF3787268720E335E79E
:10273000318B208B8EE0828B8FEF838B848B40E0FC
:1027400050E060E07FE3458B568B678B708F28EEFF
:1027500033E034A323A316A215A2EFEBF2E012821A
:102760001482138220E331E03183208382E0818769
:10277000928787E083870895CF93DF93CDB7DEB745
:10278000E4970FB6F894DEBF0FBECDBF789484B542
:10279000826084BD84B5816084BD85B5826085BD5D
:1027A00085B5816085BD80916E00816080936E00EB
:1027B00010928100809181008260809381008091DD
:1027C000810081608093810080918000816080938E
:1027D00080008091B10084608093B1008091B0004E
:1027E00081608093B00080917A00846080937A0049
:1027F00080917A00826080937A0080917A00816073
:1028000080937A0080917A00806880937A00109299
:10281000C10084E690E09093D6028093D50280E0D8
:1028200090E0A0E0BFE38093E0029093E102A093E8
:10283000E202B093E30281E08093D4028091F0023F
:102840009091F102892B51F481E090E00E942B21BC
:102850009093F1028093F002DC011C9260E0809181
:10286000DD020E94E0020E9493032091EE0230916B
:10287000EF02DC01CB01820F931FA11DB11D8093DC
:10288000E6029093E702A093E802B093E9028093F6
:10289000EA029093EB02A093EC02B093ED020E9447
:1028A0004F0E8FEB92E00E9450108FE993E09093CF
:1028B0001C0480931B048BED93E090931E04809383
:1028C0001D0484E094E09093200480931F0485EB22
:1028D00090E1909324048093230483EB90E1909300
:1028E00026048093250486E293E090934E0480931F
:1028F0004D048BEC92E090935304809352048FEB41
:1029000092E0909356048093550483EF92E0909365
:10291000500480934F0440E052EC61E070E08091FD
:102920000D0490910E040E943A0183E290E00E940F
:10293000AE0060E081E10E94E00261E08AE00E9476
:10294000E00261E070E08AE00E94110382E1E8E0C9
:10295000F1E0DE01119601900D928A95E1F7009168
:10296000190310911A030115110579F410E08091F3
:1029700020031817D8F4E12FF0E0ED50FD4F61E08F
:1029800081A50E94E0021F5FF2CFF8018681978146
:1029900097FD09C061E00E94E00260E0D801169650
:1029A0008C910E94B20281E0F801818383EF92E072
:1029B0000E948109DE011196E3EFF2E084E690E0E7
:1029C00012962C91129711963C9111974C9141833C
:1029D00032832383968385831396369623E0E731EB
:1029E000F20771F785E08093F30261E080914F0375
:1029F0000E94E00260E080914F030E94B202809149
:102A0000500390915103009739F0DC01ED91FC9156
:102A10000190F081E02D099500915203109153032C
:102A200001151105C9F061E0F80181810E94E00201
:102A300060E0D80111968C910E94B20261E0F80129
:102A400082810E94E00260E0D80112968C910E947F
:102A5000B202C8010E945008E6E2F3E088EE93E07B
:102A600024E630E092838183348323838C599F4F03
:102A70003496803DB7E09B07A9F789E08093260351
:102A800040E050E060E87FE386E293E00E942D0A98
:102A900022242A94322CFE013A96FCABEBABEE24B6
:102AA000EA94FE2C01E010E07EE1472E512C612CCF
:102AB000712C80910D0490910E04DC01ED91FC913C
:102AC0000084F185E02D0995892BC9F180910D04D1
:102AD00090910E04DC01ED91FC910284F385E02DD0
:102AE0000995682F282F392F30932B0420932A041F
:102AF000E0912F04F0913004309709F0F1C58091F6
:102B00002E048111E4C030932D0420932C0481E025
:102B100080932E0480912F0490913004892B11F022
:102B20000C946E1E80912E0481110C946E1E1092D6
:102B30004004109241041092420410924304809188
:102B4000400490914104A0914204B0914304892B28
:102B50008A2B8B2B89F00E949303809040049090E5
:102B60004104A0904204B090430486169706A8063C
:102B7000B90610F40E949A018091220390912303D8
:102B8000A0912403B0912503892B8A2B8B2B99F0DC
:102B90000E9493038090220390902303A09024032B
:102BA000B090250386169706A806B90620F483EF91
:102BB00092E00E948109D0900101DD20D9F180913D
:102BC0001803811137C0DA94D0920101D092F30238
:102BD00083EF92E00E94C00939E03D1510F0D092D9
:102BE000260386E293E00E947E0AD11023C0F09271
:102BF000F902E092F802F092FF02E092FE02F092F7
:102C00000503E0920403F0920B03E0920A03F092B2
:102C10001103E0921003F0921703E092160385E08F
:102C20008093F30283EF92E00E94810980914F0329
:102C30000E942D040E944F0E8FEB92E00E94DD0750
:102C4000882329F080910F0481FD0E94FA00809171
:102C50000F0480FF2FC00E946E0380901604909096
:102C60001704A0901804B090190486169706A806B9
:102C7000B90600F50E94CA000E94FA00809116046D
:102C800090911704A0911804B09119044091120476
:102C9000509113046091140470911504840F951FD2
:102CA000A61FB71F8093160490931704A0931804CF
:102CB000B093190480E090E0892B09F4FACE0E94C9
:102CC0002907882309F4F5CE0E940000F2CE922F46
:102CD000882720912C0430912D04820F931F90930C
:102CE0002D0480932C0410922E048A30B1E09B07AF
:102CF00009F458C308F008C18831910509F41CC2D1
:102D000008F090C08730910509F46CC248F5823014
:102D1000910509F40AC278F4009709F4FEC10197FD
:102D200009F4FEC181E290E00E94AE0080912C0483
:102D300090912D04F7C18530910509F43BC208F04C
:102D400069C2049779F74092490450924A0460920C
:102D50004B0470924C0485E090E00E94F801DACEBA
:102D60008031910509F400C268F58C30910509F4B1
:102D70005CC28E30910509F4ECC1089799F689E0A0
:102D800090E00E94AE006FE170E080910D049091A0
:102D90000E040E94960AE0912104F0912204C09052
:102DA0000D04D0900E04D601309709F4CAC18D915C
:102DB0009C91DC01AD90BC900995682FC601F5018E
:102DC0000995A8CE8231910509F4EDC108F4DAC164
:102DD000469709F0A7CFE0911B04F0911C043097AF
:102DE00009F4A0CECE0101960995D82E85E190E098
:102DF0000E94AE0080910D0490910E04DC01ED91D3
:102E0000FC910190F081E02D6D2D09954D2D50E044
:102E1000BE016F5F7F4F80910D0490910E040E9460
:102E20009D0A78CE8115F1E09F0709F48BC2D0F599
:102E30008736910509F42FC2B8F48536910509F457
:102E40002DC208F035C2E0911F04F09120044A978A
:102E500009F068CF309709F465CECE010196099547
:102E6000D82E87E190E0C4CF8937910509F44AC292
:102E70008A37910509F429C28837910509F052CFA4
:102E800081E190E09093300480932F0483E080935D
:102E90003E0483E090E0909332048093310483E118
:102EA00090E041C2863031E0930709F45BC298F4A8
:102EB0008430A1E09A0709F452C208F046C281307A
:102EC000914009F02FCFE0914D04F0914E0481A57F
:102ED0000E942D041FCE8830F1E09F0709F45BC2E9
:102EE00008F447C288E091E00E94AE00E0914D04F2
:102EF000F0914E04808124E0829FC0011124E80FEC
:102F0000F91F838194810EC1833032E0930709F465
:102F10002CC308F082C08638A1E09A0709F4C3C226
:102F200050F58038E1E09E0709F48BC260F48B30E5
:102F300021E0920709F440C28036914009F0F2CEB8
:102F40008EE090E032C1843841E0940709F486C2F3
:102F500008F07AC28138914009F0E4CE80914F04A4
:102F600090915004DC0195962C91222309F4DACD3E
:102F70000E948109CFCD8D38E1E09E0709F471C22E
:102F8000C0F5883821E0920709F4E8C208F4A1C22C
:102F90008938914009F0C6CEE0915104F0E0EE0F7F
:102FA000FF1FE15BFB4F0190F081E02D808190E0FD
:102FB00090932B0480932A0488E891E00E94AE004D
:102FC000E0915104F0E0EE0FFF1FE15BFB4F019039
:102FD000F081E02D20912A0430912B0446E0429F9D
:102FE000C001439F900D1124E80FF91F8581968140
:102FF00099C08F38A1E09A0709F446C208F441C28B
:103000008130924009F08ECE809152049091530409
:103010000E94A40A0E94CA007DCD8C30F2E09F0776
:1030200009F40DC308F04EC0883032E0930709F46C
:10303000E7C250F58630A2E09A0709F4C0C208F052
:10304000CCC28530924009F06DCE84E092E00E94BF
:10305000AE00E0915404F0E0EE0FFF1FEE5AFB4F7C
:103060000190F081E02D848595850E94AE00E0916D
:103070005404F0E0EE0FFF1FEE5AFB4F0190F08179
:10308000E02D868597854EC08A30F2E09F0709F4CF
:10309000CFC208F4BCC28AE092E00E94AE00E09188
:1030A0005404F0E0EE0FFF1FEE5AFB4F0190F08149
:1030B000E02D618570E080910D0490910E040E94D6
:1030C000960A28CD843732E0930709F4D9C2C8F4B0
:1030D0008237A2E09A0709F4C5C208F0CAC2813754
:1030E000924009F01FCE8091550490915604DC0166
:1030F000ED91FC910280F381E02D09950E94FA0088
:1031000009CD8637F2E09F0709F4D9C208F4C2C29C
:103110008436954609F4FECC05CE0E949A01FACC7D
:103120008DEC9BEA0E94AE00F5CC83E090E00E941B
:10313000AE0087E090E0F6CFE0911D04F0911E0410
:1031400089CEED91FC910190F081E02D60E0C60107
:1031500037CE8FE090E00E94AE0060E072EC81E03C
:1031600090E00E948D00D6CC1093300400932F0481
:1031700082E080933E0484E090E090933204809358
:1031800031049EC182E190E00E94AE0080910D0466
:1031900090910E04DC01ED91FC910190F081E02D05
:1031A00060911A040DCE85E090E0909330048093F6
:1031B0002F04B0CC83E090E09093300480932F04F0
:1031C00082E190E0909332048093310481E0809317
:1031D00048044092490450924A0460924B04709211
:1031E0004C0498CC83E090E09093300480932F04BB
:1031F00082E190E0909332048093310481E08093E7
:1032000048041092490410924A0410924B04109200
:103210004C0480CC1092490410924A0410924B0442
:1032200010924C0487E090E098CDDE011196EEE01C
:10323000F0E021E2CF01019620935700E491ED9355
:10324000FC01449711F4E5E1F0E08BA99CA9A817D3
:10325000B90781F78DE090E00E94AE0080910D04E7
:1032600090910E04DC01ED91FC910190F081E02D34
:1032700069E0099580910D0490910E04DC01ED91B7
:10328000FC910280F381E02D49E050E0BE016F5FC8
:103290007F4F09953FCC8FE090E087CF10933004AB
:1032A00000932F0482E080933E0480E190E065CF9C
:1032B00085E690E00E94AE006091120470911304C4
:1032C00080911404909115044CCFE0912704F09163
:1032D0002804309709F426CC099560934404709330
:1032E000450480934604909347048BE790E00E9446
:1032F000AE00609144047091450480914604909121
:1033000047042FCF81E190E09093300480932F0405
:1033100083E080933E0483E090E0909332048093B6
:10332000310482E190E0909334048093330410924E
:10333000490410924A0410924B0410924C041092CB
:103340003D04E8CB86E190E030CF84E091E00E943C
:10335000AE00E0914D04F0914E0460817BC087E1A6
:1033600090E023CF1093300400932F0488E190E085
:1033700004CF86E091E00E94AE00E0914D04F09110
:103380004E048081B4E08B9FC0011124E80FF91F27
:1033900081819281C7CE1093300400932F0489E17C
:1033A00090E0EBCE1093300400932F0482E08093E2
:1033B0003E048AE190E0E1CE8AE091E00E94AE0016
:1033C000A0914D04B0914E049A968D919C919B973B
:1033D0000097A9F0FC0120813181F9012085318518
:1033E0009E966C91F90109959B01AC0160E070E03B
:1033F00080E89FE30E94D61F0E94D7018BCB9C964A
:10340000CD90DC9060E070E080E89FE3C114D104CF
:1034100099F3D60113966C9170E090E080E00E94E1
:10342000871E4B015C01F601608170E090E080E056
:103430000E94871E9B01AC01C501B4010E9443207C
:10344000DBCF8BE190E0B1CE84E891E00E94AE004A
:103450006091510470E06F5F7F4F2DCE8CE190E062
:10346000A4CE8CE891E00E94AE0080910D04909172
:103470000E04DC01ED91FC910190F081E02D66E0FD
:103480009FCC8DE190E091CE8EE891E00E94AE005D
:10349000E0915104F0E0EE0FFF1FE15BFB4F019064
:1034A000F081E02D5ACF1093300400932F0482E076
:1034B00080933E04EFE1F0E0F0933204E0933104B6
:1034C000109244041092450410924604109247044E
:1034D00036CFE0915104F0E0EE0FFF1FE15BFB4FB0
:1034E0000190F081E02D808190E090932B048093F7
:1034F0002A0486E891E00E94AE00D12CC12C86E01F
:10350000B82E80910D0490910E04E0915104F0E0EA
:10351000EE0FFF1FE15BFB4FA081B18140912A04B8
:1035200050912B04B49E9001B59E300D1124A20F32
:10353000B31F9D012C0D3D1DDC01ED91FC9101900F
:10354000F081E02DD90111966C910995BFEFCB1A4E
:10355000DB0AE4E0CE16D104A1F6DCCA10933004F5
:1035600000932F0480E290E008CEE0915404F0E054
:10357000EE0FFF1FEE5AFB4F808191810E94A40A3B
:1035800082E092E00E94AE00E0915404F0E0EE0F81
:10359000FF1FEE5AFB4F0190F081E02D658176818F
:1035A000878190850E948D00E0915404F0E0EE0F39
:1035B000FF1FEE5AFB4F0190F081E02DA2CC10933B
:1035C000300400932F0482E080933E0422E230E036
:1035D000309332042093310473CF86E092E00E944E
:1035E000AE00E0915404F0E0EE0FFF1FEE5AFB4FE7
:1035F0000190F081E02D658976898789908DFCCED8
:103600001093300400932F0483E290E0B6CD88E05D
:1036100092E00E94AE00E0915404F0E0EE0FFF1F34
:10362000EE5AFB4F0190F081E02D818D928D7ACD85
:10363000A4E2B0E0B0933004A0932F046BCAE091F1
:103640005404F0E0EE0FFF1FEE5AFB4F0190F081A3
:10365000E02D3586248617861686128E118E81E01F
:10366000818758CAE5E2F0E0F0933004E0932F043C
:1036700051CA82E792E00E94AE0060915704EACE00
:103680001093300400932F0482E080933E0426E2DE
:1036900030E09ECF84E792E00E94AE00E0915704B4
:1036A000F0E0EE0FFF1FEB5AFB4F80819181DC01B0
:1036B000ED91FC910084F185E02D09959DCEE0917E
:1036C0005704F0E0EE0FFF1FEB5AFB4F8081918112
:1036D000DC01ED91FC910284F385E02D09951ACA75
:1036E0003197E632F10508F053C0E758F44E0C94D8
:1036F00025219F1BC81BC41B011C3B1CC81BC81BCE
:10370000C81BC81BC81BC81BC81BC81BC81B3E1C2A
:10371000641C8D1CAF1CC81BC81BC81BCF1CDB1C2A
:10372000E21C101D3E1D4A1D581D5C1DC81B661D58
:103730009B1DCE1DD11DF81D261E351E391E9091D4
:103740003D044901B12CA12C092E04C0880C991C00
:10375000AA1CBB1C0A94D2F7409144045091450422
:103760006091460470914704840E951EA61EB71EF4
:103770008092440490924504A0924604B09247047B
:10378000985F90933D0404C0232B79F40E949A0122
:1037900080913E04882309F492C290913F049111D4
:1037A0008EC2815080933E04B5C98FEF860F8093FF
:1037B0003E0481E080933F0480914804882341F3D4
:1037C000E0912304F09124043097C1F080914904E2
:1037D00090914A04A0914B04B0914C044C015D01BE
:1037E0002FEF821A920AA20AB20A8092490490929A
:1037F0004A04A0924B04B0924C04099510924804DC
:10380000C7CFC901B0E0A0E020913D0404C0880FFB
:10381000991FAA1FBB1F2A95D2F7409144045091CB
:1038200045046091460470914704840F951FA61FBC
:10383000B71F8093440490934504A0934604B0932B
:10384000470480910D0490910E04DC01ED91FC91F0
:103850000680F781E02D099540914404509145047C
:10386000609146047091470480910D0490910E047C
:103870000E943A018DCF80931A048ACF80930F045F
:10388000882309F485CF0E94CA000E94FA00809123
:103890000F0480FF7DCF0E946E03809012049090F1
:1038A0001304A0901404B0901504DC01CB01880D22
:1038B000991DAA1DBB1D8093160490931704A09315
:1038C0001804B093190464CFC901B0E0A0E02091BE
:1038D0003D0404C0880F991FAA1FBB1F2A95D2F769
:1038E000409144045091450460914604709147040E
:1038F000840F951FA61FB71F80934404909345041F
:10390000A0934604B0934704809312049093130449
:10391000A0931404B09315043BCF90913D0449014A
:10392000B12CA12C092E04C0880C991CAA1CBB1C0C
:103930000A94D2F74091490450914A0460914B0493
:1039400070914C04840E951EA61EB71E80924904E9
:1039500090924A04A0924B04B0924C0411CFE09193
:103960002304F0912404309709F412CF8091490484
:1039700090914A04A0914B04B0914C044C015D011C
:103980002FEF821A920AA20AB20A809249049092F8
:103990004A04A0924B04B0924C040995F9CE809150
:1039A0004D0490914E0461506A3010F4DC016C9328
:1039B0000E947E0AEDCEA0914D04B0914E0461505C
:1039C0006C93E6CEC901B0E0A0E020913D0404C0B4
:1039D000880F991FAA1FBB1F2A95D2F74091440454
:1039E000509145046091460470914704840F951FDF
:1039F000A61FB71F8093440490934504A0934604E8
:103A0000B0934704E0914D04F0914E04408124E0CE
:103A1000429FA0011124E40FF51F92838183B8CE49
:103A2000C901B0E0A0E020913D0404C0880F991FB7
:103A3000AA1FBB1F2A95D2F7409144045091450418
:103A40006091460470914704840F951FA61FB71F0D
:103A50008093440490934504A0934604B093470494
:103A6000E0914D04F0914E04408134E0439FA00169
:103A70001124E40FF51F948383838ACEC0904D04F4
:103A8000D0904E040E94B801AB01BC01C6010E9457
:103A90002D0A7ECE615060935104E62FF0E0EE0FC8
:103AA000FF1FE15BFB4F808191810E94C00970CEB6
:103AB0006150609351046CCEE0915104F0E0EE0F40
:103AC000FF1FE15BFB4FA081B18179CFC901B0E05D
:103AD000A0E020913D0404C0880F991FAA1FBB1FBE
:103AE0002A95D2F7409144045091450460914604D0
:103AF00070914704840F951FA61FB71F809344043D
:103B000090934504A0934604B0934704E091510478
:103B1000F0E0EE0FFF1FE15BFB4F0190F081E02D25
:103B2000208146E0249FE00DF11D112481839283C2
:103B3000A383B4832DCEC901B0E0A0E020913D0461
:103B400004C0880F991FAA1FBB1F2A95D2F7409166
:103B50004404509145046091460470914704840FD9
:103B6000951FA61FB71F8093440490934504A0930C
:103B70004604B0934704E0915104F0E0EE0FFF1FBC
:103B8000E15BFB4F0190F081E02D208136E0239F27
:103B9000E00DF11D112496838583FACD80935404A2
:103BA000F7CDE0915404F0E0EE0FFF1FEE5AFB4F0B
:103BB000C080D1800E94B801D60155966D937D9347
:103BC0008D939C93589781E019968C93E0915404BF
:103BD000F0E0EE0FFF1FEE5AFB4F0190F081E02D59
:103BE0003586248617861686128E118E8187D0CD53
:103BF000C901B0E0A0E020913D0404C0880F991FE6
:103C0000AA1FBB1F2A95D2F7409144045091450446
:103C10006091460470914704840F951FA61FB71F3B
:103C20008093440490934504A0934604B0934704C2
:103C3000E0915404F0E0EE0FFF1FEE5AFB4F0190AD
:103C4000F081E02D928F818F1186A2CDE0915404F6
:103C5000F0E0EE0FFF1FEE5AFB4F0190F081E02DD8
:103C600081E0232B19F680E0C1CF615060935704A7
:103C70008FCDE0915704F0E0EE0FFF1FEB5AFB4FA2
:103C8000C080D180D601ED91FC91A680B7800E94C2
:103C9000B801AB01BC01C601F5010995E0915704DB
:103CA000F0E0EE0FFF1FEB5AFB4F80819181DC01AA
:103CB000ED91FC910284F385E02D099569CDEFE249
:103CC000F4E082819381819391932BE334E02E176A
:103CD0003F07B9F710923F040C948A150E94930392
:103CE0002091100430911104620F731F811D911DEA
:103CF0006093400470934104809342049093430482
:103D00000C949F150E94C41E08F481E00895E89465
:103D100009C097FB3EF490958095709561957F4F13
:103D20008F4F9F4F9923A9F0F92F96E9BB279395C1
:103D3000F695879577956795B795F111F8CFFAF4D1
:103D4000BB0F11F460FF1BC06F5F7F4F8F4F9F4F02
:103D500016C0882311F096E911C0772321F09EE860
:103D6000872F762F05C0662371F096E8862F70E0C6
:103D700060E02AF09A95660F771F881FDAF7880FA0
:103D80009695879597F90895990F0008550FAA0BF6
:103D9000E0E8FEEF16161706E807F907C0F012165E
:103DA0001306E407F50798F0621B730B840B950B61
:103DB00039F40A2661F0232B242B252B21F40895B6
:103DC0000A2609F4A140A6958FEF811D811D089553
:103DD0000E94FB1E0C946C1F0E945E1F38F00E9414
:103DE000651F20F0952311F00C94551F0C945B1F58
:103DF00011240C94A01F0E947D1F70F3959FC1F3A6
:103E0000950F50E0551F629FF001729FBB27F00D88
:103E1000B11D639FAA27F00DB11DAA1F649F6627DD
:103E2000B00DA11D661F829F2227B00DA11D621F2C
:103E3000739FB00DA11D621F839FA00D611D221FE6
:103E4000749F3327A00D611D231F849F600D211DCA
:103E5000822F762F6A2F11249F5750409AF0F1F04D
:103E600088234AF0EE0FFF1FBB1F661F771F881FB6
:103E700091505040A9F79E3F510580F00C94551F7A
:103E80000C94A01F5F3FE4F3983ED4F3869577959A
:103E90006795B795F795E7959F5FC1F7FE2B880F5C
:103EA000911D9695879597F9089597F99F6780E8F2
:103EB00070E060E008959FEF80EC089500240A947C
:103EC0001616170618060906089500240A941216F5
:103ED0001306140605060895092E0394000C11F428
:103EE000882352F0BB0F40F4BF2B11F460FF04C0D5
:103EF0006F5F7F4F8F4F9F4F089557FD9058440F2E
:103F0000551F59F05F3F71F04795880F97FB991F38
:103F100061F09F3F79F087950895121613061406F5
:103F2000551FF2CF4695F1DF08C016161706180682
:103F3000991FF1CF86957105610508940895E8945D
:103F4000BB2766277727CB0197F90895F999FECF0C
:103F500092BD81BDF89A992780B50895262FF999C9
:103F6000FECF1FBA92BD81BD20BD0FB6F894FA9A5C
:103F7000F99A0FBE019608950E94C71FA59F900D44
:103F8000B49F900DA49F800D911D11240895A29FB0
:103F9000B001B39FC001A39F700D811D1124911D1D
:103FA000B29F700D811D1124911D08955058BB279B
:103FB000AA270E94EE1F0C946C1F0E945E1F38F00F
:103FC0000E94651F20F039F49F3F19F426F40C94E9
:103FD0005B1F0EF4E095E7FB0C94551FE92F0E9440
:103FE0007D1F58F3BA17620773078407950720F0FF
:103FF00079F4A6F50C949F1F0EF4E0950B2EBA2FC2
:10400000A02D0B01B90190010C01CA01A0011124DE
:10401000FF27591B99F0593F50F4503E68F11A168A
:10402000F040A22F232F342F4427585FF3CF46951B
:1040300037952795A795F0405395C9F77EF41F163D
:10404000BA0B620B730B840BBAF09150A1F0FF0F07
:10405000BB1F661F771F881FC2F70EC0BA0F621FF3
:10406000731F841F48F4879577956795B795F795E3
:104070009E3F08F0B0CF9395880F08F09927EE0F78
:104080009795879508950E9457200C946C1F0E9465
:10409000651F58F00E945E1F40F029F45F3F29F031
:1040A0000C94551F51110C94A01F0C945B1F0E947F
:1040B0007D1F68F39923B1F3552391F3951B550B9D
:1040C000BB27AA2762177307840738F09F5F5F4FEB
:1040D000220F331F441FAA1FA9F335D00E2E3AF02A
:1040E000E0E832D091505040E695001CCAF72BD042
:1040F000FE2F29D0660F771F881FBB1F2617370793
:104100004807AB07B0E809F0BB0B802DBF01FF27C4
:1041100093585F4F3AF09E3F510578F00C94551F2D
:104120000C94A01F5F3FE4F3983ED4F386957795F7
:104130006795B795F7959F5FC9F7880F911D96957D
:10414000879597F90895E1E0660F771F881FBB1FD9
:10415000621773078407BA0720F0621B730B840B86
:10416000BA0BEE1F88F7E09508950E94851F88F02E
:104170009F5798F0B92F9927B751B0F0E1F0660F2B
:10418000771F881F991F1AF0BA95C9F714C0B1306C
:1041900091F00E949F1FB1E008950C949F1F672F1C
:1041A000782F8827B85F39F0B93FCCF3869577959B
:1041B0006795B395D9F73EF4909580957095619584
:1041C0007F4F8F4F9F4F0895A1E21A2EAA1BBB1B52
:1041D000FD010DC0AA1FBB1FEE1FFF1FA217B307D3
:1041E000E407F50720F0A21BB30BE40BF50B661FE9
:1041F000771F881F991F1A9469F7609570958095AD
:1042000090959B01AC01BD01CF010895052E97FB50
:104210001EF400940E941D2157FD07D00E94E42047
:1042200007FC03D04EF40C941D2150954095309519
:1042300021953F4F4F4F5F4F089590958095709512
:1042400061957F4F8F4F9F4F0895EE0FFF1F059091
:10425000F491E02D09940F931F93CF93DF93823055
:10426000910510F482E090E0E0915A04F0915B0433
:1042700030E020E0B0E0A0E0309799F4211531055E
:1042800009F44AC0281B390B24303105D8F58A813E
:104290009B816115710589F1FB0193838283FE0186
:1042A00011C0408151810281138148175907E0F004
:1042B0004817590799F4109761F012960C931297CA
:1042C00013961C933296CF01DF91CF911F910F91DE
:1042D000089500935A0410935B04F4CF211531051F
:1042E00051F04217530738F0A901DB019A01BD01D3
:1042F000DF01F801C1CFEF01F9CF90935B04809308
:104300005A04CDCFFE01E20FF31F81939193225007
:10431000310939832883D7CF20915804309159042B
:10432000232B41F42091040130910501309359046D
:104330002093580420910201309103012115310589
:1043400041F42DB73EB74091060150910701241B5F
:10435000350BE0915804F0915904E217F307A0F4EB
:104360002E1B3F0B2817390778F0AC014E5F5F4FCB
:104370002417350748F04E0F5F1F509359044093A0
:104380005804819391939FCFF0E0E0E09CCFCF93CE
:10439000DF930097E9F0FC01329713821282A0911B
:1043A0005A04B0915B04ED0130E020E01097A1F4D5
:1043B00020813181820F931F20915804309159043C
:1043C0002817390709F061C0F0935904E0935804A5
:1043D000DF91CF910895EA01CE17DF07E8F54A8112
:1043E0005B819E0141155105B1F7E901FB83EA8329
:1043F00049915991C40FD51FEC17FD0761F48081D5
:1044000091810296840F951FE901998388838281A7
:1044100093819B838A83F0E0E0E012968D919C91DA
:1044200013970097B9F52D913C911197CD01029604
:10443000820F931F2091580430915904281739078F
:1044400039F6309751F510925B0410925A04B093EC
:104450005904A0935804BCCFD383C28340815181B7
:10446000840F951FC817D90761F44E5F5F4F88818D
:104470009981480F591F518340838A819B8193837F
:1044800082832115310509F0B0CFF0935B04E093EE
:104490005A049ECFFD01DC01C0CF13821282D7CF18
:0E44A00081E090E0F8940C945522F894FFCF40
:1044AE00FF0600005C048000FF00FF0000FF00FF1D
:1044BE00FF00FF00FFFF00FF0000000000005F078D
:1044CE00BF06EC06AC071D07FB060F070000000039
:1044DE005010DD07D707D207CD07CC07000000002C
:1044EE00E50DDD0D2210D50DC50FCD0D810D790D0C
:1044FE00550D483A5C4D792044726976655C567567
:10450E006C696E74757320536F6674776172652073
:10451E002844726577295C4669726D7761726520F1
:10452E002D204F6D6E695472616B5C4F6D6E6954C8
:10453E0072616B5F4E6F7365706F6B655F4669720C
:10454E006D776172655C4F6D6E695472616B5F4E13
:10455E006F7365706F6B655F56335C4F6D6E69542C
:10456E0072616B5F4E6F7365706F6B655F56332E46
:10457E00696E6F0053657020323320323032340052
:0A458E0031353A31373A3438000075
:00000001FF
