:100000000C9463000C948B000C948B000C948B006C
:100010000C948B000C948B000C948B000C94B313F9
:100020000C948B000C948B000C948B000C948B0024
:100030000C948B000C948B000C948B000C948B0014
:100040000C9469130C948B000C9435140C940F14BD
:100050000C948B000C948B000C948B000C948B00F4
:100060000C9467140C948B000200000000240027FD
:10007000002A0000000000250028002B00000000DE
:100080000800020100000304070000000000000057
:1000900000000000002300260029000404040404DA
:1000A0000404040202020202020303030303030125
:1000B00002040810204080010204081020010204FC
:1000C00008102000861511241FBECFEFD8E0DEBF38
:1000D000CDBF24E0A6EFB1E001C01D92AB39B2075D
:1000E000E1F711E0A0E0B1E0EEE9F1E502C0059032
:1000F0000D92A63FB107D9F710E0C3E6D0E004C0E7
:100100002197FE010E949D27C236D107C9F70E94A0
:10011000F8160C94CD280C940000CF92DF92EF9249
:10012000FF92CF93DF93EC016A017B01E889F989A3
:1001300082E08083C11481EED806E104F104A1F0CD
:1001400060E079E08DE390E0A70196010E945C27D2
:100150002150310941095109569547953795279501
:10016000211580E1380798F0E889F989108260E864
:1001700074E88EE190E0A70196010E945C2721506F
:100180003109410951095695479537952795EC85D1
:10019000FD853083EE85FF852083188EEC89FD89EF
:1001A00086E08083EA89FB89808180618083EA8997
:1001B000FB89808188608083EA89FB8980818068EF
:1001C0008083EA89FB8980818F7D8083DF91CF9155
:1001D000FF90EF90DF90CF900895E2E4F4E015A651
:1001E00014A617A616A611AA10AA13AA12AA15AA2F
:1001F00014AA17AA16AA11AE10AE10927F0410927C
:100200008004109281041092820413A613AE14AEDF
:100210001092870410928304109284041092850433
:100220001092860412AE0895E2E4F4E087A190A54E
:10023000B0E0A0E022AD04C0880F991FAA1FBB1F29
:100240002A95D2F7E3E8F4E040815181628173811D
:10025000840F951FA61FB71F80839183A283B3834A
:10026000682F792F8A2F9B2F0895CF93DF9300D08B
:1002700000D0CDB7DEB769837A838B839C8380916E
:10028000500490915104DC01ED91FC910280F381C6
:10029000E02D44E050E0BE016F5F7F4F09950F9065
:1002A0000F900F900F90DF91CF91089590E0FC0197
:1002B000E358FF4F2491FC01E155FF4F3491FC01BD
:1002C000E556FF4FE491EE23C9F0222339F02330A5
:1002D00001F1A8F4213019F1223029F1F0E0EE0FFC
:1002E000FF1FED58FF4FA591B4918FB7F894EC9193
:1002F000611126C030953E233C938FBF089527306F
:10030000A9F02830C9F0243049F7809180008F7D12
:1003100003C0809180008F7780938000DFCF84B509
:100320008F7784BDDBCF84B58F7DFBCF8091B0000C
:100330008F778093B000D2CF8091B0008F7DF9CFBE
:100340003E2BDACFCF93DF9390E0FC01E155FF4FD6
:10035000249185569F4FFC0184918823D1F090E031
:10036000880F991FFC01E759FF4FA591B491FC013B
:10037000ED58FF4FC591D49161110EC09FB7F8940D
:100380008C91E22FE0958E238C932881E223E883E1
:100390009FBFDF91CF9108958FB7F894EC91E22B36
:1003A000EC938FBFF6CF1F93CF93DF93182FEB0102
:1003B00061E00E94A201209739F460E0812FDF9173
:1003C000CF911F910C945601CF3FD10511F461E0FC
:1003D000F5CFE12FF0E0E358FF4FE491E33031F146
:1003E00040F4E130B1F0E230E1F0C038D1057CF703
:1003F000E4CFE73029F1E83059F1E430B1F78091EA
:100400008000806280938000D0938B00C0938A002C
:1004100004C084B5806884BDC7BDDF91CF911F91B2
:10042000089584B5806284BDC8BDF7CF80918000F7
:10043000806880938000D0938900C0938800EDCFBE
:100440008091B00080688093B000C093B300E5CF86
:100450008091B00080628093B000C093B400DDCF83
:100460003FB7F8948091770290917802A091790239
:10047000B0917A0226B5A89B05C02F3F19F00196CE
:10048000A11DB11D3FBFBA2FA92F982F8827BC01EE
:10049000CD01620F711D811D911D42E0660F771F16
:1004A000881F991F4A95D1F708952FB7F894609146
:1004B00073027091740280917502909176022FBF41
:1004C0000895CF93DF93CDB7DEB7C258D1090FB6E9
:1004D000F894DEBF0FBECDBF382F82E8EEE5F1E025
:1004E000DE01119601900D928A95E1F7DE01AC577D
:1004F000BF4FE2E88E918C3511F0E150D9F7EF5FF4
:1005000081E88E1B41E050E04C0F5D1F4E0F511DE6
:10051000FA01232FA32FB92F9A2F921B981718F4A3
:1005200091919D93F9CFCE57DF4F0FB6F894DEBF70
:100530000FBECDBFDF91CF910895CF93DF93CDB79D
:10054000DEB72C970FB6F894DEBF0FBECDBF2CE000
:10055000E0EEF1E0DE01119601900D922A95E1F7AF
:10056000FE0131969C01255F3F4F4191DC014D9387
:10057000CD01A217B307C9F78BE02C960FB6F894FC
:10058000DEBF0FBECDBFDF91CF910895CF93DF9334
:10059000CDB7DEB729970FB6F894DEBF0FBECDBF3B
:1005A00029E0ECEEF1E0DE01119601900D922A9522
:1005B000E1F7FE0131969C01285F3F4F4191DC013C
:1005C0004D93CD01A217B307C9F788E029960FB65E
:1005D000F894DEBF0FBECDBFDF91CF910895CF92CB
:1005E000DF92EF92FF92CF93DF93EC016A017B01E0
:1005F00020E030E0A901CB01B6010E945727181670
:10060000C4F420E030E040E85FE3C701B6010E9497
:10061000EE2487FF0EC0A701960160E070E080E83D
:100620009FE30E9442266FA778AB89AB9AAB81E02B
:100630008AA3DF91CF91FF90EF90DF90CF90089544
:100640009091000189130BC0E8E6F0E0E4919FEF80
:1006500090930001E13049F028F0E23061F060E071
:100660000C94560110926E00FACF90916F009D7F0E
:1006700090936F00F4CF909170009D7F90937000E5
:1006800091E09093B0009091B100987F9460909326
:10069000B1001092B300E3CF4F925F926F927F92BE
:1006A0008F929F92AF92BF92CF92DF92EF92FF9282
:1006B0000F931F93CF93DF9300D000D01F92CDB73D
:1006C000DEB78B0129013A01909100018917C9F029
:1006D0009F3F09F47EC00F900F900F900F900F90E6
:1006E000DF91CF911F910F91FF90EF90DF90CF900E
:1006F000BF90AF909F908F907F906F905F904F9042
:100700000895E8E6F0E094919D8397FDE4CF61E0E1
:100710000E94A2018D81882321F09D81923009F0F1
:100720004AC14801B12CA12C60E072E18AE790E057
:10073000A50198010E947E2729833A834B835C831D
:1007400069017A0181E0C81AD108E108F1089FEF38
:10075000C916D104E104F10409F00CF401C160E40C
:1007600072E48FE090E0A50198010E947E27690164
:100770007A0181E0C81AD108E108F1089D81923020
:1007800009F0A2C08FEFC816D104E104F10409F00A
:100790000CF4E6C160E970ED83E090E0A5019801FA
:1007A0000E947E2769017A0191E0C91AD108E10807
:1007B000F1088FEFC816D104E104F10411F00CF038
:1007C0007FC183E09091B100987F892B8093B10025
:1007D000CFC080930001E8E6F0E094919D839F3FB5
:1007E00009F479CF913041F150F0923009F446C0CC
:1007F0009D8197FD70CF61E00E94A2018ECF14BC55
:1008000015BC94B5926094BD95B5916095BD282FA7
:1008100030E0F901E556FF4FE491F0E0EE0FFF1FE5
:10082000ED58FF4F45915491F901E155FF4FE49187
:10083000E09362021D826BCF1092800010928100C3
:1008400090918100986090938100909181009160D7
:1008500090938100282F30E0F901E556FF4FE49195
:10086000F0E0EE0FFF1FED58FF4F45915491F90155
:10087000E155FF4FE491E093610249CF1092B0003F
:100880001092B1009091B00092609093B00090915E
:10089000B10091609093B100282F30E0F901E55646
:1008A000FF4FE491F0E0EE0FFF1FED58FF4F459131
:1008B000549150936C0240936B02F901E155FF4F44
:1008C000E491E0936D0223CF9FEFC916D104E104B8
:1008D000F10409F00CF46DC068E478EE81E090E07A
:1008E000A50198010E947E2769017A0181E0C81A5A
:1008F000D108E108F1089D81992309F4FAC08FEF2E
:10090000C816D104E104F10411F00CF0FBC0EFC0F3
:1009100064E274EF80E090E0A50194010E947E27DC
:1009200069017A0181E0C81AD108E108F10885E07F
:100930009FEFC916D104E104F10409F008F442CF95
:1009400062E17AE780E090E0A50194010E947E27B1
:1009500069017A0181E0C81AD108E108F108E5C00F
:1009600081E09D8191112ECF95B5987F892B85BD12
:100970002FEF3FEFA901411451046104710409F004
:1009800043C09D81913009F45EC0923009F46DC07E
:100990009111A1CEC7BC20936702309368024093A7
:1009A000690250936A0280916E00826080936E00AB
:1009B00092CE82E0D6CFB12CA12C60E072E18AE722
:1009C00090E0A50198010E947E2769017A0181E0EB
:1009D000C81AD108E108F108C114D10491E0E90670
:1009E000F10404F591E08D81813011F68091810050
:1009F000887F892B809381002FEF3FEFA90141145D
:100A0000510461047104F9F0D801AA0FBB1FA301BE
:100A100092010E94282628EE33E040E050E00E9438
:100A20005C27AFCF68E478EE81E090E0A501980103
:100A30000E947E2769017A0181E0C81AD108E10885
:100A4000F10893E0D0CFD0928900C0928800209323
:100A50006302309364024093650250936602809172
:100A60006F00826080936F0036CEC092B3002093F7
:100A70006E0230936F024093700250937102809126
:100A8000700082608093700026CE84E09FEFC916CC
:100A9000D104E104F10409F008F466CFC980DA80DA
:100AA000EB80FC808AE0F594E794D794C7948A950C
:100AB000D1F781E0C81AD108E108F10885E054CFE8
:100AC00068E478EE81E090E0A50198010E947E271D
:100AD00069017A0181E0C81AD108E108F1089FEFA5
:100AE000C916D104E104F10411F00CF011CF84E037
:100AF00069CE83E09FEFC916D104E104F10409F047
:100B00000CF432CF62E17AE780E090E0A501940135
:100B10000E947E2769017A0181E0C81AD108E108A4
:100B2000F1089D81992309F4B0CF86E09FEFC916A3
:100B3000D104E104F10409F008F444CEC980DA805C
:100B4000EB80FC809AE0F594E794D794C7949A954B
:100B5000D1F781E0C81AD108E108F10887E032CE68
:100B600082E030CEAF92BF92CF92DF92EF92FF92AF
:100B70000F931F93CF93DF936C017B018B01040FC5
:100B8000151FEB015E01AE18BF08C017D10759F061
:100B90006991D601ED91FC910190F081E02DC601A3
:100BA0000995892B79F7C501DF91CF911F910F919D
:100BB000FF90EF90DF90CF90BF90AF900895FC0131
:100BC000538D448D252F30E0842F90E0821B930BB2
:100BD000541710F0CF96089501970895FC01918D58
:100BE000828D981761F0A28DAE0FBF2FB11D5D965B
:100BF0008C91928D9F5F9F73928F90E008958FEFFD
:100C00009FEF0895FC01918D828D981731F0828DB0
:100C1000E80FF11D858D90E008958FEF9FEF089507
:100C2000FC01918D228D892F90E0805C9F4F821B6B
:100C300091098F739927089585EA93E00E94100621
:100C400021E0892B09F420E0822F089580E090E0D4
:100C5000892B29F00E941C0681110C940000089534
:100C6000FC01A48DA80FB92FB11DA35ABF4F2C9121
:100C7000848D90E001968F739927848FA689B78918
:100C80002C93A089B1898C91837080648C93938D0F
:100C9000848D981306C00288F389E02D80818F7DB2
:100CA00080830895EF92FF920F931F93CF93DF936A
:100CB000EC0181E0888F9B8D8C8D98131AC0E88998
:100CC000F989808185FF15C09FB7F894EE89FF8967
:100CD0006083E889F98980818370806480839FBF05
:100CE00081E090E0DF91CF911F910F91FF90EF9005
:100CF0000895F62E0B8D10E00F5F1F4F0F73112715
:100D0000E02E8C8D8E110CC00FB607FCFACFE8894F
:100D1000F989808185FFF5CFCE010E943006F1CFA1
:100D2000EB8DEC0FFD2FF11DE35AFF4FF0829FB7C3
:100D3000F8940B8FEA89FB8980818062CFCFCF93B3
:100D4000DF93EC01888D8823B9F0AA89BB89E889F3
:100D5000F9898C9185FD03C0808186FD0DC00FB699
:100D600007FCF7CF8C9185FFF2CF808185FFEDCF17
:100D7000CE010E943006E9CFDF91CF9108952091F6
:100D80003C02260F3327331F21323105ECF420912A
:100D9000A102FC0190E080E0243069F082E0089537
:100DA000A0913C022191AC01465E5D4FA40FB52F8E
:100DB000B11D2C930196861798F380913C02680F21
:100DC00060933C0280E0089581E008951092A102B2
:100DD00081E08093A00210927B0261E082E10E9498
:100DE000560161E083E10E945601E9EBF0E0808169
:100DF0008E7F808380818D7F808388E48093B8009C
:100E000085E48093BC000895CF93DF9391E09093A5
:100E100019028823B9F0C091B800D091BA0080912E
:100E2000BC008A7B8093BC0060E082E10E94560196
:100E300060E083E10E9456010E94E606D093BA006A
:100E4000C093B800DF91CF9108958F929F92AF9297
:100E5000BF92CF92DF92EF92FF920F931F93CF93A7
:100E6000DF93D091CA02D13208F0D7C0182FC091B9
:100E7000C9020E9430026B017C018091A1028111A4
:100E80006BC082E08093A1021093A0028FEF809349
:100E90009F0210929E02D0939D02A9EAB2E0EDE774
:100EA000F2E080E0D81391C010927C0280917C0225
:100EB000CC0FC82BC0937C0280917B02813009F05B
:100EC00088C010927B020E9430026B017C018091ED
:100ED0007C028093BB008091A3029091A402A09118
:100EE000A502B091A602892B8A2B8B2BA1F00E9420
:100EF00030020091A3021091A4022091A50230912A
:100F0000A6026C197D098E099F0906171707280785
:100F1000390708F442C08091BC0083FDD8CF85EC2E
:100F20008093BC000E9430026B017C018091A10281
:100F3000823009F450C080919F028F3F09F46FC046
:100F400080919F02803209F46CC080919F028033AF
:100F500009F469C084E026C08091A3029091A402A4
:100F6000A091A502B091A602892B8A2B8B2B09F4A4
:100F700084CF0E9430028090A3029090A402A0909F
:100F8000A502B090A6026C197D098E099F098616EC
:100F90009706A806B90608F070CF8091A2020E94B9
:100FA000040785E01092A8021092CA021092A702CC
:100FB000DF91CF911F910F91FF90EF90DF90CF9035
:100FC000BF90AF909F908F9008959D9191938F5F68
:100FD00069CF85EEA5CF8091A3029091A402A09144
:100FE000A502B091A602892B8A2B8B2B09F49ECFE8
:100FF0000E9430020091A3021091A4022091A50248
:101000003091A6026C197D098E099F0906171707F2
:101010002807390708F08ACFC0CF81E0C3CF80E02E
:10102000C1CF82E0BFCF83E0BDCF0895089508957A
:10103000E091180280911702E81730F4F0E0E950CF
:10104000FE4F808190E008958FEF9FEF089590917B
:101050001802809117022FEF3FEF981748F4E92FFD
:10106000F0E0E950FE4F208130E09F5F909318023E
:10107000C90108958091170290911802891B990B5C
:101080000895CF92DF92EF92FF920F931F93CF9329
:10109000DF937C01CB018A012091A702222389F0F2
:1010A000EB016B01C40ED51ECC15DD0569F069910D
:1010B000D701ED91FC910190F081E02DC7010995D8
:1010C000F3CF642F0E94BF06C801DF91CF911F911B
:1010D0000F91FF90EF90DF90CF900895CF93DF9323
:1010E0001F92CDB7DEB769832091A7022223F9F0C2
:1010F0002091CA02203258F021E030E0FC01338315
:10110000228390E080E00F90DF91CF91089580914D
:10111000A802E82FF0E0E755FD4F998190838F5F9B
:101120008093A8028093CA0281E090E0ECCF61E056
:10113000CE0101960E94BF06F7CF90E080E00895AF
:10114000EF92FF920F931F93DC0118968C911897E2
:10115000882381F0489FA0011124452F829F900190
:101160001124232F809F80011124012F8E9D700157
:101170001124EF2C1E968C911E971996ED91FC91DF
:101180001A971B969C911B97891320C0CB01880F3F
:10119000991F680F791F6E0F7F1F1B96EC911B978D
:1011A000E60FF72FF11D40831C96EC911C97E60F7C
:1011B000F72FF11D20831D968C91680F711DFB0187
:1011C00000831F910F91FF90EF900895660F771F96
:1011D000660F771F6E0F7F1FFB01E80FF11DE08286
:1011E000DCCFCF92DF92EF92FF920F931F93CF93BA
:1011F000DF93CDB7DEB729970FB6F894DEBF0FBEE9
:10120000CDBF8C010E943002D8011F96CD90DD9099
:10121000ED90FC9052976C157D058E059F0528F486
:10122000F8016787708B818B928BD8011F96CD90C8
:10123000DD90ED90FC9052976C197D098E099F0905
:101240006C32714081059105E8F2F894F8018481CF
:1012500095819A8389830184F285E02D7F012FEFA8
:10126000E21AF20A80818F83D8019C915396ED9106
:10127000FC91549755968C91992309F448C090811C
:10128000982B9887908180958923898789858B837E
:1012900088E08C83588569854F813C812B818981C9
:1012A0009A81D701508347FD252F3A952083262F19
:1012B00039F0441F00C000006083000000C0F2CF7E
:1012C00038E04D9160830000019761F7D801549692
:1012D000FC93EE9353974F833C832B839A838983AC
:1012E00078940E943002F8016787708B818B928B13
:1012F00029960FB6F894DEBF0FBECDBFDF91CF9118
:101300001F910F91FF90EF90DF90CF900895908103
:10131000982B9887908180958923898789858D83EB
:1013200088E08E83588569854F813E812D81898132
:101330009A81D701508347FD252F00C000C020832C
:1013400000C000C000C000C000C060830000262FA5
:101350003A9541F0441F000000C000C000C000C02A
:1013600000C0E8CF38E04D9100C0608300C0019715
:1013700009F7D8015496FC93EE9353974F833E831D
:101380002D83ACCFCF93DF93EC016B8161708981AA
:101390000E9456016B8162708A81DF91CF910C941B
:1013A000560160E070E080E89FEB089560E070E037
:1013B00080E89FEB0895CF92DF92EF92FF92CF9358
:1013C000DF93EC01E881F9810084F185E02D099536
:1013D0006B017C012C853D854E855F856889798907
:1013E0008A899B890E944326A70196010E94542561
:1013F000DF91CF91FF90EF90DF90CF900895DC01C7
:10140000ED91FC910088F189E02D60E009948F92C4
:101410009F92AF92BF92CF92DF92EF92FF921F9373
:10142000CF93DF93EC016A017B01122F8C849D84A2
:10143000AE84BF84AB019601C501B4010E94EE24C5
:1014400040E050E0BA0187FF0EC0A5019401C7013A
:10145000B6010E944226288939894A895B890E94FF
:10146000AF26AB01BC01E881F9810480F581E02D54
:10147000212FCE010995288939894A895B890E94E3
:1014800054252C853D854E855F850E944326DF913E
:10149000CF911F91FF90EF90DF90CF90BF90AF90D2
:1014A0009F908F900895DC01ED91FC910484F58567
:1014B000E02D20E00994DC01ED91FC910084F185A0
:1014C000E02D60E00994DC01ED91FC910480F58150
:1014D000E02D20E009941F93CF93DF93EC018C89DA
:1014E0009D89892B11F51092180210921702109203
:1014F000A8021092CA020E94E60685E198E0909345
:101500003B0280933A0286E198E090933F028093F9
:101510003E02898D91E09093A7028093C90281E0F9
:10152000DF91CF911F910C9425071FB7F8948091FC
:10153000F601811127C0E5EAF0E08491E9EBF0E0E3
:101540009491E82FF0E0EE0FFF1FE759FF4FA591B0
:10155000B491EC91E92321F461E08AE00E94560104
:1015600061E08AE00E94A2018CB580618CBD8CB5DF
:1015700080648CBD61E08DE00E94A20161E08BE09F
:101580000E94A2018091F6018F5F8093F6011FBF38
:1015900061E08E890E94A20161E08E890E9456015D
:1015A00080E0DF91CF911F91089560E070E080E8C6
:1015B0009FE30895089580E0089580E00895FC0178
:1015C0008FEF9FEF938F828F158E148E16A215A228
:1015D00081E082A30895FC0127A530A941A952A961
:1015E00060E070E080E89FE30E9442260895DC01FD
:1015F0001396ED91FC91808108954F925F926F92C6
:101600007F92BF92CF92DF92EF92FF920F931F9340
:10161000CF93DF938C01DC011396ED91FC9114972D
:10162000B08019965C9119979396CD91DC911C8AA4
:101630001D8A1E8A1F8AC12CD12C7601552309F4DC
:1016400069C08881998197FD5DC140E023E230E067
:10165000F894E98DFA8D9281888D80958923828313
:10166000EC8DFD8D91818B8D809589238183EC8D0F
:10167000FD8D92818B8D809589238283EC8DFD8DEC
:1016800081819B8D892B8183EC8DFD8D92818B8D4A
:10169000809589238283C9010197F1F7EC8DFD8D37
:1016A00091818B8D809589238183EC8DFD8D928135
:1016B0008B8D809589238283E98DFA8D8281988D27
:1016C000892B82837894EC8DFD8D7B8DC884D984A1
:1016D000EA84FB8460818C899D89AE89BF896723F8
:1016E00069F48C159D05AE05BF0540F40196A11D5A
:1016F000B11D8C8B9D8BAE8BBF8BECCFC816D906E2
:10170000EA06FB0608F046C09EEFC92EDD24DA94F7
:10171000ED2CFD2C0E943002D80115966D937D931F
:101720008D939C93189754968D919C9155975796AD
:101730009C938E93569752968D919C915397559664
:101740009C938E93549750968D919C91519753965C
:101750009C938E9352971E968D919C911F975196B4
:101760009C938E9350971F96DC92CE921E9758961C
:101770002C91222309F4D4C0F801709681E0281737
:1017800009F4C5C041915191C40ED51EE11CF11C54
:101790008F5FF5CFF894EC8DFD8D82819B8D892B29
:1017A0008283EC8DFD8D81819B8D892B8183EC8DD6
:1017B000FD8D82819B8D892B8283EC8DFD8D9181A6
:1017C0008B8D809589238183EC8DFD8D92818B8D0E
:1017D000809589238283E98DFA8D9281888D809509
:1017E000892382837894EC8DFD8D7B8DC884D98488
:1017F000EA84FB8460818C899D89AE89BF896723D7
:1018000009F06DC08C159D05AE05BF0508F07CCFB5
:101810004F5F54131DCFCA80DB80EC80FD80C8165B
:10182000D906EA06FB0608F068C09C01AD012C1938
:101830003D094E095F0969017A010E9455024888F5
:1018400059886A887B8864197509860997094C84C8
:101850005D846E847F84461657066806790628F5EF
:101860006A817B818C819D810E94F3242DEC3CEC6C
:101870004CEC5DE30E9454250E942127072E000CAA
:10188000880B990BC616D706E806F90670F48FEF99
:101890009FEFAFEFBFE08A839B83AC83BD830E9441
:1018A0005502688B798B8A8B9B8BCC88DD88EE8880
:1018B000FF888A819B81AC81BD81C816D906EA0662
:1018C000FB0620F4CA82DB82EC82FD828A819B8146
:1018D000AC81BD81C81AD90AEA0AFB0A1BCF8C1554
:1018E0009D05AE05BF0508F00FCF0196A11DB11DE6
:1018F0008C8B9D8BAE8BBF8B7DCFC81AD90AEA0A21
:10190000FB0A9BCFCC24CA94DC2C760103CF30E0B9
:1019100050E040E0C701B6010E945C2769017A01EE
:10192000C601F801218D222309F4D0C02485358514
:10193000A90170E060E04C155D056E057F0508F0BB
:10194000C2C0A601421B530B53874287D8011D9684
:101950009C938E931C970E945502F801E284F384B5
:10196000428D538D20A131A14E155F0560F42115E4
:101970003105C9F047A050A461A472A446165706C9
:101980006806790680F4D8015B96FC92EE925A972D
:101990002B013C01420E531E611C711CF80147A231
:1019A00050A661A672A6D8015C964D915C915D9798
:1019B000E416F50670F421153105B1F09B964D90B3
:1019C0005D906D907C909E97461657066806790646
:1019D00058F4F801F58EE48E620F731F811D911D7E
:1019E00063A774A785A796A7F801C28DD38DC48C71
:1019F000D58CCC1ADD0A82A1882311F1B60190E0C2
:101A000080E00E94F324D8019F962D913D914D9145
:101A10005C91D2970E9454252B013C01BE0190E0BD
:101A200080E00E94F324A30192010E9443260E94B9
:101A30002827C617D70709F44CC0F80176A365A379
:101A4000F801868D978DC816D90630F081E025A162
:101A500036A1E216F30608F480E0D8011396ED9162
:101A6000FC91149712969C91129721E030E001C0EE
:101A7000220F9A95EAF720959081292320831396C7
:101A8000ED91FC91149712962C91129701C0880F3A
:101A90002A95EAF79081892B80831396ED91FC912A
:101AA00081E090819B1101C080E0DF91CF911F9177
:101AB0000F91FF90EF90DF90CF90BF907F906F904D
:101AC0005F904F9008951386128640CFD386C286CA
:101AD0003DCF2196D8019696DC93CE939597B0CFC3
:101AE000CF92DF92EF92FF920F931F93CF93DF93EA
:101AF000EC016A017B010CA51DA501151105D9F0AA
:101B0000AB01960160E070E080E89FE30E9442260E
:101B1000AB01BC01D801ED91FC910480F581E02D71
:101B200028A9C801DF91CF911F910F91FF90EF90ED
:101B3000DF90CF9009940EA4DFA5C02D2097C1F0AF
:101B4000688170E090E080E00E94F324A701960194
:101B50000E9454250E9428276B83CE01DF91CF91EC
:101B60001F910F91FF90EF90DF90CF900C94C209DE
:101B7000DF91CF911F910F91FF90EF90DF90CF9069
:101B80000895FC0183A50C9420036A3018F4DC014D
:101B900012966C93DC01ED91FC910280F381E02DB3
:101BA0000994DC011296EC91B4E0EB9FF001112452
:101BB000E80FF91F2581368163817481FC0183A5BB
:101BC00050E040E02F3F320719F420E030E0A90157
:101BD0000C944C03CF93DF93EC0161E08BA50E9442
:101BE000A20160E08BA50E9456018CA59DA50097DF
:101BF00039F0DC01ED91FC910190F081E02D099527
:101C00000EA4DFA5C02D2097A9F061E089810E9474
:101C1000A20160E089810E94560161E08A810E94F0
:101C2000A20160E08A810E945601CE01DF91CF912E
:101C30000C94C209DF91CF910895EF920F931F93F7
:101C4000CF93DF93EC018EA19FA1009799F410E050
:101C50008DA5181730F58EA56FEF70E0882311F071
:101C600070E060E0FE01E10FF11D81A50E94D3014B
:101C70001F5FEECF68A570E0FC01228133816217FF
:101C8000730730F4E12C00E020E040E00E94A0085F
:101C90008EA19FA1FC0121853285232B11F00E948A
:101CA000F1081FA618AA19AA1AAA1DA2DF91CF919E
:101CB0001F910F91EF900895EF920F931F93CF9381
:101CC000DF93EC018EA19FA1009701F510E006E0E3
:101CD000288130E08DA51817B8F5812F90E0029F7C
:101CE000F001039FF00D1124EC0FFD1FE80FF91F09
:101CF00061812EA5211101C0609570E08C0F9D1FA0
:101D0000FC0181A50E94D3011F5FE2CF68A570E0AE
:101D1000FC01228133816217730768F42881FE0178
:101D200036E0239FE00DF11D1124E4800381228120
:101D300041810E94A0088EA19FA1FC0121853285CE
:101D4000232B11F00E94F108888116E0FE01189FF4
:101D5000E00DF11D112485819681019691F00E947C
:101D600055022881FE01129FE00DF11D11242581ED
:101D70003681620F731F811D911D6FA778AB89ABF0
:101D80009AAB81E08DA3DF91CF911F910F91EF90DE
:101D900008957F928F929F92AF92BF92CF92DF92DF
:101DA000EF92FF920F931F93CF93DF93EC018A89F9
:101DB0008E3008F08E508770806480937C00809114
:101DC0007A00806480937A0080917A0086FDFCCF4F
:101DD00080917800909179009C838B830E943002DF
:101DE0006D837E838F8398870E9455020B811C81AF
:101DF0004C855D85288939894017510760F4211584
:101E00003105A9F0CB8CDC8CED8CFE8CC616D70688
:101E1000E806F90660F41D870C876B017C01C20E91
:101E2000D31EE11CF11CCB8EDC8EED8EFE8E4E851A
:101E30005F850417150760F42115310599F0CF8CE3
:101E4000D8A0E9A0FAA0C616D706E806F90650F40D
:101E50001F870E87620F731F811D911D6F8F78A3DF
:101E600089A39AA3CC84DD84EE84FF84EC18FD085A
:101E700079847720D1F0B70190E080E00E94F324CC
:101E80002D893E894F89588D0E9454254B015C0154
:101E9000B60190E080E00E94F324A50194010E9425
:101EA00043260E9428277A8F698F8A859B85E816AA
:101EB000F90610F4711009C0298D3A8D89818823A3
:101EC00031F081E00217130730F480E004C081E0B4
:101ED00002171307D0F748818883EDA1FEA19A81EC
:101EE00021E030E001C0220F9A95EAF72095908119
:101EF00029232083EDA1FEA128819A8101C0220F10
:101F00009A95EAF79081292B20838427DF91CF913E
:101F10001F910F91FF90EF90DF90CF90BF90AF9007
:101F20009F908F907F900895CF93DF9300D000D043
:101F3000CDB7DEB749835A836B837C83DC018D91F7
:101F40009C91DC01ED91FC910280F381E02D44E055
:101F500050E0BE016F5F7F4F09950F900F900F907B
:101F60000F90DF91CF910895CF93DF9300D0CDB73D
:101F7000DEB769837A83DC018D919C91DC01ED9160
:101F8000FC910280F381E02D42E050E0BE016F5FE2
:101F90007F4F09950F900F90DF91CF910895EF92A9
:101FA000FF920F931F93CF93DF938C01EB0160E7B8
:101FB00072E00E94B40F4D815E816F817885C80107
:101FC0000E94940FD8010D911C91D801ED91FC91C4
:101FD000E080F180E881F9810480F581E02DCE0177
:101FE0000995682FC801F701DF91CF911F910F91DB
:101FF000FF90EF9009940F931F93CF93DF93EC0121
:102000008B0160E072E00E94B40FF80145815681B7
:1020100067817085CE010E94940F88819981E801C3
:10202000ADA1BEA1EC01E881F9810190F081E02D24
:102030006C91DF91CF911F910F910994DC01ED918B
:10204000FC910280F381E02D0994DC01ED91FC917B
:102050000190F081E02D0994AF92BF92CF92DF9270
:10206000EF92FF921F93CF93DF93EC017B01142F2C
:1020700060E872E00E94B40FD70115964D915D9112
:102080006D917C911897CE010E94940FC880D980E1
:10209000D601ED91FC91A080B180D701ED91FC912A
:1020A0000480F581E02DC7010995682FC601F5016F
:1020B0000995612F70E06F5F7F4F888199810E9441
:1020C0002510D7011A966D917C91CE01DF91CF91A9
:1020D0001F91FF90EF90DF90CF90BF90AF900C9446
:1020E000B40FDC01ED91FC910190F081E02D099499
:1020F000CF93DF93E0916404F0916504309709F485
:1021000080C0EC018091880490918904A0918A0498
:10211000B0918B04AC01BD014F5F5F4F6F4F7F4F9C
:10212000409388045093890460938A0470938B04CD
:1021300009958E3108F046C080937D04BE0180E58C
:1021400094E00E94B40F8091420490914304DC011A
:10215000ED91FC910190F081E02D60917D04099555
:1021600080917D04882309F44CC0E0916404F091CF
:1021700065048091880490918904A0918A04B091AB
:102180008B04AC01BD014F5F5F4F6F4F7F4F40939A
:1021900088045093890460938A0470938B04099592
:1021A000682F70E070936A04609369048091420420
:1021B000909143040E94711080917D04815080931E
:1021C0007D04CECF10927D04E0916204F09163040F
:1021D000309709F4B3CF8091880490918904A0913D
:1021E0008A04B0918B040197A109B10980938804F6
:1021F00090938904A0938A04B0938B0460E00995BE
:102200009DCFDF91CF9108958EEF92E00E94C90E8D
:102210008823A9F08091FE0269E170E0811102C07B
:1022200061E070E08AE00E94D3018091440481FF64
:1022300006C06EEF72E080E594E00C94FB0F089509
:102240008F929F92AF92BF92CF92DF92EF92FF92C6
:102250000F931F93CF93DF93EC01042FF22E632B88
:10226000162F142B8C899D89892B09F030C18CE0A5
:102270008093B8008F89988D298D31E03093A70223
:102280002093C9021092A8021092CA02DC01ED91BB
:10229000FC910190F081E02D612F09950C3009F03F
:1022A00006C181E00E942507882379F08FEF9FEF18
:1022B000DF91CF911F910F91FF90EF90DF90CF9022
:1022C000BF90AF909F908F900895198D0E9430021B
:1022D0006B017C018091A102811165C081E0809336
:1022E000A1028093A0029FEF90939F0210929E0202
:1022F00080939D0280937C0280917C02110F182BA9
:1023000010937C0280917B02813009F08EC0109284
:102310007B020E9430026B017C0180917C028093E1
:10232000BB008091A3029091A402A091A502B0915C
:10233000A602892B8A2B8B2BA1F00E9430020091E0
:10234000A3021091A4022091A5023091A6026C195B
:102350007D098E099F09061717072807390708F412
:1023600043C08091BC0083FDD8CF85EC8093BC0036
:102370000E9430026B017C018091A102813009F43E
:1023800056C080919E02823008F073C080919E02F8
:10239000EDE7F2E0A7EFB1E090E0981751F121915D
:1023A0002D939F5FFACF8091A3029091A402A091F8
:1023B000A502B091A602892B8A2B8B2B09F48ACF18
:1023C0000E9430028090A3029090A402A090A502E7
:1023D000B090A6026C197D098E099F098616970692
:1023E000A806B90608F076CF8091A2020E940407E1
:1023F00080E010921802809317028230E0F58F89F6
:10240000988DDC01ED91FC910084F185E02D09951A
:10241000892B09F44BCF8F89988DDC01ED91FC91CC
:102420000284F385E02D0995EACF85EE9FCF809158
:10243000A3029091A402A091A502B091A602892BBB
:102440008A2B8B2B09F498CF0E9430020091A302B3
:102450001091A4022091A5023091A6026C197D0969
:102460008E099F09061717072807390708F084CF38
:10247000BBCF82E08DCF8F89988DDC01ED91FC91EF
:102480000284F385E02D0995082F8F89988DDC0152
:10249000ED91FC910284F385E02D0995182F802F92
:1024A00090E0982F8827810F911D917001CF8F891F
:1024B000988DDC01ED91FC910190F081E02D6F2D64
:1024C000099581E00E942507182F00E0E8CF81E5FB
:1024D0008CBD1DBC60E08E890E9456011EBD0000AF
:1024E0000DB407FEFDCF0EB5FEBC00000DB407FE17
:1024F000FDCF1EB561E08E890E945601D0CF4F926C
:102500005F926F927F928F929F92AF92BF92CF9283
:10251000DF92EF92FF92CF93DF93EC012FEF31E048
:102520004CE0611147C0CE010E942011BC0190E037
:1025300080E00E94F3246B017C016A857B8590E03A
:1025400080E00E94F3249B01AC01C701B6010E9408
:10255000AF269B01AC01C888D988EA88FB88C701EF
:10256000B6010E9454259B01AC018C849D84AE84ED
:10257000BF84C501B4010E9443262B013C01A50183
:102580009401C701B6010E9443269B01AC01C3011F
:10259000B2010E94AF26DF91CF91FF90EF90DF90C4
:1025A000CF90BF90AF909F908F907F906F905F90F3
:1025B0004F90089560E1B7CFCF92DF92EF92FF92F4
:1025C0001F93CF93DF93EC016A017B01122F6A8581
:1025D0007B8590E080E00E94F324A70196010E9491
:1025E00054250E9428279B0140E060E0111160E122
:1025F000CE010E942011E881F9810084F185E02D4F
:10260000612FCE01DF91CF911F91FF90EF90DF906E
:10261000CF900994CF93DF93EC018B819C81892B20
:1026200041F481E090E00E94A3279C838B83FC010E
:102630001082E881F9810284F385E02DCE010995AD
:10264000E881F9810280F381E02DCE01099580E0D7
:10265000DF91CF9108950E94C82885ED8093BC003A
:102660008091A3029091A402A091A502B091A6022C
:102670000796A11DB11D23E0B695A795979587955F
:102680002A95D1F72091BC0024FD03C01092A1022D
:1026900008954091A3025091A4026091A502709107
:1026A000A602452B462B472B69F30097A105B105E0
:1026B00041F02AE22A95F1F700C00197A109B1097A
:1026C000E1CF8091A2020C9404070C9412260C9482
:1026D0001A261F920F920FB60F9211242F933F9339
:1026E0008F939F93AF93BF938091730290917402E5
:1026F000A0917502B09176023091720223E0230F0F
:102700002D3758F50196A11DB11D209372028093BB
:10271000730290937402A0937502B0937602809135
:10272000770290917802A0917902B0917A02019695
:10273000A11DB11D8093770290937802A093790236
:10274000B0937A02BF91AF919F918F913F912F915A
:102750000F900FBE0F901F90189526E8230F02963A
:10276000A11DB11DD2CF1F920F920FB60F9211244F
:102770002F933F934F935F936F937F938F939F9389
:10278000AF93BF93EF93FF9380916E0290916F028E
:10279000A0917002B0917102892B8A2B8B2BD1F101
:1027A00090916D02E0916B02F0916C02808189271B
:1027B000808380916E0290916F02A0917002B0911F
:1027C0007102181619061A061B069CF480916E02F7
:1027D00090916F02A0917002B09171020197A109CE
:1027E000B10980936E0290936F02A0937002B09330
:1027F0007102FF91EF91BF91AF919F918F917F9166
:102800006F915F914F913F912F910F900FBE0F905D
:102810001F901895809100010E942003EACF1F921B
:102820000F920FB60F9211242F933F934F935F9304
:102830006F937F938F939F93AF93BF93EF93FF9388
:1028400085EA93E00E943006FF91EF91BF91AF912E
:102850009F918F917F916F915F914F913F912F91B8
:102860000F900FBE0F901F9018951F920F920FB6EA
:102870000F9211242F938F939F93EF93FF93E091E7
:10288000B503F091B6038081E091BB03F091BC03E6
:1028900082FD1BC090818091BE038F5F8F7320915A
:1028A000BF03821741F0E091BE03F0E0EB55FC4F0F
:1028B000958F8093BE03FF91EF919F918F912F9100
:1028C0000F900FBE0F901F9018958081F4CF1F922C
:1028D0000F920FB60F9211242F933F934F935F9354
:1028E0006F937F938F939F93AF93BF93EF93FF93D8
:1028F0008091B900887F803609F44AC0F0F58832AB
:1029000009F4A7C018F5803109F49BC0B8F48823F6
:1029100009F4F9C0883009F494C0FF91EF91BF9198
:10292000AF919F918F917F916F915F914F913F9167
:102930002F910F900FBE0F901F901895883109F4BA
:1029400088C0803251F780939F0214C0803409F40C
:102950009DC040F48033B9F38833F9F680939F0229
:1029600085ECB0C0803509F485C0883509F496C07F
:10297000883499F60E942D13D0CF883909F48CC081
:1029800038F5883729F050F4883611F0803729F669
:1029900083E08093A1021092600257C0883809F446
:1029A0007BC0803919F0803809F0B7CF8091600280
:1029B000803208F071C0E091600281E08E0F809358
:1029C00060028091BB00F0E0E05CFD4F80833DC081
:1029D000803B39F0E0F4803A09F479C0883A09F094
:1029E0009CCF84E08093A10210923D0210923C02A1
:1029F000E0913A02F0913B02099580913C028111ED
:102A00000FC081E080933C0210921A0209C0803C02
:102A100009F4A6CF883C09F4A3CF883B09F07DCF09
:102A2000E0913D0281E08E0F80933D02F0E0E65E92
:102A3000FD4F80818093BB0090913D0280913C02CC
:102A400029C080917C028093BB0085EC8093BC0000
:102A500064CF90919E0280919D02981758F5E09165
:102A60009E0281E08E0F80939E02F0E0E358FD4FBE
:102A70008081E9CFE0919E0281E08E0F80939E02DB
:102A80008091BB00F0E0E358FD4F808390919E025F
:102A900080919D029817C8F285E8D8CFE0919E02F8
:102AA00081E08E0F80939E028091BB00F0E0E3589E
:102AB000FD4F80838091A00281115CCF81E08093E3
:102AC0007B0284EA8093BC001092A10226CF85ECA1
:102AD0008093BC001092A10280916002803230F499
:102AE000E0916002F0E0E05CFD4F108260916002D6
:102AF00070E0E0913E02F0913F0280E492E009959F
:102B0000109260020ACF10929F0234CF0F931F934E
:102B1000CF93DF93A5EAB3E013961C921E9212970F
:102B200048EE53E060E070E014964D935D936D9332
:102B30007C9317978EE191E011969C938E9385EC90
:102B400090E01D969C938E931C9784EC90E01F96CA
:102B50009C938E931E9780EC90E051969C938E935D
:102B6000509781EC90E053969C938E93529782EC11
:102B700090E055969C938E93549786EC90E05796F0
:102B80009C938E93569759961C9259975A961C92DD
:102B90005A975B961C925B975C961C925C97E2E45A
:102BA000F4E0B183A08312822AEF30E034832383E0
:102BB00080E197E2A0E0B0E085839683A783B087A9
:102BC0001586118A108A138A128A158A148A178A1E
:102BD000168A118E108E138E128E158E148E178EED
:102BE000168E11A210A213A212A215A214A2109264
:102BF0009004109293041092960481E086A3EBE86F
:102C0000F3E040E050E066E972E444875587668768
:102C1000778740E050E46CE176E4408B518B628B27
:102C2000738B93E1968B108E178A4AE853E0558B8D
:102C3000448B4CE451E051834083A9E5B3E040E488
:102C400051E011965C934E9312961C9212979FE05E
:102C50009B969C939B979F961C921E929E97D096B4
:102C60001C92D0979D96FC93EE939C97E6E2F3E03E
:102C7000108217A216A210A686A794E095A793E04B
:102C800091A795E092A746E043A749E044A7EEEF5D
:102C9000F2E0818345E253E04283818744E650E0DD
:102CA000538742874FEF5FEF558744871786168615
:102CB00040E355E7518B408B4EE0428B4FEF438B07
:102CC000448B40E050E060E07FE3458B568B678BA0
:102CD000708F48EE53E054A343A316A215A2CBEC89
:102CE000D2E01A821C821B8240E351E05983488360
:102CF0004AE04987988F898F44E050E05F8F4E8F7C
:102D000039A328A38AA380E090E0A0E4BFE38FA7C3
:102D100098ABA9ABBAAB8EE190E00E94A3278C01DF
:102D200081E090E0D80111969C938E9386E391E028
:102D300017969C938E93169780EE95E7A9E0B0E0E6
:102D4000F80180879187A287B38780E29EE4A0E0A4
:102D5000B0E084879587A687B78761E082E10E940B
:102D6000A20160E080E10E94A20160E082E10E9495
:102D70005601E1ECF0E0E491D8015896EC935897B5
:102D8000EDEAF0E0E491F0E0EE0FFF1FEF56FF4FA9
:102D900085919491F801928F818FEFEBF0E0E491AF
:102DA0005B96EC93EBEAF0E0E491F0E0EE0FFF1FAE
:102DB000EF56FF4F85919491F801958F848F8FEF97
:102DC0009FEFAFEFBFE082839383A483B5830E941C
:102DD0005502D80150966D937D938D939C93539794
:102DE0001CA30BA31A82DF91CF911F910F9108951D
:102DF000CF93DF93CDB7DEB7E4970FB6F894DEBF7D
:102E00000FBECDBF789484B5826084BD84B58160E7
:102E100084BD85B5826085BD85B5816085BD8091A5
:102E20006E00816080936E0010928100809181001D
:102E30008260809381008091810081608093810015
:102E4000809180008160809380008091B1008460D7
:102E50008093B1008091B00081608093B000809138
:102E60007A00846080937A0080917A0082608093F7
:102E70007A0080917A00816080937A0080917A0054
:102E8000806880937A001092C10084E690E090936D
:102E900009038093080380E090E0A0E0BFE3809303
:102EA000130390931403A0931503B093160381E0CA
:102EB000809307038091230390912403892B51F47D
:102EC00081E090E00E94A327909324038093230342
:102ED000DC011C9260E0809110030E94A2010E941C
:102EE00055022091210330912203DC01CB01820F96
:102EF000931FA11DB11D8093190390931A03A093F2
:102F00001B03B0931C0380931D0390931E03A09397
:102F10001F03B09320030E94041185E090E090937A
:102F2000EA028093E90280E090E0A0E8BEE38093AB
:102F3000FA029093FB02A093FC02B093FD0281E0A1
:102F40008093ED028BEC92E00E940A1381E692E0FE
:102F500090935B0480935A048DE992E090935D0412
:102F600080935C0486EC92E090935F0480935E040F
:102F700087E693E1909363048093620485E693E18E
:102F8000909365048093640489E593E090938D04A5
:102F900080938C048EEF92E090939204809391043E
:102FA00086E293E090938F0480938E048BEC92E002
:102FB000909395048093940440E052EC61E070E0BB
:102FC00080914204909143040E948D0080914204BC
:102FD00090914304909351048093500463E270E015
:102FE00080E594E00E94B40F60E081E10E94A201BC
:102FF00061E08AE00E94A20161E070E08AE00E9444
:10300000D30182E1E8E0F1E0DE01119601900D923A
:103010008A95E1F700914C0310914D0301151105BC
:1030200079F410E0809153031817D8F4E12FF0E001
:10303000EA5DFC4F61E081A50E94A2011F5FF2CF13
:10304000F8018681978197FD09C061E00E94A20185
:1030500060E0D80116968C910E94560181E0F8013B
:10306000818386E293E00E941D0EDE011196E6E266
:10307000F3E084E690E012962C91129711963C9121
:1030800011974C91418332832383968385831396D2
:10309000369623E0EA34F20771F785E08093260341
:1030A00089E593E00E94EA0DE9E5F3E088EE93E01C
:1030B00024E630E094838383368325838C599F4FA5
:1030C0003496803D47E09407A9F789E080935B033D
:1030D00040E050E060E87FE389E593E00E94700DF6
:1030E00022242A94322CCE010A969CAB8BABEE2480
:1030F000EA94FE2C8EE1482E512C612C712C01E0BB
:1031000010E08091420490914304DC01ED91FC9128
:103110000084F185E02D0995892BC9F18091420445
:1031200090914304DC01ED91FC910284F385E02D44
:103130000995682F282F392F30936A04209369044A
:10314000E0916E04F0916F04309709F0C1C780914F
:103150006D048111FBC030936C0420936B0481E0FB
:1031600080936D0480916E0490916F04892B11F00F
:103170000C94CA2480916D0481110C94CA2410927D
:103180007F04109280041092810410928204809136
:103190007F0490918004A0918104B0918204892BD6
:1031A0008A2B8B2B89F00E94550280907F0490908F
:1031B0008004A0908104B090820486169706A80629
:1031C000B90610F40E94ED008091550390915603CA
:1031D000A0915703B0915803892B8A2B8B2B99F020
:1031E0000E9455028090550390905603A09057037B
:1031F000B090580386169706A806B90620F486E212
:1032000093E00E941D0ED0900101DD20C9F1809154
:103210004B03811135C0DA94D0920101D09226037C
:1032200086E293E00E945C0E6D2D89E593E00E949A
:10323000C50D80910101811123C0F0922C03E09211
:103240002B03F0923203E0923103F0923803E092C4
:103250003703F0923E03E0923D03F0924403E09284
:103260004303F0924A03E092490385E080932603EA
:1032700086E293E00E941D0E89E593E00E94C10D55
:103280000E9404118BEC92E00E94FD0A882379F0E1
:103290008091440481FF0BC082FD02C00C94DE24A7
:1032A00040E06BEC72E080E594E00E942C1080918D
:1032B000440480FF3EC00E94300280904B049090F6
:1032C0004C04A0904D04B0904E0486169706A806B4
:1032D000B90678F56EEF72E080E594E00E94FB0F8E
:1032E0008091440482FD02C00C94E62440E06BEC23
:1032F00072E080E594E00E942C1080914B04909144
:103300004C04A0914D04B0914E044091470450915B
:1033100048046091490470914A04840F951FA61FC8
:10332000B71F80934B0490934C04A0934D04B0932B
:103330004E0480E090E0892B09F4E3CE0E941C0645
:10334000882309F4DECE0E940000D9CE922F882770
:1033500020916B0430916C04820F931F90936C0446
:1033600080936B0410926D048738B1E09B0709F4D9
:10337000C0C408F04DC18736910509F4C8C308F0F0
:10338000A7C08C30910509F48EC308F04AC0843080
:10339000910509F458C3A0F48130910509F4B4C231
:1033A00008F4AFC2029709F4B6C261E270E080E5AA
:1033B00094E00E94B40F60916B0470916C04A6C2FB
:1033C0008630910509F464C308F425C3873091055C
:1033D00009F446C3089749F769E070E080E594E096
:1033E0000E94B40F6FE170E0809142049091430419
:1033F0000E942510E0916004F0916104C0904204A5
:10340000D0904304D601309709F4C5C28D919C91A8
:10341000DC01AD90BC900995682FC601F5010995B6
:10342000A1CE8631910509F47FC228F5803191053E
:1034300009F4B9C290F40E9709F0B7CF6FE070E0CD
:1034400080E594E00E94B40F40E052EC61E070E04F
:1034500080E594E00E94940F85CE8131910509F4B6
:10346000C7C2429709F0A1CF86E090E090936F0425
:1034700080936E0477CE8A31910509F47EC288F478
:10348000489709F092CFE0915404F0915504309799
:1034900009F470CECE0101960995D82E67E170E04F
:1034A00050C28536910509F435C38636910509F079
:1034B0007CCF65E670E080E594E00E94B40F409117
:1034C0004704509148046091490470914A04C0CF68
:1034D0008830F1E09F0709F48EC308F056C08130B0
:1034E00031E0930709F45FC330F58937910509F49A
:1034F0003AC3B0F48837910509F057CF82E190E0E4
:1035000090936F0480936E0483E080937D0483E046
:1035100090E0909371048093700484E190E034C350
:103520008A37910509F400C38115914009F03DCF18
:1035300087E190E09BCF8530B1E09B0709F43FC362
:1035400038F48430914009F030CF88E190E08ECF9C
:10355000863021E0920709F447C38730914009F093
:1035600024CF66E071E080E594E00E94B40FE09122
:103570008C04F0918D048281B4E08B9FC0011124F2
:10358000E80FF91F63817481C1C1803841E094075D
:1035900009F49DC398F48A30B1E09B0709F446C34F
:1035A00008F430C38B30F1E09F0709F449C380363B
:1035B000914009F0FACE8FE090E058CF843831E0A6
:1035C000930709F490C388F48138914009F0EDCE57
:1035D00080918E0490918F04DC0195962C9122238A
:1035E00009F4C8CD0E941D0EBDCD8538B1E09B0702
:1035F00009F470C38638914009F0D7CE10936F0458
:1036000000936E0482E080937D0480E290E0D4C158
:103610008437F2E09F0709F48FC408F0BAC08630FF
:1036200032E0930709F420C408F06BC08E38A1E0A3
:103630009A0709F45BC3E8F48938E1E09E0709F4CE
:10364000A6C308F49DC38D38914009F0AECE6CE856
:1036500071E080E594E00E94B40F80914204909163
:103660004304DC01ED91FC910190F081E02D66E0D6
:10367000D6CE813032E0930709F4B4C3B0F48F386A
:10368000914009F092CE6EE871E080E594E00E94EE
:10369000B40FE0919004F0E0EE0FFF1FE257FB4FF4
:1036A0000190F081E02D608195C28330B2E09B07EC
:1036B00009F4ACC38530924009F077CE64E072E043
:1036C00080E594E00E94B40FE0919304F0E0EE0FE7
:1036D000FF1FEF56FB4F0190F081E02D648575854B
:1036E00080E594E00E94B40FE0919304F0E0EE0FC7
:1036F000FF1FEF56FB4F0190F081E02D6685778527
:1037000005C18B30F2E09F0709F4E7C398F48830D5
:1037100032E0930709F4C7C308F4B0C38930A2E0CC
:103720009A0709F4C7C38A30924009F03ECE85E279
:1037300090E09CCE8137E2E09E0709F4E1C3B8F443
:103740008C30924009F031CEE0919304F0E0EE0F1E
:10375000FF1FEF56FB4F0190F081E02D3586248648
:1037600017861686128E118E81E08187FBCC8237F8
:1037700032E0930709F4DDC38337924009F015CE98
:1037800062E772E080E594E00E94B40F60919604D5
:1037900021C28B38A2E09A0709F459C408F050C03E
:1037A0008638E2E09E0709F423C498F5863722E0C4
:1037B000920709F4EEC308F4D5C3813842E09407B8
:1037C00009F4F7C38338924009F0EFCD62E872E064
:1037D00080E594E00E94B40FE0919604F0E0EE0FD3
:1037E000FF1FEC56FB4F0190F081E02D628D738D31
:1037F00080E594E00E94B40FE0919604F0E0EE0FB3
:10380000FF1FEC56FB4F0190F081E02D648D758D0C
:103810007DC08838B2E09B0709F404C408F4EFC304
:103820008938F2E09F0709F400C48A38924009F011
:10383000BCCD10936F0400936E048AE290E0BCC08C
:10384000803932E0930709F440C460F58D38A2E076
:103850009A0709F416C408F40DC48E38E2E09E07F6
:1038600009F42CC48F38924009F09FCD6EE872E0C5
:1038700080E594E00E94B40F80914204909143044B
:10388000E0919604F0E0EE0FFF1FEC56FB4FA08195
:10389000B181FC0120813181F9012081318158966B
:1038A0006C910AC4843625E6920709F45BCCB0F427
:1038B0008139924009F079CD60E972E080E594E0C9
:1038C0000E94B40FE0919604F0E0EE0FFF1FEC565B
:1038D000FB4F0190F081E02D618D10C38236A4E78B
:1038E0009A0709F46EC08336944709F05ECD25E04F
:1038F00030E030936F0420936E048FEF80937D044B
:1039000031CC0E94ED002ECC6DEC7BEA80E594E09A
:103910000E94B40F27CC63E070E080E594E00E9441
:10392000B40F67E070E0F2CFE0915204F0915304DD
:10393000309709F41FCCCE0101960995D82E65E188
:1039400070E080E594E00E94B40F80915004909163
:103950005104DC01ED91FC910190F081E02D6D2D81
:1039600009954D2D50E0BE016F5F7F4F809150044F
:10397000909151040E941E10F5CBE0915604F091F5
:103980005704309709F4F6CBCE0101960995D82E4D
:1039900069E170E0D6CFED91FC910190F081E02DCE
:1039A00060E0C6013CCD10936F0400936E0482E08A
:1039B00080937D0484E090E0909371048093700480
:1039C000C8C263E674E780E594E00E94B40FD12C8E
:1039D000C12CB60180915004909151040E94711045
:1039E000BFEFCB1ADB0AC114E1E0DE0691F7BACBD8
:1039F00062E170E080E594E00E94B40F809142049F
:103A000090914304DC01ED91FC910190F081E02D57
:103A100060914F0404CD83E090E090936F04809315
:103A20006E0483E190E0909371048093700481E0D0
:103A300080938704409288045092890460928A049B
:103A400070928B048FCB40928804509289046092CC
:103A50008A0470928B0485E090E00E94781082CBFB
:103A600083E090E090936F0480936E0483E190E094
:103A7000909371048093700481E080938704109286
:103A800088041092890410928A0410928B046ACBE5
:103A9000109288041092890410928A0410928B0468
:103AA00087E090E0DACFDE011196EEE0F0E021E26F
:103AB000CF01019620935700E491ED93FC014497C8
:103AC00011F4E5E1F0E08BA99CA9A817B90781F7EB
:103AD0006DE070E080E594E00E94B40F69E070E072
:103AE00080915004909151040E9471108091500473
:103AF00090915104DC01ED91FC910280F381E02D65
:103B000049E050E0BE016F5F7F4F09952BCB80E10C
:103B100090E0ACCC10936F0400936E0482E080932D
:103B20007D0481E190E048CFE0916604F091670464
:103B3000309709F41FCB0995609383047093840434
:103B400080938504909386046BE770E080E594E0B1
:103B50000E94B40F409183045091840460918504C5
:103B60007091860475CC82E190E090936F0480930D
:103B70006E0483E080937D0483E090E09093710471
:103B80008093700483E190E09093730480937204B7
:103B9000109288041092890410928A0410928B0467
:103BA00010927C04DFCA80918C0490918D04DC011A
:103BB000ED91FC910680F781E02D0995D3CA64E070
:103BC00071E080E594E00E94B40FE0918C04F091E4
:103BD0008D04628170E06F5F7F4F8091420490910D
:103BE00043040E942510BECA10936F0400936E0414
:103BF00089E190E0E1CE10936F0400936E048AE1B6
:103C000090E0DACE68E071E080E594E00E94B40FC5
:103C1000E0918C04F0918D04828124E0829FC001A8
:103C20001124E80FF91F6581768170CE10936F041F
:103C300000936E0482E080937D048BE190E0BCCE23
:103C40006AE071E080E594E00E94B40FA0918C04DA
:103C5000B0918D049C968D919C919D970097A9F0B1
:103C6000FC0120813181F90120853185D0966C914C
:103C7000F90109959B01AC0160E070E080E89FE3E9
:103C80000E9442260E9435016DCA9E96CD90DC901E
:103C900060E070E080E89FE3C114D10499F3D6019D
:103CA00013966C9170E090E080E00E94F3244B0149
:103CB0005C01F601608170E090E080E00E94F324F6
:103CC0009B01AC01C501B4010E94AF26DBCF8CE1A2
:103CD00090E0CCCB64E871E080E594E00E94B40F02
:103CE0006091900477CF8DE190E0C0CB8EE190E0C1
:103CF000BDCBE0919004F0E0EE0FFF1FE257FB4FC9
:103D00000190F081E02D808190E090936A0480938F
:103D1000690466E871E080E594E00E94B40FD12C5C
:103D2000C12C76E0B72E8091420490914304E0913B
:103D30009004F0E0EE0FFF1FE257FB4FA081B1812E
:103D40004091690450916A04B49E9001B59E300D73
:103D50001124A20FB31F9D012C0D3D1DDC01ED911F
:103D6000FC910190F081E02DD90111966C9109959B
:103D7000BFEFCB1ADB0AE4E0CE16D104A1F6F2C9FC
:103D800010936F0400936E0481E290E015CEE091F1
:103D90009004F0E0EE0FFF1FE257FB4F0190F0811F
:103DA000E02D808190E090936A048093690468E834
:103DB00071E080E594E00E94B40FE0919004F0E09F
:103DC000EE0FFF1FE257FB4F0190F081E02D209195
:103DD000690430916A0446E0429FC001439F900D00
:103DE00011241FCF80919104909192040E94C90EDA
:103DF000E0919304F0E0EE0FFF1FEF56FB4F608160
:103E0000718180E594E00E94FB0FACC9E0919304BE
:103E1000F0E0EE0FFF1FEF56FB4F808191810E9473
:103E2000C90E62E072E080E594E00E94B40FE09178
:103E30009304F0E0EE0FFF1FEF56FB4F0190F0816F
:103E4000E02D458156816781708580E594E00E9470
:103E5000940FE0919304F0E0EE0FFF1FEF56FB4F3D
:103E60000190F081E02D8ECB10936F0400936E04CF
:103E700082E080937D0483E290E09ECD66E072E074
:103E800080E594E00E94B40FE0919304F0E0EE0F1F
:103E9000FF1FEF56FB4F0190F081E02D6589768979
:103EA0008789908DEFCE10936F0400936E0484E2A7
:103EB00090E082CD68E072E080E594E00E94B40F6B
:103EC000E0919304F0E0EE0FFF1FEF56FB4F0190DF
:103ED000F081E02D618D728D19CD6AE072E080E590
:103EE00094E00E94B40FE0919304F0E0EE0FFF1F06
:103EF000EF56FB4F0190F081E02D618570E06DCEB3
:103F00008091940490919504DC01ED91FC910280E4
:103F1000F381E02D0995E0919604F0E0EE0FFF1F8C
:103F2000EC56FB4F6081718180E594E00E94CF0FD9
:103F300019C986E290E09ACA10936F0400936E0448
:103F400082E080937D04E7E2F0E0F0937104E09377
:103F500070041092830410928404109285041092CD
:103F600086041ECE64E772E080E594E00E94B40F00
:103F7000E0919604F0E0EE0FFF1FEC56FB4F8081BE
:103F80009181DC01ED91FC910084F185E02D099592
:103F900079CEE0919604F0E0EE0FFF1FEC56FB4F58
:103FA00080819181DC01ED91FC910284F385E02D0B
:103FB00004CEE0919604F0E0EE0FFF1FEC56FB4FAD
:103FC00080819181DC01ED91FC910280F381E02DF3
:103FD000099540919604E42FF0E0EE0FFF1FEC5698
:103FE000FB4F6081718180E594E00E942C10BAC87B
:103FF00010936F0400936E0488E290E0DDCC66E8D5
:1040000072E080E594E00E94B40FE0919604F0E045
:10401000EE0FFF1FEC56FB4F0190F081E02D65A1E4
:1040200076A174CC89E290E021CA68E872E080E56C
:1040300094E00E94B40FE0919604F0E0EE0FFF1FB1
:10404000EC56FB4F0190F081E02D62A157CF6AE85A
:1040500072E080E594E00E94B40FE0919604F0E0F5
:10406000EE0FFF1FEC56FB4F0190F081E02D60A199
:1040700071A14CCCEBE2F0E0F0936F04E0936E049E
:1040800071C86CE872E080E594E00E94B40F809102
:10409000420490914304E0919604F0E0EE0FFF1F7C
:1040A000EC56FB4FA081B181FC0120813181F901E7
:1040B0002081318119966C91F901B1C92CE230E06F
:1040C00030936F0420936E044DC82DE230E0F8CF9A
:1040D0003197ED32F10508F05AC0EF58FF4D0C94BE
:1040E0009D279E20C720C320FE207921ED21C720D7
:1040F000C720C720C720C720C720C720C720C72088
:10410000F0212C2255227722C720C720C7209722D2
:10411000A322AB22D9220723132321232523C7203F
:104120003123662397239A23C123EF23FE230224FE
:1041300028245624662493249F24AB2490917C0445
:104140004901B12CA12C092E04C0880C991CAA1C71
:10415000BB1C0A94D2F7409183045091840460916F
:10416000850470918604840E951EA61EB71E80924B
:10417000830490928404A0928504B0928604985F90
:1041800090937C0404C0232B69F40E94ED0080917D
:104190007D04882309F4EFC390917E049111EBC351
:1041A0008150ACCB8FEF860F80937D0481E08093AC
:1041B0007E0480918704882351F3E0916204F0919A
:1041C00063043097C1F08091880490918904A09194
:1041D0008A04B0918B044C015D013FEF831A930A6E
:1041E000A30AB30A8092880490928904A0928A0458
:1041F000B0928B04099510928704C9CFC901B0E031
:10420000A0E040917C0404C0880F991FAA1FBB1F27
:104210004A95D2F7409183045091840460918504BB
:1042200070918604840F951FA61FB71FBF708093DF
:10423000830490938404A0938504B0938604F4E0EF
:1042400036952795FA95E1F730936A04209369042F
:10425000C0904204D0904304D601ED91FC910680B9
:10426000F781E02DC6010995D6015296ED91FC919A
:10427000539780818F7E80835296ED91FC91539766
:104280008081877F80835296ED91FC915397808146
:104290008F7780835296ED91FC91539780818F7D2B
:1042A00080835A968C915A9759968C9340918304A7
:1042B0005091840460918504709186048091420439
:1042C000909143040E948D00809083049090840418
:1042D000A0908504B090860465E674E780E594E0DC
:1042E0000E94B40FB501A40180E594E00E94940FF0
:1042F0004ECF40917D044F3F59F480937D0410923E
:1043000083041092840410928504109286043FCF97
:104310008091830490918404A0918504B0918604D7
:104320008217130659F49F5FAF4FBF4F80938304EA
:1043300090938404A0938504B0938604411139C0FE
:1043400064E674E780E594E00E94B40FA091420413
:10435000B09143044091830450918404609185049A
:1043600070918604CB01BA016F5F7F4F8F4F9F4FD3
:10437000ED91FC9111970190F081E02DCD0109950F
:10438000A0914204B091430440918304509184046D
:1043900060918504709186049927872F762F652F69
:1043A000ED91FC9111970190F081E02DCD010995DF
:1043B000EECE8091830490918404A0918504B09105
:1043C00086040196A11DB11D8093830490938404FB
:1043D000A0938504B0938604DACE80934F04D7CEA1
:1043E00080934404882309F4D2CEE0919304F0E052
:1043F000EE0FFF1FEF56FB4F6081718180E594E067
:104400000E94FB0FE0919604F0E0EE0FFF1FEC56C8
:10441000FB4F6081718180E594E00E94CF0F809115
:10442000440480FFB4CE0E943002809047049090F4
:104430004804A0904904B0904A04DC01CB01880DE7
:10444000991DAA1DBB1D80934B0490934C04A0930F
:104450004D04B0934E049BCEC901B0E0A0E0209182
:104460007C0404C0880F991FAA1FBB1F2A95D2F78E
:104470004091830450918404609185047091860476
:10448000840F951FA61FB71F809383049093840405
:10449000A0938504B09386048093470490934804C6
:1044A000A0934904B0934A0472CE90917C044901D0
:1044B000B12CA12C092E04C0880C991CAA1CBB1C71
:1044C0000A94D2F7409188045091890460918A043B
:1044D00070918B04840E951EA61EB71E80928804D0
:1044E00090928904A0928A04B0928B0448CEE09105
:1044F0006204F0916304309709F449CE80918804F6
:1045000090918904A0918A04B0918B044C015D01C3
:104510002FEF821A920AA20AB20A8092880490921D
:104520008904A0928A04B0928B04099530CE8091C0
:104530008C0490918D046150DC01ED91FC9104801C
:10454000F581E02DF2CFA0918C04B0918D046150E3
:1045500012966C931CCEC901B0E0A0E020917C04BF
:1045600004C0880F991FAA1FBB1F2A95D2F740913C
:104570008304509184046091850470918604840FB3
:10458000951FA61FB71F8093830490938404A09364
:104590008504B0938604E0918C04F0918D044281EF
:1045A00024E0429FA0011124E40FF51F948383832C
:1045B000EECDC901B0E0A0E020917C0404C0880FDA
:1045C000991FAA1FBB1F2A95D2F7409183045091CF
:1045D00084046091850470918604840F951FA61F42
:1045E000B71F8093830490938404A0938504B093B1
:1045F0008604E0918C04F0918D04428134E0439F65
:10460000A0011124E40FF51F96838583C0CDC090CF
:104610008C04D0908D040E941401AB01BC01C60132
:104620000E94700DB4CD615060939004E62FF0E0CD
:10463000EE0FFF1FE257FB4F808191810E945C0EBD
:10464000A6CD615060939004A2CDE0919004F0E07B
:10465000EE0FFF1FE257FB4FA081B18161506C93B9
:1046600096CDC901B0E0A0E020917C0404C0880F81
:10467000991FAA1FBB1F2A95D2F74091830450911E
:1046800084046091850470918604840F951FA61F91
:10469000B71F8093830490938404A0938504B09300
:1046A0008604E0919004F0E0EE0FFF1FE257FB4F0D
:1046B0000190F081E02D208146E0249FE00DF11D66
:1046C000112481839283A383B48361CDC901B0E0B7
:1046D000A0E020917C0404C0880F991FAA1FBB1F73
:1046E0002A95D2F740918304509184046091850407
:1046F00070918604840F951FA61FB71F80938304B3
:1047000090938404A0938504B0938604E091900470
:10471000F0E0EE0FFF1FE257FB4F0190F081E02D1C
:10472000208136E0239FE00DF11D11246DCF809391
:1047300093042DCDE0919304F0E0EE0FFF1FEF56B0
:10474000FB4FC080D1800E941401D60155966D9315
:104750007D938D939C93589781E019968C93E0916B
:104760009304F0E0EE0FFF1FEF56FB4F0190F08136
:10477000E02D3586248617861686128E118E818747
:1047800006CDC901B0E0A0E020917C0404C0880FF0
:10479000991FAA1FBB1F2A95D2F7409183045091FD
:1047A00084046091850470918604840F951FA61F70
:1047B000B71F8093830490938404A0938504B093DF
:1047C0008604E0919304F0E0EE0FFF1FEF56FB4FDD
:1047D0000190F081E02D928F818F1186D8CCE091ED
:1047E0009304F0E0EE0FFF1FEF56FB4F0190F081B6
:1047F000E02D81E0232B19F680E0C1CF615060935A
:104800009604C5CCE0919604F0E0EE0FFF1FEC5645
:10481000FB4FC080D180D601ED91FC91A680B7807E
:104820000E941401AB01BC01C601F5010995E0919C
:104830009604F0E0EE0FFF1FEC56FB4F8081918154
:10484000DC01ED91FC910284F385E02D09959FCC6C
:10485000C901B0E0A0E020917C0404C0880F991F3A
:10486000AA1FBB1F2A95D2F740918304509184045C
:104870006091850470918604840F951FA61FB71F51
:104880008093830490938404A0938504B09386045A
:10489000E0919604F0E0EE0FFF1FEC56FB4F019005
:1048A000F081E02D96A385A312A271CCE09196042D
:1048B000F0E0EE0FFF1FEC56FB4F0190F081E02D72
:1048C00081E0232B09F480E082A361CCC901B0E030
:1048D000A0E020917C0404C0880F991FAA1FBB1F71
:1048E0002A95D2F740918304509184046091850405
:1048F00070918604840F951FA61FB71F80938304B1
:1049000090938404A0938504B0938604E091960468
:10491000F0E0EE0FFF1FEC56FB4F0190F081E02D11
:1049200091A380A334CCE0919604F0E0EE0FFF1F3A
:10493000EC56FB4F0190F081E02D818728CCE0916F
:104940009604F0E0EE0FFF1FEC56FB4F0190F08154
:10495000E02D608F1CCCE0919604F0E0EE0FFF1F7D
:10496000EC56FB4F0190F081E02D81E0232B09F400
:1049700080E0818F0CCCEEE6F4E08281938181931C
:1049800091932AE734E02E173F07B9F710927E047F
:104990000C94B2180E9455022091450430914604AF
:1049A000620F731F811D911D60937F0470938004BB
:1049B00080938104909382040C94C7186BEC72E08E
:1049C00080E594E00E94CF0F0C9457196BEC72E0D5
:1049D00080E594E00E94CF0F0C947D190E94302551
:1049E00008F481E00895E89409C097FB3EF490959F
:1049F0008095709561957F4F8F4F9F4F9923A9F0B8
:104A0000F92F96E9BB279395F69587957795679546
:104A1000B795F111F8CFFAF4BB0F11F460FF1BC08A
:104A20006F5F7F4F8F4F9F4F16C0882311F096E91D
:104A300011C0772321F09EE8872F762F05C06623CB
:104A400071F096E8862F70E060E02AF09A95660F84
:104A5000771F881FDAF7880F9695879597F908953D
:104A6000990F0008550FAA0BE0E8FEEF161617067F
:104A7000E807F907C0F012161306E407F50798F0E7
:104A8000621B730B840B950B39F40A2661F0232B00
:104A9000242B252B21F408950A2609F4A140A6957C
:104AA0008FEF811D811D08950E9467250C94D825E4
:104AB0000E94CA2538F00E94D12520F0952311F0DC
:104AC0000C94C1250C94C72511240C940C260E942B
:104AD000E92570F3959FC1F3950F50E0551F629F34
:104AE000F001729FBB27F00DB11D639FAA27F00D47
:104AF000B11DAA1F649F6627B00DA11D661F829F6E
:104B00002227B00DA11D621F739FB00DA11D621F52
:104B1000839FA00D611D221F749F3327A00D611D6F
:104B2000231F849F600D211D822F762F6A2F112451
:104B30009F5750409AF0F1F088234AF0EE0FFF1F84
:104B4000BB1F661F771F881F91505040A9F79E3FDB
:104B5000510580F00C94C1250C940C265F3FE4F3C2
:104B6000983ED4F3869577956795B795F795E79531
:104B70009F5FC1F7FE2B880F911D9695879597F93A
:104B8000089597F99F6780E870E060E008959FEFCF
:104B900080EC089500240A941616170618060906D4
:104BA000089500240A9412161306140605060895A3
:104BB000092E0394000C11F4882352F0BB0F40F42B
:104BC000BF2B11F460FF04C06F5F7F4F8F4F9F4F6B
:104BD000089557FD9058440F551F59F05F3F71F0ED
:104BE0004795880F97FB991F61F09F3F79F0879554
:104BF0000895121613061406551FF2CF4695F1DFDD
:104C000008C0161617061806991FF1CF869571056C
:104C1000610508940895E894BB2766277727CB01A0
:104C200097F90895F999FECF92BD81BDF89A992719
:104C300080B50895262FF999FECF1FBA92BD81BD88
:104C400020BD0FB6F894FA9AF99A0FBE019608950E
:104C50000E943326A59F900DB49F900DA49F800DB8
:104C6000911D11240895A29FB001B39FC001A39F7D
:104C7000700D811D1124911DB29F700D811D112495
:104C8000911D08955058BB27AA270E945A260C94BC
:104C9000D8250E94CA2538F00E94D12520F039F489
:104CA0009F3F19F426F40C94C7250EF4E095E7FB1A
:104CB0000C94C125E92F0E94E92558F3BA17620721
:104CC00073078407950720F079F4A6F50C940B265A
:104CD0000EF4E0950B2EBA2FA02D0B01B901900117
:104CE0000C01CA01A0011124FF27591B99F0593F5B
:104CF00050F4503E68F11A16F040A22F232F342FA3
:104D00004427585FF3CF469537952795A795F040F0
:104D10005395C9F77EF41F16BA0B620B730B840B05
:104D2000BAF09150A1F0FF0FBB1F661F771F881FBD
:104D3000C2F70EC0BA0F621F731F841F48F4879515
:104D400077956795B795F7959E3F08F0B0CF939507
:104D5000880F08F09927EE0F9795879508950E9480
:104D6000C3260C94D8250E94D12558F00E94CA254C
:104D700040F029F45F3F29F00C94C12551110C94A7
:104D80000C260C94C7250E94E92568F39923B1F3FA
:104D9000552391F3951B550BBB27AA276217730761
:104DA000840738F09F5F5F4F220F331F441FAA1FF5
:104DB000A9F335D00E2E3AF0E0E832D091505040B1
:104DC000E695001CCAF72BD0FE2F29D0660F771F5F
:104DD000881FBB1F261737074807AB07B0E809F045
:104DE000BB0B802DBF01FF2793585F4F3AF09E3FCA
:104DF000510578F00C94C1250C940C265F3FE4F328
:104E0000983ED4F3869577956795B795F7959F5F0C
:104E1000C9F7880F911D9695879597F90895E1E058
:104E2000660F771F881FBB1F621773078407BA07B7
:104E300020F0621B730B840BBA0BEE1F88F7E09512
:104E400008950E9428276894B1110C940C260895A7
:104E50000E94F12588F09F5798F0B92F9927B751F4
:104E6000B0F0E1F0660F771F881F991F1AF0BA950E
:104E7000C9F714C0B13091F00E940B26B1E008953B
:104E80000C940B26672F782F8827B85F39F0B93F2D
:104E9000CCF3869577956795B395D9F73EF49095C1
:104EA0008095709561957F4F8F4F9F4F08950E9419
:104EB000302508F48FEF0895A1E21A2EAA1BBB1B20
:104EC000FD010DC0AA1FBB1FEE1FFF1FA217B307D6
:104ED000E407F50720F0A21BB30BE40BF50B661FEC
:104EE000771F881F991F1A9469F7609570958095B0
:104EF00090959B01AC01BD01CF010895052E97FB54
:104F00001EF400940E94952757FD07D00E945C274D
:104F100007FC03D04EF40C9495275095409530959E
:104F200021953F4F4F4F5F4F089590958095709515
:104F300061957F4F8F4F9F4F0895EE0FFF1F059094
:104F4000F491E02D09940F931F93CF93DF93823058
:104F5000910510F482E090E0E0919904F0919A04B8
:104F600030E020E0B0E0A0E0309799F42115310561
:104F700009F44AC0281B390B24303105D8F58A8141
:104F80009B816115710589F1FB0193838283FE0189
:104F900011C0408151810281138148175907E0F007
:104FA0004817590799F4109761F012960C931297CD
:104FB00013961C933296CF01DF91CF911F910F91E1
:104FC00008950093990410939A04F4CF21153105A4
:104FD00051F04217530738F0A901DB019A01BD01D6
:104FE000DF01F801C1CFEF01F9CF90939A048093CC
:104FF0009904CDCFFE01E20FF31F819391932250CC
:10500000310939832883D7CF2091970430919804B0
:10501000232B41F420910401309105013093980431
:10502000209397042091020130910301211531054D
:1050300041F42DB73EB74091060150910701241B62
:10504000350BE0919704F0919804E217F307A0F470
:105050002E1B3F0B2817390778F0AC014E5F5F4FCE
:105060002417350748F04E0F5F1F50939804409364
:105070009704819391939FCFF0E0E0E09CCFCF9392
:10508000DF930097E9F0FC01329713821282A0911E
:105090009904B0919A04ED0130E020E01097A1F45A
:1050A00020813181820F931F2091970430919804C1
:1050B0002817390709F061C0F0939804E09397042A
:1050C000DF91CF910895EA01CE17DF07E8F54A8115
:1050D0005B819E0141155105B1F7E901FB83EA832C
:1050E00049915991C40FD51FEC17FD0761F48081D8
:1050F00091810296840F951FE901998388838281AB
:1051000093819B838A83F0E0E0E012968D919C91DD
:1051100013970097B9F52D913C911197CD01029607
:10512000820F931F20919704309198042817390714
:1051300039F6309751F510929A0410929904B09371
:105140009804A0939704BCCFD383C283408151813C
:10515000840F951FC817D90761F44E5F5F4F888190
:105160009981480F591F518340838A819B81938382
:1051700082832115310509F0B0CFF0939A04E093B2
:1051800099049ECFFD01DC01C0CF13821282D7CFDC
:0E51900081E090E0F8940C94CD28F894FFCFC5
:10519E00FF0600009B048000FF00FF0000FF00FFE1
:1051AE00FF00FF00FFFF00FF00000000000052069E
:1051BE00B205DF059F061006EE0502060000000090
:1051CE000A13FD0AF70AEF02EB0ADF0A00000000DD
:1051DE00EA0DD10DC50DC10D000000006B0A630A6A
:1051EE00DC125B0A7F12530A070AFF09DB09483AF1
:1051FE005C4D792044726976655C56756C696E7487
:10520E00757320536F6674776172652028447265DA
:10521E0077295C4669726D77617265202D204F6D1E
:10522E006E695472616B5C4F6D6E695472616B5F27
:10523E004E6F7365706F6B655F4669726D776172E5
:10524E00655C4F6D6E695472616B5F4E6F73657006
:10525E006F6B655F56335C4F6D6E695472616B5F39
:10526E004E6F7365706F6B655F56332E696E6F0090
:10527E004E6F7620313320323032340031393A30AD
:06528E00323A303200004C
:00000001FF
