:020000040000FA
:100000000C9464000C948A130C9463130C948C006D
:100010000C948C000C948C000C948C000C94B113F8
:100020000C948C000C948C000C948C000C948C0020
:100030000C948C000C948C000C948C000C948C0010
:100040000C9419130C948C000C9433140C940D1410
:100050000C948C000C948C000C948C000C948C00F0
:100060000C9465140C948C000200000000240027FE
:10007000002A0000000000230026002900000000E4
:100080000800020100000304070000000000000057
:100090000001020408102040800102040810200121
:1000A000020408102000000000250028002B000496
:1000B000040404040404040202020202020303030F
:1000C000030303008015952711241FBECFEFD8E04E
:1000D000DEBFCDBF24E0A0E3B2E001C01D92A23E8E
:1000E000B207E1F712E0A0E0B1E0EAE4F7E502C010
:1000F00005900D92A033B107D9F710E0C3E6D0E028
:1001000004C02197FE010E94682AC236D107C9F7B0
:100110000E947C170C94982B0C940000CF93DF93D3
:1001200000D0CDB7DEB789839A83809188049091FF
:100130008904DC01ED91FC910280F381E02D42E025
:1001400050E0BE016F5F7F4F09950F900F90DF91D8
:10015000CF910895CF93DF9300D000D0CDB7DEB715
:1001600069837A838B839C8380918804909189042E
:10017000DC01ED91FC910280F381E02D44E050E040
:10018000BE016F5F7F4F09950F900F900F900F90FA
:10019000DF91CF910895EF92FF920F931F93CF932A
:1001A000DF9380E792E00E948E0082EDE82E84E0EB
:1001B000F82ED701EC91F0E0EE0FFF1FE053FB4F5C
:1001C0000190F081E02D65817681878190850E9484
:1001D000AA00C0918804D0918904E881F981008146
:1001E0001181D701EC91F0E0EE0FFF1FE053FB4FC0
:1001F00080819181DC01ED91FC910480F581E02DFD
:100200000995682FCE01F801DF91CF911F910F91D1
:10021000FF90EF900994CF92DF92EF92FF92CF93ED
:10022000DF93EC016A017B01E889F98982E0808330
:10023000C11481EED806E104F104A1F060E079E098
:100240008DE390E0A70196010E94272A21503109F1
:10025000410951095695479537952795211580E114
:10026000380798F0E889F989108260E874E88EE12F
:1002700090E0A70196010E94272A215031094109E7
:1002800051095695479537952795EC85FD8530831F
:10029000EE85FF852083188EEC89FD8986E08083BA
:1002A000EA89FB89808180618083EA89FB8980817A
:1002B00088608083EA89FB89808180688083EA89FD
:1002C000FB8980818F7D8083DF91CF91FF90EF90BC
:1002D000DF90CF900895E8E8F4E013A212A215A2EF
:1002E00014A217A216A211A610A613A612A615A64E
:1002F00014A617A616A613AA14AA15AA16AA11A21E
:1003000011AA12AA13AE17AA10AE11AE12AE10AAFD
:100310000895E8E8F4E0858D968DB0E0A0E020A98E
:1003200004C0880F991FAA1FBB1F2A95D2F747A99F
:1003300050AD61AD72AD840F951FA61FB71F87AB7F
:1003400090AFA1AFB2AF682F792F8A2F9B2F08955E
:10035000CF93DF9380E092E00E948E00CFECD4E058
:10036000E881F0E0EE0FFF1FE353FB4F0190F081B7
:10037000E02D65817681878190850E94AA00809119
:10038000880490918904E881F0E0EE0FFF1FE353A9
:10039000FB4F0190F081E02DA5A1B6A1EC01E88111
:1003A000F9810190F081E02D6C91DF91CF9109945A
:1003B000CF93DF9300D000D0CDB7DEB769837A83C7
:1003C0008B839C838091880490918904DC01ED915A
:1003D000FC910280F381E02D44E050E0BE016F5FAC
:1003E0007F4F09950F900F900F900F90DF91CF9155
:1003F0000895CF93DF93E091A004F091A10430978A
:1004000009F485C0EC018091C4049091C504A091C9
:10041000C604B091C704AC01BD014F5F5F4F6F4F81
:100420007F4F4093C4045093C5046093C6047093F7
:10043000C70409958E3108F04BC08093B904CE01F2
:100440000E948E008091880490918904DC01ED91D6
:10045000FC910190F081E02D6091B90409958091A3
:10046000B904882309F453C0E091A004F091A104D9
:100470008091C4049091C504A091C604B091C704B2
:10048000AC01BD014F5F5F4F6F4F7F4F4093C4047E
:100490005093C5046093C6047093C7040995282F30
:1004A00030E03093A6042093A504A0918804B09175
:1004B0008904ED91FC9111970190F081E02D682F56
:1004C000CD0109958091B90481508093B904C7CFBB
:1004D0001092B904E0919E04F0919F04309709F4C2
:1004E000AECF8091C4049091C504A091C604B09190
:1004F000C7040197A109B1098093C4049093C5046E
:10050000A093C604B093C70460E0099598CFDF912B
:10051000CF910895833081F028F4813099F08230B2
:10052000A9F008958730A9F08830C9F08430B1F47B
:10053000809180008F7D03C0809180008F778093B1
:100540008000089584B58F7784BD089584B58F7D2C
:10055000FBCF8091B0008F778093B0000895809199
:10056000B0008F7DF9CFCF93DF93282F30E0F901D2
:10057000E358FF4F8491F901EF56FF4FD491F901F1
:10058000E155FF4FC491CC23A1F081110E948A0252
:10059000EC2FF0E0EE0FFF1FED58FF4FA591B49147
:1005A000EC91ED2381E090E009F480E0DF91CF91C0
:1005B000089580E090E0FACF1F93CF93DF93282F28
:1005C00030E0F901E358FF4F8491F901EF56FF4FF6
:1005D000D491F901E155FF4FC491CC23A9F0162F16
:1005E00081110E948A02EC2FF0E0EE0FFF1FEB5505
:1005F000FF4FA591B4918FB7F894EC91111108C0F9
:10060000D095DE23DC938FBFDF91CF911F910895AA
:10061000DE2BF8CFCF93DF9390E0FC01EF56FF4F36
:10062000249181559F4FFC0184918823D1F090E063
:10063000880F991FFC01E759FF4FA591B491FC0168
:10064000EB55FF4FC591D49161110EC09FB7F8943F
:100650008C91E22FE0958E238C932881E223E8830E
:100660009FBFDF91CF9108958FB7F894EC91E22B63
:10067000EC938FBFF6CF1F93CF93DF93182FEB012F
:1006800061E00E940A03209739F460E0812FDF9136
:10069000CF911F910C94DC02CF3FD10511F461E0A2
:1006A000F5CFE12FF0E0E358FF4FE491E33031F173
:1006B00040F4E130B1F0E230E1F0C038D1057CF730
:1006C000E4CFE73029F1E83059F1E430B1F7809117
:1006D0008000806280938000D0938B00C0938A005A
:1006E00004C084B5806884BDC7BDDF91CF911F91E0
:1006F000089584B5806284BDC8BDF7CF8091800025
:10070000806880938000D0938900C0938800EDCFEB
:100710008091B00080688093B000C093B300E5CFB3
:100720008091B00080628093B000C093B400DDCFB0
:100730008E3008F08E508770806480937C008091AA
:100740007A00806480937A0080917A0086FDFCCFE5
:10075000809178009091790008953FB7F894809146
:10076000BF029091C002A091C102B091C20226B511
:10077000A89B05C02F3F19F00196A11DB11D3FBFD9
:10078000BA2FA92F982F8827BC01CD01620F711DA8
:10079000811D911D42E0660F771F881F991F4A95A2
:1007A000D1F708952FB7F8946091BB027091BC0205
:1007B0008091BD029091BE022FBF089581E0809389
:1007C000300208950E94D2036C507E4F8F4F9F4F8E
:1007D0006093B4027093B5028093B6029093B7020F
:1007E0008091B8028F5F8093B8020895CF93DF9312
:1007F000CDB7DEB7C159D1090FB6F894DEBF0FBE31
:10080000CDBF382F81E9EAE8F1E0DE0111960190D1
:100810000D928A95E1F7DE01AD56BF4FE1E98E9169
:100820008C3511F0E150D9F7EF5F80E98E1B41E084
:1008300050E04C0F5D1F4E0F511DFA01232FA32FC7
:10084000B92F9A2F921B981718F491919D93F9CF75
:10085000CF56DF4F0FB6F894DEBF0FBECDBFDF918E
:10086000CF910895CF93DF93CDB7DEB72C970FB616
:10087000F894DEBF0FBECDBF2CE0EBE1F2E0DE016D
:10088000119601900D922A95E1F7FE0131969C0197
:10089000255F3F4F4191DC014D93CD01A217B30776
:1008A000C9F78BE02C960FB6F894DEBF0FBECDBF14
:1008B000DF91CF910895CF93DF93CDB7DEB729971E
:1008C0000FB6F894DEBF0FBECDBF29E0E7E2F2E03D
:1008D000DE01119601900D922A95E1F7FE01319605
:1008E0009C01285F3F4F4191DC014D93CD01A21740
:1008F000B307C9F788E029960FB6F894DEBF0FBE9C
:10090000CDBFDF91CF910895CF92DF92EF92FF920A
:1009100085E10E949803BC01990F880B990B0E94F6
:10092000AC2720E030EC4FE754E40E94662920E039
:1009300030E048EC52E40E940B286B017C0120E07F
:1009400030E0A9010E940E2A20E030E040E05FE3A1
:1009500087FD10C0C701B6010E94FA280E94D8295D
:100960000E94AC270E94DF29862FFF90EF90DF9036
:10097000CF900895C701B6010E94F928EFCF0895DE
:100980009091000189130BC0E8E6F0E0E4919FEF3D
:1009900090930001E13049F028F0E23061F060E02E
:1009A0000C94DC0210926E00FACF90916F009D7F44
:1009B00090936F00F4CF909170009D7F90937000A2
:1009C00091E09093B0009091B100987F94609093E3
:1009D000B1001092B300E3CF4F925F926F927F927B
:1009E0008F929F92AF92BF92CF92DF92EF92FF923F
:1009F0000F931F93CF93DF9300D000D01F92CDB7FA
:100A0000DEB78B0129013A01909100018917C9F0E5
:100A10009F3F09F47EC00F900F900F900F900F90A2
:100A2000DF91CF911F910F91FF90EF90DF90CF90CA
:100A3000BF90AF909F908F907F906F905F904F90FE
:100A40000895E8E6F0E094919D8397FDE4CF61E09E
:100A50000E940A038D81882321F09D81923009F044
:100A60004AC14801B12CA12C60E072E18AE790E014
:100A7000A50198010E94492A29833A834B835C830C
:100A800069017A0181E0C81AD108E108F1089FEFF5
:100A9000C916D104E104F10409F00CF401C160E4C9
:100AA00072E48FE090E0A50198010E94492A690153
:100AB0007A0181E0C81AD108E108F1089D819230DD
:100AC00009F0A2C08FEFC816D104E104F10409F0C7
:100AD0000CF4E6C160E970ED83E090E0A5019801B7
:100AE0000E94492A69017A0191E0C91AD108E108F6
:100AF000F1088FEFC816D104E104F10411F00CF0F5
:100B00007FC183E09091B100987F892B8093B100E1
:100B1000CFC080930001E8E6F0E094919D839F3F71
:100B200009F479CF913041F150F0923009F446C088
:100B30009D8197FD70CF61E00E940A038ECF14BCA7
:100B400015BC94B5926094BD95B5916095BD282F64
:100B500030E0F901E155FF4FE491F0E0EE0FFF1FA7
:100B6000EB55FF4F45915491F901EF56FF4FE4913A
:100B7000E093A4021D826BCF10928000109281003E
:100B80009091810098609093810090918100916094
:100B900090938100282F30E0F901E155FF4FE49157
:100BA000F0E0EE0FFF1FEB55FF4F45915491F90117
:100BB000EF56FF4FE491E093A30249CF1092B000AB
:100BC0001092B1009091B00092609093B00090911B
:100BD000B10091609093B100282F30E0F901E15508
:100BE000FF4FE491F0E0EE0FFF1FEB55FF4F4591F3
:100BF00054915093AE024093AD02F901EF56FF4F6E
:100C0000E491E093AF0223CF9FEFC916D104E10432
:100C1000F10409F00CF46DC068E478EE81E090E036
:100C2000A50198010E94492A69017A0181E0C81A48
:100C3000D108E108F1089D81992309F4FAC08FEFEA
:100C4000C816D104E104F10411F00CF0FBC0EFC0B0
:100C500064E274EF80E090E0A50194010E94492ACB
:100C600069017A0181E0C81AD108E108F10885E03C
:100C70009FEFC916D104E104F10409F008F442CF52
:100C800062E17AE780E090E0A50194010E94492AA0
:100C900069017A0181E0C81AD108E108F108E5C0CC
:100CA00081E09D8191112ECF95B5987F892B85BDCF
:100CB0002FEF3FEFA901411451046104710409F0C1
:100CC00043C09D81913009F45EC0923009F46DC03B
:100CD0009111A1CEC7BC2093A9023093AA024093E0
:100CE000AB025093AC0280916E00826080936E00E4
:100CF00092CE82E0D6CFB12CA12C60E072E18AE7DF
:100D000090E0A50198010E94492A69017A0181E0D9
:100D1000C81AD108E108F108C114D10491E0E9062C
:100D2000F10404F591E08D81813011F6809181000C
:100D3000887F892B809381002FEF3FEFA901411419
:100D4000510461047104F9F0D801AA0FBB1FA3017B
:100D500092010E94DF2828EE33E040E050E00E943C
:100D6000272AAFCF68E478EE81E090E0A5019801F2
:100D70000E94492A69017A0181E0C81AD108E10874
:100D8000F10893E0D0CFD0928900C09288002093E0
:100D9000A5023093A6024093A7025093A802809127
:100DA0006F00826080936F0036CEC092B3002093B4
:100DB000B0023093B1024093B2025093B3028091DB
:100DC000700082608093700026CE84E09FEFC91689
:100DD000D104E104F10409F008F466CFC980DA8097
:100DE000EB80FC808AE0F594E794D794C7948A95C9
:100DF000D1F781E0C81AD108E108F10885E054CFA5
:100E000068E478EE81E090E0A50198010E94492A0B
:100E100069017A0181E0C81AD108E108F1089FEF61
:100E2000C916D104E104F10411F00CF011CF84E0F3
:100E300069CE83E09FEFC916D104E104F10409F003
:100E40000CF432CF62E17AE780E090E0A5019401F2
:100E50000E94492A69017A0181E0C81AD108E10893
:100E6000F1089D81992309F4B0CF86E09FEFC91660
:100E7000D104E104F10409F008F444CEC980DA8019
:100E8000EB80FC809AE0F594E794D794C7949A9508
:100E9000D1F781E0C81AD108E108F10887E032CE25
:100EA00082E030CEAF92BF92CF92DF92EF92FF926C
:100EB0000F931F93CF93DF936C017B018B01040F82
:100EC000151FEB015E01AE18BF08C017D10759F01E
:100ED0006991D601ED91FC910190F081E02DC60160
:100EE0000995892B79F7C501DF91CF911F910F915A
:100EF000FF90EF90DF90CF90BF90AF900895FC01EE
:100F0000538D448D252F30E0842F90E0821B930B6E
:100F1000541710F0CF96089501970895FC01918D14
:100F2000828D981761F0A28DAE0FBF2FB11D5D9617
:100F30008C91928D9F5F9F73928F90E008958FEFB9
:100F40009FEF0895FC01918D828D981731F0828D6D
:100F5000E80FF11D858D90E008958FEF9FEF0895C4
:100F6000FC01918D228D892F90E0805C9F4F821B28
:100F700091098F73992708958BEE93E00E94B00733
:100F800021E0892B09F420E0822F089580E090E091
:100F9000892B29F00E94BC0781110C940000089550
:100FA000FC01A48DA80FB92FB11DA35ABF4F2C91DE
:100FB000848D90E001968F739927848FA689B789D5
:100FC0002C93A089B1898C91837080648C93938DCC
:100FD000848D981306C00288F389E02D80818F7D6F
:100FE00080830895EF92FF920F931F93CF93DF9327
:100FF000EC0181E0888F9B8D8C8D98131AC0E88955
:10100000F989808185FF15C09FB7F894EE89FF8923
:101010006083E889F98980818370806480839FBFC1
:1010200081E090E0DF91CF911F910F91FF90EF90C1
:101030000895F62E0B8D10E00F5F1F4F0F731127D1
:10104000E02E8C8D8E110CC00FB607FCFACFE8890C
:10105000F989808185FFF5CFCE010E94D007F1CFBD
:10106000EB8DEC0FFD2FF11DE35AFF4FF0829FB780
:10107000F8940B8FEA89FB8980818062CFCFCF9370
:10108000DF93EC01888D8823B9F0AA89BB89E889B0
:10109000F9898C9185FD03C0808186FD0DC00FB656
:1010A00007FCF7CF8C9185FFF2CF808185FFEDCFD4
:1010B000CE010E94D007E9CFDF91CF91089590E053
:1010C00080E0089581E090E0089580E0089580E058
:1010D0000895CF92DF92EF92FF92CF93DF93EC01CE
:1010E000CB01BA010E94AC276B017C01E881F98138
:1010F0000284F385E02DCE010995BC0190E080E0EB
:101100000E94AA279B01AC01C701B6010E94662973
:101110002E813F81488559850E9466292A813B811D
:101120004C815D810E940B28DF91CF91FF90EF9061
:10113000DF90CF900895CF92DF92EF92FF92CF93FE
:10114000DF93EC01CB01BA012A813B814C815D81A7
:101150000E9466292E813F81488559850E940B286F
:101160006B017C01E881F9810284F385E02DCE01D9
:101170000995BC0190E080E00E94AA27A701960192
:101180000E940B280E94D829DF91CF91FF90EF9009
:10119000DF90CF900895DC019D968D919C91DC01AC
:1011A000ED91FC910484F585E02D0994DC019D9678
:1011B0008D919C91DC01ED91FC910284F385E02DF1
:1011C0000994DC019D968D919C91DC01ED91FC913F
:1011D0000084F185E02D0994DC019D968D919C9110
:1011E000DC01ED91FC910680F781E02D0994DC0192
:1011F0009D968D919C91DC01ED91FC910480F5818F
:10120000E02D0994DC019D968D919C91DC01ED917E
:10121000FC910280F381E02D0994CF92DF92EF924E
:10122000FF92CF93DF93EC016A017B010E949B0840
:101230009B01AC0160E472E48FE090E00E94272AF9
:101240003AAB29AB8FA598A98217930720F438AB46
:101250002FA71EAA1DAACE86DF86E88AF98ADF910B
:10126000CF91FF90EF90DF90CF900895CF93DF93D1
:10127000EC0189A99AA9892B39F44E855F85688983
:101280007989CE010E940D0929A93AA950E040E0D0
:1012900060E472E48FE090E00E94492ABA01A9015B
:1012A000CE010E9469086E877F87888B998BDF91BA
:1012B000CF910895CF92DF92EF92FF92CF93DF9379
:1012C000EC016A017B010E949B089B01AC0160E478
:1012D00072E48FE090E00E94272A38AB2FA789A9FB
:1012E0009AA92817390720F43AAB29AB1EAA1DAAE0
:1012F000CA86DB86EC86FD86DF91CF91FF90EF906A
:10130000DF90CF900895CF93DF93EC018FA598A93C
:10131000892B39F44A855B856C857D85CE010E94D9
:101320005A092FA538A950E040E060E472E48FE04C
:1013300090E00E94492ABA01A901CE010E946908E1
:101340006A877B878C879D87DF91CF9108956F9205
:101350007F928F929F92AF92BF92CF92DF92EF9245
:10136000FF920F931F93CF93DF93EC016A017B01F0
:101370008FA598A9892B39F44A855B856C857D8575
:10138000CE010E945A0989A99AA9892B39F44E8560
:101390005F8568897989CE010E940D09CE010E947E
:1013A00083094B015C01CE010E9436090FA518A9E3
:1013B00069A87AA8A50194010E94F92820E034E2E6
:1013C00044E759E40E940B28A70196010E94662970
:1013D0004B015C01B801660D771D7695679590E02D
:1013E00080E00E94AA279B01AC01C501B4010E94C4
:1013F00066290E94DF2990E080E00E94AA274B0125
:101400005C01B8016619770990E080E00E94AA2784
:10141000A50194010E9466294B015C0120E030E0A7
:10142000A9010E940E2A20E030E040E05FE387FD42
:101430001FC0C501B4010E94FA280E94D829272F95
:1014400060167106D0F06DAB7EABCA8ADB8AEC8A7F
:10145000FD8ADF91CF911F910F91FF90EF90DF9068
:10146000CF90BF90AF909F908F907F906F90089596
:10147000C501B4010E94F928E0CF862F922F009772
:1014800011F481E090E09EAB8DABDFCF0F931F9303
:10149000CF93DF93EC01E881F9810280F381E02DA5
:1014A0000995FE01FF9610821182128213828FA984
:1014B00098ADA9ADBAAD8BAF9CAFADAFBEAF0E943A
:1014C000AD03FE01E75BFF4FCB5BDF4F0881198166
:1014D0002A813B81DC01CB01800F911FA21FB31F2A
:1014E00080839183A283B383DF91CF911F910F916A
:1014F00008958F929F92AF92BF92CF92DF92EF9218
:10150000FF920F931F93CF93DF93FC01E35BFF4F99
:101510006A017B01C082D182E282F382FC0120A1B8
:101520002111F4C08B017A01EC01A1A0B2A0C3A0EB
:10153000D4A09A01AB01B501C6010E940E2A18166B
:1015400014F457016801EDA0FEA00FA118A59501A4
:10155000A601B701C8010E94A52787FF02C0750137
:101560008601A701B801CE010E949B086BAF7CAF3A
:101570008DAF9EAFC701D80189A79AA7ABA7BCA71B
:101580008E01015C1F4FF80180819181A281B3819E
:10159000892B8A2B8B2B19F0CE010E94460A4FA96A
:1015A00058AD69AD7AAD8BAD9CADADADBEAD481754
:1015B00059076A077B0709F4A9C08FA598A9892B49
:1015C00039F44A855B856C857D85CE010E945A0978
:1015D00089A99AA9892B39F44E855F85688979890B
:1015E000CE010E940D0989A99AA92FA538A98217B1
:1015F000930748F4892B39F44A895B896C897D8982
:10160000CE010E94A709E881F9810680F781E02DCB
:101610006E8DCBACDCACEDACFEAC8FA998ADA9ADBA
:10162000BAAD8C159D05AE05BF050CF07CC081E000
:101630008F8FCE010995E881F9810190F081E02D2D
:10164000CE0109957E01F9E4EF0EF11CF7018081CE
:101650009181A281B381892B8A2B8B2B51F10E941E
:10166000AD03F70180809180A280B3806815790571
:101670008A059B05F0F40E94AD03F70180809180FC
:10168000A280B3803497C080D180E280F380DC01F7
:10169000CB0188199909AA09BB09C816D906EA0617
:1016A000FB0610F4D701C601F80180839183A28361
:1016B000B383FE01ED5BFF4F20813181F801808112
:1016C0009181A281B381820F931FA11DB11D8083DF
:1016D0009183A283B3830E94AD03AB01BC012BA90C
:1016E0003CA9F80180819181A281B381820F931F6F
:1016F000A11DB11D840F951FA61FB71F8083918365
:10170000A283B3838FA598A99CAB8BABDF91CF91BC
:101710001F910F91FF90EF90DF90CF90BF90AF900F
:101720009F908F9008951F8E81E0682782CF61E09F
:10173000FC0185810C94DC02FC01828D938D08955F
:10174000653C29E0720790F024EC39E0DC015B96FF
:101750003C932E935A97DC0158966D917C91599742
:10176000ED91FC910288F389E02D0994FC01738FBF
:10177000628FF1CFDC015C96EC91EB3090F4F0E0FD
:10178000EC53F44F0C94682ACF0BCF0BD30BD30B35
:10179000D60BD90BDC0BDF0BE20BE50BE80B21E0E2
:1017A00030E0C901089522E030E0FBCF24E030E0D2
:1017B000F8CF28E030E0F5CF20E130E0F2CF20E2B2
:1017C00030E0EFCF20E430E0ECCF20E830E0E9CFAC
:1017D00020E031E0E6CFFC01238925FF05C0221F70
:1017E0002227221F822F089586810E94B30221E0C2
:1017F000892BC1F720E0F6CF089560E070E080E823
:101800009FE308950895FC0185896FEF70E0681BE0
:101810007109072E000C880B990B0E94AC2720E061
:1018200030E04FE753E40E9466290895CF93DF9399
:10183000EC01CB01BA0120E030E04FE753E40E9415
:101840000B280E94DF2960956D8B8C8980FF06C074
:1018500070E08A89DF91CF910C943B03DF91CF91A7
:101860000895DC011396ED91FC9180810895CF924B
:10187000DF92EF92FF920F931F93CF93DF93EC01D0
:10188000EB81FC81008110E0EE24E394F12C89854A
:10189000181728F5C12ED12CFE01EC0DFD1D8285F7
:1018A0000E94B302EB81FC819701012E01C0220F3F
:1018B0000A94EAF7322F3095208123232083EB818D
:1018C000FC8121E030E0892B09F020E001C0220FEB
:1018D000CA94EAF78081282B20831F5FD8CF0E940B
:1018E000AD036D837E838F839887EB81FC8181E0DC
:1018F0009081901301C080E0DF91CF911F910F91F3
:10190000FF90EF90DF90CF900895CF93DF93EC019D
:101910006B81617089810E94DC026B8162708A81B7
:10192000DF91CF910C94DC0220915802260F3327CF
:10193000331F21323105ECF420917C02FC0190E050
:1019400080E0243069F082E00895A091580221914E
:10195000AC01485C5D4FA40FB52FB11D2C930196CF
:10196000861798F380915802680F6093580280E0C0
:10197000089581E008958FEF9FEF08958FEF9FEF17
:1019800008958091310290E0919581959109089593
:10199000CF93DF93CB01EA01642F0E94940CCE0118
:1019A000DF91CF910895CF93DF931F92CDB7DEB72C
:1019B000698361E0CE0101960E94940C81E090E081
:1019C0000F90DF91CF91089590E080E008958EBD53
:1019D00000000DB407FEFDCF8EB50895CF92DF92C3
:1019E000EF92FF920F931F93CF93DF93EC016A0165
:1019F0007B010AA51BA501151105D9F0AB019601C4
:101A000060E070E080E89FE30E94F928AB01BC0130
:101A1000D801ED91FC910480F581E02D2EA5C8013F
:101A2000DF91CF911F910F91FF90EF90DF90CF90BA
:101A300009940CA4DDA5C02D2097C1F0688170E049
:101A400090E080E00E94AA27A70196010E940B283F
:101A50000E94DF296B83CE01DF91CF911F910F91FF
:101A6000FF90EF90DF90CF900C94850CDF91CF9199
:101A70001F910F91FF90EF90DF90CF900895DC01C0
:101A8000EC91B4E0EB9FF0011124E80FF91F2381E2
:101A9000348161817281FC0181A550E040E02F3FDB
:101AA000320719F420E030E0A9010C94EC04DC01C9
:101AB000ED91FC910190F081E02D0994DC01ED9114
:101AC000FC910280F381E02D09948F929F92AF9256
:101AD000BF92CF92DF92EF92FF920F931F93CF931B
:101AE000DF93EC018A890E9498039C838B830E9478
:101AF000AD036D837E838F8398870E94D2030B8111
:101B00001C814C855D85288939894017510760F40F
:101B100021153105A9F0CB8CDC8CED8CFE8CC61622
:101B2000D706E806F90660F41D870C876B017C0177
:101B3000C20ED31EE11CF11CCB8EDC8EED8EFE8E10
:101B40004E855F850417150760F42115310599F05E
:101B5000CF8CD8A0E9A0FAA0C616D706E806F906E9
:101B600050F41F870E87620F731F811D911D6F8FA9
:101B700078A389A39AA3CC84DD84EE84FF84EC1837
:101B8000FD0889858823D1F0B70190E080E00E94AC
:101B9000AA272D893E894F89588D0E940B284B0119
:101BA0005C01B60190E080E00E94AA27A5019401A3
:101BB0000E94FA280E94DF297A8F698F8A859B8587
:101BC000E816F90648F0298D3A8D8981882331F08D
:101BD00081E00217130730F480E004C081E00217AF
:101BE0001307D0F748818883EDA1FEA19A8121E0F7
:101BF00030E001C0220F9A95EAF7209590812923C1
:101C00002083EDA1FEA128819A8101C0220F9A951F
:101C1000EAF79081292B20838427DF91CF911F91B0
:101C20000F91FF90EF90DF90CF90BF90AF909F907B
:101C30008F900895EF92FF920F931F93DC011896F7
:101C40008C911897882381F0489FA0011124452F7B
:101C5000829F90011124232F809F80011124012F46
:101C60008E9D70011124EF2C1E968C911E97199653
:101C7000ED91FC911A971B969C911B97891320C09C
:101C8000CB01880F991F680F791F6E0F7F1F1B965E
:101C9000EC911B97E60FF72FF11D40831C96EC91FA
:101CA0001C97E60FF72FF11D20831D968C91680F6E
:101CB000711DFB0100831F910F91FF90EF9008951C
:101CC000660F771F660F771F6E0F7F1FFB01E80FF0
:101CD000F11DE082DCCFCF92DF92EF92FF920F9363
:101CE0001F93CF93DF93CDB7DEB729970FB6F89444
:101CF000DEBF0FBECDBF8C010E94AD03D8011F9681
:101D0000CD90DD90ED90FC9052976C157D058E0581
:101D10009F0528F4F8016787708B818B928BD8011F
:101D20001F96CD90DD90ED90FC9052976C197D0937
:101D30008E099F096C32714081059105E8F2F89493
:101D4000F801848195819A8389830184F285E02D4D
:101D50007F012FEFE21AF20A80818F83D8019C91D4
:101D60005396ED91FC91549755968C91992309F4D3
:101D700048C09081982B9887908180958923898786
:101D800089858B8388E08C83588569854F813C8168
:101D90002B8189819A81D701508347FD252F3A9560
:101DA0002083262F39F0441F00C00000608300000C
:101DB00000C0F2CF38E04D9160830000019761F7D9
:101DC000D8015496FC93EE9353974F833C832B8317
:101DD0009A83898378940E94AD03F8016787708B9A
:101DE000818B928B29960FB6F894DEBF0FBECDBFC4
:101DF000DF91CF911F910F91FF90EF90DF90CF90E7
:101E000008959081982B9887908180958923898760
:101E100089858D8388E08E83588569854F813E81D1
:101E20002D8189819A81D701508347FD252F00C0DC
:101E300000C0208300C000C000C000C000C060839C
:101E40000000262F3A9541F0441F000000C000C05A
:101E500000C000C000C0E8CF38E04D9100C06083F2
:101E600000C0019709F7D8015496FC93EE9353975D
:101E70004F833E832D83ACCFEF920F931F93CF936D
:101E8000DF93EC018EA19FA1009701F510E006E021
:101E9000288130E08DA51817B8F5812F90E0029FBA
:101EA000F001039FF00D1124EC0FFD1FE80FF91F47
:101EB00061812EA5211101C0609570E08C0F9D1FDE
:101EC000FC0181A50E943B031F5FE2CF68A570E083
:101ED000FC01228133816217730768F42881FE01B7
:101EE00036E0239FE00DF11D1124E480038122815F
:101EF00041810E941A0E8EA19FA1FC01218532858D
:101F0000232B11F00E946B0E888116E0FE01189FB2
:101F1000E00DF11D112485819681019691F00E94BA
:101F2000D2032881FE01129FE00DF11D11242581AD
:101F30003681620F731F811D911D6FA778AB89AB2E
:101F40009AAB81E08DA3DF91CF911F910F91EF901C
:101F50000895EF920F931F93CF93DF93EC018EA11F
:101F60009FA1009799F410E08DA5181730F58EA564
:101F70006FEF70E0882311F070E060E0FE01E10F88
:101F8000F11D81A50E943B031F5FEECF68A570E0A5
:101F9000FC01228133816217730730F4E12C00E0E9
:101FA00020E040E00E941A0E8EA19FA1FC01218535
:101FB0003285232B11F00E946B0E1FA618AA19AAB6
:101FC0001AAA1DA2DF91CF911F910F91EF90089552
:101FD000CF92DF92EF92FF921092590389E593E03E
:101FE0000E943C0F82E393E00E94650D80913203D2
:101FF000882341F180E090E0A4EBB2EC8093E8020A
:102000009093E902A093EA02B093EB026C017D0188
:1020100040910501509106016091070170910801FE
:1020200083EC92E00E940D09B701A60183EC92E0D7
:102030000E94790A81E08093E302FF90EF90DF90A5
:10204000CF90089580E090E0A4EBB2E48093E402A6
:102050009093E502A093E602B093E702D7CF85E024
:102060008093590389E593E00E943C0F4091E80278
:102070005091E9026091EA027091EB0283EC92E0E8
:102080000C94790A82E08093590389E593E00E94D9
:102090003C0F4091E4025091E5026091E60270919C
:1020A000E70283EC92E00E94790A80918A048823F7
:1020B00041F08DE390E00E948E000E94AD030C94ED
:1020C000AA00089560E0FC0185810E94DC0284E59D
:1020D0008CBD81E08DBD08950F931F93CF93DF9347
:1020E0008C01C62FD42F0E9462108C2F880F0E9463
:1020F000E70CC82F8D2F0E94E70CD82FC8010E9433
:10210000970BF8018481CF73C82BC4838D2FDF9187
:10211000CF911F910F9108950F931F93CF93DF934A
:10212000EC01AA8DBB8DA617B70770F5B98FA88FE4
:10213000088D198D84E0000F111F8A95E1F7288919
:1021400030E00E94EA282FEF30E040E050E00E94AB
:10215000272AC801B9010E94132A6623C1F0613100
:1021600008F060E149894F7080E1861B20E1829F81
:10217000C0011124482B498B63E0CE01DF91CF9140
:102180001F910F910C946C10798F688FD1CF61E003
:10219000E9CFFC01438945FF06C060FB47F9438B4B
:1021A00065E00C946C1086810C94DC02FC012585A2
:1021B00022FF04C060E080850C94DC0242894F77E6
:1021C000428B64E00C946C10CF93DF93EC014A894E
:1021D00047FD05C040684A8B64E00E946C108D8505
:1021E00082FF06C061E08885DF91CF910C94DC020C
:1021F000DF91CF9108951F93CF93DF93EC0161E0BE
:102200008D810E940A0361E08D810E94DC028C8531
:1022100083FF12C061E089850E940A0361E089851D
:102220000E94DC028C8588608C878D8588608D8714
:102230008BEB92E10197F1F71FB7F8948091A2021E
:10224000811127C0E9EBF0E08491EBE9F0E0949193
:10225000E82FF0E0EE0FFF1FE759FF4FA591B49173
:10226000EC91E92321F461E08AE00E94DC0261E064
:102270008AE00E940A038CB580618CBD8CB58064B5
:102280008CBD61E08DE00E940A0361E08BE00E945A
:102290000A038091A2028F5F8093A2021FBF198A56
:1022A0008FE08A8B80E38B8B8C8B88E08D8B83E037
:1022B0008E8B80E28F8B40E063E0CE010E946C1039
:1022C0004A8964E0CE010E946C104B8965E0CE0122
:1022D0000E946C104C8966E0CE010E946C104D8902
:1022E00067E0CE010E946C104E8968E0CE010E942A
:1022F0006C104F8969E0CE010E946C108C8582FDC4
:1023000004C095E0988784608C878C8582FF15C017
:1023100061E088850E940A0360E088850E94DC02F3
:102320008C8584608C878D8584608D874A89406820
:102330004A8B64E0CE010E946C108C8581FD04C044
:1023400096E09E8382608C878C8581FF15C061E05A
:102350008E810E940A0360E08E810E94DC028C85DF
:1023600082608C878D8582608D874B894F7D4B8BFA
:1023700065E0CE010E946C108C8580FD04C097E062
:102380009F8381608C878C8580FF15C061E08F8181
:102390000E940A0360E08F810E94DC028C858160CC
:1023A0008C878D8581608D874B894F7E4B8B65E057
:1023B000CE010E946C108C8584FD04C093E09A8746
:1023C00080618C878C8584FF0AC060E08A850E94CA
:1023D0000A038C8580618C878D8580618D8780E084
:1023E000DF91CF911F910895CF92DF92EF92FF92EC
:1023F0000F931F93CF93DF93EC012889AA8DBB8D98
:1024000030E00E94EA282FEF30E040E050E00E94E8
:10241000272A6901CE010E94621086E40E94E70C1F
:10242000082F80E00E94E70C182FCE010E94970B26
:102430008C810F73082B0C83198B812F90E024E083
:10244000959587952A95E1F720E130E0281B390B17
:102450002C9DC0012D9D900D3C9D900D112434E0CC
:10246000969587953A95E1F7DF91CF911F910F915E
:10247000FF90EF90DF90CF900895CF93DF93FC0112
:10248000438944FF07C04064438B65E0DF91CF91EF
:102490000C946C10EC0161E087810E94DC0260E02A
:1024A0008F81DF91CF910C94DC021F93CF93DF9348
:1024B000EC018B819C81892B41F481E090E00E94AA
:1024C0006E2A9C838B83FC01108210E0898518178B
:1024D00048F4FE01E10FF11D60E082850E940A03CD
:1024E0001F5FF4CF8C8980FF0FC061E08A890E9452
:1024F0000A03E881F9810680F781E02D40E050E091
:1025000060E87FE3CE0109958C8981FF0BC061E013
:102510008B890E940A038C8981FF04C061E08B894A
:102520000E94DC02E881F9810280F381E02DCE0176
:10253000099580E0DF91CF911F9108950E94932B20
:102540001F93CF93DF9385ED8093BC00809134027D
:1025500090913502A0913602B09137020796A11DE5
:10256000B11D23E0B695A795979587952A95D1F744
:102570002091BC0024FD03C010927C0252C0409107
:102580003402509135026091360270913702452B2A
:10259000462B472B69F30097A105B10541F02AE2CC
:1025A0002A95F1F700C00197A109B109E1CF809107
:1025B0003302C1E0C0933202882399F1D091B80070
:1025C0001091BA008091BC008A7B8093BC0060E0CF
:1025D00082E10E94DC0260E083E10E94DC02109252
:1025E0007C02C0937E0210927D0261E082E10E9433
:1025F000DC0261E083E10E94DC028091B9008E7F01
:102600008093B9008091B9008D7F8093B90088E4F0
:102610008093B80085E48093BC001093BA00D093F7
:10262000B800DF91CF911F9108950C94C9280C94A4
:10263000D1281F920F920FB60F9211242F933F9320
:102640008F939F93AF93BF938091BB029091BC02F5
:10265000A091BD02B091BE023091BA0223E0230FD7
:102660002D3758F50196A11DB11D2093BA02809314
:10267000BB029093BC02A093BD02B093BE028091B6
:10268000BF029091C002A091C102B091C202019616
:10269000A11DB11D8093BF029093C002A093C102FF
:1026A000B093C202BF91AF919F918F913F912F91B3
:1026B0000F900FBE0F901F90189526E8230F0296DB
:1026C000A11DB11DD2CF1F920F920FB60F921124F0
:1026D0002F933F934F935F936F937F938F939F932A
:1026E000AF93BF93EF93FF93E0910301F091040147
:1026F0000995FF91EF91BF91AF919F918F917F913C
:102700006F915F914F913F912F910F900FBE0F905E
:102710001F9018951F920F920FB60F9211242F93AE
:102720003F934F935F936F937F938F939F93AF9359
:10273000BF93EF93FF93E0910101F091020109959E
:10274000FF91EF91BF91AF919F918F917F916F9189
:102750005F914F913F912F910F900FBE0F901F905F
:1027600018951F920F920FB60F9211242F933F933B
:102770004F935F936F937F938F939F93AF93BF9389
:10278000EF93FF938091B0029091B102A091B202B9
:10279000B091B302892B8A2B8B2BD1F19091AF0290
:1027A000E091AD02F091AE02808189278083809113
:1027B000B0029091B102A091B202B091B30218168A
:1027C00019061A061B069CF48091B0029091B10282
:1027D000A091B202B091B3020197A109B10980930F
:1027E000B0029093B102A093B202B093B302FF91F2
:1027F000EF91BF91AF919F918F917F916F915F9179
:102800004F913F912F910F900FBE0F901F901895F1
:10281000809100010E94C004EACF1F920F920FB670
:102820000F9211242F933F934F935F936F937F9356
:102830008F939F93AF93BF93EF93FF938BEE93E0B0
:102840000E94D007FF91EF91BF91AF919F918F911F
:102850007F916F915F914F913F912F910F900FBE9C
:102860000F901F9018951F920F920FB60F92112480
:102870002F938F939F93EF93FF93E091FB03F0913E
:10288000FC038081E0910104F091020482FD1BC0F1
:102890009081809104048F5F8F73209105048217CB
:1028A00041F0E0910404F0E0E551FC4F958F8093F6
:1028B0000404FF91EF919F918F912F910F900FBE84
:1028C0000F901F9018958081F4CF1F920F920FB632
:1028D0000F9211242F933F934F935F936F937F93A6
:1028E0008F939F93AF93BF93EF93FF938091B90022
:1028F000887F803609F44AC0F0F5883209F4A5C013
:1029000018F5803109F499C0B8F4882309F4F5C0AA
:10291000883009F492C0FF91EF91BF91AF919F91E0
:102920008F917F916F915F914F913F912F910F9078
:102930000FBE0F901F901895883109F486C0803221
:1029400051F780937B0214C0803409F49BC040F49B
:102950008033B9F38833F9F680937B0285ECAEC0FF
:10296000803509F483C0883509F494C0883499F619
:102970000E94A012D0CF883909F48AC038F5883770
:1029800029F050F4883611F0803729F683E08093DF
:102990007C0210927A0255C0883809F479C08039D7
:1029A00019F0803809F0B7CF80917A02803208F0B0
:1029B0006FC0E0917A0281E08E0F80937A0280915D
:1029C000BB00F0E0E65AFD4F80833BC0803B39F00E
:1029D000D0F4803A09F477C0883A09F09CCF84E0BB
:1029E00080937C021092590210925802F0E0E0E0CD
:1029F00009958091580281110FC081E0809358029F
:102A00001092380209C0803C09F4A8CF883C09F430
:102A1000A5CF883B09F07FCFE091590281E08E0F6E
:102A200080935902F0E0E85CFD4F80818093BB0009
:102A3000909159028091580229C08091A1028093FF
:102A4000BB0085EC8093BC0066CF9091A002809182
:102A50009F02981758F5E091A00281E08E0F8093B5
:102A6000A002F0E0E158FD4F8081E9CFE091A002A3
:102A700081E08E0F8093A0028091BB00F0E0E158CE
:102A8000FD4F80839091A00280919F029817C8F219
:102A900085E8D8CFE091A00281E08E0F8093A0025C
:102AA0008091BB00F0E0E158FD4F808380917E0271
:102AB00081115ECF81E080937D0284EA8093BC0027
:102AC00010927C0228CF85EC8093BC0010927C028F
:102AD00080917A02803230F4E0917A02F0E0E65A96
:102AE000FD4F108260917A0270E08AE592E0F0E09A
:102AF000E0E0099510927A020ECF10927B0238CF57
:102B0000CF93DF93CDB7DEB76C970FB6F894DEBFE7
:102B10000FBECDBF1092EE031092ED0388EE93E04E
:102B2000A0E0B0E08093EF039093F003A093F10353
:102B3000B093F20386E291E09093EC038093EB0371
:102B400085EC90E09093F8038093F70384EC90E099
:102B50009093FA038093F90380EC90E09093FC0348
:102B60008093FB0381EC90E09093FE038093FD0340
:102B700082EC90E0909300048093FF0386EC90E059
:102B800090930204809301041092040410920504AF
:102B900010920604109207048BEE93E09093890440
:102BA0008093880410928A048AEF90E090938C04BA
:102BB00080938B0480E197E2A0E0B0E080938D04E5
:102BC00090938E04A0938F04B09390041092950478
:102BD00010929704109296041092990410929804FF
:102BE00010929B0410929A0410929D0410929C04DF
:102BF00010929F0410929E041092A1041092A004BF
:102C00001092A3041092A2041092CC041092CF044C
:102C10001092D2041092D3041092D5041092D404CE
:102C20001092D9041092D8041092DB041092DA04A6
:102C300081E08093A40492E09093E7038093EA03F9
:102C400024E02093E8032FE02093E9031092B803D7
:102C50002EE02093E1031092E3031092E20310921E
:102C6000E60327EE33E03093E5032093E40310926C
:102C7000A4031092A6031092A5039093AB032AE03D
:102C80002093B4031092B70320E12093AC0321E119
:102C90002093AD032091B60321602093B60322E672
:102CA00031E03093A3032093A20310928D0310927E
:102CB000940310929B0310929C0310929D03109218
:102CC0009E0380939A0380939703109298039093A6
:102CD000990380938C0383E090E090939103809319
:102CE00090030E946E2A9093960380939503009719
:102CF00009F4F9C023E0FC0111922A95E9F781E07B
:102D000090E090938F0380938E0389E090E09093FE
:102D100093038093920380918D03882341F061E0B7
:102D200089E00E940A0360E089E00E94DC02E8EB8F
:102D3000F0E0E491F0E0EE0FFF1FEB55FF4F8591BF
:102D400094919093A00380939F03EAE9F0E0E491CB
:102D5000E093A103109259038CE893E090938003D1
:102D600080937F031092810381E080938703809397
:102D700033031092340380933B0384E690E09093F6
:102D80003D0380933C0310923F0310923E038FEF6C
:102D90009FEF909341038093400380E395E79093E6
:102DA00043038093420382E1809344038FEF809337
:102DB00045038093460340E050E060E07FE34093AA
:102DC0004703509348036093490370934A0328EEE6
:102DD00033E030935603209355031092580310921A
:102DE000570328E431E03093160320931503109223
:102DF00018031092170398E090931A038093250309
:102E000084EF91E090932E0380932D0384EC99E05E
:102E10009093300380932F031092310384E193E069
:102E200090932403809323038CE1EEE6F1E0DE012E
:102E3000119601900D928A95E1F788E391E09093C5
:102E4000C4028093C3021092E30280E090E0A6E9FE
:102E5000B2E48093E4029093E502A093E602B0937B
:102E6000E7021092E8021092E9021092EA02109230
:102E7000EB021092EC021092ED021092EE02109210
:102E8000EF021092020310920303109204031092B7
:102E9000050388E893E1909307038093060380E994
:102EA00090EDA3E0B0E08093080390930903A09312
:102EB0000A03B0930B0385E193E09093F1028093B2
:102EC000F0028CE1FE013196A5ECB2E001900D928A
:102ED0008A95E1F76C960FB6F894DEBF0FBECDBFB2
:102EE000DF91CF9108951092910310929003109268
:102EF0008F0310928E0309CFCF93DF93CDB7DEB748
:102F0000EA970FB6F894DEBF0FBECDBF789484B5B4
:102F1000826084BD84B5816084BD85B5826085BDD5
:102F200085B5816085BD80916E00816080936E0063
:102F30001092810080918100826080938100809155
:102F40008100816080938100809180008160809306
:102F500080008091B10084608093B1008091B000C6
:102F600081608093B00080917A00846080937A00C1
:102F700080917A00826080937A0080917A008160EB
:102F800080937A0080917A00806880937A00109212
:102F9000C10086EF93E0909397048093960482E3B8
:102FA00094E090939904809398048BE594E0909337
:102FB0009B0480939A0484E894E090939D0480930A
:102FC0009C0487E193E190939F0480939E0485E1A4
:102FD00093E19093A1048093A00488EE9FE09093E6
:102FE000D9048093D8048FE290E19093DB0480931E
:102FF000DA0482E490E19093D5048093D40482EAC9
:1030000093E09093D1048093D00488EB93E0909365
:10301000C9048093C80485E193E09093DD04809314
:10302000DC0483EC92E09093D7048093D60482E38F
:1030300093E09093CE048093CD0489E593E0909340
:10304000CB048093CA0440E052EC61E070E08091D0
:103050008804909189040E940B0183E290E00E9411
:103060008E0060E084E10E940A0384E10E949803DC
:103070008091570390915803892B51F481E090E09F
:103080000E946E2A9093580380935703DC011C9290
:1030900060E0809144030E940A030E94D2032091C1
:1030A000550330915603DC01CB01820F931FA11D04
:1030B000B11D80934D0390934E03A0934F03B093A3
:1030C00050038093510390935203A0935303B09302
:1030D00054038AE090E090933D0380933C0360E0CA
:1030E00082E00E940A0382EE93E0909302018093B3
:1030F0000101809169008C7F826080936900E89A69
:1031000000917F03109180030115110579F410E0FF
:10311000809186031817D8F4E12FF0E0E75AFC4FAE
:1031200061E081A50E940A031F5FF2CFF80186814A
:10313000978197FD09C061E00E940A0360E0D80111
:1031400016968C910E94DC0281E0F801818389E56A
:1031500093E00E94A90F82E1E0E1F1E0DE01119627
:1031600001900D928A95E1F7E9E5F3E080E006E948
:1031700010E026E030E0482F50E0DA01AA0FBB1F34
:10318000A40FB51F41E050E04C0F5D1FA40FB51F09
:1031900012969C91129711964C9111975C915183C4
:1031A00042839383168305838F5F90E0B9010E9469
:1031B000132A369653E0ED37F507E9F685E080935C
:1031C000590382EA93E00E94551246E656E666E607
:1031D0007FE382EA93E00E94160C61E08091E103B4
:1031E0000E940A0360E08091E1030E94DC0280916A
:1031F000E2039091E303009739F0DC01ED91FC913B
:103200000190F081E02D09950091E4031091E50310
:1032100001151105C9F061E0F80181810E940A03DE
:1032200060E0D80111968C910E94DC0261E0F80107
:1032300082810E940A0360E0D80112968C910E945C
:10324000DC02C8010E94850C40E050E060E07FE3B2
:1032500088EB93E00E94EE0CE8EBF3E088EE93E05D
:1032600026E930E092838183348323838C599F4FF6
:103270003496803DB7E09B07A9F789E08093B803B7
:103280008091F0029091F102DC01ED91FC910190AE
:10329000F081E02D0995C090CD02D090CE02E09053
:1032A000CF02F090D00220E030E0A901C701B601C2
:1032B0000E94A527882331F0B701A60183EC92E094
:1032C0000E945A09C090D102D090D202E090D3025D
:1032D000F090D40220E030E0A901C701B6010E94BD
:1032E000A527882331F0B701A60183EC92E00E9464
:1032F0000D09C090D502D090D602E090D702F09090
:10330000D80220E030E0A901C701B6010E94A5273C
:10331000882331F0B701A60183EC92E00E94A7094F
:103320006091DF027091E0026115710559F08091A2
:10333000F0029091F102DC01ED91FC910288F38999
:10334000E02D099568EE73E085E193E00E94A00B03
:1033500060E971E085E193E00E948C1040912903BF
:1033600066E085E193E00E946C101092E10280E03B
:1033700090E0A0E7B2E48093E4029093E502A0938A
:10338000E602B093E70280E090E0A8ECB1EC809315
:10339000E8029093E902A093EA02B093EB028091D5
:1033A000020390910303A0910403B0910503892BBC
:1033B0008A2B8B2B21F083EC92E00E94460A10921C
:1033C000FA021092FB021092FC021092FD02C090D1
:1033D0000501D0900601E0900701F090080120E07F
:1033E00030E040E251E4C701B6010E940E2A1816EF
:1033F00034F0C12CD12CF0E2EF2EF1E4FF2EC0927C
:103400000501D0920601E0920701F0920801FE0149
:103410003A96FCABEBABAA24AA94BA2C88248394EA
:10342000912C8091880490918904DC01ED91FC91AC
:103430000084F185E02D0995892BD1F180918804D4
:1034400090918904DC01ED91FC910284F385E02DDB
:103450000995682F482F592F5093A6044093A5042F
:10346000E091AA04F091AB04309711F00C9427235B
:103470008091A90481119DC15093A8044093A70491
:1034800081E08093A9048091AA049091AB04892BD8
:1034900011F00C94F3268091A90481110C94F32669
:1034A0001092BB041092BC041092BD041092BE0492
:1034B0008091BB049091BC04A091BD04B091BE0466
:1034C000892B8A2B8B2B89F00E94D2030091BB049D
:1034D0001091BC042091BD043091BE04061717075B
:1034E0002807390710F40E946B011091B9028091EE
:1034F000E30281111CC0C0901003D0901103E09032
:103500001203F09013032091EC023091ED024091F0
:10351000EE025091EF02C701B6010E94A527882351
:1035200031F0B701A60183EC92E00E94790A809104
:10353000020390910303A0910403B0910503892B2A
:103540008A2B8B2B11F40C946A274091FA0250912C
:10355000FB026091FC027091FD028091FE0290914D
:10356000FF02A0910003B0910103481759076A07B1
:103570007B0711F00C94072783EC92E00E94460A27
:1035800081E08093B9028091E302882309F404C1A9
:103590008091B8028823B1F10E94D203C090B40296
:1035A000D090B502E090B602F090B702C616D706EA
:1035B000E806F90638F58091B802813011F00C94D4
:1035C00072274091FA025091FB026091FC027091C7
:1035D000FD0283EC92E00E94690820E030E0A9013E
:1035E0000E94A52787FD02C00C946E270E944210FE
:1035F0001092B4021092B5021092B6021092B70265
:103600001092B80282EA93E00E94370C882329F0D6
:1036100080918A0481110E94CB008091880390914F
:103620008903A0918A03B0918B03892B8A2B8B2B62
:1036300099F00E94D203C0908803D0908903E09053
:103640008A03F0908B03C616D706E806F90620F425
:1036500089E593E00E94A90F00910901002311F46C
:103660000C94762780917E03811136C0015000931F
:1036700009010093590389E593E00E943C0F0A3049
:1036800010F40093B80388EB93E00E943F0D011102
:1036900023C0B0925F03A0925E03B0926503A09234
:1036A0006403B0926B03A0926A03B0927103A0927C
:1036B0007003B0927703A0927603B0927D03A0923C
:1036C0007C0385E08093590389E593E00E94A90F6C
:1036D0008091E1030E94C00482E393E00E94650DA3
:1036E0009091E302992311F40C948727811104C06F
:1036F0008091B902811150C083EC92E00E94460A89
:103700008091020390910303A0910403B0910503FB
:10371000892B8A2B8B2B21F083EC92E00E94460AA6
:103720001092FA021092FB021092FC021092FD021B
:1037300080E090E0A8ECB1EC8093E8029093E9027D
:10374000A093EA02B093EB0220E030E040E752E4BD
:103750002093E4023093E5024093E6025093E7029F
:103760001092E302AC01BD0183EC92E00E94790A61
:1037700040E050E068E472E483EC92E00E940D09BE
:1037800080918A04882341F08CE390E00E948E00AF
:103790000E94AD030E94AA0080E090E0892B09F40A
:1037A00040CE0E94BC07882309F435CE0E94000059
:1037B00032CE742F66278091A7049091A804680FD9
:1037C000791F7093A8046093A7041092A904663629
:1037D000710509F49CC408F00EC26633710509F442
:1037E000D5C408F0C9C06E30710509F421C408F0D1
:1037F0005FC06530710509F43AC4B8F461307105F1
:1038000009F4CDC308F4C8C36230710509F4CCC310
:103810006430710509F447C481E290E00E948E0093
:103820008091A7049091A804BCC36730710509F486
:103830004BC408F461C46830710509F4CFC36C301F
:10384000710551F7DE011196EEE0F0E021E2CF01C3
:10385000019620935700E491ED93FC01449711F4F5
:10386000E5E1F0E04BA95CA9A417B50781F78DE06D
:1038700090E00E948E008091880490918904DC0180
:10388000ED91FC910190F081E02D69E00995809126
:10389000880490918904DC01ED91FC910280F38110
:1038A000E02D49E050E0BE016F5F7F4F0995EBCD01
:1038B0006831710509F47FC308F046C061317105B4
:1038C00009F4C1C390F46031710509F0A5CF90925D
:1038D000AB048092AA0482E08093B90484E090E073
:1038E0009093AD048093AC0421C56231710509F455
:1038F000BBC36631710509F08FCFE0919604F0915A
:103900009704309709F4C7CDCE0101960995182F79
:1039100085E190E00E948E00809188049091890456
:10392000DC01ED91FC910190F081E02D612F099572
:10393000412F50E0BE016F5F7F4F809188049091CE
:1039400089040E945E0D9FCD6333710509F429C47B
:1039500008F099CD6A31710509F43BC362337105F2
:1039600009F05ACF83E390E00E948E006091D30467
:1039700070E06F5F7F4F57C56834710509F4F3C578
:1039800008F05EC06134710509F4A7C530F56B33EA
:10399000710509F497C528F46733710509F473CDEF
:1039A0003BCF6F33710509F4A2C56034710509F08E
:1039B00033CF8091D6049091D704892B09F46BCD35
:1039C00081E490E00E948E00E091D604F091D7044B
:1039D00061A572A583A594A546C46534710509F453
:1039E000A3C5E0F46234710509F486C56434710539
:1039F00009F012CF8091D6049091D704892B09F455
:103A00004ACD85E490E00E948E00E091D604F091CA
:103A1000D70465A176A187A190A525C46634710558
:103A200009F48CC56734710509F0F6CE9092AB04A9
:103A30008092AA0482E08093B90480E390E050CFA2
:103A40006335710509F4C3C508F0AFC06035710571
:103A500009F49CC570F46934710509F0DDCE9092CB
:103A6000AB048092AA0482E08093B90481E390E0E1
:103A700037CF6135710509F49CC56235710509F0D0
:103A8000CBCE8091D6049091D704892B09F403CD35
:103A900083E590E00E948E000091D6041091D70437
:103AA000D8019F968D919C91D097892B49F41A96B5
:103AB0004D915D916D917C911D97C8010E945A09AD
:103AC000F80181A992A9892B39F446855785608927
:103AD0007189C8010E940D09D8019F962D913C91D2
:103AE000D097D1968D919C91D2972817390709F4D8
:103AF0006AC5D5968D919C91D697892B49F452969B
:103B00004D915D916D917C915597C8010E94A709D7
:103B1000C8010E9483096FAB78AF89AF9AAFC80123
:103B20000E9436096B017C01F80127A430A821A965
:103B300032A93EAB2DABC101821B930B65A976A9BF
:103B40000E94132A90E080E00E94AA272B013C01EA
:103B50004DA95EA9240E351E36942794B10190E03C
:103B600080E00E94AA279B01AC01C301B2010E9420
:103B70000B2820E034E244E759E40E9466292B0137
:103B80003C012FA938AD49AD5AADC701B6010E941D
:103B9000F928A30192010E946629D80152966D93DB
:103BA0007D938D939C9355975EC36635710509F49B
:103BB00030C578F46435710509F413C565357105B0
:103BC00009F02ACE9092AB048092AA0484E390E09C
:103BD00087CE6735710509F433C56536710509F07F
:103BE0001BCE9092AB048092AA0482E08093B90429
:103BF00080E190E075CE6838B1E07B0709F48CC3B2
:103C000008F0E4C06830F1E07F0709F4E9C208F089
:103C100066C0611531E0730709F4C6C2A8F56837BC
:103C2000710509F4A1C258F48FE090E06736710580
:103C300009F0F2CD9093AB048093AA0424CC6937A9
:103C4000710509F471C26A37710509F0E5CDE0919B
:103C5000A204F091A304309709F41DCC0995609358
:103C6000BF047093C0048093C1049093C2048BE797
:103C700090E00E948E006091BF047091C00480911A
:103C8000C1049091C204DCC1653051E0750709F4AC
:103C900096C250F46130760709F489C287E190E05A
:103CA0006430714039F2B8CD6630B1E07B0709F479
:103CB00090C26730714009F0AFCD86E091E00E947C
:103CC0008E00E091C804F091C9048081B4E08B9F1C
:103CD000C0011124E80FF91F8181928162C160380F
:103CE000F1E07F0709F4E4C298F46A3031E0730729
:103CF00009F48FC208F47BC26B3051E0750709F4F8
:103D000092C26036714009F087CD8EE090E092CF8C
:103D1000653891E0790709F4DBC260F46138B1E0FD
:103D20007B0709F4C8C28CE190E06438714009F463
:103D300081CF72CD6638F1E07F0709F4E3C26738BE
:103D4000714009F069CDE091CC04F0E0EE0FFF1F67
:103D5000E653FB4F0190F081E02D808190E090933D
:103D6000A6048093A50486E891E00E948E0010E0EE
:103D700000E046E0F42E8091880490918904E0915F
:103D8000CC04F0E0EE0FFF1FE653FB4FA081B181A2
:103D90004091A5045091A604F49E9001F59E300D2B
:103DA0001124A20FB31F9D01200F311FDC01ED91E3
:103DB000FC910190F081E02DD90111966C9109954B
:103DC0000F5F1F4F04301105B1F65DCB693032E053
:103DD000730709F404C308F094C0613052E075071A
:103DE00009F4ADC208F04FC06D3891E0790709F4CD
:103DF00076C288F56938714009F00ECDE091CC04A7
:103E0000F0E0EE0FFF1FE653FB4F0190F081E02D35
:103E1000808190E09093A6048093A50488E891E0C7
:103E20000E948E00E091CC04F0E0EE0FFF1FE653FD
:103E3000FB4F0190F081E02D2091A5043091A60464
:103E400046E0429FC001439F900D1124E80FF91FE7
:103E500085819681A6C06E38E1E07E0709F44FC2E5
:103E60006F38714009F0D8CC8EE891E00E948E0046
:103E7000E091CC04F0E0EE0FFF1FE653FB4F019002
:103E8000F081E02DA4C1663022E0720709F48AC2F5
:103E900040F5633042E0740709F45AC2653072405D
:103EA00009F0BACC84E092E00E948E00E091CF0449
:103EB000F0E0EE0FFF1FE353FB4F0190F081E02D88
:103EC000848595850E948E00E091CF04F0E0EE0F8E
:103ED000FF1FE353FB4F0190F081E02D868597850E
:103EE00060C0673082E0780709F466C268307240CB
:103EF00009F092CC9092AB048092AA0483E290E005
:103F0000EFCC6237A2E07A0709F4A7C2F0F46B3075
:103F1000E2E07E0709F477C208F472C26C3022E056
:103F2000720709F487C26137724009F075CC80913D
:103F3000D0049091D104DC01ED91FC910280F381D9
:103F4000E02D09950E94CB009ECA653742E07407B8
:103F500009F491C2B8F4633782E0780709F484C2A7
:103F60006437724009F058CC9092AB048092AA0456
:103F700082E08093B90426E230E03093AD042093D0
:103F8000AC04D4C16637A2E07A0709F489C264366A
:103F9000754609F478CA40CC0E946B0174CA8DEC56
:103FA0009BEA0E948E006FCA83E090E00E948E0020
:103FB00084E190E0F6CFE0919804F0919904309775
:103FC00009F469CACE0101960995182F87E190E09E
:103FD000A1CCE0919A04F0919B04F1CF89E090E0AC
:103FE0000E948E0062E070E08091880490918904C4
:103FF0000E94570DE0919C04F0919D04009188046B
:1040000010918904D801309759F08D919C91DC0171
:10401000ED90FC900995682FC801F701099533CA06
:10402000ED91FC910190F081E02D60E0C801F6CFA8
:104030008FE090E00E948E0060E072EC81E090E002
:104040000E94AA0020CA82E190E00E948E00809126
:10405000880490918904DC01ED91FC910190F0813C
:10406000E02D60919504DACF85E090E0E3CD83E028
:1040700090E09093AB048093AA0482E190E0909347
:10408000AD048093AC0481E08093C3042EE130E062
:1040900040E050E02093C4043093C5044093C6042C
:1040A0005093C704F0C98EE190E0A0E0B0E08093A7
:1040B000C4049093C504A093C604B093C70485E0DC
:1040C00090E00E94F901DFC983E090E09093AB0497
:1040D0008093AA0482E190E09093AD048093AC04B5
:1040E00081E08093C3041092C4041092C50410921E
:1040F000C6041092C704C7C91092C4041092C50424
:104100001092C6041092C70487E090E0DACF85E6EB
:1041100090E00E948E0060918D0470918E048091D9
:104120008F04909190048CCF81E190E09093AB0448
:104130008093AA0483E08093B90483E090E0909395
:10414000AD048093AC0482E190E09093AF0480933F
:10415000AE041092C4041092C5041092C6041092CA
:10416000C7041092B8048FC981E190E09093AB042A
:104170008093AA0483E08093B90483E090E0909355
:10418000AD048093AC0483E190E0DFCFE091D404F0
:10419000F091D504309709F47EC98091D304099534
:1041A00072C984E190E046CD86E190E043CDE09194
:1041B000C804F091C90481A50E94C00464C984E0C8
:1041C00091E00E948E00E091C804F091C9046081E2
:1041D000CFCB9092AB048092AA0488E190E080CB90
:1041E0009092AB048092AA0489E190E079CB88E0B8
:1041F00091E00E948E00E091C804F091C904808192
:1042000024E0829FC0011124E80FF91F838194816B
:10421000C8CE9092AB048092AA0482E08093B90445
:104220008AE190E05DCB8AE091E00E948E00A0914F
:10423000C804B091C9049A968D919C919B97009760
:10424000A9F0FC0120813181F901208531859E96FC
:104250006C91F90109959B01AC0160E070E080E888
:104260009FE30E94F9280E94D8010DC99C960D91E8
:104270001C9160E070E080E89FE30115110599F35F
:10428000D80113966C9170E090E080E00E94AA271C
:104290006B017C01F801608170E090E080E00E9499
:1042A000AA279B01AC01C701B6010E946629DBCF9A
:1042B0008BE190E0BFCC8091CA049091CB04DC01EB
:1042C00095962C91222309F4E6C80E94A90FDBC819
:1042D00084E891E00E948E006091CC0449CB8CE888
:1042E00091E00E948E008091880490918904DC0105
:1042F000ED91FC910190F081E02D66E08FCE8DE193
:1043000090E098CC9092AB048092AA0482E08093D3
:10431000B9048FE190E0E4CA9092AB048092AA04C1
:10432000E0E2F0E0F093AD04E093AC041092BF043F
:104330001092C0041092C1041092C20412CF809156
:10434000CD049091CE040E94650D0E94A8019BC8E7
:10435000E091CF04F0E0EE0FFF1FE353FB4F8081AD
:1043600091810E94650D82E092E00E948E00E091B2
:10437000CF04F0E0EE0FFF1FE353FB4F0190F081FD
:10438000E02D65817681878190850E94AA00E09169
:10439000CF04F0E0EE0FFF1FE353FB4F0190F081DD
:1043A000E02D34CF9092AB048092AA0482E08093F7
:1043B000B90482E290E094CA86E092E00E948E0006
:1043C000E091CF04F0E0EE0FFF1FE353FB4F0190AD
:1043D000F081E02D658976898789908D44CF88E0CA
:1043E00092E00E948E00E091CF04F0E0EE0FFF1FFC
:1043F000E353FB4F0190F081E02D818D928DD1CD63
:1044000084E290E017CC8AE092E00E948E00E09176
:10441000CF04F0E0EE0FFF1FE353FB4F0190F0815C
:10442000E02D618570E080918804909189040E945C
:10443000570D29C8E091CF04F0E0EE0FFF1FE353C2
:10444000FB4F0190F081E02DB586A4861786168675
:10445000128E118E81E0818716C8E5E2F0E0F093BC
:10446000AB04E093AA040FC882E792E00E948E009A
:104470006091D2047DCA84E792E00E948E00E091B0
:10448000D204F0E0EE0FFF1FE053FB4F80819181DB
:10449000DC01ED91FC910084F185E02D0995E3CEDE
:1044A000E091D204F0E0EE0FFF1FE053FB4F80815C
:1044B0009181DC01ED91FC910284F385E02D099559
:1044C0000C94431AE091D804F091D904309711F478
:1044D0000C944B1A09950C94431A9092AB04809259
:1044E000AA0482E08093B9048EE290E0F9C9E091D9
:1044F000DA04F091DB04EACF8091D6049091D704DE
:10450000892B11F40C944B1A83E490E00E948E00E6
:104510008091D6049091D704FC0147A950AD61ADBC
:1045200072AD0E9469089FCE9092AB048092AA045B
:1045300082E08093B9048FE290E0D2C98091D604E2
:104540009091D704892B11F40C944B1A87E490E0D6
:104550000E948E00E091D604F091D70461A172A16F
:1045600083A194A180CE8091D6049091D704892B09
:1045700011F40C944B1A89E490E00E948E00809113
:10458000D6049091D7040E9483096DCE8091D60401
:104590009091D704892B11F40C944B1A81E590E08B
:1045A0000E948E008091D6049091D7040E94360913
:1045B0005ACE9092AB048092AA0482E08093B90410
:1045C00082E390E08DC960E070E0CB014CCE909228
:1045D000AB048092AA0482E08093B90483E390E064
:1045E0007FC98091DC049091DD04892B11F40C9437
:1045F0004B1A85E590E00E948E008091DC0490913A
:10460000DD04DC01ED91FC910488F589E02D09952C
:10461000C8CC8091DC049091DD04892B11F40C94BA
:104620004B1A87E590E00E948E008091DC04909107
:10463000DD04DC01ED91FC910088F189E02DE7CFEC
:104640009092AB048092AA0485E390E049C9319727
:10465000E533F10508F062C0E05DFC4D0C94682A7A
:1046600065238E238A23C72301248E238E238E2342
:104670008E238E238E238E238E238E2304242A249E
:10468000522474248E2393248E239724A324AA24B3
:10469000D724042510251E2522258E232C256025B0
:1046A00092259525BC25E925F825FC258E238E230A
:1046B0008E238E238E238E238E232226322642267D
:1046C0005426642674268426B6268091B8048A016E
:1046D00030E020E0082E04C0000F111F221F331FFE
:1046E0000A94D2F74091BF045091C0046091C10474
:1046F0007091C204400F511F621F731F4093BF048B
:104700005093C0046093C1047093C204885F809387
:10471000B80404C0452B81F40E946B018091B90458
:10472000882309F451C39091BA0491114DC381506B
:104730008093B9040C94431A8FEF860F8093B904C9
:1047400081E08093BA048091C304882339F3E09117
:104750009E04F0919F043097B9F08091C404909129
:10476000C504A091C604B091C7048C019D010F5FE0
:104770001F4F2F4F3F4F0093C4041093C504209345
:10478000C6043093C70409951092C304C7CFCA0169
:10479000B0E0A0E02091B80404C0880F991FAA1FC0
:1047A000BB1F2A95D2F74091BF045091C00460917D
:1047B000C1047091C204840F951FA61FB71F809378
:1047C000BF049093C004A093C104B093C20480912D
:1047D000880490918904DC01ED91FC910680F781B9
:1047E000E02D09954091BF045091C0046091C1042F
:1047F0007091C20480918804909189040E940B01F9
:104800008DCF809395048ACF80938A04882309F4FE
:1048100085CF0E94A8010E94CB0080918A0480FF6E
:104820007DCF0E94AD0300918D0410918E042091E4
:104830008F0430919004DC01CB01800F911FA21FE7
:10484000B31F8093910490939204A0939304B09328
:10485000940464CF70E060E08091B80404C0440F19
:10486000551F661F771F8A95D2F78091BF049091DC
:10487000C004A091C104B091C204840F951FA61F6B
:10488000B71F8093BF049093C004A093C104B0935A
:10489000C20480938D0490938E04A0938F04B093F0
:1048A00090043CCF8091B8048A0130E020E0082ECB
:1048B00004C0000F111F221F331F0A94D2F740912A
:1048C000C4045091C5046091C6047091C704400FA0
:1048D000511F621F731F4093C4045093C50460931B
:1048E000C6047093C70412CFE0919E04F0919F0418
:1048F000309709F413CF8091C4049091C504A0911E
:10490000C604B091C7048C019D010F5F1F4F2F4F4C
:104910003F4F0093C4041093C5042093C604309302
:10492000C7040995FBCE61506093D304F7CE809104
:10493000C8049091C90461506A3010F4FC0160838E
:104940000E943F0DEBCEA091C804B091C904615004
:104950006C93E4CE70E060E08091B80404C0440F32
:10496000551F661F771F8A95D2F78091BF049091DB
:10497000C004A091C104B091C204840F951FA61F6A
:10498000B71F8093BF049093C004A093C104B09359
:10499000C204E091C804F091C904208144E0249F3E
:1049A00090011124E20FF31F92838183B7CE70E050
:1049B00060E08091B80404C0440F551F661F771F44
:1049C0008A95D2F78091BF049091C004A091C10450
:1049D000B091C204840F951FA61FB71F8093BF0418
:1049E0009093C004A093C104B093C204E091C804A2
:1049F000F091C904208154E0259F90011124E20F19
:104A0000F31F948383838ACE0091C8041091C90454
:104A10000E948901AB01BC01C8010E94EE0C7ECE50
:104A200061506093CC04E62FF0E0EE0FFF1FE653D9
:104A3000FB4F808191810E943C0F70CE615060934A
:104A4000CC046CCEE091CC04F0E0EE0FFF1FE653F7
:104A5000FB4FA081B1817BCF70E060E08091B80412
:104A600004C0440F551F661F771F8A95D2F78091A7
:104A7000BF049091C004A091C104B091C204840FFE
:104A8000951FA61FB71F8093BF049093C004A093E7
:104A9000C104B093C204E091CC04F0E0EE0FFF1F1C
:104AA000E653FB4F0190F081E02D208136E0239FFB
:104AB000E00DF11D112481839283A383B4832ECE54
:104AC00070E060E08091B80404C0440F551F661F79
:104AD000771F8A95D2F78091BF049091C004A0916E
:104AE000C104B091C204840F951FA61FB71F809305
:104AF000BF049093C004A093C104B093C204E0919A
:104B0000CC04F0E0EE0FFF1FE653FB4F0190F08165
:104B1000E02D208146E0249FE00DF11D11249683B5
:104B20008583FCCD8093CF04F9CDE091CF04F0E0F4
:104B3000EE0FFF1FE353FB4F008111810E9489019B
:104B4000D80155966D937D938D939C93589781E0F2
:104B500019968C93E091CF04F0E0EE0FFF1FE35322
:104B6000FB4F0190F081E02DB586A486178616864E
:104B7000128E118E8187D2CD70E060E08091B804F2
:104B800004C0440F551F661F771F8A95D2F7809186
:104B9000BF049091C004A091C104B091C204840FDD
:104BA000951FA61FB71F8093BF049093C004A093C6
:104BB000C104B093C204E091CF04F0E0EE0FFF1FF8
:104BC000E353FB4F0190F081E02D928F818F11868E
:104BD000A5CDE091CF04F0E0EE0FFF1FE353FB4FB4
:104BE0000190F081E02D81E0452B21F680E0C2CFDD
:104BF00061506093D20492CDE091D204F0E0EE0FC8
:104C0000FF1FE053FB4F00811181D801ED91FC9112
:104C1000E680F7800E948901AB01BC01C801F70161
:104C20000995E091D204F0E0EE0FFF1FE053FB4F37
:104C300080819181DC01ED91FC910284F385E02D6E
:104C400009956CCD0091D6041091D704011511057A
:104C500009F464CD0E948901AB01BC01C8010E9426
:104C6000790A5CCD0091D6041091D7040115110585
:104C700009F454CD0E948901F80165A376A387A3A6
:104C800090A74CCD0091D6041091D70401151105C1
:104C900009F444CD0E948901D80191966D937D93CA
:104CA0008D939C9394973ACD0091D6041091D7049C
:104CB0000115110509F432CD0E948901AB01BC0137
:104CC000C8010E945A092ACD0091D6041091D70438
:104CD0000115110509F422CD0E948901AB01BC0127
:104CE000C8010E940D091ACD0091D6041091D70475
:104CF0000115110509F412CD0E948901AB01BC0117
:104D0000C8010E94A7090ACD70E060E08091B80454
:104D100004C0440F551F661F771F8A95D2F78091F4
:104D2000BF049091C004A091C104B091C204840F4B
:104D3000951FA61FB71F8093BF049093C004A09334
:104D4000C104B093C2042091DC043091DD0421152C
:104D5000310509F4E3CCF90140815181FA0142891E
:104D60005389BC01C901FA010995D8CC70E060E013
:104D70008091B80404C0440F551F661F771F8A95A1
:104D8000D2F78091BF049091C004A091C104B0916A
:104D9000C204840F951FA61FB71F8093BF04909372
:104DA000C004A093C104B093C2042091DC043091EC
:104DB000DD042115310509F4B1CCF901408151819F
:104DC000FA0146855785CDCFEAEAF4E082819381E6
:104DD0008193919326EB34E02E173F07B9F7109299
:104DE000BA040C94431A0E94D20320918B04309190
:104DF0008C04620F731F811D911D6093BB0470931F
:104E0000BC048093BD049093BE040C94581A0E9475
:104E1000AD03C0900203D0900303E0900403F09030
:104E200005036C157D058E059F0510F40C94C01AC2
:104E300083EC92E00E94EC082091E2028091FA0259
:104E40009091FB02A091FC02B091FD022223F1F1AE
:104E50000196A11DB11D8093FA029093FB02A093CD
:104E6000FC02B093FD028091F6029091F70220912E
:104E7000F4023091F5022817390770F44091F802D6
:104E80005091F902841B950B8217930708F4C9010E
:104E90009093F7028093F6022091F6023091F70288
:104EA0008091020390910303A0910403B091050344
:104EB000820F931FA11DB11D8093020390930303E2
:104EC000A0930403B09305030C94C01A0197A109A1
:104ED000B109C1CF1092B9020C94C81A0E942F10C8
:104EE0000C94F81A0E94E80F0C94F81A8091B902F9
:104EF00081110C946C1B80917E03882311F40C9417
:104F00006C1B89E593E00E94A90F0C946C1B112384
:104F100011F40C94CC1B80918A04882311F40C9416
:104F2000CC1B8EE390E00C94C61B8091950390916E
:104F300096030E940A2B809192039091930397FD10
:104F400003C060E00C940A0308950E94E72708F468
:104F500081E00895E89409C097FB3EF49095809510
:104F6000709561957F4F8F4F9F4F9923A9F0F92F2F
:104F700096E9BB279395F695879577956795B795AD
:104F8000F111F8CFFAF4BB0F11F460FF1BC06F5F93
:104F90007F4F8F4F9F4F16C0882311F096E911C0A5
:104FA000772321F09EE8872F762F05C0662371F0C6
:104FB00096E8862F70E060E02AF09A95660F771FDA
:104FC000881FDAF7880F9695879597F90895990FB6
:104FD0000008550FAA0BE0E8FEEF16161706E807C3
:104FE000F907C0F012161306E407F50798F0621BE4
:104FF000730B840B950B39F40A2661F0232B242BB9
:10500000252B21F408950A2609F4A140A6958FEFD7
:10501000811D811D08950E941E280C948F280E94D6
:10502000812838F00E94882820F0952311F00C94F4
:1050300078280C947E2811240C94C3280E94A02860
:1050400070F3959FC1F3950F50E0551F629FF001DB
:10505000729FBB27F00DB11D639FAA27F00DB11DF4
:10506000AA1F649F6627B00DA11D661F829F22277D
:10507000B00DA11D621F739FB00DA11D621F839F04
:10508000A00D611D221F749F3327A00D611D231FDA
:10509000849F600D211D822F762F6A2F11249F5728
:1050A00050409AF0F1F088234AF0EE0FFF1FBB1F2B
:1050B000661F771F881F91505040A9F79E3F5105EA
:1050C00080F00C9478280C94C3285F3FE4F3983E5A
:1050D000D4F3869577956795B795F795E7959F5F94
:1050E000C1F7FE2B880F911D9695879597F9089526
:1050F00097F99F6780E870E060E008959FEF80EC8B
:10510000089500240A94161617061806090608952D
:1051100000240A9412161306140605060895092E93
:105120000394000C11F4882352F0BB0F40F4BF2B02
:1051300011F460FF04C06F5F7F4F8F4F9F4F089542
:1051400057FD9058440F551F59F05F3F71F0479538
:10515000880F97FB991F61F09F3F79F0879508951D
:10516000121613061406551FF2CF4695F1DF08C03C
:10517000161617061806991FF1CF86957105610559
:1051800008940895E894BB2766277727CB0197F901
:105190000895F999FECF92BD81BDF89A992780B5FF
:1051A0000895262FF999FECF1FBA92BD81BD20BD6B
:1051B0000FB6F894FA9AF99A0FBE019608950E94D4
:1051C000EA28A59F900DB49F900DA49F800D911D7E
:1051D00011240895A29FB001B39FC001A39F700D39
:1051E000811D1124911DB29F700D811D1124911DEF
:1051F00008955058BB27AA270E9411290C948F2884
:105200000E94812838F00E94882820F039F49F3FBE
:1052100019F426F40C947E280EF4E095E7FB0C9428
:105220007828E92F0E94A02858F3BA17620773075D
:105230008407950720F079F4A6F50C94C2280EF4A3
:10524000E0950B2EBA2FA02D0B01B90190010C0196
:10525000CA01A0011124FF27591B99F0593F50F4AE
:10526000503E68F11A16F040A22F232F342F442706
:10527000585FF3CF469537952795A795F0405395FE
:10528000C9F77EF41F16BA0B620B730B840BBAF0CE
:105290009150A1F0FF0FBB1F661F771F881FC2F739
:1052A0000EC0BA0F621F731F841F48F4879577954D
:1052B0006795B795F7959E3F08F0B0CF9395880F07
:1052C00008F09927EE0F9795879508950E947A29FF
:1052D0000C948F280E94882858F00E94812840F062
:1052E00029F45F3F29F00C94782851110C94C328BD
:1052F0000C947E280E94A02868F39923B1F35523CB
:1053000091F3951B550BBB27AA27621773078407D8
:1053100038F09F5F5F4F220F331F441FAA1FA9F36E
:1053200035D00E2E3AF0E0E832D091505040E6955C
:10533000001CCAF72BD0FE2F29D0660F771F881FBD
:10534000BB1F261737074807AB07B0E809F0BB0BB0
:10535000802DBF01FF2793585F4F3AF09E3F5105C4
:1053600078F00C9478280C94C3285F3FE4F3983EBF
:10537000D4F3869577956795B795F7959F5FC9F7AD
:10538000880F911D9695879597F90895E1E0660F2E
:10539000771F881FBB1F621773078407BA0720F0A7
:1053A000621B730B840BBA0BEE1F88F7E095089510
:1053B0000E94DF296894B1110C94C32808950E94BB
:1053C000A82888F09F5798F0B92F9927B751B0F0C7
:1053D000E1F0660F771F881F991F1AF0BA95C9F779
:1053E00014C0B13091F00E94C228B1E008950C942D
:1053F000C228672F782F8827B85F39F0B93FCCF3E0
:10540000869577956795B395D9F73EF490958095F5
:10541000709561957F4F8F4F9F4F08950E94E727AA
:1054200008F48FEF0895AA1BBB1B51E107C0AA1F08
:10543000BB1FA617B70710F0A61BB70B881F991F35
:105440005A95A9F780959095BC01CD010895A1E2E8
:105450001A2EAA1BBB1BFD010DC0AA1FBB1FEE1FEE
:10546000FF1FA217B307E407F50720F0A21BB30B39
:10547000E40BF50B661F771F881F991F1A9469F7B5
:1054800060957095809590959B01AC01BD01CF0111
:105490000895052E97FB1EF400940E94602A57FD84
:1054A00007D00E94272A07FC03D04EF40C94602AF0
:1054B00050954095309521953F4F4F4F5F4F089540
:1054C00090958095709561957F4F8F4F9F4F089570
:1054D000EE0FFF1F0590F491E02D09940F931F9399
:1054E000CF93DF938230910510F482E090E0E09159
:1054F000E004F091E10430E020E0B0E0A0E030977B
:1055000099F42115310509F44AC0281B390B2430C0
:105510003105D8F58A819B816115710589F1FB01FF
:1055200093838283FE0111C04081518102811381E6
:1055300048175907E0F04817590799F4109761F098
:1055400012960C93129713961C933296CF01DF910B
:10555000CF911F910F9108950093E0041093E104FF
:10556000F4CF2115310551F04217530738F0A90146
:10557000DB019A01BD01DF01F801C1CFEF01F9CFD5
:105580009093E1048093E004CDCFFE01E20FF31F7E
:10559000819391932250310939832883D7CF209169
:1055A000DE043091DF04232B41F420910C01309173
:1055B0000D013093DF042093DE0420910A01309125
:1055C0000B012115310541F42DB73EB740910E0175
:1055D00050910F01241B350BE091DE04F091DF04A4
:1055E000E217F307A0F42E1B3F0B2817390778F0BA
:1055F000AC014E5F5F4F2417350748F04E0F5F1F19
:105600005093DF044093DE04819391939FCFF0E0A9
:10561000E0E09CCFCF93DF930097E9F0FC01329755
:1056200013821282A091E004B091E104ED0130E018
:1056300020E01097A1F420813181820F931F2091E7
:10564000DE043091DF042817390709F061C0F093B8
:10565000DF04E093DE04DF91CF910895EA01CE17D5
:10566000DF07E8F54A815B819E0141155105B1F7DD
:10567000E901FB83EA8349915991C40FD51FEC17C7
:10568000FD0761F4808191810296840F951FE901E5
:1056900099838883828193819B838A83F0E0E0E011
:1056A00012968D919C9113970097B9F52D913C918D
:1056B0001197CD010296820F931F2091DE04309145
:1056C000DF042817390739F6309751F51092E104B5
:1056D0001092E004B093DF04A093DE04BCCFD38328
:1056E000C28340815181840F951FC817D90761F487
:1056F0004E5F5F4F88819981480F591F51834083C6
:105700008A819B81938382832115310509F0B0CF73
:10571000F093E104E093E0049ECFFD01DC01C0CFF3
:1057200013821282D7CF81E090E0F8940C94982BEA
:1057300010E0C3E6D0E004C0FE010E94682A219672
:10574000C436D107C9F7F894FFCFFFBF04BF0400E8
:1057500000C841060000E20480000F00000F000FA7
:10576000000F00000F0F00000F0F0F0000000000DF
:10577000F20752077F073F08B0078E07A207000015
:1057800000000209F708EC08E108D608CB08000081
:105790000000FB10E410D6103D12C910EB0BBA0B41
:1057A000A00B9C0B8C10F411000000005512370C5C
:1057B000310C160C030CFC0B0000004000004843A9
:1057C000000020410000484200004842CDCC2C405F
:1057D000E8039001483A5C4D792044726976655C33
:1057E00056756C696E74757320536F667477617249
:1057F00065202844726577295C4669726D7761720D
:1058000065202D204D6F746F5472616B5C4D6F7409
:105810006F5472616B5F50656C6C65745F5065644A
:10582000657374616C5F4669726D776172655C4D1A
:105830006F746F5472616B5F50656C6C65745F5010
:105840006564657374616C5C4D6F746F5472616BE9
:105850005F50656C6C65745F506564657374616CF2
:105860002E696E6F0053657020203920323032343B
:0A5870000031323A35303A3430008E
:107E0000112484B714BE81FFF0D085E080938100F7
:107E100082E08093C00088E18093C10086E0809377
:107E2000C20080E18093C4008EE0C9D0259A86E02C
:107E300020E33CEF91E0309385002093840096BBD3
:107E4000B09BFECF1D9AA8958150A9F7CC24DD24C4
:107E500088248394B5E0AB2EA1E19A2EF3E0BF2EE7
:107E6000A2D0813461F49FD0082FAFD0023811F036
:107E7000013811F484E001C083E08DD089C08234E0
:107E800011F484E103C0853419F485E0A6D080C0E4
:107E9000853579F488D0E82EFF2485D0082F10E0AE
:107EA000102F00270E291F29000F111F8ED06801E7
:107EB0006FC0863521F484E090D080E0DECF843638
:107EC00009F040C070D06FD0082F6DD080E0C81688
:107ED00080E7D80618F4F601B7BEE895C0E0D1E017
:107EE00062D089930C17E1F7F0E0CF16F0E7DF06D8
:107EF00018F0F601B7BEE89568D007B600FCFDCFD4
:107F0000A601A0E0B1E02C9130E011968C91119780
:107F100090E0982F8827822B932B1296FA010C0160
:107F200087BEE89511244E5F5F4FF1E0A038BF0790
:107F300051F7F601A7BEE89507B600FCFDCF97BE46
:107F4000E89526C08437B1F42ED02DD0F82E2BD052
:107F50003CD0F601EF2C8F010F5F1F4F84911BD097
:107F6000EA94F801C1F70894C11CD11CFA94CF0C13
:107F7000D11C0EC0853739F428D08EE10CD085E9AC
:107F80000AD08FE07ACF813511F488E018D01DD067
:107F900080E101D065CF982F8091C00085FFFCCF94
:107FA0009093C60008958091C00087FFFCCF809118
:107FB000C00084FD01C0A8958091C6000895E0E648
:107FC000F0E098E1908380830895EDDF803219F02E
:107FD00088E0F5DFFFCF84E1DECF1F93182FE3DFCA
:107FE0001150E9F7F2DF1F91089580E0E8DFEE27F6
:047FF000FF270994CA
:027FFE00040479
:00000001FF
