:100000000C9478000C94DF1C0C94B81C0C94A00089
:100010000C94A0000C94A0000C94A0000C94061D5D
:100020000C94A0000C94A0000C94A0000C94A000D0
:100030000C94A0000C94A0000C94A0000C94A000C0
:100040000C946E1C0C94A0000C94881D0C94621DE2
:100050000C94A0000C94A0000C94A0000C94A000A0
:100060000C94BA1D0C94A00007634236B79BD8A726
:100070001A39685618AEBAAB558C1D3CB7CC5763CD
:10008000BD6DEDFD753EF6177231BF000000803F7B
:1000900000000000230026002900020000000024C8
:1000A0000027002A0000000000250028002B000483
:1000B000040404040404040202020202020303030F
:1000C0000303030102040810204080010204081009
:1000D00020010204081020000000080002010000B6
:1000E000030407000000000000000000D91ED637FE
:1000F00011241FBECFEFD8E0DEBFCDBF25E0ACEAB4
:10010000B2E001C01D92AC3FB207E1F712E0A0E0FF
:10011000B1E0E2E9F9E702C005900D92AC3AB1070F
:10012000D9F710E0C7E7D0E004C02197FE010E9494
:100130008C3BC637D107C9F70E9417210C94BC3CF1
:100140000C940000CF92DF92EF92FF92CF93DF9357
:10015000EC016A017B01E889F98982E08083C1149E
:1001600081EED806E104F104A1F060E079E08DE3CE
:1001700090E0A70196010E944B3B215031094109B3
:1001800051095695479537952795211580E13807F0
:1001900098F0E889F989108260E874E88EE190E0CF
:1001A000A70196010E944B3B215031094109510999
:1001B0005695479537952795EC85FD853083EE85D7
:1001C000FF852083188EEC89FD8986E08083EA898B
:1001D000FB89808180618083EA89FB8980818860D6
:1001E0008083EA89FB89808180688083EA89FB8932
:1001F00080818F7D8083DF91CF91FF90EF90DF90A2
:10020000CF900895EDE9F5E016A615A610AA17A659
:1002100012AA11AA14AA13AA16AA15AA10AE17AAEE
:1002200012AE11AE1092DB051092DC051092DD05C6
:100230001092DE0514A614AE15AE1092E3051092CE
:10024000DF051092E0051092E1051092E20513AE71
:100250000895EDE9F5E086A197A1B0E0A0E023AD17
:1002600004C0880F991FAA1FBB1F2A95D2F7EFED74
:10027000F5E04081518162817381840F951FA61F33
:10028000B71F80839183A283B383682F792F8A2F2E
:100290009B2F0895833081F028F4813099F08230CB
:1002A000A9F008958730A9F08830C9F08430B1F4FE
:1002B000809180008F7D03C0809180008F77809334
:1002C0008000089584B58F7784BD089584B58F7DAF
:1002D000FBCF8091B0008F778093B000089580911C
:1002E000B0008F7DF9CF1F93CF93DF93282F30E09D
:1002F000F901E952FF4F8491F901ED53FF4FD49179
:10030000F901E155FF4FC491CC23A9F0162F8111BB
:100310000E944A01EC2FF0E0EE0FFF1FEB55FF4F5C
:10032000A591B4918FB7F894EC91111108C0D095B4
:10033000DE23DC938FBFDF91CF911F910895DE2BD9
:10034000F8CFCF93DF9390E0FC01ED53FF4F249162
:1003500081559F4FFC0184918823D1F090E0880F54
:10036000991FFC01E556FF4FA591B491FC01EB5597
:10037000FF4FC591D49161110EC09FB7F8948C9135
:10038000E22FE0958E238C932881E223E8839FBFA0
:10039000DF91CF9108958FB7F894EC91E22BEC9315
:1003A0008FBFF6CF8E3008F08E50877080648093B8
:1003B0007C0080917A00806480937A0080917A003A
:1003C00086FDFCCF809178009091790008953FB729
:1003D000F89480910F0390911003A0911103B091B4
:1003E000120326B5A89B05C02F3F19F00196A11D49
:1003F000B11D3FBFBA2FA92F982F8827BC01CD016F
:10040000620F711D811D911D42E0660F771F881FCD
:10041000991F4A95D1F708952FB7F89460910B036F
:1004200070910C0380910D0390910E032FBF0895DE
:1004300081E08093AC020895CF93DF93CDB7DEB710
:10044000CC5AD1090FB6F894DEBF0FBECDBF382FFE
:100450008CEAEBEEF1E0DE01119601900D928A95A7
:10046000E1F7DE01A255BF4FECEA8E918C3511F019
:10047000E150D9F7EF5F8BEA8E1B41E050E04C0F63
:100480005D1F4E0F511DFA01232FA32FB92F9A2F55
:10049000921B981718F491919D93F9CFC455DF4F93
:1004A0000FB6F894DEBF0FBECDBFDF91CF91089598
:1004B000CF93DF93CDB7DEB72C970FB6F894DEBF9E
:1004C0000FBECDBF2CE0E7E9F2E0DE01119601900E
:1004D0000D922A95E1F7FE0131969C01255F3F4F71
:1004E0004191DC014D93CD01A217B307C9F78BE011
:1004F0002C960FB6F894DEBF0FBECDBFDF91CF9123
:100500000895CF93DF93CDB7DEB729970FB6F89450
:10051000DEBF0FBECDBF29E0E3EAF2E0DE011196B7
:1005200001900D922A95E1F7FE0131969C01285F1A
:100530003F4F4191DC014D93CD01A217B307C9F79D
:1005400088E029960FB6F894DEBF0FBECDBFDF91CD
:10055000CF91089585E10E94D201BC01990F880BCB
:10056000990B0E94E63720E030EC4FE754E40E94FC
:10057000A03920E030E040E251E40E94453820E01C
:1005800030E040E05FE30E9434390E94533A862F06
:10059000089508959091000189130BC0EAE9F0E0F5
:1005A000E4919FEF90930001E13049F028F0E230B0
:1005B00061F060E00C94730110926E00FACF90919C
:1005C0006F009D7F90936F00F4CF909170009D7F9E
:1005D0009093700091E09093B0009091B100987F5B
:1005E00094609093B1001092B300E3CF4F925F926A
:1005F0006F927F928F929F92AF92BF92CF92DF9233
:10060000EF92FF920F931F93CF93DF9300D000D010
:100610001F92CDB7DEB78B0129013A0190910001FD
:100620008917C9F09F3F09F47EC00F900F900F907B
:100630000F900F90DF91CF911F910F91FF90EF904E
:10064000DF90CF90BF90AF909F908F907F906F90F2
:100650005F904F900895EAE9F0E094919D8397FDB3
:10066000E4CF61E00E94A1018D81882321F09D816A
:10067000923009F04AC14801B12CA12C60E072E12E
:100680008AE790E0A50198010E946D3B29833A8397
:100690004B835C8369017A0181E0C81AD108E108C3
:1006A000F1089FEFC916D104E104F10409F00CF43C
:1006B00001C160E472E48FE090E0A50198010E941E
:1006C0006D3B69017A0181E0C81AD108E108F1089F
:1006D0009D81923009F0A2C08FEFC816D104E104C9
:1006E000F10409F00CF4E6C160E970ED83E090E0FC
:1006F000A50198010E946D3B69017A0191E0C91A38
:10070000D108E108F1088FEFC816D104E104F10423
:1007100011F00CF07FC183E09091B100987F892B9C
:100720008093B100CFC080930001EAE9F0E094919A
:100730009D839F3F09F479CF913041F150F0923081
:1007400009F446C09D8197FD70CF61E00E94A10130
:100750008ECF14BC15BC94B5926094BD95B59160D4
:1007600095BD282F30E0F901E155FF4FE491F0E00D
:10077000EE0FFF1FEB55FF4F45915491F901ED53DB
:10078000FF4FE491E093F9021D826BCF109280003D
:1007900010928100909181009860909381009091D7
:1007A0008100916090938100282F30E0F901E1559C
:1007B000FF4FE491F0E0EE0FFF1FEB55FF4F459127
:1007C0005491F901ED53FF4FE491E093F80249CFC2
:1007D0001092B0001092B1009091B000926090938E
:1007E000B0009091B10091609093B100282F30E05B
:1007F000F901E155FF4FE491F0E0EE0FFF1FEB55DB
:10080000FF4F459154915093030340930203F90124
:10081000ED53FF4FE491E093040323CF9FEFC916FC
:10082000D104E104F10409F00CF46DC068E478EE41
:1008300081E090E0A50198010E946D3B69017A0179
:1008400081E0C81AD108E108F1089D81992309F4D3
:10085000FAC08FEFC816D104E104F10411F00CF0D6
:10086000FBC0EFC064E274EF80E090E0A50194016A
:100870000E946D3B69017A0181E0C81AD108E10844
:10088000F10885E09FEFC916D104E104F10409F0F5
:1008900008F442CF62E17AE780E090E0A50194019C
:1008A0000E946D3B69017A0181E0C81AD108E10814
:1008B000F108E5C081E09D8191112ECF95B5987F1B
:1008C000892B85BD2FEF3FEFA9014114510461042D
:1008D000710409F043C09D81913009F45EC09230EB
:1008E00009F46DC09111A1CEC7BC2093FE023093D4
:1008F000FF02409300035093010380916E008260D9
:1009000080936E0092CE82E0D6CFB12CA12C60E015
:1009100072E18AE790E0A50198010E946D3B6901B0
:100920007A0181E0C81AD108E108F108C114D104A4
:1009300091E0E906F10404F591E08D81813011F632
:1009400080918100887F892B809381002FEF3FEF7A
:10095000A9014114510461047104F9F0D801AA0FEE
:10096000BB1FA30192010E94193928EE33E040E039
:1009700050E00E944B3BAFCF68E478EE81E090E01E
:10098000A50198010E946D3B69017A0181E0C81AB6
:10099000D108E108F10893E0D0CFD0928900C0924D
:1009A00088002093FA023093FB024093FC0250939C
:1009B000FD0280916F00826080936F0036CEC092FE
:1009C000B30020930503309306034093070350932D
:1009D00008038091700082608093700026CE84E0CE
:1009E0009FEFC916D104E104F10409F008F466CFC1
:1009F000C980DA80EB80FC808AE0F594E794D79494
:100A0000C7948A95D1F781E0C81AD108E108F108A6
:100A100085E054CF68E478EE81E090E0A50198018C
:100A20000E946D3B69017A0181E0C81AD108E10892
:100A3000F1089FEFC916D104E104F10411F00CF0A4
:100A400011CF84E069CE83E09FEFC916D104E104A1
:100A5000F10409F00CF432CF62E17AE780E090E033
:100A6000A50194010E946D3B69017A0181E0C81AD9
:100A7000D108E108F1089D81992309F4B0CF86E0FF
:100A80009FEFC916D104E104F10409F008F444CE43
:100A9000C980DA80EB80FC809AE0F594E794D794E3
:100AA000C7949A95D1F781E0C81AD108E108F108F6
:100AB00087E032CE82E030CEAF92BF92CF92DF920B
:100AC000EF92FF920F931F93CF93DF936C017B0103
:100AD0008B01040F151FEB015E01AE18BF08C01794
:100AE000D10759F06991D601ED91FC910190F08107
:100AF000E02DC6010995892B79F7C501DF91CF91CA
:100B00001F910F91FF90EF90DF90CF90BF90AF902B
:100B10000895FC01538D448D252F30E0842F90E003
:100B2000821B930B541710F0CF96089501970895E8
:100B3000FC01918D828D981761F0A28DAE0FBF2FB1
:100B4000B11D5D968C91928D9F5F9F73928F90E007
:100B500008958FEF9FEF0895FC01918D828D981776
:100B600031F0828DE80FF11D858D90E008958FEFB3
:100B70009FEF0895FC01918D228D892F90E0805C7C
:100B80009F4F821B91098F739927089580E095E00C
:100B90000E94BA0521E0892B09F420E0822F0895F4
:100BA00080E090E0892B29F00E94C60581110C9409
:100BB00000000895FC01A48DA80FB92FB11DA35A00
:100BC000BF4F2C91848D90E001968F739927848F6D
:100BD000A689B7892C93A089B1898C918370806490
:100BE0008C93938D848D981306C00288F389E02D31
:100BF00080818F7D80830895EF92FF920F931F93E2
:100C0000CF93DF93EC0181E0888F9B8D8C8D9813BF
:100C10001AC0E889F989808185FF15C09FB7F894CB
:100C2000EE89FF896083E889F98980818370806417
:100C300080839FBF81E090E0DF91CF911F910F9162
:100C4000FF90EF900895F62E0B8D10E00F5F1F4F71
:100C50000F731127E02E8C8D8E110CC00FB607FC80
:100C6000FACFE889F989808185FFF5CFCE010E940E
:100C7000DA05F1CFEB8DEC0FFD2FF11DE35AFF4F9D
:100C8000F0829FB7F8940B8FEA89FB89808180629C
:100C9000CFCFCF93DF93EC01888D8823B9F0AA8959
:100CA000BB89E889F9898C9185FD03C0808186FD27
:100CB0000DC00FB607FCF7CF8C9185FFF2CF808176
:100CC00085FFEDCFCE010E94DA05E9CFDF91CF910C
:100CD0000895CF93CFB7F8948091F702811127C080
:100CE000E9EBF0E08491EDECF0E09491E82FF0E096
:100CF000EE0FFF1FE556FF4FA591B491EC91E9234C
:100D000021F461E08AE00E94730161E08AE00E94C0
:100D1000A1018CB580618CBD8CB580648CBD61E017
:100D20008DE00E94A10161E08BE00E94A101809111
:100D3000F7028F5F8093F702CFBFCF910895209184
:100D4000D202260F3327331F21323105ECF42091D4
:100D50005903FC0190E080E0243069F082E00895BE
:100D6000A091D2022191AC0140555D4FA40FB52F47
:100D7000B11D2C930196861798F38091D202680FCB
:100D80006093D20280E0089581E0089510925903A3
:100D900081E0809358031092330361E082E10E9466
:100DA000730161E083E10E947301E9EBF0E080816F
:100DB0008E7F808380818D7F808388E48093B800DC
:100DC00085E48093BC000895CF93DF9391E09093E6
:100DD000AF028823B9F0C091B800D091BA008091D9
:100DE000BC008A7B8093BC0060E082E10E947301BA
:100DF00060E083E10E9473010E94C606D093BA00AE
:100E0000C093B800DF91CF9108958F929F92AF92D7
:100E1000BF92CF92DF92EF92FF920F931F93CF93E7
:100E2000DF93D0918203D13208F0D7C0182FC09140
:100E300081030E94E7016B017C01809159038111BC
:100E40006BC082E080935903109358038FEF809317
:100E5000570310925603D0935503A1E6B3E0E5E3A0
:100E6000F3E080E0D81391C01092340380913403F2
:100E7000CC0FC82BC093340380913303813009F029
:100E800088C0109233030E94E7016B017C018091BE
:100E900034038093BB0080915B0390915C03A0912D
:100EA0005D03B0915E03892B8A2B8B2BA1F00E94EE
:100EB000E70100915B0310915C0320915D03309189
:100EC0005E036C197D098E099F090617170728070D
:100ED000390708F442C08091BC0083FDD8CF85EC6F
:100EE0008093BC000E94E7016B017C018091590353
:100EF000823009F450C0809157038F3F09F46FC0CE
:100F000080915703803209F46CC08091570380337D
:100F100009F469C084E026C080915B0390915C0372
:100F2000A0915D03B0915E03892B8A2B8B2B09F472
:100F300084CF0E94E70180905B0390905C03A090B7
:100F40005D03B0905E036C197D098E099F098616BA
:100F50009706A806B90608F070CF80915A030E9440
:100F6000E40685E0109260031092820310925F0302
:100F7000DF91CF911F910F91FF90EF90DF90CF9075
:100F8000BF90AF909F908F9008959D9191938F5FA8
:100F900069CF85EEA5CF80915B0390915C03A09112
:100FA0005D03B0915E03892B8A2B8B2B09F49ECFB6
:100FB0000E94E70100915B0310915C0320915D03A7
:100FC00030915E036C197D098E099F09061717077A
:100FD0002807390708F08ACFC0CF81E0C3CF80E06F
:100FE000C1CF82E0BFCF83E0BDCFCF92DF92EF923F
:100FF000FF920F931F93CF93DF93D82FC62F6132A9
:1010000008F098C00E94E7016B017C0180915903B0
:1010100081116BC081E080935903809358039FEF47
:1010200090935703109256039C0F9093550380930F
:10103000340380913403DD0FD82BD0933403809197
:101040003303813009F078C0109233030E94E70126
:101050006B017C01809134038093BB0080915B0322
:1010600090915C03A0915D03B0915E03892B8A2B64
:101070008B2BA1F00E94E70100915B0310915C03B0
:1010800020915D0330915E036C197D098E099F09E3
:10109000061717072807390708F448C08091BC00D5
:1010A00083FDD8CF85EC8093BC000E94E7016B01E3
:1010B0007C0180915903813009F440C0809156032E
:1010C0008C1710F4C0915603E5E3F3E0A3E1B3E01D
:1010D00080E08C1355C08C2FDF91CF911F910F9121
:1010E000FF90EF90DF90CF90089580915B039091F7
:1010F0005C03A0915D03B0915E03892B8A2B8B2B3F
:1011000009F484CF0E94E70100915B0310915C0316
:1011100020915D0330915E036C197D098E099F0952
:10112000061717072807390708F070CF80915A0370
:101130000E94E406C0E0CFCF85EEB5CF80915B037F
:1011400090915C03A0915D03B0915E03892B8A2B83
:101150008B2B09F4AECF0E94E70100915B03109145
:101160005C0320915D0330915E036C197D098E094B
:101170009F09061717072807390708F09ACFD6CF17
:1011800091919D938F5FA5CF089508950895E09163
:10119000AE028091AD02E81730F4F0E0ED5EFC4F56
:1011A000808190E008958FEF9FEF08959091AE02B7
:1011B0008091AD022FEF3FEF981748F4E92FF0E050
:1011C000ED5EFC4F208130E09F5F9093AE02C9013D
:1011D00008958091AD029091AE02891B990B0895FC
:1011E000CF92DF92EF92FF920F931F93CF93DF93F3
:1011F0007C01CB018A0120915F03222389F0EB015E
:101200006B01C40ED51ECC15DD0569F06991D701BF
:10121000ED91FC910190F081E02DC7010995F3CF8C
:10122000642F0E949F06C801DF91CF911F910F91FB
:10123000FF90EF90DF90CF900895CF93DF931F92B0
:10124000CDB7DEB7698320915F032223F9F02091A7
:101250008203203258F021E030E0FC013383228306
:1012600090E080E00F90DF91CF910895809160032E
:10127000E82FF0E0EF59FC4F998190838F5F8093C6
:1012800060038093820381E090E0ECCF61E0CE01C7
:1012900001960E949F06F7CF90E080E00895CF92DC
:1012A000DF92EF92FF92CF93DF93EC01CB01BA0173
:1012B0000E94E6376B017C01E881F9810284F385A5
:1012C000E02DCE010995BC0190E080E00E94E4375A
:1012D0009B01AC01C701B6010E94A0392E813F815C
:1012E000488559850E94A0392A813B814C815D81C6
:1012F0000E944538DF91CF91FF90EF90DF90CF9023
:101300000895CF92DF92EF92FF92CF93DF93EC019B
:10131000CB01BA012A813B814C815D810E94A039B9
:101320002E813F81488559850E9445386B017C019B
:10133000E881F9810284F385E02DCE010995BC0195
:1013400090E080E00E94E437A70196010E944538B2
:101350000E944C3ADF91CF91FF90EF90DF90CF90B9
:101360000895DC01DB968D919C91DC01ED91FC915F
:101370000484F585E02D0994DC01DB968D919C9128
:10138000DC01ED91FC910284F385E02D0994DC01F0
:10139000DB968D919C91DC01ED91FC910084F185AF
:1013A000E02D0994DC01DB968D919C91DC01ED919F
:1013B000FC910680F781E02D0994DC01DB968D918C
:1013C0009C91DC01ED91FC910480F581E02D099464
:1013D000DC01DB968D919C91DC01ED91FC9102800A
:1013E000F381E02D0994CF92DF92EF92FF92CF9399
:1013F000DF93EC016A017B010E9481099B01AC0132
:1014000060E472E48FE090E00E944B3BFE01FF96A7
:10141000318320838DAD9EAD8217930728F43EAFB4
:101420002DAF349611821082CE86DF86E88AF98A43
:10143000DF91CF91FF90EF90DF90CF9008950F93C1
:101440001F93CF93DF93EC018C01015C1F4FF801D8
:1014500080819181892B39F44E855F8568897989EE
:10146000CE010E94F309F8012081318150E040E073
:1014700060E472E48FE090E00E946D3BBA01A90144
:10148000CE010E944F096E877F87888B998BDF91F1
:10149000CF911F910F910895CF92DF92EF92FF921B
:1014A000CF93DF93EC016A017B010E9481099B01CC
:1014B000AC0160E472E48FE090E00E944B3B3EAFF1
:1014C0002DAFFE01FF96808191812817390728F4FE
:1014D00031832083349611821082CA86DB86EC86A3
:1014E000FD86DF91CF91FF90EF90DF90CF90089530
:1014F000CF93DF93EC018DAD9EAD892B39F44A85F6
:101500005B856C857D85CE010E944C0A2DAD3EAD7C
:1015100050E040E060E472E48FE090E00E946D3BB8
:10152000BA01A901CE010E944F096A877B878C8787
:101530009D87DF91CF9108956F927F928F929F92B6
:10154000AF92BF92CF92DF92EF92FF920F931F93D1
:10155000CF93DF93EC016A017B018DAD9EAD892BAA
:1015600039F44A855B856C857D85CE010E944C0AE5
:101570003E018FE3680E711CF30180819181892BFC
:1015800039F44E855F8568897989CE010E94F30917
:10159000CE010E94780A4B015C01CE010E941F0A15
:1015A0000DAD1EADF30160807180A50194010E9414
:1015B000333920E034E244E759E40E944538A7017A
:1015C00096010E94A0394B015C01B801660D771DA0
:1015D0007695679590E080E00E94E4379B01AC012E
:1015E000C501B4010E94A0390E94533A90E080E006
:1015F0000E94E4374B015C01B8016619770990E05D
:1016000080E00E94E437A50194010E94A0394B01BB
:101610005C0120E030E0A9010E94A93A20E030E01E
:1016200040E05FE387FD22C0C501B4010E94343968
:101630000E944C3A272FFE01ED5BFF4F60167106AA
:10164000D0F060837183CA8ADB8AEC8AFD8ADF91DD
:10165000CF911F910F91FF90EF90DF90CF90BF90AF
:10166000AF909F908F907F906F900895C501B401C7
:101670000E943339DDCF862F922F009711F481E03D
:1016800090E091838083DFCF0F931F93CF93DF93FD
:10169000EC01E881F9810280F381E02D0995FE01DA
:1016A000E35BFF4F10821182128213823497DE01B6
:1016B000AB5BBF4F8D919D910D90BC91A02D808310
:1016C0009183A283B3830E94E701FE01E95AFF4F91
:1016D000CD5ADF4F088119812A813B81DC01CB0182
:1016E000800F911FA21FB31F80839183A283B383B6
:1016F000DF91CF911F910F910895CF93DF93EC016C
:10170000FC01E35BFF4F80819181A281B381892B32
:101710008A2B8B2B19F0CE010E94440B40E050E045
:10172000BA01CE010E948109CB5BDF4F68837983C8
:101730008A839B83DF91CF9108958F929F92AF927E
:10174000BF92CF92DF92EF92FF920F931F93CF93AE
:10175000DF93EC017A018B0189A58823A9F0CA01E6
:10176000DB018EAB9FABA8AFB9AF81E08AAFDF9151
:10177000CF911F910F91FF90EF90DF90CF90BF908E
:10178000AF909F908F900895AAA4BBA4CCA4DDA491
:101790009A01AB01B501C6010E94A93A181614F0CE
:1017A00075018601AEA4BFA4C8A8D9A89701A80155
:1017B000B501C6010E94DF3787FD02C075018601B1
:1017C000A701B801CE010E9481097E0129E4E20E41
:1017D000F11CD7016D937D938D939C9313978E018C
:1017E000035B1F4FF80180819181A281B381892B16
:1017F0008A2B8B2B19F0CE010E94440B6E01F5E46D
:10180000CF0ED11CD6014D915D916D917C91F70168
:1018100080819181A281B381481759076A077B07AC
:1018200009F4A5CF8DAD9EAD892B39F44A855B8532
:101830006C857D85CE010E944C0A5E01FFE3AF0EF0
:10184000B11CD5018D919C91892B39F44E855F8512
:1018500068897989CE010E94F309F501808191811F
:101860002DAD3EAD8217930748F4892B39F44A8990
:101870005B896C897D89CE010E949C0AE881F9818F
:101880000190F081E02DCE010995D7014D915D9138
:101890006D917C91F60180819181A281B381E88173
:1018A000F98184179507A607B7070CF07CC081E083
:1018B00088A70680F781E02D6FA1CE0109958BAD39
:1018C0009CADDC01ED91FC910688F789E02D09952E
:1018D0007E01B7E5EB0EF11CF70180819181A281B9
:1018E000B381892B8A2B8B2B51F10E94E701D70101
:1018F0008D909D90AD90BC90681579058A059B05EB
:10190000F0F40E94E701F70180809180A280B3800B
:101910003497C080D180E280F380DC01CB0188194C
:101920009909AA09BB09C816D906EA06FB0610F4EC
:10193000D701C601F80180839183A283B383FE019E
:10194000EF5AFF4F20813181F80180819181A2817E
:10195000B381820F931FA11DB11D80839183A28348
:10196000B3830E94E701AB01BC017E01F1E4EF0EFD
:10197000F11CD7012D913C91F80180819181A281C8
:10198000B381820F931FA11DB11D840F951FA61F48
:10199000B71F80839183A283B3838DAD9EADD701A2
:1019A0008D939C93E4CE18A66FA181E068270680F2
:1019B000F781E02D82CF90E080E0089581E090E013
:1019C000089580E0089580E00895FC0180A191A130
:1019D0000895653C29E0720790F024EC39E0DC01C1
:1019E00091963C932E939097DC015E966D917C913D
:1019F0005F97ED91FC910288F389E02D0994FC0139
:101A000071A360A3F1CFDC019296EC91EB3090F4DE
:101A1000F0E0E35FF24F0C948C3B180D180D1C0D99
:101A20001C0D1F0D220D250D280D2B0D2E0D310D1A
:101A300021E030E0C901089522E030E0FBCF24E04E
:101A400030E0F8CF28E030E0F5CF20E130E0F2CF11
:101A500020E230E0EFCF20E430E0ECCF20E830E0CF
:101A6000E9CF20E031E0E6CFCF93DF93FC01918D09
:101A700095FF07C0892F881F8827881FDF91CF9186
:101A80000895248530E0F901E952FF4F8491F9016E
:101A9000ED53FF4FD491F901E155FF4FC491CC2391
:101AA00079F081110E944A01EC2FF0E0EE0FFF1F48
:101AB000E057FF4FA591B491EC91ED2381E009F43B
:101AC00080E08170DBCF7F928F929F92AF92BF9226
:101AD000CF92DF92EF92FF920F931F93CF93DF93FA
:101AE000EC018C890E94D2019A8789870E94E701C4
:101AF0004B015C018B829C82AD82BE8220E030E093
:101B0000A9016BA57CA58DA59EA50E94A93A698512
:101B10007A85181614F5E9A4FAA490E080E00E94F2
:101B2000E437AB01BC01D701ED91FC910280F38158
:101B3000E02D95018401C70109956B017C0120E02E
:101B400030E0A9010E94DF3787FF03C0C12CD12CF0
:101B50007601C701B6010E94533A78876F830E94CD
:101B60000C020F8118854E855F852A893B894017B5
:101B7000510760F421153105A9F0CD8CDE8CEF8C76
:101B8000F8A0C616D706E806F90660F41F870E8788
:101B90006B017C01C20ED31EE11CF11CCD8EDE8ECA
:101BA000EF8EF8A2488959890417150760F42115AA
:101BB000310599F0C9A0DAA0EBA0FCA0C616D706A3
:101BC000E806F90650F4198B088B620F731F811D0C
:101BD000911D69A37AA38BA39CA3CE84DF84E8889C
:101BE000F988EC18FD087B847720D1F0B70190E0EC
:101BF00080E00E94E4372F89388D498D5A8D0E94EC
:101C000045384B015C01B60190E080E00E94E4376A
:101C1000A50194010E9434390E94533A7C8F6B8F46
:101C20008C859D85E816F90610F4711009C02B8D7E
:101C30003C8D8981882331F081E00217130730F44D
:101C400080E004C081E002171307D0F74881888341
:101C5000EFA1F8A59A8121E030E001C0220F9A950A
:101C6000EAF72095908129232083EFA1F8A5288108
:101C70009A8101C0220F9A95EAF79081292B20833F
:101C80008427DF91CF911F910F91FF90EF90DF900C
:101C9000CF90BF90AF909F908F907F900895CF92FC
:101CA000DF92EF92FF928091B7039091B803A091D9
:101CB000B903B091BA038093090190930A01A093EC
:101CC0000B01B0930C018091B3039091B403A091E8
:101CD000B503B091B60380930D0190930E01A093CC
:101CE0000F01B09310018CE094E00E94630D80918D
:101CF0000C04882341F180E090E0A0EAB1EC8093ED
:101D0000B7039093B803A093B903B093BA036C01DF
:101D10007D0140910501509106016091070170918C
:101D2000080189E893E00E94F309B701A60189E858
:101D300093E00E949D0B81E08093B203FF90EF90AF
:101D4000DF90CF90089580E090E0A0EAB1E4809326
:101D5000B3039093B403A093B503B093B603D7CF66
:101D6000CF93DF93EC016B81617089810E947301D5
:101D70006B8162708A81DF91CF910C947301FC01B9
:101D800060897189828993890895FC0160897189CC
:101D9000828993890895FC01648575858685978578
:101DA000089560E070E080E89FE3089560E070E0EF
:101DB00080E89FE3089590E080E0089560E070E09F
:101DC000CB010895AF92BF92CF92DF92EF92FF9234
:101DD0000F931F93CF93DF9300D000D0CDB7DEB722
:101DE000DC0197962D913C91232B61F17B016C01D5
:101DF0005E01B5E0AB0EB11C8E010F5F1F4FE01A04
:101E0000F10AD6019796ED91FC91C701800F911FC1
:101E10000995F80181938F01EA15FB0591F7698116
:101E20007A818B819C810F900F900F900F90DF91A2
:101E3000CF911F910F91FF90EF90DF90CF90BF90C7
:101E4000AF90089560E070E0CB01EDCFAF92BF920C
:101E5000CF92DF92EF92FF920F931F93CF93DF9376
:101E600000D000D0CDB7DEB7DC019596ED91FC91A6
:101E7000EF2BE9F06C0129833A834B835C835E018D
:101E8000B5E0AB0EB11C8E010F5F1F4F7B01E01A56
:101E9000F10AC701800F911FF80161918F01D601EE
:101EA0009596ED91FC9109950A151B0591F70F90F8
:101EB0000F900F900F90DF91CF911F910F91FF9096
:101EC000EF90DF90CF90BF90AF9008952F923F9208
:101ED0004F925F926F927F928F929F92AF92BF923A
:101EE000CF92DF92EF92FF920F931F93CF93DF93E6
:101EF00000D000D01F92CDB7DEB79D838C834B01FD
:101F0000DC0157968D919C91892B09F46DC0AA2410
:101F1000AA94BA2C10E000E0EC81FD81C788D08C37
:101F2000D6011A96ED90FC901B97ED91FC9184815F
:101F300095819A838983AC81BD815A963C90E01645
:101F4000F106A8F1B80190E080E00E94E4372B018F
:101F50003C01B70190E080E00E94E4379B01AC01B6
:101F6000C301B2010E94A039AB01BC01232DC601FF
:101F7000E981FA81099583EC90E00197F1F7AC8152
:101F8000BD81D1968C910E94D2018819990997FF41
:101F900003C09195819591098A159B0528F0C5018B
:101FA0000F5F1F4F5C01B8CF202E1B83F9CF822D0E
:101FB0009B81B7010E94373B90E080E00E94E437AC
:101FC0004B015C01232DBC01A401C601E981FA810A
:101FD0000995AC81BD8191966D917C919297A501F7
:101FE0009401CD010E94260FAC81BD81ED91FC9141
:101FF00011970684F785E02DCD010995EC81FD81CF
:1020000060897189828993890F900F900F900F904A
:102010000F90DF91CF911F910F91FF90EF90DF9084
:10202000CF90BF90AF909F908F907F906F905F9078
:102030004F903F902F900895BF92CF92DF92EF92F2
:10204000FF920F931F93CF93DF93EC01B12C03EC1E
:1020500010E06C89B616B8F489A90E94D2019B835E
:102060008A83BC0190E080E00E94E4379B01AC01D0
:10207000C701B6010E9434396B017C01C801019788
:10208000F1F7B394E6CF70E090E080E00E94E4378F
:102090009B01AC01C701B6010E94A0399B01AC01B4
:1020A000288B398B4A8B5B8B6D8D7E8DCE010E9488
:1020B000260F688979898A899B89DF91CF911F9141
:1020C0000F91FF90EF90DF90CF90BF9008957F9297
:1020D0008F929F92AF92BF92CF92DF92EF92FF9238
:1020E0000F931F93CF93DF93EC014A015B01712C97
:1020F00003EC10E06C897616B8F489A90E94D2012D
:102100009B838A83BC0190E080E00E94E4379B01BE
:10211000AC01C701B6010E9434396B017C01C801D2
:102120000197F1F77394E6CF70E090E080E00E94B1
:10213000E4379B01AC01C701B6010E94A039288990
:1021400039894A895B890E9433399B01AC01C501F9
:10215000B4010E94A039AB01BC01E881F98102847D
:10216000F385E02DCE0109956C857D858E859F8553
:10217000DF91CF911F910F91FF90EF90DF90CF9063
:10218000BF90AF909F908F907F900895DC011C9638
:102190004D935D936D937C931F975B96ED91FC91AE
:1021A0009A01AB01BF010C94260FCF92DF92EF9200
:1021B000FF920F931F93CF93DF93EC016A017B0192
:1021C00020E030E0A901CB01B6010E94A93A18161F
:1021D00044F50D891E890115110519F120E030E043
:1021E00040E85FE3C701B6010E9433399B01AC01AF
:1021F00069A57AA58BA59CA50E94A039AB01BC015D
:102200004DA75EA76FA778ABD801ED91FC91048430
:10221000F585E02D298DC80109956DA77EA78FA7AB
:1022200098AB2DA53EA54FA558A969A57AA58BA564
:102230009CA50E94A03920E030E040E85FE30E94C6
:1022400034396B017C016F8D78A1AC019601CE0110
:102250000E94260FC701B601DF91CF911F910F9108
:10226000FF90EF90DF90CF900895CF92DF92EF92A2
:10227000FF92CF93DF93EC018D899E89009761F0E7
:10228000DC01ED91FC910088F189E02D698D0995C3
:102290006DA77EA78FA798AB2DA53EA54FA558A9E2
:1022A00069A57AA58BA59CA50E94A03920E030E005
:1022B00040E85FE30E9434396B017C016F8D78A1A7
:1022C000AC019601CE010E94260FC701B601DF9135
:1022D000CF91FF90EF90DF90CF900895DC01ED91CA
:1022E000FC910280F381E02D099520E030E040E28E
:1022F00051E40E9445380E944C3ACB010895CF9397
:10230000DF93EC0189A90E94D2019B838A830E94FA
:10231000E701688779878A879B876A817B8190E05C
:1023200080E00E94E437288939894A895B890E94C4
:1023300033392C853D854E855F850E944538AB013C
:10234000BC014C835D836E837F838BA19CA100972E
:1023500059F0DC01ED91FC910190F081E02D09959F
:102360006C837D838E839F836C817D818E819F8131
:10237000DF91CF9108958F929F92AF92BF92CF92AB
:10238000DF92EF92FF921F93CF93DF93EC018D8941
:102390009E89009771F1DC01ED91FC910190F08133
:1023A000E02D0995182F6F8D78A1CE010E94E20EC5
:1023B0006B017C0120E030E0A9010E94DF378880BA
:1023C0009980181664F4F401A084B184A7019601E1
:1023D000C701B6010E94243B882309F4A6C04AA97C
:1023E0005BA96CA97DA9D4011896ED91FC91CE0151
:1023F00009958F89988D009769F1DC01ED91FC9129
:102400000190F081E02D0995182B69A17AA1CE01E8
:102410000E94E20E6B017C0120E030E0A9010E94E5
:10242000DF37181644F4A7019601C701B6010E94D0
:10243000243B882319F0C12CD12C76018F89988DEB
:10244000DC01ED91FC910480F581E02D2A8DB7012E
:10245000A60109958FA198A5892B91F06B8D7C8D94
:10246000CE010E94E20E6C877D878E879F876D8DDF
:102470007E8DCE010E94E20E688B798B8A8B9B8BBE
:10248000CC84DD84EE84FF8420E030E0A901C70124
:10249000B6010E94DF37882341F0A7019601C701EA
:1024A000B6010E94243B882359F04EA95FA968AD6C
:1024B00079ADE881F9810284F385E02DCE0109959B
:1024C000C888D988EA88FB8820E030E0A901C701E4
:1024D000B6010E94DF3787FD08C0A7019601C7013A
:1024E000B6010E94243B882361F0188A198A1A8A4F
:1024F0001B8A6D8D7E8D20E030E0A901CE010E9407
:10250000260FE881F9810280F381E02DCE01099543
:10251000812FDF91CF911F91FF90EF90DF90CF90AF
:10252000BF90AF909F908F900895B701A601CE0104
:10253000F5015ECF60E070E0CB01089560E070E0EF
:10254000CB010895CF92DF92EF92FF920F931F93EA
:10255000CF93DF93EC016A017B010E94E7018B01BD
:102560009C01E881F9810280F381E02DB701A60189
:10257000CE010995DF91CF911F910F91FF90EF90C0
:10258000DF90CF90089560E070E080E89FEB0895C1
:1025900060E070E080E89FEB0895CF92DF92EF92C9
:1025A000FF92CF93DF93EC01E881F9810084F185FC
:1025B000E02D09956B017C012C853D854E855F855D
:1025C000688979898A899B890E943439A701960193
:1025D0000E944538DF91CF91FF90EF90DF90CF9030
:1025E0000895DC01ED91FC910088F189E02D60E017
:1025F00009948F929F92AF92BF92CF92DF92EF9207
:10260000FF921F93CF93DF93EC016A017B01122F9E
:102610008C849D84AE84BF84AB019601C501B40156
:102620000E94DF3740E050E0BA0187FF0EC0A501ED
:102630009401C701B6010E943339288939894A8932
:102640005B890E94A039AB01BC01E881F98104805B
:10265000F581E02D212FCE010995288939894A89F4
:102660005B890E9445382C853D854E855F850E949B
:102670003439DF91CF911F91FF90EF90DF90CF9091
:10268000BF90AF909F908F900895DC01ED91FC91E9
:102690000484F585E02D20E00994DC01ED91FC91A6
:1026A0000084F185E02D60E00994DC01ED91FC915E
:1026B0000480F581E02D20E00994CF93DF93EC01B5
:1026C0008C899D89892B09F51092AE021092AD027A
:1026D00010926003109282030E94C60684EC98E078
:1026E0009093D1028093D00285EC98E09093D5022C
:1026F0008093D402898D91E090935F03809381034E
:1027000081E0DF91CF910C9405070E94690661E09A
:102710008E890E94A10161E08E890E94730180E090
:10272000DF91CF910895089561E0809185030C9425
:1027300073018EBD00000DB407FEFDCF8EB5089568
:102740008CBD9DBD0895CF92DF92EF92FF92CF9303
:10275000DF93EC01E881F9810084F185E02D099592
:102760006B017C01288939894A895B896C857D8563
:102770008E859F850E943439A70196010E944538B5
:10278000DF91CF91FF90EF90DF90CF900895DC0123
:10279000ED91FC910088F189E02D60E009948F9221
:1027A0009F92AF92BF92CF92DF92EF92FF921F93D0
:1027B000CF93DF93EC016A017B01122F8C849D84FF
:1027C000AE84BF84AB019601C501B4010E94DF371E
:1027D00040E050E0BA0187FF0EC0A5019401C70197
:1027E000B6010E943339288939894A895B890E9458
:1027F000A039AB01BC01E881F9810480F581E02DAD
:10280000212FCE010995288939894A895B890E943F
:1028100045382C853D854E855F850E943439DF9192
:10282000CF911F91FF90EF90DF90CF90BF90AF902E
:102830009F908F900895DC01ED91FC910484F585C3
:10284000E02D20E00994DC01ED91FC910680F781F8
:10285000E02D0994DC01ED91FC910280F381E02DE3
:102860000994CF92DF92EF92FF921F93CF93DF9361
:10287000EC016A017B016C897D8990E080E00E9417
:10288000E437A70196010E9445380E94533A162F5B
:102890008CE08093B8008E899F89288D31E0309339
:1028A0005F03209381031092600310928203DC0186
:1028B000ED91FC910190F081E02D60E009958E8909
:1028C0009F89DC01ED91FC910190F081E02D612F59
:1028D000099581E00E940507E881F9810680F7816A
:1028E000E02DCE01DF91CF911F91FF90EF90DF900F
:1028F000CF900994CF93DF93EC011092AE02109227
:10290000AD0210926003109282030E94C60684EC0E
:1029100098E09093D1028093D00285EC98E0909358
:10292000D5028093D402888D91E090935F038093C9
:10293000810381E0DF91CF910C940507CF92DF9264
:10294000EF92FF920F931F93CF93DF93EC016A01F5
:102950007B010CA51DA501151105D9F0AB01960150
:1029600060E070E080E89FE30E943339AB01BC0176
:10297000D801ED91FC910480F581E02D28A9C801D2
:10298000DF91CF911F910F91FF90EF90DF90CF904B
:1029900009940EA4DFA5C02D2097C1F0688170E0D6
:1029A00090E080E00E94E437A70196010E9445383C
:1029B0000E94533A6B83CE01DF91CF911F910F910B
:1029C000FF90EF90DF90CF900C94B00EDF91CF91FD
:1029D0001F910F91FF90EF90DF90CF900895FC0131
:1029E00083A50C94CA026A3018F4DC0112966C9329
:1029F000DC01ED91FC910280F381E02D0994DC0172
:102A00001296EC91B4E0EB9FF0011124E80FF91F4E
:102A10002581368163817481FC0183A550E040E00B
:102A20002F3F320719F420E030E0A9010C94F602A0
:102A3000CF93DF93EC0161E08BA50E94A10160E0E0
:102A40008BA50E9473018CA59DA5009739F0DC0130
:102A5000ED91FC910190F081E02D09950EA4DFA588
:102A6000C02D2097A9F061E089810E94A10160E05A
:102A700089810E94730161E08A810E94A10160E066
:102A80008A810E947301CE01DF91CF910C94B00E28
:102A9000DF91CF910895CF93DF9300D000D0CDB7D1
:102AA000DEB749835A836B837C83DC018D919C91D3
:102AB000DC01ED91FC910280F381E02D44E050E0D7
:102AC000BE016F5F7F4F09950F900F900F900F9091
:102AD000DF91CF910895CF93DF9300D000D0CDB791
:102AE000DEB749835A836B837C83DC018D919C9193
:102AF000DC01ED91FC910280F381E02D44E050E097
:102B0000BE016F5F7F4F09950F900F900F900F9050
:102B1000DF91CF910895CF93DF9300D0CDB7DEB78B
:102B200069837A83DC018D919C91DC01ED91FC91AC
:102B30000280F381E02D42E050E0BE016F5F7F4FE5
:102B400009950F900F90DF91CF910895CF93DF9368
:102B5000EC0160E072E08BEA95E00E948B154B81FE
:102B60005C816D817E818BEA95E00E946B1580917E
:102B7000AB059091AC05AFA1B8A5EC01E881F98156
:102B80000190F081E02D6C91DF91CF910994CF936A
:102B9000C62FBC018BEA95E00E948B158091AB0596
:102BA0009091AC0561E06C0FDC01ED91FC9101901E
:102BB000F081E02DCF910994EF92FF921F93CF9374
:102BC000DF93EC017B01142F6BE07AEA0E948B15F6
:102BD000D70118964D915D916D917C911B97CE0117
:102BE0000E946B158881998161E0610FDC01ED9194
:102BF000FC910190F081E02D0995F7014481558108
:102C000066817781CE01DF91CF911F91FF90EF9088
:102C10000C944B15DC01ED91FC910190F081E02DBD
:102C20000994DC01ED91FC910280F381E02D09947F
:102C3000DC01ED91FC910190F081E02D0994CF939E
:102C4000DF93E091BF05F091C005309709F480C093
:102C5000EC018091E4059091E505A091E605B09125
:102C6000E705AC01BD014F5F5F4F6F4F7F4F409352
:102C7000E4055093E5056093E6057093E705099533
:102C80008E3108F046C08093D905BE018BEA95E0ED
:102C90000E948B1580919D0590919E05DC01ED9120
:102CA000FC910190F081E02D6091D905099580910A
:102CB000D905882309F44CC0E091BF05F091C00507
:102CC0008091E4059091E505A091E605B091E705B6
:102CD000AC01BD014F5F5F4F6F4F7F4F4093E405E5
:102CE0005093E5056093E6057093E7050995682F15
:102CF00070E07093C4056093C30580919D05909129
:102D00009E050E9418168091D90581508093D9059F
:102D1000CECF1092D905E091BD05F091BE05309758
:102D200009F4B3CF8091E4059091E505A091E60503
:102D3000B091E7050197A109B1098093E40590934B
:102D4000E505A093E605B093E70560E009959DCF02
:102D5000DF91CF91089589E893E00E94440B89E8C0
:102D600093E00E947D0B8091090190910A01A0914E
:102D70000B01B0910C018093B7039093B803A0931B
:102D8000B903B093BA0380910D0190910E01A09107
:102D90000F01B09110018093B3039093B403A093FB
:102DA000B503B093B6031092B20340E050E060EA7E
:102DB00071E489E893E00E94F30940910901509180
:102DC0000A0160910B0170910C0189E893E00E9467
:102DD0009D0B80919F05882371F06CE370E08BEA76
:102DE00095E00E948B150E94E701AB01BC018BEAC4
:102DF00095E00C946B150895ECEDF0E0E491E33070
:102E000039F140F4E130C1F0E230E1F060E085E01A
:102E10000C947301E73041F1E83079F1E430B1F717
:102E20008091800080628093800085E090E09093A4
:102E30008B0080938A00089584B5806884BD85E006
:102E400087BD089584B5806284BD85E088BD0895FE
:102E50008091800080688093800085E090E090936E
:102E600089008093880008958091B00080688093E5
:102E7000B00085E08093B30008958091B000806237
:102E80008093B00085E08093B400089560E0809165
:102E900085030E94730180E590E00C94A01360E02C
:102EA000FC0183850E94730184E591E00C94A013DA
:102EB0000F931F93CF93DF938C01C62F0E944F1760
:102EC0008C2F880F80640E949913C82F80E00E9485
:102ED0009913D82F61E0F80183850E947301F801EE
:102EE0008481CF73C82BC4838D2FDF91CF911F9125
:102EF0000F910895CF93DF93EC0168E00E9458177B
:102F00008C8F69E0CE010E9458178D8F8F7090E0F2
:102F1000982F88272C8D820F911D9CA38BA3DF9166
:102F2000CF910895CF93DF93EC016BE00E94581787
:102F30008F701F8288876AE0CE010E9458172F8108
:102F40003885820F932F911D98878F83DF91CF91C2
:102F50000895CF92DF92EF92FF92CF93DF93EC012F
:102F60002E89A8A1B9A130E00E9424396B017C010F
:102F700063E0CE010E9458178F8B90E024E0959576
:102F800087952A95E1F7C0E1D0E0C81BD90BC701AE
:102F9000B6012FEF30E040E050E00E944B3BC29F73
:102FA000C001C39F900DD29F900D112434E09695DF
:102FB00087953A95E1F7DF91CF91FF90EF90DF9001
:102FC000CF9008950F931F93CF93DF938C01C62F5B
:102FD000D42F0E944F178C2F880F0E949913C82F4F
:102FE0008D2F0E949913D82F61E0F80183850E94EC
:102FF0007301F8018481CF73C82BC4838D2FDF91B7
:10300000CF911F910F910895615070E0FC01E60F80
:10301000F71F3789222349F0432B478B695E7E4F88
:103020004789FB0160810C94E21740954323F5CF5B
:10303000FC01218D25FF05C0262F40E863E00C949C
:10304000041884850C947301CF93DF93EC014A8DAF
:10305000406866E00E94E2171D821EA21DA28B8DB1
:1030600084FF08C021E040E165E0CE01DF91CF910F
:103070000C940418DF91CF910895CF92DF92EF92D4
:10308000FF92CF93DF93EC01A8A1B9A1A617B707D0
:10309000E0F5BF8FAE8F2E8930E00E942439CE8CB0
:1030A000DF8C24E0CC0CDD1C2A95E1F7F12CE12C1F
:1030B0002FEF30E040E050E00E944B3BC701B601EB
:1030C0000E944B3B211531054105510509F1BA011B
:1030D000A901413151056105710520F040E150E041
:1030E00060E070E08F898F70242F2295207F2195DA
:1030F000482F422B4F8B63E0CE01DF91CF91FF90A1
:10310000EF90DF90CF900C94E2177F8F6E8FC3CF3C
:1031100041E050E060E070E0E5CFFC01238922FF50
:1031200004C060E086850C947301408D4F77408F1A
:1031300064E00C94E217CF93DF93EC01488D47FDD8
:1031400005C04068488F64E00E94E2178B8982FFC7
:1031500006C061E08E85DF91CF910C947301DF9101
:10316000CF910895CF92DF92EF92FF920F931F932A
:10317000CF93DF93EC0161E08B850E94A10161E0B8
:103180008B850E9473018A8983FD04C097E09F8725
:1031900088608A8B8A8983FF12C061E08F850E94D4
:1031A000A10161E08F850E9473018A8988608A8B02
:1031B0008B8988608B8B8BEB92E10197F1F70E94F2
:1031C00069061F8A8FE0888F80E3898F8A8F88E065
:1031D0008B8F83E08C8F80E28D8F8E01095E1F4F75
:1031E00087E1E82E81E0F82E6E018EE1C80ED11C39
:1031F000F80141918F01F70161917F01CE010E9499
:10320000E217C016D106A1F78A8982FD04C098E0B2
:103210009E8784608A8B8A8982FF15C061E08E85D3
:103220000E94A10160E08E850E9473018A898460FA
:103230008A8B8B8984608B8B488D4068488F64E0D3
:10324000CE010E94E2178A8981FD04C099E09C8723
:1032500082608A8B8A8981FF14C061E08C850E941C
:10326000A10160E08C850E9473018A8982608A8B4B
:103270008B8982608B8B20E040E263E0CE010E946C
:1032800004188A8980FD04C09AE09D8781608A8B3A
:103290008A8980FF14C061E08D850E94A10160E0F1
:1032A0008D850E9473018A8981608A8B8B898160F8
:1032B0008B8B20E040E163E0CE010E9404188A89F4
:1032C00084FD04C092E0988B80618A8B8A8984FF98
:1032D0000AC060E088890E94A1018A8980618A8B86
:1032E0008B8980618B8BCE010E947A1780E0DF9101
:1032F000CF911F910F91FF90EF90DF90CF900895A5
:10330000CF93DF93EC01498D44FF21C0406465E019
:103310000E94E2178E818823B9F08BA19CA18F3F78
:103320009105F1F0E8F06BE0CE010E9458178F7024
:103330001F8288878DA19EA129853A8582179307D0
:1033400098F401969EA38DA3DF91CF91089561E03B
:103350008D850E94730160E08D850E947301DACF34
:10336000CE010E949217E6CF2F8138858BA19CA1B8
:103370002817390748F781E08D83E6CFFF920F9336
:103380001F93CF93DF93EC01042FF22E632B162FA4
:10339000142B8C899D89892B09F072C08CE0809355
:1033A000B8008F89988D298D31E030935F03209389
:1033B00081031092600310928203DC01ED91FC9175
:1033C0000190F081E02D612F09950C3009F048C083
:1033D00081E00E940507882341F08FEF9FEFDF9186
:1033E000CF911F910F91FF90089562E0898D0E9407
:1033F000F5071092AE028093AD028230A8F48F8957
:10340000988DDC01ED91FC910084F185E02D09950A
:10341000892B19F38F89988DDC01ED91FC91028441
:10342000F385E02D0995EBCF8F89988DDC01ED9127
:10343000FC910284F385E02D0995082F8F89988DE2
:10344000DC01ED91FC910284F385E02D0995182FA4
:10345000802F90E0982F8827810F911D9170BFCF0A
:103460008F89988DDC01ED91FC910190F081E02D28
:103470006F2D099581E00E940507182F00E0E8CF25
:1034800081E590E00E94A01360E08E890E947301A4
:10349000812F0E949913082F8F2D0E949913182FA6
:1034A00061E08E890E947301D3CF4F925F926F9239
:1034B0007F928F929F92AF92BF92CF92DF92EF92C4
:1034C000FF92CF93DF93EC012FEF31E04CE06111DD
:1034D00047C0CE010E94BE19BC0190E080E00E946E
:1034E000E4376B017C016A857B8590E080E00E9477
:1034F000E4379B01AC01C701B6010E94A0399B01D2
:10350000AC01C888D988EA88FB88C701B6010E9447
:1035100045389B01AC018C849D84AE84BF84C50179
:10352000B4010E9434392B013C01A5019401C7016B
:10353000B6010E9434399B01AC01C301B2010E9463
:10354000A039DF91CF91FF90EF90DF90CF90BF90A7
:10355000AF909F908F907F906F905F904F90089565
:1035600060E1B7CFCF92DF92EF92FF921F93CF939C
:10357000DF93EC016A017B01122F6A857B8590E065
:1035800080E00E94E437A70196010E9445380E941E
:10359000533A9B0140E060E0111160E1CE010E94CE
:1035A000BE19E881F9810084F185E02D612FCE01FB
:1035B000DF91CF911F91FF90EF90DF90CF90099412
:1035C0004F925F926F927F928F929F92AF92BF9233
:1035D000CF92DF92EF92FF92CF93DF93EC018CE0DA
:1035E0008093B80061E0888D0E94F5071092AE02CA
:1035F0008093AD02882309F44EC08E899F89DC0137
:10360000ED91FC910284F385E02D0995682F70E01F
:1036100090E080E00E94E4376B017C016C897D8939
:1036200090E080E00E94E4379B01AC01C701B60145
:103630000E94A0399B01AC01C888D988EA88FB8820
:10364000C701B6010E9445389B01AC018C849D8462
:10365000AE84BF84C501B4010E9434392B013C0102
:10366000A5019401C701B6010E9434399B01AC0148
:10367000C301B2010E94A039DF91CF91FF90EF907A
:10368000DF90CF90BF90AF909F908F907F906F9082
:103690005F904F9008958FEFB9CF0E94B73C85EDB2
:1036A0008093BC0080915B0390915C03A0915D03CB
:1036B000B0915E030796A11DB11D23E0B695A795B5
:1036C000979587952A95D1F72091BC0024FD03C0DA
:1036D00010925903089540915B0350915C036091EF
:1036E0005D0370915E03452B462B472B69F30097D2
:1036F000A105B10541F02AE22A95F1F700C0019732
:10370000A109B109E1CF80915A030C94E4063F92DC
:103710004F925F926F927F928F929F92AF92BF92E1
:10372000CF92DF92EF92FF920F931F93CF93DF938D
:10373000CDB7DEB72A970FB6F894DEBF0FBECDBF68
:103740009A8789876A017B01DC011F968D909D9085
:10375000AD90BC905297FC010787108B218B328B68
:1037600013968D919D910D90BC91A02D89839A8384
:10377000AB83BC83838B948BA58BB68B8781908521
:10378000A185B2858D839E83AF83B887878B908F09
:10379000A18FB28FC382D482E582F682328031104B
:1037A0001EC0C782D086E186F286C701B6012A967E
:1037B0000FB6F894DEBF0FBECDBFDF91CF911F9142
:1037C0000F91FF90EF90DF90CF90BF90AF909F90C0
:1037D0008F907F906F905F904F903F900895C901B8
:1037E000B801681979098A099B090E94E4374B01DD
:1037F0005C01A985BA851B964D905D906D907C907B
:103800001E97AC019B01C301B2010E94A03920E0C8
:1038100030E040EE50E40E94A93A1816C4F5A50124
:103820009401C301B2010E9434399B01AC01C30170
:10383000B2010E94A0394B015C01AC019B016D817A
:103840007E818F8198850E9445382B013C01B1E033
:103850003B1227C0A501940160E070E080E89FE37F
:103860000E943339A70196010E944538A3019201B5
:103870000E943439E985FA8567837087818792874A
:10388000E985FA85C780D084E184F2848ECFC501B2
:10389000B4019058A30192010E94A0390E941A3AE3
:1038A000CACF29813A814B815C81C701B6010E9450
:1038B0003339A50194010E944538A30192010E9469
:1038C0003439A985BA8517966D937D938D939C9312
:1038D0001A97D6CF0C9403390C940B391F920F9280
:1038E0000FB60F9211242F933F938F939F93AF9313
:1038F000BF9380910B0390910C03A0910D03B091A5
:103900000E0330910A0323E0230F2D3758F501965B
:10391000A11DB11D20930A0380930B0390930C0308
:10392000A0930D03B0930E0380910F0390911003A9
:10393000A0911103B09112030196A11DB11D8093B6
:103940000F0390931003A0931103B0931203BF9140
:10395000AF919F918F913F912F910F900FBE0F903C
:103960001F90189526E8230F0296A11DB11DD2CFF6
:103970001F920F920FB60F9211242F933F934F93E4
:103980005F936F937F938F939F93AF93BF93EF93C7
:10399000FF93E0910301F09104010995FF91EF91EC
:1039A000BF91AF919F918F917F916F915F914F9157
:1039B0003F912F910F900FBE0F901F9018951F925F
:1039C0000F920FB60F9211242F933F934F935F9353
:1039D0006F937F938F939F93AF93BF93EF93FF93D7
:1039E000E0910101F09102010995FF91EF91BF91E2
:1039F000AF919F918F917F916F915F914F913F9187
:103A00002F910F900FBE0F901F9018951F920F923D
:103A10000FB60F9211242F933F934F935F936F93A1
:103A20007F938F939F93AF93BF93EF93FF93809177
:103A3000050390910603A0910703B0910803892B19
:103A40008A2B8B2BD1F190910403E0910203F0912A
:103A50000303808189278083809105039091060369
:103A6000A0910703B0910803181619061A061B0641
:103A70009CF48091050390910603A0910703B091F7
:103A800008030197A109B1098093050390930603E8
:103A9000A0930703B0930803FF91EF91BF91AF91FB
:103AA0009F918F917F916F915F914F913F912F9156
:103AB0000F900FBE0F901F901895809100010E94EB
:103AC000CA02EACF1F920F920FB60F9211242F93C2
:103AD0003F934F935F936F937F938F939F93AF9396
:103AE000BF93EF93FF9380E095E00E94DA05FF918A
:103AF000EF91BF91AF919F918F917F916F915F9166
:103B00004F913F912F910F900FBE0F901F901895DE
:103B10001F920F920FB60F9211242F938F939F93A2
:103B2000EF93FF93E0911005F09111058081E091F2
:103B30001605F091170582FD1BC090818091190533
:103B40008F5F8F7320911A05821741F0E09119055C
:103B5000F0E0E050FB4F958F80931905FF91EF91B6
:103B60009F918F912F910F900FBE0F901F901895DE
:103B70008081F4CF1F920F920FB60F9211242F93D2
:103B80003F934F935F936F937F938F939F93AF93E5
:103B9000BF93EF93FF938091B900887F803609F43B
:103BA0004AC0F0F5883209F4A7C018F5803109F44D
:103BB0009BC0B8F4882309F4F9C0883009F494C094
:103BC000FF91EF91BF91AF919F918F917F916F91F5
:103BD0005F914F913F912F910F900FBE0F901F90CB
:103BE0001895883109F488C0803251F780935703C3
:103BF00014C0803409F49DC040F48033B9F3883395
:103C0000F9F68093570385ECB0C0803509F485C080
:103C1000883509F496C0883499F60E944F1BD0CF9E
:103C2000883909F48CC038F5883729F050F4883683
:103C300011F0803729F683E0809359031092F60241
:103C400057C0883809F47BC0803919F0803809F0F2
:103C5000B7CF8091F602803208F071C0E091F60291
:103C600081E08E0F8093F6028091BB00F0E0EA5273
:103C7000FD4F80833DC0803B39F0E0F4803A09F489
:103C800079C0883A09F09CCF84E080935903109260
:103C9000D3021092D202E091D002F091D1020995A4
:103CA0008091D20281110FC081E08093D2021092E4
:103CB000B00209C0803C09F4A6CF883C09F4A3CF28
:103CC000883B09F07DCFE091D30281E08E0F809395
:103CD000D302F0E0E055FD4F80818093BB009091CE
:103CE000D3028091D20229C0809134038093BB001B
:103CF00085EC8093BC0064CF90915603809155036E
:103D0000981758F5E091560381E08E0F8093560383
:103D1000F0E0EB5CFC4F8081E9CFE091560381E05D
:103D20008E0F809356038091BB00F0E0EB5CFC4F5C
:103D3000808390915603809155039817C8F285E8C7
:103D4000D8CFE091560381E08E0F80935603809187
:103D5000BB00F0E0EB5CFC4F808380915803811145
:103D60005CCF81E08093330384EA8093BC0010929F
:103D7000590326CF85EC8093BC00109259038091A3
:103D8000F602803230F4E091F602F0E0EA52FD4FA4
:103D900010826091F60270E0E091D402F091D502B9
:103DA00086ED92E009951092F6020ACF1092570321
:103DB00034CF4F925F926F927F928F929F92AF9289
:103DC000BF92CF92DF92EF92FF920F931F93CF9308
:103DD000DF93CDB7DEB7A5970FB6F894DEBF0FBE61
:103DE000CDBFA0E0B5E013961C921E92129748EE4C
:103DF00053E060E070E014964D935D936D937C9377
:103E0000179784E291E011969C938E9385EC90E055
:103E10001D969C938E931C9784EC90E01F969C9328
:103E20008E931E9780EC90E051969C938E935097C2
:103E300081EC90E053969C938E93529782EC90E0A5
:103E400055969C938E93549786EC90E057969C934E
:103E50008E93569759961C9259975A961C925A9738
:103E60005B961C925B975C961C925C978AED94E043
:103E7000FC0113821282448355836683778326E391
:103E800031E031832083EDE9F5E0B183A083128234
:103E90002AEF30E03483238340E157E260E070E0B2
:103EA00045835683678370871586118A108A138A23
:103EB000128A158A148A178A168A118E108E138E0A
:103EC000128E158E148E178E168E11A210A213A2AA
:103ED00012A215A214A21092EC051092EF051092F6
:103EE000F3051092F2051092F5051092F40506EE16
:103EF00014E0412C512C26E9622E22E4722EF801A6
:103F0000448655866686778640E050E46CE176E428
:103F1000408B518B628B738B158A148A28E2218F18
:103F2000908F878B20E830E03387228724EB31E0C5
:103F300031832083E1ECF4E02EE931E0318320830A
:103F4000C12CD12C30E7E32E32E4F32EC486D58683
:103F5000E686F786408B518B628B738B2FE330E0C4
:103F6000358B248B2CE2208F978B868BE7E8F4E04F
:103F7000C12CD12CA0E8EA2EAFE3FA2EC486D58658
:103F8000E686F786108A118A128A138A84E6848B61
:103F9000168A158A108E178A118E128E80E490E090
:103FA000948F838F84E490E0968F858F88E490E0EF
:103FB00090A3878F8CE490E092A381A314A213A214
:103FC00016A215A210A617A288E891E0918380831B
:103FD00080E090E4ACE9B6E481A792A7A3A7B4A7D8
:103FE00080E090E0A8ECB2E485A796A7A7A7B0ABC5
:103FF00084E181AB42AB53AB64AB75ABC6AAD7AA25
:10400000E0AEF1AEBCE6EB2EB4E0FB2EDD24D394A3
:10401000F701D28280E8A82E81E0B82EB182A0827A
:1040200084E991EFA6ECB4E483879487A587B687EB
:1040300013821482158216821782108611861286C8
:10404000178A108E118E128E0E94E701F701678782
:10405000708B818B928B90E8892E91E0992E9182C2
:104060008082EBE3F4E084E791E091838083128225
:104070008FE083A717A616A6D0AA15A704A70CE061
:1040800014E0F801D1821282D38684E690E095870D
:1040900084878FEF9FEF97878687118A108A80E346
:1040A00095E7938B828B83E0848BCC24CA94C58A5A
:1040B000C68A80E090E0A0E0BFE3878B908FA18F5D
:1040C000B28F88EE93E096A385A310A617A213A63D
:1040D00014A615A616A68BE190E00E94923B7C01E7
:1040E000FC01D282B182A0828CEB9CE6ABE1B8E409
:1040F00083879487A587B6871382148215821682D8
:104100001782108611861286178A108E118E128ED3
:104110000E94E701F7016787708B818B928B9182F8
:104120008082F801F2A6E1A685EE93E0FC011282FE
:1041300028E531E03183208322E02383168228ECB6
:1041400030E0328721872EE0238727E02787C68A41
:1041500024EF31E0378F268F24EC39E031A320A300
:1041600012A244EE53E0558B448B22892860228BA7
:1041700025E2E6ECF1E0DE01119601900D922A9520
:10418000E1F7E9E8F3E028E431E03183208311A688
:1041900042A653A664A675A616A617A610AA11AA2B
:1041A00012AA13AA14AA15AA12AE1092D60310923C
:1041B000D7031092D8031092D90328E833E1309343
:1041C000DB032093DA0300E910ED23E030E00093F5
:1041D000DC031093DD032093DE033093DF0394AF01
:1041E00083AF85E2FE013196ABE8B3E001900D921A
:1041F0008A95E1F7E3E8F3E084E08283518340832A
:10420000A5960FB6F894DEBF0FBECDBFDF91CF915C
:104210001F910F91FF90EF90DF90CF90BF90AF90E4
:104220009F908F907F906F905F904F900895CF9365
:10423000DF93CDB7DEB7EA970FB6F894DEBF0FBEB7
:10424000CDBF789484B5826084BD84B5816084BD1F
:1042500085B5826085BD85B5816085BD80916E0024
:10426000816080936E001092810080918100826055
:104270008093810080918100816080938100809192
:1042800080008160809380008091B1008460809381
:10429000B1008091B00081608093B00080917A007D
:1042A000846080937A0080917A00826080937A00A3
:1042B00080917A00816080937A0080917A00806892
:1042C00080937A001092C1008CE192E09093AE0549
:1042D0008093AD0588E592E09093B0058093AF059B
:1042E00081E892E09093B2058093B1058AEA92E06A
:1042F0009093BC058093BB058CE69CE19093BE0532
:104300008093BD058AE69CE19093C0058093BF052C
:104310008FE49EE09093F3058093F20585EE93E0A1
:104320009093F7058093F60589E893E09093F10563
:104330008093F00587E894E09093EE058093ED0577
:104340008BE394E09093E9058093E8058CE094E09A
:104350009093EB058093EA0540E052EC61E070E059
:1043600080919D0590919E050E94A20080919D05DF
:1043700090919E059093AC058093AB0563E270E04D
:104380008BEA95E00E948B1561E085E00E94A10117
:1043900061E085E00E94A1010E94FC1610921F04BA
:1043A00010921E0484E690E09093280480932704E2
:1043B0001092170490931904809318048091330489
:1043C00090913404892B51F481E090E00E94923B5B
:1043D0009093340480933304DC011C9260E080915C
:1043E00020040E94A1010E940C022091310430910E
:1043F0003204DC01CB01820F931FA11DB11D8093FC
:10440000290490932A04A0932B04B0932C04809346
:104410002D0490932E04A0932F04B09330048CE6C7
:104420009CE19093AD048093AC048AE69CE1909368
:10443000AF048093AE0480E090E4ACE1B6E48093F6
:10444000F6049093F704A093F804B093F90486EE71
:1044500094E090939F0480939E041092A10480E0C6
:1044600090E0AAE7B4E48093D1049093D204A0939F
:10447000D304B093D40481EC94E090939D04809392
:104480009C048CE694E09093AB048093AA0480E0B3
:1044900094E2A4E7B9E48093B0049093B104A093AC
:1044A000B204B093B30487E894E00E94BB1140E0EB
:1044B00050E46CE176E487E894E00E94D5100E9415
:1044C000E7014B015C014AE0C42ED12CE12CF12C18
:1044D0000E94E701681979098A099B09683E7340BF
:1044E00081059105A8F3B1E0CB1AD108E108F108E4
:1044F000E8EE8E0EE3E09E1EA11CB11CC114D10497
:10450000E104F10429F764E670E087E894E00E9492
:10451000660F8BE394E00E94181540E050E060E8DD
:104520007FE38BE394E00E949E14EBE3F4E088EEDB
:1045300093E022E330E094838383368325838C5990
:104540009F4F3496803D47E09407A9F789E0809318
:104550003D048091C4039091C503DC01ED91FC9171
:104560000190F081E02D0995C0909303D0909403C1
:10457000E0909503F090960320E030E0A901C70198
:10458000B6010E94DF37882331F0B701A60189E820
:1045900093E00E944C0AC0909703D0909803E0905B
:1045A0009903F0909A0320E030E0A901C701B60119
:1045B0000E94DF37882331F0B701A60189E893E034
:1045C0000E94F309C0909B03D0909C03E0909D0350
:1045D000F0909E0320E030E0A901C701B6010E94DF
:1045E000DF37882331F0B701A60189E893E00E9404
:1045F0009C0A8091C4039091C503DC01ED91FC916C
:104600000684F785E02D6CEC7EE009956091A503AA
:104610007091A6036115710559F08091C4039091C2
:10462000C503DC01ED91FC910288F389E02D099529
:104630006BEC7EE085EE93E00E94E90C6CE271E0A9
:1046400085EE93E00E943D1885EE93E00E942418C9
:104650001092B00380910D0190910E01A0910F0175
:10466000B09110018093B3039093B403A093B5036A
:10467000B093B6038091090190910A01A0910B01BA
:10468000B0910C018093B7039093B803A093B90342
:10469000B093BA0389E893E00E947D0BC0900501B6
:1046A000D0900601E0900701F090080120E030E092
:1046B00040EA50E4C701B6010E94A93A181634F046
:1046C000C12CD12C30EAE32E30E4F32EC092050148
:1046D000D0920601E0920701F092080161E080911A
:1046E00085030E94A10161E0809185030E9473010E
:1046F0000E94690684E08093860383E080938703A9
:104700000E94461788E80E94991383E00E9499133B
:104710000E94941380E8809388030E94461780E9E2
:104720000E94991380E80E9499130E9494130E949A
:10473000461780E20E9499130E949413FE013A9654
:10474000FCABEBAB44244394512C80919D0590919C
:104750009E05DC01ED91FC910084F185E02D099529
:10476000892B09F442C080919D0590919E05DC0142
:10477000ED91FC910284F385E02D0995682FC82EF8
:10478000D92ED092C405C092C305E091CA05F0911C
:10479000CB05309711F00C945B316091C505709199
:1047A000C6058091C9058111B5C07093C805609395
:1047B000C705D092C605C092C50581E08093C905A2
:1047C0008091CA059091CB05892B11F00C94D636B7
:1047D0008091C90581110C94D6361092DB05109298
:1047E000DC051092DD051092DE058091DB059091CD
:1047F000DC05A091DD05B091DE05892B8A2B8B2B82
:1048000089F00E940C020091DB051091DC052091DB
:10481000DD053091DE05061717072807390710F464
:104820000E94020187E894E00E947F1180919F0519
:1048300080FF34C00E94E7010091A6051091A705F2
:104840002091A8053091A9050617170728073907F1
:1048500010F00C94EA3640E067E874E08BEA95E0EB
:104860000E94DC158091A6059091A705A091A8054E
:10487000B091A9054091A2055091A3056091A405AE
:104880007091A505840F951FA61FB71F8093A605DD
:104890009093A705A093A805B093A90500910903DB
:1048A0008091D6039091D703A091D803B091D903FA
:1048B000892B8A2B8B2BD9F04091CE035091CF03BB
:1048C0006091D0037091D1038091D2039091D30372
:1048D000A091D403B091D503481759076A077B0705
:1048E00011F00C94F23689E893E00E94440B109288
:1048F00009030E94461780E60E94991310E08091F8
:104900008603181710F00C94893780E00E949913E1
:104910001F5FF5CFDC2CCC24C60ED71ED092C60567
:10492000C092C5051092C905B7E6CB16D10409F4AB
:1049300046C708F033C3F4E4CF16D10411F40C9445
:10494000E12F08F048C131E1C316D10409F4AAC629
:1049500008F09AC056E0C516D10409F4E8C608F07C
:104960004AC092E0C916D10409F4F9C5F8F4C1149B
:10497000D10409F4EAC5CA94CD2809F4E9C561E275
:1049800070E08BEA95E00E948B156091C5057091EF
:10499000C6058BEA95E00E948B156091C705709162
:1049A000C8058BEA95E00E948B150ACFE4E0CE168D
:1049B000D10409F493C6F5E0CF16D10401F783E0E2
:1049C00090E09093CB058093CA0588E190E09093A6
:1049D000CD058093CC0581E08093E3052EE130E0A6
:1049E00040E050E02093E4053093E5054093E60570
:1049F0005093E705E5CE2CE0C216D10409F4A4C615
:104A000008F547E0C416D10409F479C658E0C51684
:104A1000D10409F0B4CFE091BB05F091BC0530970B
:104A200009F4FCC500919D0510919E05D8018D915A
:104A30009C91DC01ED90FC900995682FC801F7016D
:104A40000995BECE8EE0C816D10409F406C690E1E1
:104A5000C916D10409F093CF5092CB054092CA05F4
:104A600082E08093D90584E090E09093CD05809317
:104A7000CC051092DF051092E0051092E10510922E
:104A8000E2051092D8059CCEAAE3CA16D10411F40F
:104A90000C94952F08F05AC0E6E1CE16D10409F423
:104AA0006BC508F522E1C216D10409F410C633E142
:104AB000C316D10409F063CF64E170E08BEA95E09E
:104AC0000E948B150E940C02AB01BC018BEA95E0A1
:104AD0000E946B150E94E701AB01BC018BEA95E0D7
:104AE0000E946B156DCE48E1C416D10409F46DC562
:104AF0005AE1C516D10409F042CFE091B105F09119
:104B0000B205309709F464CECE0101960995182FAD
:104B100069E170E08BEA95E00E948B158091AB050E
:104B20009091AC05DC01ED91FC910190F081E02DBC
:104B3000612F0995412F50E0BE016F5F7F4F80913B
:104B4000AB059091AC050E9411163ACE80E4C816D0
:104B5000D10411F40C94AC2FA0F4ABE3CA16D10429
:104B600011F40C94A12FBFE3CB16D10409F007CFA9
:104B7000E091F405F091F505309709F429CE0995F7
:104B80001FCEE1E4CE16D10411F40C94C82FF2E448
:104B9000CF16D10409F0F3CE0091F0051091F10584
:104BA0000115110509F414CE63E470E08BEA95E079
:104BB0000E948B15F801EB5BFF4F408151816281B0
:104BC0007381C8010E944F09AB01BC018BEA95E0DB
:104BD0000E944B15F5CD26E5C216D10411F40C94B4
:104BE000AF3008F02BC140E5C416D10411F40C9489
:104BF000453008F04FC087E4C816D10411F40C9476
:104C0000123028F5A5E4CA16D10411F40C94FB2F38
:104C1000B6E4CB16D10409F0B2CE0091F0051091A4
:104C2000F1050115110509F4D3CD67E470E08BEAB5
:104C300095E00E948B15D8019A964D915D916D91EA
:104C40007C919D978BEA95E00E944B15B9CDE8E4E5
:104C5000CE16D10411F40C942B30F9E4CF16D10404
:104C600009F08DCE5092CB054092CA0582E0809328
:104C7000D90587E490E09093CD058093CC05109200
:104C8000DF051092E0051092E1051092E205109206
:104C9000D80596CD23E5C216D10411F40C947830D2
:104CA00008F0AAC041E5C416D10411F40C945F3099
:104CB00052E5C516D10409F062CE6090F0057090FF
:104CC000F1056114710409F483CD63E570E08BEAAA
:104CD00095E00E948B15F30185AD96AD892B39F4D3
:104CE0004285538564857585C3010E944C0A830102
:104CF000015C1F4FD8018D919C91892B41F4F301E8
:104D00004685578560897189C3010E94F309D301E3
:104D1000DD962D913C91F8018081918140E050E039
:104D2000BA012817390709F462C093012D5B3F4F80
:104D30003EAB2DABD9018D919C91892B41F4F301B0
:104D40004289538964897589C3010E949C0AC30101
:104D50000E94780A4B015C01C3010E941F0A6B018B
:104D60007C01D301DD962D903C90F80100811181EA
:104D7000C101801B910BADA9BEA96D917C910E94D0
:104D8000373B90E080E00E94E4376DAB7EAB8FABA9
:104D900098AF200E311E36942794B10190E080E048
:104DA0000E94E4379B01AC016DA97EA98FA998AD43
:104DB0000E94453820E034E244E759E40E94A039DB
:104DC0006DAB7EAB8FAB98AFA5019401C701B60167
:104DD0000E9433392DA93EA94FA958AD0E94A03990
:104DE000AB01BC01F301428B538B648B758B8BEA57
:104DF00095E00E944B15E4CC84E5C816D10411F46B
:104E00000C94913095E5C916D10409F0B8CD5092B3
:104E1000CB054092CA051092D9058AE490E09093A0
:104E2000CD058093CC051092DF051092E00510921D
:104E3000E1051092E2051092D805C2CCACE5CA1685
:104E4000D10411F40C94183108F048C0E9E5CE16ED
:104E5000D10411F40C94E53018F527E5C216D104FD
:104E600011F40C94CD3038E5C316D10409F087CD88
:104E70000091F6051091F7050115110509F4A8CC6C
:104E800069E570E08BEA95E00E948B15F801668178
:104E900070E08091AB059091AC050E940A1690CC11
:104EA0004AE5C416D10411F40C94F5305BE5C5163F
:104EB000D10409F064CD21E030E040E050E02093DF
:104EC000DF053093E0054093E1055093E2058CE463
:104ED00090E09093CB058093CA0572CC8FE5C816FD
:104EE000D10411F40C94493178F5ADE5CA16D1041A
:104EF00011F40C943131BEE5CB16D10409F03FCD4D
:104F00000091F6051091F7050115110509F460CC23
:104F10006FE570E08BEA95E00E948B15E090AB05A1
:104F2000F090AC05D701ED91FC91C080D18069E093
:104F3000C8010E945817F801858F68E084FF61E07E
:104F4000C701F60109953CCCE5E6CE16D10409F47B
:104F50003EC408F055C420E6C216D10409F00FCDB6
:104F60000091F6051091F7050115110509F430CCF3
:104F700061E670E08BEA95E00E948B15D8011696E9
:104F80008C911697882311F40C94513117966D91DA
:104F90007C918BEA95E00E948B1512CC3BE0C31606
:104FA00032E0D30609F4D9C508F07BC159E0C51633
:104FB00051E0D50609F4DDC408F091C092E0C916AD
:104FC00091E0D90609F480C408F046C0BAE7CB16D0
:104FD000D10409F42BC450F5F8E7CF16D10409F435
:104FE0004AC429E7C216D10409F0C9CC87E190E090
:104FF0009093CB058093CA0583E08093D90583E025
:1050000090E09093CD058093CC0588E190E090935B
:10501000CF058093CE051092E4051092E50510921D
:10502000E6051092E7051092D805CACBC11431E00D
:10503000D30609F441C441E0C416D40609F09FCC5C
:105040008091E8059091E905DC01ED91FC910680E5
:10505000F781E02D0995B4CB56E0C51651E0D50691
:1050600009F44EC4C8F494E0C91691E0D90609F4D5
:105070003FC4A5E0CA16A1E0DA0609F080CCE091B1
:10508000E805F091E905309709F4A2CB628184E04C
:1050900091E00E94C71594CBB7E0CB16B1E0DB06D8
:1050A00009F446C4E8E0CE16E1E0DE0609F067CC7C
:1050B0005092CB054092CA051092D9058BE290E040
:1050C0009093CD058093CC051092DF051092E005FA
:1050D0001092E1051092E2051092D80571CBF5E02F
:1050E000CF16F2E0DF0609F4B3C408F08DC030E655
:1050F000C31631E0D30609F45AC3C8F55AE0C51601
:1051000051E0D50609F456C48BE0C81681E0D806F4
:1051100009F035CC0091E8051091E905011511055C
:1051200009F456CB6AE071E08BEA95E00E948B159A
:10513000F80184A595A5009709F455C4DC01ED910B
:10514000FC910084F185E02DD801D0966C910995F1
:105150009B01AC0160E070E080E89FE30E9433397E
:10516000AB01BC018BEA95E00E944B1529CB91E085
:10517000C91692E0D90609F458C4A3E0CA16A2E001
:10518000DA0609F0FCCBE091EC05F0E0EE0FFF1F32
:10519000E651FA4F808191810E94630DF090EC05F9
:1051A000EF2DF0E0EE0FFF1FE651FA4F0081118165
:1051B00062E072E08BEA95E00E948B158091AB056E
:1051C0009091AC0561E06F0DDC01ED91FC910190D7
:1051D000F081E02D0995F801438154816581768144
:1051E0008BEA95E00E946B15D80117966D917C9122
:1051F0008BEA95E00E948B15F801618572858BEA38
:1052000095E00E948B15DCCAB8E0CB16B2E0DB0655
:1052100009F465C498F5F6E0CF16F2E0DF0609F46C
:1052200045C427E0C21622E0D20609F0A8CBF090D0
:10523000EC05EF2DF0E0EE0FFF1FE651FA4F008175
:10524000118166E072E08BEA95E00E948B158091F7
:10525000AB059091AC0561E06F0DDC01ED91FC9127
:105260000190F081E02D0995F8014789508D618DFD
:10527000728D8BEA95E00E944B15A2CA39E0C316E5
:1052800032E0D30609F443C44AE0C41642E0D4062F
:1052900009F075CB86E390E09093CB058093CA0527
:1052A0008FCA5AE0C5165AEAD50609F4DBC408F0DD
:1052B00095C094E6C91695E6D90609F481CA08F0A6
:1052C0005DC0B0E1CB16B2E0DB0609F484C418F58A
:1052D000FCE0CF16F2E0DF0609F467C42FE0C21647
:1052E00022E0D20609F04BCB5092CB054092CA0582
:1052F0001092D90587E390E09093CD058093CC057B
:105300001092DF051092E0051092E1051092E2057F
:105310001092D80555CA31E1C31632E0D30609F41C
:1053200080C442E1C41642E0D40609F028CBF090D4
:10533000EC05EF2DF0E0EE0FFF1FE651FA4F008174
:10534000118161E172E08BEA95E00E948B158091FA
:10535000AB059091AC0561E06F0DDC01ED91FC9126
:105360000190F081E02D0995F80143A554A565A5AC
:1053700076A58BEA95E00E944B1522CA56E0C51629
:105380005AEAD50609F4E3C4B0F492E6C91694E7E4
:10539000D90609F471C1A3E6CA16A4E7DA0609F032
:1053A000EECA85E090E09093CB058093CA058FEF1D
:1053B0008093D90505CAB8E0CB16BAEADB0609F432
:1053C00049C4E9E0CE16EAEADE0609F0D8CA6091DF
:1053D000EF0588E09AEA0E94C715F2C9F1E1CF16FD
:1053E000FAEADF0609F445C508F058C03EE0C316E6
:1053F0003AEAD30609F40AC520F55CE0C5165AEA74
:10540000D50609F4E7C48DE0C8168AEAD80609F083
:10541000B6CA5092CB054092CA0582E08093D90566
:105420008BE590E09093CD058093CC051092DF053D
:105430001092E0051092E1051092E2051092D80555
:10544000BFC99FE0C9169AEAD90609F4F9C4A0E1D8
:10545000CA16AAEADA0609F092CAE091EF05F0E06E
:10546000EE0FFF1FE351FA4F0081118161E17AEAEB
:105470008BEA95E00E948B15D80157968D919C91EF
:10548000DC01ED91FC910680F781E02D0995AB01DF
:10549000BC018BEA95E00E944B1592C9B5E1CB1691
:1054A000BAEADB0609F4FEC450F5F2E1CF16FAEAD7
:1054B000DF0609F4FBC324E1C2162AEAD20609F08A
:1054C0005ECAE091EF05F0E0EE0FFF1FE351FA4FE7
:1054D0000081118165E17AEA8BEA95E00E948B15E3
:1054E000D801ED91FC910680F781E02DC801099566
:1054F000AB01BC018BEA95E00E944B1561C937E115
:10550000C3163AEAD30609F4F8C408F4E4C458E12F
:10551000C5165AEAD50609F032CA5092CB05409218
:10552000CA0582E08093D90580E690E09093CD058E
:105530008093CC051092DF051092E0051092E105F2
:105540001092E2051092D8053BC90E94020138C9A9
:105550006DEC7BEA8BEA95E00E948B1531C963E024
:1055600070E08BEA95E00E948B156FE070E08BEAAB
:1055700095E00E948B1524C9E091AD05F091AE0530
:10558000309709F425C9CE0101960995182F65E1D8
:1055900070E08BEA95E00E948B158091AB059091AD
:1055A000AC05DC01ED91FC910190F081E02D612FC3
:1055B0000995412F50E0BE016F5F7F4F8091AB0591
:1055C0009091AC050E941116FBC8E091AF05F091D7
:1055D000B005309709F4FCC8CE0101960995182F43
:1055E00067E170E08BEA95E00E948B158091AB0536
:1055F0009091AC05DC01ED91FC910190F081E02DE2
:10560000612F0995412F50E0BE016F5F7F4F809160
:10561000AB059091AC050E941116D2C869E070E00C
:105620008BEA95E00E948B158091AB059091AC05BB
:10563000DC01ED91FC910190F081E02D63E0099592
:105640008091AB059091AC05DC01ED91FC9101904E
:10565000F081E02D60E00995B3C86FE070E08BEA5F
:1056600095E00E948B1540E052EC61E070E08BEA1F
:1056700095E00E946B15A4C863E674E78BEA95E099
:105680000E948B1510E000E0B8018091AB0590916D
:10569000AC050E9418160F5F1F4F0115B1E01B07E4
:1056A00099F78EC81091AA0562E170E08BEA95E047
:1056B0000E948B158091AB059091AC05DC01ED91BA
:1056C000FC910190F081E02D612F099579C886E069
:1056D00090E09093CB058093CA0572C88EE190E06C
:1056E000A0E0B0E08093E4059093E505A093E60583
:1056F000B093E70585E090E00E941F1661C883E043
:1057000090E09093CB058093CA0588E190E0909358
:10571000CD058093CC0581E08093E3051092E405EC
:105720001092E5051092E6051092E70549C810921F
:10573000E4051092E5051092E6051092E70587E072
:1057400090E00E941F163CC8DE011196EEE0F0E0EA
:105750008D0121E2CF01019620935700E491ED9352
:10576000FC01449711F4E5E1F0E04BA95CA94A176C
:105770005B0781F76DE070E08BEA95E00E948B1586
:1057800069E070E08091AB059091AC050E9418161D
:105790008091AB059091AC05DC01ED91FC9102800C
:1057A000F381E02D49E050E0B801099509C884E192
:1057B00090E09093CB058093CA050C94E023E5E13B
:1057C000F0E0F093CB05E093CA050C94E0235092EF
:1057D000CB054092CA0582E08093D90586E190E02E
:1057E0009093CD058093CC051092DF051092E005D3
:1057F0001092E1051092E2051092D8050C94E02376
:10580000C090A205D090A305E090A405F090A50556
:1058100065E670E08BEA95E00E948B15B701A60162
:105820008BEA95E00E946B150C94E023E091C10592
:10583000F091C205309711F40C94E8230995609318
:10584000DF057093E0058093E1059093E2056BE737
:1058500070E08BEA95E00E948B154091DF05509136
:10586000E0056091E1057091E2058BEA95E00E9408
:105870006B150C94E02387E190E09093CB05809327
:10588000CA0583E08093D90583E090E09093CD052D
:105890008093CC0589E190E09093CF058093CE056D
:1058A0001092E4051092E5051092E6051092E705C6
:1058B0001092D8050C94E02388E290E09093CB05F9
:1058C0008093CA050C94E02363E071E08BEA95E0D5
:1058D0000E948B158091AB059091AC05DC01ED9198
:1058E000FC910190F081E02D6AE009950C94E02391
:1058F00089E290E09093CB058093CA050C94E02355
:105900005092CB054092CA051092D9058AE290E0E8
:105910009093CD058093CC051092DF051092E005A1
:105920001092E1051092E2051092D8050C94E02344
:105930000091E8051091E9050115110511F40C9489
:10594000E82366E071E08BEA95E00E948B15F80190
:105950008281F4E08F9FC0011124080F191FD80124
:1059600013966D917C918BEA95E00E948B150C94B7
:10597000E0230091E8051091E9050115110511F4E6
:105980000C94E82368E071E08BEA95E00E948B15A7
:10599000F8018281F4E08F9FC0011124080F191FC4
:1059A000D80115966D917C918BEA95E00E948B153C
:1059B0000C94E0235092CB054092CA0582E080937C
:1059C000D9058CE290E09093CD058093CC051092A0
:1059D000DF051092E0051092E1051092E2051092A9
:1059E000D8050C94E02306A517A560E070E080E8D8
:1059F0009FE30115110509F4B3CBD80113966C91FF
:105A000070E090E080E00E94E4376B017C01F801D7
:105A1000608170E090E080E00E94E4379B01AC017F
:105A2000C701B6010E94A0399BCB8091EA059091F5
:105A3000EB050E94630DE091EC05F0E0EE0FFF1F17
:105A4000E651FA4F808191810E94A6150C94E023C3
:105A5000F090EC05EF2DF0E0EE0FFF1FE651FA4F4E
:105A60000081118164E072E08BEA95E00E948B1561
:105A70008091AB059091AC0561E06F0DDC01ED917B
:105A8000FC910190F081E02D0995F80166857785FC
:105A90008BEA95E00E948B15D80150966D917C9110
:105AA0008BEA95E00E948B150C94E0235092CB0575
:105AB0004092CA0582E08093D90584E390E09093F8
:105AC000CD058093CC051092DF051092E005109271
:105AD000E1051092E2051092D8050C94E023509253
