:020000040000FA
:100000000C945F000C9487000C9487000C9487007C
:100010000C9487000C9487000C9487000C9477084C
:100020000C9487000C9487000C9487000C94870034
:100030000C9487000C9487000C9487000C94870024
:100040000C942D080C9487000C94F9080C94D30898
:100050000C9487000C9487000C9487000C94870004
:100060000C9487000C9487000200000000240027F5
:10007000002A00000000080002010000030407003D
:100080000000000000000001020408102040800170
:1000900002040810200102040810200000000025BE
:1000A0000028002B000404040404040404020202D7
:1000B000020202030303030303002B09A7191124FF
:1000C0001FBECFEFD8E0DEBFCDBF11E0A0E0B1E0B2
:1000D000E0EEFAE302C005900D92AC35B107D9F716
:1000E00023E0ACE5B1E001C01D92AA30B207E1F710
:1000F00010E0CEE5D0E004C02197FE010E94171C5D
:10010000CD35D107C9F70E94D7090C94631D0C9413
:1001100000002091F2023091F3028217930778F5E4
:100120002091F802222341F0629FB0011124672F31
:10013000249FA0011124452FE091FE022091F90295
:100140003091FA025091FB02E5131AC0FC01EE0F48
:10015000FF1F8E0F9F1F820F931FE091FB02E80F7E
:10016000F92FF11D6083E091FC02E80FF92FF11DDA
:1001700040832091FD02820F911DFC0110820895A1
:10018000880F991F880F991F820F931FE80FF92F6F
:10019000F11D1082E2CF90E0FC01ED58FF4F249159
:1001A000FC01E957FF4F3491FC01EB55FF4FE491FF
:1001B000EE23C9F0222339F0233001F1A8F42130D5
:1001C00019F1223029F1F0E0EE0FFF1FE556FF4F45
:1001D000A591B4918FB7F894EC91611126C0309538
:1001E0003E233C938FBF08952730A9F02830C9F0F3
:1001F000243049F7809180008F7D03C0809180007A
:100200008F7780938000DFCF84B58F7784BDDBCF7D
:1002100084B58F7DFBCF8091B0008F778093B00045
:10022000D2CF8091B0008F7DF9CF3E2BDACF61E045
:100230008091EC020C94CB00CF93DF9390E0FC0113
:10024000E957FF4F24918B559F4FFC0184918823E0
:10025000D1F090E0880F991FFC01E759FF4FA5915D
:10026000B491FC01E556FF4FC591D49161110EC0C8
:100270009FB7F8948C91E22FE0958E238C93288180
:10028000E223E8839FBFDF91CF9108958FB7F89461
:10029000EC91E22BEC938FBFF6CF8E3008F08E50AE
:1002A0008770806480937C0080917A008064809362
:1002B0007A0080917A0086FDFCCF80917800909141
:1002C000790008953FB7F8948091480290914902CF
:1002D000A0914A02B0914B0226B5A89B05C02F3FC2
:1002E00019F00196A11DB11D3FBFBA2FA92F982F5C
:1002F0008827BC01CD01620F711D811D911D42E057
:10030000660F771F881F991F4A95D1F708950F939D
:100310001F93CF93DF93CDB7DEB729970FB6F8942D
:10032000DEBF0FBECDBF8091F9029091FA02892BFA
:1003300009F47CC00E9462010091FF021091000349
:100340002091010330910203601771078207930720
:1003500040F46093FF027093000380930103909335
:1003600002030091FF0210910003209101033091DC
:100370000203601B710B820B930B6C327140810581
:100380009105C0F2F8948091F4029091F5029A835D
:100390008983E091F902F091FA02DF0111968081E0
:1003A00089879091F002E0910303F091040380911A
:1003B0000503992309F445C09081982B9887908173
:1003C000809589238F838F818C8388E08B835885E8
:1003D0006F8149853B812C8189819A81508347FDBA
:1003E000252F3A952083262F39F0441F00C00000A6
:1003F0006083000000C0F2CF38E04D9160830000C0
:10040000019761F7F0930403E093030349873B836B
:100410002C839A83898378940E9462016093FF02FF
:1004200070930003809301039093020329960FB603
:10043000F894DEBF0FBECDBFDF91CF911F910F911A
:1004400008959081982B98879081809589238F8338
:100450008F818E8388E08D8358856F8149853D81AA
:100460002E8189819A81508347FD252F00C000C0CD
:10047000208300C000C000C000C000C06083000036
:10048000262F3A9541F0441F000000C000C000C074
:1004900000C000C0E8CF38E04D9100C0608300C0CC
:1004A000019709F7F0930403E093030349873D8321
:1004B0002E83AFCF2FB7F89460914402709145021C
:1004C00080914602909147022FBF089590910001BC
:1004D00089130BC0E8E6F0E0E4919FEF90930001F0
:1004E000E13049F028F0E23061F060E00C94CB009C
:1004F00010926E00FACF90916F009D7F90936F00E5
:10050000F4CF909170009D7F9093700091E0909354
:10051000B0009091B100987F94609093B1001092D8
:10052000B300E3CF4F925F926F927F928F929F9230
:10053000AF92BF92CF92DF92EF92FF920F931F93F1
:10054000CF93DF9300D000D01F92CDB7DEB78B01E1
:1005500029013A01909100018917C9F09F3F09F4E0
:100560007EC00F900F900F900F900F90DF91CF9162
:100570001F910F91FF90EF90DF90CF90BF90AF90C1
:100580009F908F907F906F905F904F900895E8E6D6
:10059000F0E094919D8397FDE4CF61E00E941C01FF
:1005A0008D81882321F09D81923009F04AC1480154
:1005B000B12CA12C60E072E18AE790E0A5019801DE
:1005C0000E94F81B29833A834B835C8369017A017B
:1005D00081E0C81AD108E108F1089FEFC916D104DB
:1005E000E104F10409F00CF401C160E472E48FE06D
:1005F00090E0A50198010E94F81B69017A0181E051
:10060000C81AD108E108F1089D81923009F0A2C012
:100610008FEFC816D104E104F10409F00CF4E6C12F
:1006200060E970ED83E090E0A50198010E94F81B5D
:1006300069017A0191E0C91AD108E108F1088FEF48
:10064000C816D104E104F10411F00CF07FC183E07D
:100650009091B100987F892B8093B100CFC0809397
:100660000001E8E6F0E094919D839F3F09F479CF83
:10067000913041F150F0923009F446C09D8197FDD0
:1006800070CF61E00E941C018ECF14BC15BC94B5E4
:10069000926094BD95B5916095BD282F30E0F90129
:1006A000EB55FF4FE491F0E0EE0FFF1FE556FF4FD3
:1006B00045915491F901E957FF4FE491E0936401AA
:1006C0001D826BCF1092800010928100909181006A
:1006D0009860909381009091810091609093810047
:1006E000282F30E0F901EB55FF4FE491F0E0EE0FD9
:1006F000FF1FE556FF4F45915491F901E957FF4F10
:10070000E491E093630149CF1092B0001092B100E0
:100710009091B00092609093B0009091B100916080
:100720009093B100282F30E0F901EB55FF4FE49191
:10073000F0E0EE0FFF1FE556FF4F459154915093A7
:100740006E0140936D01F901E957FF4FE491E09389
:100750006F0123CF9FEFC916D104E104F10409F022
:100760000CF46DC068E478EE81E090E0A50198019A
:100770000E94F81B69017A0181E0C81AD108E108DA
:10078000F1089D81992309F4FAC08FEFC816D104AE
:10079000E104F10411F00CF0FBC0EFC064E274EF6F
:1007A00080E090E0A50194010E94F81B69017A01A4
:1007B00081E0C81AD108E108F10885E09FEFC91669
:1007C000D104E104F10409F008F442CF62E17AE7D0
:1007D00080E090E0A50194010E94F81B69017A0174
:1007E00081E0C81AD108E108F108E5C081E09D81E7
:1007F00091112ECF95B5987F892B85BD2FEF3FEFB7
:10080000A901411451046104710409F043C09D81A0
:10081000913009F45EC0923009F46DC09111A1CEFF
:10082000C7BC2093690130936A0140936B015093D8
:100830006C0180916E00826080936E0092CE82E0A7
:10084000D6CFB12CA12C60E072E18AE790E0A5013F
:1008500098010E94F81B69017A0181E0C81AD10849
:10086000E108F108C114D10491E0E906F10404F5AE
:1008700091E08D81813011F680918100887F892BF4
:10088000809381002FEF3FEFA901411451046104CF
:100890007104F9F0D801AA0FBB1FA30192010E94B5
:1008A0002C1C28EE33E040E050E00E94D61BAFCF76
:1008B00068E478EE81E090E0A50198010E94F81BC1
:1008C00069017A0181E0C81AD108E108F10893E0D2
:1008D000D0CFD0928900C0928800209365013093D8
:1008E0006601409367015093680180916F008260B8
:1008F00080936F0036CEC092B30020937001309386
:100900007101409372015093730180917000826075
:100910008093700026CE84E09FEFC916D104E104D5
:10092000F10409F008F466CFC980DA80EB80FC801E
:100930008AE0F594E794D794C7948A95D1F781E03B
:10094000C81AD108E108F10885E054CF68E478EED0
:1009500081E090E0A50198010E94F81B69017A01ED
:1009600081E0C81AD108E108F1089FEFC916D10447
:10097000E104F10411F00CF011CF84E069CE83E0C2
:100980009FEFC916D104E104F10409F00CF432CF51
:1009900062E17AE780E090E0A50194010E94F81BF3
:1009A00069017A0181E0C81AD108E108F1089D8146
:1009B000992309F4B0CF86E09FEFC916D104E10472
:1009C000F10409F008F444CEC980DA80EB80FC80A1
:1009D0009AE0F594E794D794C7949A95D1F781E07B
:1009E000C81AD108E108F10887E032CE82E030CEA3
:1009F000AF92BF92CF92DF92EF92FF920F931F932D
:100A0000CF93DF936C017B018B01040F151FEB016A
:100A10005E01AE18BF08C017D10759F06991D60121
:100A2000ED91FC910190F081E02DC6010995892B93
:100A300079F7C501DF91CF911F910F91FF90EF9052
:100A4000DF90CF90BF90AF900895FC01538D448DFF
:100A5000252F30E0842F90E0821B930B541710F069
:100A6000CF96089501970895FC01918D828D981776
:100A700061F0A28DAE0FBF2FB11D5D968C91928D4E
:100A80009F5F9F73928F90E008958FEF9FEF08957F
:100A9000FC01918D828D981731F0828DE80FF11D48
:100AA000858D90E008958FEF9FEF0895FC01918D63
:100AB000228D892F90E0805C9F4F821B91098F735C
:100AC000992708958CE492E00E94560521E0892B35
:100AD00009F420E0822F089580E090E0892B29F02E
:100AE0000E94620581110C9400000895FC01A48D00
:100AF000A80FB92FB11DA35ABF4F2C91848D90E040
:100B000001968F739927848FA689B7892C93A08922
:100B1000B1898C91837080648C93938D848D9813AC
:100B200006C00288F389E02D80818F7D808308953F
:100B3000EF92FF920F931F93CF93DF93EC0181E02D
:100B4000888F9B8D8C8D98131AC0E889F9898081D4
:100B500085FF15C09FB7F894EE89FF896083E88907
:100B6000F98980818370806480839FBF81E090E0F9
:100B7000DF91CF911F910F91FF90EF900895F62E86
:100B80000B8D10E00F5F1F4F0F731127E02E8C8D20
:100B90008E110CC00FB607FCFACFE889F989808165
:100BA00085FFF5CFCE010E947605F1CFEB8DEC0FDE
:100BB000FD2FF11DE35AFF4FF0829FB7F8940B8F82
:100BC000EA89FB8980818062CFCFCF93DF93EC01EC
:100BD000888D8823B9F0AA89BB89E889F9898C9125
:100BE00085FD03C0808186FD0DC00FB607FCF7CFE1
:100BF0008C9185FFF2CF808185FFEDCFCE010E94E1
:100C00007605E9CFDF91CF910895EFE5F1E080839C
:100C1000918342E050E0BF018CE492E00C94F80430
:100C2000682F8CE492E00C949805E2E2F1E09EE0FB
:100C300023E180818E3039F42083319681E0E832DF
:100C4000F807B9F708958331C1F79083F6CFCF93B2
:100C5000DF93EC01805991408035910528F084584C
:100C60009E4F8F34910588F483E1809307018EE0D5
:100C700080930B010E94150681E080935E01CBE416
:100C8000D0E0CE01DF91CF91089580915E0188235D
:100C9000C1F38EE08093070183E180930B010E94F2
:100CA000150610925E01EDCFEF92FF920F931F9306
:100CB000CF93DF9360E088E00E94CB00CBE3DFE1DD
:100CC000CE010197F1F761E088E00E94CB00219707
:100CD000F1F781E090E090935D0180935C010BE976
:100CE0001FE09BE3E92E9FE1F92EC0915C01D091BA
:100CF0005D01CF3F87E0D807F8F460E088E00E940C
:100D0000CB008091790190917A018C239D23892BCE
:100D100089F0C7010197F1F761E088E00E94CB00FC
:100D2000C8010197F1F7CC0FDD1FD0935D01C0938F
:100D30005C01DBCFC801EECF61E088E0DF91CF91AD
:100D40001F910F91FF90EF900C94CB008EBD00008F
:100D50000DB407FEFDCF8EB508951F93CF93DF939B
:100D6000182FCB01BA0120E030E040EA50E40E94A5
:100D70003A1A20E030EF4FE755E40E94691B0E94C9
:100D8000AC1A611580E1780710F06FEF7FE0EB019E
:100D9000D063E12FF0E0E15DFE4F108160E0812F34
:100DA0000E94CB008D2F0E94A6068C2F0E94A606C3
:100DB00061E0812FDF91CF911F910C94CB00CF93F5
:100DC000C82F40E050E0BA010E94AD0684E0C89F01
:100DD000F0011124E65EFD4F10821182128213820F
:100DE000CF9108950F931F93CF93DF93C82F40E0C7
:100DF00050E060EA70E40E94AD06D0E0FE01EE0F24
:100E0000FF1FE558FE4F008111810F3F100781F051
:100E10000E945A02CC0FDD1FCC0FDD1FC65EDD4FD6
:100E2000600F711F811D911D688379838A839B8365
:100E3000DF91CF911F910F9108950F931F93CF933F
:100E4000DF9360E088E00E94CB0040E064E682E04F
:100E500090E00E9489000E948701C0910301D09117
:100E60000401CF3FDC07E1F00E945A028B019C0194
:100E70000C0F1D1F211D311D009326021093270208
:100E800020932802309329026C507E4F8F4F9F4F42
:100E90006093220270932302809324029093250290
:100EA00010923E0210923D02C0913D02D0913E024E
:100EB000C230D1057CF4FE01E455FE4F80818530BF
:100EC00019F48C2F0E94F2062196D0933E02C09313
:100ED0003D02EACFDF91CF911F910F91089560E01D
:100EE0008091EC020E94CB0080E58CBD1DBC089572
:100EF000CF92DF92EF92FF92CF930E946F0780E62E
:100F00000E94A606C12CD12C7601C0E08091ED0292
:100F1000C81768F480E00E94A606FE2CED2CDC2C9D
:100F2000CC24C80ED11CE11CF11CCF5FEFCF0E9476
:100F30001701C701B601CF91FF90EF90DF90CF90DE
:100F40000895FC0101900020E9F73197AF01481B9B
:100F5000590BBC018CE492E00C94F8048F929F92A0
:100F6000AF92BF920F931F93CF93DF93CDB7DEB7AE
:100F7000A1970FB6F894DEBF0FBECDBF19A24230C5
:100F800008F44AE08E010F5D1F4F842E912CB12C86
:100F9000A12CA50194010E94D61BE62FB901CA011C
:100FA000EA30F4F4E05DD801EE938D01232B242B7D
:100FB000252B79F790E080E0109719F0CD010E9481
:100FC000A107A1960FB6F894DEBF0FBECDBFDF918B
:100FD000CF911F910F91BF90AF909F908F900895E8
:100FE000E95CE1CFCF92DF92EF92FF92CF93DF9354
:100FF0006B017C016DE28CE492E00E949805EC01AB
:1010000066277727CB016C197D098E099F094AE075
:101010000E94AE078C0F9D1FDF91CF91FF90EF9044
:10102000DF90CF900895CF93DF93BC01990F880B89
:10103000990B97FF0CC00E94F207EC0185E491E048
:101040000E94A1078C0F9D1FDF91CF9108954AE068
:101050000E94AE07F2CF0C94B7191F920F920FB6F1
:101060000F9211242F933F938F939F93AF93BF932E
:101070008091440290914502A0914602B0914702AE
:101080003091430223E0230F2D3758F50196A11D1F
:10109000B11D209343028093440290934502A09394
:1010A0004602B09347028091480290914902A09174
:1010B0004A02B0914B020196A11DB11D80934802D6
:1010C00090934902A0934A02B0934B02BF91AF9113
:1010D0009F918F913F912F910F900FBE0F901F9076
:1010E000189526E8230F0296A11DB11DD2CF1F929D
:1010F0000F920FB60F9211242F933F934F935F934C
:101100006F937F938F939F93AF93BF93EF93FF93CF
:101110008091700190917101A0917201B091730161
:10112000892B8A2B8B2BD1F190916F01E0916D016E
:10113000F0916E0180818927808380917001909168
:101140007101A0917201B0917301181619061A0667
:101150001B069CF48091700190917101A091720125
:10116000B09173010197A109B10980937001909327
:101170007101A0937201B0937301FF91EF91BF9140
:10118000AF919F918F917F916F915F914F913F911F
:101190002F910F900FBE0F901F9018958091000116
:1011A0000E946602EACF1F920F920FB60F9211248F
:1011B0002F933F934F935F936F937F938F939F935F
:1011C000AF93BF93EF93FF938CE492E00E94760578
:1011D000FF91EF91BF91AF919F918F917F916F910F
:1011E0005F914F913F912F910F900FBE0F901F90E5
:1011F00018951F920F920FB60F9211242F938F9371
:101200009F93EF93FF93E0915C02F0915D028081E8
:10121000E0916202F091630282FD1BC09081809197
:1012200065028F5F8F7320916602821741F0E09113
:101230006502F0E0E45BFD4F958F80936502FF91BE
:10124000EF919F918F912F910F900FBE0F901F9054
:1012500018958081F4CF10924F0210924E0288EEC2
:1012600093E0A0E0B0E08093500290935102A093ED
:101270005202B093530287E391E090934D02809322
:101280004C0285EC90E0909359028093580284ECD4
:1012900090E090935B0280935A0280EC90E09093F0
:1012A0005D0280935C0281EC90E090935F028093FA
:1012B0005E0282EC90E0909361028093600286EC83
:1012C00090E0909363028093620210926502109204
:1012D000660210926702109268021092F102109258
:1012E000F8021092FF021092000310920103109274
:1012F000020381E08093FE028093FB021092FC02C5
:1013000092E09093FD028093F00289E090E0909348
:10131000F5028093F4020E94371C9093FA028093A6
:10132000F902009709F43AC029E0FC0111922A95CC
:10133000E9F783E090E09093F3028093F20286E075
:1013400090E09093F7028093F6028091F102882357
:1013500041F061E086E00E941C0160E086E00E94AE
:10136000CB00EBEAF0E0E491F0E0EE0FFF1FE55672
:10137000FF4F859194919093040380930303EDE8CC
:10138000F0E0E491E09305038AE08093EC0289EEBB
:1013900092E09093EB028093EA0208951092F50296
:1013A0001092F4021092F3021092F202C8CFCF937F
:1013B000DF93CDB7DEB728970FB6F894DEBF0FBE28
:1013C000CDBF789484B5826084BD84B5816084BDCE
:1013D00085B5826085BD85B5816085BD80916E00D3
:1013E000816080936E001092810080918100826004
:1013F0008093810080918100816080938100809141
:1014000080008160809380008091B100846080932F
:10141000B1008091B00081608093B00080917A002B
:10142000846080937A0080917A00826080937A0051
:1014300080917A00816080937A0080917A00806840
:1014400080937A001092C10061E088E00E941C0144
:1014500061E088E00E94CB0061E087E00E941C010F
:1014600061E087E00E94CB0061E089E00E941C01FE
:1014700060E089E00E94CB008091F6029091F70233
:1014800097FDA4C061E00E941C0160E08091F6021B
:101490000E94CB0081E08093F10244E660E090E09E
:1014A00080E00E94890040E060E081E090E00E94DE
:1014B000890040E060E082E090E00E9489000E94A4
:1014C000870161E08091EC020E941C0161E0809143
:1014D000EC020E94CB002FB72F83F8948091740107
:1014E000811127C0EFEAF0E08491E1E9F0E0949106
:1014F000E82FF0E0EE0FFF1FE759FF4FA591B491E1
:10150000EC91E92321F461E08AE00E94CB0061E0E4
:101510008AE00E941C018CB580618CBD8CB5806412
:101520008CBD61E08DE00E941C0161E08BE00E94B7
:101530001C01809174018F5F809374013F813FBFD4
:1015400084E08093ED0283E08093EE020E946F07B7
:1015500088E80E94A60683E00E94A6060E94170162
:1015600080E88093EF020E946F0780E90E94A60640
:1015700080E80E94A6060E9417010E946F0780E281
:101580000E94A6060E94170110923E0210923D0290
:1015900040913D0250913E0258874F8342305105A1
:1015A000C0F4FA01E15DFE4F61E080810E941C0100
:1015B00040E050E0BA018F810E94AD068F8198858E
:1015C000019690933E0280933D02E2CF1092F10289
:1015D00064CF84E090E00E942B08082F10E0109365
:1015E00076010093750185E090E00E942B08A82FFA
:1015F000B0E0B887AF83B093EB01A093EA01702FFE
:1016000066277093760160937501072E000C880B96
:10161000990B0E94DD1A6B017C01EF81F885BF01F7
:10162000FF0F880B990B0E94DD1A9B01AC01C701CB
:10163000B6010E94CE196093A1017093A20180931C
:10164000A3019093A40186E090E00E942B08082F4C
:1016500010E0109376010093750187E090E00E94FE
:101660002B08282F30E038872F833093EB0120930D
:10167000EA01702F66277093760160937501072E3B
:10168000000C880B990B0E94DD1A6B017C014F81C5
:101690005885BA01550F880B990B0E94DD1A9B01E2
:1016A000AC01C701B6010E94CE196B017C01C0924A
:1016B0009D01D0929E01E0929F01F092A00188E0EE
:1016C00090E00E942B08A82FB0E0B887AF83B093BA
:1016D0007601A093750189E090E00E942B08682FA5
:1016E00070E07093EB016093EA01EF81F885FE2FC3
:1016F000EE27F0937601E09375016E0F7F1F072EA2
:10170000000C880B990B0E94DD1A9B01AC01C701EC
:10171000B6010E943A1A60939D0170939E018093D6
:101720009F019093A001EEEAF1E0A2ECB1E028E87D
:1017300033E184E190E041E0E23CF40729F02193B9
:1017400031938D939D93F7CF88EE93E09093AF0103
:101750008093AE018CE494E09093B1018093B0014A
:1017600080EA9FE09093B3018093B20185E090E01E
:1017700090937C0180937B0190937E0180937D0107
:1017800082E090E090933E0280933D02E0915C0203
:10179000F0915D028083E0915802F091590210822D
:1017A000E0915A02F0915B0280E180831092640222
:1017B000E0916002F091610286E08083E0915E0238
:1017C000F0915F02808180618083E0915E02F09100
:1017D0005F02808188608083E0915E02F0915F0209
:1017E000808180688083E0915E02F0915F02808159
:1017F0008F7D808388E491E00E94A10785E491E0D9
:101800000E94A10746E0E42EF12CCC24CA94D12CEE
:101810000FEF11E08CE492E00E945605892B09F449
:10182000E6C08CE492E00E9434059C019093940100
:1018300080939301E0918C01E111BDC5FC01B1974A
:10184000EE3BF10508F0C6C0E85DF34F0C94171CA1
:10185000F90F59104D106C1060107F10731092101A
:101860008610A510991012103310AC10BC10F61091
:10187000C711D1111211FD100B111E1122113011BF
:101880003711B010CF10C310DA10D610E310DF10EC
:10189000E60CEE10790D3B114A11EA0CEA0CEA0C49
:1018A000EA0CBD11EA0CEA0C4E115C1166117211C2
:1018B0007A1184118E11EA0CEA0CEA0C121118113B
:1018C000EA0CE910EA0CEA0CEA0CEA0CEA0CEA0C65
:1018D000EA0CEA0CEA0CEA0C9A11A111B911EA0C13
:1018E000EA0CEA0CEA0CEA0CEA0C510D5B0D830DD4
:1018F000560DEA0CEA0CEA0CEA0CEA0CEA0C540E5F
:10190000460E720E620E960E820EEA0CEA0CEA0C7D
:10191000EA0C9B0DFB0DEB0DB40D9F0D060E020E98
:101920003F0E330E8F0D930DEA0CEA0CEA0CEA0C15
:10193000EA0CEA0CEA0CEA0CEA0CDA0FCB0FEA0C20
:10194000EA0CEA0CEA0CEA0CEA0CEA0CEA0CAA0E25
:10195000AD0ED60ECA0EEA0CEA0CEA0CEA0CEA0C42
:10196000EA0CF40FF00FEA0CEA0CEA0CEA0CEA0CB1
:10197000EA0CEA0CEA0CDD0EE10EE90EE50E000FB2
:10198000EF0E1D0F0C0F2D0F290F3A0F360F540FAE
:10199000430F600FEA0CEA0CEA0CEA0CEA0C640F45
:1019A000680F710F6D0F880F770F980F940FA50FA9
:1019B000A10FBF0FAE0FEA0CEA0CEA0CEA0CEA0C1E
:1019C000EA0CEA0CEA0CE10FE50FE90F8FE690E074
:1019D0000E94130880918C0181110C94E6151092DD
:1019E00088011092890110928A0110928B018090D7
:1019F000880190908901A0908A01B0908B01811498
:101A00009104A104B104B1F00E945A02861697060F
:101A1000A806B90678F4ECE8F1E086E0DF011D9253
:101A20008A95E9F7109288011092890110928A0133
:101A300010928B010E94620160933F0270934002FA
:101A4000809341029093420210923E0210923D0216
:101A5000E0913D02F0913E02F887EF8380912801EA
:101A60008E171F0609F014F40C94FF15EE5DFE4F5F
:101A70008081AF80B884AA0CBB1C8F3F11F00C94FE
:101A8000F6150E947807F501EF5CFD4F71836083C6
:101A90002F8138852F5F3F4F30933E0220933D02C8
:101AA000D7CF80EF90E00E94050694CF82ED90E0C2
:101AB0000E9405068FCF90E080E00E942B08A82F9F
:101AC000B0E0B887AF83B0937601A093750181E051
:101AD00090E00E942B08EF81F885FE2FEE27E80F9B
:101AE000F11DCF01F093EB01E093EA010E9413088E
:101AF00071CF82E080938C0180938D0110928601DA
:101B00001092850167CF81E10E944D010E94270656
:101B10009093EB018093EA010E9405065BCF84E07D
:101B200080938C0157CF0E946F0780E20E94A60627
:101B30000E9417014FCF85E080938C014BCF46E088
:101B400050E066E070E08CE891E00E945C1D46E0A9
:101B500050E06AE070E08EE091E00E945C1D10921F
:101B600084011092280136CF10923E0210923D025D
:101B700020913D0230913E0238872F832630310577
:101B80000CF028CFF901EE5DFE4F408186E04F3F1B
:101B9000B9F0E7E0F1E080E090E030E020E0519142
:101BA0002F5F3F4F451301C0C90125303105B9F7FB
:101BB0008093EA019093EB0130938301209382019B
:101BC0000E9410064F8158854F5F5F4F50933E0231
:101BD00040933D02CDCF87E080938C0180938D01AF
:101BE00010921E0110921F011092200110922101EB
:101BF00010928701EFCE80911E0190911F010E94EB
:101C00000506E8CE88E080938C01E4CEE091810166
:101C1000F0E0EE5DFE4FB0805FEFB51204C086E0ED
:101C20000E941006D7CE10923E0210923D02809183
:101C30003D0290913E0298878F83853091050CF08C
:101C4000C9CEFC01E95FFE4F8081B81204C08F81CC
:101C50008F5F0E941006AF81B8851196B0933E0247
:101C6000A0933D02E4CF89E080938C0180938D01A5
:101C7000109206011092050110928701ABCE80915F
:101C80000501909106010E940506A4CE10938C01D7
:101C900010938D0182E080938E0110928601109244
:101CA00085011092870196CE10938C0110938D01BF
:101CB00083E080938E01109286011092850110922C
:101CC000870188CE10938C0110938D0182E0809360
:101CD0008E0180938F0110928601109285011092DF
:101CE000870178CE10938C0110938D0183E080934F
:101CF0008E0180938F0110928601109285011092BF
:101D0000870168CE10938C0110938D0182E080933F
:101D10008E0180938F0180939001809391011092A6
:101D20008601109285011092870154CE10938C0188
:101D300010938D0183E080938E0180938F018093B7
:101D4000900180939101109286011092850110926A
:101D5000870140CE0E941D073DCE61E088E00E94D1
:101D6000CB001092260210922702109228021092A5
:101D7000290240E060E082E090E00E9489000E9439
:101D800087011092220210922302109224021092D4
:101D9000250220CE8AE080938C0180938D011092E1
:101DA0000401109203011092870114CE8091030167
:101DB000909104010E9405060DCE81E180938C0173
:101DC00009CE89E00E94660205CE8BE080938C01EB
:101DD00001CE809180018F5F0E941006FBCD8CE0C8
:101DE00080938C0180938D01E0918001F0E0EE0FF3
:101DF000FF1FE255FE4F1182108210928701EACD3B
:101E0000E0918001F0E0EE0FFF1FE255FE4F808170
:101E100091810E940506DECD8DE080938C01809338
:101E20008D01E0918001F0E0EE0FFF1FEE53FE4FB9
:101E30001182108210928701CDCDE0918001F0E0F7
:101E4000EE0FFF1FEE53FE4F808191810E94050629
:101E5000C1CD8EE080938C01BDCDE0918001F0E09A
:101E6000EA50FE4F80810E941006B4CD8FE080932F
:101E70008C01B0CDE0918001F0E0E451FE4F808113
:101E80000E941006A7CD80E180938C0180938D0184
:101E9000E0918001F0E0EE0FFF1FEA52FE4F118249
:101EA00010821092870196CDE0918001F0E0EE0F54
:101EB000FF1FEA52FE4F808191810E9405068ACD64
:101EC0008AE00E94100686CD82E180938C0182CD4B
:101ED00080917F010E94DF067DCD83E180938C019C
:101EE00079CD80917F018F5F0E94100673CD84E1D0
:101EF00080938C0180938D01E0917F01F0E0EE0FE3
:101F0000FF1FE558FE4F118210821092870162CDAB
:101F1000E0917F01F0E0EE0FFF1FE558FE4F80815A
:101F200091810E94050656CD85E180938C0152CDAA
:101F3000E0917F01F0E0E455FE4F80810E941006A1
:101F400049CD86E180938C0145CDE0917F01F0E0A1
:101F5000E655FE4F80810E9410063CCD87E18093BC
:101F60008C0180938D01E0917F01F0E0EE0FFF1F67
:101F7000EA55FE4F11821082109287012BCDE0911D
:101F80007F01F0E0EE0FFF1FEA55FE4F8081918147
:101F90000E9405061FCD88E180938C0180938D01FE
:101FA00089E180938E0110927A011092790110924A
:101FB000870110CD8091790190917A010E940506E8
:101FC00009CD81E00E94100605CD8BE180938C0144
:101FD00001CD8DE180938C018CE180938D01FACC51
:101FE0008AE180938C01F6CC809178010E941006E2
:101FF000F1CC61E080E10E941C0160E080E10E9480
:10200000CB0061E083E10E941C0160E083E10E945B
:10201000CB0061E08FE00E941C0160E08FE00E9435
:10202000CB00D8CC0E945A02609312027093130224
:1020300080931402909315022091010130910201C6
:10204000620F731F811D911D60931602709317021A
:10205000809318029093190281E090E0909311020E
:1020600080931002B7CCE0917701F0E0EF5CFE4F77
:1020700060E080810E94CB00109212021092130245
:10208000109214021092150210921602109217026A
:1020900010921802109219029DCC8AE280938C0152
:1020A00080938D011092020110920101109287011C
:1020B00091CC80910101909102010E9405068ACC89
:1020C0008BE280938C0180938D0110921701109206
:1020D0001601109287017ECC809116019091170114
:1020E0000E94050677CC8CE280938C0180938D0151
:1020F0001092150110921401109287016BCC8091FF
:102100001401909115010E94050664CC8DE2809324
:102110008C0180938D0110920F0210920E0210928A
:10212000870158CC80910E0290910F020E94050603
:1021300051CC8EE280938C0180938D0110920D0220
:1021400010920C021092870145CC80910C02909164
:102150000D020E9405063ECC8FE280938C013ACCA2
:1021600080E380938C0180938D011092190110926D
:102170001801109287012ECC8091180190911901BD
:102180000E94050627CC81E380938C0180938D010A
:1021900010921B0110921A01109287011BCC8091A2
:1021A0001A0190911B010E94050614CC82E38093D2
:1021B0008C0110CC80911D010E9410060BCC83E392
:1021C00080938C0107CC809177018F5F0E9410066D
:1021D00001CC80EF90E00E941308FCCB10928601A6
:1021E000109285018FE180938C01F4CB8EE1809376
:1021F0008C0188E280938D01EDCB60910301709199
:10220000040190E080E04AE00E94AE0785E491E09E
:102210000E94A107DFCB8EE180938C0185E2809341
:102220008D01D8CB0E941D0789E280938C01D2CB0F
:1022300082E280938C0110927F01CCCB80E00E94DF
:10224000F206C8CB60917B0170917C0190E080E048
:102250004AE00E94AE0785E491E00E94A107BACB54
:102260008EE180938C0186E280938D01B3CB87E26F
:1022700080938C01AFCB81E10E944D010E94270623
:102280009093EB018093EA010E94130889E2809306
:102290008C01A0CB81E280938C019CCB80E2809367
:1022A0008C01809122018F3F19F01093840192CB11
:1022B00086E0809384018ECB8FE180938C01E4E0F3
:1022C000F0E0F0938601E093850184CB82E0809377
:1022D0008C0180938D0124E030E0309386012093BF
:1022E000850178CB8FE180938C01F0928601E0929A
:1022F000850170CB82E080938C0180938D01F092F8
:102300008601E092850166CB8FE180938C0148E0E5
:1023100050E050938601409385015CCB82E080932E
:102320008C0180938D0188E090E0909386018093EA
:10233000850150CB8EE180938C0183E280938D01E7
:1023400049CB60911E0170911F01809120019091F5
:10235000210128EE33E040E050E00E94D61BCA0184
:10236000B9014AE00E94AE0785E491E00E94A1070E
:1023700031CB94E290938C012DCB24E130E040E00E
:1023800050E060EA7FE089E00E94920223CB24E1E2
:1023900030E040E050E068EE73E089E00E94920295
:1023A00019CB24E130E040E050E06CE474E089E0D7
:1023B0000E9492020FCBE150E33308F05EC0F0E0E0
:1023C000EC51FE4E0C94171C17122D124812641279
:1023D0007E12AA12D012ED121113241353135713A5
:1023E0006D1377138D13B2133713BC13C213C613B7
:1023F000D013E6130B141514DD153A1428143314F6
:102400002F142D15321557157115861589159F1521
:10241000AF15BC15C915CD153D129A14AD14C014D5
:10242000D314E614F9140015131526152915409137
:102430008701042E02C0220F331F0A94E2F7809115
:10244000850190918601280F391F309386012093D2
:102450008501485F4093870110C0682F80918501F6
:10246000909186010E94BF1980918501909186010B
:1024700001969093860180938501ECE8F1E022E9D2
:1024800031E02E173F0709F49BC381818193F7CF79
:10249000A0918501B0918601B887AF83CD010E94DC
:1024A0002B08282F30E03093940120939301682F5C
:1024B0008CE492E00E949805EF81F8853196F093C4
:1024C0008601E0938501D9CF069769F40E947807C9
:1024D0007093EB016093EA018091EA019091EB0126
:1024E0000E940506CACF2A5F3E4FD9018C910E94F7
:1024F0004D019093EB018093EA01EECF81E021152D
:10250000310509F480E08093300244E664E6232B31
:1025100011F040E060E081E090E00E9489000E94BC
:1025200087010E94620180901E0190901F01A0907F
:102530002001B0902101DC01CB01880D991DAA1D5D
:10254000BB1D80932C0290932D02A0932E02B0937A
:102550002F0293CF40918401842F90E0FC01EE5D27
:10256000FE4F2630310571F40083209128012F5F42
:1025700020932801442351F0835F9E4F29E0FC0102
:10258000208304C02115310529F410824F5F409348
:10259000840173CF2A5F3E4FD9012C912083E5CF70
:1025A00040918701042E02C0220F331F0A94E2F7E4
:1025B00080911E0190911F01A0912001B0912101F5
:1025C000820F931FA11DB11D80931E0190931F01C7
:1025D000A0932001B09321013CCF0697C1F4D09283
:1025E0008301C09282018091820190918301309198
:1025F0008101E2E2F1E020E041914817190609F477
:10260000322F2F5F2630C1F73093810136CF2A5FFA
:102610003E4FD9018C9190E0909383018093820189
:10262000E2CF40918701042E02C0220F331F0A948B
:10263000E2F78091050190910601280F391F309330
:1026400006012093050105CF40918701042E02C0A9
:10265000220F331F0A94E2F7809103019091040145
:10266000280F391F3093040120930301F2CE8150CB
:102670008093800190E0880F991FFC01EE53FE4F7C
:102680002081318182559E4FFC016081718150E033
:1026900040E02F3F320719F420E030E0A90189E043
:1026A0000E949202EACE815080938001E6CEE091B2
:1026B0008001F0E040918701EE0FFF1FE255FE4FD1
:1026C000042E02C0220F331F0A94E2F78081918109
:1026D000280F391F31832083BCCEE0918001F0E0C8
:1026E00040918701EE0FFF1FEE53FE4FE9CFE091BF
:1026F0008001F0E0EA50FE4F8083E6EFF1E080E0F9
:1027000020E032E02E173F0719F480932A02B5CE5D
:1027100091919923A9F381E0F3CF0697C9F4D09260
:102720008301C09282018091820190918301E091A6
:102730008001F0E0A2E2B1E020E0E451FE4F3D91E3
:102740003817190609F420832F5F2630C1F795CE7C
:102750002A5F3E4FD9018C9190E090938301809342
:102760008201E1CFE0918001F0E040918701EE0F1E
:10277000FF1FEA52FE4FA4CF815080937F010E9439
:10278000F2067BCE815080937F0177CEE0917F016E
:10279000F0E040918701EE0FFF1FE558FE4F90CF0C
:1027A000E0917F01F0E0E455FE4F80839091AC0111
:1027B000915081E0943008F080E09091AD0191500B
:1027C000943008F481E080932B0257CE0697C9F429
:1027D000D0928301C0928201809182019091830105
:1027E000E0917F01F0E0A2E2B1E020E0E655FE4F8B
:1027F0003D913817190609F420832F5F2630C1F761
:102800003CCE2A5F3E4FF901808190E09093830196
:1028100080938201E1CFE0917F01F0E04091870158
:10282000EE0FFF1FEA55FE4F4BCF40918701042E5C
:1028300002C0220F331F0A94E2F780917901909130
:102840007A01280F391F30937A012093790101CE44
:10285000255F3E4FD9018C910E9410060ECE81500B
:102860008093A5010ACEE091A501F0E0E45FFE4F60
:10287000808303CE80958F83809378018F3F29F4E6
:1028800061E087E00E94CB00F8CDBF81B11102C0AA
:1028900060E0F7CF61E087E00E941C01EAE7F0E02A
:1028A0008491833041F140F48130C9F08230E9F005
:1028B000EF81E7FDE5CFECCF873051F1883089F12A
:1028C0008430B1F7809180008062809380009F8186
:1028D000892F90E090938B0080938A00CECD84B5B1
:1028E000806884BDFF81F7BDC8CD84B5806284BD9A
:1028F0002F8128BDC2CD80918000806880938000A8
:102900005F81452F50E05093890040938800B5CDFA
:102910008091B00080688093B000AF81A093B30035
:10292000ACCD8091B00080628093B000BF81B09345
:10293000B400A3CD40918701042E02C0220F331FA3
:102940000A94E2F78091010190910201280F391F4A
:1029500030930201209301017CCD40918701042E28
:1029600002C0220F331F0A94E2F780911601909162
:102970001701280F391F309317012093160169CDD5
:1029800040918701042E02C0220F331F0A94E2F700
:102990008091140190911501280F391F3093150172
:1029A0002093140156CD40918701042E02C0220FBE
:1029B000331F0A94E2F780910E0290910F02280FC4
:1029C000391F30930F0220930E0243CD40918701AF
:1029D000042E02C0220F331F0A94E2F780910C02EA
:1029E00090910D02280F391F30930D0220930C0295
:1029F00030CD81E0232B09F480E080931C013DCD94
:102A000040918701042E02C0220F331F0A94E2F77F
:102A10008091180190911901280F391F30931901E5
:102A20002093180116CD40918701042E02C0220F79
:102A3000331F0A94E2F780911A0190911B01280F2D
:102A4000391F30931B0120931A0103CD80931D0180
:102A500014CD81508093770110CD809375019093B0
:102A600076010BCDA0908501B0908601C5010E9432
:102A70002B08282F30E038872F833093760120935E
:102A80007501C50101960E942B084F815885542F6E
:102A900044275093760140937501480F511DCA0198
:102AA0005093EB014093EA010E941308E6CCE091B9
:102AB0008401E63059F40E9478077093EB0160932B
:102AC000EA018091EA019091EB01EECFF0E0EA5F3C
:102AD000FE4F80810E944D019093EB018093EA01AB
:102AE000F0CF20533109309394012093930121308A
:102AF000310509F0C2CC8EE491E00E94A10785E483
:102B000091E00E94A10700932201B7CC80917F0140
:102B100036CE30907501212C3092760120927501CD
:102B2000220D331DA8EEB3E00E941D1C60931E0110
:102B300070931F0180932001909321019ECC81E02E
:102B40002033310509F480E08093300260E02033C7
:102B5000310509F061E085E00E94CB00E2CC5091A4
:102B600075015C831B828B819C81280F391F3093F8
:102B700004012093030181CC909175019E831D82F5
:102B8000AD81BE812A0F3B1F30937C0120937B01D6
:102B900074CC019709F074CE7BCEB0917501BA83E5
:102BA0001982E981FA81F0937601E09375012E0F85
:102BB0003F1F30937A01209379010E9454065DCC27
:102BC000F0923E02E0923D020C94EA0C0E945A02FE
:102BD00066507F4F8F4F9F4F60938801709389019C
:102BE00080938A0190938B010C94F70C0E944D0105
:102BF000F501EF5CFD4F918380830C94480D10929A
:102C0000A5019090A50131E0391508F457C0892D30
:102C100090E0FC01E45FFE4F2081222309F44AC0CA
:102C2000AC01440F551F440F551F58874F83213067
:102C3000B1F54B565E4F5A01880F991FFC01EF5CAE
:102C4000FD4F60817181072E000C880B990B0E944B
:102C5000DD1A2091A1013091A2014091A301509170
:102C6000A4010E94CD1920919D0130919E014091B7
:102C70009F015091A0010E94691B20E030E040EAD2
:102C800050E40E943A1A20E030E040E05FE30E9406
:102C9000CE19D5016D937D938D939C931397EF81FE
:102CA000F885EB56FE4F4081518162817381892DF9
:102CB0000E94AD0693949092A501A3CF809130021B
:102CC000882309F472C060913F02709140028091A4
:102CD00041029091420280902C0290902D02A0908F
:102CE0002E02B0902F0286169706A806B90608F0A5
:102CF0005CC04AE00E94AE0769E08CE492E00E946A
:102D0000980510923E0210923D0280913D029091F2
:102D10003E02209128012817190659F154F1880F15
:102D2000991FFC01EF5CFD4F60817181072E000C43
:102D3000880B990B97FF19C00E94F20720913D0262
:102D400030913E0238872F83F901E25FFE4F6081A8
:102D50008CE492E00E9498054F8158854F5F5F4F49
:102D600050933E0240933D02D0CF4AE00E94AE070E
:102D7000E5CF80912C0290912D02A0912E02B0916E
:102D80002F0240911E0150911F016091200170910E
:102D90002101840F951FA61FB71F80932C029093CB
:102DA0002D02A0932E02B0932F0280912B02882334
:102DB00009F482C010923E0210923D0280913D02C1
:102DC00090913E0298878F83823091050CF074C0F9
:102DD000FC01E455FE4F40814423D1F0FC01E6554F
:102DE000FE4F808190E0880F991FFC01EF5CFD4F42
:102DF000208131813093EB012093EA0180509E4F76
:102E0000DC018D919C91423069F150F44130D9F050
:102E1000EF81F8853196F0933E02E0933D02CECFEC
:102E2000433091F14430A1F7EF81F885EE0FFF1F99
:102E3000EA55FE4F4081518124173507C4F58417A8
:102E4000950734F31DC0EF81F885EE0FFF1FEA559B
:102E5000FE4F4081518124173507D4F2841795071E
:102E6000BCF60EC0EF81F885EE0FFF1FEA55FE4F4E
:102E700040815181421753075CF24817590744F6C5
:102E80008F810E94F206C4CFEF81F885EE0FFF1FFD
:102E9000EA55FE4F4081518124173507FCF684170F
:102EA00095070CF4B5CF8F810E94DF06B1CF841750
:102EB00095070CF0ADCFF7CF80912A02882309F453
:102EC000A9C010923E0210923D0220913D02309125
:102ED0003E0238872F832A3031050CF09BC0F90160
:102EE000EA50FE4F40814423D9F0F901E451FE4FEE
:102EF000808190E0880F991FFC01EF5CFD4F2081DD
:102F000031813093EB012093EA0180509E4FDC0128
:102F10008D919C91423009F445C050F4413019F133
:102F2000EF81F8853196F0933E02E0933D02CDCFDC
:102F3000433009F449C0443099F74F815885440F14
:102F4000551FFA01EA52FE4F60817181261737073B
:102F50000CF05BC0861797071CF342555E4FDA01F1
:102F60006D917C9146C0AF81B885AA0FBB1FFD0152
:102F7000EA52FE4F60817181261737078CF286175F
:102F8000970774F6FD01EE53FE4F2081318150E02A
:102F900040E0FD01E255FE4F6081718189E00E94B1
:102FA0009202BECFAF81B885AA0FBB1FFD01EA52C6
:102FB000FE4F60817181621773070CF4B1CF6817FF
:102FC00079070CF0ADCFDECF4F815885440F551FE8
:102FD000FA01EA52FE4F60817181261737076CF0C3
:102FE000861797070CF09CCF42555E4FFA0160811F
:102FF000718120E030E0A901D1CF861797070CF44A
:103000008FCF89E00E9466028BCF861797070CF05E
:1030100087CFF7CF0E945A024B015C0180923F029A
:1030200090924002A0924102B09242028091260208
:1030300090912702A0912802B09129020097A10542
:10304000B10589F088169906AA06BB0660F061E012
:1030500088E00E94CB001092260210922702109264
:103060002802109229028091220290912302A091BD
:103070002402B09125020097A105B105A9F0881698
:103080009906AA06BB0680F040E060E082E090E08E
:103090000E9489000E94870110922202109223024E
:1030A000109224021092250210923E0210923D02CC
:1030B00020913D0230913E0238872F832230310526
:1030C00004F5F901EE0FFF1FEE0FFF1FE65EFD4F47
:1030D00080819181A281B3810097A105B10541F062
:1030E00088169906AA06BB0618F08F810E94DF0693
:1030F0004F8158854F5F5F4F50933E0240933D0292
:10310000D7CF8090160290901702A0901802B0902E
:10311000190281149104A104B104E9F10E945A0238
:1031200040901202509013026090140270901502A9
:10313000461657066806790608F0AFC080911D0153
:10314000833009F482C0D8F5813009F452C082304E
:1031500009F468C080911C01882369F020911A014C
:1031600030911B0150E040E060911801709119010D
:103170008FE00E9492028091160190911701480EF3
:10318000591E611C711C40921202509213026092EF
:103190001402709215028091280190E0A1E3B2E040
:1031A000E0E0F2E030E020E0281739070CF0BBC087
:1031B0004D915D91419351932F5F3F4FF5CF8430F7
:1031C00009F458C0853031F68091100290911102B7
:1031D00020910E0230910F028217930708F4BACFA4
:1031E00020910C0230910D022817390708F4B2CF54
:1031F0003EC0809110029091110220910E023091F8
:103200000F028217930708F4A5CF20910C0230918A
:103210000D022817390708F49DCF61E080E10E9474
:10322000CB0098CF809110029091110220910E0254
:1032300030910F028217930780F320910C02309196
:103240000D022817390748F385CF8091100290911D
:10325000110220910E0230910F028217930738F06D
:1032600020910C0230910D0228173907B0F661E069
:1032700083E1D5CF809110029091110220910E022E
:1032800030910F028217930740F220910C02309187
:103290000D022817390708F2EACF0E945A02861653
:1032A0009706A806B90608F076CF60E080E10E9494
:1032B000CB0080911D01833020F060E083E10E940B
:1032C000CB0080911002909111020196909311020F
:1032D00080931002209114013091150128173907AD
:1032E00088F410921202109213021092140210929B
:1032F00015021092160210921702109218021092E4
:10330000190249CF8091160190911701880E991EDC
:10331000A11CB11C8092160290921702A092180272
:10332000B092190238CF90933E0280933D0280E024
:1033300090E0892B11F40C940A0C0E9462058823FA
:1033400011F40C94080C0E9400000C94080C80915D
:10335000F9029091FA020E94D31C8091F60290919A
:10336000F70297FD03C060E00C941C010895F999E1
:10337000FECF92BD81BDF89A992780B50895262F7A
:10338000F999FECF1FBA92BD81BD20BD0FB6F8944A
:10339000FA9AF99A0FBE019608955058BB27AA27AA
:1033A0000E94E5190C942F1B0E94211B38F00E94EB
:1033B000281B20F039F49F3F19F426F40C941E1BAF
:1033C0000EF4E095E7FB0C94181BE92F0E94401BBC
:1033D00058F3BA17620773078407950720F079F44A
:1033E000A6F50C94621B0EF4E0950B2EBA2FA02DBF
:1033F0000B01B90190010C01CA01A0011124FF27A2
:10340000591B99F0593F50F4503E68F11A16F0409C
:10341000A22F232F342F4427585FF3CF469537959B
:103420002795A795F0405395C9F77EF41F16BA0B60
:10343000620B730B840BBAF09150A1F0FF0FBB1F0E
:10344000661F771F881FC2F70EC0BA0F621F731F57
:10345000841F48F4879577956795B795F7959E3FB4
:1034600008F0B0CF9395880F08F09927EE0F979545
:10347000879508950E944E1A0C942F1B0E94281BBA
:1034800058F00E94211B40F029F45F3F29F00C9472
:10349000181B51110C94631B0C941E1B0E94401BA3
:1034A00068F39923B1F3552391F3951B550BBB2773
:1034B000AA2762177307840738F09F5F5F4F220FB8
:1034C000331F441FAA1FA9F335D00E2E3AF0E0E8AF
:1034D00032D091505040E695001CCAF72BD0FE2FF9
:1034E00029D0660F771F881FBB1F2617370748078D
:1034F000AB07B0E809F0BB0B802DBF01FF27935845
:103500005F4F3AF09E3F510578F00C94181B0C94D5
:10351000631B5F3FE4F3983ED4F3869577956795F8
:10352000B795F7959F5FC9F7880F911D9695879579
:1035300097F90895E1E0660F771F881FBB1F621798
:1035400073078407BA0720F0621B730B840BBA0B56
:10355000EE1F88F7E09508950E94481B88F09F575A
:1035600098F0B92F9927B751B0F0E1F0660F771FA7
:10357000881F991F1AF0BA95C9F714C0B13091F09D
:103580000E94621BB1E008950C94621B672F782F94
:103590008827B85F39F0B93FCCF386957795679562
:1035A000B395D9F73EF490958095709561957F4FCE
:1035B0008F4F9F4F0895E89409C097FB3EF4909574
:1035C0008095709561957F4F8F4F9F4F9923A9F0FC
:1035D000F92F96E9BB279395F6958795779567958B
:1035E000B795F111F8CFFAF4BB0F11F460FF1BC0CF
:1035F0006F5F7F4F8F4F9F4F16C0882311F096E962
:1036000011C0772321F09EE8872F762F05C066230F
:1036100071F096E8862F70E060E02AF09A95660FC8
:10362000771F881FDAF7880F9695879597F9089581
:1036300097F99F6780E870E060E008959FEF80EC65
:10364000089500240A941616170618060906089508
:1036500000240A9412161306140605060895092E6E
:103660000394000C11F4882352F0BB0F40F4BF2BDD
:1036700011F460FF04C06F5F7F4F8F4F9F4F08951D
:1036800057FD9058440F551F59F05F3F71F0479513
:10369000880F97FB991F61F09F3F79F087950895F8
:1036A000121613061406551FF2CF4695F1DF08C017
:1036B000161617061806991FF1CF86957105610534
:1036C00008940895E894BB2766277727CB0197F9DC
:1036D00008950E947C1B0C942F1B0E94211B38F024
:1036E0000E94281B20F0952311F00C94181B0C94B9
:1036F0001E1B11240C94631B0E94401B70F3959FAA
:10370000C1F3950F50E0551F629FF001729FBB27D8
:10371000F00DB11D639FAA27F00DB11DAA1F649F74
:103720006627B00DA11D661F829F2227B00DA11D27
:10373000621F739FB00DA11D621F839FA00D611DAD
:10374000221F749F3327A00D611D231F849F600DCE
:10375000211D822F762F6A2F11249F5750409AF0F7
:10376000F1F088234AF0EE0FFF1FBB1F661F771F83
:10377000881F91505040A9F79E3F510580F00C944E
:10378000181B0C94631B5F3FE4F3983ED4F38695BB
:1037900077956795B795F795E7959F5FC1F7FE2BEE
:1037A000880F911D9695879597F90895A1E21A2E95
:1037B000AA1BBB1BFD010DC0AA1FBB1FEE1FFF1FD5
:1037C000A217B307E407F50720F0A21BB30BE40B25
:1037D000F50B661F771F881F991F1A9469F760956C
:1037E0007095809590959B01AC01BD01CF01089526
:1037F000052E97FB1EF400940E940F1C57FD07D066
:103800000E94D61B07FC03D04EF40C940F1C50955D
:103810004095309521953F4F4F4F5F4F08959095BC
:103820008095709561957F4F8F4F9F4F0895EE0F54
:10383000FF1F0590F491E02D0994A29FB001B39F62
:10384000C001A39F700D811D1124911DB29F700DA9
:10385000811D1124911D08950E941D1CA59F900D8E
:10386000B49F900DA49F800D911D112408950F9376
:103870001F93CF93DF938230910510F482E090E0A4
:10388000E0910803F091090330E020E0B0E0A0E00F
:10389000309799F42115310509F44AC0281B390BDA
:1038A00024303105D8F58A819B816115710589F134
:1038B000FB0193838283FE0111C04081518102810B
:1038C000138148175907E0F04817590799F41097E2
:1038D00061F012960C93129713961C933296CF01B7
:1038E000DF91CF911F910F910895009308031093DA
:1038F0000903F4CF2115310551F04217530738F071
:10390000A901DB019A01BD01DF01F801C1CFEF017F
:10391000F9CF9093090380930803CDCFFE01E20F06
:10392000F31F819391932250310939832883D7CF94
:103930002091060330910703232B41F420912B01A2
:1039400030912C0130930703209306032091290125
:1039500030912A012115310541F42DB73EB7409130
:103960002D0150912E01241B350BE0910603F0919F
:103970000703E217F307A0F42E1B3F0B28173907A4
:1039800078F0AC014E5F5F4F2417350748F04E0FBB
:103990005F1F5093070340930603819391939FCF3A
:1039A000F0E0E0E09CCFCF93DF930097E9F0FC01DB
:1039B000329713821282A0910803B0910903ED019E
:1039C00030E020E01097A1F420813181820F931F15
:1039D00020910603309107032817390709F061C0C9
:1039E000F0930703E0930603DF91CF910895EA0176
:1039F000CE17DF07E8F54A815B819E01411551052D
:103A0000B1F7E901FB83EA8349915991C40FD51FAE
:103A1000EC17FD0761F4808191810296840F951F58
:103A2000E90199838883828193819B838A83F0E073
:103A3000E0E012968D919C9113970097B9F52D9126
:103A40003C911197CD010296820F931F209106039E
:103A5000309107032817390739F6309751F510923E
:103A6000090310920803B0930703A0930603BCCF89
:103A7000D383C28340815181840F951FC817D90712
:103A800061F44E5F5F4F88819981480F591F5183C0
:103A900040838A819B81938382832115310509F0BC
:103AA000B0CFF0930903E09308039ECFFD01DC0142
:103AB000C0CF13821282D7CFDC0101C06D93415079
:103AC0005040E0F7089510E0CEE5D0E004C0FE01DC
:103AD0000E94171C2196CF35D107C9F7F894FFCF64
:103AE000FF0100050005000E100F12130001090A66
:103AF0000A0A0A0A32001400A00F0500010110276B
:103B000000000E13000000000200000A0380000401
:103B1000051013000000009805F8042505E505567A
:103B200005340548050D0A005245414459004B6EC5
:0C3B30006F622044657465637465640076
:107E0000112484B714BE81FFF0D085E080938100F7
:107E100082E08093C00088E18093C10086E0809377
:107E2000C20080E18093C4008EE0C9D0259A86E02C
:107E300020E33CEF91E0309385002093840096BBD3
:107E4000B09BFECF1D9AA8958150A9F7CC24DD24C4
:107E500088248394B5E0AB2EA1E19A2EF3E0BF2EE7
:107E6000A2D0813461F49FD0082FAFD0023811F036
:107E7000013811F484E001C083E08DD089C08234E0
:107E800011F484E103C0853419F485E0A6D080C0E4
:107E9000853579F488D0E82EFF2485D0082F10E0AE
:107EA000102F00270E291F29000F111F8ED06801E7
:107EB0006FC0863521F484E090D080E0DECF843638
:107EC00009F040C070D06FD0082F6DD080E0C81688
:107ED00080E7D80618F4F601B7BEE895C0E0D1E017
:107EE00062D089930C17E1F7F0E0CF16F0E7DF06D8
:107EF00018F0F601B7BEE89568D007B600FCFDCFD4
:107F0000A601A0E0B1E02C9130E011968C91119780
:107F100090E0982F8827822B932B1296FA010C0160
:107F200087BEE89511244E5F5F4FF1E0A038BF0790
:107F300051F7F601A7BEE89507B600FCFDCF97BE46
:107F4000E89526C08437B1F42ED02DD0F82E2BD052
:107F50003CD0F601EF2C8F010F5F1F4F84911BD097
:107F6000EA94F801C1F70894C11CD11CFA94CF0C13
:107F7000D11C0EC0853739F428D08EE10CD085E9AC
:107F80000AD08FE07ACF813511F488E018D01DD067
:107F900080E101D065CF982F8091C00085FFFCCF94
:107FA0009093C60008958091C00087FFFCCF809118
:107FB000C00084FD01C0A8958091C6000895E0E648
:107FC000F0E098E1908380830895EDDF803219F02E
:107FD00088E0F5DFFFCF84E1DECF1F93182FE3DFCA
:107FE0001150E9F7F2DF1F91089580E0E8DFEE27F6
:047FF000FF270994CA
:027FFE00040479
:00000001FF
