:020000040000FA
:100000000C9464000C94DC0F0C94B50F0C948C00D1
:100010000C948C000C948C000C948C000C940310A9
:100020000C948C000C948C000C948C000C948C0020
:100030000C948C000C948C000C948C000C948C0010
:100040000C946B0F0C948C000C9485100C945F1026
:100050000C948C000C948C000C948C000C948C00F0
:100060000C94B7100C948C000200000000240027B0
:10007000002A0000000000230026002900000000E4
:100080000800020100000304070000000000000057
:100090000001020408102040800102040810200121
:1000A000020408102000000000250028002B000496
:1000B000040404040404040202020202020303030F
:1000C00003030300D211112311241FBECFEFD8E088
:1000D000DEBFCDBF24E0AAEFB1E001C01D92A5377D
:1000E000B207E1F711E0A0E0B1E0E2E4FEE402C013
:1000F00005900D92AA3FB107D9F710E0C3E6D0E012
:1001000004C02197FE010E94E425C236D107C9F739
:100110000E94B5130C9414270C940000CF93DF9326
:1001200000D0CDB7DEB789839A8380911F04909168
:100130002004DC01ED91FC910280F381E02D42E08E
:1001400050E0BE016F5F7F4F09950F900F90DF91D8
:10015000CF910895CF93DF9300D000D0CDB7DEB715
:1001600069837A838B839C8380911F049091200400
:10017000DC01ED91FC910280F381E02D44E050E040
:10018000BE016F5F7F4F09950F900F900F900F90FA
:10019000DF91CF910895EFE1F4E010A2178E12A243
:1001A00011A214A213A216A215A210A617A212A69B
:1001B00011A614A613A610AA11AA12AA13AA168E83
:1001C00016A617A610AE14AA15AA16AA17AA15A63F
:1001D0000895EFE1F4E0828D938DB0E0A0E025A5D5
:1001E00004C0880F991FAA1FBB1F2A95D2F744A9E4
:1001F00055A966A977A9840F951FA61FB71F84ABC1
:1002000095ABA6ABB7AB682F792F8A2F9B2F08959C
:10021000CF93DF9300D000D0CDB7DEB769837A8368
:100220008B839C8380911F0490912004DC01ED91CD
:10023000FC910280F381E02D44E050E0BE016F5F4D
:100240007F4F09950F900F900F900F90DF91CF91F6
:100250000895CF93DF93E0913404F0913504309703
:1002600009F485C0EC018091580490915904A09143
:100270005A04B0915B04AC01BD014F5F5F4F6F4FFB
:100280007F4F409358045093590460935A047093DD
:100290005B0409958E3108F04BC080934D04CE016C
:1002A0000E948E0080911F0490912004DC01ED914A
:1002B000FC910190F081E02D60914D0409958091B1
:1002C0004D04882309F453C0E0913404F0913504BF
:1002D0008091580490915904A0915A04B0915B0404
:1002E000AC01BD014F5F5F4F6F4F7F4F409358048C
:1002F0005093590460935A0470935B040995282F16
:1003000030E030933A0420933904A0911F04B09157
:100310002004ED91FC9111970190F081E02D682F60
:10032000CD01099580914D04815080934D04C7CF34
:1003300010924D04E0913204F0913304309709F4A7
:10034000AECF8091580490915904A0915A04B09175
:100350005B040197A109B109809358049093590453
:10036000A0935A04B0935B0460E0099598CFDF91A5
:10037000CF910895833081F028F4813099F0823054
:10038000A9F008958730A9F08830C9F08430B1F41D
:10039000809180008F7D03C0809180008F77809353
:1003A0008000089584B58F7784BD089584B58F7DCE
:1003B000FBCF8091B0008F778093B000089580913B
:1003C000B0008F7DF9CFCF93DF93282F30E0F90174
:1003D000E358FF4F8491F901EF56FF4FD491F90193
:1003E000E155FF4FC491CC23A1F081110E94BA01C5
:1003F000EC2FF0E0EE0FFF1FED58FF4FA591B491E9
:10040000EC91ED2381E090E009F480E0DF91CF9161
:10041000089580E090E0FACF1F93CF93DF93282FC9
:1004200030E0F901E358FF4F8491F901EF56FF4F97
:10043000D491F901E155FF4FC491CC23A9F0162FB7
:1004400081110E94BA01EC2FF0E0EE0FFF1FEB5577
:10045000FF4FA591B4918FB7F894EC91111108C09A
:10046000D095DE23DC938FBFDF91CF911F9108954C
:10047000DE2BF8CFCF93DF9390E0FC01EF56FF4FD8
:10048000249181559F4FFC0184918823D1F090E005
:10049000880F991FFC01E759FF4FA591B491FC010A
:1004A000EB55FF4FC591D49161110EC09FB7F894E1
:1004B0008C91E22FE0958E238C932881E223E883B0
:1004C0009FBFDF91CF9108958FB7F894EC91E22B05
:1004D000EC938FBFF6CF1F93CF93DF93182FEB01D1
:1004E00061E00E943A02209739F460E0812FDF91A9
:1004F000CF911F910C940C02CF3FD10511F461E014
:10050000F5CFE12FF0E0E358FF4FE491E33031F114
:1005100040F4E130B1F0E230E1F0C038D1057CF7D1
:10052000E4CFE73029F1E83059F1E430B1F78091B8
:100530008000806280938000D0938B00C0938A00FB
:1005400004C084B5806884BDC7BDDF91CF911F9181
:10055000089584B5806284BDC8BDF7CF80918000C6
:10056000806880938000D0938900C0938800EDCF8D
:100570008091B00080688093B000C093B300E5CF55
:100580008091B00080628093B000C093B400DDCF52
:100590008E3008F08E508770806480937C0080914C
:1005A0007A00806480937A0080917A0086FDFCCF87
:1005B000809178009091790008953FB7F8948091E8
:1005C0008A0290918B02A0918C02B0918D0226B587
:1005D000A89B05C02F3F19F00196A11DB11D3FBF7B
:1005E000BA2FA92F982F8827BC01CD01620F711D4A
:1005F000811D911D42E0660F771F881F991F4A9544
:10060000D1F70895CF93DF9380E092E00E948E00AF
:100610000E94DD020E94AA0080911F049091200494
:10062000DC01ED91FC910190F081E02DA09161043D
:10063000B09162045396CD91DC915497209721F0AC
:100640006881DF91CF9109946C91FBCF2FB7F8941B
:100650006091860270918702809188029091890250
:100660002FBF089581E08093FA0108950E94260328
:100670006C507E4F8F4F9F4F60937E0270937F022E
:100680008093800290938102809182028F5F809399
:1006900082020895CF93DF93CDB7DEB7C159D10958
:1006A0000FB6F894DEBF0FBECDBF382F81E9E4E569
:1006B000F1E0DE01119601900D928A95E1F7DE01DD
:1006C000AD56BF4FE1E98E918C3511F0E150D9F76D
:1006D000EF5F80E98E1B41E050E04C0F5D1F4E0F35
:1006E000511DFA01232FA32FB92F9A2F921B981770
:1006F00018F491919D93F9CFCF56DF4F0FB6F89430
:10070000DEBF0FBECDBFDF91CF910895CF93DF93B2
:10071000CDB7DEB72C970FB6F894DEBF0FBECDBFB6
:100720002CE0E5EEF1E0DE01119601900D922A95A4
:10073000E1F7FE0131969C01255F3F4F4191DC01BD
:100740004D93CD01A217B307C9F78BE02C960FB6D6
:10075000F894DEBF0FBECDBFDF91CF910895CF9348
:10076000DF93CDB7DEB729970FB6F894DEBF0FBE83
:10077000CDBF29E0E1EFF1E0DE01119601900D928D
:100780002A95E1F7FE0131969C01285F3F4F419188
:10079000DC014D93CD01A217B307C9F788E0299674
:1007A0000FB6F894DEBF0FBECDBFDF91CF91089595
:1007B00008959091000189130BC0E8E6F0E0E49100
:1007C0009FEF90930001E13049F028F0E23061F0B2
:1007D00060E00C940C0210926E00FACF90916F00C2
:1007E0009D7F90936F00F4CF909170009D7F9093C8
:1007F000700091E09093B0009091B100987F946068
:100800009093B1001092B300E3CF4F925F926F923A
:100810007F928F929F92AF92BF92CF92DF92EF9290
:10082000FF920F931F93CF93DF9300D000D01F92BE
:10083000CDB7DEB78B0129013A01909100018917EC
:10084000C9F09F3F09F47EC00F900F900F900F905A
:100850000F90DF91CF911F910F91FF90EF90DF905C
:10086000CF90BF90AF909F908F907F906F905F9050
:100870004F900895E8E6F0E094919D8397FDE4CFD2
:1008800061E00E943A028D81882321F09D8192309F
:1008900009F04AC14801B12CA12C60E072E18AE75D
:1008A00090E0A50198010E94C52529833A834B83D6
:1008B0005C8369017A0181E0C81AD108E108F10876
:1008C0009FEFC916D104E104F10409F00CF401C151
:1008D00060E472E48FE090E0A50198010E94C525D4
:1008E00069017A0181E0C81AD108E108F1089D8107
:1008F000923009F0A2C08FEFC816D104E104F104D0
:1009000009F00CF4E6C160E970ED83E090E0A50128
:1009100098010E94C52569017A0191E0C91AD108A0
:10092000E108F1088FEFC816D104E104F10411F0D9
:100930000CF07FC183E09091B100987F892B809368
:10094000B100CFC080930001E8E6F0E094919D8370
:100950009F3F09F479CF913041F150F0923009F482
:1009600046C09D8197FD70CF61E00E943A028ECF14
:1009700014BC15BC94B5926094BD95B5916095BDBD
:10098000282F30E0F901E155FF4FE491F0E0EE0F40
:10099000FF1FEB55FF4F45915491F901EF56FF4F63
:1009A000E491E0936D021D826BCF10928000109253
:1009B00081009091810098609093810090918100D6
:1009C000916090938100282F30E0F901E155FF4FAD
:1009D000E491F0E0EE0FFF1FEB55FF4F459154916E
:1009E000F901EF56FF4FE491E0936C0249CF10926A
:1009F000B0001092B1009091B00092609093B0005E
:100A00009091B10091609093B100282F30E0F901EE
:100A1000E155FF4FE491F0E0EE0FFF1FEB55FF4F64
:100A2000459154915093770240937602F901EF5625
:100A3000FF4FE491E093780223CF9FEFC916D104D2
:100A4000E104F10409F00CF46DC068E478EE81E093
:100A500090E0A50198010E94C52569017A0181E015
:100A6000C81AD108E108F1089D81992309F4FAC058
:100A70008FEFC816D104E104F10411F00CF0FBC0B3
:100A8000EFC064E274EF80E090E0A50194010E9461
:100A9000C52569017A0181E0C81AD108E108F10889
:100AA00085E09FEFC916D104E104F10409F008F4D0
:100AB00042CF62E17AE780E090E0A50194010E94D4
:100AC000C52569017A0181E0C81AD108E108F10859
:100AD000E5C081E09D8191112ECF95B5987F892B3E
:100AE00085BD2FEF3FEFA90141145104610471044A
:100AF00009F043C09D81913009F45EC0923009F441
:100B00006DC09111A1CEC7BC2093720230937302C5
:100B1000409374025093750280916E0082608093BE
:100B20006E0092CE82E0D6CFB12CA12C60E072E1B3
:100B30008AE790E0A50198010E94C52569017A0124
:100B400081E0C81AD108E108F108C114D10491E08C
:100B5000E906F10404F591E08D81813011F6809170
:100B60008100887F892B809381002FEF3FEFA901BF
:100B70004114510461047104F9F0D801AA0FBB1F9C
:100B8000A30192010E945B2428EE33E040E050E094
:100B90000E94A325AFCF68E478EE81E090E0A50144
:100BA00098010E94C52569017A0181E0C81AD1081F
:100BB000E108F10893E0D0CFD0928900C09288007C
:100BC00020936E0230936F02409370025093710233
:100BD00080916F00826080936F0036CEC092B30028
:100BE0002093790230937A0240937B0250937C02E7
:100BF0008091700082608093700026CE84E09FEF29
:100C0000C916D104E104F10409F008F466CFC980E3
:100C1000DA80EB80FC808AE0F594E794D794C7945F
:100C20008A95D1F781E0C81AD108E108F10885E07A
:100C300054CF68E478EE81E090E0A50198010E942D
:100C4000C52569017A0181E0C81AD108E108F108D7
:100C50009FEFC916D104E104F10411F00CF011CF9B
:100C600084E069CE83E09FEFC916D104E104F1046A
:100C700009F00CF432CF62E17AE780E090E0A50160
:100C800094010E94C52569017A0181E0C81AD10842
:100C9000E108F1089D81992309F4B0CF86E09FEF28
:100CA000C916D104E104F10409F008F444CEC98066
:100CB000DA80EB80FC809AE0F594E794D794C794AF
:100CC0009A95D1F781E0C81AD108E108F10887E0C8
:100CD00032CE82E030CEAF92BF92CF92DF92EF92CF
:100CE000FF920F931F93CF93DF936C017B018B01D6
:100CF000040F151FEB015E01AE18BF08C017D10726
:100D000059F06991D601ED91FC910190F081E02DAF
:100D1000C6010995892B79F7C501DF91CF911F9104
:100D20000F91FF90EF90DF90CF90BF90AF9008951C
:100D3000FC01538D448D252F30E0842F90E0821BE1
:100D4000930B541710F0CF96089501970895FC0166
:100D5000918D828D981761F0A28DAE0FBF2FB11DBE
:100D60005D968C91928D9F5F9F73928F90E0089516
:100D70008FEF9FEF0895FC01918D828D981731F0D0
:100D8000828DE80FF11D858D90E008958FEF9FEF24
:100D90000895FC01918D228D892F90E0805C9F4FFA
:100DA000821B91098F739927089582E893E00E942E
:100DB000C90621E0892B09F420E0822F089580E004
:100DC00090E0892B29F00E94D50681110C94000037
:100DD0000895FC01A48DA80FB92FB11DA35ABF4FD0
:100DE0002C91848D90E001968F739927848FA6892A
:100DF000B7892C93A089B1898C91837080648C937E
:100E0000938D848D981306C00288F389E02D80812C
:100E10008F7D80830895EF92FF920F931F93CF935E
:100E2000DF93EC0181E0888F9B8D8C8D98131AC025
:100E3000E889F989808185FF15C09FB7F894EE890C
:100E4000FF896083E889F989808183708064808369
:100E50009FBF81E090E0DF91CF911F910F91FF90B4
:100E6000EF900895F62E0B8D10E00F5F1F4F0F735C
:100E70001127E02E8C8D8E110CC00FB607FCFACF17
:100E8000E889F989808185FFF5CFCE010E94E906C6
:100E9000F1CFEB8DEC0FFD2FF11DE35AFF4FF082E8
:100EA0009FB7F8940B8FEA89FB8980818062CFCF4E
:100EB000CF93DF93EC01888D8823B9F0AA89BB8991
:100EC000E889F9898C9185FD03C0808186FD0DC07C
:100ED0000FB607FCF7CF8C9185FFF2CF808185FF9D
:100EE000EDCFCE010E94E906E9CFDF91CF910895C1
:100EF000CF93DF93EC016B81617089810E940C02BA
:100F00006B8162708A81DF91CF910C940C022091E9
:100F10002202260F3327331F21323105ECF42091B2
:100F20004602FC0190E080E0243069F082E0089500
:100F3000A09122022191AC014E5F5D4FA40FB52F0D
:100F4000B11D2C930196861798F380912202680FA9
:100F50006093220280E0089581E0089508958FEF64
:100F60009FEF08958FEF9FEF08958091FB0190E030
:100F70009195819591090895CF93DF93CB01EA0173
:100F8000642F0E948707CE01DF91CF910895CF9300
:100F9000DF931F92CDB7DEB7698361E0CE01019682
:100FA0000E94870781E090E00F90DF91CF91089534
:100FB00090E080E00895CF92DF92EF92FF920F933E
:100FC0001F93CF93DF93EC016A017B010AA51BA558
:100FD00001151105D9F0AB01960160E070E080E8E1
:100FE0009FE30E947524AB01BC01D801ED91FC91F7
:100FF0000480F581E02D2EA5C801DF91CF911F91CE
:101000000F91FF90EF90DF90CF9009940CA4DDA595
:10101000C02D2097C1F0688170E090E080E00E94D0
:101020002623A70196010E9487230E945B256B83DC
:10103000CE01DF91CF911F910F91FF90EF90DF9044
:10104000CF900C947807DF91CF911F910F91FF9073
:10105000EF90DF90CF900895DC01EC91B4E0EB9F2E
:10106000F0011124E80FF91F23813481618172811D
:10107000FC0181A550E040E02F3F320719F420E049
:1010800030E0A9010C940504DC01ED91FC91019084
:10109000F081E02D0994DC01ED91FC910280F38157
:1010A000E02D09948F929F92AF92BF92CF92DF92E0
:1010B000EF92FF920F931F93CF93DF93EC018A81FE
:1010C0000E94C8028C01CB84DC848C159D0508F439
:1010D0006C01DC86CB86ED84FE84E016F10608F414
:1010E0007801FE86ED86EC18FD088E818823D1F00C
:1010F000B70190E080E00E9426232F813885498542
:101100005A850E9487234B015C01B60190E080E084
:101110000E942623A50194010E9476240E945B254B
:101120007A8B698B8F859889E816F906C8F1298929
:101130003A8981E00217130708F480E088838D81E3
:10114000811106C081E00217130708F080E0888350
:10115000EB89FC893097B1F0298181E090E001C0F2
:10116000880F2A95EAF78095908189238083EB89FF
:10117000FC898881298101C0880F2A95EAF790812E
:10118000892B8083C801DF91CF911F910F91FF9030
:10119000EF90DF90CF90BF90AF909F908F90089589
:1011A0001882D6CF81E090E0089580E00895CF9234
:1011B000DF92EF92FF92CF93DF93EC01CB01BA0164
:1011C0000E9428236B017C01E881F9810284F38568
:1011D000E02DCE010995BC0190E080E00E9426231D
:1011E0009B01AC01C701B6010E94E22429853A8522
:1011F0004B855C850E94E2242D813E814F8158857C
:101200000E948723DF91CF91FF90EF90DF90CF90E6
:101210000895CF92DF92EF92FF92CF93DF93EC018C
:10122000CB01BA012D813E814F8158850E94E22475
:1012300029853A854B855C850E9487236B017C015B
:10124000E881F9810284F385E02DCE010995BC0186
:1012500090E080E00E942623A70196010E94872348
:101260000E945425DF91CF91FF90EF90DF90CF90B7
:101270000895DC0159968D919C91DC01ED91FC91D2
:101280000284F385E02D0994DC0159968D919C919F
:10129000DC01ED91FC910084F185E02D0994DC01E5
:1012A00059968D919C91DC01ED91FC910680F7811E
:1012B000E02D0994DC0159968D919C91DC01ED9112
:1012C000FC910480F581E02D0994DC0159968D9103
:1012D0009C91DC01ED91FC910280F381E02D099459
:1012E000DC0159968D919C91DC01ED91FC9101906E
:1012F000F081E02D0994CF93DF93EC010E9409095E
:101300009B01AC0160E472E48FE090E00E94A325B1
:101310003EA32DA38BA19CA18217930720F43CA38D
:101320002BA31AA619A6DF91CF910895CF93DF932F
:10133000EC018DA19EA1892B39F44B8D5C8D6D8DB7
:101340007E8DCE010E947B092DA13EA150E040E0A0
:1013500060E472E48FE090E00E94C525BA01A90123
:10136000CE01DF91CF910C94D708CF93DF93EC019E
:101370000E9409099B01AC0160E472E48FE090E0F7
:101380000E94A3253CA32BA38DA19EA1281739075A
:1013900020F43EA32DA31AA619A6DF91CF9108959C
:1013A000CF93DF93EC018BA19CA1892B39F44B8D5A
:1013B0005C8D6D8D7E8DCE010E94B5092BA13CA167
:1013C00050E040E060E472E48FE090E00E94C525C8
:1013D000BA01A901CE01DF91CF910C94D7084F92A9
:1013E0005F926F927F928F929F92AF92BF92EF9295
:1013F000FF920F931F93CF93DF93EC012A013B01E0
:101400008BA19CA1892B39F44B8D5C8D6D8D7E8DCC
:10141000CE010E94B5098DA19EA1892B39F44B8D77
:101420005C8D6D8D7E8DCE010E947B09CE010E9468
:10143000D0094B015C01CE010E949609EBA0FCA0F3
:101440000DA11EA1A50194010E94752420E034E2A3
:1014500044E759E40E948723A30192010E94E224F9
:101460004B015C01B701600F711F7695679590E0A5
:1014700080E00E9426239B01AC01C501B4010E94BB
:10148000E2240E945B2590E080E00E9426234B012D
:101490005C01B701601B710B90E080E00E94262385
:1014A000A50194010E94E2244B015C0120E030E0A0
:1014B000A9010E948A2520E030E040E05FE387FD3B
:1014C0001BC0C501B4010E9476240E945425272F19
:1014D0000E151F05B0F069A77AA7DF91CF911F9174
:1014E0000F91FF90EF90BF90AF909F908F907F9063
:1014F0006F905F904F900895C501B4010E947524CC
:10150000E4CF862F922F009711F481E090E09AA704
:1015100089A7E3CF0F931F93CF93DF93EC01E8816B
:10152000F9810280F381E02D09951BAA1CAA1DAA4E
:101530001EAA8BA59CA5ADA5BEA58FA798ABA9ABF0
:10154000BAAB0E94DD02FE01FD9609AD1AAD2BADCE
:101550003CADDC01CB01800F911FA21FB31F808324
:101560009183A283B383DF91CF911F910F9108954F
:10157000AF92BF92CF92DF92EF92FF920F931F93A1
:10158000CF93DF93FC01EF5BFF4F6A017B01C082C9
:10159000D182E282F382FC0124812111E8C08B0117
:1015A0007A01EC01A584B684C784D0889A01AB0186
:1015B000B501C6010E948A25181614F45701680166
:1015C000E988FA880B891C899501A601B701C80131
:1015D0000E94212387FF02C075018601A701B8017F
:1015E000CE010E9409096FA778AB89AB9AABC701FE
:1015F000D8018D8B9E8BAF8BB88F8BA99CA9ADA981
:10160000BEA9892B8A2B8B2B19F0CE010E948A0A46
:101610004BA55CA56DA57EA58FA598A9A9A9BAA97A
:10162000481759076A077B0709F4A1C08BA19CA141
:10163000892B39F44B8D5C8D6D8D7E8DCE010E9492
:10164000B5098DA19EA1892B39F44B8D5C8D6D8DD3
:101650007E8DCE010E947B098DA19EA12BA13CA174
:101660008217930748F4892B39F44F8D58A169A14B
:101670007AA1CE010E94EF09E881F9810680F78105
:10168000E02D6A810FA518A929A93AA98BA59CA5C7
:10169000ADA5BEA580179107A207B3070CF072C0D5
:1016A00081E08B83CE010995E881F9810190F08179
:1016B000E02DCE0109958E01035C1F4FF80180815A
:1016C0009181A281B381892B8A2B8B2B41F10E94BE
:1016D000DD02F801C080D180E280F3806C157D05C9
:1016E0008E059F05E0F40E94DD02F801C080D180E4
:1016F000E280F38009AD1AAD2BAD3CADDC01CB012E
:101700008C199D09AE09BF09081719072A073B075D
:1017100010F4D901C8018BAB9CABADABBEAB2FA90C
:1017200038AD8BA99CA9ADA9BEA9820F931FA11D9D
:10173000B11D8BAB9CABADABBEAB0E94DD02AB0170
:10174000BC012FA138A58BA99CA9ADA9BEA9820F68
:10175000931FA11DB11D840F951FA61FB71F8BAB33
:101760009CABADABBEAB8BA19CA198A78FA3DF9127
:10177000CF911F910F91FF90EF90DF90CF90BF908E
:10178000AF9008951B8281E068278CCFFC01838D88
:10179000948D0895FC01228925FF05C0221F222770
:1017A000221F822F089584850E94E30121E0892B66
:1017B000C1F720E0F6CFEF92FF920F931F93DC0169
:1017C00018968C911897882381F0489FA0011124C6
:1017D000452F829F90011124232F809F8001112487
:1017E000012F8E9D70011124EF2C1E968C911E9757
:1017F0001996ED91FC911A971B969C911B97891352
:1018000020C0CB01880F991F680F791F6E0F7F1FB3
:101810001B96EC911B97E60FF72FF11D40831C964A
:10182000EC911C97E60FF72FF11D20831D968C91EC
:10183000680F711DFB0100831F910F91FF90EF90C6
:101840000895660F771F660F771F6E0F7F1FFB01CE
:10185000E80FF11DE082DCCFCF92DF92EF92FF9292
:101860000F931F93CF93DF93CDB7DEB729970FB6B2
:10187000F894DEBF0FBECDBF8C010E94DD02D801FF
:101880001F96CD90DD90ED90FC9052976C157D05E4
:101890008E059F0528F4F8016787708B818B928BEA
:1018A000D8011F96CD90DD90ED90FC9052976C1969
:1018B0007D098E099F096C32714081059105E8F21E
:1018C000F894F801848195819A8389830184F28553
:1018D000E02D7F012FEFE21AF20A80818F83D80179
:1018E0009C915396ED91FC91549755968C91992328
:1018F00009F448C09081982B98879081809589231E
:10190000898789858B8388E08C83588569854F8199
:101910003C812B8189819A81D701508347FD252FF6
:101920003A952083262F39F0441F00C000006083C1
:10193000000000C0F2CF38E04D91608300000197B5
:1019400061F7D8015496FC93EE9353974F833C83F1
:101950002B839A83898378940E94DD02F80167873C
:10196000708B818B928B29960FB6F894DEBF0FBED9
:10197000CDBFDF91CF911F910F91FF90EF90DF903E
:10198000CF9008959081982B988790818095892396
:10199000898789858D8388E08E83588569854F8105
:1019A0003E812D8189819A81D701508347FD252F62
:1019B00000C000C0208300C000C000C000C000C044
:1019C00060830000262F3A9541F0441F000000C0BC
:1019D00000C000C000C000C0E8CF38E04D9100C09A
:1019E000608300C0019709F7D8015496FC93EE93E9
:1019F00053974F833E832D83ACCFEF920F931F936A
:101A0000CF93DF93EC018EA19FA1009701F510E029
:101A100006E0288130E08DA51817B8F5812F90E0F9
:101A2000029FF001039FF00D1124EC0FFD1FE80F42
:101A3000F91F61812EA5211101C0609570E08C0F06
:101A40009D1FFC0181A50E946B021F5FE2CF68A56C
:101A500070E0FC01228133816217730768F42881EA
:101A6000FE0136E0239FE00DF11D1124E480038187
:101A7000228141810E94DB0B8EA19FA1FC01218567
:101A80003285232B11F00E942C0C888116E0FE0178
:101A9000189FE00DF11D112485819681019691F02A
:101AA0000E9426032881FE01129FE00DF11D1124E2
:101AB00025813681620F731F811D911D6FA778AB41
:101AC00089AB9AAB81E08DA3DF91CF911F910F91EC
:101AD000EF900895EF920F931F93CF93DF93EC0154
:101AE0008EA19FA1009799F410E08DA5181730F5ED
:101AF0008EA56FEF70E0882311F070E060E0FE01CA
:101B0000E10FF11D81A50E946B021F5FEECF68A55A
:101B100070E0FC01228133816217730730F4E12CFD
:101B200000E020E040E00E94DB0B8EA19FA1FC01C1
:101B300021853285232B11F00E942C0C1FA618AA98
:101B400019AA1AAA1DA2DF91CF911F910F91EF90B0
:101B500008951092060386E093E00E94FD0C81EF49
:101B600092E00E9452088091F1028823B1F080E057
:101B700090E0A8ECB2EC80939F029093A002A09317
:101B8000A102B093A202AC01BD018EE892E00E94D6
:101B9000B80A81E080939202089580E090E0A8EC7A
:101BA000B2E480939B0290939C02A0939D02B09319
:101BB0009E02E9CF85E08093060386E093E00E94D1
:101BC000FD0C40919F025091A0026091A102709182
:101BD000A2028EE892E00C94B80A82E08093060399
:101BE00086E093E00E94FD0C40919B0250919C0284
:101BF00060919D0270919E028EE892E00E94B80A68
:101C000080912304882321F08DE390E00C948E00D2
:101C100008950F931F93CF93DF938C01D42FC62F7A
:101C2000CC0F60E0FC0185810E940C0284E58CBD34
:101C300081E08DBDCEBD00000DB407FEFDCFCEB559
:101C4000DEBD00000DB407FEFDCFDEB561E0F8019A
:101C500085810E940C02F8018281CF73C82BC28358
:101C60008D2FDF91CF911F910F910895CF92DF9229
:101C7000EF92FF92CF93DF932091E302A091ED02C8
:101C8000B091EE0230E00E9466242FEF30E040E099
:101C900050E00E94A32569018091EB029091EC0233
:101CA00034E0880F991F3A95E1F7B6010E948F251D
:101CB000C1E0662321F0C62F613108F0C0E14091F8
:101CC000E4024F7080E18C1B20E1829FC00111244F
:101CD000482B4093E40263E084ED92E00E94090EF9
:101CE000D0E0CC9DC001CD9D900DDC9D900D1124C8
:101CF00024E0969587952A95E1F7DF91CF91FF90A3
:101D0000EF90DF90CF900895662361F0853C29E045
:101D1000920710F084EC99E09093EE028093ED022C
:101D20000C94360E853C29E0920710F084EC99E083
:101D30009093EC028093EB02F3CF882329F08091FB
:101D4000ED029091EE0208950C94360EFC0121856F
:101D5000222321F060E086810C940C0241894F77A8
:101D6000418B64E00C94090ECF93DF93EC01498919
:101D700047FD05C04068498B64E00E94090E8985D3
:101D8000882331F061E08E81DF91CF910C940C02B9
:101D9000DF91CF910895FC01428945FF06C060FBA9
:101DA00047F9428B65E00C94090E84850C940C0273
:101DB000CF93DF93FC01428944FF07C04064428B0C
:101DC00065E0DF91CF910C94090EEC0161E085850F
:101DD0000E940C0260E08D85DF91CF910C940C0283
:101DE0000E940F271F93CF93DF9385ED8093BC0054
:101DF0008091FE019091FF01A0910002B09101023B
:101E00000796A11DB11D23E0B695A79597958795D7
:101E10002A95D1F72091BC0024FD03C01092460200
:101E200052C04091FE015091FF01609100027091FB
:101E30000102452B462B472B69F30097A105B105FD
:101E400041F02AE22A95F1F700C00197A109B109F2
:101E5000E1CF8091FD01C1E0C093FC01882399F19D
:101E6000D091B8001091BA008091BC008A7B809319
:101E7000BC0060E082E10E940C0260E083E10E940D
:101E80000C0210924602C09348021092470261E091
:101E900082E10E940C0261E083E10E940C028091C9
:101EA000B9008E7F8093B9008091B9008D7F8093B7
:101EB000B90088E48093B80085E48093BC00109357
:101EC000BA00D093B800DF91CF911F9108950C9480
:101ED00045240C944D241F920F920FB60F9211249B
:101EE0002F933F938F939F93AF93BF9380918602DD
:101EF00090918702A0918802B09189023091850269
:101F000023E0230F2D3758F50196A11DB11D209315
:101F100085028093860290938702A0938802B093F3
:101F2000890280918A0290918B02A0918C02B091DB
:101F30008D020196A11DB11D80938A0290938B02A0
:101F4000A0938C02B0938D02BF91AF919F918F911E
:101F50003F912F910F900FBE0F901F90189526E87C
:101F6000230F0296A11DB11DD2CF1F920F920FB663
:101F70000F9211242F933F934F935F936F937F930F
:101F80008F939F93AF93BF93EF93FF93E0910701DC
:101F9000F09108010995FF91EF91BF91AF919F9149
:101FA0008F917F916F915F914F913F912F910F9002
:101FB0000FBE0F901F9018951F920F920FB60F92A1
:101FC00011242F933F934F935F936F937F938F933E
:101FD0009F93AF93BF93EF93FF93E0910501F0912F
:101FE00006010995FF91EF91BF91AF919F918F915C
:101FF0007F916F915F914F913F912F910F900FBE05
:102000000F901F9018951F920F920FB60F921124E8
:102010002F933F934F935F936F937F938F939F93F0
:10202000AF93BF93EF93FF938091790290917A02DF
:10203000A0917B02B0917C02892B8A2B8B2BD1F152
:1020400090917802E0917602F09177028081892761
:1020500080838091790290917A02A0917B02B09165
:102060007C02181619061A061B069CF48091790248
:1020700090917A02A0917B02B0917C020197A10914
:10208000B1098093790290937A02A0937B02B09376
:102090007C02FF91EF91BF91AF919F918F917F91C2
:1020A0006F915F914F913F912F910F900FBE0F90C5
:1020B0001F901895809100010E94D903EACF1F92CA
:1020C0000F920FB60F9211242F933F934F935F936C
:1020D0006F937F938F939F93AF93BF93EF93FF93F0
:1020E00082E893E00E94E906FF91EF91BF91AF91E2
:1020F0009F918F917F916F915F914F913F912F9120
:102100000F900FBE0F901F9018951F920F920FB651
:102110000F9211242F938F939F93EF93FF93E0914E
:102120009203F09193038081E0919803F0919903D9
:1021300082FD1BC0908180919B038F5F8F732091E4
:102140009C03821741F0E0919B03F0E0EE57FC4FB7
:10215000958F80939B03FF91EF919F918F912F918A
:102160000F900FBE0F901F9018958081F4CF1F9293
:102170000F920FB60F9211242F933F934F935F93BB
:102180006F937F938F939F93AF93BF93EF93FF933F
:102190008091B900887F803609F44AC0F0F5883212
:1021A00009F4A5C018F5803109F499C0B8F4882362
:1021B00009F4F5C0883009F492C0FF91EF91BF9106
:1021C000AF919F918F917F916F915F914F913F91CF
:1021D0002F910F900FBE0F901F901895883109F422
:1021E00086C0803251F78093450214C0803409F4D0
:1021F0009BC040F48033B9F38833F9F680934502ED
:1022000085ECAEC0803509F483C0883509F494C0EC
:10221000883499F60E94F20ED0CF883909F48AC02A
:1022200038F5883729F050F4883611F0803729F6D0
:1022300083E0809346021092440255C0883809F426
:1022400079C0803919F0803809F0B7CF8091440205
:10225000803208F06FC0E091440281E08E0F8093DD
:1022600044028091BB00F0E0EC5DFD4F80833BC0F9
:10227000803B39F0D0F4803A09F477C0883A09F00D
:102280009CCF84E080934602109223021092220297
:10229000F0E0E0E009958091220281110FC081E019
:1022A000809322021092020209C0803C09F4A8CF58
:1022B000883C09F4A5CF883B09F07FCFE091230249
:1022C00081E08E0F80932302F0E0EE5FFD4F80816E
:1022D0008093BB00909123028091220229C08091BB
:1022E0006B028093BB0085EC8093BC0066CF90911D
:1022F0006A0280916902981758F5E0916A0281E0BC
:102300008E0F80936A02F0E0E75BFD4F8081E9CF9A
:10231000E0916A0281E08E0F80936A028091BB0097
:10232000F0E0E75BFD4F808390916A028091690243
:102330009817C8F285E8D8CFE0916A0281E08E0F45
:1023400080936A028091BB00F0E0E75BFD4F8083E1
:102350008091480281115ECF81E08093470284EA38
:102360008093BC001092460228CF85EC8093BC007D
:102370001092460280914402803230F4E09144028F
:10238000F0E0EC5DFD4F10826091440270E084E269
:1023900092E0F0E0E0E00995109244020ECF109236
:1023A000450238CF109285031092840388EE93E0A3
:1023B000A0E0B0E08093860390938703A093880306
:1023C000B093890386E291E0909383038093820324
:1023D00085EC90E090938F0380938E0384EC90E0E3
:1023E000909391038093900380EC90E090939303FB
:1023F0008093920381EC90E09093950380939403F3
:1024000082EC90E0909397038093960386EC90E0A3
:10241000909399038093980310929B0310929C03CE
:1024200010929D0310929E0382E893E09093200403
:1024300080931F048AEF90E09093220480932104FC
:102440001092230480E197E2A0E0B0E0809324049E
:1024500090932504A0932604B093270410922D0492
:1024600010922C0410922F0410922E04109231041A
:1024700010923004109233041092320410923504FA
:1024800010923404109237041092360410926004B3
:102490001092630410926404109266041092650412
:1024A00010926A041092690410926C0410926B04EA
:1024B00010926E0410926D041092700410926F04CA
:1024C00081E08093380492E090937E0380938103AF
:1024D00024E020937F032FE02093800310924F038A
:1024E0002EE02093780310927A03109279031092D1
:1024F0007D032EE733E030937C0320937B0310921F
:102500003A0310924103109248031092490310922B
:102510004A0310924B038093470380934403109225
:102520004503909346038093390383E090E09093B2
:102530003E0380933D030E94EA25909343038093DA
:102540004203009709F408C123E0FC0111922A9587
:10255000E9F781E090E090933C0380933B0389E0AE
:1025600090E09093400380933F0380913A03882347
:1025700041F061E089E00E943A0260E089E00E9457
:102580000C02E8EBF0E0E491F0E0EE0FFF1FEB55FA
:10259000FF4F8591949190934D0380934C03EAE90A
:1025A000F0E0E491E0934E031092060389E393E098
:1025B00090932D0380932C0310922E0391E090931F
:1025C00034031092F20282E18093F3028FEF809342
:1025D000F4028093F5029093F6029093F70240E0A4
:1025E00050E060E07FE34093F8025093F90260937B
:1025F000FA027093FB022FEF3FEF3093FD0220931E
:10260000FC021092FF021092FE0224E630E03093AA
:10261000010320930003109205031092040328E4A1
:1026200031E03093D5022093D40298E09093D90200
:102630008093E30284EF91E09093EC028093EB02AD
:1026400084EC99E09093EE028093ED0281E090E0BB
:102650009093F0028093EF0283ED92E09093D80282
:102660008093D70261E088E00E943A0261E08091A5
:10267000D9020E940C0288E391E090938F0280932C
:102680008E021092920280E090E0A0E0B0E480938D
:10269000930290939402A0939502B093960280E0E7
:1026A00090E0A8E4B3E48093970290939802A093FB
:1026B0009902B0939A0280E090E0A6E9B2E4809398
:1026C0009B0290939C02A0939D02B0939E02109255
:1026D0009F021092A0021092A1021092A2021092E8
:1026E000A3021092A4021092A5021092A60280E00A
:1026F00090E0A0E2B1E48093A9029093AA02A09393
:10270000AB02B093AC028093AD029093AE02A09363
:10271000AF02B093B0021092C1021092C2021092A6
:10272000C3021092C40288E893E19093C60280939A
:10273000C50280E990EDA3E0B0E08093C7029093DA
:10274000C802A093C902B093CA0284ED92E09093AC
:10275000A8028093A702089510923E0310923D03B1
:1027600010923C0310923B03FACECF93DF93CDB788
:10277000DEB7C054D1090FB6F894DEBF0FBECDBF8F
:10278000789484B5826084BD84B5816084BD85B54C
:10279000826085BD85B5816085BD80916E00816058
:1027A00080936E00109281008091810082608093FE
:1027B0008100809181008160809381008091800000
:1027C0008160809380008091B10084608093B1002B
:1027D0008091B00081608093B00080917A00846025
:1027E00080937A0080917A00826080937A00809151
:1027F0007A00816080937A0080917A00806880936B
:102800007A001092C1008AE493E090932D048093A3
:102810002C0486E893E090932F0480932E048FEA93
:1028200093E0909331048093300489E69FE0909385
:1028300033048093320487E69FE0909335048093BD
:10284000340489EA9DE090936A04809369048AEDD8
:102850009DE090936C0480936B048DEE9DE09093CB
:1028600066048093650484E89EE090936E048093F0
:102870006D048DE99EE09093700480936F048FE463
:1028800093E090935D0480935C048EE892E09093D3
:1028900068048093670481EF92E0909362048093D0
:1028A000610486E093E090935F0480935E04E0917E
:1028B0001F04F0912004A089B18982E08C93A48543
:1028C000B5851C92A685B78580E18C93108EA4896E
:1028D000B58986E08C93A289B3898C9180618C93B1
:1028E000A289B3898C9188608C93A289B3898C91D9
:1028F00080688C930288F389E02D80818F7D8083AE
:1029000060E084E10E943A0284E10E94C80260E033
:102910008091F3020E943A028FEF9FEF9093FD02A5
:102920008093FC021092FF021092FE0210920103AB
:102930001092000384E690E09093030380930203D7
:102940001092F70260E082E00E943A0286E393E090
:102950009093060180930501809169008C7F8260CD
:1029600080936900E89A00912C0310912D030115C2
:10297000110579F410E0809133031817E0F4E12F8A
:10298000F0E0EA5FFC4F61E081A50E943A021F5F20
:10299000F2CFD80116968D919C9197FD08C061E009
:1029A0000E943A0260E0F80186810E940C0281E0F8
:1029B000D80111968C9386E093E00E946A0D82E123
:1029C000E0E1F1E0DE01119601900D928A95E1F7C8
:1029D000E6E0F3E080E006E910E026E030E0482F92
:1029E00050E0DA01AA0FBB1FA40FB51F41E050E071
:1029F0004C0F5D1FA40FB51F12969C911297119654
:102A00004C9111975C915183428393831683058384
:102A10008F5F90E0B9010E948F25369653E0EA322D
:102A2000F507E9F685E08093060360E080E10E9407
:102A30003A0260E081E10E943A0261E08AE00E948D
:102A40003A02C0900101D0900201E0900301F090A1
:102A5000040120E030E0A901C701B6010E94212352
:102A600018160CF0B1C220E030E040E85FE3C70187
:102A7000B6010E948A2587FFABC220E030E04FE715
:102A800053E4C701B6010E9487236B017C0120E05B
:102A900030E0A9010E948A2520E030E040E05FE3B9
:102AA00087FD8DC2C701B6010E9476240E9454257D
:102AB0000E9428236B017C01C701B6010E945B259F
:102AC00070E08AE00E946B0220E030E04FE753E4C0
:102AD000C701B6010E94E2246093010170930201D4
:102AE000809303019093040161E0809178030E9438
:102AF0003A0260E0809178030E940C028091790391
:102B000090917A03009739F0DC01ED91FC910190EE
:102B1000F081E02D099500917B0310917C03011554
:102B20001105C9F061E0F80181810E943A0260E07C
:102B3000D80111968C910E940C0261E0F80182810B
:102B40000E943A0260E0D80112968C910E940C0219
:102B5000C8010E94780740E050E060E07FE38FE426
:102B600093E00E94DB07EFE4F3E088EE93E026E9D0
:102B700030E092838183348323838C599F4F349632
:102B8000803DB7E09B07A9F789E080934F031FB70B
:102B9000F89480917D02811127C0E9EBF0E08491E7
:102BA000EBE9F0E09491E82FF0E0EE0FFF1FE7591A
:102BB000FF4FA591B491EC91E92321F461E08AE003
:102BC0000E940C0261E08AE00E943A028CB58061AA
:102BD0008CBD8CB580648CBD61E08DE00E943A02B2
:102BE00061E08BE00E943A0280917D028F5F8093CA
:102BF0007D021FBF1092E4028FE08093E50280E324
:102C00008093E6028093E70288E08093E80283E005
:102C10008093E90280E28093EA0240E063E084ED81
:102C200092E00E94090E4091E50264E084ED92E09A
:102C30000E94090E4091E60265E084ED92E00E9458
:102C4000090E4091E70266E084ED92E00E94090ED1
:102C50004091E80267E084ED92E00E94090E409105
:102C6000E90268E084ED92E00E94090E4091EA02D8
:102C700069E084ED92E00E94090E85E08093DA021B
:102C800061E00E943A0260E08091DA020E940C0248
:102C900081E08093DD024091E50240684093E502C7
:102CA00064E084ED92E00E94090E86E08093E002E9
:102CB00061E00E943A0260E08091E0020E940C0212
:102CC0004091E6024F7D4093E60265E084ED92E09C
:102CD0000E94090E87E08093E10261E00E943A02BF
:102CE00060E08091E1020E940C024091E6024F7E7A
:102CF0004093E60265E084ED92E00E94090E88EEC2
:102D000093E09093EE028093ED020E94360E80E9EC
:102D100091E09093EC028093EB020E94360E40917A
:102D2000E70266E084ED92E00E94090E10929002A4
:102D300080E090E0A0E0B0E480939302909394024E
:102D4000A0939502B093960280E090E0A8E4B3E4EB
:102D50008093970290939802A0939902B0939A025D
:102D600040E050E060E271E48EE892E00E94B50934
:102D700040E050E060EA71E48EE892E00E947B0956
:102D800040E050E068EC71E48EE892E00E94EF09C8
:102D900080E090E0A0E7B2E480939B0290939C02D5
:102DA000A0939D02B0939E0280E090E0A8ECB1EC6D
:102DB00080939F029093A002A093A102B093A202DD
:102DC0008091C1029091C202A091C302B091C4024D
:102DD000892B8A2B8B2B21F08EE892E00E948A0AA5
:102DE0001092B9021092BA021092BB021092BC0269
:102DF000FE013A96FCABEBAB3EE1832E912CA12C6D
:102E0000B12C66246A94762C92E2492E512C22240D
:102E10002394312C80911F0490912004DC01ED91CA
:102E2000FC910084F185E02D0995892BC9F18091F1
:102E30001F0490912004DC01ED91FC910284F38544
:102E4000E02D0995682F282F392F30933A042093CD
:102E50003904E0913E04F0913F04309709F0ECC64C
:102E600080913D048111BBC030933C0420933B040E
:102E700081E080933D0480913E0490913F04892B32
:102E800011F00C946C2180913D0481110C946C2103
:102E900010924F0410925004109251041092520458
:102EA00080914F0490915004A0915104B09152042C
:102EB000892B8A2B8B2B89F00E94260300914F04CB
:102EC00010915004209151043091520406171707B5
:102ED0002807390710F40E94CB00809182028823D2
:102EE000B1F10E94260300917E0210917F02209191
:102EF000800230918102061717072807390738F535
:102F000080918202813011F00C9484214091B902A9
:102F10005091BA026091BB027091BC028EE892E0BF
:102F20000E94D70820E030E0A9010E94212387FDFC
:102F300002C00C9480210E94ED0D10927E0210922E
:102F40007F0210928002109281021092820280E130
:102F50000E94E30101E0892B09F000E0F090830278
:102F60000093830281E10E94E30111E0892B09F0C3
:102F700010E080918402811711F40C948821109341
:102F8000840280912304882311F40C948B21110F67
:102F9000100F80E892E00E948E000E94DD020E94E5
:102FA000AA0080911F0490912004DC01ED91FC9116
:102FB0000190F081E02D612F09950C948B21C701C0
:102FC000B6010E94752472CDC12CD12C760174CD2E
:102FD000C12CD12C5FE7E52E53E4F52E6DCD922F59
:102FE000882720913B0430913C04820F931F9093DB
:102FF0003C0480933B0410923D048636910509F40D
:10300000DFC208F03AC18F33910509F4FBC408F020
:1030100098C08631910509F45FC208F059C0843028
:10302000910509F49DC290F48130910509F448C2DC
:1030300008F443C2029709F448C281E290E00E947A
:103040008E0080913B0490913C043CC286309105F7
:1030500009F4ABC208F46CC28730910509F48DC243
:103060000C9759F7DE011196EEE0F0E021E2CF0176
:10307000019620935700E491ED93FC01449711F4DD
:10308000E5E1F0E04BA95CA9A417B50781F78DE055
:1030900090E00E948E0080911F0490912004DC013A
:1030A000ED91FC910190F081E02D69E0099580910E
:1030B0001F0490912004DC01ED91FC910280F381CA
:1030C000E02D49E050E0BE016F5F7F4F0995D3CE00
:1030D0008633910520F58433910508F0CCCE8A31F2
:1030E000910509F420C288F4E0912E04F0912F0498
:1030F000489709F0A2CF309709F4C5CECE010196CA
:103100000995182F87E190E0F4C18233910509F405
:10311000B2CEC39709F091CF82E190E019C1873315
:10312000910509F4A8CE08F4A9C2E0916904F091D0
:103130006A04CB9709F081CF309709F4A4CE0995A2
:103140009ACE8934910509F49EC408F048C08434AD
:10315000910509F45CC418F58134910509F448C45B
:1031600008F432C48234910509F067CF8091670476
:1031700090916804892B09F486CE83E490E00E9444
:103180008E008091670490916804DC019B964D91BC
:103190005D916D917C919E970E94D708D1C2863433
:1031A000910509F452C408F446C48734910509F422
:1031B00060C48834910509F040CF809167049091F4
:1031C0006804892B09F45FCE89E490E00E948E00A8
:1031D00080916704909168040E94D009B1C284353F
:1031E000910509F4F8C468F58135910509F455C4D1
:1031F000B0F48035910509F020CF8091670490915B
:103200006804892B09F43FCE81E590E00E948E008E
:1032100080916704909168040E94960991C282355A
:10322000910509F444C48335910509F006CF309225
:103230003F0420923E0482E080934D048EE290E0B1
:1032400017C08635910509F4DFC408F4D6C4873564
:10325000910509F4EAC48536910509F0EECE309265
:103260003F0420923E0482E080934D048EE090E083
:1032700090934104809340049AC08538B1E09B0745
:1032800009F493C208F075C08630F1E09F0709F495
:1032900005C290F58A37910509F4A1C168F4883711
:1032A000910509F4D9C108F0B7C18736910509F035
:1032B000C4CE8DE090E04CC0813031E0930709F43A
:1032C000E2C138F48115914009F0B7CE84E190E075
:1032D0003FC08430A1E09A0709F4DDC185309140F8
:1032E00009F0ABCE84E091E00E948E00E0915C0496
:1032F000F0915D0460815FC28B30E1E09E0709F4CC
:10330000FFC1D0F4883021E0920709F4E0C108F44D
:10331000CCC1893041E0940709F4E0C18A30914082
:1033200009F08BCE30923F0420923E0482E08093DD
:103330004D0488E190E09CCF8038A1E09A0709F421
:1033400024C258F48036914009F077CE8CE090E0AA
:1033500090933F0480933E048ECD8138F1E09F0727
:1033600009F416C28438914009F067CE8AE190E0F2
:10337000EFCF833032E0930709F4B7C208F04DC0B5
:10338000893851E0950709F483C2D0F48738B1E059
:103390009B0709F43AC208F42EC230923F042092EF
:1033A0003E04EEE1F0E0F0934104E093400410921B
:1033B000530410925404109255041092560449C1BB
:1033C0008E38F1E09F0709F400C2A8F48D389140CF
:1033D00009F033CE8CE891E00E948E0080911F04AA
:1033E00090912004DC01ED91FC910190F081E02DA1
:1033F00066E0099540CD8F3841E0940709F4ECC1AF
:103400008130924009F019CE80916104909162045C
:103410000E9452080E9402032ECD8930A2E09A0732
:1034200009F498C2C8F58630E2E09E0709F471C23B
:1034300018F58530924009F000CE84E092E00E94B9
:103440008E00E0916304F0E0EE0FFF1FEF59FB4F99
:103450000190F081E02D838594850E948E00E0919B
:103460006304F0E0EE0FFF1FEF59FB4F0190F08176
:10347000E02D8585968526C0873032E0930709F4D4
:1034800056C28830924009F0D8CD30923F04209245
:103490003E0481E290E0ECCE8B3052E0950709F4D7
:1034A0006FC208F468C28C30B2E09B0709F479C29D
:1034B0008436954609F4DFCCC0CD0E94CB00DBCC2E
:1034C0008DEC9BEA0E948E00D6CC83E090E00E94B7
:1034D0008E0084E190E0F6CFE0912C04F0912D0471
:1034E000309709F4D0CCCE0101960995182F85E1CB
:1034F00090E00E948E0080911F0490912004DC01D6
:10350000ED91FC910190F081E02D612F0995412F03
:1035100050E0BE016F5F7F4F80911F0490912004A7
:103520000E944B08A8CCE0913004F0913104E3CD27
:1035300083E090E090933F0480933E0480E190E02C
:10354000909341048093400481E0809357048092DB
:10355000580490925904A0925A04B0925B048BCC08
:103560008092580490925904A0925A04B0925B043D
:1035700085E090E00E9429017ECC83E090E090936A
:103580003F0480933E0480E190E090934104809357
:10359000400481E08093570410925804109259041B
:1035A00010925A0410925B0466CC10925804109248
:1035B000590410925A0410925B0487E090E0DACF2D
:1035C00085E690E00E948E006091240470912504AD
:1035D00080912604909127040E94AA004CCCE0918F
:1035E0003604F0913704309709F44DCC0995609377
:1035F00053047093540480935504909356048BE7BE
:1036000090E00E948E006091530470915404809168
:10361000550490915604E0CF8FE090E090933F04E2
:1036200080933E0483E080934D0483E090E0909388
:1036300041048093400480E190E0909343048093A0
:103640004204109258041092590410925A04109295
:103650005B0410924C040FCC8FE090E090933F04F9
:1036600080933E0483E080934D0483E090E0909348
:1036700041048093400481E190E0DFCFE091650454
:10368000F091660459CDE0915C04F0915D0481A550
:103690000E94D903F0CB85E190E05ACE30923F04EE
:1036A00020923E0486E190E0E3CD86E091E00E9426
:1036B0008E00E0915C04F0915D048081B4E08B9F0A
:1036C000C0011124E80FF91F81819281FBCE309255
:1036D0003F0420923E0487E190E0CACD88E091E06B
:1036E0000E948E00E0915C04F0915D04808124E0F2
:1036F000829FC0011124E80FF91F83819481E2CEDB
:103700008AE091E00E948E00A0915C04B0915D047B
:103710009A968D919C919B970097A9F0FC0120812E
:103720003181F901208531859E966C91F9010995C9
:103730009B01AC0160E070E080E89FE30E9475248B
:103740000E94080198CB9C960D911C9160E070E05E
:1037500080E89FE30115110599F3D80113966C9148
:1037600070E090E080E00E9426236B017C01F8016C
:10377000608170E090E080E00E9426239B01AC0114
:10378000C701B6010E94E224DBCF89E190E0E0CDE1
:1037900080915E0490915F04DC0195962C91222328
:1037A00009F471CB0E946A0D66CB84E891E00E9417
:1037B0008E006091600470E06F5F7F4F80911F0406
:1037C000909120040E94440856CBEBE1F0E0F09386
:1037D0003F04E0933E044FCB8EE891E00E948E00C0
:1037E000E0916004F0E0EE0FFF1FE25AFB4F019002
:1037F000F081E02D7FCD30923F0420923E0482E0A4
:1038000080934D048DE190E033CDE0916004F0E0D1
:10381000EE0FFF1FE25AFB4F0190F081E02D8081F7
:1038200090E090933A048093390486E891E00E94F6
:103830008E0010E000E0B6E0FB2E80911F04909116
:103840002004E0916004F0E0EE0FFF1FE25AFB4F0E
:10385000A081B1814091390450913A04F49E9001C5
:10386000F59E300D1124A20FB31F9D01200F311FB3
:10387000DC01ED91FC910190F081E02DD9011196D0
:103880006C9109950F5F1F4F04301105B1F6F3CA13
:10389000E0916004F0E0EE0FFF1FE25AFB4F019051
:1038A000F081E02D808190E090933A048093390478
:1038B00088E891E00E948E00E0916004F0E0EE0F55
:1038C000FF1FE25AFB4F0190F081E02D2091390457
:1038D00030913A0446E0429FC001439F900D11246D
:1038E000E80FF91F85819681EDCD82E092E00E947C
:1038F0008E000E94DD020E94AA00E0916304F0E0C5
:10390000EE0FFF1FEF59FB4F808191810E945208FB
:10391000D9CD30923F0420923E0482E080934D0442
:1039200020E230E0309341042093400440CD86E013
:1039300092E00E948E00E0916304F0E0EE0FFF1F22
:10394000EF59FB4F0190F081E02D678170858185F3
:103950009285F6CE88E092E00E948E00E0916304AA
:10396000F0E0EE0FFF1FEF59FB4F0190F081E02DCB
:1039700081899289A7CD50923F0440923E047BCA30
:103980008AE092E00E948E00E0916304F0E0EE0F86
:10399000FF1FEF59FB4F0190F081E02D668170E031
:1039A0000DCFE0916304F0E0EE0FFF1FEF59FB4FE6
:1039B0000190F081E02D7486638616861586128A42
:1039C000118A81E0868357CA8091670490916804C8
:1039D000892B09F458CA81E490E00E948E00E0919E
:1039E0006704F0916804658976898789908DA8CEEF
:1039F00030923F0420923E0482E080934D0489E29D
:103A000090E036CCE0916B04F0916C0495CB809102
:103A1000670490916804892B09F435CA85E490E025
:103A20000E948E00E0916704F091680461897289B8
:103A30008389948985CE30923F0420923E0482E0AF
:103A400080934D048AE290E013CC809167049091BA
:103A50006804892B09F417CA87E490E00E948E005D
:103A6000E0916704F0916804658576858785908983
:103A700067CE30923F0420923E0482E080934D0452
:103A80008BE290E0F5CB30923F0420923E0482E03E
:103A900080934D048CE290E0EBCB30923F04209277
:103AA0003E0482E080934D048DE290E0E1CB809172
:103AB000670490916804892B09F4E5C983E590E0D7
:103AC0000E948E000091670410916804F80183A1A0
:103AD00094A1892B39F4438D548D658D768DC80161
:103AE0000E94B509D80195968D919C919697892B46
:103AF00049F45B964D915D916D917C915E97C80103
:103B00000E947B09F80123A134A185A196A1281761
:103B1000390709F45CC081A592A5892B39F4478D3A
:103B200050A161A172A1C8010E94EF09C8010E94C1
:103B3000D0096DAB7EAB8FAB98AFC8010E949609E0
:103B400069AF7AAF8BAF9CAFD8019396CD90DC90E4
:103B500094979596ED90FC909697C6018E199F09C3
:103B600099966D917C910E948F2590E080E00E9453
:103B7000262321966CAF7DAF8EAF9FAF2197CE0CE1
:103B8000DF1CD694C794B60190E080E00E94262303
:103B90009B01AC0121966CAD7DAD8EAD9FAD2197A3
:103BA0000E94872320E034E244E759E40E94E224A3
:103BB0006B017C012DA93EA94FA958AD69AD7AAD25
:103BC0008BAD9CAD0E947524A7019601DBCD60E012
:103BD00070E0CB01B5CD80916F0490917004892B7A
:103BE00009F451C985E590E00E948E00E0916F04D0
:103BF000F091700480E0099565CC30923F042092EA
:103C00003E048FE290E034CB80916F049091700479
:103C1000892B09F438C987E590E00E948E00E09175
:103C20006F04F091700481E0E6CF30923F0420925F
:103C30003E0480E390E01CCB3197E033F10508F0BF
:103C40005DC0EB5DF14E0C94E425551E7E1E7A1E80
:103C50007E1E7E1E7E1E7E1E7E1E7E1E7E1E7E1E84
:103C60007E1EB61ED51EFE1E201F7E1E3F1F7E1E00
:103C7000431F4F1F561F841FB21FBE1FCC1FD01FD4
:103C80007E1EDA1F0F20422045206C209A207E1EC7
:103C90007E1E7E1E7E1E7E1E7E1EA920B920C9208D
:103CA000DB20EB20FB200B21342190914C04690197
:103CB000F12CE12C092E04C0CC0CDD1CEE1CFF1CE9
:103CC0000A94D2F7409153045091540460915504E2
:103CD00070915604C40ED51EE61EF71EC092530402
:103CE000D0925404E0925504F0925604985F909359
:103CF0004C0404C0232B79F40E94CB0080914D0426
:103D0000882309F4DAC290914E049111D6C28150F1
:103D100080934D04B0C88FEF860F80934D0481E0EF
:103D200080934E0480915704882341F3E09132043C
:103D3000F09133043097B9F0809158049091590470
:103D4000A0915A04B0915B048C019D010F5F1F4F3D
:103D50002F4F3F4F009358041093590420935A0457
:103D600030935B04099510925704C8CF80932304C5
:103D7000813021F60E94DD02009124041091250477
:103D80002091260430912704DC01CB01800F911F84
:103D9000A21FB31F8093280490932904A0932A04A0
:103DA000B0932B040E940203A9CFC901B0E0A0E0A8
:103DB00020914C0404C0880F991FAA1FBB1F2A958D
:103DC000D2F740915304509154046091550470917E
:103DD0005604840F951FA61FB71F8093530490931A
:103DE0005404A0935504B0935604809324049093F4
:103DF0002504A0932604B093270480CF90914C040F
:103E00006901F12CE12C092E04C0CC0CDD1CEE1C48
:103E1000FF1C0A94D2F740915804509159046091C4
:103E20005A0470915B04C40ED51EE61EF71EC092A4
:103E30005804D0925904E0925A04F0925B0456CF91
:103E4000E0913204F0913304309709F457CF809118
:103E5000580490915904A0915A04B0915B048C01CC
:103E60009D010F5F1F4F2F4F3F4F0093580410933A
:103E7000590420935A0430935B0409953FCF615055
:103E8000609364043BCF80915C0490915D04615029
:103E90006A3010F4FC0160830E942C082FCFA0919F
:103EA0005C04B0915D0461506C9328CFC901B0E00F
:103EB000A0E020914C0404C0880F991FAA1FBB1FCB
:103EC0002A95D2F7409153045091540460915504BF
:103ED00070915604840F951FA61FB71F809353043B
:103EE00090935404A0935504B0935604E0915C045D
:103EF000F0915D04408124E0429FA0011124E40F71
:103F0000F51F92838183FACEC901B0E0A0E0209131
:103F10004C0404C0880F991FAA1FBB1F2A95D2F713
:103F2000409153045091540460915504709156048B
:103F3000840F951FA61FB71F8093530490935404BA
:103F4000A0935504B0935604E0915C04F0915D0495
:103F5000408134E0439FA0011124E40FF51F9483B6
:103F60008383CCCE00915C0410915D040E94E90033
:103F7000AB01BC01C8010E94DB07C0CE6150609359
:103F80006004E62FF0E0EE0FFF1FE25AFB4F808146
:103F900091810E94FD0CB2CE615060936004AECE60
:103FA000E0916004F0E0EE0FFF1FE25AFB4FA081AA
:103FB000B18179CFC901B0E0A0E020914C0404C0E8
:103FC000880F991FAA1FBB1F2A95D2F7409153044F
:103FD000509154046091550470915604840F951FBC
:103FE000A61FB71F8093530490935404A0935504C5
:103FF000B0935604E0916004F0E0EE0FFF1FE25A28
:10400000FB4F0190F081E02D208146E0249FE00DE0
:10401000F11D112481839283A383B4836FCEC901E0
:10402000B0E0A0E020914C0404C0880F991FAA1FA3
:10403000BB1F2A95D2F740915304509154046091CC
:10404000550470915604840F951FA61FB71F8093C7
:10405000530490935404A0935504B0935604E091F4
:104060006004F0E0EE0FFF1FE25AFB4F0190F08179
:10407000E02D208156E0259FE00DF11D112496834F
:1040800085833CCE8093630439CEE0916304F0E0F5
:10409000EE0FFF1FEF59FB4F008111810E94E900D5
:1040A000D80117966D937D938D939C931A9781E019
:1040B00016968C93E0916304F0E0EE0FFF1FEF592A
:1040C000FB4F0190F081E02D74866386168615867D
:1040D000128A118A868312CEC901B0E0A0E0209135
:1040E0004C0404C0880F991FAA1FBB1F2A95D2F742
:1040F00040915304509154046091550470915604BA
:10410000840F951FA61FB71F8093530490935404E8
:10411000A0935504B0935604E0916304F0E0EE0FD1
:10412000FF1FEF59FB4F0190F081E02D928B818BA7
:104130001682E4CDE0916304F0E0EE0FFF1FEF592B
:10414000FB4F0190F081E02D81E0232B19F680E0F8
:10415000C1CF00916704109168040115110509F49D
:10416000CDCD0E94E900AB01BC01C8010E94B80A94
:10417000C5CD00916704109168040115110509F47B
:10418000BDCD0E94E900F801618B728B838B948B0B
:10419000B5CD00916704109168040115110509F46B
:1041A000ADCD0E94E900D8011D966D937D938D934E
:1041B0009C935097A3CD009167041091680401155A
:1041C000110509F49BCD0E94E900AB01BC01C801B7
:1041D0000E94B50993CD0091670410916804011500
:1041E000110509F48BCD0E94E900AB01BC01C801A7
:1041F0000E947B0983CD009167041091680401152A
:10420000110509F47BCD0E94E900AB01BC01C80196
:104210000E94EF0973CDC901B0E0A0E020914C04E9
:1042200004C0880F991FAA1FBB1F2A95D2F740917F
:104230005304509154046091550470915604840FB6
:10424000951FA61FB71F8093530490935404A09307
:104250005504B0935604E0916D04F0916E0460E053
:10426000309709F00ACE4ACDC901B0E0A0E0209114
:104270004C0404C0880F991FAA1FBB1F2A95D2F7B0
:104280004091530450915404609155047091560428
:10429000840F951FA61FB71F809353049093540457
:1042A000A0935504B0935604E0916D04F0916E0410
:1042B000309709F423CD61E0E0CDEEE3F4E08281B4
:1042C0009381819391932AE434E02E173F07B9F745
:1042D00010924E040C943B170E9426032091210457
:1042E00030912204620F731F811D911D60934F0452
:1042F0007093500480935104909352040C9450177F
:104300000E94DA0D0C949D170E94A90D0C949D1724
:104310000F110C94C1178091920281111CC0C090A2
:10432000CF02D090D002E090D102F090D202209142
:10433000A3023091A4024091A5025091A602C701A8
:10434000B6010E942123882331F0B701A6018EE82F
:1043500092E00E94B80A8091C1029091C202A0919D
:10436000C302B091C40200E0892B8A2B8B2BD9F0B9
:104370004091B9025091BA026091BB027091BC02A7
:104380008091BD029091BE02A091BF02B091C00287
:10439000481759076A077B0709F0D6C08EE892E0F4
:1043A0000E948A0A01E08091350390913603A09122
:1043B0003703B0913803892B8A2B8B2B99F00E94FD
:1043C0002603C0903503D0903603E0903703F09079
:1043D0003803C616D706E806F90620F486E093E00F
:1043E0000E946A0D10910901112309F40EC18091F8
:1043F0002B03811136C0115010930901109306034D
:1044000086E093E00E94FD0C1A3010F410934F03E5
:104410008FE493E00E942C08111123C070920C03CA
:1044200060920B0370921203609211037092180352
:104430006092170370921E0360921D037092240312
:104440006092230370922A036092290385E080938F
:10445000060386E093E00E946A0D809178030E9433
:10446000D903E0910403F09105031091F102309714
:1044700009F0108181EF92E00E9452089091F102C0
:1044800081E0191720F0911708F080E08195909154
:104490009202992309F448C0811102C0011144C05D
:1044A0008EE892E00E948A0A8091C1029091C20235
:1044B000A091C302B091C402892B8A2B8B2B21F0CF
:1044C0008EE892E00E948A0A1092B9021092BA0213
:1044D0001092BB021092BC0220E030E048EC51EC9C
:1044E00020939F023093A0024093A1025093A20216
:1044F00080E090E0A0E7B2E480939B0290939C025E
:10450000A0939D02B0939E0210929202BA01A9015B
:104510008EE892E00E94B80A80912304882321F05B
:104520008CE390E00E948E0080E090E0892B11F4F3
:104530000C940A170E94D506882311F40C940117D5
:104540000E9400000C9401170E94DD020091C1023C
:104550001091C2022091C3023091C402601771070A
:104560008207930708F41ECF8EE892E00E945A0952
:10457000209191028091B9029091BA02A091BB0260
:10458000B091BC022223E9F10196A11DB11D8093D7
:10459000B9029093BA02A093BB02B093BC0280917F
:1045A000B5029091B6022091B3023091B40228175F
:1045B000390770F44091B7025091B802841B950BF3
:1045C0008217930708F4C9019093B6028093B5024D
:1045D0002091B5023091B6028091C1029091C20241
:1045E000A091C302B091C402820F931FA11DB11DFF
:1045F0008093C1029093C202A093C302B093C402FD
:10460000D1CE0197A109B109C2CF01112ACF809162
:104610002B03882309F425CF86E093E00E946A0DDE
:1046200020CF80914203909143030E94862680917F
:104630003F039091400397FD03C060E00C943A0261
:1046400008950E94632308F481E00895E89409C066
:1046500097FB3EF490958095709561957F4F8F4FB5
:104660009F4F9923A9F0F92F96E9BB279395F695CB
:10467000879577956795B795F111F8CFFAF4BB0F49
:1046800011F460FF1BC06F5F7F4F8F4F9F4F16C0AD
:10469000882311F096E911C0772321F09EE8872F37
:1046A000762F05C0662371F096E8862F70E060E0F3
:1046B0002AF09A95660F771F881FDAF7880F96956C
:1046C000879597F90895990F0008550FAA0BE0E810
:1046D000FEEF16161706E807F907C0F012161306C4
:1046E000E407F50798F0621B730B840B950B39F404
:1046F0000A2661F0232B242B252B21F408950A266A
:1047000009F4A140A6958FEF811D811D08950E9497
:104710009A230C940B240E94FD2338F00E94042459
:1047200020F0952311F00C94F4230C94FA23112417
:104730000C943F240E941C2470F3959FC1F3950FA5
:1047400050E0551F629FF001729FBB27F00DB11D15
:10475000639FAA27F00DB11DAA1F649F6627B00DA5
:10476000A11D661F829F2227B00DA11D621F739F8E
:10477000B00DA11D621F839FA00D611D221F749F9C
:104780003327A00D611D231F849F600D211D822FE3
:10479000762F6A2F11249F5750409AF0F1F088230A
:1047A0004AF0EE0FFF1FBB1F661F771F881F915037
:1047B0005040A9F79E3F510580F00C94F4230C94CF
:1047C0003F245F3FE4F3983ED4F386957795679551
:1047D000B795F795E7959F5FC1F7FE2B880F911D61
:1047E0009695879597F9089597F99F6780E870E007
:1047F00060E008959FEF80EC089500240A94161657
:10480000170618060906089500240A9412161306BE
:10481000140605060895092E0394000C11F488234C
:1048200052F0BB0F40F4BF2B11F460FF04C06F5F68
:104830007F4F8F4F9F4F089557FD9058440F551F3E
:1048400059F05F3F71F04795880F97FB991F61F012
:104850009F3F79F087950895121613061406551F89
:10486000F2CF4695F1DF08C0161617061806991FF5
:10487000F1CF86957105610508940895E894BB27EA
:1048800066277727CB0197F90895F999FECF92BD56
:1048900081BDF89A992780B50895262FF999FECF02
:1048A0001FBA92BD81BD20BD0FB6F894FA9AF99A4D
:1048B0000FBE019608950E946624A59F900DB49F97
:1048C000900DA49F800D911D11240895A29FB00109
:1048D000B39FC001A39F700D811D1124911DB29F34
:1048E000700D811D1124911D08955058BB27AA27D2
:1048F0000E948D240C940B240E94FD2338F00E940A
:10490000042420F039F49F3F19F426F40C94FA2380
:104910000EF4E095E7FB0C94F423E92F0E941C248D
:1049200058F3BA17620773078407950720F079F4E4
:10493000A6F50C943E240EF4E0950B2EBA2FA02D74
:104940000B01B90190010C01CA01A0011124FF273C
:10495000591B99F0593F50F4503E68F11A16F04037
:10496000A22F232F342F4427585FF3CF4695379536
:104970002795A795F0405395C9F77EF41F16BA0BFB
:10498000620B730B840BBAF09150A1F0FF0FBB1FA9
:10499000661F771F881FC2F70EC0BA0F621F731FF2
:1049A000841F48F4879577956795B795F7959E3F4F
:1049B00008F0B0CF9395880F08F09927EE0F9795E0
:1049C000879508950E94F6240C940B240E940424D9
:1049D00058F00E94FD2340F029F45F3F29F00C9429
:1049E000F42351110C943F240C94FA230E941C24AC
:1049F00068F39923B1F3552391F3951B550BBB270E
:104A0000AA2762177307840738F09F5F5F4F220F52
:104A1000331F441FAA1FA9F335D00E2E3AF0E0E849
:104A200032D091505040E695001CCAF72BD0FE2F93
:104A300029D0660F771F881FBB1F26173707480727
:104A4000AB07B0E809F0BB0B802DBF01FF279358DF
:104A50005F4F3AF09E3F510578F00C94F4230C948C
:104A60003F245F3FE4F3983ED4F3869577956795AE
:104A7000B795F7959F5FC9F7880F911D9695879514
:104A800097F90895E1E0660F771F881FBB1F621733
:104A900073078407BA0720F0621B730B840BBA0BF1
:104AA000EE1F88F7E09508950E945B256894B11188
:104AB0000C943F2408950E94242488F09F5798F076
:104AC000B92F9927B751B0F0E1F0660F771F881F13
:104AD000991F1AF0BA95C9F714C0B13091F00E942D
:104AE0003E24B1E008950C943E24672F782F882748
:104AF000B85F39F0B93FCCF3869577956795B39554
:104B0000D9F73EF490958095709561957F4F8F4FC2
:104B10009F4F08950E94632308F48FEF0895AA1B06
:104B2000BB1B51E107C0AA1FBB1FA617B70710F098
:104B3000A61BB70B881F991F5A95A9F780959095CA
:104B4000BC01CD010895A1E21A2EAA1BBB1BFD01D9
:104B50000DC0AA1FBB1FEE1FFF1FA217B307E4075C
:104B6000F50720F0A21BB30BE40BF50B661F771FB4
:104B7000881F991F1A9469F7609570958095909594
:104B80009B01AC01BD01CF010895052E97FB1EF4DA
:104B900000940E94DC2557FD07D00E94A32507FC46
:104BA00003D04EF40C94DC2550954095309521951A
:104BB0003F4F4F4F5F4F0895909580957095619549
:104BC0007F4F8F4F9F4F0895EE0FFF1F0590F49179
:104BD000E02D09940F931F93CF93DF9382309105BB
:104BE00010F482E090E0E0917304F091740430E0FE
:104BF00020E0B0E0A0E0309799F42115310509F4E8
:104C00004AC0281B390B24303105D8F58A819B8195
:104C10006115710589F1FB0193838283FE0111C047
:104C2000408151810281138148175907E0F04817EC
:104C3000590799F4109761F012960C9312971396F6
:104C40001C933296CF01DF91CF911F910F91089560
:104C50000093730410937404F4CF2115310551F0BF
:104C60004217530738F0A901DB019A01BD01DF01AA
:104C7000F801C1CFEF01F9CF9093740480937304CE
:104C8000CDCFFE01E20FF31F8193919322503109A2
:104C900039832883D7CF2091710430917204232B5C
:104CA00041F420910C0130910D0130937204209356
:104CB000710420910A0130910B012115310541F455
:104CC0002DB73EB740910E0150910F01241B350BBB
:104CD000E0917104F0917204E217F307A0F42E1B27
:104CE0003F0B2817390778F0AC014E5F5F4F241750
:104CF000350748F04E0F5F1F5093720440937104C4
:104D0000819391939FCFF0E0E0E09CCFCF93DF932E
:104D10000097E9F0FC01329713821282A09173048C
:104D2000B0917404ED0130E020E01097A1F42081EF
:104D30003181820F931F20917104309172042817E2
:104D4000390709F061C0F0937204E0937104DF91B8
:104D5000CF910895EA01CE17DF07E8F54A815B811C
:104D60009E0141155105B1F7E901FB83EA834991A1
:104D70005991C40FD51FEC17FD0761F48081918113
:104D80000296840F951FE90199838883828193811C
:104D90009B838A83F0E0E0E012968D919C911397BB
:104DA0000097B9F52D913C911197CD010296820F94
:104DB000931F20917104309172042817390739F636
:104DC000309751F51092740410927304B0937204EA
:104DD000A0937104BCCFD383C28340815181840FDF
:104DE000951FC817D90761F44E5F5F4F888199817D
:104DF000480F591F518340838A819B81938382830B
:104E00002115310509F0B0CFF0937404E0937304D9
:104E10009ECFFD01DC01C0CF13821282D7CF81E08B
:104E200090E0F8940C94142710E0C3E6D0E004C09E
:104E3000FE010E94E4252196C436D107C9F7F894F3
:104E4000FFCFFF6666663FD803D8030600007504EF
:104E500080000F00000F000F000F00000F0F000078
:104E60000F0F0F00000000000B076B069806580795
:104E7000C906A706BB0600000000700965095A09AB
:104E80004F094409390900000000B40EA60ED80EDF
:104E9000CB0ECA0BC60B483A5C4D7920447269763A
:104EA000655C56756C696E74757320536F667477A4
:104EB000617265202844726577295C4669726D7756
:104EC000617265202D204D6F746F5472616B5C4D63
:104ED0006F746F5472616B5F50656C6C65745F507A
:104EE0006564657374616C5F4669726D7761726544
:104EF0005C4D6F746F5472616B5F50656C6C657460
:104F00005F506564657374616C5C4D6F746F54724F
:104F1000616B5F50656C6C65745F5065646573743C
:104F2000616C2E696E6F004A756C20313220323010
:0C4F300032340030383A35303A33330068
:107E0000112484B714BE81FFF0D085E080938100F7
:107E100082E08093C00088E18093C10086E0809377
:107E2000C20080E18093C4008EE0C9D0259A86E02C
:107E300020E33CEF91E0309385002093840096BBD3
:107E4000B09BFECF1D9AA8958150A9F7CC24DD24C4
:107E500088248394B5E0AB2EA1E19A2EF3E0BF2EE7
:107E6000A2D0813461F49FD0082FAFD0023811F036
:107E7000013811F484E001C083E08DD089C08234E0
:107E800011F484E103C0853419F485E0A6D080C0E4
:107E9000853579F488D0E82EFF2485D0082F10E0AE
:107EA000102F00270E291F29000F111F8ED06801E7
:107EB0006FC0863521F484E090D080E0DECF843638
:107EC00009F040C070D06FD0082F6DD080E0C81688
:107ED00080E7D80618F4F601B7BEE895C0E0D1E017
:107EE00062D089930C17E1F7F0E0CF16F0E7DF06D8
:107EF00018F0F601B7BEE89568D007B600FCFDCFD4
:107F0000A601A0E0B1E02C9130E011968C91119780
:107F100090E0982F8827822B932B1296FA010C0160
:107F200087BEE89511244E5F5F4FF1E0A038BF0790
:107F300051F7F601A7BEE89507B600FCFDCF97BE46
:107F4000E89526C08437B1F42ED02DD0F82E2BD052
:107F50003CD0F601EF2C8F010F5F1F4F84911BD097
:107F6000EA94F801C1F70894C11CD11CFA94CF0C13
:107F7000D11C0EC0853739F428D08EE10CD085E9AC
:107F80000AD08FE07ACF813511F488E018D01DD067
:107F900080E101D065CF982F8091C00085FFFCCF94
:107FA0009093C60008958091C00087FFFCCF809118
:107FB000C00084FD01C0A8958091C6000895E0E648
:107FC000F0E098E1908380830895EDDF803219F02E
:107FD00088E0F5DFFFCF84E1DECF1F93182FE3DFCA
:107FE0001150E9F7F2DF1F91089580E0E8DFEE27F6
:047FF000FF270994CA
:027FFE00040479
:00000001FF
