:100000000C9473000C949B000C949B000C949B002C
:100010000C949B000C949B000C949B000C94661217
:100020000C949B000C949B000C949B000C949B00E4
:100030000C949B000C949B000C949B000C949B00D4
:100040000C941C120C949B000C94E8120C94C21299
:100050000C949B000C949B000C949B000C949B00B4
:100060000C941A130C949B0007634236B79BD8A7D5
:100070001A39685618AEBAAB558C1D3CB7CC5763CD
:10008000BD6DEDFD753EF6177231BF000000803F7B
:100090000200000000240027002A000000000025C4
:1000A0000028002B000404040404040404020202D7
:1000B00002020203030303030301020408102040A9
:1000C0008001020408102001020408102000000032
:1000D0000800020100000304070000000000000007
:1000E00000003914752711241FBECFEFD8E0DEBF02
:1000F000CDBF24E0AEEEB1E001C01D92A836B2073C
:10010000E1F711E0A0E0B1E0E8EBF8E502C005900E
:100110000D92AE3EB107D9F710E0C2E7D0E004C0BF
:100120002197FE010E941F2BC137D107C9F70E94FA
:100130005A150C944F2C0C940000CF92DF92EF9242
:10014000FF92CF93DF93EC016A017B01E889F98983
:1001500082E08083C11481EED806E104F104A1F0AD
:1001600060E079E08DE390E0A70196010E94DE2A2D
:1001700021503109410951095695479537952795E1
:10018000211580E1380798F0E889F989108260E844
:1001900074E88EE190E0A70196010E94DE2A2150CA
:1001A0003109410951095695479537952795EC85B1
:1001B000FD853083EE85FF852083188EEC89FD89CF
:1001C00086E08083EA89FB89808180618083EA8977
:1001D000FB89808188608083EA89FB8980818068CF
:1001E0008083EA89FB8980818F7D8083DF91CF9135
:1001F000FF90EF90DF90CF900895EEE0F4E014A62A
:1002000013A616A615A610AA17A612AA11AA14AA12
:1002100013AA16AA15AA10AE17AA14AE15AE16AEDA
:1002200017AE12A612AE13AE1092520410924E04E4
:1002300010924F04109250041092510411AE089580
:10024000EEE0F4E086A197A1B0E0A0E021AD04C00B
:10025000880F991FAA1FBB1F2A95D2F7EEE4F4E07E
:100260004081518162817381840F951FA61FB71F42
:1002700080839183A283B383682F792F8A2F9B2F4A
:100280000895CF93DF9300D000D0CDB7DEB7698358
:100290007A838B839C8380911C0490911D04DC01E4
:1002A000ED91FC910280F381E02D44E050E0BE012D
:1002B0006F5F7F4F09950F900F900F900F90DF9118
:1002C000CF91089580911C0490911D04DC01ED9163
:1002D000FC910190F081E02D60E0099560E070E014
:1002E000CB010C944101CF93DF93CEE0D4E08E8517
:1002F0009F85DC01ED91FC910190F081E02D60E0A3
:1003000009958E859F85DC01ED91FC910190F0812E
:10031000E02D60E0DF91CF91099490E0FC01E35380
:10032000FF4F2491FC01E754FF4F3491FC01EB5542
:10033000FF4FE491EE23C9F0222339F0233001F17D
:10034000A8F4213019F1223029F1F0E0EE0FFF1F5F
:10035000E556FF4FA591B4918FB7F894EC916111D8
:1003600026C030953E233C938FBF08952730A9F0D7
:100370002830C9F0243049F7809180008F7D03C078
:10038000809180008F7780938000DFCF84B58F7756
:1003900084BDDBCF84B58F7DFBCF8091B0008F779C
:1003A0008093B000D2CF8091B0008F7DF9CF3E2BEB
:1003B000DACFCF93DF9390E0FC01E754FF4F249115
:1003C0008B559F4FFC0184918823D1F090E0880FDA
:1003D000991FFC01EF56FF4FA591B491FC01E55622
:1003E000FF4FC591D49161110EC09FB7F8948C91C5
:1003F000E22FE0958E238C932881E223E8839FBF30
:10040000DF91CF9108958FB7F894EC91E22BEC93A4
:100410008FBFF6CF1F93CF93DF93182FEB0161E0CF
:100420000E94D901209739F460E0812FDF91CF91AC
:100430001F910C948D01CF3FD10511F461E0F5CFF0
:10044000E12FF0E0E353FF4FE491E33031F140F46A
:10045000E130B1F0E230E1F0C038D1057CF7E4CF13
:10046000E73029F1E83059F1E430B1F780918000AC
:10047000806280938000D0938B00C0938A0004C078
:1004800084B5806884BDC7BDDF91CF911F91089569
:1004900084B5806284BDC8BDF7CF8091800080683C
:1004A00080938000D0938900C0938800EDCF809125
:1004B000B00080688093B000C093B300E5CF809116
:1004C000B00080628093B000C093B400DDCF3FB72E
:1004D000F89480916F0290917002A0917102B09196
:1004E000720226B5A89B05C02F3F19F00196A11DE9
:1004F000B11D3FBFBA2FA92F982F8827BC01CD016E
:10050000620F711D811D911D42E0660F771F881FCC
:10051000991F4A95D1F708952FB7F89460916B020F
:1005200070916C0280916D0290916E022FBF0895C0
:10053000CF93DF93CDB7DEB7C258D1090FB6F89489
:10054000DEBF0FBECDBF382F82E8E6E5F1E0DE0169
:10055000119601900D928A95E1F7DE01AC57BF4FDD
:10056000E2E88E918C3511F0E150D9F7EF5F81E828
:100570008E1B41E050E04C0F5D1F4E0F511DFA01E4
:10058000232FA32FB92F9A2F921B981718F491910C
:100590009D93F9CFCE57DF4F0FB6F894DEBF0FBE55
:1005A000CDBFDF91CF910895CF93DF93CDB7DEB765
:1005B0002C970FB6F894DEBF0FBECDBF2CE0E8ED50
:1005C000F1E0DE01119601900D922A95E1F7FE010E
:1005D00031969C01255F3F4F4191DC014D93CD0148
:1005E000A217B307C9F78BE02C960FB6F894DEBFBD
:1005F0000FBECDBFDF91CF910895CF93DF93CDB7DD
:10060000DEB729970FB6F894DEBF0FBECDBF29E045
:10061000E4EEF1E0DE01119601900D922A95E1F7EA
:10062000FE0131969C01285F3F4F4191DC014D93C3
:10063000CD01A217B307C9F788E029960FB6F89441
:10064000DEBF0FBECDBFDF91CF9108959091000125
:1006500089130BC0E0E9F0E0E4919FEF9093000173
:10066000E13049F028F0E23061F060E00C948D0157
:1006700010926E00FACF90916F009D7F90936F0063
:10068000F4CF909170009D7F9093700091E09093D3
:10069000B0009091B100987F94609093B100109257
:1006A000B300E3CF4F925F926F927F928F929F92AF
:1006B000AF92BF92CF92DF92EF92FF920F931F9370
:1006C000CF93DF9300D000D01F92CDB7DEB78B0160
:1006D00029013A01909100018917C9F09F3F09F45F
:1006E0007EC00F900F900F900F900F90DF91CF91E1
:1006F0001F910F91FF90EF90DF90CF90BF90AF9040
:100700009F908F907F906F905F904F900895E0E959
:10071000F0E094919D8397FDE4CF61E00E94D901C0
:100720008D81882321F09D81923009F04AC14801D2
:10073000B12CA12C60E072E18AE790E0A50198015C
:100740000E94002B29833A834B835C8369017A01E1
:1007500081E0C81AD108E108F1089FEFC916D10459
:10076000E104F10409F00CF401C160E472E48FE0EB
:1007700090E0A50198010E94002B69017A0181E0B7
:10078000C81AD108E108F1089D81923009F0A2C091
:100790008FEFC816D104E104F10409F00CF4E6C1AE
:1007A00060E970ED83E090E0A50198010E94002BC4
:1007B00069017A0191E0C91AD108E108F1088FEFC7
:1007C000C816D104E104F10411F00CF07FC183E0FC
:1007D0009091B100987F892B8093B100CFC0809316
:1007E0000001E0E9F0E094919D839F3F09F479CF07
:1007F000913041F150F0923009F446C09D8197FD4F
:1008000070CF61E00E94D9018ECF14BC15BC94B5A5
:10081000926094BD95B5916095BD282F30E0F901A7
:10082000EB55FF4FE491F0E0EE0FFF1FE556FF4F51
:1008300045915491F901E754FF4FE491E0935A0236
:100840001D826BCF109280001092810090918100E8
:1008500098609093810090918100916090938100C5
:10086000282F30E0F901EB55FF4FE491F0E0EE0F57
:10087000FF1FE556FF4F45915491F901E754FF4F93
:10088000E491E093590249CF1092B0001092B10068
:100890009091B00092609093B0009091B1009160FF
:1008A0009093B100282F30E0F901EB55FF4FE49110
:1008B000F0E0EE0FFF1FE556FF4F45915491509326
:1008C000640240936302F901E754FF4FE491E0931F
:1008D000650223CF9FEFC916D104E104F10409F0AA
:1008E0000CF46DC068E478EE81E090E0A501980119
:1008F0000E94002B69017A0181E0C81AD108E10841
:10090000F1089D81992309F4FAC08FEFC816D1042C
:10091000E104F10411F00CF0FBC0EFC064E274EFED
:1009200080E090E0A50194010E94002B69017A010A
:1009300081E0C81AD108E108F10885E09FEFC916E7
:10094000D104E104F10409F008F442CF62E17AE74E
:1009500080E090E0A50194010E94002B69017A01DA
:1009600081E0C81AD108E108F108E5C081E09D8165
:1009700091112ECF95B5987F892B85BD2FEF3FEF35
:10098000A901411451046104710409F043C09D811F
:10099000913009F45EC0923009F46DC09111A1CE7E
:1009A000C7BC20935F023093600240936102509372
:1009B000620280916E00826080936E0092CE82E02F
:1009C000D6CFB12CA12C60E072E18AE790E0A501BE
:1009D00098010E94002B69017A0181E0C81AD108B0
:1009E000E108F108C114D10491E0E906F10404F52D
:1009F00091E08D81813011F680918100887F892B73
:100A0000809381002FEF3FEFA9014114510461044D
:100A10007104F9F0D801AA0FBB1FA30192010E9433
:100A2000B82828EE33E040E050E00E94DE2AAFCF45
:100A300068E478EE81E090E0A50198010E94002B27
:100A400069017A0181E0C81AD108E108F10893E050
:100A5000D0CFD0928900C092880020935B0230935F
:100A60005C0240935D0250935E0280916F00826051
:100A700080936F0036CEC092B3002093660230930D
:100A8000670240936802509369028091700082600F
:100A90008093700026CE84E09FEFC916D104E10454
:100AA000F10409F008F466CFC980DA80EB80FC809D
:100AB0008AE0F594E794D794C7948A95D1F781E0BA
:100AC000C81AD108E108F10885E054CF68E478EE4F
:100AD00081E090E0A50198010E94002B69017A0154
:100AE00081E0C81AD108E108F1089FEFC916D104C6
:100AF000E104F10411F00CF011CF84E069CE83E041
:100B00009FEFC916D104E104F10409F00CF432CFCF
:100B100062E17AE780E090E0A50194010E94002B59
:100B200069017A0181E0C81AD108E108F1089D81C4
:100B3000992309F4B0CF86E09FEFC916D104E104F0
:100B4000F10409F008F444CEC980DA80EB80FC801F
:100B50009AE0F594E794D794C7949A95D1F781E0F9
:100B6000C81AD108E108F10887E032CE82E030CE21
:100B7000AF92BF92CF92DF92EF92FF920F931F93AB
:100B8000CF93DF936C017B018B01040F151FEB01E9
:100B90005E01AE18BF08C017D10759F06991D601A0
:100BA000ED91FC910190F081E02DC6010995892B12
:100BB00079F7C501DF91CF911F910F91FF90EF90D1
:100BC000DF90CF90BF90AF900895FC01538D448D7E
:100BD000252F30E0842F90E0821B930B541710F0E8
:100BE000CF96089501970895FC01918D828D9817F5
:100BF00061F0A28DAE0FBF2FB11D5D968C91928DCD
:100C00009F5F9F73928F90E008958FEF9FEF0895FD
:100C1000FC01918D828D981731F0828DE80FF11DC6
:100C2000858D90E008958FEF9FEF0895FC01918DE1
:100C3000228D892F90E0805C9F4F821B91098F73DA
:100C40009927089581E793E00E94160621E0892BF9
:100C500009F420E0822F089580E090E0892B29F0AC
:100C60000E94220681110C9400000895FC01A48DBD
:100C7000A80FB92FB11DA35ABF4F2C91848D90E0BE
:100C800001968F739927848FA689B7892C93A089A1
:100C9000B1898C91837080648C93938D848D98132B
:100CA00006C00288F389E02D80818F7D80830895BE
:100CB000EF92FF920F931F93CF93DF93EC0181E0AC
:100CC000888F9B8D8C8D98131AC0E889F989808153
:100CD00085FF15C09FB7F894EE89FF896083E88986
:100CE000F98980818370806480839FBF81E090E078
:100CF000DF91CF911F910F91FF90EF900895F62E05
:100D00000B8D10E00F5F1F4F0F731127E02E8C8D9E
:100D10008E110CC00FB607FCFACFE889F9898081E3
:100D200085FFF5CFCE010E943606F1CFEB8DEC0F9B
:100D3000FD2FF11DE35AFF4FF0829FB7F8940B8F00
:100D4000EA89FB8980818062CFCFCF93DF93EC016A
:100D5000888D8823B9F0AA89BB89E889F9898C91A3
:100D600085FD03C0808186FD0DC00FB607FCF7CF5F
:100D70008C9185FFF2CF808185FFEDCFCE010E945F
:100D80003606E9CFDF91CF91089520913402260FE6
:100D90003327331F21323105ECF420919902FC01F5
:100DA00090E080E0243069F082E00895A091340260
:100DB0002191AC014E5E5D4FA40FB52FB11D2C9358
:100DC0000196861798F380913402680F609334027D
:100DD00080E0089581E008951092990281E0809367
:100DE00098021092730261E082E10E948D0161E03D
:100DF00083E10E948D01E9EBF0E080818E7F8083AA
:100E000080818D7F808388E48093B80085E480931F
:100E1000BC000895CF93DF9391E090931102882353
:100E2000B9F0C091B800D091BA008091BC008A7B23
:100E30008093BC0060E082E10E948D0160E083E16C
:100E40000E948D010E94EC06D093BA00C093B800B6
:100E5000DF91CF9108958F929F92AF92BF92CF92E0
:100E6000DF92EF92FF920F931F93CF93DF93D09176
:100E7000C202D13208F0D7C0182FC091C1020E941F
:100E800067026B017C018091990281116BC082E045
:100E900080939902109398028FEF8093970210929B
:100EA0009602D0939502A1EAB2E0E5E7F2E080E095
:100EB000D81391C01092740280917402CC0FC82B89
:100EC000C093740280917302813009F088C010923F
:100ED00073020E9467026B017C018091740280930F
:100EE000BB0080919B0290919C02A0919D02B091C9
:100EF0009E02892B8A2B8B2BA1F00E946702009106
:100F00009B0210919C0220919D0230919E026C19CF
:100F10007D098E099F09061717072807390708F466
:100F200042C08091BC0083FDD8CF85EC8093BC008B
:100F30000E9467026B017C0180919902823009F462
:100F400050C0809197028F3F09F46FC08091970243
:100F5000803209F46CC080919702803309F469C033
:100F600084E026C080919B0290919C02A0919D02FA
:100F7000B0919E02892B8A2B8B2B09F484CF0E947F
:100F8000670280909B0290909C02A0909D02B0907E
:100F90009E026C197D098E099F0986169706A80680
:100FA000B90608F070CF80919A020E940A0785E086
:100FB0001092A0021092C20210929F02DF91CF9174
:100FC0001F910F91FF90EF90DF90CF90BF90AF9067
:100FD0009F908F9008959D9191938F5F69CF85EE3B
:100FE000A5CF80919B0290919C02A0919D02B0910F
:100FF0009E02892B8A2B8B2B09F49ECF0E946702BD
:1010000000919B0210919C0220919D0230919E02C2
:101010006C197D098E099F090617170728073907DC
:1010200008F08ACFC0CF81E0C3CF80E0C1CF82E09B
:10103000BFCF83E0BDCF089508950895E0911002D9
:1010400080910F02E81730F4F0E0E151FE4F80810B
:1010500090E008958FEF9FEF089590911002809196
:101060000F022FEF3FEF981748F4E92FF0E0E1511E
:10107000FE4F208130E09F5F90931002C9010895D8
:1010800080910F0290911002891B990B0895CF92C5
:10109000DF92EF92FF920F931F93CF93DF937C0128
:1010A000CB018A0120919F02222389F0EB016B0181
:1010B000C40ED51ECC15DD0569F06991D701ED91FF
:1010C000FC910190F081E02DC7010995F3CF642FC9
:1010D0000E94C506C801DF91CF911F910F91FF902B
:1010E000EF90DF90CF900895CF93DF931F92CDB70D
:1010F000DEB7698320919F022223F9F02091C2027A
:10110000203258F021E030E0FC013383228390E06C
:1011100080E00F90DF91CF9108958091A002E82F99
:10112000F0E0EF55FD4F998190838F5F8093A0028F
:101130008093C20281E090E0ECCF61E0CE010196A5
:101140000E94C506F7CF90E080E00895EF92FF92ED
:101150000F931F93DC0118968C911897882381F0C8
:10116000489FA0011124452F829F90011124232F15
:10117000809F80011124012F8E9D70011124EF2C7E
:101180001E968C911E971996ED91FC911A971B96BD
:101190009C911B97891320C0CB01880F991F680F62
:1011A000791F6E0F7F1F1B96EC911B97E60FF72F91
:1011B000F11D40831C96EC911C97E60FF72FF11D53
:1011C00020831D968C91680F711DFB0100831F9178
:1011D0000F91FF90EF900895660F771F660F771FAE
:1011E0006E0F7F1FFB01E80FF11DE082DCCFCF9275
:1011F000DF92EF92FF920F931F93CF93DF93CDB7C0
:10120000DEB729970FB6F894DEBF0FBECDBF8C01B5
:101210000E946702D8011F96CD90DD90ED90FC9062
:1012200052976C157D058E059F0528F4F801678798
:10123000708B818B928BD8011F96CD90DD90ED90B5
:10124000FC9052976C197D098E099F096C32714090
:1012500081059105E8F2F894F801848195819A83DB
:1012600089830184F285E02D7F012FEFE21AF20AD3
:1012700080818F83D8019C915396ED91FC91549776
:1012800055968C91992309F448C09081982B9887A2
:10129000908180958923898789858B8388E08C83D9
:1012A000588569854F813C812B8189819A81D7013D
:1012B000508347FD252F3A952083262F39F0441F70
:1012C00000C000006083000000C0F2CF38E04D9104
:1012D00060830000019761F7D8015496FC93EE9368
:1012E00053974F833C832B839A83898378940E94FE
:1012F0006702F8016787708B818B928B29960FB6F6
:10130000F894DEBF0FBECDBFDF91CF911F910F913B
:10131000FF90EF90DF90CF9008959081982B988761
:10132000908180958923898789858D8388E08E8344
:10133000588569854F813E812D8189819A81D701A8
:10134000508347FD252F00C000C0208300C000C08F
:1013500000C000C000C060830000262F3A9541F015
:10136000441F000000C000C000C000C000C0E8CFA3
:1013700038E04D9100C0608300C0019709F7D801A3
:101380005496FC93EE9353974F833E832D83ACCFBB
:101390007F928F929F92AF92BF92CF92DF92EF9205
:1013A000FF920F931F93CF93DF93EC018C898E30C4
:1013B00008F08E508770806480937C0080917A0062
:1013C000806480937A0080917A0086FDFCCF8091C2
:1013D0007800909179009A8789870E9467024B0173
:1013E0005C018B829C82AD82BE8220E030E0A9014C
:1013F0006BA57CA58DA59EA50E94412A69857A854D
:10140000181614F5E9A4FAA490E080E00E9483275E
:10141000AB01BC01D701ED91FC910280F381E02D7D
:1014200095018401C70109956B017C0120E030E042
:10143000A9010E947E2787FF03C0C12CD12C760111
:10144000C701B6010E94EB2978876F830E948C0246
:101450000F8118854E855F852A893B894017510782
:1014600060F421153105A9F0CD8CDE8CEF8CF8A04D
:10147000C616D706E806F90660F41F870E876B01CB
:101480007C01C20ED31EE11CF11CCD8EDE8EEF8ED0
:10149000F8A2488959890417150760F42115310508
:1014A00099F0C9A0DAA0EBA0FCA0C616D706E80602
:1014B000F90650F4198B088B620F731F811D911D63
:1014C00069A37AA38BA39CA3CE84DF84E888F988E0
:1014D000EC18FD087B847720D1F0B70190E080E024
:1014E0000E9483272F89388D498D5A8D0E94E427C9
:1014F0004B015C01B60190E080E00E948327A501CA
:1015000094010E94D3280E94EB297C8F6B8F8C85DD
:101510009D85E816F90610F4711009C02B8D3C8DDD
:101520008981882331F081E00217130730F480E0CD
:1015300004C081E002171307D0F748818883EFA128
:10154000F8A59A8121E030E001C0220F9A95EAF7D0
:101550002095908129232083EFA1F8A528819A81E5
:1015600001C0220F9A95EAF79081292B20838427C6
:10157000DF91CF911F910F91FF90EF90DF90CF906F
:10158000BF90AF909F908F907F900895CF93DF93FF
:10159000EC016B81617089810E948D016B816270A9
:1015A0008A81DF91CF910C948D0160E070E0CB01D6
:1015B000089560E070E0CB010895CF92DF92EF9242
:1015C000FF920F931F93CF93DF93EC016A017B018E
:1015D0000E9467028B019C01E881F9810280F381FE
:1015E000E02DB701A601CE010995DF91CF911F91A2
:1015F0000F91FF90EF90DF90CF90089560E070E042
:1016000080E89FEB089560E070E080E89FEB08952C
:10161000CF92DF92EF92FF92CF93DF93EC01E881BC
:10162000F9810084F185E02D09956B017C012C8501
:101630003D854E855F85688979898A899B890E9465
:10164000D328A70196010E94E427DF91CF91FF9054
:10165000EF90DF90CF900895DC01ED91FC91008830
:10166000F189E02D60E009948F929F92AF92BF9232
:10167000CF92DF92EF92FF921F93CF93DF93EC0113
:101680006A017B01122F8C849D84AE84BF84AB01E0
:101690009601C501B4010E947E2740E050E0BA01E6
:1016A00087FF0EC0A5019401C701B6010E94D22890
:1016B000288939894A895B890E943F29AB01BC018D
:1016C000E881F9810480F581E02D212FCE01099573
:1016D000288939894A895B890E94E4272C853D85C0
:1016E0004E855F850E94D328DF91CF911F91FF9097
:1016F000EF90DF90CF90BF90AF909F908F90089524
:10170000DC01ED91FC910484F585E02D20E0099445
:10171000DC01ED91FC910084F185E02D60E00994FD
:10172000DC01ED91FC910480F581E02D20E009942D
:101730001F93CF93DF93EC018C899D89892B11F541
:101740001092100210920F021092A0021092C20288
:101750000E94EC068BE198E0909333028093320272
:101760008CE198E09093370280933602898D91E066
:1017700090939F028093C10281E0DF91CF911F91EE
:101780000C942B071FB7F8948091EE01811127C0AC
:10179000EFEAF0E08491E3ECF0E09491E82FF0E0E0
:1017A000EE0FFF1FEF56FF4FA591B491EC91E92387
:1017B00021F461E08AE00E948D0161E08AE00E94EC
:1017C000D9018CB580618CBD8CB580648CBD61E025
:1017D0008DE00E94D90161E08BE00E94D9018091E7
:1017E000EE018F5F8093EE011FBF61E08E890E9442
:1017F000D90161E08E890E948D0180E0DF91CF9157
:101800001F910895CF92DF92EF92FF920F931F9353
:10181000CF93DF93EC016A017B010CA51DA5011597
:101820001105D9F0AB01960160E070E080E89FE31C
:101830000E94D228AB01BC01D801ED91FC9104803B
:10184000F581E02D28A9C801DF91CF911F910F915B
:10185000FF90EF90DF90CF9009940EA4DFA5C02DEC
:101860002097C1F0688170E090E080E00E948327BB
:10187000A70196010E94E4270E94EB296B83CE0109
:10188000DF91CF911F910F91FF90EF90DF90CF905C
:101890000C94C60ADF91CF911F910F91FF90EF90AA
:1018A000DF90CF900895FC0183A50C9426036A3045
:1018B00018F4DC0112966C93DC01ED91FC9102802E
:1018C000F381E02D0994DC011296EC91B4E0EB9FDA
:1018D000F0011124E80FF91F25813681638174819D
:1018E000FC0183A550E040E02F3F320719F420E0CF
:1018F00030E0A9010C945203CF93DF93EC0161E037
:101900008BA50E94D90160E08BA50E948D018CA55A
:101910009DA5009739F0DC01ED91FC910190F081DB
:10192000E02D09950EA4DFA5C02D2097A9F061E058
:1019300089810E94D90160E089810E948D0161E066
:101940008A810E94D90160E08A810E948D01CE01C6
:10195000DF91CF910C94C60ADF91CF910895EF9259
:10196000FF920F931F93CF93DF93EC018EA19FA162
:1019700010E0892BE9F406E08DA5181708F042C0A5
:10198000812F90E02881FE01029FE00DF11D1124BE
:10199000E80FF91F61812EA5211101C0609570E04B
:1019A0008C0F9D1FFC0181A50E940A021F5FE4CFDE
:1019B00086E0F82E8EA19FA128A51217B0F4612F02
:1019C00070E0FC01228133816217730760F4288183
:1019D000FE01F29EE00DF11D1124E48003812281BD
:1019E00041810E94A6081F5FE5CFFC012185328559
:1019F000232B41F0DF91CF911F910F91FF90EF903A
:101A00000C94F708DF91CF911F910F91FF90EF9009
:101A10000895EF920F931F93CF93DF93EC018EA164
:101A20009FA110E0892B91F48DA5181758F58EA56C
:101A300070E060E0811102C06FEF70E0FE01E10F25
:101A4000F11D81A50E940A021F5FEECF8EA19FA10A
:101A500028A5121780F4612F70E0FC0122813381E8
:101A60006217730730F4E12C00E020E040E00E94B0
:101A7000A6081F5FEBCFFC0121853285232B11F0D7
:101A80000E94F7081FA618AA19AA1AAA1DA2DF9178
:101A9000CF911F910F91EF9008951F93CF93DF93F4
:101AA000EC010E94AF0C888116E0FE01189FE00D4A
:101AB000F11D112485819681019691F00E948C027E
:101AC0002881FE01129FE00DF11D11242581368130
:101AD000620F731F811D911D6FA778AB89AB9AAB05
:101AE00081E08DA3DF91CF911F910895CF93DF9374
:101AF00000D000D0CDB7DEB749835A836B837C8397
:101B0000DC018D919C91DC01ED91FC910280F381CF
:101B1000E02D44E050E0BE016F5F7F4F09950F90CC
:101B20000F900F900F90DF91CF910895CF93DF9397
:101B300000D0CDB7DEB769837A83DC018D919C91AB
:101B4000DC01ED91FC910280F381E02D42E050E058
:101B5000BE016F5F7F4F09950F900F90DF91CF917E
:101B60000895EF92FF920F931F93CF93DF93EC01B1
:101B700060E772E08CE194E00E94960D4D815E81F9
:101B80006F8178858CE194E00E94760D00911C04B1
:101B900010911D04D801ED91FC91E080F180E88165
:101BA000F9810480F581E02DCE010995682FC801E7
:101BB000F701DF91CF911F910F91FF90EF90099462
:101BC00080911C0490911D04DC01ED91FC91019029
:101BD000F081E02D60E0099570E060E08CE194E038
:101BE0000C94960DCF93C62FBC018CE194E00E941B
:101BF000960D80911C0490911D0461E06C0FDC0136
:101C0000ED91FC910190F081E02DCF910994FF922C
:101C10000F931F93CF93DF93EC018B01F42E62E0BF
:101C200072E00E94960D8881998161E06F0DDC0160
:101C3000ED91FC910190F081E02D0995F80143812F
:101C4000548165817681CE010E94760DD801179668
:101C50006D917C91CE010E94960DF801618572858F
:101C6000CE01DF91CF911F910F91FF900C94960DB3
:101C70000F931F93CF93DF93EC018B0160E072E031
:101C80000E94960DF8014381548165817681CE01D1
:101C90000E94760D88819981E801AFA1B8A5EC0179
:101CA000E881F9810190F081E02D6C91DF91CF9175
:101CB0001F910F910994DC01ED91FC910280F38159
:101CC000E02D0994DC01ED91FC910190F081E02D73
:101CD0000994CF93DF93E0913004F0913104309771
:101CE00009F480C0EC018091530490915404A091B8
:101CF0005504B0915604AC01BD014F5F5F4F6F4F6B
:101D00007F4F409353045093540460935504709351
:101D1000560409958E3108F046C080934804BE01F0
:101D20008CE194E00E94960D80910E0490910F0436
:101D3000DC01ED91FC910190F081E02D609148046F
:101D4000099580914804882309F44CC0E09130043F
:101D5000F09131048091530490915404A091550462
:101D6000B0915604AC01BD014F5F5F4F6F4F7F4F85
:101D70004093530450935404609355047093560455
:101D80000995682F70E07093350460933404809156
:101D90000E0490910F040E94620E809148048150BD
:101DA00080934804CECF10924804E0912E04F09125
:101DB0002F04309709F4B3CF8091530490915404C9
:101DC000A0915504B09156040197A109B1098093DF
:101DD000530490935404A0935504B093560460E0C8
:101DE00009959DCFDF91CF91089583EC92E00E94F9
:101DF000C8098823A9F08091C30269E170E08111CC
:101E000002C061E070E08AE00E940A028091100442
:101E100081FF06C063EC72E08CE194E00C94380E14
:101E200008958F929F92AF92BF92CF92DF92EF92DE
:101E3000FF920F931F93CF93DF93EC01042FF22EA9
:101E4000632B162F142B8C899D89892B09F030C1A7
:101E50008CE08093B8008F89988D298D31E0309384
:101E60009F022093C1021092A0021092C202DC01D4
:101E7000ED91FC910190F081E02D612F09950C30DE
:101E800009F006C181E00E942B07882379F08FEFCB
:101E90009FEFDF91CF911F910F91FF90EF90DF9017
:101EA000CF90BF90AF909F908F900895198D0E9412
:101EB00067026B017C0180919902811165C081E00C
:101EC00080939902809398029FEF909397021092CB
:101ED0009602809395028093740280917402110F90
:101EE000182B1093740280917302813009F08EC018
:101EF000109273020E9467026B017C018091740250
:101F00008093BB0080919B0290919C02A0919D02C6
:101F1000B0919E02892B8A2B8B2BA1F00E94670225
:101F200000919B0210919C0220919D0230919E0293
:101F30006C197D098E099F090617170728073907AD
:101F400008F443C08091BC0083FDD8CF85EC80931A
:101F5000BC000E9467026B017C0180919902813074
:101F600009F456C080919602823008F073C08091C7
:101F70009602E5E7F2E0AFEEB1E090E0981751F19C
:101F800021912D939F5FFACF80919B0290919C02AB
:101F9000A0919D02B0919E02892B8A2B8B2B09F474
:101FA0008ACF0E94670280909B0290909C02A09032
:101FB0009D02B0909E026C197D098E099F098616BC
:101FC0009706A806B90608F076CF80919A020E947B
:101FD0000A0780E01092100280930F028230E0F531
:101FE0008F89988DDC01ED91FC910084F185E02DC5
:101FF0000995892B09F44BCF8F89988DDC01ED91E0
:10200000FC910284F385E02D0995EACF85EE9FCF00
:1020100080919B0290919C02A0919D02B0919E02A2
:10202000892B8A2B8B2B09F498CF0E946702009191
:102030009B0210919C0220919D0230919E026C198E
:102040007D098E099F09061717072807390708F029
:1020500084CFBBCF82E08DCF8F89988DDC01ED914D
:10206000FC910284F385E02D0995082F8F89988DC6
:10207000DC01ED91FC910284F385E02D0995182F88
:10208000802F90E0982F8827810F911D917001CFAC
:102090008F89988DDC01ED91FC910190F081E02D0C
:1020A0006F2D099581E00E942B07182F00E0E8CFE3
:1020B00081E58CBD1DBC60E08E890E948D011EBD36
:1020C00000000DB407FEFDCF0EB5FEBC00000DB440
:1020D00007FEFDCF1EB561E08E890E948D01D0CF35
:1020E0004F925F926F927F928F929F92AF92BF9228
:1020F000CF92DF92EF92FF92CF93DF93EC012FEF1D
:1021000031E04CE0611147C0CE010E94110FBC01CB
:1021100090E080E00E9483276B017C016A857B85CB
:1021200090E080E00E9483279B01AC01C701B601CB
:102130000E943F299B01AC01C888D988EA88FB88A6
:10214000C701B6010E94E4279B01AC018C849D84E9
:10215000AE84BF84C501B4010E94D3282B013C0189
:10216000A5019401C701B6010E94D3289B01AC01CF
:10217000C301B2010E943F29DF91CF91FF90EF9000
:10218000DF90CF90BF90AF909F908F907F906F9097
:102190005F904F90089560E1B7CFCF92DF92EF92BA
:1021A000FF921F93CF93DF93EC016A017B01122F03
:1021B0006A857B8590E080E00E948327A7019601D5
:1021C0000E94E4270E94EB299B0140E060E011118E
:1021D00060E1CE010E94110FE881F9810084F18550
:1021E000E02D612FCE01DF91CF911F91FF90EF90F5
:1021F000DF90CF9009940E944A2C85ED8093BC001B
:1022000080919B0290919C02A0919D02B0919E02B0
:102210000796A11DB11D23E0B695A79597958795C3
:102220002A95D1F72091BC0024FD03C01092990299
:10223000089540919B0250919C0260919D02709183
:102240009E02452B462B472B69F30097A105B1054C
:1022500041F02AE22A95F1F700C00197A109B109DE
:10226000E1CF80919A020C940A073F924F925F92BD
:102270006F927F928F929F92AF92BF92CF92DF9296
:10228000EF92FF920F931F93CF93DF93CDB7DEB7FB
:102290002A970FB6F894DEBF0FBECDBF9A87898705
:1022A0006A017B01DC011F968D909D90AD90BC90E2
:1022B0005297FC010787108B218B328B13968D91DF
:1022C0009D910D90BC91A02D89839A83AB83BC8393
:1022D000838B948BA58BB68B87819085A185B285E6
:1022E0008D839E83AF83B887878B908FA18FB28FAA
:1022F000C382D482E582F682328031101EC0C7824A
:10230000D086E186F286C701B6012A960FB6F89408
:10231000DEBF0FBECDBFDF91CF911F910F91FF9018
:10232000EF90DF90CF90BF90AF909F908F907F9075
:102330006F905F904F903F900895C901B801681960
:1023400079098A099B090E9483274B015C01A985B1
:10235000BA851B964D905D906D907C901E97AC0158
:102360009B01C301B2010E943F2920E030E040EE12
:1023700050E40E94412A1816C4F5A5019401C30136
:10238000B2010E94D3289B01AC01C301B2010E949B
:102390003F294B015C01AC019B016D817E818F81E6
:1023A00098850E94E4272B013C01B1E03B1227C035
:1023B000A501940160E070E080E89FE30E94D228CC
:1023C000A70196010E94E427A30192010E94D3284D
:1023D000E985FA856783708781879287E985FA8521
:1023E000C780D084E184F2848ECFC501B4019058B7
:1023F000A30192010E943F290E94B929CACF2981D5
:102400003A814B815C81C701B6010E94D228A501A7
:1024100094010E94E427A30192010E94D328A98578
:10242000BA8517966D937D938D939C931A97D6CF0B
:102430000C94A2280C94AA281F920F920FB60F9208
:1024400011242F933F938F939F93AF93BF938091CA
:102450006B0290916C02A0916D02B0916E0230916E
:102460006A0223E0230F2D3758F50196A11DB11DF7
:1024700020936A0280936B0290936C02A0936D028A
:10248000B0936E0280916F0290917002A0917102E0
:10249000B09172020196A11DB11D80936F029093BD
:1024A0007002A0937102B0937202BF91AF919F919D
:1024B0008F913F912F910F900FBE0F901F90189505
:1024C00026E8230F0296A11DB11DD2CF1F920F92B5
:1024D0000FB60F9211242F933F934F935F936F93F7
:1024E0007F938F939F93AF93BF93EF93FF938091CD
:1024F000660290916702A0916802B0916902892BEF
:102500008A2B8B2BD1F190916502E0916302F091BF
:10251000640280818927808380916602909167029E
:10252000A0916802B0916902181619061A061B06D6
:102530009CF48091660290916702A0916802B0912C
:1025400069020197A109B10980936602909367021D
:10255000A0936802B0936902FF91EF91BF91AF9190
:102560009F918F917F916F915F914F913F912F91AB
:102570000F900FBE0F901F901895809100010E9440
:102580002603EACF1F920F920FB60F9211242F93BA
:102590003F934F935F936F937F938F939F93AF93EB
:1025A000BF93EF93FF9381E793E00E943606FF917C
:1025B000EF91BF91AF919F918F917F916F915F91BB
:1025C0004F913F912F910F900FBE0F901F90189534
:1025D0001F920F920FB60F9211242F938F939F93F8
:1025E000EF93FF93E0918103F09182038081E0916A
:1025F0008703F091880382FD1BC0908180918A033C
:102600008F5F8F7320918B03821741F0E0918A03D3
:10261000F0E0EF58FC4F958F80938A03FF91EF9184
:102620009F918F912F910F900FBE0F901F90189533
:102630008081F4CF1F920F920FB60F9211242F9327
:102640003F934F935F936F937F938F939F93AF933A
:10265000BF93EF93FF938091B900887F803609F490
:102660004AC0F0F5883209F4A7C018F5803109F4A2
:102670009BC0B8F4882309F4F9C0883009F494C0E9
:10268000FF91EF91BF91AF919F918F917F916F914A
:102690005F914F913F912F910F900FBE0F901F9020
:1026A0001895883109F488C0803251F780939702D9
:1026B00014C0803409F49DC040F48033B9F38833EA
:1026C000F9F68093970285ECB0C0803509F485C097
:1026D000883509F496C0883499F60E94FD10D0CF51
:1026E000883909F48CC038F5883729F050F48836D9
:1026F00011F0803729F683E08093990210925802F6
:1027000057C0883809F47BC0803919F0803809F047
:10271000B7CF80915802803208F071C0E091580222
:1027200081E08E0F809358028091BB00F0E0E85C5E
:10273000FD4F80833DC0803B39F0E0F4803A09F4DE
:1027400079C0883A09F09CCF84E080939902109276
:10275000350210923402E0913202F0913302099571
:102760008091340281110FC081E080933402109275
:10277000120209C0803C09F4A6CF883C09F4A3CF1B
:10278000883B09F07DCFE091350281E08E0F809388
:102790003502F0E0EE5EFD4F80818093BB009091AA
:1027A00035028091340229C0809174028093BB006D
:1027B00085EC8093BC0064CF909196028091950245
:1027C000981758F5E091960281E08E0F809396025B
:1027D000F0E0EB58FD4F8081E9CFE091960281E077
:1027E0008E0F809396028091BB00F0E0EB58FD4F76
:1027F000808390919602809195029817C8F285E89F
:10280000D8CFE091960281E08E0F8093960280915E
:10281000BB00F0E0EB58FD4F80838091980281115E
:102820005CCF81E08093730284EA8093BC001092B5
:10283000990226CF85EC8093BC001092990280917A
:102840005802803230F4E0915802F0E0E85CFD4F2D
:1028500010826091580270E0E0913602F0913702E8
:1028600088E392E00995109258020ACF10929702DD
:1028700034CFFF920F931F93CF93DF93A1E7B3E081
:1028800013961C921E92129748EE53E060E070E09F
:1028900014964D935D936D937C9317978EE191E021
:1028A00011969C938E9385EC90E01D969C938E934D
:1028B0001C9784EC90E01F969C938E931E9780EC5F
:1028C00090E051969C938E93509781EC90E05396B4
:1028D0009C938E93529782EC90E055969C938E93A6
:1028E000549786EC90E057969C938E935697599602
:1028F0001C9259975A961C925A975B961C925B971A
:102900005C961C925C97EEE0F4E0B183A0831282A7
:102910008AEF90E09483838380E197E2A0E0B0E0C7
:1029200085839683A783B0871586118A108A138AB8
:10293000128A158A148A178A168A118E108E138E9F
:10294000128E158E148E178E168E11A210A213A23F
:1029500012A215A214A210925B0410925D041092B0
:102960005C041092600410926304E7E5F3E080E0F9
:1029700090E0A6E9B2E484879587A687B78780E0D0
:1029800090E4ACE1B6E4808B918BA28BB38B82E1B7
:10299000868B108E178A86E593E0958B848B84E472
:1029A00091E091838083A5E2B3E088E391E0119602
:1029B0009C938E9312961C92129780E19B968C9317
:1029C0009B979F961C921E929E97D0961C92D09792
:1029D0009D96FC93EE939C97E2EFF2E0108217A293
:1029E00016A2FF24F394F6A683E081A785E082A7D0
:1029F00086E083A789E084A784E085A7C3ECD2E0C2
:102A0000F9821A82FB8684E690E09D878C878FEF9F
:102A10009FEF9F878E87198A188A80E395E79B8BA3
:102A20008A8B8EE08C8B8FEF8D8B8E8B80E090E08D
:102A3000A0E0BFE38F8B988FA98FBA8F88EE93E0C9
:102A40009EA38DA318A61FA21BA61CA61DA61EA68C
:102A50008BE190E00E94252B8C01FC01F28280E347
:102A600091E0918380838CEB9CE6ABE1B8E48387B3
:102A70009487A587B68713821482158216821782DF
:102A8000108611861286178A108E118E128E0E9461
:102A90006702F8016787708B818B928B80E391E0EE
:102AA000918380831AA709A7DF91CF911F910F917E
:102AB000FF900895CF93DF93CDB7DEB7E4970FB6BD
:102AC000F894DEBF0FBECDBF789484B5826084BD1C
:102AD00084B5816084BD85B5826085BD85B5816022
:102AE00085BD80916E00816080936E0010928100A0
:102AF000809181008260809381008091810081605B
:102B0000809381008091800081608093800080911B
:102B1000B10084608093B1008091B00081608093A7
:102B2000B00080917A00846080937A0080917A006E
:102B3000826080937A0080917A00816080937A002D
:102B400080917A00806880937A001092C10084E6B8
:102B500090E09093D0028093CF0280E090E0A0E0DC
:102B6000BFE38093DA029093DB02A093DC02B09380
:102B7000DD0281E08093CE02E091EC02F091ED0263
:102B80008AEF9DEAA8EFB5E483879487A587B68787
:102B900080E090E0A0EAB1E48093EE029093EF022F
:102BA000A093F002B093F1028091EA029091EB02BF
:102BB000892B51F481E090E00E94252B9093EB0249
:102BC0008093EA02DC011C9260E08091D7020E94AF
:102BD000D9010E948C022091E8023091E902DC01C7
:102BE000CB01820F931FA11DB11D8093E002909332
:102BF000E102A093E202B093E3028093E402909397
:102C0000E502A093E602B093E7020E94F50E88E980
:102C100092E090931F0480931E0484ED92E09093C1
:102C20002104809320048DEF92E0909323048093FD
:102C300022048AE192E190932F0480932E0488E18C
:102C400092E1909331048093300485E293E0909375
:102C500058048093570483EC92E090935F04809330
:102C60005E0482EF92E090935A048093590440E00E
:102C700052EC61E070E080910E0490910F040E948C
:102C80009D0080910E0490910F0490931D048093F9
:102C90001C0463E270E08CE194E00E94960D60E019
:102CA00083E10E94D90161E08AE00E94D90161E0DC
:102CB00070E08AE00E940A02009118031091190343
:102CC0000115110579F410E080911F031817D8F44D
:102CD000E12FF0E0EE50FD4F61E081A50E94D901A7
:102CE0001F5FF2CFF8018681978197FD9CC161E05B
:102CF0000E94D90160E0D80116968C910E948D0146
:102D000081E0F801818382EF92E00E94090D82E167
:102D1000E8E0F1E0DE01119601900D928A95E1F76D
:102D2000B2EFAB2EB2E0BB2E10E000E086E0982EB2
:102D300094E6C92ED12C26E0E22EF12C0093F2026B
:102D4000812F90E0FC01EE0FFF1FE80FF91F2224F6
:102D50002394312C2C0E3D1EE20DF31D82819181B6
:102D60002081D50111962C93119712969C9312975E
:102D700013968C93139714961C92809117038823B3
:102D800021F082EF92E00E94AF0CE091F2029E9E51
:102D9000F0011124EE50FD4FD682C5821F5F812FB6
:102DA00090E0B7010E94CA2A182F0F5FB6E0AB0E61
:102DB000B11C063019F685E293E00E947C0CE5E236
:102DC000F3E088EE93E024E630E094838383368357
:102DD00025838C599F4F3496803D47E09407A9F78F
:102DE00089E08093270340E050E060E87FE385E2DC
:102DF00093E00E94020C66246A94762CCE010A9617
:102E00009CAB8BABCC24CA94DC2CEE24E394F12C49
:102E100080910E0490910F04DC01ED91FC910084EF
:102E2000F185E02D0995892BD1F180910E049091C7
:102E30000F04DC01ED91FC910284F385E02D0995EE
:102E4000682F082F192F1093350400933404E09154
:102E50003904F0913A04309711F00C946621809176
:102E600038048111E2C0109337040093360481E0E6
:102E7000809338048091390490913A04892B11F0A1
:102E80000C9459278091380481110C945927109281
:102E90004A0410924B0410924C0410924D048091FD
:102EA0004A0490914B04A0914C04B0914D04892B9D
:102EB0008A2B8B2B89F00E948C0200914A0410917E
:102EC0004B0420914C0430914D0406171707280736
:102ED000390710F40E94FD00809121039091220394
:102EE000A0912303B0912403892B8A2B8B2B99F07B
:102EF0000E948C0200912103109122032091230350
:102F000030912403061717072807390720F482EFAA
:102F100092E00E94090D109101011123C9F18091E5
:102F20001703811135C01150109301011093F20263
:102F300082EF92E00E944D0D612F85E293E00E94A6
:102F4000570C80910101811123C0D092F802C092E8
:102F5000F702D092FE02C092FD02D0920403C0920A
:102F60000303D0920A03C0920903D0921003C092C7
:102F70000F03D0921603C092150385E08093F202EE
:102F800082EF92E00E94090D85E293E00E94530CCB
:102F90000E94F50E8091100480FF38C00E946702E5
:102FA00000911704109118042091190430911A040B
:102FB000061717072807390748F58091100482FD86
:102FC00002C00C946D2740E063EC72E08CE194E069
:102FD0000E94070E8091170490911804A091190483
:102FE000B0911A0440911304509114046091150497
:102FF00070911604840F951FA61FB71F80931704A6
:1030000090931804A0931904B0931A0480E090E000
:10301000892B09F4FDCE0E942206882309F4F8CEFC
:103020000E940000F5CE11826ECE102F00278091F5
:10303000360490913704080F191F1093370400933A
:103040003604109238040A38B1E01B0709F41DC693
:1030500008F0FFC10937110509F481C508F0C4C0A3
:103060000031110509F4BCC408F051C00530110548
:1030700009F4F1C4B0F40130110509F43AC408F4BC
:1030800035C40230110509F43BC40430110509F4BC
:10309000FFC461E270E08CE194E00E94960DB801FB
:1030A0002AC40830110509F467C4F8F40630110584
:1030B00009F4FFC40730110561F783E090E09093B5
:1030C0003A048093390488E190E090933C04809323
:1030D0003B0481E0809352041092530410925404F4
:1030E0001092550410925604C5CE0C30110509F407
:1030F000EBC40E30110569F66FE070E08CE194E0EE
:103100000E94960D40E052EC61E070E030C408315E
:10311000110509F4FEC3B8F50231110509F498C48C
:1031200008F482C40331110509F40FC406311105F6
:1031300009F0AFCFE0911E04F0911F04309709F41D
:10314000A1CECE0101960995182F65E170E08CE1C2
:1031500094E00E94960D80911C0490911D04DC0166
:10316000ED91FC910190F081E02D612F0995412FA7
:1031700050E0BE016F5F7F4F80911C0490911D0451
:103180000E945B0E77CE0636110509F4D7C490F481
:103190000A31110509F4CBC30536110509F079CFC1
:1031A000F0923A04E092390482E08093480486E188
:1031B00090E01FC40736110509F4BDC40837110596
:1031C00009F067CF87E190E090933A048093390447
:1031D00083E08093480483E090E090933C048093E4
:1031E0003B0489E190E0CCC40A30F1E01F0709F408
:1031F00017C508F089C0043031E0130709F4E9C4A9
:1032000008F044C0011581E0180709F4C8C418F596
:103210000A37110509F03DCFE0913204F0913304F3
:10322000309709F42FCE099560934E0470934F04A4
:1032300080935004909351046BE770E08CE194E02C
:103240000E94960D40914E0450914F04609150049D
:10325000709151048CC30130100709F4A3C40230EB
:10326000B1E01B0709F015CF63E071E08CE194E059
:103270000E94960D80911C0490911D04DC01ED913B
:10328000FC910190F081E02D6AE08AC30730E1E013
:103290001E0709F4A1C498F4053021E0120709F4CF
:1032A0008DC4063031E0130709F0F3CEF0923A04F2
:1032B000E0923904109248048AE290E09AC3083000
:1032C00041E0140709F4A3C4093081E0180709F0AC
:1032D000E0CE00915704109158040115110509F42E
:1032E000D1CD68E071E08CE194E00E94960DF80188
:1032F0008281F4E08F9FC0011124080F191FD801AB
:1033000015966D917C91F7C2043891E0190709F484
:10331000FEC408F045C00036B1E01B0709F408C43C
:1033200070F50B30F1E01F0709F0B3CE00915704A0
:10333000109158040115110509F4A4CD6AE071E05B
:103340008CE194E00E94960DF80184A595A5009764
:1033500009F470C4DC01ED91FC910084F185E02D4D
:10336000D801D0966C9109959B01AC0160E070E0AA
:1033700080E89FE30E94D2280E9441017BCD003863
:1033800021E0120709F478C48FE290E0013831E0BF
:10339000130709F07ECE90933A04809339046ACDE6
:1033A000073841E0140709F4BBC4A0F4053891E0E4
:1033B000190709F480C40638A1E01A0709F069CE9C
:1033C000F0923A04E092390482E08093480481E369
:1033D00090E00FC30838B1E01B0709F4EEC40938C8
:1033E000E1E01E0709F055CEB0905B04EB2DF0E054
:1033F000EE0FFF1FE75AFB4F00811181F801A080FB
:1034000068E871E08CE194E00E94960D80911C04C4
:1034100090911D0461E06B0DDC01ED91FC91019038
:10342000F081E02D099580911C0490911D0461E0CC
:103430006A0DDC01ED91FC910190F081E02D099580
:10344000F801B6E0BA9DE00DF11D11246581768189
:1034500052C20138F2E01F0709F4C5C508F025C1C2
:103460000C3032E0130709F430C508F0A5C006306F
:1034700082E0180709F4D8C408F050C00130A2E077
:103480001A0709F4A3C4B8F40D38E1E01E0709F0E7
:1034900000CE6CE871E08CE194E00E94960D809182
:1034A0001C0490911D04DC01ED91FC910190F081D0
:1034B000E02D66E075C20330F2E01F0709F49AC4FC
:1034C000053022E0120709F0E4CDB0906004EB2D46
:1034D000F0E0EE0FFF1FE25AFB4F0081118164E024
:1034E00072E08CE194E00E94960D80911C04909112
:1034F0001D0461E06B0DDC01ED91FC910190F08108
:10350000E02D0995F801668577858CE194E00E94AD
:10351000960DD80150966D917C91EDC1093032E045
:10352000130709F4AEC498F4073082E0180709F4D1
:1035300085C4083092E0190709F0ABCDF0923A0447
:10354000E09239041092480485E390E052C20A30B8
:10355000A2E01A0709F4B6C40B30B2E01B0709F069
:1035600098CDB0906004EB2DF0E0EE0FFF1FE25A13
:10357000FB4F008111816AE072E08CE194E00E94CF
:10358000960D80911C0490911D0461E06B0DDC018F
:10359000ED91FC910190F081E02D099580911C0442
:1035A00090911D04DC01ED91FC910190F081E02DE2
:1035B000D8011B966C91F4C10137E2E01E0709F4B3
:1035C000C3C408F041C0003122E0120709F491C4DD
:1035D00070F40F3042E0140709F05BCDF0923A042A
:1035E000E09239041092480487E390E002C201316E
:1035F00082E0180709F49EC4023192E0190709F02D
:1036000048CDB0906004EB2DF0E0EE0FFF1FE25AC2
:10361000FB4F0081118161E172E08CE194E00E9436
:10362000960D80911C0490911D0461E06B0DDC01EE
:10363000ED91FC910190F081E02D0995F80163A5D1
:1036400074A585A596A598CE0437A2E01A0709F4BB
:1036500096C488F40237E2E01E0709F48DC4609135
:10366000630482E792E00337F2E01F0709F011CD0F
:103670000E94F20DFFCB053722E0120709F489C43E
:10368000063732E0130709F004CDE0916304F0E05F
:10369000EE0FFF1FEF59FB4F80819181DC01ED910F
:1036A000FC910284F385E02D87C20D3842E01407B7
:1036B00009F48EC508F095C0073892E0190709F49F
:1036C0002EC508F042C00438B2E01B0709F4F6C466
:1036D00048F50338F2E01F0709F0DBCCB090630433
:1036E000EB2DF0E0EE0FFF1FEF59FB4F0081118132
:1036F00062E872E08CE194E00E94960D80911C04D7
:1037000090911D040115110509F0F3CEDC01ED9136
:10371000FC910190F081E02D60E0099540E050E0DF
:10372000BA0125C1053822E0120709F4D0C40638D1
:1037300032E0130709F0ADCCF0923A04E09239047C
:10374000109248048CE390E054C10A3842E0140718
:1037500009F410C5C8F5083892E0190709F403C543
:103760000938A2E01A0709F094CCB0906304EB2D5D
:10377000F0E0EE0FFF1FEF59FB4F0081118168E869
:1037800072E08CE194E00E94960D0115110509F498
:10379000EDC480911C0490911D0461E06B0DDC016F
:1037A000ED91FC910190F081E02D099580911C0430
:1037B00090911D04DC01ED91FC910190F081E02DD0
:1037C000D80156966C91ECC00B38B2E01B0709F497
:1037D000DAC48FE390E00C38E2E01E0709F4DBCD99
:1037E00058CC0339F2E01F0709F432C5A0F50039BF
:1037F00032E0130709F423C558F40E3882E01807A5
:1038000009F415C50F3892E0190709F433CB41CC00
:103810000139A2E01A0709F42DCB0239B2E01B07E7
:1038200009F037CCF0923A04E092390482E08093B8
:10383000480402E4402E512C50923C0440923B0438
:1038400010924E0410924F041092500410925104A2
:103850001092470441CC0436E5E61E0709F40ACB72
:1038600088F5063922E0120709F40AC5073932E063
:10387000130709F00ECCB0906304EB2DF0E0EE0FCF
:10388000FF1FEF59FB4F0081118166E972E08CE167
:1038900094E00E94960D0115110509F4EDC4809184
:1038A0001C0490911D0461E06B0DDC01ED91FC9115
:1038B0000190F081E02D0995F80167A570A981A913
:1038C00092A95ACD023644E7140709F497C003368B
:1038D00084E7180709F0DDCBE5E0F0E0F0933A0467
:1038E000E09339048FEF80934804C4CA0E94FD001E
:1038F000C1CA6DEC7BEA8CE194E00E94960DBACAD5
:1039000063E070E08CE194E00E94960D67E070E067
:10391000F2CFE0912004F0912104309709F4B2CA6B
:10392000CE0101960995182F67E170E010CCE09167
:103930002204F0912304309709F4A4CACE01019621
:103940000995182F69E170E002CC64E170E08CE128
:1039500094E00E94960D0E948C02AB01BC018CE1A8
:1039600094E00E94760D0E946702AB01BC018CE1DD
:1039700094E00E94760D7ECAE0912C04F0912D0413
:10398000309781F000910E0410910F04D8018D91B1
:103990009C91DC01AD90BC900995682FC801F501A0
:1039A000099568CA69E070E08CE194E00E94960D88
:1039B00080911C0490911D04DC01ED91FC9101901B
:1039C000F081E02D6EE1099580911C0490911D0419
:1039D000DC01ED91FC910190F081E02D60E0E0CF01
:1039E000F0923A04E092390482E08093480484E043
:1039F00090E090933C0480933B0454C163E674E7E9
:103A00008CE194E00E94960D10E000E0B8018091F6
:103A10001C0490911D040E94620E0F5F1F4F011540
:103A2000B1E01B0799F726CA10911B0462E170E010
:103A30008CE194E00E94960D80911C0490911D04ED
:103A4000DC01ED91FC910190F081E02D612FA8CF78
:103A500086E090E0A0CC83E090E090933A048093DD
:103A6000390488E190E090933C0480933B0481E02A
:103A7000809352042EE1222E312C412C512C209285
:103A80005304309254044092550450925604F2C9A3
:103A90008EE190E0A0E0B0E0809353049093540452
:103AA000A0935504B093560485E090E00E94690EFF
:103AB000E1C91092530410925404109255041092CC
:103AC000560487E090E0F2CFDE011196EEE0F0E0E0
:103AD00021E2CF01019620935700E491ED93FC0180
:103AE000449711F4E5E1F0E02BA83CA8A215B3053A
:103AF00081F76DE070E08CE194E00E94960D69E042
:103B000070E080911C0490911D040E94620E8091CF
:103B10001C0490911D04DC01ED91FC910280F38165
:103B2000E02D49E050E0BE016F5F7F4F0995A2C9CB
:103B300084E190E030CC85E190E02DCC80901304BE
:103B400090901404A0901504B090160465E670E0FF
:103B50008CE194E00E94960DB501A40108CF87E1A5
:103B600090E090933A048093390483E08093480472
:103B700083E090E090933C0480933B0488E190E0E4
:103B800090933E0480933D04109253041092540489
:103B90001092550410925604109247046BC988E2A3
:103BA00090E0F9CB8091570490915804DC01ED919D
:103BB000FC910680F781E02D09955CC9E0915704DE
:103BC000F0915804309709F45DC9628184E091E076
:103BD0004FCD89E290E0DFCB00915704109158045B
:103BE0000115110509F44EC966E071E08CE194E01D
:103BF0000E94960DF8018281F4E08F9FC00111248C
:103C0000080F191FD80113966D917C9174CEF09214
:103C10003A04E0923904109248048BE290E0E9CE35
:103C2000F0923A04E092390482E0809348048CE2F6
:103C300090E0DFCE06A517A560E070E080E89FE386
:103C40000115110509F498CBD80113966C9170E019
:103C500090E080E00E9483274B015C01F8016081C5
:103C600070E090E080E00E9483279B01AC01C501D9
:103C7000B4010E943F2980CBF0923A04E0923904CB
:103C8000109248048DE290E0B4CEF0923A04E092B3
:103C90003904109248049EE2292E312C30923C04C3
:103CA00020923B0410924E0410924F041092500444
:103CB0001092510471CF10915B04E12FF0E0EE0FF0
:103CC000FF1FE75AFB4F0190F081E02D008164E86F
:103CD00071E08CE194E00E94960D80911C0490911B
:103CE0001D0461E0610FDC01ED91FC910190F08118
:103CF000E02D099580911C0490911D0461E0600FF6
:103D0000DC01ED91FC910190F081E02D49CEF09223
:103D10003A04E09239041092480480E390E069CEBE
:103D200010915B04E12FF0E0EE0FFF1FE75AFB4F0D
:103D3000A080B180F501908066E871E08CE194E0AC
:103D40000E94960D80911C0490911D0461E0610F0A
:103D5000DC01ED91FC910190F081E02D09958091BD
:103D60001C0490911D0461E0690DDC01ED91FC9152
:103D70000190F081E02D099510E000E080911C0495
:103D800090911D04292D201BD501E6E0E29FA00D96
:103D9000B11D11249D01200F311FDC01ED91FC911B
:103DA0000190F081E02DD90111966C9109950F5F7A
:103DB0001F4F0430110511F75DC8F0923A04E092EC
:103DC00039041092480482E390E013CE80915E049F
:103DD00090915F040E94C809E0916004F0E0EE0F4A
:103DE000FF1FE25AFB4F608171818CE194E00E94D9
:103DF000380E40C8E0916004F0E0EE0FFF1FE25A79
:103E0000FB4F808191810E94C80940916004E42F9A
:103E1000F0E0EE0FFF1FE25AFB4F608171818CE1F1
:103E200094E00E94070E26C8F0923A04E09239040A
:103E300082E08093480484E390E0DBCDB09060049E
:103E4000EB2DF0E0EE0FFF1FE25AFB4F00811181D6
:103E500066E072E08CE194E00E94960D80911C0473
:103E600090911D0461E06B0DDC01ED91FC910190DE
:103E7000F081E02D0995F8016789708D818D928D13
:103E80007BCAB0906004EB2DF0E0EE0FFF1FE25A0A
:103E9000FB4F0081118168E072E08CE194E00E94A8
:103EA000960D80911C0490911D0461E06B0DDC0166
:103EB000ED91FC910190F081E02D0995F801638D61
:103EC000748D19CD86E390E066CAE0916004F0E05D
:103ED000EE0FFF1FE25AFB4F0190F081E02D778635
:103EE0006686118A108A148E138E81E083870C9463
:103EF0003A17B0906004EB2DF0E0EE0FFF1FE25A8E
:103F0000FB4F008111816FE072E08CE194E00E9430
:103F1000960D80911C0490911D0461E06B0DDC01F5
:103F2000ED91FC910190F081E02D0995F8016485F7
:103F30007585E1CCF0923A04E092390482E08093F6
:103F4000480488E390E055CD80916104909162042B
:103F5000DC01ED91FC910280F381E02D0995E09167
:103F60006304F0E0EE0FFF1FEF59FB4F808191815A
:103F70000E94B10D0C943A1789E390E00CCAF092BC
:103F80003A04E092390482E0809348048AE390E0A6
:103F900030CDB0906304EB2DF0E0EE0FFF1FEF5932
:103FA000FB4F0081118164E772E08CE194E00E9494
:103FB000960D0115110509F45FC180911C049091C3
:103FC0001D0461E06B0DDC01ED91FC910190F0812D
:103FD000E02D0995D801ED91FC910084F185E02D4B
:103FE000C8010995C9C9E0916304F0E0EE0FFF1F15
:103FF000EF59FB4F80819181DC01ED91FC910280B2
:10400000F381E02D099550906304E52DF0E0EE0F6B
:10401000FF1FEF59FB4F0081118160E872E08CE1D6
:1040200094E00E94960D01151105B9F1F801458142
:104030005681678170858CE194E00E94760DA09096
:104040001C04B0901D04D501ED91FC9180809180FD
:10405000D801ED91FC910480F581E02DC80109950E
:10406000682FC501F401099580911C0490911D04ED
:1040700061E0650DDC01ED91FC910190F081E02D96
:104080000995F801628573858CE194E00E94960D94
:10409000D8011C966D917C912ECC1AE080911C0465
:1040A00090911D04DC01ED91FC910190F081E02DD7
:1040B00060E00995115091F70C943A17F0923A0488
:1040C000E0923904109248048BE390E092CCB090D7
:1040D0006304EB2DF0E0EE0FFF1FEF59FB4F008163
:1040E000118164E872E08CE194E00E94960D011564
:1040F000110589F080911C0490911D0461E06B0D05
:10410000DC01ED91FC910190F081E02D0995F80121
:1041100062897389F0CB0E94E00D0C943A17B0903D
:104120006304EB2DF0E0EE0FFF1FEF59FB4F008112
:10413000118166E872E08CE194E00E94960D011511
:10414000110549F380911C0490911D0461E06B0DF1
:10415000DC01ED91FC910190F081E02D0995F801D1
:10416000618D728DC8CB8DE390E015C90E947301FB
:104170000C943A17F0923A04E092390410924804F1
:104180008EE390E036CCB0906304EB2DF0E0EE0FC0
:10419000FF1FEF59FB4F008111816AE872E08CE14B
:1041A00094E00E94960D0115110509F4B4CF809199
:1041B0001C0490911D0461E06B0DDC01ED91FC91FC
:1041C0000190F081E02D0995F8016489758993CB00
:1041D000B0906304EB2DF0E0EE0FFF1FEF59FB4FA3
:1041E000008111816CE872E08CE194E00E94960DF0
:1041F0000115110509F4BACF80911C0490911D049A
:1042000061E06B0DDC01ED91FC910190F081E02DFE
:10421000099580911C0490911D04DC01ED91FC91A5
:104220000190F081E02DD80119966C91B9CBE0E4B2
:10423000F0E0F0933A04E09339040C943A1781E4E7
:10424000282E312C30923A04209239040C943A17DB
:10425000B0906304EB2DF0E0EE0FFF1FEF59FB4F22
:104260000081118162E972E08CE194E00E94960D78
:104270000115110509F0D5C90E9462010C943A1785
:10428000F0923A04E092390482E080934804B2E468
:104290002B2E312C30923C0420923B0410924E0481
:1042A00010924F041092500410925104109247043F
:1042B00081E090E0A0E0B0E0809353049093540438
:1042C000A0935504B09356040C943A173197E234F6
:1042D000F10508F06FC0E159FE4D0C941F2BB12180
:1042E000DA21D62110228B22FF22DA21DA21DA21EB
:1042F000DA21DA21DA21DA21DA21DA21DA21DA21E6
:10430000DA21DA21DA2102233C2364238623DA210D
:10431000DA21DA21DA21DA21DA21DA21DA21DA21C5
:10432000DA21DA21DA21DA21DA21DA21A523B1230F
:10433000B823E52312241E2470244F249624BC2481
:104340001025412544256B259825A725D32504262E
:1043500008265B262E2687269726C326DA21DA2111
:10436000CF2680914704A80170E060E0082E04C0C9
:10437000440F551F661F771F0A94D2F700914E0411
:1043800010914F042091500430915104040F151FD7
:10439000261F371F00934E0410934F0420935004A0
:1043A00030935104885F8093470404C0012B69F463
:1043B0000E94FD0080914804882309F469C590910A
:1043C0004904911165C581508ECA8FEF860F809385
:1043D000480481E08093490480915204882351F37A
:1043E000E0912E04F0912F043097B9F0809153049E
:1043F00090915404A0915504B09156048C019D01F4
:104400000F5F1F4F2F4F3F4F0093530410935404DF
:104410002093550430935604099510925204CACF44
:10442000C801B0E0A0E02091470404C0880F991FA4
:10443000AA1FBB1F2A95D2F740914E0450914F04FA
:104440006091500470915104840F951FA61FB71FEF
:10445000BF7080934E0490934F04A0935004B09388
:104460005104F4E016950795FA95E1F71093350499
:104470000093340400910E0410910F04D801ED91C3
:10448000FC910680F781E02DC8010995D80152966C
:10449000ED91FC91539780818F7E80835296ED91B0
:1044A000FC9153978081877F80835296ED91FC9198
:1044B000539780818F7780835296ED91FC9153972B
:1044C00080818F7D80835A968C915A9759968C93D0
:1044D00040914E0450914F046091500470915104EA
:1044E00080910E0490910F040E949D0080904E04D4
:1044F00090904F04A0905004B090510465E674E78A
:104500008CE194E00E94960DB501A4018CE194E049
:104510000E94760D4FCF209148042F3F59F480938D
:10452000480410924E0410924F04109250041092BE
:10453000510440CF80914E0490914F04A0915004BB
:10454000B09151048017110659F49F5FAF4FBF4FD0
:1045500080934E0490934F04A0935004B093510461
:10456000211139C064E674E78CE194E00E94960D55
:10457000A0910E04B0910F0440914E0450914F044D
:104580006091500470915104CB01BA016F5F7F4F6D
:104590008F4F9F4FED91FC9111970190F081E02D8D
:1045A000CD010995A0910E04B0910F0440914E04E5
:1045B00050914F0460915004709151049927872FB6
:1045C000762F652FED91FC9111970190F081E02DF0
:1045D000CD010995EFCE80914E0490914F04A091AA
:1045E0005004B09151040196A11DB11D80934E0459
:1045F00090934F04A0935004B0935104DBCE80936A
:104600001B04D8CE80931004882309F4D3CEE09104
:104610006004F0E0EE0FFF1FE25AFB4F60817181F2
:104620008CE194E00E94380EE0916304F0E0EE0F1C
:10463000FF1FEF59FB4F808191810E94B10D809146
:10464000100480FFB7CE0E946702009113041091FE
:1046500014042091150430911604DC01CB01800F65
:10466000911FA21FB31F8093170490931804A09367
:104670001904B0931A049ECE30E020E080914704E4
:1046800004C0000F111F221F331F8A95D2F74091DB
:104690004E0450914F046091500470915104040FE6
:1046A000151F261F371F00934E0410934F042093AD
:1046B0005004309351040093130410931404209376
:1046C00015043093160476CE80914704A80170E05B
:1046D00060E0082E04C0440F551F661F771F0A9420
:1046E000D2F7009153041091540420915504309155
:1046F0005604040F151F261F371F009353041093F1
:10470000540420935504309356044CCEE0912E046B
:10471000F0912F04309709F44DCE8091530490917D
:104720005404A0915504B09156048C019D010F5F73
:104730001F4F2F4F3F4F0093530410935404209367
:10474000550430935604099535CE809157049091C5
:1047500058046150DC01ED91FC910480F581E02D5D
:10476000F2CFE0915704F09158046150628322CE59
:1047700030E020E08091470404C0000F111F221F89
:10478000331F8A95D2F740914E0450914F046091A7
:10479000500470915104040F151F261F371F0093FA
:1047A0004E0410934F042093500430935104E09131
:1047B0005704F09158048281B4E08B9FC00111240A
:1047C000E80FF91F14830383F5CD30E020E08091DA
:1047D000470404C0000F111F221F331F8A95D2F710
:1047E00040914E0450914F046091500470915104D7
:1047F000040F151F261F371F00934E0410934F04FC
:104800002093500430935104E0915704F0915804E0
:10481000828144E0849FC0011124E80FF91F1683B0
:104820000583C8CD00915704109158040E942001BF
:10483000AB01BC01C8010E94020CBCCD80914E04AA
:1048400090914F04A0915004B09151040197A10997
:10485000B10980934E0490934F04A0935004B093F9
:10486000510480935B0401501109109335040093A7
:104870003404E82FF0E0EE0FFF1FE75AFB4F0190E2
:10488000F081E02D0083E0915B04F0E0EE0FFF1F6C
:10489000E75AFB4F808191810E944D0D8BCD0F3FD8
:1048A000110569F48091590490915A04DC019596A0
:1048B0002C91222309F47ECD0E94090D7BCD01505D
:1048C0001109109335040093340400935B041127FD
:1048D000000F111FF801E75AFB4F80819181ECCF47
:1048E00030E020E08091470404C0000F111F221F18
:1048F000331F8A95D2F740914E0450914F04609136
:10490000500470915104040F151F261F371F009388
:104910004E0410934F04209350043093510480911F
:10492000590490915A0400FFC7CFB6CF80914E042E
:1049300090914F04A0915004B09151040197A109A6
:10494000B10980934E0490934F04A0935004B09308
:10495000510480935B0401501109109335040093B6
:104960003404E82FF0E0EE0FFF1FE75AFB4F0190F1
:10497000F081E02D00831ECDA80170E060E0809101
:10498000470404C0440F551F661F771F8A95D2F74E
:1049900000914E0410914F04209150043091510425
:1049A000400F511F621F731F40934E0450934F04DA
:1049B0006093500470935104E0915B04F0E0EE0FBB
:1049C000FF1FE75AFB4F0190F081E02DB5A490E066
:1049D00080E08B15E8F42081DF0116E0212E229E75
:1049E000A00DB11D1124A80FB91F9C0103E0220FD7
:1049F000331F0A95E1F71A012B0104C0569447941E
:104A0000379427942A95D2F711962C920196E1CFEC
:104A100085A1882309F4CECCCF010E94AF0CCACC6B
:104A200030E020E08091470404C0000F111F221FD6
:104A3000331F8A95D2F740914E0450914F046091F4
:104A4000500470915104040F151F261F371F009347
:104A50004E0410934F042093500430935104E0917E
:104A60005B04F0E0EE0FFF1FE75AFB4F0190F0816F
:104A7000E02D808166E0362E389EE00DF11D112478
:104A8000CECE8093600496CCE0916004F0E0EE0F0F
:104A9000FF1FE25AFB4F008111810E942001D801C3
:104AA00057966D937D938D939C935A9781E01B96B7
:104AB0008C93E0916004F0E0EE0FFF1FE25AFB4F91
:104AC0000190F081E02D77866686118A108A148E17
:104AD000138E83876FCC30E020E08091470404C0C0
:104AE000000F111F221F331F8A95D2F740914E04E9
:104AF00050914F046091500470915104040F151FA0
:104B0000261F371F00934E0410934F042093500428
:104B100030935104E0916004F0E0EE0FFF1FE25A81
:104B2000FB4F0190F081E02D148F038F138642CC50
:104B3000E0916004F0E0EE0FFF1FE25AFB4F01909E
:104B4000F081E02D81E0012B21F680E0C2CF30E042
:104B500020E08091470404C0000F111F221F331F63
:104B60008A95D2F740914E0450914F0460915004C1
:104B700070915104040F151F261F371F00934E0418
:104B800010934F042093500430935104E09160043B
:104B9000F0E0EE0FFF1FE25AFB4F0190F081E02D95
:104BA0001587048707CCE0916004F0E0EE0FFF1F4B
:104BB000E25AFB4F008111810E9420011B012C0150
:104BC000F801A1A4B2A42BED3FE049EC50E40E940F
:104BD000E4279B01AC0160E070E080E89FE30E9465
:104BE0003F2920E034E244E759E40E94E427D5015C
:104BF0001B966D937D938D939C931E97F80123A62E
:104C000034A645A656A6D6CB615060936304D2CB9A
:104C1000E0916304F0E0EE0FFF1FEF59FB4F0081BE
:104C20001181D801ED91FC91A680B7800E942001EE
:104C3000AB01BC01C801F5010995E0916304F0E006
:104C4000EE0FFF1FEF59FB4F80819181DC01ED9149
:104C5000FC910284F385E02D0995ACCB30E020E097
:104C60008091470404C0000F111F221F331F8A9533
:104C7000D2F740914E0450914F04609150047091CE
:104C80005104040F151F261F371F00934E04109365
:104C90004F042093500430935104E0916304F0E0FA
:104CA000EE0FFF1FEF59FB4F0190F081E02D128FA7
:104CB000018F168A7FCB30E020E08091470404C04A
:104CC000000F111F221F331F8A95D2F740914E0407
:104CD00050914F046091500470915104040F151FBE
:104CE000261F371F00934E0410934F042093500447
:104CF00030935104E0916304F0E0EE0FFF1FEF5991
:104D0000FB4F0190F081E02D138B028B53CBE09190
:104D10006304F0E0EE0FFF1FEF59FB4F0190F081AD
:104D2000E02D81E0012B09F480E0868B43CB30E05D
:104D300020E08091470404C0000F111F221F331F81
:104D40008A95D2F740914E0450914F0460915004DF
:104D500070915104040F151F261F371F00934E0436
:104D600010934F042093500430935104E091630456
:104D7000F0E0EE0FFF1FEF59FB4F0190F081E02DA7
:104D8000158B048B17CBE0916304F0E0EE0FFF1F4F
:104D9000EF59FB4F0190F081E02D81870BCBE09123
:104DA0006304F0E0EE0FFF1FEF59FB4F008111810C
:104DB0008091530490915404A0915504B0915604ED
:104DC000892B8A2B8B2BD9F50E9420011B012C01EA
:104DD000F801A7A0B0A42BED3FE049EC50E40E94FD
:104DE000E4279B01AC0160E070E080E89FE30E9453
:104DF0003F2920E034E244E759E40E94E427D5014A
:104E00001B966D937D938D939C931E97F80123A61B
:104E100034A645A656A68091530490915404A091BF
:104E20005504B09156040196A11DB11D8093530401
:104E300090935404A0935504B0935604BBCA0E94A7
:104E400020011B012C01D8019996AD90BC902BED4F
:104E50003FE049EC50E40E94E4279B01AC0160E094
:104E600070E080E89FE30E943F2920E034E244E7BD
:104E700059E40E94E427F501638774878587968744
:104E8000D8019F962D923D924D925C92D297C3CFBE
:104E9000E9E3F4E0828193818193919385E4282E64
:104EA00084E0382E2E163F06A9F7109249040C9480
:104EB0003A170E948C022091110430911204620F63
:104EC000731F811D911D60934A0470934B0480935E
:104ED0004C0490934D040C944F1763EC72E08CE1FA
:104EE00094E00E94380E0C94EA178091EC029091A5
:104EF000ED02009711F00C94C12B08950E94C02779
:104F000008F481E00895E89409C097FB3EF4909579
:104F10008095709561957F4F8F4F9F4F9923A9F092
:104F2000F92F96E9BB279395F69587957795679521
:104F3000B795F111F8CFFAF4BB0F11F460FF1BC065
:104F40006F5F7F4F8F4F9F4F16C0882311F096E9F8
:104F500011C0772321F09EE8872F762F05C06623A6
:104F600071F096E8862F70E060E02AF09A95660F5F
:104F7000771F881FDAF7880F9695879597F9089518
:104F8000990F0008550FAA0BE0E8FEEF161617065A
:104F9000E807F907C0F012161306E407F50798F0C2
:104FA000621B730B840B950B39F40A2661F0232BDB
:104FB000242B252B21F408950A2609F4A140A69557
:104FC0008FEF811D811D08950E94F7270C9468289A
:104FD0000E945A2838F00E94612820F0952311F091
:104FE0000C9451280C94572811240C949C280E944E
:104FF000792870F3959FC1F3950F50E0551F629F7C
:10500000F001729FBB27F00DB11D639FAA27F00D21
:10501000B11DAA1F649F6627B00DA11D661F829F48
:105020002227B00DA11D621F739FB00DA11D621F2D
:10503000839FA00D611D221F749F3327A00D611D4A
:10504000231F849F600D211D822F762F6A2F11242C
:105050009F5750409AF0F1F088234AF0EE0FFF1F5F
:10506000BB1F661F771F881F91505040A9F79E3FB6
:10507000510580F00C9451280C949C285F3FE4F378
:10508000983ED4F3869577956795B795F795E7950C
:105090009F5FC1F7FE2B880F911D9695879597F915
:1050A000089597F99F6780E870E060E008959FEFAA
:1050B00080EC089500240A941616170618060906AF
:1050C000089500240A94121613061406050608957E
:1050D000092E0394000C11F4882352F0BB0F40F406
:1050E000BF2B11F460FF04C06F5F7F4F8F4F9F4F46
:1050F000089557FD9058440F551F59F05F3F71F0C8
:105100004795880F97FB991F61F09F3F79F087952E
:105110000895121613061406551FF2CF4695F1DFB7
:1051200008C0161617061806991FF1CF8695710547
:10513000610508940895E894BB2766277727CB017B
:1051400097F90895F999FECF92BD81BDF89A9927F4
:1051500080B50895262FF999FECF1FBA92BD81BD63
:1051600020BD0FB6F894FA9AF99A0FBE01960895E9
:105170000E94C328A59F900DB49F900DA49F800D01
:10518000911D11240895A29FB001B39FC001A39F58
:10519000700D811D1124911DB29F700D811D112470
:1051A000911D08955058BB27AA270E94EA280C9405
:1051B00068280E945A2838F00E94612820F039F4AB
:1051C0009F3F19F426F40C9457280EF4E095E7FB62
:1051D0000C945128E92F0E94792858F3BA176207D6
:1051E00073078407950720F079F4A6F50C949B28A3
:1051F0000EF4E0950B2EBA2FA02D0B01B9019001F2
:105200000C01CA01A0011124FF27591B99F0593F35
:1052100050F4503E68F11A16F040A22F232F342F7D
:105220004427585FF3CF469537952795A795F040CB
:105230005395C9F77EF41F16BA0B620B730B840BE0
:10524000BAF09150A1F0FF0FBB1F661F771F881F98
:10525000C2F70EC0BA0F621F731F841F48F48795F0
:1052600077956795B795F7959E3F08F0B0CF9395E2
:10527000880F08F09927EE0F9795879508950E945B
:1052800053290C9468280E94612858F00E945A28DB
:1052900040F029F45F3F29F00C94512851110C94EF
:1052A0009C280C9457280E94792868F39923B1F31D
:1052B000552391F3951B550BBB27AA27621773073C
:1052C000840738F09F5F5F4F220F331F441FAA1FD0
:1052D000A9F335D00E2E3AF0E0E832D0915050408C
:1052E000E695001CCAF72BD0FE2F29D0660F771F3A
:1052F000881FBB1F261737074807AB07B0E809F020
:10530000BB0B802DBF01FF2793585F4F3AF09E3FA4
:10531000510578F00C9451280C949C285F3FE4F3DD
:10532000983ED4F3869577956795B795F7959F5FE7
:10533000C9F7880F911D9695879597F90895E1E033
:10534000660F771F881FBB1F621773078407BA0792
:1053500020F0621B730B840BBA0BEE1F88F7E095ED
:10536000089529F416F00C9451280C949B280C9461
:1053700057280E948128A8F39638A0F707F80F92C3
:10538000E8942BE33AEA48EB5FE70E94FA270F9292
:105390000F920F924DB75EB70F920E94882AE8E6EF
:1053A000F0E00E941A2A4F915F91EF91FF91E595ED
:1053B000EE1FFF1F49F0FE57E0684427EE0F441F21
:1053C000FA95E1F74195550B0E94522A0F9007FE7E
:1053D0000C94462A08950E94812888F09F5798F0DF
:1053E000B92F9927B751B0F0E1F0660F771F881FEA
:1053F000991F1AF0BA95C9F714C0B13091F00E9404
:105400009B28B1E008950C949B28672F782F88275C
:10541000B85F39F0B93FCCF3869577956795B3952A
:10542000D9F73EF490958095709561957F4F8F4F99
:105430009F4F0895DF93CF931F930F93FF92EF92A7
:10544000DF927B018C01689406C0DA2EEF010E9486
:10545000F727FE01E894A591259135914591559145
:10546000A6F3EF010E94EA28FE019701A801DA9451
:1054700069F7DF90EF90FF900F911F91CF91DF912F
:1054800008950E94C02708F48FEF08959B01AC0196
:1054900060E070E080E89FE30C943F290C94512871
:1054A0000C94BC2A0E948128D8F39923C9F3940F45
:1054B000511DA3F39150504094F059F0882332F0DD
:1054C000660F771F881F91505040C1F79E3F5105CE
:1054D0002CF7880F911D9695879597F908955F3F52
:1054E000ACF0983E9CF0BB27869577956795B7956D
:1054F00008F4B1609395C1F7BB0F58F711F460FF42
:10550000E8CF6F5F7F4F8F4F9F4FE3CF0C949C2866
:10551000FA01DC01AA0FBB1F9B01AC01BF5728F4A5
:10552000222733274427507820C0B75190F4AB2F5F
:105530000024469537952795011CA395D2F30020AA
:1055400071F0220F331F441FB395DAF30ED00C9481
:10555000D22861307105A0E88A07B94630F49B0172
:10556000AC016627772788279078309621F0208332
:1055700031834283538308959F3F31F0915020F44B
:10558000879577956795B795880F911D969587951F
:1055900097F90895AA1BBB1B51E107C0AA1FBB1FA7
:1055A000A617B70710F0A61BB70B881F991F5A95AF
:1055B000A9F780959095BC01CD010895A1E21A2E1E
:1055C000AA1BBB1BFD010DC0AA1FBB1FEE1FFF1FA7
:1055D000A217B307E407F50720F0A21BB30BE40BF7
:1055E000F50B661F771F881F991F1A9469F760953E
:1055F0007095809590959B01AC01BD01CF010895F8
:10560000052E97FB1EF400940E94172B57FD07D020
:105610000E94DE2A07FC03D04EF40C94172B509501
:105620004095309521953F4F4F4F5F4F089590958E
:105630008095709561957F4F8F4F9F4F0895EE0F26
:10564000FF1F0590F491E02D09940F931F93CF93C2
:10565000DF938230910510F482E090E0E0916604DF
:10566000F091670430E020E0B0E0A0E0309799F4DA
:105670002115310509F44AC0281B390B24303105A6
:10568000D8F58A819B816115710589F1FB019383AE
:105690008283FE0111C0408151810281138148172C
:1056A0005907E0F04817590799F4109761F01296DE
:1056B0000C93129713961C933296CF01DF91CF91E2
:1056C0001F910F9108950093660410936704F4CF1F
:1056D0002115310551F04217530738F0A901DB01BC
:1056E0009A01BD01DF01F801C1CFEF01F9CF90931D
:1056F000670480936604CDCFFE01E20FF31F819310
:1057000091932250310939832883D7CF20916404A3
:1057100030916504232B41F420910401309105015F
:1057200030936504209364042091020130910301B9
:105730002115310541F42DB73EB740910601509136
:105740000701241B350BE0916404F0916504E21716
:10575000F307A0F42E1B3F0B2817390778F0AC0194
:105760004E5F5F4F2417350748F04E0F5F1F509371
:10577000650440936404819391939FCFF0E0E0E04F
:105780009CCFCF93DF930097E9F0FC01329713820F
:105790001282A0916604B0916704ED0130E020E030
:1057A0001097A1F420813181820F931F209164040E
:1057B000309165042817390709F061C0F09365043A
:1057C000E0936404DF91CF910895EA01CE17DF07DB
:1057D000E8F54A815B819E0141155105B1F7E90168
:1057E000FB83EA8349915991C40FD51FEC17FD073C
:1057F00061F4808191810296840F951FE90199835C
:105800008883828193819B838A83F0E0E0E0129613
:105810008D919C9113970097B9F52D913C9111971B
:10582000CD010296820F931F20916404309165048C
:105830002817390739F6309751F5109267041092FE
:105840006604B0936504A0936404BCCFD383C28381
:1058500040815181840F951FC817D90761F44E5FAD
:105860005F4F88819981480F591F518340838A81F6
:105870009B81938382832115310509F0B0CFF0938A
:105880006704E09366049ECFFD01DC01C0CF138264
:105890001282D7CF81E090E0F8940C944F2C10E066
:1058A000C2E7D0E004C0FE010E941F2B2196C3373F
:0858B000D107C9F7F894FFCFFE
:1058B800FF06000068048000FF0000FFFF0000FFF3
:1058C8000000FFFF0000FFFF00FF00000000580677
:1058D800B805E505A5061606F4050806000000004B
:1058E800DD0A3511000000007C0C630C570C530CCA
:1058F80000000000980B900BCD10880B7010800BE7
:10590800340B2C0B080B483A5C4D792044726976AD
:10591800655C56756C696E74757320536F66747721
:10592800617265202844726577295C4669726D77D3
:10593800617265202D204F6D6E695472616B5C4FEA
:105948006D6E695472616B5F4E6F7365706F6B65D6
:105958005F4669726D776172655C4F6D6E695472EE
:10596800616B5F4E6F7365706F6B655F56335C4F2D
:105978006D6E695472616B5F4E6F7365706F6B65A6
:105988005F56332E696E6F004A756C2020392032BD
:0E5998003032350032323A30393A32390000BE
:00000001FF
