:100000000C9478000C94A0000C94A0000C94A00018
:100010000C94A0000C94A0000C94A0000C94CC159F
:100020000C94A0000C94A0000C94A0000C94A000D0
:100030000C94A0000C94A0000C94A0000C94A000C0
:100040000C9482150C94A0000C944E160C94281657
:100050000C94A0000C94A0000C94A0000C94A000A0
:100060000C9480160C94A00007634236B79BD8A767
:100070001A39685618AEBAAB558C1D3CB7CC5763CD
:10008000BD6DEDFD753EF6177231BF000000803F7B
:100090000200000000240027002A000000000025C4
:1000A0000028002B000000000800020100000304EB
:1000B00007000000000000000000000000230026F0
:1000C00000290004040404040404040202020202DD
:1000D000020303030303030102040810204080010C
:1000E0000204081020010204081020009F17AD2B05
:1000F00011241FBECFEFD8E0DEBFCDBF24E0AEEFAE
:10010000B1E001C01D92AE3AB207E1F711E0A0E004
:10011000B1E0E6E4F1E602C005900D92AE3FB10712
:10012000D9F710E0C7E7D0E004C02197FE010E9494
:10013000662FC637D107C9F70E94B2190C949630C2
:100140000C940000CF92DF92EF92FF92CF93DF9357
:10015000EC016A017B01E889F98982E08083C1149E
:1001600081EED806E104F104A1F060E079E08DE3CE
:1001700090E0A70196010E94252F215031094109E5
:1001800051095695479537952795211580E13807F0
:1001900098F0E889F989108260E874E88EE190E0CF
:1001A000A70196010E94252F2150310941095109CB
:1001B0005695479537952795EC85FD853083EE85D7
:1001C000FF852083188EEC89FD8986E08083EA898B
:1001D000FB89808180618083EA89FB8980818860D6
:1001E0008083EA89FB89808180688083EA89FB8932
:1001F00080818F7D8083DF91CF91FF90EF90DF90A2
:10020000CF900895E6E5F4E014A613A616A615A669
:1002100010AA17A612AA11AA14AA13AA16AA15AAF6
:1002200010AE17AA14AE15AE16AE17AE12A612AEC9
:1002300013AE10929A0410929604109297041092A2
:1002400098041092990411AE0895E6E5F4E086A1B1
:1002500097A1B0E0A0E021AD04C0880F991FAA1FAC
:10026000BB1F2A95D2F7E6E9F4E040815181628113
:100270007381840F951FA61FB71F80839183A2836C
:10028000B383682F792F8A2F9B2F0895CF93DF9305
:1002900000D000D0CDB7DEB769837A838B839C838F
:1002A0008091640490916504DC01ED91FC910280E1
:1002B000F381E02D44E050E0BE016F5F7F4F099570
:1002C0000F900F900F900F90DF91CF910895809134
:1002D000640490916504DC01ED91FC910190F08142
:1002E000E02D60E0099560E070E0CB010C944601E0
:1002F000CF93DF93C6E5D4E08E859F85DC01ED9139
:10030000FC910190F081E02D60E009958E859F853C
:10031000DC01ED91FC910190F081E02D60E0DF9136
:10032000CF91099490E0FC01EB55FF4F2491FC0123
:10033000E952FF4F3491FC01ED53FF4FE491EE235E
:10034000C9F0222339F0233001F1A8F4213019F14A
:10035000223029F1F0E0EE0FFF1FE556FF4FA59187
:10036000B4918FB7F894EC91611126C030953E237B
:100370003C938FBF08952730A9F02830C9F024306E
:1003800049F7809180008F7D03C0809180008F7736
:1003900080938000DFCF84B58F7784BDDBCF84B5B9
:1003A0008F7DFBCF8091B0008F778093B000D2CF4C
:1003B0008091B0008F7DF9CF3E2BDACFCF93DF93C2
:1003C00090E0FC01E952FF4F24918D539F4FFC01B7
:1003D00084918823D1F090E0880F991FFC01EF569B
:1003E000FF4FA591B491FC01E556FF4FC591D49103
:1003F00061110EC09FB7F8948C91E22FE0958E2387
:100400008C932881E223E8839FBFDF91CF910895E9
:100410008FB7F894EC91E22BEC938FBFF6CF1F933C
:10042000CF93DF93182FEB0161E00E94DE0120974C
:1004300039F460E0812FDF91CF911F910C949201EC
:10044000CF3FD10511F461E0F5CFE12FF0E0EB559E
:10045000FF4FE491E33031F140F4E130B1F0E230AC
:10046000E1F0C038D1057CF7E4CFE73029F1E8307E
:1004700059F1E430B1F78091800080628093800070
:10048000D0938B00C0938A0004C084B5806884BD7B
:10049000C7BDDF91CF911F91089584B5806284BD5F
:1004A000C8BDF7CF80918000806880938000D09392
:1004B0008900C0938800EDCF8091B0008068809360
:1004C000B000C093B300E5CF8091B000806280930C
:1004D000B000C093B400DDCF3FB7F89480918402A0
:1004E00090918502A0918602B091870226B5A89BC3
:1004F00005C02F3F19F00196A11DB11D3FBFBA2FB6
:10050000A92F982F8827BC01CD01620F711D811D75
:10051000911D42E0660F771F881F991F4A95D1F7FA
:1005200008952FB7F89460918002709181028091B4
:100530008202909183022FBF0895CF93DF93CDB7AE
:10054000DEB7C258D1090FB6F894DEBF0FBECDBFDB
:10055000382F82E8E6E6F1E0DE01119601900D9277
:100560008A95E1F7DE01AC57BF4FE2E88E918C35FA
:1005700011F0E150D9F7EF5F81E88E1B41E050E0C8
:100580004C0F5D1F4E0F511DFA01232FA32FB92FC2
:100590009A2F921B981718F491919D93F9CFCE57EB
:1005A000DF4F0FB6F894DEBF0FBECDBFDF91CF9106
:1005B0000895CF93DF93CDB7DEB72C970FB6F8949D
:1005C000DEBF0FBECDBF2CE0E8EEF1E0DE011196FC
:1005D00001900D922A95E1F7FE0131969C01255F6D
:1005E0003F4F4191DC014D93CD01A217B307C9F7ED
:1005F0008BE02C960FB6F894DEBF0FBECDBFDF9117
:10060000CF910895CF93DF93CDB7DEB729970FB67B
:10061000F894DEBF0FBECDBF29E0E4EFF1E0DE01CC
:10062000119601900D922A95E1F7FE0131969C01F9
:10063000285F3F4F4191DC014D93CD01A217B307D5
:10064000C9F788E029960FB6F894DEBF0FBECDBF7C
:10065000DF91CF910895CF92DF92EF92FF92CF93E7
:10066000DF93EC016A017B0120E030E0A901CB01BE
:10067000B6010E949C2E1816C4F420E030E040E839
:100680005FE3C701B6010E94D22B87FF0EC0A7010E
:10069000960160E070E080E89FE30E94262D6BA346
:1006A0007CA38DA39EA381E08E8BDF91CF91FF90E1
:1006B000EF90DF90CF9008959091000189130BC0C7
:1006C000E0E9F0E0E4919FEF90930001E13049F020
:1006D00028F0E23061F060E00C94920110926E001C
:1006E000FACF90916F009D7F90936F00F4CF90911F
:1006F00070009D7F9093700091E09093B000909176
:10070000B100987F94609093B1001092B300E3CF52
:100710004F925F926F927F928F929F92AF92BF9211
:10072000CF92DF92EF92FF920F931F93CF93DF93BD
:1007300000D000D01F92CDB7DEB78B0129013A015E
:10074000909100018917C9F09F3F09F47EC00F9076
:100750000F900F900F900F90DF91CF911F910F91FD
:10076000FF90EF90DF90CF90BF90AF909F908F90D1
:100770007F906F905F904F900895E0E9F0E0949142
:100780009D8397FDE4CF61E00E94DE018D81882387
:1007900021F09D81923009F04AC14801B12CA12C71
:1007A00060E072E18AE790E0A50198010E94472F7E
:1007B00029833A834B835C8369017A0181E0C81AFB
:1007C000D108E108F1089FEFC916D104E104F10452
:1007D00009F00CF401C160E472E48FE090E0A5013F
:1007E00098010E94472F69017A0181E0C81AD10857
:1007F000E108F1089D81923009F0A2C08FEFC81680
:10080000D104E104F10409F00CF4E6C160E970EDF3
:1008100083E090E0A50198010E94472F69017A01C9
:1008200091E0C91AD108E108F1088FEFC816D10488
:10083000E104F10411F00CF07FC183E09091B1006C
:10084000987F892B8093B100CFC080930001E0E9AD
:10085000F0E094919D839F3F09F479CF913041F16D
:1008600050F0923009F446C09D8197FD70CF61E051
:100870000E94DE018ECF14BC15BC94B5926094BD6D
:1008800095B5916095BD282F30E0F901ED53FF4FEC
:10089000E491F0E0EE0FFF1FE556FF4F45915491B4
:1008A000F901E952FF4FE491E0936A021D826BCF98
:1008B0001092800010928100909181009860909336
:1008C000810090918100916090938100282F30E009
:1008D000F901ED53FF4FE491F0E0EE0FFF1FE556F5
:1008E000FF4F45915491F901E952FF4FE491E09394
:1008F000690249CF1092B0001092B1009091B000FF
:1009000092609093B0009091B10091609093B1008B
:10091000282F30E0F901ED53FF4FE491F0E0EE0FA6
:10092000FF1FE556FF4F4591549150937402409339
:100930007302F901E952FF4FE491E093750223CF6E
:100940009FEFC916D104E104F10409F00CF46DC065
:1009500068E478EE81E090E0A50198010E94472FBD
:1009600069017A0181E0C81AD108E108F1089D8186
:10097000992309F4FAC08FEFC816D104E104F104F9
:1009800011F00CF0FBC0EFC064E274EF80E090E087
:10099000A50194010E94472F69017A0181E0C81ADC
:1009A000D108E108F10885E09FEFC916D104E10400
:1009B000F10409F008F442CF62E17AE780E090E0C8
:1009C000A50194010E94472F69017A0181E0C81AAC
:1009D000D108E108F108E5C081E09D8191112ECF99
:1009E00095B5987F892B85BD2FEF3FEFA901411465
:1009F00051046104710409F043C09D81913009F4F0
:100A00005EC0923009F46DC09111A1CEC7BC209395
:100A10006F02309370024093710250937202809182
:100A20006E00826080936E0092CE82E0D6CFB12CB1
:100A3000A12C60E072E18AE790E0A50198010E9494
:100A4000472F69017A0181E0C81AD108E108F1084D
:100A5000C114D10491E0E906F10404F591E08D811F
:100A6000813011F680918100887F892B80938100ED
:100A70002FEF3FEFA9014114510461047104F9F013
:100A8000D801AA0FBB1FA30192010E940C2D28EED2
:100A900033E040E050E00E94252FAFCF68E478EECD
:100AA00081E090E0A50198010E94472F69017A0139
:100AB00081E0C81AD108E108F10893E0D0CFD092C4
:100AC0008900C092880020936B0230936C0240939F
:100AD0006D0250936E0280916F00826080936F0070
:100AE00036CEC092B30020937602309377024093C3
:100AF0007802509379028091700082608093700038
:100B000026CE84E09FEFC916D104E104F10409F078
:100B100008F466CFC980DA80EB80FC808AE0F59427
:100B2000E794D794C7948A95D1F781E0C81AD10881
:100B3000E108F10885E054CF68E478EE81E090E0C8
:100B4000A50198010E94472F69017A0181E0C81A26
:100B5000D108E108F1089FEFC916D104E104F104BE
:100B600011F00CF011CF84E069CE83E09FEFC9163D
:100B7000D104E104F10409F00CF432CF62E17AE728
:100B800080E090E0A50194010E94472F69017A015D
:100B900081E0C81AD108E108F1089D81992309F480
:100BA000B0CF86E09FEFC916D104E104F10409F04B
:100BB00008F444CEC980DA80EB80FC809AE0F5949A
:100BC000E794D794C7949A95D1F781E0C81AD108D1
:100BD000E108F10887E032CE82E030CEAF92BF92DA
:100BE000CF92DF92EF92FF920F931F93CF93DF93F9
:100BF0006C017B018B01040F151FEB015E01AE1828
:100C0000BF08C017D10759F06991D601ED91FC9149
:100C10000190F081E02DC6010995892B79F7C50176
:100C2000DF91CF911F910F91FF90EF90DF90CF90C8
:100C3000BF90AF900895FC01538D448D252F30E077
:100C4000842F90E0821B930B541710F0CF960895D9
:100C500001970895FC01918D828D981761F0A28D06
:100C6000AE0FBF2FB11D5D968C91928D9F5F9F73CC
:100C7000928F90E008958FEF9FEF0895FC01918D82
:100C8000828D981731F0828DE80FF11D858D90E0EF
:100C900008958FEF9FEF0895FC01918D228D892F8C
:100CA00090E0805C9F4F821B91098F739927089574
:100CB00089EB93E00E944C0621E0892B09F420E0A7
:100CC000822F089580E090E0892B29F00E94580639
:100CD00081110C9400000895FC01A48DA80FB92F78
:100CE000B11DA35ABF4F2C91848D90E001968F7354
:100CF0009927848FA689B7892C93A089B1898C9173
:100D0000837080648C93938D848D981306C00288C1
:100D1000F389E02D80818F7D80830895EF92FF928B
:100D20000F931F93CF93DF93EC0181E0888F9B8D0E
:100D30008C8D98131AC0E889F989808185FF15C0C8
:100D40009FB7F894EE89FF896083E889F9898081EB
:100D50008370806480839FBF81E090E0DF91CF91BA
:100D60001F910F91FF90EF900895F62E0B8D10E0DC
:100D70000F5F1F4F0F731127E02E8C8D8E110CC04B
:100D80000FB607FCFACFE889F989808185FFF5CF96
:100D9000CE010E946C06F1CFEB8DEC0FFD2FF11D03
:100DA000E35AFF4FF0829FB7F8940B8FEA89FB89D3
:100DB00080818062CFCFCF93DF93EC01888D882331
:100DC000B9F0AA89BB89E889F9898C9185FD03C0AE
:100DD000808186FD0DC00FB607FCF7CF8C9185FF93
:100DE000F2CF808185FFEDCFCE010E946C06E9CF66
:100DF000DF91CF91089520914402260F3327331FAE
:100E000021323105ECF42091AE02FC0190E080E04B
:100E1000243069F082E00895A09144022191AC0150
:100E20004E5D5D4FA40FB52FB11D2C930196861713
:100E300098F380914402680F6093440280E0089523
:100E400081E008951092AE0281E08093AD0210928D
:100E5000880261E082E10E94920161E083E10E94E8
:100E60009201E9EBF0E080818E7F808380818D7F2D
:100E7000808388E48093B80085E48093BC00089563
:100E8000CF93DF9391E0909321028823B9F0C09132
:100E9000B800D091BA008091BC008A7B8093BC00DE
:100EA00060E082E10E94920160E083E10E94920191
:100EB0000E942207D093BA00C093B800DF91CF916F
:100EC00008958F929F92AF92BF92CF92DF92EF924E
:100ED000FF920F931F93CF93DF93D091D702D1321C
:100EE00008F0D7C0182FC091D6020E946C026B0187
:100EF0007C018091AE0281116BC082E08093AE02D2
:100F00001093AD028FEF8093AC021092AB02D0939E
:100F1000AA02A6EBB2E0EAE8F2E080E0D81391C0C2
:100F20001092890280918902CC0FC82BC09389024C
:100F300080918802813009F088C0109288020E9456
:100F40006C026B017C01809189028093BB008091CF
:100F5000B0029091B102A091B202B091B302892B7C
:100F60008A2B8B2BA1F00E946C020091B002109191
:100F7000B1022091B2023091B3026C197D098E0941
:100F80009F09061717072807390708F442C0809100
:100F9000BC0083FDD8CF85EC8093BC000E946C021E
:100FA0006B017C018091AE02823009F450C08091C7
:100FB000AC028F3F09F46FC08091AC02803209F41B
:100FC0006CC08091AC02803309F469C084E026C013
:100FD0008091B0029091B102A091B202B091B3029F
:100FE000892B8A2B8B2B09F484CF0E946C02809072
:100FF000B0029090B102A090B202B090B3026C190E
:101000007D098E099F0986169706A806B90608F07D
:1010100070CF8091AF020E94400785E01092B50228
:101020001092D7021092B402DF91CF911F910F91CD
:10103000FF90EF90DF90CF90BF90AF909F908F90F8
:1010400008959D9191938F5F69CF85EEA5CF809193
:10105000B0029091B102A091B202B091B302892B7B
:101060008A2B8B2B09F49ECF0E946C020091B00258
:101070001091B1022091B2023091B3026C197D0936
:101080008E099F09061717072807390708F08ACF26
:10109000C0CF81E0C3CF80E0C1CF82E0BFCF83E08B
:1010A000BDCF089508950895E091200280911F0218
:1010B000E81730F4F0E0E150FE4F808190E00895B1
:1010C0008FEF9FEF08959091200280911F022FEFE4
:1010D0003FEF981748F4E92FF0E0E150FE4F2081F0
:1010E00030E09F5F90932002C901089580911F0214
:1010F00090912002891B990B0895CF92DF92EF9275
:10110000FF920F931F93CF93DF937C01CB018A0152
:101110002091B402222389F0EB016B01C40ED51E8D
:10112000CC15DD0569F06991D701ED91FC91019035
:10113000F081E02DC7010995F3CF642F0E94FB06D3
:10114000C801DF91CF911F910F91FF90EF90DF9039
:10115000CF900895CF93DF931F92CDB7DEB7698309
:101160002091B4022223F9F02091D702203258F0C6
:1011700021E030E0FC013383228390E080E00F9097
:10118000DF91CF9108958091B502E82FF0E0EA5405
:10119000FD4F998190838F5F8093B5028093D70232
:1011A00081E090E0ECCF61E0CE0101960E94FB0669
:1011B000F7CF90E080E00895EF92FF920F931F9396
:1011C000DC0118968C911897882381F0489FA00124
:1011D0001124452F829F90011124232F809F80018D
:1011E0001124012F8E9D70011124EF2C1E968C91DD
:1011F0001E971996ED91FC911A971B969C911B973F
:10120000891320C0CB01880F991F680F791F6E0FBB
:101210007F1F1B96EC911B97E60FF72FF11D408364
:101220001C96EC911C97E60FF72FF11D20831D965D
:101230008C91680F711DFB0100831F910F91FF902E
:10124000EF900895660F771F660F771F6E0F7F1F51
:10125000FB01E80FF11DE082DCCFCF92DF92EF922D
:10126000FF920F931F93CF93DF93CDB7DEB72997EC
:101270000FB6F894DEBF0FBECDBF8C010E946C028A
:10128000D8011F96CD90DD90ED90FC9052976C1593
:101290007D058E059F0528F4F8016787708B818B8B
:1012A000928BD8011F96CD90DD90ED90FC905297D7
:1012B0006C197D098E099F096C3271408105910579
:1012C000E8F2F894F801848195819A8389830184F6
:1012D000F285E02D7F012FEFE21AF20A80818F83E1
:1012E000D8019C915396ED91FC91549755968C9111
:1012F000992309F448C09081982B98879081809514
:101300008923898789858B8388E08C8358856985C3
:101310004F813C812B8189819A81D701508347FD80
:10132000252F3A952083262F39F0441F00C0000056
:101330006083000000C0F2CF38E04D916083000070
:10134000019761F7D8015496FC93EE9353974F831E
:101350003C832B839A83898378940E946C02F801E2
:101360006787708B818B928B29960FB6F894DEBFBE
:101370000FBECDBFDF91CF911F910F91FF90EF90E6
:10138000DF90CF9008959081982B988790818095D9
:101390008923898789858D8388E08E83588569852F
:1013A0004F813E812D8189819A81D701508347FDEC
:1013B000252F00C000C0208300C000C000C000C0B6
:1013C00000C060830000262F3A9541F0441F0000C2
:1013D00000C000C000C000C000C0E8CF38E04D91A0
:1013E00000C0608300C0019709F7D8015496FC93B0
:1013F000EE9353974F833E832D83ACCF7F928F9292
:101400009F92AF92BF92CF92DF92EF92FF920F9393
:101410001F93CF93DF93EC018C898E3008F08E50B0
:101420008770806480937C0080917A0080648093D0
:101430007A0080917A0086FDFCCF809178009091AF
:1014400079009A8789870E946C024B015C018B822C
:101450009C82AD82BE8220E030E0A9016BA57CA514
:101460008DA59EA50E949C2E69857A85181614F577
:10147000E9A4FAA490E080E00E94D72BAB01BC0164
:10148000D701ED91FC910280F381E02D950184015B
:10149000C70109956B017C0120E030E0A9010E94A1
:1014A000D22B87FF03C0C12CD12C7601C701B60116
:1014B0000E94462E78876F830E9491020F811885C3
:1014C0004E855F852A893B894017510760F42115B5
:1014D0003105A9F0CD8CDE8CEF8CF8A0C616D706AE
:1014E000E806F90660F41F870E876B017C01C20EC7
:1014F000D31EE11CF11CCD8EDE8EEF8EF8A2488942
:1015000059890417150760F42115310599F0C9A010
:10151000DAA0EBA0FCA0C616D706E806F90650F440
:10152000198B088B620F731F811D911D69A37AA30C
:101530008BA39CA3CE84DF84E888F988EC18FD088F
:101540007B847720D1F0B70190E080E00E94D72B18
:101550002F89388D498D5A8D0E94382C4B015C01A2
:10156000B60190E080E00E94D72BA50194010E9473
:10157000272D0E94462E7C8F6B8F8C859D85E816CB
:10158000F90610F4711009C02B8D3C8D89818823D8
:1015900031F081E00217130730F480E004C081E0ED
:1015A00002171307D0F748818883EFA1F8A59A8125
:1015B00021E030E001C0220F9A95EAF72095908152
:1015C00029232083EFA1F8A528819A8101C0220F49
:1015D0009A95EAF79081292B20838427DF91CF9178
:1015E0001F910F91FF90EF90DF90CF90BF90AF9041
:1015F0009F908F907F900895CF93DF93EC016B8144
:10160000617089810E9492016B8162708A81DF9191
:10161000CF910C94920160E070E0CB01089560E0FE
:1016200070E0CB010895CF92DF92EF92FF920F937B
:101630001F93CF93DF93EC016A017B010E946C0240
:101640008B019C01E881F9810280F381E02DB701D3
:10165000A601CE010995DF91CF911F910F91FF90C7
:10166000EF90DF90CF90089560E070E080E89FEB0E
:10167000089560E070E080E89FEB0895CF92DF92DC
:10168000EF92FF92CF93DF93EC01E881F981008420
:10169000F185E02D09956B017C012C853D854E85FA
:1016A0005F85688979898A899B890E94272DA7018E
:1016B00096010E94382CDF91CF91FF90EF90DF9040
:1016C000CF900895DC01ED91FC910088F189E02D27
:1016D00060E009948F929F92AF92BF92CF92DF9277
:1016E000EF92FF921F93CF93DF93EC016A017B018E
:1016F000122F8C849D84AE84BF84AB019601C501FA
:10170000B4010E94D22B40E050E0BA0187FF0EC026
:10171000A5019401C701B6010E94262D28893989A7
:101720004A895B890E94932DAB01BC01E881F98154
:101730000480F581E02D212FCE0109952889398972
:101740004A895B890E94382C2C853D854E855F85B2
:101750000E94272DDF91CF911F91FF90EF90DF9096
:10176000CF90BF90AF909F908F900895DC01ED9146
:10177000FC910484F585E02D20E00994DC01ED91D5
:10178000FC910084F185E02D60E00994DC01ED918D
:10179000FC910480F581E02D20E009941F93CF9304
:1017A000DF93EC018C899D89892B11F51092200221
:1017B00010921F021092B5021092D7020E942207C7
:1017C00081E598E0909343028093420282E598E09D
:1017D0009093470280934602898D91E09093B402E2
:1017E0008093D60281E0DF91CF911F910C94610725
:1017F0001FB7F8948091FE01811127C0EDECF0E055
:101800008491E1EEF0E09491E82FF0E0EE0FFF1FFD
:10181000EF56FF4FA591B491EC91E92321F461E0DB
:101820008AE00E94920161E08AE00E94DE018CB5AC
:1018300080618CBD8CB580648CBD61E08DE00E94C0
:10184000DE0161E08BE00E94DE018091FE018F5F8E
:101850008093FE011FBF61E08E890E94DE0161E07E
:101860008E890E94920180E0DF91CF911F910895AF
:1018700060E070E080E89FE30895089580E00895B7
:1018800080E00895FC018FEF9FEF97878687118A8C
:10189000108A128E118E81E0868B0895FC0123A19F
:1018A00034A145A156A160E070E080E89FE30E946A
:1018B000262D0895DC011396ED91FC918081089509
:1018C0003F924F925F926F927F928F929F92AF92D0
:1018D000BF92CF92DF92EF92FF920F931F93CF931D
:1018E000DF93EC01EB81FC81308059850F89188DE5
:1018F000D80154961D921D921D921C925797552304
:1019000009F47DC28D919C9197FD7DC240E023E258
:1019100030E0F894D8015996ED91FC915A97928154
:1019200058968C9158978095892382835C96ED9187
:10193000FC915D9791815B968C915B978095892353
:1019400081835C96ED91FC915D9792815B968C9181
:101950005B978095892382835C96ED91FC915D97DE
:1019600081815B969C915B97892B81835C96ED913D
:10197000FC915D9792815B968C915B978095892312
:101980008283C9010197F1F75C96ED91FC915D9717
:1019900091815B968C915B978095892381835C967E
:1019A000ED91FC915D9792815B968C915B97809510
:1019B000892382835996ED91FC915A97828158969A
:1019C0009C91892B82837894F801A48CB58C738DBB
:1019D000C084D184E284F384D5016C91F8018489B8
:1019E0009589A689B789672369F48C159D05AE058D
:1019F000BF0540F40196A11DB11D848B958BA68B6C
:101A0000B78BEACFC816D906EA06FB0608F017C15D
:101A10008EEF9FEFAFEFBFEF9D878C870E946C0228
:101A20006B017C01CD82DE82EF82F8868BA49CA4C0
:101A3000ADA4BEA420E030E0A901C501B4010E941C
:101A40009C2E0C851D85181664F020E030E0A9015D
:101A50006FA578A989A99AA90E949C2E18160CF046
:101A6000D6C1B80190E080E00E94D72B2B013C0149
:101A700020E030E0A901C501B4010E949C2E181697
:101A80007CF48FA198A5DC01ED91FC910280F3819B
:101A9000E02D97018601B301A20109952B013C01BC
:101AA00020E030E0A9016FA578A989A99AA90E9430
:101AB0009C2E18168CF489A59AA50D811E812F8164
:101AC0003885DC01ED91FC910280F381E02DB301BA
:101AD000A20109952B013C0120E030E0A901C301DE
:101AE000B2010E94D22B87FF03C0412C512C32013E
:101AF000C301B2010E94462E7B876A870E94910231
:101B0000EA84FB844E855F852C893D894E155F05EF
:101B100060F421153105A9F08B8C9C8CAD8CBE8CAA
:101B200086169706A806B90660F4FF86EE864B0176
:101B30005C01820E931EA11CB11C8B8E9C8EAD8EFF
:101B4000BE8E48895989E416F50660F421153105E1
:101B500099F08F8C98A0A9A0BAA086169706A8061F
:101B6000B90650F4F98AE88A620F731F811D911D2E
:101B70006F8F78A389A39AA30E851F85C888D988FB
:101B8000C01AD10A8E898823F1F0B60190E080E076
:101B90000E94D72B2BA13CA14DA15EA10E94382C05
:101BA0004B015C01B80190E080E00E94D72BA501B9
:101BB00094010E94272D0E94462E0617170709F44C
:101BC00029C17A8F698F8A899B89C816D90630F016
:101BD00081E0298D3A8DE216F30608F480E0EB816E
:101BE000FC819A8121E030E001C0220F9A95EAF74A
:101BF0002095908129232083EB81FC812A8101C0DB
:101C0000880F2A95EAF79081892B8083EB81FC81EC
:101C100081E09081931101C080E0DF91CF911F910D
:101C20000F91FF90EF90DF90CF90BF90AF909F907B
:101C30008F907F906F905F904F903F900895F894B1
:101C4000D8015C96ED91FC915D9782815B969C91A9
:101C50005B97892B82835C96ED91FC915D978181E6
:101C60005B969C915B97892B81835C96ED91FC91AF
:101C70005D9782815B969C915B97892B82835C96B2
:101C8000ED91FC915D9791815B968C915B9780952E
:101C9000892381835C96ED91FC915D9792815B969F
:101CA0008C915B978095892382835996ED91FC9165
:101CB0005A97928158968C91809589238283789443
:101CC000F801A48CB58C738DC084D184E284F38434
:101CD000D5016C91F80184899589A689B789672314
:101CE00009F07AC08C159D05AE05BF0508F090CEB1
:101CF0004F5F54130ECEC280D380E480F580C816A7
:101D0000D906EA06FB0608F075C09C01AD012C1946
:101D10003D094E095F0969017A010E949102D801CB
:101D200050968D909D90AD90BC905397681979090D
:101D30008A099B091C968D909D90AD90BC901F9731
:101D400086169706A806B90658F512966D917D91EC
:101D50008D919C9115970E94D72B2DEC3CEC4CEC6F
:101D60005DE30E94382C0E943F2E072E000C880B4A
:101D7000990BC616D706E806F90690F48FEF9FEF89
:101D8000AFEFBFE0F80182839383A483B5830E9401
:101D90009102D80150966D937D938D939C935397A8
:101DA000F80184899589A689B78942815381648124
:101DB000758184179507A607B70720F4828393835C
:101DC000A483B583F8014281538164817581841BAA
:101DD000950BA60BB70B20CE8C159D05AE05BF0548
:101DE00008F016CE0196A11DB11D848B958BA68B94
:101DF000B78B6ECFC81AD90AEA0AFB0A8ECF80E0E9
:101E000090E0DC0109CE8FEF9FEFDC0105CE1B8750
:101E10000A8774CE0F5F1F4F1A8F098FD4CECF92CF
:101E2000DF92EF92FF920F931F93CF93DF93EC011A
:101E30006A017B010CA51DA501151105D9F0AB01A7
:101E4000960160E070E080E89FE30E94262DAB01E0
:101E5000BC01D801ED91FC910480F581E02D28A909
:101E6000C801DF91CF911F910F91FF90EF90DF900C
:101E7000CF9009940EA4DFA5C02D2097C1F06881F2
:101E800070E090E080E00E94D72BA70196010E94AD
:101E9000382C0E94462E6B83CE01DF91CF911F918B
:101EA0000F91FF90EF90DF90CF900C94FC0ADF91A0
:101EB000CF911F910F91FF90EF90DF90CF900895F9
:101EC000FC0183A50C945C036A3018F4DC011296C3
:101ED0006C93DC01ED91FC910280F381E02D09947B
:101EE000DC011296EC91B4E0EB9FF0011124E80FB5
:101EF000F91F2581368163817481FC0183A550E03F
:101F000040E02F3F320719F420E030E0A9010C94A3
:101F10008803CF93DF93EC0161E08BA50E94DE0183
:101F200060E08BA50E9492018CA59DA5009739F0D9
:101F3000DC01ED91FC910190F081E02D09950EA45A
:101F4000DFA5C02D2097A9F061E089810E94DE0104
:101F500060E089810E94920161E08A810E94DE0135
:101F600060E08A810E949201CE01DF91CF910C94B2
:101F7000FC0ADF91CF910895EF920F931F93CF93B7
:101F8000DF93EC018EA19FA110E0892B91F48DA528
:101F9000181758F58EA570E060E0811102C06FEF50
:101FA00070E0FE01E10FF11D81A50E940F021F5F8D
:101FB000EECF8EA19FA128A5121780F4612F70E0AB
:101FC000FC01228133816217730730F4E12C00E0B9
:101FD00020E040E00E94DC081F5FEBCFFC01218580
:101FE0003285232B11F00E942D091FA618AA19AAC9
:101FF0001AAA1DA2DF91CF911F910F91EF90089522
:10200000EF92FF920F931F93CF93DF93EC018EA17A
:102010009FA110E0892BF9F406E0288130E08DA51E
:102020001817E8F5812F90E0029FF001039FF00D53
:102030001124EC0FFD1FE80FF91F61812EA521115E
:1020400001C0609570E08C0F9D1FFC0181A50E946E
:102050000F021F5FE2CF86E0F82E8EA19FA128A578
:102060001217B0F4612F70E0FC01228133816217F6
:10207000730760F42881FE01F29EE00DF11D11242A
:10208000E4800381228141810E94DC081F5FE5CF4B
:10209000FC0121853285232B11F00E942D098881B6
:1020A00016E0FE01189FE00DF11D11248581968137
:1020B000019691F00E9491022881FE01129FE00D8D
:1020C000F11D112425813681620F731F811D911D21
:1020D0006FA778AB89AB9AAB81E08DA3DF91CF91ED
:1020E0001F910F91FF90EF900895CF93DF9300D051
:1020F00000D0CDB7DEB749835A836B837C83DC0184
:102100008D919C91DC01ED91FC910280F381E02D99
:1021100044E050E0BE016F5F7F4F09950F900F9034
:102120000F900F90DF91CF910895CF93DF9300D060
:10213000CDB7DEB769837A83DC018D919C91DC0198
:10214000ED91FC910280F381E02D42E050E0BE0170
:102150006F5F7F4F09950F900F90DF91CF9108959A
:102160008091640490916504DC01ED91FC910190F3
:10217000F081E02D60E0099570E060E084E694E095
:102180000C949510CF93C62FBC0184E694E00E9476
:102190009510809164049091650461E06C0FDC01FE
:1021A000ED91FC910190F081E02DCF910994AF92D7
:1021B000BF92CF92DF92FF920F931F93CF93DF9343
:1021C000EC018B01F42EDB0115964D915D916D9123
:1021D0007C9118970E947510C880D980D601ED9126
:1021E000FC91A080B180D801ED91FC910480F58133
:1021F000E02DC8010995682FC601F5010995888170
:10220000998161E06F0DDC01ED91FC910190F0810D
:10221000E02D0995F80162857385CE010E94951025
:10222000D8011C966D917C91CE01DF91CF911F91C9
:102230000F91FF90DF90CF90BF90AF900C949510CE
:10224000EF92FF920F931F93CF93DF938C01EB01DB
:1022500060E772E00E9495104D815E816F81788504
:10226000C8010E947510D8010D911C91D801ED9103
:10227000FC91E080F180E881F9810480F581E02D16
:10228000CE010995682FC801F701DF91CF911F9109
:102290000F91FF90EF900994FF920F931F93CF93AC
:1022A000DF93EC018B01F42E62E072E00E94951046
:1022B0008881998161E06F0DDC01ED91FC910190C5
:1022C000F081E02D0995F801438154816581768183
:1022D000CE010E947510D80117966D917C91CE01A8
:1022E0000E949510F80161857285CE01DF91CF9132
:1022F0001F910F91FF900C9495100F931F93CF9304
:10230000DF93EC018B0160E072E00E949510F80110
:102310004381548165817681CE010E947510888148
:102320009981E801AFA1B8A5EC01E881F98101909C
:10233000F081E02D6C91DF91CF911F910F91099465
:10234000DC01ED91FC910280F381E02D0994DC0128
:10235000ED91FC910190F081E02D0994CF93DF93F2
:10236000E0917804F0917904309709F480C0EC0191
:1023700080919B0490919C04A0919D04B0919E0437
:10238000AC01BD014F5F5F4F6F4F7F4F40939B0488
:1023900050939C0460939D0470939E0409958E3124
:1023A00008F046C080939004BE0184E694E00E9449
:1023B00095108091560490915704DC01ED91FC91A9
:1023C0000190F081E02D6091900409958091900436
:1023D000882309F44CC0E0917804F091790480914D
:1023E0009B0490919C04A0919D04B0919E04AC012B
:1023F000BD014F5F5F4F6F4F7F4F40939B045093E2
:102400009C0460939D0470939E040995682F70E06E
:1024100070937D0460937C048091560490915704DE
:102420000E94A71180919004815080939004CECF98
:1024300010929004E0917604F0917704309709F4BB
:10244000B3CF80919B0490919C04A0919D04B09186
:102450009E040197A109B10980939B0490939C0469
:10246000A0939D04B0939E0460E009959DCFDF91F9
:10247000CF9108958BE093E00E94FE098823A9F094
:1024800080910B0369E170E0811102C061E070E0AE
:102490008AE00E940F028091580481FF06C06BE021
:1024A00073E084E694E00C947D1108958F929F92DE
:1024B000AF92BF92CF92DF92EF92FF920F931F9352
:1024C000CF93DF93EC01042FF22E632B162F142BE6
:1024D0008C899D89892B09F030C18CE08093B800EC
:1024E0008F89988D298D31E03093B4022093D602E4
:1024F0001092B5021092D702DC01ED91FC9101908F
:10250000F081E02D612F09950C3009F006C181E0C2
:102510000E946107882379F08FEF9FEFDF91CF91C1
:102520001F910F91FF90EF90DF90CF90BF90AF90F1
:102530009F908F900895198D0E946C026B017C0111
:102540008091AE02811165C081E08093AE028093DC
:10255000AD029FEF9093AC021092AB028093AA025F
:102560008093890280918902110F182B10938902A0
:1025700080918802813009F08EC0109288020E94FA
:102580006C026B017C01809189028093BB00809179
:10259000B0029091B102A091B202B091B302892B26
:1025A0008A2B8B2BA1F00E946C020091B00210913B
:1025B000B1022091B2023091B3026C197D098E09EB
:1025C0009F09061717072807390708F443C08091A9
:1025D000BC0083FDD8CF85EC8093BC000E946C02C8
:1025E0006B017C018091AE02813009F456C080916C
:1025F000AB02823008F073C08091AB02EAE8F2E0EF
:10260000AFEFB1E090E0981751F121912D939F5FCA
:10261000FACF8091B0029091B102A091B202B09134
:10262000B302892B8A2B8B2B09F48ACF0E946C0270
:102630008090B0029090B102A090B202B090B3022C
:102640006C197D098E099F0986169706A806B9069A
:1026500008F076CF8091AF020E94400780E0109290
:10266000200280931F028230E0F58F89988DDC0173
:10267000ED91FC910084F185E02D0995892B09F4F9
:102680004BCF8F89988DDC01ED91FC910284F3850D
:10269000E02D0995EACF85EE9FCF8091B002909111
:1026A000B102A091B202B091B302892B8A2B8B2B7D
:1026B00009F498CF0E946C020091B0021091B1020F
:1026C0002091B2023091B3026C197D098E099F09E5
:1026D000061717072807390708F084CFBBCF82E019
:1026E0008DCF8F89988DDC01ED91FC910284F3856B
:1026F000E02D0995082F8F89988DDC01ED91FC91D3
:102700000284F385E02D0995182F802F90E0982FF3
:102710008827810F911D917001CF8F89988DDC01E1
:10272000ED91FC910190F081E02D6F2D099581E0F4
:102730000E946107182F00E0E8CF81E58CBD1DBC29
:1027400060E08E890E9492011EBD00000DB407FE5C
:10275000FDCF0EB5FEBC00000DB407FEFDCF1EB5CB
:1027600061E08E890E949201D0CF4F925F926F926A
:102770007F928F929F92AF92BF92CF92DF92EF9211
:10278000FF92CF93DF93EC012FEF31E04CE061112A
:1027900047C0CE010E945612BC0190E080E00E942A
:1027A000D72B6B017C016A857B8590E080E00E94DD
:1027B000D72B9B01AC01C701B6010E94932D9B0151
:1027C000AC01C888D988EA88FB88C701B6010E9495
:1027D000382C9B01AC018C849D84AE84BF84C501E0
:1027E000B4010E94272D2B013C01A5019401C701D2
:1027F000B6010E94272D9B01AC01C301B2010E94CA
:10280000932DDF91CF91FF90EF90DF90CF90BF900D
:10281000AF909F908F907F906F905F904F900895B2
:1028200060E1B7CFCF92DF92EF92FF921F93CF93E9
:10283000DF93EC016A017B01122F6A857B8590E0B2
:1028400080E00E94D72BA70196010E94382C0E949D
:10285000462E9B0140E060E0111160E1CE010E9434
:102860005612E881F9810084F185E02D612FCE01B7
:10287000DF91CF911F91FF90EF90DF90CF9009945F
:10288000CF93DF93EC018B819C81892B41F481E014
:1028900090E00E946C2F9C838B83FC011082E88166
:1028A000F9810284F385E02DCE010995E881F98153
:1028B0000280F381E02DCE01099580E0DF91CF9178
:1028C00008950E94913085ED8093BC008091B00204
:1028D0009091B102A091B202B091B3020796A11DEE
:1028E000B11D23E0B695A795979587952A95D1F7C1
:1028F0002091BC0024FD03C01092AE0208954091C7
:10290000B0025091B1026091B2027091B302452BB6
:10291000462B472B69F30097A105B10541F02AE248
:102920002A95F1F700C00197A109B109E1CF809183
:10293000AF020C9440073F924F925F926F927F924A
:102940008F929F92AF92BF92CF92DF92EF92FF92BF
:102950000F931F93CF93DF93CDB7DEB72A970FB6B0
:10296000F894DEBF0FBECDBF9A8789876A017B01CD
:10297000DC011F968D909D90AD90BC905297FC010C
:102980000787108B218B328B13968D919D910D9023
:10299000BC91A02D89839A83AB83BC83838B948B5A
:1029A000A58BB68B87819085A185B2858D839E830B
:1029B000AF83B887878B908FA18FB28FC382D48269
:1029C000E582F682328031101EC0C782D086E18651
:1029D000F286C701B6012A960FB6F894DEBF0FBE85
:1029E000CDBFDF91CF911F910F91FF90EF90DF90BE
:1029F000CF90BF90AF909F908F907F906F905F909F
:102A00004F903F900895C901B801681979098A0962
:102A10009B090E94D72B4B015C01A985BA851B96A7
:102A20004D905D906D907C901E97AC019B01C30111
:102A3000B2010E94932D20E030E040EE50E40E946D
:102A40009C2E1816C4F5A5019401C301B2010E9481
:102A5000272D9B01AC01C301B2010E94932D4B01B4
:102A60005C01AC019B016D817E818F8198850E9404
:102A7000382C2B013C01B1E03B1227C0A501940189
:102A800060E070E080E89FE30E94262DA701960198
:102A90000E94382CA30192010E94272DE985FA8516
:102AA0006783708781879287E985FA85C780D0849C
:102AB000E184F2848ECFC501B4019058A301920144
:102AC0000E94932D0E940D2ECACF29813A814B81FD
:102AD0005C81C701B6010E94262DA50194010E94C8
:102AE000382CA30192010E94272DA985BA8517963B
:102AF0006D937D938D939C931A97D6CF0C94F62C5F
:102B00000C94FE2C1F920F920FB60F9211242F934C
:102B10003F938F939F93AF93BF9380918002909147
:102B20008102A0918202B091830230917F0223E062
:102B3000230F2D3758F50196A11DB11D20937F025B
:102B40008093800290938102A0938202B0938302CB
:102B50008091840290918502A0918602B0918702B3
:102B60000196A11DB11D8093840290938502A093CC
:102B70008602B0938702BF91AF919F918F913F9151
:102B80002F910F900FBE0F901F90189526E8230FDE
:102B90000296A11DB11DD2CF1F920F920FB60F92B8
:102BA00011242F933F934F935F936F937F938F9352
:102BB0009F93AF93BF93EF93FF9380917602909191
:102BC0007702A0917802B0917902892B8A2B8B2B06
:102BD000D1F190917502E0917302F09174028081BD
:102BE000892780838091760290917702A091780264
:102BF000B0917902181619061A061B069CF48091EA
:102C0000760290917702A0917802B09179020197B3
:102C1000A109B1098093760290937702A09378027C
:102C2000B0937902FF91EF91BF91AF919F918F91F6
:102C30007F916F915F914F913F912F910F900FBEB8
:102C40000F901F901895809100010E945C03EACFBD
:102C50001F920F920FB60F9211242F933F934F9311
:102C60005F936F937F938F939F93AF93BF93EF93F4
:102C7000FF9389EB93E00E946C06FF91EF91BF9167
:102C8000AF919F918F917F916F915F914F913F9104
:102C90002F910F900FBE0F901F9018951F920F92BB
:102CA0000FB60F9211242F938F939F93EF93FF935F
:102CB000E091C903F091CA038081E091CF03F091C4
:102CC000D00382FD1BC090818091D2038F5F8F73F0
:102CD0002091D303821741F0E091D203F0E0E75452
:102CE000FC4F958F8093D203FF91EF919F918F912D
:102CF0002F910F900FBE0F901F9018958081F4CFE9
:102D00001F920F920FB60F9211242F933F934F9360
:102D10005F936F937F938F939F93AF93BF93EF9343
:102D2000FF938091B900887F803609F44AC0F0F59E
:102D3000883209F4A7C018F5803109F49BC0B8F4B3
:102D4000882309F4F9C0883009F494C0FF91EF9109
:102D5000BF91AF919F918F917F916F915F914F91B3
:102D60003F912F910F900FBE0F901F9018958831B3
:102D700009F488C0803251F78093AC0214C08034CB
:102D800009F49DC040F48033B9F38833F9F6809399
:102D9000AC0285ECB0C0803509F485C0883509F4F3
:102DA00096C0883499F60E946314D0CF883909F40C
:102DB0008CC038F5883729F050F4883611F0803708
:102DC00029F683E08093AE021092680257C08838DB
:102DD00009F47BC0803919F0803809F0B7CF8091B1
:102DE0006802803208F071C0E091680281E08E0FC5
:102DF000809368028091BB00F0E0E85BFD4F808328
:102E00003DC0803B39F0E0F4803A09F479C0883A5B
:102E100009F09CCF84E08093AE021092450210929C
:102E20004402E0914202F0914302099580914402EC
:102E300081110FC081E0809344021092220209C0E8
:102E4000803C09F4A6CF883C09F4A3CF883B09F065
:102E50007DCFE091450281E08E0F80934502F0E046
:102E6000EE5DFD4F80818093BB0090914502809183
:102E7000440229C0809189028093BB0085EC809335
:102E8000BC0064CF9091AB028091AA02981758F5CC
:102E9000E091AB0281E08E0F8093AB02F0E0E65749
:102EA000FD4F8081E9CFE091AB0281E08E0F8093EE
:102EB000AB028091BB00F0E0E657FD4F808390911C
:102EC000AB028091AA029817C8F285E8D8CFE091AA
:102ED000AB0281E08E0F8093AB028091BB00F0E0EB
:102EE000E657FD4F80838091AD0281115CCF81E078
:102EF0008093880284EA8093BC001092AE0226CFB1
:102F000085EC8093BC001092AE0280916802803202
:102F100030F4E0916802F0E0E85BFD4F10826091D0
:102F2000680270E0E0914602F091470288E492E086
:102F30000995109268020ACF1092AC0234CF4F92DA
:102F40005F927F928F929F92AF92BF92CF92DF92C9
:102F5000EF92FF920F931F93CF93DF93A9EBB3E010
:102F600013961C921E92129748EE53E060E070E0B8
:102F700014964D935D936D937C9317978EE191E03A
:102F800011969C938E9385EC90E01D969C938E9366
:102F90001C9784EC90E01F969C938E931E9780EC78
:102FA00090E051969C938E93509781EC90E05396CD
:102FB0009C938E93529782EC90E055969C938E93BF
:102FC000549786EC90E057969C938E93569759961B
:102FD0001C9259975A961C925A975B961C925B9733
:102FE0005C961C925C97E6E5F4E0B183A0831282C4
:102FF0008AEFC82ED12CD482C38280E197E2A0E070
:10300000B0E085839683A783B0871586118A108ADE
:10301000138A128A158A148A178A168A118E108EBC
:10302000138E128E158E148E178E168E11A210A26C
:1030300013A212A215A214A21092A3041092A60425
:103040001092A904EFE9F3E080E090E0A6E9B2E491
:1030500084879587A687B78780E090E4ACE1B6E4E3
:10306000808B918BA28BB38B83E1868B108E178A1A
:103070008EE993E0958B848B84E591E09183808346
:10308000ADE6B3E088E491E011969C938E9312969E
:103090001C9212978FE09B968C939B979F961C9205
:1030A0001E929E97D0961C92D0979D96FC93EE937D
:1030B0009C97EAE3F3E0108217A216A27724739498
:1030C00076A683E081A785E082A786E083A789E0D2
:1030D00084A784E085A7CBE0D3E079821A827B863F
:1030E00084E690E09D878C878FEF9FEF9F878E8788
:1030F000198A188A80E395E79B8B8A8B8EE08C8BEC
:103100008FEF8D8B8E8B80E090E0A0E0BFE38F8B04
:10311000988FA98FBA8F88EE93E09EA38DA318A6EF
:103120001FA21BA61CA61DA61EA68BE190E00E9456
:103130006C2F8C01DC0112967C92129790E4E92EA0
:1031400091E0F92E1196FC92EE922CEB822E2CE659
:10315000922E2BE1A22E28E4B22EF80183869486CB
:10316000A586B68613961D921D921D921C921697E7
:10317000178210861186128657961D921D921D92F7
:103180001C925A970E946C02F8016787708B818BA2
:10319000928B30E4432E31E0532E518240821AA7A5
:1031A00009A7C8EDD2E01A821C821B8280E391E05D
:1031B000998388838AE0898784E090E09B8B8A8B5F
:1031C000DD8ACC8A7E8A80E090E0A0E4BFE38BA316
:1031D0009CA3ADA3BEA38EE190E00E946C2F8C0156
:1031E00081E090E0D80111969C938E9386E391E064
:1031F00017969C938E93169780EE95E7A9E0B0E022
:10320000F80180879187A287B38780E29EE4A0E0DF
:10321000B0E084879587A687B78761E082E10E9446
:10322000DE0160E080E10E94DE0160E082E10E9458
:103230009201E9EEF0E0E491D8015896EC935897AA
:10324000E5EDF0E0E491F0E0EE0FFF1FE754FF4FF3
:1032500085919491F801928F818FE7EEF0E0E491EF
:103260005B96EC93E3EDF0E0E491F0E0EE0FFF1FEE
:10327000E754FF4F85919491F801958F848F8FEFDC
:103280009FEFAFEFBFE082839383A483B5830E9457
:103290009102D80150966D937D938D939C93539793
:1032A000188F0F8B8BE190E00E946C2F8C01FC013A
:1032B0007282F182E08283869486A586B686138226
:1032C0001482158216821782108611861286178A3A
:1032D000108E118E128E0E946C02D8011F966D9373
:1032E0007D938D939C9352974D925C921AA709A758
:1032F0008BE190E00E946C2F8C01FC01F182E08256
:1033000082E0828383869486A586B68613821482A1
:10331000158216821782108611861286178A108EE1
:10332000118E128E0E946C02D8011F966D937D93B0
:103330008D939C93529780E491E08D939C9318A772
:103340000FA31A82DF91CF911F910F91FF90EF9001
:10335000DF90CF90BF90AF909F908F907F905F90C5
:103360004F900895CF93DF93CDB7DEB7E4970FB6B4
:10337000F894DEBF0FBECDBF789484B5826084BD63
:1033800084B5816084BD85B5826085BD85B5816069
:1033900085BD80916E00816080936E0010928100E7
:1033A00080918100826080938100809181008160A2
:1033B0008093810080918000816080938000809163
:1033C000B10084608093B1008091B00081608093EF
:1033D000B00080917A00846080937A0080917A00B6
:1033E000826080937A0080917A00816080937A0075
:1033F00080917A00806880937A001092C10084E600
:1034000090E0909318038093170380E090E0A0E091
:10341000BFE38093220390932303A0932403B093EC
:10342000250381E080931603E0913403F091350386
:103430008AEF9DEAA8EFB5E483879487A587B687CE
:1034400080E090E0A0EAB1E48093360390933703E4
:10345000A0933803B09339038091320390913303E2
:10346000892B51F481E090E00E946C2F90933303FC
:1034700080933203DC011C9260E080911F030E9464
:10348000DE010E9491022091300330913103DC0172
:10349000CB01820F931FA11DB11D80932803909330
:1034A0002903A0932A03B0932B0380932C039093BA
:1034B0002D03A0932E03B0932F030E943A1285E0B0
:1034C00090E09093EB028093EA0280E090E0A0E825
:1034D000BEE38093FB029093FC02A093FD02B093A5
:1034E000FE02FF24F394F092EE02E091FF02F091CD
:1034F00000038AEF9DEAA8E7B6E483879487A5874F
:10350000B68780E090E0A0E2B1E48093030390935B
:103510000403A0930503B0930603009101031091E7
:10352000020320E030E0A90160E070E080E89FE362
:103530000E94932D20E034E244E759E40E94382CA5
:10354000F801638774878587968710920703109226
:1035500008031092090310920A0388ED92E00E947A
:1035600040148DE992E0909367048093660489ED9E
:1035700092E0909369048093680482E093E09093D2
:103580006B0480936A0480E895E1909377048093BC
:1035900076048EE795E190937904809378048DE624
:1035A00093E09093A00480939F048BE093E090932A
:1035B000A5048093A4048AE393E09093A2048093EB
:1035C000A10488ED92E09093A8048093A70440E0C2
:1035D00052EC61E070E080915604909157040E9493
:1035E000A2008091560490915704909365048093B3
:1035F000640463E270E084E694E00E94951060E069
:1036000081E10E94DE0161E08AE00E94DE0161E06A
:1036100070E08AE00E940F0282E1E8E0F1E0DE0162
:10362000119601900D928A95E1F700916003109137
:1036300061030115110579F410E0809167031817F3
:10364000D8F4E12FF0E0E65CFC4F61E081A50E9438
:10365000DE011F5FF2CFD80116968D919C9197FDE8
:10366000B0C161E00E94DE0160E0F80186810E9445
:103670009201D8011196FC928AE393E00E94BC0F5C
:10368000DE011196EAE3F3E084E690E012962C91D5
:10369000129711963C9111974C9141833283238369
:1036A000968385831396369623E0EE35F20771F7FD
:1036B00085E080933A038DE693E00E94890FEDE662
:1036C000F3E088EE93E024E630E09483838336834E
:1036D00025838C599F4F3496803D47E09407A9F786
:1036E00089E080936F0340E050E060E87FE38DE67F
:1036F00093E00E940F0F22242A94322CCE010A96C6
:103700009CAB8BABEE24EA94FE2C01E010E042E48B
:10371000842E912C8091560490915704DC01ED91F8
:10372000FC910084F185E02D0995892BD1F18091E0
:10373000560490915704DC01ED91FC910284F385CD
:10374000E02D0995682FC82ED92ED0927D04C09205
:103750007C04E0918104F0918204309711F00C9484
:1037600025268091800481112FC1D0927F04C092C0
:103770007E0481E080938004809181049091820492
:10378000892B11F00C94832B8091800481110C946F
:10379000832B10929204109293041092940410922E
:1037A00095048091920490919304A0919404B09117
:1037B0009504892B8A2B8B2B89F00E9491024090D3
:1037C000920450909304609094047090950446166F
:1037D00057066806790610F40E9402018091690379
:1037E00090916A03A0916B03B0916C03892B8A2B93
:1037F0008B2B99F00E9491024090690350906A03CC
:1038000060906B0370906C03461657066806790645
:1038100020F48AE393E00E94BC0FD0900101DD20E8
:10382000C9F180915F03811135C0DA94D092010112
:10383000D0923A038AE393E00E9400106D2D8DE64A
:1038400093E00E94640F80910101811123C0F092E6
:103850004003E0923F03F0924603E0924503F0926A
:103860004C03E0924B03F0925203E0925103F0922A
:103870005803E0925703F0925E03E0925D0385E007
:1038800080933A038AE393E00E94BC0F8DE693E0B5
:103890000E94600F0E943A1288ED92E00E94600C34
:1038A000D0907E02D82AD0927E020E94910240904F
:1038B0007A0250907B0260907C0270907D026415C9
:1038C00075058605970538F1DD2029F180915804AA
:1038D00081FF11C082FD02C00C94972B60E872E05A
:1038E00084E694E00E94951040E068ED72E084E682
:1038F00094E00E94D71010927E020E949102665FAF
:103900007F4F8F4F9F4F60937A0270937B0280931B
:103910007C0290937D028091580480FF45C00E94F4
:103920006C0240905F04509060046090610470905D
:1039300062044616570668067906B0F58091580469
:1039400082FD02C00C949F2B40E06BE073E084E6A4
:1039500094E00E944C1160E872E084E694E00E94DA
:10396000951040E068ED72E084E694E00E94D71084
:1039700080915F0490916004A0916104B091620411
:1039800040915B0450915C0460915D0470915E0411
:10399000840F951FA61FB71F80935F049093600448
:1039A000A0936104B093620480E090E0892B09F455
:1039B000B1CE0E945806882309F4A9CE0E940000C7
:1039C000A4CEF801118258CEDC2CCC2420917E04A8
:1039D00030917F04C20ED31ED0927F04C0927E0429
:1039E00010928004BEE8CB16B1E0DB0609F49EC657
:1039F00008F021C2F9E7CF16D10409F4CEC508F0CA
:103A0000D7C030E1C316D10409F403C508F05AC089
:103A100085E0C816D10409F440C5C8F4A1E0CA166F
:103A2000D10409F47FC408F47AC4E2E0CE16D104CC
:103A300009F47FC4F4E0CF16D10409F44AC561E269
:103A400070E084E694E00E949510B6016DC428E011
:103A5000C216D10409F4A9C408F546E0C416D1047D
:103A600009F448C587E0C816D10449F783E090E01F
:103A7000909382048093810488E190E09093840481
:103A80008093830481E080939A0410929B041092A7
:103A90009C0410929D0410929E046ECE9CE0C91668
:103AA000D10409F432C5AEE0CA16D10441F66FE084
:103AB00070E084E694E00E94951040E052EC61E0F2
:103AC00070E06EC4B8E1CB16D10409F43BC4D0F564
:103AD000F2E1CF16D10409F4DDC408F4C7C433E120
:103AE000C316D10409F44AC446E1C416D10409F04E
:103AF000A6CFE0916604F0916704309709F444CEB4
:103B0000CE0101960995D82E65E170E084E694E037
:103B10000E9495108091640490916504DC01ED9100
:103B2000FC910190F081E02D6D2D09954D2D50E017
:103B3000BE016F5F7F4F80916404909165040E9485
:103B4000A0111ACE86E6C816D10409F415C5A0F452
:103B5000AAE1CA16D10409F403C4B5E6CB16D10410
:103B600009F06DCF109382040093810482E080936A
:103B7000900486E190E056C4E7E6CE16D10409F43D
:103B8000F8C4F8E7CF16D10409F059CF87E190E0E7
:103B9000909382048093810483E08093900483E077
:103BA00090E0909384048093830489E190E006C5BB
:103BB0002AE0C21621E0D20609F450C508F092C0EE
:103BC00044E0C41641E0D40609F421C508F047C01A
:103BD000C11491E0D90609F400C520F5BAE7CB1667
:103BE000D10409F02CCFE0917A04F0917B04309756
:103BF00009F4CACD09956093960470939704809355
:103C00009804909399046BE770E084E694E00E9436
:103C1000951040919604509197046091980470918A
:103C20009904BEC3E1E0CE16DE0609F4D9C4F2E081
:103C3000CF16F1E0DF0609F002CF63E071E084E621
:103C400094E00E9495108091640490916504DC01D9
:103C5000ED91FC910190F081E02D6AE0BAC327E07C
:103C6000C21621E0D20609F4D5C4A8F445E0C41672
:103C700041E0D40609F4C0C486E0C81681E0D80645
:103C800009F0DDCE10938204009381041092900419
:103C90008AE290E0C7C398E0C91691E0D90609F41A
:103CA000D4C4A9E0CA16A1E0DA0609F0C8CEC090D3
:103CB0009F04D090A004C114D10409F465CD68E03C
:103CC00071E084E694E00E949510F6018281F4E0B0
:103CD0008F9FC0011124C80ED91ED60115966D9173
:103CE0007C9122C3B5E8CB16B1E0DB0609F419C517
:103CF00048F5F0E8CF16F1E0DF0609F402C598F4C4
:103D00003BE0C31631E0D30609F4B2C484E190E08D
:103D100040E6C41641E0D40609F091CE90938204A7
:103D20008093810429CD81E8C81681E0D80609F482
:103D3000EBC494E8C91691E0D90609F080CE8EE272
:103D400090E0ECCFA8E8CA16A1E0DA0609F4FFC4B7
:103D500008F053C0E6E8CE16E1E0DE0609F4EDC453
:103D6000F7E8CF16F1E0DF0609F069CEE091A30491
:103D7000F0E0EE0FFF1FEF55FB4F0190F081E02DBB
:103D8000808190E090937D0480937C0466E871E0EC
:103D900084E694E00E949510D12CC12C96E0B92EB7
:103DA0008091560490915704E091A304F0E0EE0F47
:103DB000FF1FEF55FB4FA081B18140917C045091D2
:103DC0007D04B49E9001B59E300D1124A20FB31F47
:103DD0009D012C0D3D1DDC01ED91FC910190F081C8
:103DE000E02DD90111966C910995BFEFCB1ADB0A32
:103DF000E4E0CE16D104A1F6BFCC29E8C21621E03A
:103E0000D20609F4ADC43DE8C31631E0D30609F08B
:103E100016CE6CE871E084E694E00E9495108091E3
:103E2000640490916504DC01ED91FC910190F081B6
:103E3000E02D66E0CEC241E8C41642E0D40609F4A3
:103E4000CFC508F036C19CE0C91692E0D90609F446
:103E500037C508F0ABC0B6E0CB16B2E0DB0609F41C
:103E6000DEC408F050C0F1E0CF16F2E0DF0609F43E
:103E7000A6C4A0F43FE8C31631E0D30609F0DFCDB5
:103E8000E091A304F0E0EE0FFF1FEF55FB4F019010
:103E9000F081E02D60818EE891E0ECC043E0C41633
:103EA00042E0D40609F4A0C485E0C81682E0D80632
:103EB00009F0C5CDB090A604EB2DF0E0EE0FFF1F8A
:103EC000EC55FB4FC080D18064E072E084E694E062
:103ED0000E949510809164049091650461E06B0DDF
:103EE000DC01ED91FC910190F081E02D0995F60146
:103EF0006685778584E694E00E949510D6015096F9
:103F00006D917C9111C299E0C91692E0D90609F42D
:103F1000B3C4A8F4B7E0CB16B2E0DB0609F489C459
:103F2000E8E0CE16E2E0DE0609F089CD10938204C7
:103F3000009381041092900485E390E073C2FAE04C
:103F4000CF16F2E0DF0609F4B8C42BE0C21622E077
:103F5000D20609F074CDB090A604EB2DF0E0EE0F80
:103F6000FF1FEC55FB4FC080D1806AE072E084E611
:103F700094E00E949510809164049091650461E042
:103F80006B0DDC01ED91FC910190F081E02D099524
:103F90008091640490916504DC01ED91FC910190A5
:103FA000F081E02DD6011B966C9113C231E7C31648
:103FB00032E0D30609F4C3C408F045C080E1C81656
:103FC00082E0D80609F490C478F4AFE0CA16A2E003
:103FD000DA0609F034CD1093820400938104109224
:103FE000900487E390E01EC2B1E1CB16B2E0DB069D
:103FF00009F49BC4E2E1CE16E2E0DE0609F01FCD33
:10400000B090A604EB2DF0E0EE0FFF1FEC55FB4F38
:10401000C080D18061E172E084E694E00E94951056
:10402000809164049091650461E06B0DDC01ED9179
:10403000FC910190F081E02D0995F60163A574A52E
:1040400085A596A53AC3F4E7CF16F2E0DF0609F49A
:1040500093C498F432E7C31632E0D30609F489C456
:104060006091A90482E792E043E7C41642E0D406D7
:1040700009F0E5CC0E94C2107FCB85E7C81682E02C
:10408000D80609F483C496E7C91692E0D90609F068
:10409000D6CCE091A904F0E0EE0FFF1FE955FB4FED
:1040A00080819181DC01ED91FC910284F385E02D0A
:1040B000A1C2ADE8CA16A2E0DA0609F462C508F0AA
:1040C0009FC0E7E8CE16E2E0DE0609F4F8C408F087
:1040D00046C024E8C21622E0D20609F4BFC450F557
:1040E00043E8C41642E0D40609F0A9CCB090A90474
:1040F000EB2DF0E0EE0FFF1FE955FB4FC080D180A4
:1041000062E872E084E694E00E9495108091640475
:1041100090916504C114D10409F0E0CEDC01ED9169
:10412000FC910190F081E02D60E0099540E050E0C5
:10413000BA0136C185E8C81682E0D80609F497C4EA
:1041400096E8C91692E0D90609F079CC109382045A
:1041500000938104109290048CE390E063C1AAE87C
:10416000CA16A2E0DA0609F4DAC4D8F5E8E8CE16F1
:10417000E2E0DE0609F4C7C4F9E8CF16F2E0DF0694
:1041800009F05DCCB090A904EB2DF0E0EE0FFF1F1D
:10419000E955FB4FC080D18068E872E084E694E086
:1041A0000E949510C114D10409F4B5C4809164042F
:1041B0009091650461E06B0DDC01ED91FC91019043
:1041C000F081E02D09958091640490916504DC01F3
:1041D000ED91FC910190F081E02DD60156966C9105
:1041E000F8C02BE8C21622E0D20609F4A5C43CE8C8
:1041F000C31632E0D30609F022CC2FE330E085C4A9
:1042000043E9C41642E0D40609F4EDC4C0F590E9D0
:10421000C91692E0D90609F4E3C478F4E0E4F0E0CA
:10422000BEE8CB16B2E0DB0609F482C2EFE8CE1698
:10423000E2E0DE0609F4A0CA02CCF1E9CF16F2E012
:10424000DF0609F499CA22E9C21622E0D20609F073
:10425000F6CB109382040093810482E08093900453
:104260009092840480928304109296041092970492
:10427000109298041092990410928F0406CC34E6A0
:10428000C31635E6D30609F477CA98F586E9C81649
:1042900082E0D80609F4BFC497E9C91692E0D906AE
:1042A00009F0CDCBB090A904EB2DF0E0EE0FFF1F8D
:1042B000E955FB4FC080D18066E972E084E694E066
:1042C0000E949510C114D10409F4A1C48091640422
:1042D0009091650461E06B0DDC01ED91FC91019022
:1042E000F081E02D0995F60167A570A981A992A931
:1042F000E4C1A2E6CA16A4E7DA0609F4A0C0B3E650
:10430000CB16B4E7DB0609F09ACB25E030E030931A
:104310008204209381048FEF809390042DCA0E9421
:1043200002012ACA6DEC7BEA84E694E00E949510B3
:1043300023CA63E070E084E694E00E94951067E091
:1043400070E0F2CFE0916804F0916904309709F4CD
:104350001BCACE0101960995D82E67E170E0D6CB35
:10436000E0916A04F0916B04309709F40DCACE0114
:1043700001960995D82E69E170E0C8CB64E170E040
:1043800084E694E00E9495100E949102AB01BC016A
:1043900084E694E00E9475100E946C02AB01BC019F
:1043A00084E694E00E947510E7C9E0917404F091EE
:1043B0007504309781F0C0905604D0905704D60110
:1043C0008D919C91DC01AD90BC900995682FC60140
:1043D000F5010995D1C969E070E084E694E00E9496
:1043E00095108091640490916504DC01ED91FC913D
:1043F0000190F081E02D6FE1099580916404909126
:104400006504DC01ED91FC910190F081E02D60E00C
:10441000E0CF109382040093810482E080939004A3
:1044200084E090E090938404809383041092960437
:10443000109297041092980410929904CBC063E6EE
:1044400074E784E694E00E949510D12CC12CB6014B
:1044500080916404909165040E94A711BFEFCB1A6C
:10446000DB0AC114E1E0DE0691F786C9D09063044F
:1044700062E170E084E694E00E949510809164040B
:1044800090916504DC01ED91FC910190F081E02DAB
:104490006D2D9FCF86E090E041CC83E090E090933B
:1044A00082048093810488E190E090938404809357
:1044B000830481E080939A048EE190E0A0E0B0E074
:1044C00080939B0490939C04A0939D04B0939E04BE
:1044D00053C98EE190E0A0E0B0E080939B049093FC
:1044E0009C04A0939D04B0939E0485E090E00E94FC
:1044F000AE1142C910929B0410929C0410929D042C
:1045000010929E0487E090E0F2CFDE011196EEE07B
:10451000F0E021E2CF01019620935700E491ED9362
:10452000FC01449711F4E5E1F0E08BA99CA9A817E0
:10453000B90781F76DE070E084E694E00E94951081
:1045400069E070E080916404909165040E94A71175
:104550008091640490916504DC01ED91FC910280EE
:10456000F381E02D49E050E0BE016F5F7F4F099578
:1045700003C985E190E0D2CB40905B0450905C048D
:1045800060905D0470905E0465E670E084E694E0FF
:104590000E949510B301A20103CF87E190E09093B0
:1045A00082048093810483E08093900483E090E010
:1045B000909384048093830488E190E09093860430
:1045C0008093850410929B0410929C0410929D0489
:1045D00010929E0410928F04CFC888E290E09ECB88
:1045E00080919F049091A004DC01ED91FC910680E4
:1045F000F781E02D0995C0C8E0919F04F091A004D7
:10460000309709F4C1C8628184E091E033CD89E23A
:1046100090E084CBC0909F04D090A004C114D1043A
:1046200009F4B2C866E071E084E694E00E94951057
:10463000F6018281F4E08F9FC0011124C80ED91EBB
:10464000D60113966D917C916FCE109382040093E6
:104650008104109290048BE290E0E4CE10938204E7
:104660000093810482E0809390048CE290E0DACEA3
:10467000C0909F04D090A004C114D10409F484C850
:104680006AE071E084E694E00E949510F60184A54A
:1046900095A50097A9F0DC01ED91FC910084F185CE
:1046A000E02DD601D0966C9109959B01AC0160E09C
:1046B00070E080E89FE30E94262D0E9446015CC8BE
:1046C000C6A4D7A460E070E080E89FE3C114D104E1
:1046D000A1F3D60113966C9170E090E080E00E9407
:1046E000D72B2B013C01F601608170E090E080E067
:1046F0000E94D72B9B01AC01C301B2010E94932DF4
:10470000DCCF8DE290E00ACB8091A1049091A204CD
:10471000DC0195962C91222309F436C80E94BC0F27
:104720002BC86091A30484E891E0A4CCEFE2F0E010
:10473000F0938204E09381041FC8109382040093D5
:10474000810482E08093900481E390E06BCE10932B
:104750008204009381041092900482E390E062CE80
:10476000E091A304F0E0EE0FFF1FEF55FB4F019027
:10477000F081E02D808190E090937D0480937C0413
:1047800068E871E084E694E00E949510E091A3044B
:10479000F0E0EE0FFF1FEF55FB4F0190F081E02D91
:1047A00020917C0430917D0446E0429FC001439FEC
:1047B000900D1124E80FF91F65817681B5CD8091A8
:1047C000A4049091A5040E94FE09E091A604F0E0E3
:1047D000EE0FFF1FEC55FB4F6081718184E694E082
:1047E0000E947D110C94BC1BE091A604F0E0EE0F3A
:1047F000FF1FEC55FB4F808191810E94FE09409183
:10480000A604E42FF0E0EE0FFF1FEC55FB4F608194
:10481000718184E694E00E944C110C94BC1B1093AF
:1048200082040093810482E08093900484E390E00A
:10483000F9CDB090A604EB2DF0E0EE0FFF1FEC5584
:10484000FB4FC080D18066E072E084E694E00E9475
:104850009510809164049091650461E06B0DDC011A
:10486000ED91FC910190F081E02D0995F6016789A9
:10487000708D818D928D21CFB090A604EB2DF0E04C
:10488000EE0FFF1FEC55FB4FC080D18068E072E057
:1048900084E694E00E9495108091640490916504F0
:1048A00061E06B0DDC01ED91FC910190F081E02D58
:1048B0000995F601638D748D37CD86E390E02ECA9D
:1048C000E091A604F0E0EE0FFF1FEC55FB4F0190C6
:1048D000F081E02D37862686118A108A148E138E79
:1048E00081E083870C94BC1BB090A604EB2DF0E014
:1048F000EE0FFF1FEC55FB4FC080D1806FE072E0E0
:1049000084E694E00E94951080916404909165047F
:1049100061E06B0DDC01ED91FC910190F081E02DE7
:104920000995F60164857585FFCC10938204009388
:10493000810482E08093900488E390E073CD8091BD
:10494000A7049091A804DC01ED91FC910280F38111
:10495000E02D0995E091A904F0E0EE0FFF1FE95565
:10496000FB4F6081718184E694E00E9420110C94D9
:10497000BC1B89E390E0D2C91093820400938104A8
:1049800082E0809390048AE390E04CCDB090A9043B
:10499000EB2DF0E0EE0FFF1FE955FB4FC080D180FB
:1049A00064E772E084E694E00E949510C114D1049B
:1049B00009F42DC1809164049091650461E06B0D50
:1049C000DC01ED91FC910190F081E02D0995D6017B
:1049D000ED91FC910084F185E02DC60109956DCE25
:1049E000E091A904F0E0EE0FFF1FE955FB4F808135
:1049F0009181DC01ED91FC910280F381E02D09951C
:104A0000B090A904EB2DF0E0EE0FFF1FE955FB4F2E
:104A1000C080D18060E872E084E694E00E94951046
:104A2000C114D10441F04B2DB60184E694E00E94FC
:104A3000D7100C94BC1B9AE0D92E809164049091FD
:104A40006504DC01ED91FC910190F081E02D60E0C6
:104A50000995DA94D110F1CF0C94BC1B1093820409
:104A600000938104109290048BE390E0DBCCB09033
:104A7000A904EB2DF0E0EE0FFF1FE955FB4FC080BE
:104A8000D18064E872E084E694E00E949510C1143D
:104A9000D10489F0809164049091650461E06B0D0C
:104AA000DC01ED91FC910190F081E02D0995F6017A
:104AB0006289738939CC0E94B0100C94BC1BB090F1
:104AC000A904EB2DF0E0EE0FFF1FE955FB4FC0806E
:104AD000D18066E872E084E694E00E949510C114EB
:104AE000D10449F3809164049091650461E06B0DF9
:104AF000DC01ED91FC910190F081E02D0995F6012A
:104B0000618D728D11CC2DE330E0309382042093BF
:104B100081040C94BC1B0E9478010C94BC1B109364
:104B200082040093810410929004EEE3F0E0F0938D
:104B30008404E09383047ACCB090A904EB2DF0E0D8
:104B4000EE0FFF1FE955FB4FC080D1806AE872E08D
:104B500084E694E00E949510C114D10409F4ABCF0F
:104B6000809164049091650461E06B0DDC01ED912E
:104B7000FC910190F081E02D0995F6016489758919
:104B8000D3CBB090A904EB2DF0E0EE0FFF1FE95559
:104B9000FB4FC080D1806CE872E084E694E00E9414
:104BA0009510C114D10409F4B6CF8091640490919A
:104BB000650461E06B0DDC01ED91FC910190F081E9
:104BC000E02D09958091640490916504DC01ED91DC
:104BD000FC910190F081E02DD60119966C91F9CBF2
:104BE00021E430E092CFB090A904EB2DF0E0EE0F7D
:104BF000FF1FE955FB4FC080D18062E972E084E677
:104C000094E00E949510C114D10409F009CA0E94D1
:104C100067010C94BC1B109382040093810482E012
:104C2000809390049092840480928304109296045E
:104C300010929704109298041092990410928F0485
:104C400081E090E0A0E0B0E03BCC3197E234F105A8
:104C500008F06FC0E25DF94D0C94662F702699261E
:104C60009526D0264B27BF2799269926992699263F
:104C7000992699269926992699269926992699263C
:104C800099269926C227FE2727284928992699265A
:104C9000992699269926992699269926992699261C
:104CA00099269926992699269926692875287D2876
:104CB000AB28D928E528F328F7289926032938298D
:104CC00069296C299329C129D029FD292E2A322A44
:104CD000862A582AB32AC32AF02A99269926FC2A1A
:104CE00090918F042601712C612C092E04C0440C74
:104CF000551C661C771C0A94D2F74091960450917B
:104D000097046091980470919904440D551D661D97
:104D1000771D409396045093970460939804709382
:104D20009904985F90938F0404C0CD2869F40E9481
:104D3000020180919004882309F4D7C490919104D2
:104D40009111D3C48150E8CA8FEF860F80939004ED
:104D500081E08093910480919A04882351F3E0913B
:104D60007604F09177043097C1F080919B04909184
:104D70009C04A0919D04B0919E042C013D012FEF55
:104D8000421A520A620A720A40929B0450929C0490
:104D900060929D0470929E04099510929A04C9CF66
:104DA000C601B0E0A0E020918F0404C0880F991FD5
:104DB000AA1FBB1F2A95D2F74091960450919704E1
:104DC0006091980470919904840F951FA61FB71FD6
:104DD000BF708093960490939704A0939804B09327
:104DE000990424E0D694C7942A95E1F7D0927D04E3
:104DF000C0927C04C0905604D0905704D601ED9127
:104E0000FC910680F781E02DC6010995D6015296E6
:104E1000ED91FC91539780818F7E80835296ED9126
:104E2000FC9153978081877F80835296ED91FC910E
:104E3000539780818F7780835296ED91FC915397A1
:104E400080818F7D80835A968C915A9759968C9346
:104E50004091960450919704609198047091990440
:104E600080915604909157040E94A20040909604AD
:104E700050909704609098047090990465E674E7E8
:104E800084E694E00E949510B301A20184E694E0C8
:104E90000E9475104ECF209190042F3F59F48093BB
:104EA0009004109296041092970410929804109215
:104EB00099043FCF8091960490919704A091980413
:104EC000B09199048C151D0459F49F5FAF4FBF4FEB
:104ED0008093960490939704A0939804B0939904B8
:104EE000211139C064E674E784E694E00E949510CD
:104EF000A0915604B09157044091960450919704A4
:104F00006091980470919904CB01BA016F5F7F4F53
:104F10008F4F9F4FED91FC9111970190F081E02D03
:104F2000CD010995A0915604B09157044091960483
:104F30005091970460919804709199049927872F54
:104F4000762F652FED91FC9111970190F081E02D66
:104F5000CD010995EECE8091960490919704A09191
:104F60009804B09199040196A11DB11D80939604F7
:104F700090939704A0939804B0939904DACE809309
:104F80006304D7CE80935804882309F4D2CEE091ED
:104F9000A604F0E0EE0FFF1FEC55FB4F608171811E
:104FA00084E694E00E947D11E091A904F0E0EE0F08
:104FB000FF1FE955FB4F6081718184E694E00E94F8
:104FC00020118091580480FFB4CE0E946C02409062
:104FD0005B0450905C0460905D0470905E04DC01A2
:104FE000CB01840D951DA61DB71D80935F04909382
:104FF0006004A0936104B09362049BCEC601B0E04C
:10500000A0E020918F0404C0880F991FAA1FBB1F26
:105010002A95D2F740919604509197046091980494
:1050200070919904840F951FA61FB71F8093960453
:1050300090939704A0939804B093990480935B0491
:1050400090935C04A0935D04B0935E0472CE909143
:105050008F042601712C612C092E04C0440C551CB0
:10506000661C771C0A94D2F740919B0450919C04D3
:1050700060919D0470919E04440D551D661D771D21
:1050800040939B0450939C0460939D0470939E04F2
:1050900048CEE0917604F0917704309709F449CE38
:1050A00080919B0490919C04A0919D04B0919E04DA
:1050B0002C013D012FEF421A520A620A720A4092F5
:1050C0009B0450929C0460929D0470929E040995EA
:1050D00030CE80919F049091A0046150DC01ED914D
:1050E000FC910480F581E02DF2CFA0919F04B09156
:1050F000A004615012966C931CCEC601B0E0A0E0F3
:1051000020918F0404C0880F991FAA1FBB1F2A95E6
:10511000D2F7409196045091970460919804709151
:105120009904840F951FA61FB71F80939604909330
:105130009704A0939804B0939904E0919F04F09190
:10514000A004228144E0249F90011124E20FF31F68
:1051500094838383EECDC601B0E0A0E020918F045C
:1051600004C0880F991FAA1FBB1F2A95D2F7409130
:105170009604509197046091980470919904840F5B
:10518000951FA61FB71F8093960490939704A09332
:105190009804B0939904E0919F04F091A0042281B7
:1051A00044E0249F90011124E20FF31F968385832E
:1051B000C0CDC0909F04D090A0040E942501AB01F7
:1051C000BC01C6010E940F0FB4CD61506093A304CF
:1051D000E62FF0E0EE0FFF1FEF55FB4F808191812E
:1051E0000E940010A6CD61506093A304A2CDE0916F
:1051F000A304F0E0EE0FFF1FEF55FB4FA081B1813C
:1052000061506C9396CDC601B0E0A0E020918F0470
:1052100004C0880F991FAA1FBB1F2A95D2F740917F
:105220009604509197046091980470919904840FAA
:10523000951FA61FB71F8093960490939704A09381
:105240009804B0939904E091A304F0E0EE0FFF1FDF
:10525000EF55FB4F0190F081E02D208136E0239F38
:10526000E00DF11D112481839283A383B48361CD6A
:10527000C601B0E0A0E020918F0404C0880F991F00
:10528000AA1FBB1F2A95D2F740919604509197040C
:105290006091980470919904840F951FA61FB71F01
:1052A0008093960490939704A0939804B0939904E4
:1052B000E091A304F0E0EE0FFF1FEF55FB4F0190CC
:1052C000F081E02D208146E0249FE00DF11D1124A6
:1052D0006DCF8093A6042DCDE091A604F0E0EE0FF3
:1052E000FF1FEC55FB4FC080D1800E942501D601E5
:1052F00057966D937D938D939C935A9781E01B965F
:105300008C93E091A604F0E0EE0FFF1FEC55FB4FED
:105310000190F081E02D37862686118A108A148E3E
:10532000138E838706CDC601B0E0A0E020918F04E4
:1053300004C0880F991FAA1FBB1F2A95D2F740915E
:105340009604509197046091980470919904840F89
:10535000951FA61FB71F8093960490939704A09360
:105360009804B0939904E091A604F0E0EE0FFF1FBB
:10537000EC55FB4F0190F081E02D948F838F1386C5
:10538000D8CCE091A604F0E0EE0FFF1FEC55FB4FE8
:105390000190F081E02D81E0CD2819F680E0C1CFA9
:1053A000C601B0E0A0E020918F0404C0880F991FCF
:1053B000AA1FBB1F2A95D2F74091960450919704DB
:1053C0006091980470919904840F951FA61FB71FD0
:1053D0008093960490939704A0939804B0939904B3
:1053E000E091A604F0E0EE0FFF1FEC55FB4F01909B
:1053F000F081E02D958784879CCCE091A604F0E0B5
:10540000EE0FFF1FEC55FB4FC080D1800E9425019D
:105410002B013C01F601A1A4B2A42BED3FE049EC25
:1054200050E40E94382C9B01AC0160E070E080E801
:105430009FE30E94932D20E034E244E759E40E9468
:10544000382CD5011B966D937D938D939C931E975D
:10545000F60143A654A665A676A66BCC6150609370
:10546000A90467CCE091A904F0E0EE0FFF1FE95515
:10547000FB4FC080D180D601ED91FC91A680B78012
:105480000E942501AB01BC01C601F5010995E0911F
:10549000A904F0E0EE0FFF1FE955FB4F80819181D9
:1054A000DC01ED91FC910284F385E02D099541CC5E
:1054B000C601B0E0A0E020918F0404C0880F991FBE
:1054C000AA1FBB1F2A95D2F74091960450919704CA
:1054D0006091980470919904840F951FA61FB71FBF
:1054E0008093960490939704A0939804B0939904A2
:1054F000E091A904F0E0EE0FFF1FE955FB4F01908A
:10550000F081E02D928F818F168A13CCC601B0E016
:10551000A0E020918F0404C0880F991FAA1FBB1F11
:105520002A95D2F74091960450919704609198047F
:1055300070919904840F951FA61FB71F809396043E
:1055400090939704A0939804B0939904E091A904D0
:10555000F0E0EE0FFF1FE955FB4F0190F081E02DC9
:10556000938B828BE6CBE091A904F0E0EE0FFF1F56
:10557000E955FB4F0190F081E02D81E0CD2809F441
:1055800080E0868BD6CBC601B0E0A0E020918F04EE
:1055900004C0880F991FAA1FBB1F2A95D2F74091FC
:1055A0009604509197046091980470919904840F27
:1055B000951FA61FB71F8093960490939704A093FE
:1055C0009804B0939904E091A904F0E0EE0FFF1F56
:1055D000E955FB4F0190F081E02D958B848BA9CB91
:1055E000E091A904F0E0EE0FFF1FE955FB4F019099
:1055F000F081E02D61879DCBE091A904F0E0EE0FF2
:10560000FF1FE955FB4FC080D18080919B04909192
:105610009C04A0919D04B0919E04892B8A2B8B2B16
:10562000D9F50E9425012B013C01F601A7A0B0A4E9
:105630002BED3FE049EC50E40E94382C9B01AC017B
:1056400060E070E080E89FE30E94932D20E034E268
:1056500044E759E40E94382CD5011B966D937D9345
:105660008D939C931E97F60143A654A665A676A635
:1056700080919B0490919C04A0919D04B0919E0404
:105680000196A11DB11D80939B0490939C04A0934F
:105690009D04B0939E044DCB0E9425012B013C013B
:1056A000D6019996AD90BC902BED3FE049EC50E4CB
:1056B0000E94382C9B01AC0160E070E080E89FE321
:1056C0000E94932D20E034E244E759E40E94382CF4
:1056D000F5016387748785879687D6019F964D92DB
:1056E0005D926D927C92D297C3CFE1E8F4E0828123
:1056F000938181939193B4E0ED38FB07C1F7109249
:1057000091040C94BC1B0E94910220915904309189
:105710005A04620F731F811D911D60939204709350
:10572000930480939404909395040C94D11B68ED9A
:1057300072E084E694E00E9420110C947B1C6BE0E4
:1057400073E084E694E00E947D1168ED72E084E6E7
:1057500094E00E9420110C94B81C80E391E0909397
:10576000D9028093D8028091EF029091F0020E94BA
:1057700008308091010390910203009711F00E947C
:1057800008308091FF0290910003009711F00E9471
:1057900008308091340390913503009711F00C94F8
:1057A000083008950E94142C08F481E00895E894CC
:1057B00009C097FB3EF490958095709561957F4F59
:1057C0008F4F9F4F9923A9F0F92F96E9BB27939507
:1057D000F695879577956795B795F111F8CFFAF417
:1057E000BB0F11F460FF1BC06F5F7F4F8F4F9F4F48
:1057F00016C0882311F096E911C0772321F09EE8A6
:10580000872F762F05C0662371F096E8862F70E00B
:1058100060E02AF09A95660F771F881FDAF7880FE5
:105820009695879597F90895990F0008550FAA0B3B
:10583000E0E8FEEF16161706E807F907C0F01216A3
:105840001306E407F50798F0621B730B840B950BA6
:1058500039F40A2661F0232B242B252B21F40895FB
:105860000A2609F4A140A6958FEF811D811D089598
:105870000E944B2C0C94BC2C0E94AE2C38F00E9441
:10588000B52C20F0952311F00C94A52C0C94AB2C86
:1058900011240C94F02C0E94CD2C70F3959FC1F331
:1058A000950F50E0551F629FF001729FBB27F00DCE
:1058B000B11D639FAA27F00DB11DAA1F649F662723
:1058C000B00DA11D661F829F2227B00DA11D621F72
:1058D000739FB00DA11D621F839FA00D611D221F2C
:1058E000749F3327A00D611D231F849F600D211D10
:1058F000822F762F6A2F11249F5750409AF0F1F093
:1059000088234AF0EE0FFF1FBB1F661F771F881FFB
:1059100091505040A9F79E3F510580F00C94A52C62
:105920000C94F02C5F3FE4F3983ED4F38695779582
:105930006795B795F795E7959F5FC1F7FE2B880FA1
:10594000911D9695879597F9089597F99F6780E837
:1059500070E060E008959FEF80EC089500240A94C1
:105960001616170618060906089500240A9412163A
:105970001306140605060895092E0394000C11F46D
:10598000882352F0BB0F40F4BF2B11F460FF04C01A
:105990006F5F7F4F8F4F9F4F089557FD9058440F73
:1059A000551F59F05F3F71F04795880F97FB991F7E
:1059B00061F09F3F79F0879508951216130614063B
:1059C000551FF2CF4695F1DF08C0161617061806C8
:1059D000991FF1CF86957105610508940895E894A3
:1059E000BB2766277727CB0197F90895F999FECF52
:1059F00092BD81BDF89A992780B50895262FF9990F
:105A0000FECF1FBA92BD81BD20BD0FB6F894FA9AA1
:105A1000F99A0FBE019608950E94172DA59F900D2B
:105A2000B49F900DA49F800D911D11240895A29FF5
:105A3000B001B39FC001A39F700D811D1124911D62
:105A4000B29F700D811D1124911D08955058BB27E0
:105A5000AA270E943E2D0C94BC2C0E94AE2C38F03C
:105A60000E94B52C20F039F49F3F19F426F40C94D1
:105A7000AB2C0EF4E095E7FB0C94A52CE92F0E94CB
:105A8000CD2C58F3BA17620773078407950720F0E7
:105A900079F4A6F50C94EF2C0EF4E0950B2EBA2FAA
:105AA000A02D0B01B90190010C01CA01A001112424
:105AB000FF27591B99F0593F50F4503E68F11A16D0
:105AC000F040A22F232F342F4427585FF3CF469561
:105AD00037952795A795F0405395C9F77EF41F1683
