:100000000C9478000C94DB1C0C94B41C0C94A00091
:100010000C94A0000C94A0000C94A0000C94021D61
:100020000C94A0000C94A0000C94A0000C94A000D0
:100030000C94A0000C94A0000C94A0000C94A000C0
:100040000C946A1C0C94A0000C94841D0C945E1DEE
:100050000C94A0000C94A0000C94A0000C94A000A0
:100060000C94B61D0C94A00007634236B79BD8A72A
:100070001A39685618AEBAAB558C1D3CB7CC5763CD
:10008000BD6DEDFD753EF6177231BF000000803F7B
:1000900000000000230026002900020000000024C8
:1000A0000027002A0000000000250028002B000483
:1000B000040404040404040202020202020303030F
:1000C0000303030102040810204080010204081009
:1000D00020010204081020000000080002010000B6
:1000E000030407000000000000000000D51EB53723
:1000F00011241FBECFEFD8E0DEBFCDBF25E0ACEAB4
:10010000B2E001C01D92AA3FB207E1F712E0A0E001
:10011000B1E0E0E5F9E702C005900D92AC3AB10715
:10012000D9F710E0C7E7D0E004C02197FE010E9494
:100130006B3BC637D107C9F70E9413210C949B3C37
:100140000C940000CF92DF92EF92FF92CF93DF9357
:10015000EC016A017B01E889F98982E08083C1149E
:1001600081EED806E104F104A1F060E079E08DE3CE
:1001700090E0A70196010E942A3B215031094109D4
:1001800051095695479537952795211580E13807F0
:1001900098F0E889F989108260E874E88EE190E0CF
:1001A000A70196010E942A3B2150310941095109BA
:1001B0005695479537952795EC85FD853083EE85D7
:1001C000FF852083188EEC89FD8986E08083EA898B
:1001D000FB89808180618083EA89FB8980818860D6
:1001E0008083EA89FB89808180688083EA89FB8932
:1001F00080818F7D8083DF91CF91FF90EF90DF90A2
:10020000CF900895EDE9F5E014A613A616A615A65D
:1002100010AA17A612AA11AA14AA13AA16AA15AAF6
:1002200010AE17AA14AE15AE16AE17AE12A612AEC9
:1002300013AE1092E1051092DD051092DE051092CA
:10024000DF051092E00511AE0895EDE9F5E086A115
:1002500097A1B0E0A0E021AD04C0880F991FAA1FAC
:10026000BB1F2A95D2F7EDEDF5E040815181628107
:100270007381840F951FA61FB71F80839183A2836C
:10028000B383682F792F8A2F9B2F0895833081F0B5
:1002900028F4813099F08230A9F008958730A9F0D0
:1002A0008830C9F08430B1F4809180008F7D03C024
:1002B000809180008F7780938000089584B58F7738
:1002C00084BD089584B58F7DFBCF8091B0008F777A
:1002D0008093B00008958091B0008F7DF9CF1F9377
:1002E000CF93DF93282F30E0F901E952FF4F84913B
:1002F000F901ED53FF4FD491F901E155FF4FC4913E
:10030000CC23A9F0162F81110E944601EC2FF0E0BA
:10031000EE0FFF1FEB55FF4FA591B4918FB7F894E7
:10032000EC91111108C0D095DE23DC938FBFDF91D3
:10033000CF911F910895DE2BF8CFCF93DF9390E0FC
:10034000FC01ED53FF4F249181559F4FFC01849197
:100350008823D1F090E0880F991FFC01E556FF4FEC
:10036000A591B491FC01EB55FF4FC591D49161115A
:100370000EC09FB7F8948C91E22FE0958E238C935A
:100380002881E223E8839FBFDF91CF9108958FB743
:10039000F894EC91E22BEC938FBFF6CF8E3008F0FF
:1003A0008E508770806480937C0080917A00806496
:1003B00080937A0080917A0086FDFCCF809178004E
:1003C0009091790008953FB7F89480910F03909130
:1003D0001003A0911103B091120326B5A89B05C08C
:1003E0002F3F19F00196A11DB11D3FBFBA2FA92FB4
:1003F000982F8827BC01CD01620F711D811D911DB1
:1004000042E0660F771F881F991F4A95D1F708951C
:100410002FB7F89460910B0370910C0380910D033A
:1004200090910E032FBF089581E08093AC02089550
:10043000CF93DF93CDB7DEB7CC5AD1090FB6F8947E
:10044000DEBF0FBECDBF382F8CEAEBEEF1E0DE0150
:10045000119601900D928A95E1F7DE01A255BF4FEA
:10046000ECEA8E918C3511F0E150D9F7EF5F8BEA11
:100470008E1B41E050E04C0F5D1F4E0F511DFA01E5
:10048000232FA32FB92F9A2F921B981718F491910D
:100490009D93F9CFC455DF4F0FB6F894DEBF0FBE62
:1004A000CDBFDF91CF910895CF93DF93CDB7DEB766
:1004B0002C970FB6F894DEBF0FBECDBF2CE0E7E956
:1004C000F2E0DE01119601900D922A95E1F7FE010E
:1004D00031969C01255F3F4F4191DC014D93CD0149
:1004E000A217B307C9F78BE02C960FB6F894DEBFBE
:1004F0000FBECDBFDF91CF910895CF93DF93CDB7DE
:10050000DEB729970FB6F894DEBF0FBECDBF29E046
:10051000E3EAF2E0DE01119601900D922A95E1F7EF
:10052000FE0131969C01285F3F4F4191DC014D93C4
:10053000CD01A217B307C9F788E029960FB6F89442
:10054000DEBF0FBECDBFDF91CF91089585E10E9440
:10055000CE01BC01990F880B990B0E94C53720E092
:1005600030EC4FE754E40E947F3920E030E040E275
:1005700051E40E94243820E030E040E05FE30E9434
:1005800013390E94323A862F089508959091000100
:1005900089130BC0EAE9F0E0E4919FEF909300012A
:1005A000E13049F028F0E23061F060E00C946F0136
:1005B00010926E00FACF90916F009D7F90936F0024
:1005C000F4CF909170009D7F9093700091E0909394
:1005D000B0009091B100987F94609093B100109218
:1005E000B300E3CF4F925F926F927F928F929F9270
:1005F000AF92BF92CF92DF92EF92FF920F931F9331
:10060000CF93DF9300D000D01F92CDB7DEB78B0120
:1006100029013A01909100018917C9F09F3F09F41F
:100620007EC00F900F900F900F900F90DF91CF91A1
:100630001F910F91FF90EF90DF90CF90BF90AF9000
:100640009F908F907F906F905F904F900895EAE910
:10065000F0E094919D8397FDE4CF61E00E949D01BD
:100660008D81882321F09D81923009F04AC1480193
:10067000B12CA12C60E072E18AE790E0A50198011D
:100680000E944C3B29833A834B835C8369017A0146
:1006900081E0C81AD108E108F1089FEFC916D1041A
:1006A000E104F10409F00CF401C160E472E48FE0AC
:1006B00090E0A50198010E944C3B69017A0181E01C
:1006C000C81AD108E108F1089D81923009F0A2C052
:1006D0008FEFC816D104E104F10409F00CF4E6C16F
:1006E00060E970ED83E090E0A50198010E944C3B29
:1006F00069017A0191E0C91AD108E108F1088FEF88
:10070000C816D104E104F10411F00CF07FC183E0BC
:100710009091B100987F892B8093B100CFC08093D6
:100720000001EAE9F0E094919D839F3F09F479CFBD
:10073000913041F150F0923009F446C09D8197FD0F
:1007400070CF61E00E949D018ECF14BC15BC94B5A2
:10075000926094BD95B5916095BD282F30E0F90168
:10076000E155FF4FE491F0E0EE0FFF1FEB55FF4F17
:1007700045915491F901ED53FF4FE491E093F90253
:100780001D826BCF109280001092810090918100A9
:100790009860909381009091810091609093810086
:1007A000282F30E0F901E155FF4FE491F0E0EE0F22
:1007B000FF1FEB55FF4F45915491F901ED53FF4F4A
:1007C000E491E093F80249CF1092B0001092B1008A
:1007D0009091B00092609093B0009091B1009160C0
:1007E0009093B100282F30E0F901E155FF4FE491DB
:1007F000F0E0EE0FFF1FEB55FF4F459154915093E2
:10080000030340930203F901ED53FF4FE491E0939A
:10081000040323CF9FEFC916D104E104F10409F0CA
:100820000CF46DC068E478EE81E090E0A5019801D9
:100830000E944C3B69017A0181E0C81AD108E108A5
:10084000F1089D81992309F4FAC08FEFC816D104ED
:10085000E104F10411F00CF0FBC0EFC064E274EFAE
:1008600080E090E0A50194010E944C3B69017A016F
:1008700081E0C81AD108E108F10885E09FEFC916A8
:10088000D104E104F10409F008F442CF62E17AE70F
:1008900080E090E0A50194010E944C3B69017A013F
:1008A00081E0C81AD108E108F108E5C081E09D8126
:1008B00091112ECF95B5987F892B85BD2FEF3FEFF6
:1008C000A901411451046104710409F043C09D81E0
:1008D000913009F45EC0923009F46DC09111A1CE3F
:1008E000C7BC2093FE023093FF0240930003509355
:1008F000010380916E00826080936E0092CE82E050
:10090000D6CFB12CA12C60E072E18AE790E0A5017E
:1009100098010E944C3B69017A0181E0C81AD10814
:10092000E108F108C114D10491E0E906F10404F5ED
:1009300091E08D81813011F680918100887F892B33
:10094000809381002FEF3FEFA9014114510461040E
:100950007104F9F0D801AA0FBB1FA30192010E94F4
:10096000F83828EE33E040E050E00E942A3BAFCF59
:1009700068E478EE81E090E0A50198010E944C3B8C
:1009800069017A0181E0C81AD108E108F10893E011
:10099000D0CFD0928900C09288002093FA02309381
:1009A000FB024093FC025093FD0280916F00826035
:1009B00080936F0036CEC092B3002093050330932E
:1009C00006034093070350930803809170008260F0
:1009D0008093700026CE84E09FEFC916D104E10415
:1009E000F10409F008F466CFC980DA80EB80FC805E
:1009F0008AE0F594E794D794C7948A95D1F781E07B
:100A0000C81AD108E108F10885E054CF68E478EE0F
:100A100081E090E0A50198010E944C3B69017A01B8
:100A200081E0C81AD108E108F1089FEFC916D10486
:100A3000E104F10411F00CF011CF84E069CE83E001
:100A40009FEFC916D104E104F10409F00CF432CF90
:100A500062E17AE780E090E0A50194010E944C3BBE
:100A600069017A0181E0C81AD108E108F1089D8185
:100A7000992309F4B0CF86E09FEFC916D104E104B1
:100A8000F10409F008F444CEC980DA80EB80FC80E0
:100A90009AE0F594E794D794C7949A95D1F781E0BA
:100AA000C81AD108E108F10887E032CE82E030CEE2
:100AB000AF92BF92CF92DF92EF92FF920F931F936C
:100AC000CF93DF936C017B018B01040F151FEB01AA
:100AD0005E01AE18BF08C017D10759F06991D60161
:100AE000ED91FC910190F081E02DC6010995892BD3
:100AF00079F7C501DF91CF911F910F91FF90EF9092
:100B0000DF90CF90BF90AF900895FC01538D448D3E
:100B1000252F30E0842F90E0821B930B541710F0A8
:100B2000CF96089501970895FC01918D828D9817B5
:100B300061F0A28DAE0FBF2FB11D5D968C91928D8D
:100B40009F5F9F73928F90E008958FEF9FEF0895BE
:100B5000FC01918D828D981731F0828DE80FF11D87
:100B6000858D90E008958FEF9FEF0895FC01918DA2
:100B7000228D892F90E0805C9F4F821B91098F739B
:100B80009927089580E095E00E94B60521E0892B21
:100B900009F420E0822F089580E090E0892B29F06D
:100BA0000E94C20581110C9400000895FC01A48DDF
:100BB000A80FB92FB11DA35ABF4F2C91848D90E07F
:100BC00001968F739927848FA689B7892C93A08962
:100BD000B1898C91837080648C93938D848D9813EC
:100BE00006C00288F389E02D80818F7D808308957F
:100BF000EF92FF920F931F93CF93DF93EC0181E06D
:100C0000888F9B8D8C8D98131AC0E889F989808113
:100C100085FF15C09FB7F894EE89FF896083E88946
:100C2000F98980818370806480839FBF81E090E038
:100C3000DF91CF911F910F91FF90EF900895F62EC5
:100C40000B8D10E00F5F1F4F0F731127E02E8C8D5F
:100C50008E110CC00FB607FCFACFE889F9898081A4
:100C600085FFF5CFCE010E94D605F1CFEB8DEC0FBD
:100C7000FD2FF11DE35AFF4FF0829FB7F8940B8FC1
:100C8000EA89FB8980818062CFCFCF93DF93EC012B
:100C9000888D8823B9F0AA89BB89E889F9898C9164
:100CA00085FD03C0808186FD0DC00FB607FCF7CF20
:100CB0008C9185FFF2CF808185FFEDCFCE010E9420
:100CC000D605E9CFDF91CF910895CF93CFB7F894B0
:100CD0008091F702811127C0E9EBF0E08491EDECFF
:100CE000F0E09491E82FF0E0EE0FFF1FE556FF4F84
:100CF000A591B491EC91E92321F461E08AE00E948E
:100D00006F0161E08AE00E949D018CB580618CBD1D
:100D10008CB580648CBD61E08DE00E949D0161E036
:100D20008BE00E949D018091F7028F5F8093F70214
:100D3000CFBFCF9108952091D202260F3327331FC2
:100D400021323105ECF420915903FC0190E080E060
:100D5000243069F082E00895A091D2022191AC0183
:100D600040555D4FA40FB52FB11D2C9301968617EA
:100D700098F38091D202680F6093D20280E00895C8
:100D800081E008951092590381E0809358031092F6
:100D9000330361E082E10E946F0161E083E10E9420
:100DA0006F01E9EBF0E080818E7F808380818D7F11
:100DB000808388E48093B80085E48093BC00089524
:100DC000CF93DF9391E09093AF028823B9F0C09165
:100DD000B800D091BA008091BC008A7B8093BC009F
:100DE00060E082E10E946F0160E083E10E946F0198
:100DF0000E94C206D093BA00C093B800DF91CF9191
:100E000008958F929F92AF92BF92CF92DF92EF920E
:100E1000FF920F931F93CF93DF93D0918203D13230
:100E200008F0D7C0182FC09181030E94E3016B0125
:100E30007C018091590381116BC082E0809359033A
:100E4000109358038FEF8093570310925603D0935B
:100E50005503A1E6B3E0E5E3F3E080E0D81391C0E9
:100E60001092340380913403CC0FC82BC093340309
:100E700080913303813009F088C0109233030E94BF
:100E8000E3016B017C01809134038093BB0080916E
:100E90005B0390915C03A0915D03B0915E03892B8D
:100EA0008A2B8B2BA1F00E94E30100915B03109130
:100EB0005C0320915D0330915E036C197D098E09FE
:100EC0009F09061717072807390708F442C08091C1
:100ED000BC0083FDD8CF85EC8093BC000E94E30169
:100EE0006B017C0180915903823009F450C08091DC
:100EF00057038F3F09F46FC080915703803209F484
:100F00006CC080915703803309F469C084E026C027
:100F100080915B0390915C03A0915D03B0915E03AF
:100F2000892B8A2B8B2B09F484CF0E94E3018090BC
:100F30005B0390905C03A0905D03B0905E036C191E
:100F40007D098E099F0986169706A806B90608F03E
:100F500070CF80915A030E94E00685E010926003F2
:100F60001092820310925F03DF91CF911F910F9136
:100F7000FF90EF90DF90CF90BF90AF909F908F90B9
:100F800008959D9191938F5F69CF85EEA5CF809154
:100F90005B0390915C03A0915D03B0915E03892B8C
:100FA0008A2B8B2B09F49ECF0E94E30100915B03F7
:100FB00010915C0320915D0330915E036C197D09F3
:100FC0008E099F09061717072807390708F08ACFE7
:100FD000C0CF81E0C3CF80E0C1CF82E0BFCF83E04C
:100FE000BDCFCF92DF92EF92FF920F931F93CF93DB
:100FF000DF93D82FC62F613208F098C00E94E3011A
:101000006B017C018091590381116BC081E0809359
:101010005903809358039FEF909357031092560300
:101020009C0F909355038093340380913403DD0F1C
:10103000D82BD093340380913303813009F078C0EA
:10104000109233030E94E3016B017C018091340311
:101050008093BB0080915B0390915C03A0915D0342
:10106000B0915E03892B8A2B8B2BA1F00E94E301A8
:1010700000915B0310915C0320915D0330915E034E
:101080006C197D098E099F0906171707280739076C
:1010900008F448C08091BC0083FDD8CF85EC8093D4
:1010A000BC000E94E3016B017C01809159038130F7
:1010B00009F440C0809156038C1710F4C091560378
:1010C000E5E3F3E0A3E1B3E080E08C1355C08C2F9F
:1010D000DF91CF911F910F91FF90EF90DF90CF9014
:1010E000089580915B0390915C03A0915D03B091A2
:1010F0005E03892B8A2B8B2B09F484CF0E94E3019A
:1011000000915B0310915C0320915D0330915E03BD
:101110006C197D098E099F090617170728073907DB
:1011200008F070CF80915A030E94E006C0E0CFCF54
:1011300085EEB5CF80915B0390915C03A0915D0338
:10114000B0915E03892B8A2B8B2B09F4AECF0E94C2
:10115000E30100915B0310915C0320915D033091EA
:101160005E036C197D098E099F090617170728076A
:10117000390708F09ACFD6CF91919D938F5FA5CF75
:10118000089508950895E091AE028091AD02E817A8
:1011900030F4F0E0ED5EFC4F808190E008958FEF39
:1011A0009FEF08959091AE028091AD022FEF3FEF37
:1011B000981748F4E92FF0E0ED5EFC4F208130E015
:1011C0009F5F9093AE02C90108958091AD02909106
:1011D000AE02891B990B0895CF92DF92EF92FF9296
:1011E0000F931F93CF93DF937C01CB018A01209152
:1011F0005F03222389F0EB016B01C40ED51ECC15D1
:10120000DD0569F06991D701ED91FC910190F081C4
:10121000E02DC7010995F3CF642F0E949B06C801FA
:10122000DF91CF911F910F91FF90EF90DF90CF90C2
:101230000895CF93DF931F92CDB7DEB769832091D6
:101240005F032223F9F020918203203258F021E03D
:1012500030E0FC013383228390E080E00F90DF9147
:10126000CF91089580916003E82FF0E0EF59FC4F93
:10127000998190838F5F809360038093820381E0E4
:1012800090E0ECCF61E0CE0101960E949B06F7CF83
:1012900090E080E00895CF92DF92EF92FF92CF939B
:1012A000DF93EC01CB01BA010E94C5376B017C01D1
:1012B000E881F9810284F385E02DCE010995BC0116
:1012C00090E080E00E94C3379B01AC01C701B601EA
:1012D0000E947F392E813F81488559850E947F3940
:1012E0002A813B814C815D810E942438DF91CF911E
:1012F000FF90EF90DF90CF900895CF92DF92EF9222
:10130000FF92CF93DF93EC01CB01BA012A813B819D
:101310004C815D810E947F392E813F8148855985AE
:101320000E9424386B017C01E881F9810284F385F5
:10133000E02DCE010995BC0190E080E00E94C3370A
:10134000A70196010E9424380E942B3ADF91CF9189
:10135000FF90EF90DF90CF900895DC01DB968D91A8
:101360009C91DC01ED91FC910484F585E02D0994BC
:10137000DC01DB968D919C91DC01ED91FC91028466
:10138000F385E02D0994DC01DB968D919C91DC01C5
:10139000ED91FC910084F185E02D0994DC01DB9650
:1013A0008D919C91DC01ED91FC910680F781E02DFF
:1013B0000994DC01DB968D919C91DC01ED91FC910F
:1013C0000480F581E02D0994DC01DB968D919C91E0
:1013D000DC01ED91FC910280F381E02D0994CF9224
:1013E000DF92EF92FF92CF93DF93EC016A017B01D2
:1013F0000E947D099B01AC0160E472E48FE090E003
:101400000E942A3BFE01FF96318320838DAD9EAD65
:101410008217930728F43EAF2DAF349611821082C5
:10142000CE86DF86E88AF98ADF91CF91FF90EF9030
:10143000DF90CF9008950F931F93CF93DF93EC012C
:101440008C01015C1F4FF80180819181892B39F457
:101450004E855F8568897989CE010E94EF09F80180
:101460002081318150E040E060E472E48FE090E060
:101470000E944C3BBA01A901CE010E944B096E8724
:101480007F87888B998BDF91CF911F910F91089562
:10149000CF92DF92EF92FF92CF93DF93EC016A013C
:1014A0007B010E947D099B01AC0160E472E48FE046
:1014B00090E00E942A3B3EAF2DAFFE01FF96808157
:1014C00091812817390728F43183208334961182BB
:1014D0001082CA86DB86EC86FD86DF91CF91FF9075
:1014E000EF90DF90CF900895CF93DF93EC018DAD17
:1014F0009EAD892B39F44A855B856C857D85CE014F
:101500000E94480A2DAD3EAD50E040E060E472E438
:101510008FE090E00E944C3BBA01A901CE010E94ED
:101520004B096A877B878C879D87DF91CF910895D0
:101530006F927F928F929F92AF92BF92CF92DF92E3
:10154000EF92FF920F931F93CF93DF93EC016A0109
:101550007B018DAD9EAD892B39F44A855B856C8509
:101560007D85CE010E94480A3E018FE3680E711C02
:10157000F30180819181892B39F44E855F856889DB
:101580007989CE010E94EF09CE010E94740A4B01B5
:101590005C01CE010E941B0A0DAD1EADF3016080FF
:1015A0007180A50194010E94123920E034E244E7E1
:1015B00059E40E942438A70196010E947F394B010B
:1015C0005C01B801660D771D7695679590E080E027
:1015D0000E94C3379B01AC01C501B4010E947F3951
:1015E0000E94323A90E080E00E94C3374B015C01D8
:1015F000B8016619770990E080E00E94C337A50121
:1016000094010E947F394B015C0120E030E0A90188
:101610000E94883A20E030E040E05FE387FD22C08E
:10162000C501B4010E9413390E942B3A272FFE01F5
:10163000ED5BFF4F60167106D0F060837183CA8A3C
:10164000DB8AEC8AFD8ADF91CF911F910F91FF9089
:10165000EF90DF90CF90BF90AF909F908F907F9052
:101660006F900895C501B4010E941239DDCF862F15
:10167000922F009711F481E090E091838083DFCF77
:101680000F931F93CF93DF93EC01E881F9810280E0
:10169000F381E02D0995FE01E35BFF4F108211827B
:1016A000128213823497DE01AB5BBF4F8D919D9107
:1016B0000D90BC91A02D80839183A283B3830E945F
:1016C000E301FE01E95AFF4FCD5ADF4F088119812E
:1016D0002A813B81DC01CB01800F911FA21FB31F28
:1016E00080839183A283B383DF91CF911F910F9168
:1016F0000895CF93DF93EC01FC01E35BFF4F808102
:101700009181A281B381892B8A2B8B2B19F0CE0179
:101710000E94400B40E050E0BA01CE010E947D09DA
:10172000CB5BDF4F688379838A839B83DF91CF9183
:1017300008958F929F92AF92BF92CF92DF92EF92D5
:10174000FF920F931F93CF93DF93EC017A018B01EC
:1017500089A58823A9F0CA01DB018EAB9FABA8AF96
:10176000B9AF81E08AAFDF91CF911F910F91FF90C8
:10177000EF90DF90CF90BF90AF909F908F900895A3
:10178000AAA4BBA4CCA4DDA49A01AB01B501C601F7
:101790000E94883A181614F075018601AEA4BFA401
:1017A000C8A8D9A89701A801B501C6010E94BE37F3
:1017B00087FD02C075018601A701B801CE010E9414
:1017C0007D097E0129E4E20EF11CD7016D937D9322
:1017D0008D939C9313978E01035B1F4FF8018081BB
:1017E0009181A281B381892B8A2B8B2B19F0CE0199
:1017F0000E94400B6E01F5E4CF0ED11CD6014D9135
:101800005D916D917C91F70180819181A281B3817D
:10181000481759076A077B0709F4A5CF8DAD9EAD20
:10182000892B39F44A855B856C857D85CE010E94C4
:10183000480A5E01FFE3AF0EB11CD5018D919C916A
:10184000892B39F44E855F8568897989CE010E949C
:10185000EF09F501808191812DAD3EAD821793078F
:1018600048F4892B39F44A895B896C897D89CE01DA
:101870000E94980AE881F9810190F081E02DCE0163
:101880000995D7014D915D916D917C91F601808113
:101890009181A281B381E881F98184179507A60718
:1018A000B7070CF07CC081E088A70680F781E02DA7
:1018B0006FA1CE0109958BAD9CADDC01ED91FC9142
:1018C0000688F789E02D09957E01B7E5EB0EF11C3E
:1018D000F70180819181A281B381892B8A2B8B2B87
:1018E00051F10E94E301D7018D909D90AD90BC9085
:1018F000681579058A059B05F0F40E94E301F7015C
:1019000080809180A280B3803497C080D180E280B3
:10191000F380DC01CB0188199909AA09BB09C81613
:10192000D906EA06FB0610F4D701C601F801808348
:101930009183A283B383FE01EF5AFF4F208131814F
:10194000F80180819181A281B381820F931FA11D33
:10195000B11D80839183A283B3830E94E301AB0115
:10196000BC017E01F1E4EF0EF11CD7012D913C91F9
:10197000F80180819181A281B381820F931FA11D03
:10198000B11D840F951FA61FB71F80839183A2836B
:10199000B3838DAD9EADD7018D939C93E4CE18A6F5
:1019A0006FA181E068270680F781E02D82CF90E06B
:1019B00080E0089581E090E0089580E0089580E05F
:1019C0000895FC0180A191A10895653C29E072076A
:1019D00090F024EC39E0DC0191963C932E939097A3
:1019E000DC015E966D917C915F97ED91FC91028890
:1019F000F389E02D0994FC0171A360A3F1CFDC0110
:101A00009296EC91EB3090F4F0E0E75FF24F0C949B
:101A10006B3B140D140D180D180D1B0D1E0D210D13
:101A2000240D270D2A0D2D0D21E030E0C901089568
:101A300022E030E0FBCF24E030E0F8CF28E030E0D7
:101A4000F5CF20E130E0F2CF20E230E0EFCF20E42C
:101A500030E0ECCF20E830E0E9CF20E031E0E6CF25
:101A6000CF93DF93FC01918D95FF07C0892F881FCD
:101A70008827881FDF91CF910895248530E0F901F0
:101A8000E952FF4F8491F901ED53FF4FD491F901D1
:101A9000E155FF4FC491CC2379F081110E9446019A
:101AA000EC2FF0E0EE0FFF1FE057FF4FA591B49130
:101AB000EC91ED2381E009F480E08170DBCF7F922F
:101AC0008F929F92AF92BF92CF92DF92EF92FF924E
:101AD0000F931F93CF93DF93EC018C890E94CE016B
:101AE0009A8789870E94E3014B015C018B829C826B
:101AF000AD82BE8220E030E0A9016BA57CA58DA55A
:101B00009EA50E94883A69857A85181614F5E9A47D
:101B1000FAA490E080E00E94C337AB01BC01D7017A
:101B2000ED91FC910280F381E02D95018401C701C4
:101B300009956B017C0120E030E0A9010E94BE37CD
:101B400087FF03C0C12CD12C7601C701B6010E94CA
:101B5000323A78876F830E9408020F8118854E857C
:101B60005F852A893B894017510760F421153105AB
:101B7000A9F0CD8CDE8CEF8CF8A0C616D706E8064F
:101B8000F90660F41F870E876B017C01C20ED31E1D
:101B9000E11CF11CCD8EDE8EEF8EF8A248895989AA
:101BA0000417150760F42115310599F0C9A0DAA0D2
:101BB000EBA0FCA0C616D706E806F90650F4198B70
:101BC000088B620F731F811D911D69A37AA38BA3DC
:101BD0009CA3CE84DF84E888F988EC18FD087B8418
:101BE0007720D1F0B70190E080E00E94C3372F89C1
:101BF000388D498D5A8D0E9424384B015C01B60105
:101C000090E080E00E94C337A50194010E9413393F
:101C10000E94323A7C8F6B8F8C859D85E816F90681
:101C200010F4711009C02B8D3C8D8981882331F00F
:101C300081E00217130730F480E004C081E002174E
:101C40001307D0F748818883EFA1F8A59A8121E096
:101C500030E001C0220F9A95EAF720959081292360
:101C60002083EFA1F8A528819A8101C0220F9A95BF
:101C7000EAF79081292B20838427DF91CF911F9150
:101C80000F91FF90EF90DF90CF90BF90AF909F901B
:101C90008F907F900895CF92DF92EF92FF92809184
:101CA000B7039091B803A091B903B091BA038093A0
:101CB000090190930A01A0930B01B0930C0180914C
:101CC000B3039091B403A091B503B091B603809390
:101CD0000D0190930E01A0930F01B09310018CE0C1
:101CE00094E00E945F0D80910C04882341F180E014
:101CF00090E0A0EAB1EC8093B7039093B803A0936F
:101D0000B903B093BA036C017D0140910501509174
:101D10000601609107017091080189E893E00E9433
:101D2000EF09B701A60189E893E00E94990B81E0D1
:101D30008093B203FF90EF90DF90CF90089580E002
:101D400090E0A0EAB1E48093B3039093B403A0932E
:101D5000B503B093B603D7CFCF93DF93EC016B817C
:101D6000617089810E946F016B8162708A81DF914D
:101D7000CF910C946F01FC016089718982899389EC
:101D80000895FC0160897189828993890895FC0115
:101D90006485758586859785089560E070E080E8A4
:101DA0009FE3089560E070E080E89FE3089590E08D
:101DB00080E0089560E070E0CB010895AF92BF929B
:101DC000CF92DF92EF92FF920F931F93CF93DF9307
:101DD00000D000D0CDB7DEB7DC0197962D913C91B5
:101DE000232B61F17B016C015E01B5E0AB0EB11CF0
:101DF0008E010F5F1F4FE01AF10AD6019796ED9101
:101E0000FC91C701800F911F0995F80181938F0103
:101E1000EA15FB0591F769817A818B819C810F908E
:101E20000F900F900F90DF91CF911F910F91FF9026
:101E3000EF90DF90CF90BF90AF90089560E070E09A
:101E4000CB01EDCFAF92BF92CF92DF92EF92FF9294
:101E50000F931F93CF93DF9300D000D0CDB7DEB7A1
:101E6000DC019596ED91FC91EF2BE9F06C01298353
:101E70003A834B835C835E01B5E0AB0EB11C8E01EF
:101E80000F5F1F4F7B01E01AF10AC701800F911FFE
:101E9000F80161918F01D6019596ED91FC9109951C
:101EA0000A151B0591F70F900F900F900F90DF917F
:101EB000CF911F910F91FF90EF90DF90CF90BF9047
:101EC000AF9008952F923F924F925F926F927F92C0
:101ED0008F929F92AF92BF92CF92DF92EF92FF923A
:101EE0000F931F93CF93DF9300D000D01F92CDB7F5
:101EF000DEB79D838C834B01DC0157968D919C91BD
:101F0000892B09F46DC0AA24AA94BA2C10E000E031
:101F1000EC81FD81C788D08CD6011A96ED90FC909B
:101F20001B97ED91FC91848195819A838983AC8183
:101F3000BD815A963C90E016F106A8F1B80190E0F8
:101F400080E00E94C3372B013C01B70190E080E0A4
:101F50000E94C3379B01AC01C301B2010E947F39CB
:101F6000AB01BC01232DC601E981FA81099583ECFF
:101F700090E00197F1F7AC81BD81D1968C910E94E0
:101F8000CE018819990997FF03C091958195910910
:101F90008A159B0528F0C5010F5F1F4F5C01B8CF64
:101FA000202E1B83F9CF822D9B81B7010E94163B07
:101FB00090E080E00E94C3374B015C01232DBC01FF
:101FC000A401C601E981FA810995AC81BD81919690
:101FD0006D917C919297A5019401CD010E94220FF1
:101FE000AC81BD81ED91FC9111970684F785E02DC0
:101FF000CD010995EC81FD81608971898289938980
:102000000F900F900F900F900F90DF91CF911F9135
:102010000F91FF90EF90DF90CF90BF90AF909F9087
:102020008F907F906F905F904F903F902F9008958A
:10203000BF92CF92DF92EF92FF920F931F93CF93B5
:10204000DF93EC01B12C03EC10E06C89B616B8F408
:1020500089A90E94CE019B838A83BC0190E080E025
:102060000E94C3379B01AC01C701B6010E9413391E
:102070006B017C01C8010197F1F7B394E6CF70E0E2
:1020800090E080E00E94C3379B01AC01C701B6011C
:102090000E947F399B01AC01288B398B4A8B5B8B6B
:1020A0006D8D7E8DCE010E94220F688979898A8983
:1020B0009B89DF91CF911F910F91FF90EF90DF905F
:1020C000CF90BF9008957F928F929F92AF92BF92D0
:1020D000CF92DF92EF92FF920F931F93CF93DF93F4
:1020E000EC014A015B01712C03EC10E06C8976165F
:1020F000B8F489A90E94CE019B838A83BC0190E039
:1021000080E00E94C3379B01AC01C701B6010E9469
:1021100013396B017C01C8010197F1F77394E6CF85
:1021200070E090E080E00E94C3379B01AC01C701E2
:10213000B6010E947F39288939894A895B890E94C2
:1021400012399B01AC01C501B4010E947F39AB017A
:10215000BC01E881F9810284F385E02DCE01099567
:102160006C857D858E859F85DF91CF911F910F9125
:10217000FF90EF90DF90CF90BF90AF909F908F90A7
:102180007F900895DC011C964D935D936D937C9335
:102190001F975B96ED91FC919A01AB01BF010C94E6
:1021A000220FCF92DF92EF92FF920F931F93CF9364
:1021B000DF93EC016A017B0120E030E0A901CB0153
:1021C000B6010E94883A181644F50D891E8901153A
:1021D000110519F120E030E040E85FE3C701B601E6
:1021E0000E9412399B01AC0169A57AA58BA59CA51B
:1021F0000E947F39AB01BC014DA75EA76FA778ABEA
:10220000D801ED91FC910484F585E02D298DC8015C
:1022100009956DA77EA78FA798AB2DA53EA54FA5C5
:1022200058A969A57AA58BA59CA50E947F3920E0B5
:1022300030E040E85FE30E9413396B017C016F8D51
:1022400078A1AC019601CE010E94220FC701B60110
:10225000DF91CF911F910F91FF90EF90DF90CF9082
:102260000895CF92DF92EF92FF92CF93DF93EC012C
:102270008D899E89009761F0DC01ED91FC910088C9
:10228000F189E02D698D09956DA77EA78FA798AB81
:102290002DA53EA54FA558A969A57AA58BA59CA5F6
:1022A0000E947F3920E030E040E85FE30E9413396C
:1022B0006B017C016F8D78A1AC019601CE010E946B
:1022C000220FC701B601DF91CF91FF90EF90DF9011
:1022D000CF900895DC01ED91FC910280F381E02D17
:1022E000099520E030E040E251E40E9424380E9449
:1022F0002B3ACB010895CF93DF93EC0189A90E947B
:10230000CE019B838A830E94E301688779878A874D
:102310009B876A817B8190E080E00E94C337288997
:1023200039894A895B890E9412392C853D854E8501
:102330005F850E942438AB01BC014C835D836E83B2
:102340007F838BA19CA1009759F0DC01ED91FC915A
:102350000190F081E02D09956C837D838E839F83AE
:102360006C817D818E819F81DF91CF9108958F92C5
:102370009F92AF92BF92CF92DF92EF92FF921F9304
:10238000CF93DF93EC018D899E89009771F1DC0179
:10239000ED91FC910190F081E02D0995182F6F8D42
:1023A00078A1CE010E94DE0E6B017C0120E030E0BE
:1023B000A9010E94BE3788809980181664F4F40140
:1023C000A084B184A7019601C701B6010E94033B16
:1023D000882309F4A6C04AA95BA96CA97DA9D401E8
:1023E0001896ED91FC91CE0109958F89988D0097F3
:1023F00069F1DC01ED91FC910190F081E02D0995EE
:10240000182B69A17AA1CE010E94DE0E6B017C011E
:1024100020E030E0A9010E94BE37181644F4A7015D
:102420009601C701B6010E94033B882319F0C12C15
:10243000D12C76018F89988DDC01ED91FC9104807F
:10244000F581E02D2A8DB701A60109958FA198A5E8
:10245000892B91F06B8D7C8DCE010E94DE0E6C87F6
:102460007D878E879F876D8D7E8DCE010E94DE0ECB
:10247000688B798B8A8B9B8BCC84DD84EE84FF8484
:1024800020E030E0A901C701B6010E94BE378823D1
:1024900041F0A7019601C701B6010E94033B8823C2
:1024A00059F04EA95FA968AD79ADE881F981028440
:1024B000F385E02DCE010995C888D988EA88FB8884
:1024C00020E030E0A901C701B6010E94BE3787FDB8
:1024D00008C0A7019601C701B6010E94033B8823EB
:1024E00061F0188A198A1A8A1B8A6D8D7E8D20E008
:1024F00030E0A901CE010E94220FE881F98102801B
:10250000F381E02DCE010995812FDF91CF911F91AD
:10251000FF90EF90DF90CF90BF90AF909F908F9003
:102520000895B701A601CE01F5015ECF60E070E02D
:10253000CB01089560E070E0CB010895CF92DF9267
:10254000EF92FF920F931F93CF93DF93EC016A01F9
:102550007B010E94E3018B019C01E881F9810280EB
:10256000F381E02DB701A601CE010995DF91CF914E
:102570001F910F91FF90EF90DF90CF90089560E052
:1025800070E080E89FEB089560E070E080E89FEBEA
:102590000895CF92DF92EF92FF92CF93DF93EC01F9
:1025A000E881F9810084F185E02D09956B017C01BA
:1025B0002C853D854E855F85688979898A899B89C7
:1025C0000E941339A70196010E942438DF91CF9110
:1025D000FF90EF90DF90CF900895DC01ED91FC919A
:1025E0000088F189E02D60E009948F929F92AF926C
:1025F000BF92CF92DF92EF92FF921F93CF93DF9320
:10260000EC016A017B01122F8C849D84AE84BF840F
:10261000AB019601C501B4010E94BE3740E050E015
:10262000BA0187FF0EC0A5019401C701B6010E943F
:102630001239288939894A895B890E947F39AB011F
:10264000BC01E881F9810480F581E02D212FCE01C4
:102650000995288939894A895B890E9424382C8503
:102660003D854E855F850E941339DF91CF911F9183
:10267000FF90EF90DF90CF90BF90AF909F908F90A2
:102680000895DC01ED91FC910484F585E02D20E0B6
:102690000994DC01ED91FC910084F185E02D60E06E
:1026A0000994DC01ED91FC910480F581E02D20E09E
:1026B0000994CF93DF93EC018C899D89892B09F5CF
:1026C0001092AE021092AD0210926003109282033B
:1026D0000E94C20680EC98E09093D1028093D002D1
:1026E00081EC98E09093D5028093D402898D91E09B
:1026F00090935F038093810381E0DF91CF910C94ED
:1027000001070E94650661E08E890E949D0161E0DB
:102710008E890E946F0180E0DF91CF910895089526
:1027200061E0809185030C946F018EBD00000DB4B3
:1027300007FEFDCF8EB508958CBD9DBD0895CF9247
:10274000DF92EF92FF92CF93DF93EC01E881F98162
:102750000084F185E02D09956B017C012889398978
:102760004A895B896C857D858E859F850E9413399A
:10277000A70196010E942438DF91CF91FF90EF903E
:10278000DF90CF900895DC01ED91FC910088F189F4
:10279000E02D60E009948F929F92AF92BF92CF920A
:1027A000DF92EF92FF921F93CF93DF93EC016A01C8
:1027B0007B01122F8C849D84AE84BF84AB01960173
:1027C000C501B4010E94BE3740E050E0BA0187FF66
:1027D0000EC0A5019401C701B6010E9412392889D3
:1027E00039894A895B890E947F39AB01BC01E88144
:1027F000F9810480F581E02D212FCE0109952889EA
:1028000039894A895B890E9424382C853D854E850B
:102810005F850E941339DF91CF911F91FF90EF9058
:10282000DF90CF90BF90AF909F908F900895DC0184
:10283000ED91FC910484F585E02D20E00994DC0104
:10284000ED91FC910680F781E02D0994DC01ED917A
:10285000FC910280F381E02D0994CF92DF92EF92F8
:10286000FF921F93CF93DF93EC016A017B016C8988
:102870007D8990E080E00E94C337A70196010E9405
:1028800024380E94323A162F8CE08093B8008E894B
:102890009F89288D31E030935F032093810310924C
:1028A000600310928203DC01ED91FC910190F081B4
:1028B000E02D60E009958E899F89DC01ED91FC9106
:1028C0000190F081E02D612F099581E00E940107C0
:1028D000E881F9810680F781E02DCE01DF91CF916B
:1028E0001F91FF90EF90DF90CF900994CF93DF93EB
:1028F000EC011092AE021092AD02109260031092A1
:1029000082030E94C20680EC98E09093D1028093EB
:10291000D00281EC98E09093D5028093D402888D08
:1029200091E090935F038093810381E0DF91CF91E9
:102930000C940107CF92DF92EF92FF920F931F93B7
:10294000CF93DF93EC016A017B010CA51DA5011556
:102950001105D9F0AB01960160E070E080E89FE3DB
:102960000E941239AB01BC01D801ED91FC910480A9
:10297000F581E02D28A9C801DF91CF911F910F911A
:10298000FF90EF90DF90CF9009940EA4DFA5C02DAB
:102990002097C1F0688170E090E080E00E94C3372A
:1029A000A70196010E9424380E94323A6B83CE011F
:1029B000DF91CF911F910F91FF90EF90DF90CF901B
:1029C0000C94AC0EDF91CF911F910F91FF90EF907F
:1029D000DF90CF900895FC0183A50C94C6026A3065
:1029E00018F4DC0112966C93DC01ED91FC910280ED
:1029F000F381E02D0994DC011296EC91B4E0EB9F99
:102A0000F0011124E80FF91F25813681638174815B
:102A1000FC0183A550E040E02F3F320719F420E08D
:102A200030E0A9010C94F202CF93DF93EC0161E056
:102A30008BA50E949D0160E08BA50E946F018CA573
:102A40009DA5009739F0DC01ED91FC910190F0819A
:102A5000E02D09950EA4DFA5C02D2097A9F061E017
:102A600089810E949D0160E089810E946F0161E07F
:102A70008A810E949D0160E08A810E946F01CE01DF
:102A8000DF91CF910C94AC0EDF91CF910895CF934D
:102A9000DF9300D000D0CDB7DEB749835A836B8374
:102AA0007C83DC018D919C91DC01ED91FC91028095
:102AB000F381E02D44E050E0BE016F5F7F4F099548
:102AC0000F900F900F900F90DF91CF910895CF93BB
:102AD000DF9300D000D0CDB7DEB749835A836B8334
:102AE0007C83DC018D919C91DC01ED91FC91028055
:102AF000F381E02D44E050E0BE016F5F7F4F099508
:102B00000F900F900F900F90DF91CF910895CF937A
:102B1000DF9300D0CDB7DEB769837A83DC018D9176
:102B20009C91DC01ED91FC910280F381E02D42E06B
:102B300050E0BE016F5F7F4F09950F900F90DF91BE
:102B4000CF910895CF93DF93EC0160E072E08BEAC0
:102B500095E00E9487154B815C816D817E818BEAB7
:102B600095E00E9467158091AB059091AC05AFA1EF
:102B7000B8A5EC01E881F9810190F081E02D6C911C
:102B8000DF91CF910994CF93C62FBC018BEA95E0DA
:102B90000E9487158091AB059091AC0561E06C0FA8
:102BA000DC01ED91FC910190F081E02DCF91099431
:102BB000EF92FF921F93CF93DF93EC017B01142FD1
:102BC0006BE07AEA0E948715D70118964D915D91C6
:102BD0006D917C911B97CE010E9467158881998128
:102BE00061E0610FDC01ED91FC910190F081E02D3D
:102BF0000995F7014481558166817781CE01DF9186
:102C0000CF911F91FF90EF900C944715DC01ED914F
:102C1000FC910190F081E02D0994DC01ED91FC9193
:102C20000280F381E02D0994DC01ED91FC9101908B
:102C3000F081E02D0994CF93DF93E091BF05F091EF
:102C4000C005309709F480C0EC018091E2059091B5
:102C5000E305A091E405B091E505AC01BD014F5F2E
:102C60005F4F6F4F7F4F4093E2055093E3056093B2
:102C7000E4057093E50509958E3108F046C0809310
:102C8000D705BE018BEA95E00E94871580919D05CE
:102C900090919E05DC01ED91FC910190F081E02D79
:102CA0006091D70509958091D705882309F44CC018
:102CB000E091BF05F091C0058091E2059091E30598
:102CC000A091E405B091E505AC01BD014F5F5F4FF8
:102CD0006F4F7F4F4093E2055093E3056093E40507
:102CE0007093E5050995682F70E07093C4056093B3
:102CF000C30580919D0590919E050E9414168091B8
:102D0000D70581508093D705CECF1092D705E0919B
:102D1000BD05F091BE05309709F4B3CF8091E2056F
:102D20009091E305A091E405B091E5050197A10913
:102D3000B1098093E2059093E305A093E405B09375
:102D4000E50560E009959DCFDF91CF91089589E871
:102D500093E00E94400B89E893E00E94790B8091F8
:102D6000090190910A01A0910B01B0910C0180938F
:102D7000B7039093B803A093B903B093BA038091BB
:102D80000D0190910E01A0910F01B091100180935F
:102D9000B3039093B403A093B503B093B60310921A
:102DA000B20340E050E060EA71E489E893E00E94F9
:102DB000EF094091090150910A0160910B01709156
:102DC0000C0189E893E00E94990B80919F0588236C
:102DD00071F06CE370E08BEA95E00E9487150E9429
:102DE000E301AB01BC018BEA95E00C9467150895F3
:102DF000ECEDF0E0E491E33039F140F4E130C1F082
:102E0000E230E1F060E085E00C946F01E73041F1E1
:102E1000E83079F1E430B1F78091800080628093EE
:102E2000800085E090E090938B0080938A00089565
:102E300084B5806884BD85E087BD089584B58062CF
:102E400084BD85E088BD089580918000806880936E
:102E5000800085E090E09093890080938800089539
:102E60008091B00080688093B00085E08093B300CB
:102E700008958091B00080628093B00085E08093D7
:102E8000B400089560E0809185030E946F0180E5A1
:102E900090E00C949C1360E0FC0183850E946F011C
:102EA00084E591E00C949C130F931F93CF93DF93D1
:102EB0008C01C62F0E944B178C2F880F80640E94B4
:102EC0009513C82F80E00E949513D82F61E0F80178
:102ED00083850E946F01F8018481CF73C82BC4835E
:102EE0008D2FDF91CF911F910F910895CF93DF9395
:102EF000EC0168E00E9454178C8F69E0CE010E94BB
:102F000054178D8F8F7090E0982F88272C8D820F0B
:102F1000911D9CA38BA3DF91CF910895CF93DF9355
:102F2000EC016BE00E9454178F701F8288876AE063
:102F3000CE010E9454172F813885820F932F911D47
:102F400098878F83DF91CF910895CF92DF92EF9290
:102F5000FF92CF93DF93EC012E89A8A1B9A130E0B5
:102F60000E9403396B017C0163E0CE010E9454177B
:102F70008F8B90E024E0959587952A95E1F7C0E145
:102F8000D0E0C81BD90BC701B6012FEF30E040E0FD
:102F900050E00E942A3BC29FC001C39F900DD29F68
:102FA000900D112434E0969587953A95E1F7DF91DD
:102FB000CF91FF90EF90DF90CF9008950F931F93E4
:102FC000CF93DF938C01C62FD42F0E944B178C2FE9
:102FD000880F0E949513C82F8D2F0E949513D82F0C
:102FE00061E0F80183850E946F01F8018481CF734D
:102FF000C82BC4838D2FDF91CF911F910F9108951E
:10300000615070E0FC01E60FF71F3789222349F079
:10301000432B478B695E7E4F4789FB0160810C948F
:10302000DE1740954323F5CFFC01218D25FF05C018
:10303000262F40E863E00C94001884850C946F01FF
:10304000CF93DF93EC014A8D406866E00E94DE1763
:103050001D821EA21DA28B8D84FF08C021E040E1CD
:1030600065E0CE01DF91CF910C940018DF91CF91F4
:103070000895CF92DF92EF92FF92CF93DF93EC010E
:10308000A8A1B9A1A617B707E0F5BF8FAE8F2E890B
:1030900030E00E940339CE8CDF8C24E0CC0CDD1CA8
:1030A0002A95E1F7F12CE12C2FEF30E040E050E0E1
:1030B0000E942A3BC701B6010E942A3B2115310517
:1030C0004105510509F1BA01A901413151056105D7
:1030D000710520F040E150E060E070E08F898F7072
:1030E000242F2295207F2195482F422B4F8B63E080
:1030F000CE01DF91CF91FF90EF90DF90CF900C94B5
:10310000DE177F8F6E8FC3CF41E050E060E070E04C
:10311000E5CFFC01238922FF04C060E086850C9482
:103120006F01408D4F77408F64E00C94DE17CF9392
:10313000DF93EC01488D47FD05C04068488F64E08F
:103140000E94DE178B8982FF06C061E08E85DF91C9
:10315000CF910C946F01DF91CF910895CF92DF92C0
:10316000EF92FF920F931F93CF93DF93EC0161E0F7
:103170008B850E949D0161E08B850E946F018A8989
:1031800083FD04C097E09F8788608A8B8A8983FFCC
:1031900012C061E08F850E949D0161E08F850E94D1
:1031A0006F018A8988608A8B8B8988608B8B8BEB17
:1031B00092E10197F1F70E9465061F8A8FE0888FE0
:1031C00080E3898F8A8F88E08B8F83E08C8F80E209
:1031D0008D8F8E01095E1F4F87E1E82E81E0F82E6A
:1031E0006E018EE1C80ED11CF80141918F01F701EB
:1031F00061917F01CE010E94DE17C016D106A1F7B2
:103200008A8982FD04C098E09E8784608A8B8A89BF
:1032100082FF15C061E08E850E949D0160E08E8571
:103220000E946F018A8984608A8B8B8984608B8B72
:10323000488D4068488F64E0CE010E94DE178A897D
:1032400081FD04C099E09C8782608A8B8A8981FF16
:1032500014C061E08C850E949D0160E08C850E9415
:103260006F018A8982608A8B8B8982608B8B20E0D8
:1032700040E263E0CE010E9400188A8980FD04C00C
:103280009AE09D8781608A8B8A8980FF14C061E003
:103290008D850E949D0160E08D850E946F018A8965
:1032A00081608A8B8B8981608B8B20E040E163E0B9
:1032B000CE010E9400188A8984FD04C092E0988B98
:1032C00080618A8B8A8984FF0AC060E088890E94B5
:1032D0009D018A8980618A8B8B8980618B8BCE016D
:1032E0000E94761780E0DF91CF911F910F91FF90A0
:1032F000EF90DF90CF900895CF93DF93EC01498D4D
:1033000044FF21C0406465E00E94DE178E8188235F
:10331000B9F08BA19CA18F3F9105F1F0E8F06BE033
:10332000CE010E9454178F701F8288878DA19EA1A5
:1033300029853A858217930798F401969EA38DA359
:10334000DF91CF91089561E08D850E946F0160E06B
:103350008D850E946F01DACFCE010E948E17E6CFD5
:103360002F8138858BA19CA12817390748F781E068
:103370008D83E6CFFF920F931F93CF93DF93EC01E2
:10338000042FF22E632B162F142B8C899D89892BE9
:1033900009F072C08CE08093B8008F89988D298DD8
:1033A00031E030935F032093810310926003109209
:1033B0008203DC01ED91FC910190F081E02D612F01
:1033C00009950C3009F048C081E00E94010788236C
:1033D00041F08FEF9FEFDF91CF911F910F91FF9001
:1033E000089562E0898D0E94F1071092AE028093E9
:1033F000AD028230A8F48F89988DDC01ED91FC91AB
:103400000084F185E02D0995892B19F38F89988D1A
:10341000DC01ED91FC910284F385E02D0995EBCF61
:103420008F89988DDC01ED91FC910284F385E02D6C
:103430000995082F8F89988DDC01ED91FC9102840C
:10344000F385E02D0995182F802F90E0982F88277D
:10345000810F911D9170BFCF8F89988DDC01ED9107
:10346000FC910190F081E02D6F2D099581E00E9483
:103470000107182F00E0E8CF81E590E00E949C133F
:1034800060E08E890E946F01812F0E949513082FA2
:103490008F2D0E949513182F61E08E890E946F0175
:1034A000D3CF4F925F926F927F928F929F92AF9203
:1034B000BF92CF92DF92EF92FF92CF93DF93EC0116
:1034C0002FEF31E04CE0611147C0CE010E94BA19E4
:1034D000BC0190E080E00E94C3376B017C016A85EB
:1034E0007B8590E080E00E94C3379B01AC01C7015F
:1034F000B6010E947F399B01AC01C888D988EA884F
:10350000FB88C701B6010E9424389B01AC018C8462
:103510009D84AE84BF84C501B4010E9413392B0180
:103520003C01A5019401C701B6010E9413399B011A
:10353000AC01C301B2010E947F39DF91CF91FF90AE
:10354000EF90DF90CF90BF90AF909F908F907F9043
:103550006F905F904F90089560E1B7CFCF92DF9268
:10356000EF92FF921F93CF93DF93EC016A017B01EF
:10357000122F6A857B8590E080E00E94C337A70107
:1035800096010E9424380E94323A9B0140E060E09C
:10359000111160E1CE010E94BA19E881F98100841D
:1035A000F185E02D612FCE01DF91CF911F91FF902A
:1035B000EF90DF90CF9009944F925F926F927F923D
:1035C0008F929F92AF92BF92CF92DF92EF92FF9233
:1035D000CF93DF93EC018CE08093B80061E0888D9D
:1035E0000E94F1071092AE028093AD02882309F485
:1035F0004EC08E899F89DC01ED91FC910284F38598
:10360000E02D0995682F70E090E080E00E94C337BC
:103610006B017C016C897D8990E080E00E94C3375A
:103620009B01AC01C701B6010E947F399B01AC012F
:10363000C888D988EA88FB88C701B6010E94243867
:103640009B01AC018C849D84AE84BF84C501B40110
:103650000E9413392B013C01A5019401C701B60159
:103660000E9413399B01AC01C301B2010E947F3952
:10367000DF91CF91FF90EF90DF90CF90BF90AF9010
:103680009F908F907F906F905F904F9008958FEFF5
:10369000B9CF0E94963C85ED8093BC0080915B037E
:1036A00090915C03A0915D03B0915E030796A11D0C
:1036B000B11D23E0B695A795979587952A95D1F7E3
:1036C0002091BC0024FD03C010925903089540913D
:1036D0005B0350915C0360915D0370915E03452B29
:1036E000462B472B69F30097A105B10541F02AE26B
:1036F0002A95F1F700C00197A109B109E1CF8091A6
:103700005A030C94E0063F924F925F926F927F9221
:103710008F929F92AF92BF92CF92DF92EF92FF92E1
:103720000F931F93CF93DF93CDB7DEB72A970FB6D2
:10373000F894DEBF0FBECDBF9A8789876A017B01EF
:10374000DC011F968D909D90AD90BC905297FC012E
:103750000787108B218B328B13968D919D910D9045
:10376000BC91A02D89839A83AB83BC83838B948B7C
:10377000A58BB68B87819085A185B2858D839E832D
:10378000AF83B887878B908FA18FB28FC382D4828B
:10379000E582F682328031101EC0C782D086E18673
:1037A000F286C701B6012A960FB6F894DEBF0FBEA7
:1037B000CDBFDF91CF911F910F91FF90EF90DF90E0
:1037C000CF90BF90AF909F908F907F906F905F90C1
:1037D0004F903F900895C901B801681979098A0985
:1037E0009B090E94C3374B015C01A985BA851B96D2
:1037F0004D905D906D907C901E97AC019B01C30134
:10380000B2010E947F3920E030E040EE50E40E9497
:10381000883A1816C4F5A5019401C301B2010E94AB
:1038200013399B01AC01C301B2010E947F394B01E6
:103830005C01AC019B016D817E818F8198850E9426
:1038400024382B013C01B1E03B1227C0A5019401B3
:1038500060E070E080E89FE30E941239A7019601C2
:103860000E942438A30192010E941339E985FA8548
:103870006783708781879287E985FA85C780D084BE
:10388000E184F2848ECFC501B4019058A301920166
:103890000E947F390E94F939CACF29813A814B8130
:1038A0005C81C701B6010E941239A50194010E94F2
:1038B0002438A30192010E941339A985BA8517966D
:1038C0006D937D938D939C931A97D6CF0C94E23889
:1038D0000C94EA381F920F920FB60F9211242F9377
:1038E0003F938F939F93AF93BF9380910B039091DE
:1038F0000C03A0910D03B0910E0330910A0323E055
:10390000230F2D3758F50196A11DB11D20930A03F1
:1039100080930B0390930C03A0930D03B0930E03BD
:1039200080910F0390911003A0911103B0911203A5
:103930000196A11DB11D80930F0390931003A093D6
:103940001103B0931203BF91AF919F918F913F915B
:103950002F910F900FBE0F901F90189526E8230F00
:103960000296A11DB11DD2CF1F920F920FB60F92DA
:1039700011242F933F934F935F936F937F938F9374
:103980009F93AF93BF93EF93FF93E0910301F09167
:1039900004010995FF91EF91BF91AF919F918F9194
:1039A0007F916F915F914F913F912F910F900FBE3B
:1039B0000F901F9018951F920F920FB60F9211241F
:1039C0002F933F934F935F936F937F938F939F9327
:1039D000AF93BF93EF93FF93E0910101F091020148
:1039E0000995FF91EF91BF91AF919F918F917F9139
:1039F0006F915F914F913F912F910F900FBE0F905C
:103A00001F9018951F920F920FB60F9211242F93AB
:103A10003F934F935F936F937F938F939F93AF9356
:103A2000BF93EF93FF938091050390910603A091BC
:103A30000703B0910803892B8A2B8B2BD1F190912E
:103A40000403E0910203F0910303808189278083BE
:103A50008091050390910603A0910703B09108039C
:103A6000181619061A061B069CF4809105039091FE
:103A70000603A0910703B09108030197A109B109BA
:103A80008093050390930603A0930703B093080364
:103A9000FF91EF91BF91AF919F918F917F916F9126
:103AA0005F914F913F912F910F900FBE0F901F90FC
:103AB0001895809100010E94C602EACF1F920F92D2
:103AC0000FB60F9211242F933F934F935F936F93F1
:103AD0007F938F939F93AF93BF93EF93FF9380E078
:103AE00095E00E94D605FF91EF91BF91AF919F9114
:103AF0008F917F916F915F914F913F912F910F9097
:103B00000FBE0F901F9018951F920F920FB60F9235
:103B100011242F938F939F93EF93FF93E0911005C0
:103B2000F09111058081E0911605F091170582FD55
:103B30001BC09081809119058F5F8F7320911A05AA
:103B4000821741F0E0911905F0E0E050FB4F958FAE
:103B500080931905FF91EF919F918F912F910F9075
:103B60000FBE0F901F9018958081F4CF1F920F9277
:103B70000FB60F9211242F933F934F935F936F9340
:103B80007F938F939F93AF93BF93EF93FF93809116
:103B9000B900887F803609F44AC0F0F5883209F40C
:103BA000A7C018F5803109F49BC0B8F4882309F444
:103BB000F9C0883009F494C0FF91EF91BF91AF91A3
:103BC0009F918F917F916F915F914F913F912F9135
:103BD0000F900FBE0F901F901895883109F488C080
:103BE000803251F78093570314C0803409F49DC08C
:103BF00040F48033B9F38833F9F68093570385ECAA
:103C0000B0C0803509F485C0883509F496C0883481
:103C100099F60E944B1BD0CF883909F48CC038F537
:103C2000883729F050F4883611F0803729F683E080
:103C3000809359031092F60257C0883809F47BC06C
:103C4000803919F0803809F0B7CF8091F6028032C0
:103C500008F071C0E091F60281E08E0F8093F602C9
:103C60008091BB00F0E0EA52FD4F80833DC0803B75
:103C700039F0E0F4803A09F479C0883A09F09CCF31
:103C800084E0809359031092D3021092D202E09103
:103C9000D002F091D10209958091D20281110FC01A
:103CA00081E08093D2021092B00209C0803C09F4F6
:103CB000A6CF883C09F4A3CF883B09F07DCFE091E3
:103CC000D30281E08E0F8093D302F0E0E055FD4FE8
:103CD00080818093BB009091D3028091D20229C051
:103CE000809134038093BB0085EC8093BC0064CF4B
:103CF0009091560380915503981758F5E09156031B
:103D000081E08E0F80935603F0E0EB5CFC4F8081E6
:103D1000E9CFE091560381E08E0F809356038091A6
:103D2000BB00F0E0EB5CFC4F8083909156038091E8
:103D300055039817C8F285E8D8CFE091560381E083
:103D40008E0F809356038091BB00F0E0EB5CFC4F3C
:103D500080838091580381115CCF81E0809333038D
:103D600084EA8093BC001092590326CF85EC80939F
:103D7000BC00109259038091F602803230F4E09139
:103D8000F602F0E0EA52FD4F10826091F60270E018
:103D9000E091D402F091D50286ED92E0099510925F
:103DA000F6020ACF1092570334CF4F925F926F9270
:103DB0007F928F929F92AF92BF92CF92DF92EF92BB
:103DC000FF920F931F93CF93DF93CDB7DEB7A597E5
:103DD0000FB6F894DEBF0FBECDBFA0E0B5E01396DE
:103DE0001C921E92129748EE53E060E070E0149629
:103DF0004D935D936D937C93179784E291E01196B8
:103E00009C938E9385EC90E01D969C938E931C97CB
:103E100084EC90E01F969C938E931E9780EC90E02C
:103E200051969C938E93509781EC90E053969C937F
:103E30008E93529782EC90E055969C938E93549774
:103E400086EC90E057969C938E93569759961C92C9
:103E500059975A961C925A975B961C925B975C9660
:103E60001C925C978AED94E0FC01138212824483D9
:103E700055836683778326E331E031832083EDE940
:103E8000F5E0B183A08312822AEF30E034832383EC
:103E900040E157E260E070E04583568367837087B6
:103EA0001586118A108A138A128A158A148A178A2B
:103EB000168A118E108E138E128E158E148E178EFA
:103EC000168E11A210A213A212A215A214A2109271
:103ED000EA051092ED051092F1051092F00510928E
:103EE000F3051092F20506EE14E0412C512C26E960
:103EF000622E22E4722EF801448655866686778605
:103F000040E050E46CE176E4408B518B628B738B24
:103F1000158A148A28E2218F908F878B20E830E061
:103F20003387228724EB31E031832083E1ECF4E016
:103F30002EE931E031832083C12CD12C30E7E32EF0
:103F400032E4F32EC486D586E686F786408B518B05
:103F5000628B738B2FE330E0358B248B2CE2208F28
:103F6000978B868BE7E8F4E0C12CD12CA0E8EA2EF1
:103F7000AFE3FA2EC486D586E686F786108A118AC4
:103F8000128A138A84E6848B168A158A108E178A01
:103F9000118E128E80E490E0948F838F84E490E001
:103FA000968F858F88E490E090A3878F8CE490E0D3
:103FB00092A381A314A213A216A215A210A617A25F
:103FC00088E891E09183808380E090E4ACE9B6E4F6
:103FD00081A792A7A3A7B4A780E090E0A8ECB2E4E1
:103FE00085A796A7A7A7B0AB84E181AB42AB53AB43
:103FF00064AB75ABC6AAD7AAE0AEF1AEBCE6EB2EB9
:10400000B4E0FB2EDD24D394F701D28280E8A82E01
:1040100081E0B82EB182A08284E991EFA6ECB4E4ED
:1040200083879487A587B6871382148215821682A8
:104030001782108611861286178A108E118E128EA4
:104040000E94E301F7016787708B818B928B90E868
:10405000892E91E0992E91828082EBE3F4E084E74F
:1040600091E09183808312828FE083A717A616A622
:10407000D0AA15A704A70CE014E0F801D18212829F
:10408000D38684E690E0958784878FEF9FEF9787AC
:104090008687118A108A80E395E7938B828B83E071
:1040A000848BCC24CA94C58AC68A80E090E0A0E0C4
:1040B000BFE3878B908FA18FB28F88EE93E096A39A
:1040C00085A310A617A213A614A615A616A68BE103
:1040D00090E00E94713B7C01FC01D282B182A082FF
:1040E0008CEB9CE6ABE1B8E483879487A587B68721
:1040F0001382148215821682178210861186128608
:10410000178A108E118E128E0E94E301F7016787C5
:10411000708B818B928B91828082F801F2A6E1A64E
:1041200085EE93E0FC01128228E531E031832083A3
:1041300022E02383168228EC30E0328721872EE0AC
:10414000238727E02787C68A24EF31E0378F268F21
:1041500024EC39E031A320A312A244EE53E0558BA6
:10416000448B22892860228B25E2E6ECF1E0DE0117
:10417000119601900D922A95E1F7E9E8F3E028E421
:1041800031E03183208311A642A653A664A675A60A
:1041900016A617A610AA11AA12AA13AA14AA15AA3B
:1041A00012AE1092D6031092D7031092D803109239
:1041B000D90328E833E13093DB032093DA0300E9E5
:1041C00010ED23E030E00093DC031093DD03209337
:1041D000DE033093DF0394AF83AF85E2FE013196B7
:1041E000ABE8B3E001900D928A95E1F7E3E8F3E0E4
:1041F00084E0828351834083A5960FB6F894DEBF96
:104200000FBECDBFDF91CF911F910F91FF90EF9027
:10421000DF90CF90BF90AF909F908F907F906F90E6
:104220005F904F900895CF93DF93CDB7DEB7EA97B5
:104230000FB6F894DEBF0FBECDBF789484B5826010
:1042400084BD84B5816084BD85B5826085BD85B53A
:10425000816085BD80916E00816080936E001092B8
:104260008100809181008260809381008091810033
:1042700081608093810080918000816080938000C4
:104280008091B10084608093B1008091B000816022
:104290008093B00080917A00846080937A0080914E
:1042A0007A00826080937A0080917A0081608093A6
:1042B0007A0080917A00806880937A001092C10021
:1042C00088E192E09093AE058093AD0584E592E09D
:1042D0009093B0058093AF058DE792E09093B2057F
:1042E0008093B10586EA92E09093BC058093BB056C
:1042F00088E69CE19093BE058093BD0586E69CE12F
:104300009093C0058093BF058BE49EE09093F105E8
:104310008093F00585EE93E09093F5058093F40586
:1043200089E893E09093EF058093EE0587E894E0A9
:104330009093EC058093EB058BE394E09093E70575
:104340008093E6058CE094E09093E9058093E8057E
:1043500040E052EC61E070E080919D0590919E05F7
:104360000E94A20080919D0590919E059093AC05BE
:104370008093AB0563E270E08BEA95E00E948715BD
:1043800061E085E00E949D0161E085E00E949D0161
:104390000E94F81610921F0410921E0484E690E00A
:1043A0009093280480932704109217049093190483
:1043B000809318048091330490913404892B51F434
:1043C00081E090E00E94713B909334048093330429
:1043D000DC011C9260E0809120040E949D010E94FB
:1043E00008022091310430913204DC01CB01820FAC
:1043F000931FA11DB11D8093290490932A04A093BB
:104400002B04B0932C0480932D0490932E04A0933E
:104410002F04B093300488E69CE19093AD04809320
:10442000AC0486E69CE19093AF048093AE0480E0F8
:1044300090E4ACE1B6E48093F6049093F704A09383
:10444000F804B093F90486EE94E090939F0480936F
:104450009E041092A10480E090E0AAE7B4E4809367
:10446000D1049093D204A093D304B093D40481ECEC
:1044700094E090939D0480939C048CE694E0909348
:10448000AB048093AA0480E094E2A4E7B9E48093AB
:10449000B0049093B104A093B204B093B30487E83E
:1044A00094E00E94B71140E050E46CE176E487E8C4
:1044B00094E00E94D1100E94E3014B015C014AE0AC
:1044C000C42ED12CE12CF12C0E94E301681979094A
:1044D0008A099B09683E734081059105A8F3B1E004
:1044E000CB1AD108E108F108E8EE8E0EE3E09E1E3B
:1044F000A11CB11CC114D104E104F10429F764E644
:1045000070E087E894E00E94620F8BE394E00E94E1
:10451000141540E050E060E87FE38BE394E00E94F4
:104520009A14EBE3F4E088EE93E022E330E0948326
:104530008383368325838C599F4F3496803D47E093
:104540009407A9F789E080933D048091C40390917A
:10455000C503DC01ED91FC910190F081E02D0995FE
:10456000C0909303D0909403E0909503F09096034D
:1045700020E030E0A901C701B6010E94BE378823C0
:1045800031F0B701A60189E893E00E94480AC09083
:104590009703D0909803E0909903F0909A0320E05D
:1045A00030E0A901C701B6010E94BE37882331F06F
:1045B000B701A60189E893E00E94EF09C0909B0330
:1045C000D0909C03E0909D03F0909E0320E030E0AB
:1045D000A901C701B6010E94BE37882331F0B70197
:1045E000A60189E893E00E94980A8091C403909103
:1045F000C503DC01ED91FC910684F785E02D6CECA0
:104600007EE009956091A5037091A603611571057F
:1046100059F08091C4039091C503DC01ED91FC91A8
:104620000288F389E02D09956BEC7EE085EE93E03E
:104630000E94E50C6CE271E085EE93E00E9439186F
:1046400085EE93E00E9420181092B00380910D0136
:1046500090910E01A0910F01B09110018093B303CE
:104660009093B403A093B503B093B603809109016E
:1046700090910A01A0910B01B0910C018093B703B6
:104680009093B803A093B903B093BA0389E893E079
:104690000E94790BC0900501D0900601E0900701BF
:1046A000F090080120E030E040EA50E4C701B60194
:1046B0000E94883A181634F0C12CD12C30EAE32E2F
:1046C00030E4F32EC0920501D0920601E09207017A
:1046D000F092080161E0809185030E949D0161E0F4
:1046E000809185030E946F010E94650684E080939B
:1046F000860383E0809387030E94421788E80E9424
:10470000951383E00E9495130E94901380E8809394
:1047100088030E94421780E90E94951380E80E9456
:1047200095130E9490130E94421780E20E949513F5
:104730000E949013FE013A96FCABEBAB44244394E9
:10474000512C80919D0590919E05DC01ED91FC918D
:104750000084F185E02D0995892BD1F180919D058B
:1047600090919E05DC01ED91FC910284F385E02D92
:104770000995682FC82ED92ED092C405C092C305C2
:10478000E091C805F091C905309711F00C944731BC
:104790008091C7058111B1C0D092C605C092C505F0
:1047A00081E08093C7058091C8059091C905892B48
:1047B00011F00C94B5368091C70581110C94B53673
:1047C0001092D9051092DA051092DB051092DC05E3
:1047D0008091D9059091DA05A091DB05B091DC05B7
:1047E000892B8A2B8B2B89F00E9408020091D90516
:1047F0001091DA052091DB053091DC0506171707CB
:104800002807390710F40E94020187E894E00E940B
:104810007B1180919F0580FF34C00E94E3010091CD
:10482000A6051091A7052091A8053091A9050617A6
:1048300017072807390710F00C94C93640E067E8DD
:1048400074E08BEA95E00E94D8158091A6059091BE
:10485000A705A091A805B091A9054091A205509186
:10486000A3056091A4057091A505840F951FA61F4F
:10487000B71F8093A6059093A705A093A805B093B2
:10488000A905009109038091D6039091D703A091C7
:10489000D803B091D903892B8A2B8B2BD9F0409167
:1048A000CE035091CF036091D0037091D1038091DA
:1048B000D2039091D303A091D403B091D5034817AC
:1048C00059076A077B0711F00C94D13689E893E009
:1048D0000E94400B109209030E94421780E60E943A
:1048E000951310E080918603181710F00C94683728
:1048F00080E00E9495131F5FF5CFDC2CCC248091C3
:10490000C5059091C605C80ED91ED092C605C092A5
:10491000C5051092C705B7E6CB16D10409F43BC70D
:1049200008F029C3F4E4CF16D10411F40C94CD2F70
:1049300008F03EC131E1C316D10409F4A0C608F065
:1049400090C056E0C516D10409F4DEC608F040C098
:1049500092E0C916D10409F4EFC5A8F4C114D1043A
:1049600009F4E0C5B1E0CB16D10409F4DEC561E27B
:1049700070E08BEA95E00E948715B6018BEA95E01E
:104980000E94871510CFE4E0CE16D10409F493C637
:10499000F5E0CF16D10459F783E090E09093C90574
:1049A0008093C80588E190E09093CB058093CA0579
:1049B00081E08093E1052EE130E040E050E020937B
:1049C000E2053093E3054093E4055093E505EBCE13
:1049D0002CE0C216D10409F4A4C608F547E0C416B9
:1049E000D10409F479C658E0C516D10409F0BFCF47
:1049F000E091BB05F091BC05309709F4FCC500912E
:104A00009D0510919E05D8018D919C91DC01ED9042
:104A1000FC900995682FC801F7010995C4CE8EE076
:104A2000C816D10409F406C690E1C916D10409F0EC
:104A30009ECF5092C9054092C80582E08093D70569
:104A400084E090E09093CB058093CA051092DD0539
:104A50001092DE051092DF051092E0051092D60547
:104A6000A2CEAAE3CA16D10411F40C94812F08F047
:104A70005AC0E6E1CE16D10409F46BC508F522E16F
:104A8000C216D10409F410C633E1C316D10409F0EB
:104A90006ECF64E170E08BEA95E00E9487150E947A
:104AA0000802AB01BC018BEA95E00E9467150E94E9
:104AB000E301AB01BC018BEA95E00E94671573CE60
:104AC00048E1C416D10409F46DC55AE1C516D104F4
:104AD00009F04DCFE091B105F091B205309709F49E
:104AE0006ACECE0101960995182F69E170E08BEA34
:104AF00095E00E9487158091AB059091AC05DC0193
:104B0000ED91FC910190F081E02D612F0995412FED
:104B100050E0BE016F5F7F4F8091AB059091AC0577
:104B20000E940D1640CE80E4C816D10411F40C94F6
:104B3000982FA0F4ABE3CA16D10411F40C948D2F76
:104B4000BFE3CB16D10409F012CFE091F205F0914A
:104B5000F305309709F42FCE099525CEE1E4CE1662
:104B6000D10411F40C94B42FF2E4CF16D10409F05F
:104B7000FECE0091EE051091EF050115110509F427
:104B80001ACE63E470E08BEA95E00E948715F80185
:104B9000EB5BFF4F4081518162817381C8010E94AC
:104BA0004B09AB01BC018BEA95E00E944715FBCD98
:104BB00026E5C216D10411F40C949B3008F02BC1E9
:104BC00040E5C416D10411F40C94313008F04FC004
:104BD00087E4C816D10411F40C94FE2F28F5A5E43F
:104BE000CA16D10411F40C94E72FB6E4CB16D10405
:104BF00009F0BDCE0091EE051091EF0501151105EC
:104C000009F4D9CD67E470E08BEA95E00E9487153E
:104C1000D8019A964D915D916D917C919D978BEA0B
:104C200095E00E944715BFCDE8E4CE16D10411F4FB
:104C30000C941730F9E4CF16D10409F098CE5092B5
:104C4000C9054092C80582E08093D70587E490E0CB
:104C50009093CB058093CA051092DD051092DE0576
:104C60001092DF051092E0051092D6059CCD23E549
:104C7000C216D10411F40C94643008F0AAC041E5C6
:104C8000C416D10411F40C944B3052E5C516D1046E
:104C900009F06DCE6090EE057090EF05611471041F
:104CA00009F489CD63E570E08BEA95E00E948715F1
:104CB000F30185AD96AD892B39F442855385648522
:104CC0007585C3010E94480A8301015C1F4FD8010A
:104CD0008D919C91892B41F4F3014685578560891C
:104CE0007189C3010E94EF09D301DD962D913C919A
:104CF000F8018081918140E050E0BA01281739071E
:104D000009F462C093012D5B3F4F3EAB2DABD9013F
:104D10008D919C91892B41F4F301428953896489D7
:104D20007589C3010E94980AC3010E94740A4B014D
:104D30005C01C3010E941B0A6B017C01D301DD965B
:104D40002D903C90F80100811181C101801B910BD5
:104D5000ADA9BEA96D917C910E94163B90E080E0C8
:104D60000E94C3376DAB7EAB8FAB98AF200E311E68
:104D700036942794B10190E080E00E94C3379B01F4
:104D8000AC016DA97EA98FA998AD0E94243820E0BE
:104D900034E244E759E40E947F396DAB7EAB8FABC0
:104DA00098AFA5019401C701B6010E9412392DA93F
:104DB0003EA94FA958AD0E947F39AB01BC01F30158
:104DC000428B538B648B758B8BEA95E00E94471561
:104DD000EACC84E5C816D10411F40C947D3095E535
:104DE000C916D10409F0C3CD5092C9054092C80537
:104DF0001092D7058AE490E09093CB058093CA0582
:104E00001092DD051092DE051092DF051092E0058C
:104E10001092D605C8CCACE5CA16D10411F40C9496
:104E2000043108F048C0E9E5CE16D10411F40C9421
:104E3000D13018F527E5C216D10411F40C94B9301D
:104E400038E5C316D10409F092CD0091F405109114
:104E5000F5050115110509F4AECC69E570E08BEAA2
:104E600095E00E948715F801668170E08091AB059E
:104E70009091AC050E94061696CC4AE5C416D10462
:104E800011F40C94E1305BE5C516D10409F06FCD47
:104E900021E030E040E050E02093DD053093DE0576
:104EA0004093DF055093E0058CE490E09093C905B2
:104EB0008093C80578CC8FE5C816D10411F40C9402
:104EC000353178F5ADE5CA16D10411F40C941D31D5
:104ED000BEE5CB16D10409F04ACD0091F40510913E
:104EE000F5050115110509F466CC6FE570E08BEA54
:104EF00095E00E948715E090AB05F090AC05D701D6
:104F0000ED91FC91C080D18069E0C8010E945417E6
:104F1000F801858F68E084FF61E0C701F60109951B
:104F200042CCE5E6CE16D10409F43DC408F054C4E1
:104F300020E6C216D10409F01ACD0091F4051091B3
:104F4000F5050115110509F436CC61E670E08BEA30
:104F500095E00E948715D80116968C9116978823A4
:104F600011F40C943D3117966D917C918BEA95E08C
:104F70000E94871518CC3BE0C31632E0D30609F433
:104F8000D8C508F07BC159E0C51651E0D50609F433
:104F9000DCC408F091C092E0C91691E0D90609F48A
:104FA0007FC408F046C0BAE7CB16D10409F42AC47E
:104FB00050F5F8E7CF16D10409F449C429E7C21621
:104FC000D10409F0D4CC87E190E09093C905809397
:104FD000C80583E08093D70583E090E09093CB05EC
:104FE0008093CA0588E190E09093CD058093CC052D
:104FF0001092E2051092E3051092E4051092E50587
:105000001092D605D0CBC11431E0D30609F440C4C8
:1050100041E0C416D40609F0AACC8091E60590912F
:10502000E705DC01ED91FC910680F781E02D099503
:10503000BACB56E0C51651E0D50609F44DC4C8F404
:1050400094E0C91691E0D90609F43EC4A5E0CA1659
:10505000A1E0DA0609F08BCCE091E605F091E705D6
:10506000309709F4A8CB628184E091E00E94C315D7
:105070009ACBB7E0CB16B1E0DB0609F445C4E8E013
:10508000CE16E1E0DE0609F072CC5092C9054092DE
:10509000C8051092D7058BE290E09093CB058093E2
:1050A000CA051092DD051092DE051092DF05109200
:1050B000E0051092D60577CBF5E0CF16F2E0DF06DB
:1050C00009F4B2C408F08DC030E6C31631E0D3064F
:1050D00009F45AC3C8F55AE0C51651E0D50609F4DB
:1050E00055C48BE0C81681E0D80609F040CC009189
:1050F000E6051091E7050115110509F45CCB6AE09E
:1051000071E08BEA95E00E948715F80184A595A5CA
:10511000009709F454C4DC01ED91FC910084F18501
:10512000E02DD801D0966C9109959B01AC0160E00F
:1051300070E080E89FE30E941239AB01BC018BEA6A
:1051400095E00E9447152FCB91E0C91692E0D90651
:1051500009F457C4A3E0CA16A2E0DA0609F007CCA6
:10516000E091EA05F0E0EE0FFF1FE851FA4F808171
:1051700091810E945F0DF090EA05EF2DF0E0EE0FB7
:10518000FF1FE851FA4F0081118162E072E08BEA63
:1051900095E00E9487158091AB059091AC0561E088
:1051A0006F0DDC01ED91FC910190F081E02D0995EE
:1051B000F80143815481658176818BEA95E00E94F4
:1051C0006715D80117966D917C918BEA95E00E9446
:1051D0008715F801618572858BEA95E00E94871535
:1051E000E2CAB8E0CB16B2E0DB0609F464C498F575
:1051F000F6E0CF16F2E0DF0609F444C427E0C21659
:1052000022E0D20609F0B3CBF090EA05EF2DF0E0F2
:10521000EE0FFF1FE851FA4F0081118166E072E046
:105220008BEA95E00E9487158091AB059091AC05C3
:1052300061E06F0DDC01ED91FC910190F081E02DBA
:105240000995F8014789508D618D728D8BEA95E043
:105250000E944715A8CA39E0C31632E0D30609F404
:1052600042C44AE0C41642E0D40609F080CB86E38B
:1052700090E09093C9058093C80595CA5AE0C51679
:105280005AEAD50609F4DAC408F095C094E6C916BE
:1052900095E6D90609F487CA08F05DC0B0E1CB16DF
:1052A000B2E0DB0609F483C418F5FCE0CF16F2E0A7
:1052B000DF0609F466C42FE0C21622E0D20609F028
:1052C00056CB5092C9054092C8051092D70587E386
:1052D00090E09093CB058093CA051092DD05109263
:1052E000DE051092DF051092E0051092D6055BCA2C
:1052F00031E1C31632E0D30609F47FC442E1C4169B
:1053000042E0D40609F033CBF090EA05EF2DF0E04F
:10531000EE0FFF1FE851FA4F0081118161E172E049
:105320008BEA95E00E9487158091AB059091AC05C2
:1053300061E06F0DDC01ED91FC910190F081E02DB9
:105340000995F80143A554A565A576A58BEA95E0D6
:105350000E94471528CA56E0C5165AEAD50609F430
:10536000E2C4B0F492E6C91694E7D90609F471C113
:10537000A3E6CA16A4E7DA0609F0F9CA85E090E0C8
:105380009093C9058093C8058FEF8093D7050BCA0A
:10539000B8E0CB16BAEADB0609F448C4E9E0CE1659
:1053A000EAEADE0609F0E3CA6091ED0588E09AEAD0
:1053B0000E94C315F8C9F1E1CF16FAEADF0609F435
:1053C00044C508F058C03EE0C3163AEAD30609F4D3
:1053D00009C520F55CE0C5165AEAD50609F4E6C40D
:1053E0008DE0C8168AEAD80609F0C1CA5092C905EC
:1053F0004092C80582E08093D7058BE590E09093BA
:10540000CB058093CA051092DD051092DE0510923F
:10541000DF051092E0051092D605C5C99FE0C916B8
:105420009AEAD90609F4F8C4A0E1CA16AAEADA068B
:1054300009F09DCAE091ED05F0E0EE0FFF1FE55188
:10544000FA4F0081118161E17AEA8BEA95E00E94CE
:105450008715D80157968D919C91DC01ED91FC91B7
:105460000680F781E02D0995AB01BC018BEA95E040
:105470000E94471598C9B5E1CB16BAEADB0609F4D4
:10548000FDC450F5F2E1CF16FAEADF0609F4FAC3DB
:1054900024E1C2162AEAD20609F069CAE091ED05B4
:1054A000F0E0EE0FFF1FE551FA4F0081118165E139
:1054B0007AEA8BEA95E00E948715D801ED91FC917C
:1054C0000680F781E02DC8010995AB01BC018BEA8C
:1054D00095E00E94471567C937E1C3163AEAD3063B
:1054E00009F4F7C408F4E3C458E1C5165AEAD5062E
:1054F00009F03DCA5092C9054092C80582E08093E8
:10550000D70580E690E09093CB058093CA05109272
:10551000DD051092DE051092DF051092E005109275
:10552000D60541C90E9402013EC96DEC7BEA8BEAB7
:1055300095E00E94871537C963E070E08BEA95E03B
:105540000E9487156FE070E08BEA95E00E94871556
:105550002AC9E091AD05F091AE05309709F42BC949
:10556000CE0101960995182F65E170E08BEA95E070
:105570000E9487158091AB059091AC05DC01ED91FF
:10558000FC910190F081E02D612F0995412F50E0B1
:10559000BE016F5F7F4F8091AB059091AC050E947B
:1055A0000D1601C9E091AF05F091B005309709F4EF
:1055B00002C9CE0101960995182F67E170E08BEAC8
:1055C00095E00E9487158091AB059091AC05DC01B8
:1055D000ED91FC910190F081E02D612F0995412F13
:1055E00050E0BE016F5F7F4F8091AB059091AC059D
:1055F0000E940D16D8C869E070E08BEA95E00E9421
:1056000087158091AB059091AC05DC01ED91FC9183
:105610000190F081E02D63E009958091AB059091B8
:10562000AC05DC01ED91FC910190F081E02D60E092
:105630000995B9C86FE070E08BEA95E00E94871584
:1056400040E052EC61E070E08BEA95E00E94671563
:10565000AAC863E674E78BEA95E00E94871510E01C
:1056600000E0B8018091AB059091AC050E94141642
:105670000F5F1F4F0115B1E01B0799F794C81091F8
:10568000AA0562E170E08BEA95E00E94871580919F
:10569000AB059091AC05DC01ED91FC910190F0819E
:1056A000E02D612F09957FC886E090E09093C905B1
:1056B0008093C80578C88EE190E0A0E0B0E08093C8
:1056C000E2059093E305A093E405B093E50585E03A
:1056D00090E00E941B1667C883E090E09093C90594
:1056E0008093C80588E190E09093CB058093CA052C
:1056F00081E08093E1051092E2051092E30510929B
:10570000E4051092E5054FC81092E2051092E305FA
:105710001092E4051092E50587E090E00E941B16C8
:1057200042C8DE011196EEE0F0E08D0121E2CF01EA
:10573000019620935700E491ED93FC01449711F4F6
:10574000E5E1F0E04BA95CA94A175B0781F76DE042
:1057500070E08BEA95E00E94871569E070E0809127
:10576000AB059091AC050E9414168091AB05909109
:10577000AC05DC01ED91FC910280F381E02D49E064
:1057800050E0B80109950FC884E190E09093C905F5
:105790008093C80508C8E5E1F0E0F093C905E093FF
:1057A000C8050C94D3235092C9054092C80582E0E5
:1057B0008093D70586E190E09093CB058093CA054E
:1057C0001092DD051092DE051092DF051092E005C3
:1057D0001092D6050C94D323C090A205D090A305B7
:1057E000E090A405F090A50565E670E08BEA95E0F1
:1057F0000E948715B701A6018BEA95E00E94671504
:105800000C94D323E091C105F091C205309711F4B7
:105810000C94DB2309956093DD057093DE0580937E
:10582000DF059093E0056BE770E08BEA95E00E945E
:1058300087154091DD055091DE056091DF0570917F
:10584000E0058BEA95E00E9467150C94D32387E16D
:1058500090E09093C9058093C80583E08093D705B5
:1058600083E090E09093CB058093CA0589E190E0B6
:105870009093CD058093CC051092E2051092E3053C
:105880001092E4051092E5051092D6050C94D323EE
:1058900088E290E09093C9058093C8050C94D323C7
:1058A00063E071E08BEA95E00E9487158091AB057B
:1058B0009091AC05DC01ED91FC910190F081E02D1F
:1058C0006AE009950C94D32389E290E09093C9058E
:1058D0008093C8050C94D3235092C9054092C80503
:1058E0001092D7058AE290E09093CB058093CA0589
:1058F0001092DD051092DE051092DF051092E00592
:105900001092D6050C94D3230091E6051091E7057B
:105910000115110511F40C94DB2366E071E08BEAAC
:1059200095E00E948715F8018281F4E08F9FC00105
:105930001124080F191FD80113966D917C918BEAE1
:1059400095E00E9487150C94D3230091E6051091F1
:10595000E7050115110511F40C94DB2368E071E0F3
:105960008BEA95E00E948715F8018281F4E08F9F11
:10597000C0011124080F191FD80115966D917C9153
:105980008BEA95E00E9487150C94D3235092C905A9
:105990004092C80582E08093D7058CE290E0909316
:1059A000CB058093CA051092DD051092DE0510929A
:1059B000DF051092E0051092D6050C94D32306A5BE
:1059C00017A560E070E080E89FE30115110509F478
:1059D000B4CBD80113966C9170E090E080E00E9407
:1059E000C3376B017C01F801608170E090E080E0DA
:1059F0000E94C3379B01AC01C701B6010E947F39E9
:105A00009CCB8091E8059091E9050E945F0DE091A3
:105A1000EA05F0E0EE0FFF1FE851FA4F8081918117
:105A20000E94A2150C94D323F090EA05EF2DF0E02C
:105A3000EE0FFF1FE851FA4F0081118164E072E020
:105A40008BEA95E00E9487158091AB059091AC059B
:105A500061E06F0DDC01ED91FC910190F081E02D92
:105A60000995F801668577858BEA95E00E94871590
:105A7000D80150966D917C918BEA95E00E94871534
:105A80000C94D3235092C9054092C80582E08093BC
:105A9000D70584E390E09093CB058093CA051092DC
:105AA000DD051092DE051092DF051092E0051092E0
:105AB000D6050C94D3235092C9054092C805109284
:105AC000D70585E390E09093CB058093CA051092AB
:105AD000DD051092DE051092DF051092E0051092B0
