:020000040000FA
:100000000C9464000C9445050C941E050C948C0013
:100010000C948C000C948C000C948C000C946C054B
:100020000C948C000C948C000C948C000C948C0020
:100030000C948C000C948C000C948C000C948C0010
:100040000C94D4040C948C000C94EE050C94C8050C
:100050000C948C000C948C000C948C000C948C00F0
:100060000C948C000C948C000200000000240027EB
:10007000002A00000000080002010000030407003D
:100080000000000000000000000000250028002BF8
:1000900000000000002300260029000404040404DA
:1000A0000404040202020202020303030303030125
:1000B00002040810204080010204081020010204FC
:1000C000081020002006EB0F11241FBECFEFD8E050
:1000D000DEBFCDBF11E0A0E0B1E0E0E5F6E202C096
:1000E00005900D92AC3EB107D9F723E0ACEEB1E03C
:1000F00001C01D92A838B207E1F710E0C3E6D0E0D6
:1001000004C02197FE010E94F011C236D107C9F741
:100110000E942E070C941B130C940000833081F076
:1001200028F4813099F08230A9F008958730A9F041
:100130008830C9F08430B1F4809180008F7D03C095
:10014000809180008F7780938000089584B58F77A9
:1001500084BD089584B58F7DFBCF8091B0008F77EB
:100160008093B00008958091B0008F7DF9CF1F93E8
:10017000CF93DF93282F30E0F901ED58FF4F8491A2
:10018000F901E155FF4FD491F901E556FF4FC491B4
:10019000CC23A9F0162F81110E948E00EC2FF0E0E5
:1001A000EE0FFF1FE957FF4FA591B4918FB7F89459
:1001B000EC91111108C0D095DE23DC938FBFDF9145
:1001C000CF911F910895DE2BF8CF61E087E00E9468
:1001D000B70061E085E00C94B700CF93DF9390E027
:1001E000FC01E155FF4F249185569F4FFC018491FE
:1001F0008823D1F090E0880F991FFC01E759FF4F49
:10020000A591B491FC01E957FF4FC591D4916111BB
:100210000EC09FB7F8948C91E22FE0958E238C93BB
:100220002881E223E8839FBFDF91CF9108958FB7A4
:10023000F894EC91E22BEC938FBFF6CF8E3008F060
:100240008E508770806480937C0080917A008064F7
:1002500080937A0080917A0086FDFCCF80917800AF
:100260009091790008953FB7F8948091AF029091F2
:10027000B002A091B102B091B20226B5A89B05C010
:100280002F3F19F00196A11DB11D3FBFBA2FA92F15
:10029000982F8827BC01CD01620F711D811D911D12
:1002A00042E0660F771F881F991F4A95D1F708957E
:1002B0000F931F93CF93DF93CDB7DEB729970FB678
:1002C000F894DEBF0FBECDBF482F50E020915203FF
:1002D000309153034217530758F5909158039923CF
:1002E00021F0969FB0011124672FE0915E032091C9
:1002F000590330915A0390915B03E913A7C0A901F8
:1003000073E0879F400D511D1124CA01E0915B03EA
:10031000E80FF92FF11D1082E0915C03E80FF92F2F
:10032000F11D608320915D03820F911DFC011082FD
:100330008091590390915A03892B09F47CC00E9443
:10034000330100915F0310916003209161033091AC
:100350006203601771078207930740F460935F039D
:1003600070936003809361039093620300915F0335
:10037000109160032091610330916203601B710B47
:10038000820B930B6C32714081059105C0F2F89499
:1003900080915403909155039A838983E091590386
:1003A000F0915A03DF011196808189879091500363
:1003B000E0916303F091640380916503992309F44C
:1003C00051C09081982B98879081809589238F8345
:1003D0008F818C8388E08B8358856F8149853B8131
:1003E0002C8189819A81508347FD252F3A9520835E
:1003F000262F39F0441F00C000006083000000C0B9
:10040000F2CF38E04D9160830000019761F7F093DF
:100410006403E093630349873B832C839A83898336
:1004200078940E94330160935F037093600380931C
:1004300061039093620329960FB6F894DEBF0FBE56
:10044000CDBFDF91CF911F910F910895CA01880F01
:10045000991F880F991F820F931FE80FF92FF11D25
:10046000108254CF9081982B988790818095892312
:100470008F838F818E8388E08D8358856F81498536
:100480003D812E8189819A81508347FD252F00C0AF
:1004900000C0208300C000C000C000C000C0608356
:1004A0000000262F3A9541F0441F000000C000C014
:1004B00000C000C000C0E8CF38E04D9100C06083AC
:1004C00000C0019709F7F0936403E0936303498741
:1004D0003D832E83A3CF2FB7F8946091AB02709128
:1004E000AC028091AD029091AE022FBF08950895A5
:1004F0009091040189130BC0E8E6F0E0E4919FEFCE
:1005000090930401E13049F028F0E23061F060E0BE
:100510000C94B70010926E00FACF90916F009D7FFF
:1005200090936F00F4CF909170009D7F9093700036
:1005300091E09093B0009091B100987F9460909377
:10054000B1001092B300E3CFAF92BF92CF92DF928F
:10055000EF92FF920F931F93CF93DF936C017B0178
:100560008B01040F151FEB015E01AE18BF08C01709
:10057000D10759F06991D601ED91FC910190F0817C
:10058000E02DC6010995892B79F7C501DF91CF913F
:100590001F910F91FF90EF90DF90CF90BF90AF90A1
:1005A0000895FC01538D448D252F30E0842F90E079
:1005B000821B930B541710F0CF960895019708955E
:1005C000FC01918D828D981761F0A28DAE0FBF2F27
:1005D000B11D5D968C91928D9F5F9F73928F90E07D
:1005E00008958FEF9FEF0895FC01918D828D9817EC
:1005F00031F0828DE80FF11D858D90E008958FEF29
:100600009FEF0895FC01918D228D892F90E0805CF1
:100610009F4F821B91098F739927089583EB92E076
:100620000E94020321E0892B09F420E0822F089523
:1006300080E090E0892B29F00E940E0381110C9438
:1006400000000895FC01A48DA80FB92FB11DA35A75
:10065000BF4F2C91848D90E001968F739927848FE2
:10066000A689B7892C93A089B1898C918370806405
:100670008C93938D848D981306C00288F389E02DA6
:1006800080818F7D80830895EF92FF920F931F9357
:10069000CF93DF93EC0181E0888F9B8D8C8D981335
:1006A0001AC0E889F989808185FF15C09FB7F89441
:1006B000EE89FF896083E889F9898081837080648D
:1006C00080839FBF81E090E0DF91CF911F910F91D8
:1006D000FF90EF900895F62E0B8D10E00F5F1F4FE7
:1006E0000F731127E02E8C8D8E110CC00FB607FCF6
:1006F000FACFE889F989808185FFF5CFCE010E9484
:100700002203F1CFEB8DEC0FFD2FF11DE35AFF4FCC
:10071000F0829FB7F8940B8FEA89FB898081806211
:10072000CFCFCF93DF93EC01888D8823B9F0AA89CE
:10073000BB89E889F9898C9185FD03C0808186FD9C
:100740000DC00FB607FCF7CF8C9185FFF2CF8081EB
:1007500085FFEDCFCE010E942203E9CFDF91CF913B
:100760000895CF93DF9300D0CDB7DEB789831A8287
:1007700042E050E0BE016F5F7F4F83EB92E00E944A
:10078000A4020F900F90DF91CF9108952F923F9286
:100790004F925F926F927F928F929F92AF92BF9291
:1007A000CF92DF92EF92FF920F931F93CF93DF933D
:1007B00000D01F92CDB7DEB71092EC0186E1482E33
:1007C00081E0582E8EEF91E09B838A83D12CC12C3F
:1007D00022242394312CC982F20181912F010E949D
:1007E0001E017C01EA81FB81918380830481158154
:1007F0008017910708F48C01EA81FB81158304833B
:10080000668077806E147F0408F43701EA81FB81EB
:1008100077826682601A710AB30190E080E00E94DC
:10082000B41020E030E040E05FE30E9442114B0151
:100830005C01B80190E080E00E94B410A501940131
:100840000E9412100E948510EA81FB8173836283EB
:10085000F2E36F16710478F06E157F0560F4910174
:10086000098002C0220F331F0A94E2F78091EC0145
:10087000820F8093EC018FEFC81AD80AEA81FB81BE
:100880003896FB83EA83F3E0CF16D10409F0A3CFB7
:100890000F900F900F90DF91CF911F910F91FF90CC
:1008A000EF90DF90CF90BF90AF909F908F907F9010
:1008B0006F905F904F903F902F900895FC010190B2
:1008C0000020E9F73197AF01481B590BBC0183EBBE
:1008D00092E00C94A4028F929F92AF92BF920F93DA
:1008E0001F93CF93DF93CDB7DEB7A1970FB6F894E0
:1008F000DEBF0FBECDBF19A2423008F44AE08E0120
:100900000F5D1F4F842E912CB12CA12CA5019401B9
:100910000E94AF11E62FB901CA01EA30F4F4E05D9C
:10092000D801EE938D01232B242B252B79F790E012
:1009300080E0109719F0CD010E945E04A1960FB6D9
:10094000F894DEBF0FBECDBFDF91CF911F910F9105
:10095000BF90AF909F908F900895E95CE1CFCF93C7
:10096000DF93BC0190E080E04AE00E946B04EC0160
:100970008EE291E00E945E048C0F9D1FDF91CF916B
:100980000895CF93DF93BC01990F880B990B4AE030
:100990000E946B04EC018EE291E00E945E048C0FD9
:1009A0009D1FDF91CF9108951F920F920FB60F9266
:1009B00011242F933F938F939F93AF93BF93809175
:1009C000AB029091AC02A091AD02B091AE02309119
:1009D000AA0223E0230F2D3758F50196A11DB11D62
:1009E0002093AA028093AB029093AC02A093AD0235
:1009F000B093AE028091AF029091B002A091B1028B
:100A0000B091B2020196A11DB11D8093AF029093E7
:100A1000B002A093B102B093B202BF91AF919F9187
:100A20008F913F912F910F900FBE0F901F901895AF
:100A300026E8230F0296A11DB11DD2CF1F920F925F
:100A40000FB60F9211242F933F934F935F936F93A1
:100A50007F938F939F93AF93BF93EF93FF93E09117
:100A60000201F09103010995FF91EF91BF91AF91C0
:100A70009F918F917F916F915F914F913F912F91B6
:100A80000F900FBE0F901F9018951F920F920FB6E8
:100A90000F9211242F933F934F935F936F937F9304
:100AA0008F939F93AF93BF93EF93FF93E0910001D8
:100AB000F09101010995FF91EF91BF91AF919F9145
:100AC0008F917F916F915F914F913F912F910F90F7
:100AD0000FBE0F901F9018951F920F920FB60F9296
:100AE00011242F933F934F935F936F937F938F9333
:100AF0009F93AF93BF93EF93FF938091F2019091F7
:100B0000F301A091F401B091F501892B8A2B8B2B75
:100B1000D1F19091ED01E091EE01F091EF01808132
:100B2000892780838091F2019091F301A091F401D3
:100B3000B091F501181619061A061B069CF480914F
:100B4000F2019091F301A091F401B091F5010197A8
:100B5000A109B1098093F2019093F301A093F401EC
:100B6000B093F501FF91EF91BF91AF919F918F915C
:100B70007F916F915F914F913F912F910F900FBE99
:100B80000F901F901895809104010E947802EACF7F
:100B90001F920F920FB60F9211242F933F934F93F2
:100BA0005F936F937F938F939F93AF93BF93EF93D5
:100BB000FF9383EB92E00E942203FF91EF91BF919C
:100BC000AF919F918F917F916F915F914F913F91E5
:100BD0002F910F900FBE0F901F9018951F920F929C
:100BE0000FB60F9211242F938F939F93EF93FF9340
:100BF000E091C302F091C4028081E091C902F091BA
:100C0000CA0282FD1BC090818091CC028F5F8F73DE
:100C10002091CD02821741F0E091CC02F0E0ED543A
:100C2000FD4F958F8093CC02FF91EF919F918F9113
:100C30002F910F900FBE0F901F9018958081F4CFC9
:100C40001092B6021092B50288EE93E0A0E0B0E0F8
:100C50008093B7029093B802A093B902B093BA02FE
:100C600080E291E09093B4028093B30285EC90E02F
:100C70009093C0028093BF0284EC90E09093C202F4
:100C80008093C10280EC90E09093C4028093C302F1
:100C900081EC90E09093C6028093C50282EC90E0D4
:100CA0009093C8028093C70286EC90E09093CA02AA
:100CB0008093C9021092CC021092CD021092CE0203
:100CC0001092CF0281E090E09093670380936603D7
:100CD00086E391E090936D0380936C0380EE95E73B
:100CE000A9E0B0E080936E0390936F03A09370032C
:100CF000B093710380E29EE4A0E0B0E080937203C1
:100D000090937303A0937403B093750361E082E042
:100D10000E94ED0060E089E00E94ED0060E082E06A
:100D20000E94B700E1EBF0E0E491E0937E03EDE98F
:100D3000F0E0E491F0E0EE0FFF1FEF56FF4F8591DA
:100D400094919093800380937F03E8EBF0E0E4912B
:100D5000E0938103E4EAF0E0E491F0E0EE0FFF1F9E
:100D6000EF56FF4F85919491909383038093820374
:100D70008FEF9FEFAFEFBFE080936803909369031D
:100D8000A0936A03B0936B030E946B026093760397
:100D900070937703809378039093790310925103B3
:100DA0001092580310925F03109260031092610337
:100DB0001092620381E080935E0380935B03109244
:100DC0005C0392E090935D038093500389E090E090
:100DD00090935503809354030E94F61190935A0305
:100DE00080935903009789F129E0FC0111922A951B
:100DF000E9F783E090E090935303809352038DE0F2
:100E000090E0909357038093560380915103882379
:100E100041F061E08DE00E94ED0060E08DE00E9415
:100E2000B700E8EAF0E0E491F0E0EE0FFF1FE957C9
:100E3000FF4F859194919093640380936303ECEB4F
:100E4000F0E0E491E0936503089510925503109249
:100E500054031092530310925203D1CFCF93DF93D8
:100E6000CDB7DEB7C25BD1090FB6F894DEBF0FBEB7
:100E7000CDBF789484B5826084BD84B5816084BD23
:100E800085B5826085BD85B5816085BD80916E0028
:100E9000816080936E001092810080918100826059
:100EA0008093810080918100816080938100809196
:100EB00080008160809380008091B1008460809385
:100EC000B1008091B00081608093B00080917A0081
:100ED000846080937A0080917A00826080937A00A7
:100EE00080917A00816080937A0080917A00806896
:100EF00080937A001092C10061E083E10E94ED00CE
:100F000060E083E10E94B70060E085E10E94ED00AF
:100F100060E082E10E94ED0060E081E10E94ED006E
:100F2000E091C302F091C40282E08083E091BF02AD
:100F3000F091C0021082E091C102F091C20280E102
:100F400080831092CB02E091C702F091C80286E044
:100F50008083E091C502F091C60280818061808328
:100F6000E091C502F091C602808188608083E091A3
:100F7000C502F091C602808180688083E091C5023D
:100F8000F091C60280818F7D808386EAE1E3F1E003
:100F9000DE01119601900D928A95E1F7FE01E85568
:100FA000FF4F06EA82918C3511F00150D9F70F5F9F
:100FB00085E190E00E94B10310E065EA70E0601BFB
:100FC000710B83EB92E00E94440381E090E08C0F70
:100FD0009D1F800F911F0E945E048CE0E7EDF1E001
:100FE000DE01119601900D928A95E1F787E190E07C
:100FF0000E94B1036CE083EB92E00E944403CE01B7
:1010000001960E945E0489E0E3EEF1E0DE011196B4
:1010100001900D928A95E1F789E190E00E94B10379
:1010200069E083EB92E00E944403CE0101960E94A6
:101030005E0461E083E00E94ED0061E083E00E94D5
:10104000ED00E6E7F0E0E491E33009F44EC150F43E
:10105000E130E1F0E23009F442C160E083E00E9457
:10106000B70019C0E73009F44CC1E83009F452C1A7
:10107000E43099F7809180008062809380008AE05C
:1010800090E090938B0080938A0005C084B58068BF
:1010900084BD8AE087BD809156039091570397FDE8
:1010A00008C061E00E94ED0060E0809156030E945C
:1010B000B70081E08093510361E08CE00E94ED0075
:1010C00061E08CE00E94B70060E08BE00E94ED00E0
:1010D00061E086E00E94ED0061E086E00E94B700DA
:1010E00061E087E00E94ED0061E085E00E94ED0094
:1010F0000E94E50061E088E00E94ED0008EEC02E4D
:1011000003E0D02EE12CF12C87EB282E80E0382E46
:1011100080910401883009F006C1E8E6F0E01491FE
:1011200017FF5CC10E9433012B013C01E4E68E2EC7
:10113000912CA12CB12C0E943301641975098609E8
:101140009709683E734081059105A8F331E0831A41
:101150009108A108B10848EE440E43E0541E611CFA
:10116000711C81149104A104B10429F788ECC80E04
:10117000D11CE11CF11C90EDC91697E0D906E104E1
:10118000F10431F688E00E94780260E084E10E9478
:10119000ED0061E08AE00E94ED008091050161E0D0
:1011A0008F3F39F01092050161E08AE00E94ED0066
:1011B00060E08AE00E94B7000FEF13E01093030293
:1011C00000930202109205021092040210930B0287
:1011D00000930A0210920D0210920C021093130257
:1011E0000093120210921502109214020E94C6037C
:1011F00060E080E00E94580160E081E00E945801B8
:1012000060E082E00E945801109303020093020202
:10121000109205021092040210930B0200930A022E
:1012200010920D0210920C021093130200931202FE
:1012300010921502109214020E94E50061E086E00F
:101240000E94B70044244A94542C642C7FE0772EEB
:101250004BE0E42E53E0F52E60E0262E60E0362EC3
:101260000E94C60383EB92E00E940203892B09F4DB
:1012700062C183EB92E00E94E0029C0190932602FF
:101280008093250210911E0211114BC4FC01F197AD
:10129000EF31F10508F043C1E05BF64F0C94F0111B
:1012A0004F0D510D530D550D5A0D5E0D750D7A0DE7
:1012B0007E0D800D880D720B8D0D8F0A8F0A8F0A9F
:1012C0008B0A5D0B600B680B720B790B7D0B820B2D
:1012D000860B8B0B930BA90BAD0BAF0BB30B84B52C
:1012E000806284BD8AE088BDD6CE8091800080680F
:1012F000809380008AE090E090938900809388003A
:10130000CACE8091B00080688093B0008AE080935C
:10131000B300C1CE8091B00080628093B0008AE0BB
:101320008093B400B8CE8F3F09F0FCCE88E0809364
:101330000401E8E6F0E014911F3F09F4F3CE113008
:1013400009F476C098F1123009F490C017FDEACE86
:1013500061E088E00E94ED00123009F0A9C060E968
:1013600070ED83E090E0A70196010E94D111BA01CF
:10137000A90141505109610971098091B100887F2B
:1013800083608093B1004093B3002FEF3FEFA9013A
:101390002093F2013093F3014093F4015093F5014F
:1013A00080917000826080937000BCCE14BC15BC2C
:1013B00084B5826084BD85B5816085BDE3EAF0E0D7
:1013C0008491E82FF0E0EE0FFF1FE957FF4F859162
:1013D0009491F10184918093F10110E061E088E043
:1013E0000E94ED001111B8CF68E478EE81E090E042
:1013F000A70196010E94D111BA01A90141505109DA
:101400006109710985B5887F836085BD47BD8FEF10
:101410009FEFDC018093FA019093FB01A093FC0104
:10142000B093FD0180916E00826080936E007ACE51
:1014300010928000109281008091810088608093DA
:10144000810080918100816080938100E3EAF0E077
:101450008491E82FF0E0EE0FFF1FE957FF4F8591D1
:101460009491F10184918093F001B8CF1092B00073
:101470001092B1008091B00082608093B0008091A2
:10148000B10081608093B100E3EAF0E08491E82F3D
:10149000F0E0EE0FFF1FE957FF4F85919491909375
:1014A000EF018093EE01F10184918093ED0196CFDD
:1014B00060E072E18AE790E0A70196010E94D111F5
:1014C00049015A01F1E08F1A9108A108B108A4015D
:1014D0001130D9F480918100887F816080938100F0
:1014E00090928900809288002FEF3FEFA90120930E
:1014F000F6013093F7014093F8015093F901809180
:101500006F00826080936F000DCE123009F43BCFE4
:10151000111108CE7BCF8BE292E00E94C104809132
:101520001E0281110FC510921A0210921B02109216
:101530001C0210921D0280901A0290901B02A09033
:101540001C02B0901D0281149104A104B104A9F001
:101550000E946B0286169706A806B90670F486E00C
:10156000EEE1F2E011928A95E9F710921A021092D8
:101570001B0210921C0210921D0206E912E0D12CEF
:10158000D8018D909D90AD90BD908D0181149104F6
:10159000A104B10489F00E946B0286169706A80682
:1015A000B90650F460E08D2D0E945801F80134977F
:1015B0001082118212821382D394B3E0DB12E0CF47
:1015C00080919502882369F10E946B02A09091029C
:1015D000B0909202C0909302D0909402A616B706E3
:1015E000C806D90608F0BDC4E0919002F0E0E45DC1
:1015F000FD4F61E080810E94B70080910E019091C3
:101600000F01A6019501280F391F411D511DDA0157
:10161000C9018093910290939202A0939302B09398
:101620009402A090A202B090A302C090A402D09015
:10163000A502A114B104C104D10499F00E946B0267
:10164000A616B706C806D90660F460E084E10E94D9
:10165000B7001092A2021092A3021092A40210925C
:10166000A502A090A602B090A702C090A802D090B8
:10167000A902A114B104C104D10499F00E946B0223
:10168000A616B706C806D90660F461E08CE00E9491
:10169000B7001092A6021092A7021092A802109210
:1016A000A9022114310409F4DBCD0E940E03882322
:1016B00009F4CECD0E940000CBCD8AE090E02DCF82
:1016C0001092190210921802A1E0A0931E0227CFD7
:1016D0001092190210921802F0921E0282E080937A
:1016E0001F021DCF80910C0190910D010E94AF044B
:1016F00016CFF0921E0286E0F2CF80910A019091FF
:101700000B01F4CFF0921E0287E0E9CF80910E0129
:1017100090910F01EBCFF0921E0288E080931F02A0
:1017200010922002FCCE80912702181708F0F7CE05
:10173000E12FF0E0E45DFD4F608170E090E080E03B
:101740004AE00E946B048EE291E00E945E041F5FFB
:10175000EACF89E080931E02E2CE8CE0FBCF80913D
:10176000950290E0DACE10927A0310927B031092E9
:101770007C0310927D03809166039091670397FD2F
:101780008AC12EE1F894E0917F03F0918003928169
:1017900080917E03809589238283E0918203F0917A
:1017A0008303918180918103809589238183E091D6
:1017B0008203F09183039281809181038095892334
:1017C0008283E0918203F091830381819091810370
:1017D000892B8183E0918203F09183039281809130
:1017E000810380958923828383E290E00197F1F75A
:1017F000E0918203F0918303918180918103809530
:1018000089238183E0918203F09183039281809107
:101810008103809589238283E0917F03F091800387
:10182000828190917E03892B82837894E091820358
:10183000F09183033091810340916E0350916F03C7
:101840006091700370917103108180917A0390917F
:101850007B03A0917C03B0917D03132389F484174B
:101860009507A607B70760F40196A11DB11D8093E7
:101870007A0390937B03A0937C03B0937D03E4CF22
:10188000481759076A077B0760F46EEF7FEF8FEF09
:101890009FEF4AE00E946B048EE291E00E945E049A
:1018A0003ECEF894E0918203F0918303828190917F
:1018B0008103892B8283E0918203F09183038181EC
:1018C00090918103892B8183E0918203F0918303BE
:1018D000828190918103892B8283E0918203F09130
:1018E0008303918180918103809589238183E09195
:1018F0008203F091830392818091810380958923F3
:101900008283E0917F03F0918003928180917E0336
:101910008095892382837894E0918203F0918303F8
:101920003091810340916E0350916F036091700379
:1019300070917103108180917A0390917B03A09143
:101940007C03B0917D03132391F084179507A607BC
:10195000B70708F09ACF0196A11DB11D80937A03B5
:1019600090937B03A0937C03B0937D03E3CF841714
:101970009507A607B70708F088CF215009F002CFD6
:101980000E946B02009176031091770320917803F7
:1019900030917903601B710B820B930B00917203E2
:1019A0001091730320917403309175030617170784
:1019B0002807390708F03FC080907A0390907B0396
:1019C000A0907C03B0907D036091680370916903DF
:1019D00080916A0390916B0386169706A806B90654
:1019E00009F455C0861A970AA80AB90A0E94B410C9
:1019F0002DEC3CEC4CEC5DE30E9442110E947E1009
:101A0000072E000C880B990B86169706A806B906B8
:101A100090F4409268035092690360926A03709256
:101A20006B030E946B02609376037093770380933D
:101A300078039093790380917A0390917B03A0912E
:101A40007C03B0917D03009168031091690320919C
:101A50006A0330916B0380179107A207B30740F424
:101A60008093680390936903A0936A03B0936B0318
:101A7000009168031091690320916A0330916B0310
:101A8000BC01CD01601B710B820B930B02CF812C2B
:101A9000912C5401ABCF6FEF7FEFCB01FACE85E6EF
:101AA00059CE86E657CE87E655CE809108019091B3
:101AB00009011CCEF0921E0288E611CE61E084E19D
:101AC0000E94B7000E946B0220910601309107012D
:101AD000620F731F811D911D6093A2027093A30278
:101AE0008093A4029093A5021ACD80910601909153
:101AF0000701FCCDF0921E0289E6F1CD8AE62ACEDE
:101B0000E1E0F0E0F0931702E09316028CE622CEBB
:101B10001092170210921602F9CFF0921E028BE675
:101B2000DECD1A3009F433C1B8F5153009F4DCC044
:101B3000F0F4123009F4BDC068F4113009F498C013
:101B4000EEE1F2E081818193A4E2B2E0AE17BF073B
:101B5000C9F7E5CC133009F4C2C0143089F780917D
:101B60001802909119020E94FB0F90E09BC0173061
:101B700009F4D9C008F4BEC0183009F4EDC019301A
:101B8000F9F6853608F001C1809327028AE0809338
:101B90001E0210929002D4CF173609F47CC1C0F413
:101BA0001C3009F40CC1A8F3153609F446C11636E9
:101BB00039F68150E2E0F0E0E81BF109EA5EFE4F01
:101BC00080810E941E0190931702809316026EC0BE
:101BD0001A3609F490C1F8F4183609F473C11936AD
:101BE00009F0AECFF0911602C055DF4FF883C05B0D
:101BF000D040C155DF4F1882CF5AD040C155DF4F7A
:101C000048815981CF5AD040240F351F30930701A6
:101C10002093060195CF1B3609F474C11C3609F0D8
:101C20008FCF9F2D981B892F40911602509117023C
:101C30008901000F111F000F111F4130510509F0DC
:101C400076C16FEF0E9458010E946B02F801EA56BC
:101C5000FD4F20910C0130910D01AB01BC01420FF1
:101C6000531F611D711D408351836283738368CF4D
:101C7000C0901802D0901902C6010E94FB0F082FD5
:101C800010E01093170200931602C601019690937C
:101C90001902809318020E94FB0F102F0027800F5B
:101CA000912F911D90932602809325020E94AF04EC
:101CB00047CF6091160280911802909119020E94FC
:101CC00003106091250280911802909119020196EB
:101CD00090931902809318020E94031031CF9093C1
:101CE0001702809316022CCF682F809118029091D2
:101CF0001902F2CFF0911602C855DF4FF883C85A87
:101D0000D040C955DF4F1882C75AD040C955DF4F60
:101D100048815981C75AD040240F351F30930D0197
:101D200020930C010DCF50911602C655DF4F5883FA
:101D3000CA5AD040C755DF4F1882C95AD040C7553C
:101D4000DF4F88819981C95AD040280F391F3093BD
:101D50000B0120930A01F4CE90911602C455DF4F77
:101D60009883CC5AD040C555DF4F1882CB5AD0400B
:101D7000C555DF4FA881B981CB5AD0402A0F3B1FF0
:101D800030930F0120930E01DBCE84E6FDCE8091CF
:101D90009002E82FF0E0E45DFD4F285E3E4FD90150
:101DA0009C9190838F5F809390029091270289137A
:101DB00003C0E0921F02C4CE10931F02C1CE8091D7
:101DC0002702882391F081E0232B09F480E080939F
:101DD000950260E080E00E94580160E081E00E948E
:101DE000580160E082E00E945801809195028823AA
:101DF00009F4A6CE0E946B0220910A0130910B01DA
:101E0000620F731F811D911D609391027093920266
:101E1000809393029093940220910C0130910D01D4
:101E2000620F731F811D911D609328027093290218
:101E300080932A0290932B0283CE8150E82FF0E00A
:101E4000EA5EFE4F208130E0F901ED58FF4F8491AA
:101E5000F901E155FF4F0491F901E556FF4F149147
:101E60001123B1F081110E948E00E12FF0E0EE0FFE
:101E7000FF1FEF56FF4FA591B491EC910E2381E027
:101E800090E009F480E080931602909317020ECF41
:101E900080E090E0F8CF60E08CE00E94B7000E9404
:101EA0006B022091080130910901620F731F811D9F
:101EB000911D6093A6027093A7028093A80290934D
:101EC000A9023ECEB0911602C255DF4FB883CE5A5A
:101ED000D040C355DF4F1882CD5AD040C355DF4F95
:101EE000E881F981CD5AD0402E0F3F1F3093090170
:101EF0002093080125CE61E0811160E086E00E9418
:101F0000B7001ECE50911602CE54DF4F5883C25BED
:101F1000D040CF54DF4F1882C15BD040CF54DF4F49
:101F200088819981C15BD040280F391FF7CE60E0CE
:101F30000E945801F801EA56FD4F10821182128268
:101F40001382FECD0E946B0266507F4F8F4F9F4FD2
:101F500060931A0270931B0280931C0290931D02DF
:101F6000EACA0E946B02A0902802B0902902C09099
:101F70002A02D0902B02A616B706C806D90608F08A
:101F800050CB10919002E12FF0E0E45DFD4F60E056
:101F900080810E94B7001F5F1093900280910E0114
:101FA00090910F01A6019501280F391F411D511D68
:101FB000DA01C9018093280290932902A0932A0292
:101FC000B0932B028091270218132BCB1092900212
:101FD0001092950226CB8091590390915A030E944A
:101FE0009212809156039091570397FD03C060E0D1
:101FF0000C94ED000895F999FECF92BD81BDF89A39
:10200000992780B50895262FF999FECF1FBA92BD62
:1020100081BD20BD0FB6F894FA9AF99A0FBE0196C9
:1020200008955058BB27AA270E9429100C94081124
:102030000E94FA1038F00E94011120F039F49F3FFD
:1020400019F426F40C94F7100EF4E095E7FB0C94C9
:10205000F110E92F0E94191158F3BA17620773079C
:102060008407950720F079F4A6F50C943B110EF443
:10207000E0950B2EBA2FA02D0B01B90190010C0198
:10208000CA01A0011124FF27591B99F0593F50F4B0
:10209000503E68F11A16F040A22F232F342F442708
:1020A000585FF3CF469537952795A795F040539500
:1020B000C9F77EF41F16BA0B620B730B840BBAF0D0
:1020C0009150A1F0FF0FBB1F661F771F881FC2F73B
:1020D0000EC0BA0F621F731F841F48F4879577954F
:1020E0006795B795F7959E3F08F0B0CF9395880F09
:1020F00008F09927EE0F9795879508950E9485100F
:102100006894B1110C943C1108950E94211188F03B
:102110009F5798F0B92F9927B751B0F0E1F0660FAB
:10212000771F881F991F1AF0BA95C9F714C0B130EC
:1021300091F00E943B11B1E008950C943B11672F80
:10214000782F8827B85F39F0B93FCCF3869577951B
:102150006795B395D9F73EF4909580957095619504
:102160007F4F8F4F9F4F0895E89409C097FB3EF42F
:1021700090958095709561957F4F8F4F9F4F9923D4
:10218000A9F0F92F96E9BB279395F6958795779552
:102190006795B795F111F8CFFAF4BB0F11F460FF12
:1021A0001BC06F5F7F4F8F4F9F4F16C0882311F06A
:1021B00096E911C0772321F09EE8872F762F05C07E
:1021C000662371F096E8862F70E060E02AF09A9519
:1021D000660F771F881FDAF7880F9695879597F90E
:1021E000089597F99F6780E870E060E008959FEF99
:1021F00080EC089500240A9416161706180609069E
:10220000089500240A94121613061406050608956C
:10221000092E0394000C11F4882352F0BB0F40F4F4
:10222000BF2B11F460FF04C06F5F7F4F8F4F9F4F34
:10223000089557FD9058440F551F59F05F3F71F0B6
:102240004795880F97FB991F61F09F3F79F087951D
:102250000895121613061406551FF2CF4695F1DFA6
:1022600008C0161617061806991FF1CF8695710536
:10227000610508940895E894BB2766277727CB016A
:1022800097F908950E9455110C9408110E94FA10B4
:1022900038F00E94011120F0952311F00C94F110F8
:1022A0000C94F71011240C943C110E94191170F336
:1022B000959FC1F3950F50E0551F629FF001729FEB
:1022C000BB27F00DB11D639FAA27F00DB11DAA1FFA
:1022D000649F6627B00DA11D661F829F2227B00D47
:1022E000A11D621F739FB00DA11D621F839FA00DD2
:1022F000611D221F749F3327A00D611D231F849F22
:10230000600D211D822F762F6A2F11249F57504078
:102310009AF0F1F088234AF0EE0FFF1FBB1F661FF3
:10232000771F881F91505040A9F79E3F510580F0BC
:102330000C94F1100C943C115F3FE4F3983ED4F3FD
:10234000869577956795B795F795E7959F5FC1F760
:10235000FE2B880F911D9695879597F90895A1E218
:102360001A2EAA1BBB1BFD010DC0AA1FBB1FEE1F0F
:10237000FF1FA217B307E407F50720F0A21BB30B5A
:10238000E40BF50B661F771F881F991F1A9469F7D6
:1023900060957095809590959B01AC01BD01CF0132
:1023A0000895052E97FB1EF400940E94E81157FD36
:1023B00007D00E94AF1107FC03D04EF40C94E81133
:1023C00050954095309521953F4F4F4F5F4F089561
:1023D00090958095709561957F4F8F4F9F4F089591
:1023E000EE0FFF1F0590F491E02D09940F931F93BA
:1023F000CF93DF938230910510F482E090E0E0917A
:102400008603F091870330E020E0B0E0A0E0309751
:1024100099F42115310509F44AC0281B390B2430E1
:102420003105D8F58A819B816115710589F1FB0120
:1024300093838283FE0111C0408151810281138107
:1024400048175907E0F04817590799F4109761F0B9
:1024500012960C93129713961C933296CF01DF912C
:10246000CF911F910F9108950093860310938703D6
:10247000F4CF2115310551F04217530738F0A90167
:10248000DB019A01BD01DF01F801C1CFEF01F9CFF6
:102490009093870380938603CDCFFE01E20FF31F55
:1024A000819391932250310939832883D7CF20918A
:1024B000840330918503232B41F420911201309144
:1024C00013013093850320938403209110013091F0
:1024D00011012115310541F42DB73EB7409114018A
:1024E00050911501241B350BE0918403F091850375
:1024F000E217F307A0F42E1B3F0B2817390778F0DB
:10250000AC014E5F5F4F2417350748F04E0F5F1F39
:102510005093850340938403819391939FCFF0E080
:10252000E0E09CCFCF93DF930097E9F0FC01329776
:1025300013821282A0918603B0918703ED0130E0EF
:1025400020E01097A1F420813181820F931F209108
:102550008403309185032817390709F061C0F0938F
:102560008503E0938403DF91CF910895EA01CE17AC
:10257000DF07E8F54A815B819E0141155105B1F7FE
:10258000E901FB83EA8349915991C40FD51FEC17E8
:10259000FD0761F4808191810296840F951FE90106
:1025A00099838883828193819B838A83F0E0E0E032
:1025B00012968D919C9113970097B9F52D913C91AE
:1025C0001197CD010296820F931F209184033091C1
:1025D00085032817390739F6309751F5109287038C
:1025E00010928603B0938503A0938403BCCFD3835A
:1025F000C28340815181840F951FC817D90761F4A8
:102600004E5F5F4F88819981480F591F51834083E6
:102610008A819B81938382832115310509F0B0CF94
:10262000F0938703E09386039ECFFD01DC01C0CFCA
:1026300013821282D7CF10E0C3E6D0E004C0FE01BF
:102640000E94F0112196C436D107C9F7F894FFCF44
:1026500077027702FFFF05000500F401E803D007C9
:102660000000880380000E0F10090B0A0000000014
:102670004403A402D10291030203E002F4020D0A12
:1026800000483A5C4D792044726976655C56756CF9
:10269000696E74757320536F667477617265202854
:1026A00044726577295C437573746F6D20536F6650
:1026B00074776172655C4B726F656E6572204C61F8
:1026C00062202855542D44616C6C6173295C417201
:1026D0006475696E6F20536B6574636865735C41E4
:1026E0007264794265686176696F725F56325F30F5
:1026F0005F4B726F656E65725F56617269616E7471
:102700005C417264794265686176696F725F5632C6
:102710005F305F4B726F656E65725F5661726961A3
:102720006E742E696E6F004F637420323520323024
:0C27300032330031333A33363A33330091
:107E0000112484B714BE81FFF0D085E080938100F7
:107E100082E08093C00088E18093C10086E0809377
:107E2000C20080E18093C4008EE0C9D0259A86E02C
:107E300020E33CEF91E0309385002093840096BBD3
:107E4000B09BFECF1D9AA8958150A9F7CC24DD24C4
:107E500088248394B5E0AB2EA1E19A2EF3E0BF2EE7
:107E6000A2D0813461F49FD0082FAFD0023811F036
:107E7000013811F484E001C083E08DD089C08234E0
:107E800011F484E103C0853419F485E0A6D080C0E4
:107E9000853579F488D0E82EFF2485D0082F10E0AE
:107EA000102F00270E291F29000F111F8ED06801E7
:107EB0006FC0863521F484E090D080E0DECF843638
:107EC00009F040C070D06FD0082F6DD080E0C81688
:107ED00080E7D80618F4F601B7BEE895C0E0D1E017
:107EE00062D089930C17E1F7F0E0CF16F0E7DF06D8
:107EF00018F0F601B7BEE89568D007B600FCFDCFD4
:107F0000A601A0E0B1E02C9130E011968C91119780
:107F100090E0982F8827822B932B1296FA010C0160
:107F200087BEE89511244E5F5F4FF1E0A038BF0790
:107F300051F7F601A7BEE89507B600FCFDCF97BE46
:107F4000E89526C08437B1F42ED02DD0F82E2BD052
:107F50003CD0F601EF2C8F010F5F1F4F84911BD097
:107F6000EA94F801C1F70894C11CD11CFA94CF0C13
:107F7000D11C0EC0853739F428D08EE10CD085E9AC
:107F80000AD08FE07ACF813511F488E018D01DD067
:107F900080E101D065CF982F8091C00085FFFCCF94
:107FA0009093C60008958091C00087FFFCCF809118
:107FB000C00084FD01C0A8958091C6000895E0E648
:107FC000F0E098E1908380830895EDDF803219F02E
:107FD00088E0F5DFFFCF84E1DECF1F93182FE3DFCA
:107FE0001150E9F7F2DF1F91089580E0E8DFEE27F6
:047FF000FF270994CA
:027FFE00040479
:00000001FF
